{
	"LuckyDrawVRF.sol": {
		"LuckyDrawVRF": {
			"abi": [
				{
					"inputs": [
						{
							"internalType": "address",
							"name": "_coordinator",
							"type": "address"
						},
						{
							"internalType": "uint256",
							"name": "_subscriptionId",
							"type": "uint256"
						},
						{
							"internalType": "bytes32",
							"name": "_keyHash",
							"type": "bytes32"
						},
						{
							"internalType": "uint256",
							"name": "_miniPrice",
							"type": "uint256"
						}
					],
					"stateMutability": "nonpayable",
					"type": "constructor"
				},
				{
					"inputs": [
						{
							"internalType": "address",
							"name": "have",
							"type": "address"
						},
						{
							"internalType": "address",
							"name": "want",
							"type": "address"
						}
					],
					"name": "OnlyCoordinatorCanFulfill",
					"type": "error"
				},
				{
					"inputs": [
						{
							"internalType": "address",
							"name": "have",
							"type": "address"
						},
						{
							"internalType": "address",
							"name": "owner",
							"type": "address"
						},
						{
							"internalType": "address",
							"name": "coordinator",
							"type": "address"
						}
					],
					"name": "OnlyOwnerOrCoordinator",
					"type": "error"
				},
				{
					"inputs": [],
					"name": "ZeroAddress",
					"type": "error"
				},
				{
					"anonymous": false,
					"inputs": [
						{
							"indexed": false,
							"internalType": "address",
							"name": "vrfCoordinator",
							"type": "address"
						}
					],
					"name": "CoordinatorSet",
					"type": "event"
				},
				{
					"anonymous": false,
					"inputs": [
						{
							"indexed": false,
							"internalType": "address",
							"name": "owner",
							"type": "address"
						},
						{
							"indexed": false,
							"internalType": "uint256",
							"name": "luckyId",
							"type": "uint256"
						},
						{
							"indexed": false,
							"internalType": "uint256",
							"name": "requestId",
							"type": "uint256"
						},
						{
							"indexed": false,
							"internalType": "uint256",
							"name": "timestamp",
							"type": "uint256"
						}
					],
					"name": "EventDrawStart",
					"type": "event"
				},
				{
					"anonymous": false,
					"inputs": [
						{
							"indexed": false,
							"internalType": "address",
							"name": "owner",
							"type": "address"
						},
						{
							"indexed": false,
							"internalType": "uint256",
							"name": "balance",
							"type": "uint256"
						},
						{
							"indexed": false,
							"internalType": "uint256",
							"name": "timestamp",
							"type": "uint256"
						}
					],
					"name": "EventDrawSuccess",
					"type": "event"
				},
				{
					"anonymous": false,
					"inputs": [
						{
							"indexed": false,
							"internalType": "address",
							"name": "winner",
							"type": "address"
						},
						{
							"indexed": false,
							"internalType": "uint256",
							"name": "luckyId",
							"type": "uint256"
						},
						{
							"indexed": false,
							"internalType": "uint256",
							"name": "requestId",
							"type": "uint256"
						},
						{
							"indexed": false,
							"internalType": "uint256",
							"name": "timestamp",
							"type": "uint256"
						}
					],
					"name": "EventDrawWinnerSuccess",
					"type": "event"
				},
				{
					"anonymous": false,
					"inputs": [
						{
							"indexed": false,
							"internalType": "address",
							"name": "user",
							"type": "address"
						},
						{
							"indexed": false,
							"internalType": "uint256",
							"name": "luckyId",
							"type": "uint256"
						},
						{
							"indexed": false,
							"internalType": "uint256",
							"name": "price",
							"type": "uint256"
						},
						{
							"indexed": false,
							"internalType": "uint256",
							"name": "timestamp",
							"type": "uint256"
						}
					],
					"name": "EventJoinSuccess",
					"type": "event"
				},
				{
					"anonymous": false,
					"inputs": [
						{
							"indexed": true,
							"internalType": "address",
							"name": "from",
							"type": "address"
						},
						{
							"indexed": true,
							"internalType": "address",
							"name": "to",
							"type": "address"
						}
					],
					"name": "OwnershipTransferRequested",
					"type": "event"
				},
				{
					"anonymous": false,
					"inputs": [
						{
							"indexed": true,
							"internalType": "address",
							"name": "from",
							"type": "address"
						},
						{
							"indexed": true,
							"internalType": "address",
							"name": "to",
							"type": "address"
						}
					],
					"name": "OwnershipTransferred",
					"type": "event"
				},
				{
					"inputs": [],
					"name": "DECIMALS",
					"outputs": [
						{
							"internalType": "uint256",
							"name": "",
							"type": "uint256"
						}
					],
					"stateMutability": "view",
					"type": "function"
				},
				{
					"inputs": [],
					"name": "ONE",
					"outputs": [
						{
							"internalType": "uint256",
							"name": "",
							"type": "uint256"
						}
					],
					"stateMutability": "view",
					"type": "function"
				},
				{
					"inputs": [],
					"name": "acceptOwnership",
					"outputs": [],
					"stateMutability": "nonpayable",
					"type": "function"
				},
				{
					"inputs": [
						{
							"internalType": "uint256",
							"name": "requestId",
							"type": "uint256"
						}
					],
					"name": "afterDrawWinner",
					"outputs": [],
					"stateMutability": "nonpayable",
					"type": "function"
				},
				{
					"inputs": [
						{
							"internalType": "uint256",
							"name": "_startTime",
							"type": "uint256"
						},
						{
							"internalType": "uint256",
							"name": "_endTime",
							"type": "uint256"
						},
						{
							"internalType": "uint256",
							"name": "_conditionPrice",
							"type": "uint256"
						}
					],
					"name": "createLucky",
					"outputs": [
						{
							"internalType": "uint256",
							"name": "",
							"type": "uint256"
						}
					],
					"stateMutability": "payable",
					"type": "function"
				},
				{
					"inputs": [],
					"name": "currentId",
					"outputs": [
						{
							"internalType": "uint256",
							"name": "",
							"type": "uint256"
						}
					],
					"stateMutability": "view",
					"type": "function"
				},
				{
					"inputs": [
						{
							"internalType": "uint256",
							"name": "id",
							"type": "uint256"
						}
					],
					"name": "drawWinner",
					"outputs": [],
					"stateMutability": "nonpayable",
					"type": "function"
				},
				{
					"inputs": [
						{
							"internalType": "uint256",
							"name": "luckyId",
							"type": "uint256"
						},
						{
							"internalType": "address",
							"name": "user",
							"type": "address"
						}
					],
					"name": "getLuckyJoinBalance",
					"outputs": [
						{
							"internalType": "uint256",
							"name": "amount",
							"type": "uint256"
						}
					],
					"stateMutability": "view",
					"type": "function"
				},
				{
					"inputs": [
						{
							"internalType": "uint256",
							"name": "luckyId",
							"type": "uint256"
						}
					],
					"name": "getOneLuckyInfo",
					"outputs": [
						{
							"internalType": "uint256",
							"name": "startTime",
							"type": "uint256"
						},
						{
							"internalType": "uint256",
							"name": "endTime",
							"type": "uint256"
						},
						{
							"internalType": "uint256",
							"name": "totalReward",
							"type": "uint256"
						},
						{
							"internalType": "address",
							"name": "owner",
							"type": "address"
						},
						{
							"internalType": "address",
							"name": "winner",
							"type": "address"
						},
						{
							"internalType": "uint256",
							"name": "price",
							"type": "uint256"
						},
						{
							"internalType": "bool",
							"name": "open",
							"type": "bool"
						},
						{
							"internalType": "uint256",
							"name": "joinNum",
							"type": "uint256"
						}
					],
					"stateMutability": "view",
					"type": "function"
				},
				{
					"inputs": [],
					"name": "getTotalFee",
					"outputs": [
						{
							"internalType": "uint256",
							"name": "",
							"type": "uint256"
						}
					],
					"stateMutability": "view",
					"type": "function"
				},
				{
					"inputs": [
						{
							"internalType": "uint256",
							"name": "id",
							"type": "uint256"
						}
					],
					"name": "joinLucky",
					"outputs": [],
					"stateMutability": "payable",
					"type": "function"
				},
				{
					"inputs": [],
					"name": "owner",
					"outputs": [
						{
							"internalType": "address",
							"name": "",
							"type": "address"
						}
					],
					"stateMutability": "view",
					"type": "function"
				},
				{
					"inputs": [
						{
							"internalType": "uint256",
							"name": "requestId",
							"type": "uint256"
						},
						{
							"internalType": "uint256[]",
							"name": "randomWords",
							"type": "uint256[]"
						}
					],
					"name": "rawFulfillRandomWords",
					"outputs": [],
					"stateMutability": "nonpayable",
					"type": "function"
				},
				{
					"inputs": [
						{
							"internalType": "uint256",
							"name": "",
							"type": "uint256"
						}
					],
					"name": "requestMap",
					"outputs": [
						{
							"internalType": "uint256",
							"name": "random",
							"type": "uint256"
						},
						{
							"internalType": "uint256",
							"name": "luckyId",
							"type": "uint256"
						}
					],
					"stateMutability": "view",
					"type": "function"
				},
				{
					"inputs": [],
					"name": "s_vrfCoordinator",
					"outputs": [
						{
							"internalType": "contract IVRFCoordinatorV2Plus",
							"name": "",
							"type": "address"
						}
					],
					"stateMutability": "view",
					"type": "function"
				},
				{
					"inputs": [
						{
							"internalType": "address",
							"name": "_vrfCoordinator",
							"type": "address"
						}
					],
					"name": "setCoordinator",
					"outputs": [],
					"stateMutability": "nonpayable",
					"type": "function"
				},
				{
					"inputs": [
						{
							"internalType": "address",
							"name": "to",
							"type": "address"
						}
					],
					"name": "transferOwnership",
					"outputs": [],
					"stateMutability": "nonpayable",
					"type": "function"
				},
				{
					"inputs": [],
					"name": "withDraw",
					"outputs": [],
					"stateMutability": "payable",
					"type": "function"
				}
			],
			"devdoc": {
				"kind": "dev",
				"methods": {},
				"version": 1
			},
			"evm": {
				"assembly": "    /* \"LuckyDrawVRF.sol\":254:8812  contract LuckyDrawVRF is VRFConsumerBaseV2Plus {... */\n  mstore(0x40, 0x80)\n    /* \"LuckyDrawVRF.sol\":636:637  3 */\n  0x03\n    /* \"LuckyDrawVRF.sol\":608:637  uint16 requestConfirmation =3 */\n  0x06\n  exp(0x0100, 0x00)\n  dup2\n  sload\n  dup2\n  0xffff\n  mul\n  not\n  and\n  swap1\n  dup4\n  0xffff\n  and\n  mul\n  or\n  swap1\n  sstore\n  pop\n    /* \"LuckyDrawVRF.sol\":694:700  500000 */\n  0x07a120\n    /* \"LuckyDrawVRF.sol\":668:700  uint32 callbackGasLimit = 500000 */\n  0x06\n  exp(0x0100, 0x02)\n  dup2\n  sload\n  dup2\n  0xffffffff\n  mul\n  not\n  and\n  swap1\n  dup4\n  0xffffffff\n  and\n  mul\n  or\n  swap1\n  sstore\n  pop\n    /* \"LuckyDrawVRF.sol\":742:743  1 */\n  0x01\n    /* \"LuckyDrawVRF.sol\":725:743  uint32 numWords= 1 */\n  0x06\n  dup1\n  0x0100\n  exp\n  dup2\n  sload\n  dup2\n  0xffffffff\n  mul\n  not\n  and\n  swap1\n  dup4\n  0xffffffff\n  and\n  mul\n  or\n  swap1\n  sstore\n  pop\n    /* \"LuckyDrawVRF.sol\":1020:1021  0 */\n  0x00\n    /* \"LuckyDrawVRF.sol\":1000:1021  uint8 hasProcessing=0 */\n  0x0a\n  exp(0x0100, 0x00)\n  dup2\n  sload\n  dup2\n  0xff\n  mul\n  not\n  and\n  swap1\n  dup4\n  0xff\n  and\n  mul\n  or\n  swap1\n  sstore\n  pop\n    /* \"LuckyDrawVRF.sol\":2231:2627  constructor(address _coordinator, uint256 _subscriptionId, bytes32 _keyHash,uint256 _miniPrice) VRFConsumerBaseV2Plus(_coordinator) {... */\n  callvalue\n  dup1\n  iszero\n  tag_1\n  jumpi\n  revert(0x00, 0x00)\ntag_1:\n  pop\n  mload(0x40)\n  sub(codesize, bytecodeSize)\n  dup1\n  bytecodeSize\n  dup4\n  codecopy\n  dup2\n  dup2\n  add\n  0x40\n  mstore\n  dup2\n  add\n  swap1\n  tag_2\n  swap2\n  swap1\n  tag_3\n  jump\t// in\ntag_2:\n    /* \"LuckyDrawVRF.sol\":2349:2361  _coordinator */\n  dup4\n    /* \"@chainlink/contracts/src/v0.8/vrf/dev/VRFConsumerBaseV2Plus.sol\":6254:6264  msg.sender */\n  caller\n    /* \"@chainlink/contracts/src/v0.8/shared/access/ConfirmedOwner.sol\":355:363  newOwner */\n  dup1\n    /* \"@chainlink/contracts/src/v0.8/shared/access/ConfirmedOwner.sol\":373:374  0 */\n  0x00\n    /* \"@chainlink/contracts/src/v0.8/shared/access/ConfirmedOwnerWithProposal.sol\":618:619  0 */\n  0x00\n    /* \"@chainlink/contracts/src/v0.8/shared/access/ConfirmedOwnerWithProposal.sol\":598:620  newOwner != address(0) */\n  0xffffffffffffffffffffffffffffffffffffffff\n  and\n    /* \"@chainlink/contracts/src/v0.8/shared/access/ConfirmedOwnerWithProposal.sol\":598:606  newOwner */\n  dup3\n    /* \"@chainlink/contracts/src/v0.8/shared/access/ConfirmedOwnerWithProposal.sol\":598:620  newOwner != address(0) */\n  0xffffffffffffffffffffffffffffffffffffffff\n  and\n  sub\n    /* \"@chainlink/contracts/src/v0.8/shared/access/ConfirmedOwnerWithProposal.sol\":590:649  require(newOwner != address(0), \"Cannot set owner to zero\") */\n  tag_9\n  jumpi\n  mload(0x40)\n  0x08c379a000000000000000000000000000000000000000000000000000000000\n  dup2\n  mstore\n  0x04\n  add\n  tag_10\n  swap1\n  tag_11\n  jump\t// in\ntag_10:\n  mload(0x40)\n  dup1\n  swap2\n  sub\n  swap1\n  revert\ntag_9:\n    /* \"@chainlink/contracts/src/v0.8/shared/access/ConfirmedOwnerWithProposal.sol\":666:674  newOwner */\n  dup2\n    /* \"@chainlink/contracts/src/v0.8/shared/access/ConfirmedOwnerWithProposal.sol\":656:663  s_owner */\n  0x00\n  0x00\n    /* \"@chainlink/contracts/src/v0.8/shared/access/ConfirmedOwnerWithProposal.sol\":656:674  s_owner = newOwner */\n  0x0100\n  exp\n  dup2\n  sload\n  dup2\n  0xffffffffffffffffffffffffffffffffffffffff\n  mul\n  not\n  and\n  swap1\n  dup4\n  0xffffffffffffffffffffffffffffffffffffffff\n  and\n  mul\n  or\n  swap1\n  sstore\n  pop\n    /* \"@chainlink/contracts/src/v0.8/shared/access/ConfirmedOwnerWithProposal.sol\":708:709  0 */\n  0x00\n    /* \"@chainlink/contracts/src/v0.8/shared/access/ConfirmedOwnerWithProposal.sol\":684:710  pendingOwner != address(0) */\n  0xffffffffffffffffffffffffffffffffffffffff\n  and\n    /* \"@chainlink/contracts/src/v0.8/shared/access/ConfirmedOwnerWithProposal.sol\":684:696  pendingOwner */\n  dup2\n    /* \"@chainlink/contracts/src/v0.8/shared/access/ConfirmedOwnerWithProposal.sol\":684:710  pendingOwner != address(0) */\n  0xffffffffffffffffffffffffffffffffffffffff\n  and\n  eq\n    /* \"@chainlink/contracts/src/v0.8/shared/access/ConfirmedOwnerWithProposal.sol\":680:759  if (pendingOwner != address(0)) {... */\n  tag_12\n  jumpi\n    /* \"@chainlink/contracts/src/v0.8/shared/access/ConfirmedOwnerWithProposal.sol\":720:752  _transferOwnership(pendingOwner) */\n  tag_13\n    /* \"@chainlink/contracts/src/v0.8/shared/access/ConfirmedOwnerWithProposal.sol\":739:751  pendingOwner */\n  dup2\n    /* \"@chainlink/contracts/src/v0.8/shared/access/ConfirmedOwnerWithProposal.sol\":720:738  _transferOwnership */\n  shl(0x20, tag_14)\n    /* \"@chainlink/contracts/src/v0.8/shared/access/ConfirmedOwnerWithProposal.sol\":720:752  _transferOwnership(pendingOwner) */\n  0x20\n  shr\n  jump\t// in\ntag_13:\n    /* \"@chainlink/contracts/src/v0.8/shared/access/ConfirmedOwnerWithProposal.sol\":680:759  if (pendingOwner != address(0)) {... */\ntag_12:\n    /* \"@chainlink/contracts/src/v0.8/shared/access/ConfirmedOwnerWithProposal.sol\":481:763  constructor(address newOwner, address pendingOwner) {... */\n  pop\n  pop\n    /* \"@chainlink/contracts/src/v0.8/shared/access/ConfirmedOwner.sol\":298:379  constructor(address newOwner) ConfirmedOwnerWithProposal(newOwner, address(0)) {} */\n  pop\n    /* \"@chainlink/contracts/src/v0.8/vrf/dev/VRFConsumerBaseV2Plus.sol\":6303:6304  0 */\n  0x00\n    /* \"@chainlink/contracts/src/v0.8/vrf/dev/VRFConsumerBaseV2Plus.sol\":6276:6305  _vrfCoordinator == address(0) */\n  0xffffffffffffffffffffffffffffffffffffffff\n  and\n    /* \"@chainlink/contracts/src/v0.8/vrf/dev/VRFConsumerBaseV2Plus.sol\":6276:6291  _vrfCoordinator */\n  dup2\n    /* \"@chainlink/contracts/src/v0.8/vrf/dev/VRFConsumerBaseV2Plus.sol\":6276:6305  _vrfCoordinator == address(0) */\n  0xffffffffffffffffffffffffffffffffffffffff\n  and\n  sub\n    /* \"@chainlink/contracts/src/v0.8/vrf/dev/VRFConsumerBaseV2Plus.sol\":6272:6342  if (_vrfCoordinator == address(0)) {... */\n  tag_17\n  jumpi\n    /* \"@chainlink/contracts/src/v0.8/vrf/dev/VRFConsumerBaseV2Plus.sol\":6322:6335  ZeroAddress() */\n  mload(0x40)\n  0xd92e233d00000000000000000000000000000000000000000000000000000000\n  dup2\n  mstore\n  0x04\n  add\n  mload(0x40)\n  dup1\n  swap2\n  sub\n  swap1\n  revert\n    /* \"@chainlink/contracts/src/v0.8/vrf/dev/VRFConsumerBaseV2Plus.sol\":6272:6342  if (_vrfCoordinator == address(0)) {... */\ntag_17:\n    /* \"@chainlink/contracts/src/v0.8/vrf/dev/VRFConsumerBaseV2Plus.sol\":6388:6403  _vrfCoordinator */\n  dup1\n    /* \"@chainlink/contracts/src/v0.8/vrf/dev/VRFConsumerBaseV2Plus.sol\":6347:6363  s_vrfCoordinator */\n  0x02\n  0x00\n    /* \"@chainlink/contracts/src/v0.8/vrf/dev/VRFConsumerBaseV2Plus.sol\":6347:6404  s_vrfCoordinator = IVRFCoordinatorV2Plus(_vrfCoordinator) */\n  0x0100\n  exp\n  dup2\n  sload\n  dup2\n  0xffffffffffffffffffffffffffffffffffffffff\n  mul\n  not\n  and\n  swap1\n  dup4\n  0xffffffffffffffffffffffffffffffffffffffff\n  and\n  mul\n  or\n  swap1\n  sstore\n  pop\n    /* \"@chainlink/contracts/src/v0.8/vrf/dev/VRFConsumerBaseV2Plus.sol\":6202:6409  constructor(address _vrfCoordinator) ConfirmedOwner(msg.sender) {... */\n  pop\n    /* \"LuckyDrawVRF.sol\":2390:2402  _coordinator */\n  dup4\n    /* \"LuckyDrawVRF.sol\":2373:2387  vrfCoordinator */\n  0x04\n  0x00\n    /* \"LuckyDrawVRF.sol\":2373:2402  vrfCoordinator = _coordinator */\n  0x0100\n  exp\n  dup2\n  sload\n  dup2\n  0xffffffffffffffffffffffffffffffffffffffff\n  mul\n  not\n  and\n  swap1\n  dup4\n  0xffffffffffffffffffffffffffffffffffffffff\n  and\n  mul\n  or\n  swap1\n  sstore\n  pop\n    /* \"LuckyDrawVRF.sol\":2453:2465  _coordinator */\n  dup4\n    /* \"LuckyDrawVRF.sol\":2412:2428  s_vrfCoordinator */\n  0x02\n  0x00\n    /* \"LuckyDrawVRF.sol\":2412:2466  s_vrfCoordinator = IVRFCoordinatorV2Plus(_coordinator) */\n  0x0100\n  exp\n  dup2\n  sload\n  dup2\n  0xffffffffffffffffffffffffffffffffffffffff\n  mul\n  not\n  and\n  swap1\n  dup4\n  0xffffffffffffffffffffffffffffffffffffffff\n  and\n  mul\n  or\n  swap1\n  sstore\n  pop\n    /* \"LuckyDrawVRF.sol\":2491:2506  _subscriptionId */\n  dup3\n    /* \"LuckyDrawVRF.sol\":2476:2490  subscriptionId */\n  0x03\n    /* \"LuckyDrawVRF.sol\":2476:2506  subscriptionId=_subscriptionId */\n  dup2\n  swap1\n  sstore\n  pop\n    /* \"LuckyDrawVRF.sol\":2524:2532  _keyHash */\n  dup2\n    /* \"LuckyDrawVRF.sol\":2516:2523  keyHash */\n  0x05\n    /* \"LuckyDrawVRF.sol\":2516:2532  keyHash=_keyHash */\n  dup2\n  swap1\n  sstore\n  pop\n    /* \"LuckyDrawVRF.sol\":2552:2553  1 */\n  0x01\n    /* \"LuckyDrawVRF.sol\":2542:2551  currentId */\n  0x07\n    /* \"LuckyDrawVRF.sol\":2542:2553  currentId=1 */\n  dup2\n  swap1\n  sstore\n  pop\n    /* \"LuckyDrawVRF.sol\":2575:2585  _miniPrice */\n  dup1\n    /* \"LuckyDrawVRF.sol\":2563:2572  miniPrice */\n  0x0b\n    /* \"LuckyDrawVRF.sol\":2563:2585  miniPrice = _miniPrice */\n  dup2\n  swap1\n  sstore\n  pop\n    /* \"LuckyDrawVRF.sol\":2610:2620  msg.sender */\n  caller\n    /* \"LuckyDrawVRF.sol\":2595:2608  contractOwner */\n  0x0d\n  0x00\n    /* \"LuckyDrawVRF.sol\":2595:2620  contractOwner= msg.sender */\n  0x0100\n  exp\n  dup2\n  sload\n  dup2\n  0xffffffffffffffffffffffffffffffffffffffff\n  mul\n  not\n  and\n  swap1\n  dup4\n  0xffffffffffffffffffffffffffffffffffffffff\n  and\n  mul\n  or\n  swap1\n  sstore\n  pop\n    /* \"LuckyDrawVRF.sol\":2231:2627  constructor(address _coordinator, uint256 _subscriptionId, bytes32 _keyHash,uint256 _miniPrice) VRFConsumerBaseV2Plus(_coordinator) {... */\n  pop\n  pop\n  pop\n  pop\n    /* \"LuckyDrawVRF.sol\":254:8812  contract LuckyDrawVRF is VRFConsumerBaseV2Plus {... */\n  jump(tag_19)\n    /* \"@chainlink/contracts/src/v0.8/shared/access/ConfirmedOwnerWithProposal.sol\":1536:1775  function _transferOwnership(address to) private {... */\ntag_14:\n    /* \"@chainlink/contracts/src/v0.8/shared/access/ConfirmedOwnerWithProposal.sol\":1655:1665  msg.sender */\n  caller\n    /* \"@chainlink/contracts/src/v0.8/shared/access/ConfirmedOwnerWithProposal.sol\":1649:1665  to != msg.sender */\n  0xffffffffffffffffffffffffffffffffffffffff\n  and\n    /* \"@chainlink/contracts/src/v0.8/shared/access/ConfirmedOwnerWithProposal.sol\":1649:1651  to */\n  dup2\n    /* \"@chainlink/contracts/src/v0.8/shared/access/ConfirmedOwnerWithProposal.sol\":1649:1665  to != msg.sender */\n  0xffffffffffffffffffffffffffffffffffffffff\n  and\n  sub\n    /* \"@chainlink/contracts/src/v0.8/shared/access/ConfirmedOwnerWithProposal.sol\":1641:1693  require(to != msg.sender, \"Cannot transfer to self\") */\n  tag_21\n  jumpi\n  mload(0x40)\n  0x08c379a000000000000000000000000000000000000000000000000000000000\n  dup2\n  mstore\n  0x04\n  add\n  tag_22\n  swap1\n  tag_23\n  jump\t// in\ntag_22:\n  mload(0x40)\n  dup1\n  swap2\n  sub\n  swap1\n  revert\ntag_21:\n    /* \"@chainlink/contracts/src/v0.8/shared/access/ConfirmedOwnerWithProposal.sol\":1717:1719  to */\n  dup1\n    /* \"@chainlink/contracts/src/v0.8/shared/access/ConfirmedOwnerWithProposal.sol\":1700:1714  s_pendingOwner */\n  0x01\n  0x00\n    /* \"@chainlink/contracts/src/v0.8/shared/access/ConfirmedOwnerWithProposal.sol\":1700:1719  s_pendingOwner = to */\n  0x0100\n  exp\n  dup2\n  sload\n  dup2\n  0xffffffffffffffffffffffffffffffffffffffff\n  mul\n  not\n  and\n  swap1\n  dup4\n  0xffffffffffffffffffffffffffffffffffffffff\n  and\n  mul\n  or\n  swap1\n  sstore\n  pop\n    /* \"@chainlink/contracts/src/v0.8/shared/access/ConfirmedOwnerWithProposal.sol\":1767:1769  to */\n  dup1\n    /* \"@chainlink/contracts/src/v0.8/shared/access/ConfirmedOwnerWithProposal.sol\":1731:1770  OwnershipTransferRequested(s_owner, to) */\n  0xffffffffffffffffffffffffffffffffffffffff\n  and\n    /* \"@chainlink/contracts/src/v0.8/shared/access/ConfirmedOwnerWithProposal.sol\":1758:1765  s_owner */\n  0x00\n  0x00\n  swap1\n  sload\n  swap1\n  0x0100\n  exp\n  swap1\n  div\n  0xffffffffffffffffffffffffffffffffffffffff\n  and\n    /* \"@chainlink/contracts/src/v0.8/shared/access/ConfirmedOwnerWithProposal.sol\":1731:1770  OwnershipTransferRequested(s_owner, to) */\n  0xffffffffffffffffffffffffffffffffffffffff\n  and\n  0xed8889f560326eb138920d842192f0eb3dd22b4f139c87a2c57538e05bae1278\n  mload(0x40)\n  mload(0x40)\n  dup1\n  swap2\n  sub\n  swap1\n  log3\n    /* \"@chainlink/contracts/src/v0.8/shared/access/ConfirmedOwnerWithProposal.sol\":1536:1775  function _transferOwnership(address to) private {... */\n  pop\n  jump\t// out\n    /* \"#utility.yul\":88:205   */\ntag_25:\n    /* \"#utility.yul\":197:198   */\n  0x00\n    /* \"#utility.yul\":194:195   */\n  0x00\n    /* \"#utility.yul\":187:199   */\n  revert\n    /* \"#utility.yul\":334:460   */\ntag_27:\n    /* \"#utility.yul\":371:378   */\n  0x00\n    /* \"#utility.yul\":411:453   */\n  0xffffffffffffffffffffffffffffffffffffffff\n    /* \"#utility.yul\":404:409   */\n  dup3\n    /* \"#utility.yul\":400:454   */\n  and\n    /* \"#utility.yul\":389:454   */\n  swap1\n  pop\n    /* \"#utility.yul\":334:460   */\n  swap2\n  swap1\n  pop\n  jump\t// out\n    /* \"#utility.yul\":466:562   */\ntag_28:\n    /* \"#utility.yul\":503:510   */\n  0x00\n    /* \"#utility.yul\":532:556   */\n  tag_48\n    /* \"#utility.yul\":550:555   */\n  dup3\n    /* \"#utility.yul\":532:556   */\n  tag_27\n  jump\t// in\ntag_48:\n    /* \"#utility.yul\":521:556   */\n  swap1\n  pop\n    /* \"#utility.yul\":466:562   */\n  swap2\n  swap1\n  pop\n  jump\t// out\n    /* \"#utility.yul\":568:690   */\ntag_29:\n    /* \"#utility.yul\":641:665   */\n  tag_50\n    /* \"#utility.yul\":659:664   */\n  dup2\n    /* \"#utility.yul\":641:665   */\n  tag_28\n  jump\t// in\ntag_50:\n    /* \"#utility.yul\":634:639   */\n  dup2\n    /* \"#utility.yul\":631:666   */\n  eq\n    /* \"#utility.yul\":621:684   */\n  tag_51\n  jumpi\n    /* \"#utility.yul\":680:681   */\n  0x00\n    /* \"#utility.yul\":677:678   */\n  0x00\n    /* \"#utility.yul\":670:682   */\n  revert\n    /* \"#utility.yul\":621:684   */\ntag_51:\n    /* \"#utility.yul\":568:690   */\n  pop\n  jump\t// out\n    /* \"#utility.yul\":696:839   */\ntag_30:\n    /* \"#utility.yul\":753:758   */\n  0x00\n    /* \"#utility.yul\":784:790   */\n  dup2\n    /* \"#utility.yul\":778:791   */\n  mload\n    /* \"#utility.yul\":769:791   */\n  swap1\n  pop\n    /* \"#utility.yul\":800:833   */\n  tag_53\n    /* \"#utility.yul\":827:832   */\n  dup2\n    /* \"#utility.yul\":800:833   */\n  tag_29\n  jump\t// in\ntag_53:\n    /* \"#utility.yul\":696:839   */\n  swap3\n  swap2\n  pop\n  pop\n  jump\t// out\n    /* \"#utility.yul\":845:922   */\ntag_31:\n    /* \"#utility.yul\":882:889   */\n  0x00\n    /* \"#utility.yul\":911:916   */\n  dup2\n    /* \"#utility.yul\":900:916   */\n  swap1\n  pop\n    /* \"#utility.yul\":845:922   */\n  swap2\n  swap1\n  pop\n  jump\t// out\n    /* \"#utility.yul\":928:1050   */\ntag_32:\n    /* \"#utility.yul\":1001:1025   */\n  tag_56\n    /* \"#utility.yul\":1019:1024   */\n  dup2\n    /* \"#utility.yul\":1001:1025   */\n  tag_31\n  jump\t// in\ntag_56:\n    /* \"#utility.yul\":994:999   */\n  dup2\n    /* \"#utility.yul\":991:1026   */\n  eq\n    /* \"#utility.yul\":981:1044   */\n  tag_57\n  jumpi\n    /* \"#utility.yul\":1040:1041   */\n  0x00\n    /* \"#utility.yul\":1037:1038   */\n  0x00\n    /* \"#utility.yul\":1030:1042   */\n  revert\n    /* \"#utility.yul\":981:1044   */\ntag_57:\n    /* \"#utility.yul\":928:1050   */\n  pop\n  jump\t// out\n    /* \"#utility.yul\":1056:1199   */\ntag_33:\n    /* \"#utility.yul\":1113:1118   */\n  0x00\n    /* \"#utility.yul\":1144:1150   */\n  dup2\n    /* \"#utility.yul\":1138:1151   */\n  mload\n    /* \"#utility.yul\":1129:1151   */\n  swap1\n  pop\n    /* \"#utility.yul\":1160:1193   */\n  tag_59\n    /* \"#utility.yul\":1187:1192   */\n  dup2\n    /* \"#utility.yul\":1160:1193   */\n  tag_32\n  jump\t// in\ntag_59:\n    /* \"#utility.yul\":1056:1199   */\n  swap3\n  swap2\n  pop\n  pop\n  jump\t// out\n    /* \"#utility.yul\":1205:1282   */\ntag_34:\n    /* \"#utility.yul\":1242:1249   */\n  0x00\n    /* \"#utility.yul\":1271:1276   */\n  dup2\n    /* \"#utility.yul\":1260:1276   */\n  swap1\n  pop\n    /* \"#utility.yul\":1205:1282   */\n  swap2\n  swap1\n  pop\n  jump\t// out\n    /* \"#utility.yul\":1288:1410   */\ntag_35:\n    /* \"#utility.yul\":1361:1385   */\n  tag_62\n    /* \"#utility.yul\":1379:1384   */\n  dup2\n    /* \"#utility.yul\":1361:1385   */\n  tag_34\n  jump\t// in\ntag_62:\n    /* \"#utility.yul\":1354:1359   */\n  dup2\n    /* \"#utility.yul\":1351:1386   */\n  eq\n    /* \"#utility.yul\":1341:1404   */\n  tag_63\n  jumpi\n    /* \"#utility.yul\":1400:1401   */\n  0x00\n    /* \"#utility.yul\":1397:1398   */\n  0x00\n    /* \"#utility.yul\":1390:1402   */\n  revert\n    /* \"#utility.yul\":1341:1404   */\ntag_63:\n    /* \"#utility.yul\":1288:1410   */\n  pop\n  jump\t// out\n    /* \"#utility.yul\":1416:1559   */\ntag_36:\n    /* \"#utility.yul\":1473:1478   */\n  0x00\n    /* \"#utility.yul\":1504:1510   */\n  dup2\n    /* \"#utility.yul\":1498:1511   */\n  mload\n    /* \"#utility.yul\":1489:1511   */\n  swap1\n  pop\n    /* \"#utility.yul\":1520:1553   */\n  tag_65\n    /* \"#utility.yul\":1547:1552   */\n  dup2\n    /* \"#utility.yul\":1520:1553   */\n  tag_35\n  jump\t// in\ntag_65:\n    /* \"#utility.yul\":1416:1559   */\n  swap3\n  swap2\n  pop\n  pop\n  jump\t// out\n    /* \"#utility.yul\":1565:2385   */\ntag_3:\n    /* \"#utility.yul\":1662:1668   */\n  0x00\n    /* \"#utility.yul\":1670:1676   */\n  0x00\n    /* \"#utility.yul\":1678:1684   */\n  0x00\n    /* \"#utility.yul\":1686:1692   */\n  0x00\n    /* \"#utility.yul\":1735:1738   */\n  0x80\n    /* \"#utility.yul\":1723:1732   */\n  dup6\n    /* \"#utility.yul\":1714:1721   */\n  dup8\n    /* \"#utility.yul\":1710:1733   */\n  sub\n    /* \"#utility.yul\":1706:1739   */\n  slt\n    /* \"#utility.yul\":1703:1823   */\n  iszero\n  tag_67\n  jumpi\n    /* \"#utility.yul\":1742:1821   */\n  tag_68\n  tag_25\n  jump\t// in\ntag_68:\n    /* \"#utility.yul\":1703:1823   */\ntag_67:\n    /* \"#utility.yul\":1862:1863   */\n  0x00\n    /* \"#utility.yul\":1887:1951   */\n  tag_69\n    /* \"#utility.yul\":1943:1950   */\n  dup8\n    /* \"#utility.yul\":1934:1940   */\n  dup3\n    /* \"#utility.yul\":1923:1932   */\n  dup9\n    /* \"#utility.yul\":1919:1941   */\n  add\n    /* \"#utility.yul\":1887:1951   */\n  tag_30\n  jump\t// in\ntag_69:\n    /* \"#utility.yul\":1877:1951   */\n  swap5\n  pop\n    /* \"#utility.yul\":1833:1961   */\n  pop\n    /* \"#utility.yul\":2000:2002   */\n  0x20\n    /* \"#utility.yul\":2026:2090   */\n  tag_70\n    /* \"#utility.yul\":2082:2089   */\n  dup8\n    /* \"#utility.yul\":2073:2079   */\n  dup3\n    /* \"#utility.yul\":2062:2071   */\n  dup9\n    /* \"#utility.yul\":2058:2080   */\n  add\n    /* \"#utility.yul\":2026:2090   */\n  tag_33\n  jump\t// in\ntag_70:\n    /* \"#utility.yul\":2016:2090   */\n  swap4\n  pop\n    /* \"#utility.yul\":1971:2100   */\n  pop\n    /* \"#utility.yul\":2139:2141   */\n  0x40\n    /* \"#utility.yul\":2165:2229   */\n  tag_71\n    /* \"#utility.yul\":2221:2228   */\n  dup8\n    /* \"#utility.yul\":2212:2218   */\n  dup3\n    /* \"#utility.yul\":2201:2210   */\n  dup9\n    /* \"#utility.yul\":2197:2219   */\n  add\n    /* \"#utility.yul\":2165:2229   */\n  tag_36\n  jump\t// in\ntag_71:\n    /* \"#utility.yul\":2155:2229   */\n  swap3\n  pop\n    /* \"#utility.yul\":2110:2239   */\n  pop\n    /* \"#utility.yul\":2278:2280   */\n  0x60\n    /* \"#utility.yul\":2304:2368   */\n  tag_72\n    /* \"#utility.yul\":2360:2367   */\n  dup8\n    /* \"#utility.yul\":2351:2357   */\n  dup3\n    /* \"#utility.yul\":2340:2349   */\n  dup9\n    /* \"#utility.yul\":2336:2358   */\n  add\n    /* \"#utility.yul\":2304:2368   */\n  tag_33\n  jump\t// in\ntag_72:\n    /* \"#utility.yul\":2294:2368   */\n  swap2\n  pop\n    /* \"#utility.yul\":2249:2378   */\n  pop\n    /* \"#utility.yul\":1565:2385   */\n  swap3\n  swap6\n  swap2\n  swap5\n  pop\n  swap3\n  pop\n  jump\t// out\n    /* \"#utility.yul\":2391:2560   */\ntag_37:\n    /* \"#utility.yul\":2475:2486   */\n  0x00\n    /* \"#utility.yul\":2509:2515   */\n  dup3\n    /* \"#utility.yul\":2504:2507   */\n  dup3\n    /* \"#utility.yul\":2497:2516   */\n  mstore\n    /* \"#utility.yul\":2549:2553   */\n  0x20\n    /* \"#utility.yul\":2544:2547   */\n  dup3\n    /* \"#utility.yul\":2540:2554   */\n  add\n    /* \"#utility.yul\":2525:2554   */\n  swap1\n  pop\n    /* \"#utility.yul\":2391:2560   */\n  swap3\n  swap2\n  pop\n  pop\n  jump\t// out\n    /* \"#utility.yul\":2566:2740   */\ntag_38:\n    /* \"#utility.yul\":2706:2732   */\n  0x43616e6e6f7420736574206f776e657220746f207a65726f0000000000000000\n    /* \"#utility.yul\":2702:2703   */\n  0x00\n    /* \"#utility.yul\":2694:2700   */\n  dup3\n    /* \"#utility.yul\":2690:2704   */\n  add\n    /* \"#utility.yul\":2683:2733   */\n  mstore\n    /* \"#utility.yul\":2566:2740   */\n  pop\n  jump\t// out\n    /* \"#utility.yul\":2746:3112   */\ntag_39:\n    /* \"#utility.yul\":2888:2891   */\n  0x00\n    /* \"#utility.yul\":2909:2976   */\n  tag_76\n    /* \"#utility.yul\":2973:2975   */\n  0x18\n    /* \"#utility.yul\":2968:2971   */\n  dup4\n    /* \"#utility.yul\":2909:2976   */\n  tag_37\n  jump\t// in\ntag_76:\n    /* \"#utility.yul\":2902:2976   */\n  swap2\n  pop\n    /* \"#utility.yul\":2985:3078   */\n  tag_77\n    /* \"#utility.yul\":3074:3077   */\n  dup3\n    /* \"#utility.yul\":2985:3078   */\n  tag_38\n  jump\t// in\ntag_77:\n    /* \"#utility.yul\":3103:3105   */\n  0x20\n    /* \"#utility.yul\":3098:3101   */\n  dup3\n    /* \"#utility.yul\":3094:3106   */\n  add\n    /* \"#utility.yul\":3087:3106   */\n  swap1\n  pop\n    /* \"#utility.yul\":2746:3112   */\n  swap2\n  swap1\n  pop\n  jump\t// out\n    /* \"#utility.yul\":3118:3537   */\ntag_11:\n    /* \"#utility.yul\":3284:3288   */\n  0x00\n    /* \"#utility.yul\":3322:3324   */\n  0x20\n    /* \"#utility.yul\":3311:3320   */\n  dup3\n    /* \"#utility.yul\":3307:3325   */\n  add\n    /* \"#utility.yul\":3299:3325   */\n  swap1\n  pop\n    /* \"#utility.yul\":3371:3380   */\n  dup2\n    /* \"#utility.yul\":3365:3369   */\n  dup2\n    /* \"#utility.yul\":3361:3381   */\n  sub\n    /* \"#utility.yul\":3357:3358   */\n  0x00\n    /* \"#utility.yul\":3346:3355   */\n  dup4\n    /* \"#utility.yul\":3342:3359   */\n  add\n    /* \"#utility.yul\":3335:3382   */\n  mstore\n    /* \"#utility.yul\":3399:3530   */\n  tag_79\n    /* \"#utility.yul\":3525:3529   */\n  dup2\n    /* \"#utility.yul\":3399:3530   */\n  tag_39\n  jump\t// in\ntag_79:\n    /* \"#utility.yul\":3391:3530   */\n  swap1\n  pop\n    /* \"#utility.yul\":3118:3537   */\n  swap2\n  swap1\n  pop\n  jump\t// out\n    /* \"#utility.yul\":3543:3716   */\ntag_40:\n    /* \"#utility.yul\":3683:3708   */\n  0x43616e6e6f74207472616e7366657220746f2073656c66000000000000000000\n    /* \"#utility.yul\":3679:3680   */\n  0x00\n    /* \"#utility.yul\":3671:3677   */\n  dup3\n    /* \"#utility.yul\":3667:3681   */\n  add\n    /* \"#utility.yul\":3660:3709   */\n  mstore\n    /* \"#utility.yul\":3543:3716   */\n  pop\n  jump\t// out\n    /* \"#utility.yul\":3722:4088   */\ntag_41:\n    /* \"#utility.yul\":3864:3867   */\n  0x00\n    /* \"#utility.yul\":3885:3952   */\n  tag_82\n    /* \"#utility.yul\":3949:3951   */\n  0x17\n    /* \"#utility.yul\":3944:3947   */\n  dup4\n    /* \"#utility.yul\":3885:3952   */\n  tag_37\n  jump\t// in\ntag_82:\n    /* \"#utility.yul\":3878:3952   */\n  swap2\n  pop\n    /* \"#utility.yul\":3961:4054   */\n  tag_83\n    /* \"#utility.yul\":4050:4053   */\n  dup3\n    /* \"#utility.yul\":3961:4054   */\n  tag_40\n  jump\t// in\ntag_83:\n    /* \"#utility.yul\":4079:4081   */\n  0x20\n    /* \"#utility.yul\":4074:4077   */\n  dup3\n    /* \"#utility.yul\":4070:4082   */\n  add\n    /* \"#utility.yul\":4063:4082   */\n  swap1\n  pop\n    /* \"#utility.yul\":3722:4088   */\n  swap2\n  swap1\n  pop\n  jump\t// out\n    /* \"#utility.yul\":4094:4513   */\ntag_23:\n    /* \"#utility.yul\":4260:4264   */\n  0x00\n    /* \"#utility.yul\":4298:4300   */\n  0x20\n    /* \"#utility.yul\":4287:4296   */\n  dup3\n    /* \"#utility.yul\":4283:4301   */\n  add\n    /* \"#utility.yul\":4275:4301   */\n  swap1\n  pop\n    /* \"#utility.yul\":4347:4356   */\n  dup2\n    /* \"#utility.yul\":4341:4345   */\n  dup2\n    /* \"#utility.yul\":4337:4357   */\n  sub\n    /* \"#utility.yul\":4333:4334   */\n  0x00\n    /* \"#utility.yul\":4322:4331   */\n  dup4\n    /* \"#utility.yul\":4318:4335   */\n  add\n    /* \"#utility.yul\":4311:4358   */\n  mstore\n    /* \"#utility.yul\":4375:4506   */\n  tag_85\n    /* \"#utility.yul\":4501:4505   */\n  dup2\n    /* \"#utility.yul\":4375:4506   */\n  tag_41\n  jump\t// in\ntag_85:\n    /* \"#utility.yul\":4367:4506   */\n  swap1\n  pop\n    /* \"#utility.yul\":4094:4513   */\n  swap2\n  swap1\n  pop\n  jump\t// out\n    /* \"LuckyDrawVRF.sol\":254:8812  contract LuckyDrawVRF is VRFConsumerBaseV2Plus {... */\ntag_19:\n  dataSize(sub_0)\n  dup1\n  dataOffset(sub_0)\n  0x00\n  codecopy\n  0x00\n  return\nstop\n\nsub_0: assembly {\n        /* \"LuckyDrawVRF.sol\":254:8812  contract LuckyDrawVRF is VRFConsumerBaseV2Plus {... */\n      mstore(0x40, 0x80)\n      jumpi(tag_1, lt(calldatasize, 0x04))\n      shr(0xe0, calldataload(0x00))\n      dup1\n      0x8da5cb5b\n      gt\n      tag_20\n      jumpi\n      dup1\n      0xc2ee3a08\n      gt\n      tag_21\n      jumpi\n      dup1\n      0xc2ee3a08\n      eq\n      tag_15\n      jumpi\n      dup1\n      0xe00dd161\n      eq\n      tag_16\n      jumpi\n      dup1\n      0xe578b0bb\n      eq\n      tag_17\n      jumpi\n      dup1\n      0xf2fde38b\n      eq\n      tag_18\n      jumpi\n      dup1\n      0xf36b98fb\n      eq\n      tag_19\n      jumpi\n      jump(tag_1)\n    tag_21:\n      dup1\n      0x8da5cb5b\n      eq\n      tag_11\n      jumpi\n      dup1\n      0x8ea98117\n      eq\n      tag_12\n      jumpi\n      dup1\n      0x9eccacf6\n      eq\n      tag_13\n      jumpi\n      dup1\n      0xa3fa9775\n      eq\n      tag_14\n      jumpi\n      jump(tag_1)\n    tag_20:\n      dup1\n      0x2e0f2625\n      gt\n      tag_22\n      jumpi\n      dup1\n      0x2e0f2625\n      eq\n      tag_6\n      jumpi\n      dup1\n      0x36068a56\n      eq\n      tag_7\n      jumpi\n      dup1\n      0x60b2a56a\n      eq\n      tag_8\n      jumpi\n      dup1\n      0x79ba5097\n      eq\n      tag_9\n      jumpi\n      dup1\n      0x7ae316d0\n      eq\n      tag_10\n      jumpi\n      jump(tag_1)\n    tag_22:\n      dup1\n      0x03db19cf\n      eq\n      tag_2\n      jumpi\n      dup1\n      0x0fdb1c10\n      eq\n      tag_3\n      jumpi\n      dup1\n      0x1a735f18\n      eq\n      tag_4\n      jumpi\n      dup1\n      0x1fe543e3\n      eq\n      tag_5\n      jumpi\n    tag_1:\n      revert(0x00, 0x00)\n        /* \"LuckyDrawVRF.sol\":6584:7718  function afterDrawWinner(uint256 requestId) external {... */\n    tag_2:\n      callvalue\n      dup1\n      iszero\n      tag_23\n      jumpi\n      revert(0x00, 0x00)\n    tag_23:\n      pop\n      tag_24\n      0x04\n      dup1\n      calldatasize\n      sub\n      dup2\n      add\n      swap1\n      tag_25\n      swap2\n      swap1\n      tag_26\n      jump\t// in\n    tag_25:\n      tag_27\n      jump\t// in\n    tag_24:\n      stop\n        /* \"LuckyDrawVRF.sol\":8551:8809  function withDraw() public payable onlyOwner{... */\n    tag_3:\n      tag_28\n      tag_29\n      jump\t// in\n    tag_28:\n      stop\n        /* \"LuckyDrawVRF.sol\":912:966  mapping(uint256=>VrfRequestToRandom) public requestMap */\n    tag_4:\n      callvalue\n      dup1\n      iszero\n      tag_30\n      jumpi\n      revert(0x00, 0x00)\n    tag_30:\n      pop\n      tag_31\n      0x04\n      dup1\n      calldatasize\n      sub\n      dup2\n      add\n      swap1\n      tag_32\n      swap2\n      swap1\n      tag_26\n      jump\t// in\n    tag_32:\n      tag_33\n      jump\t// in\n    tag_31:\n      mload(0x40)\n      tag_34\n      swap3\n      swap2\n      swap1\n      tag_35\n      jump\t// in\n    tag_34:\n      mload(0x40)\n      dup1\n      swap2\n      sub\n      swap1\n      return\n        /* \"@chainlink/contracts/src/v0.8/vrf/dev/VRFConsumerBaseV2Plus.sol\":7489:7769  function rawFulfillRandomWords(uint256 requestId, uint256[] calldata randomWords) external {... */\n    tag_5:\n      callvalue\n      dup1\n      iszero\n      tag_36\n      jumpi\n      revert(0x00, 0x00)\n    tag_36:\n      pop\n      tag_37\n      0x04\n      dup1\n      calldatasize\n      sub\n      dup2\n      add\n      swap1\n      tag_38\n      swap2\n      swap1\n      tag_39\n      jump\t// in\n    tag_38:\n      tag_40\n      jump\t// in\n    tag_37:\n      stop\n        /* \"LuckyDrawVRF.sol\":307:344  uint256 public constant DECIMALS = 18 */\n    tag_6:\n      callvalue\n      dup1\n      iszero\n      tag_41\n      jumpi\n      revert(0x00, 0x00)\n    tag_41:\n      pop\n      tag_42\n      tag_43\n      jump\t// in\n    tag_42:\n      mload(0x40)\n      tag_44\n      swap2\n      swap1\n      tag_45\n      jump\t// in\n    tag_44:\n      mload(0x40)\n      dup1\n      swap2\n      sub\n      swap1\n      return\n        /* \"LuckyDrawVRF.sol\":7751:8178  function getOneLuckyInfo(uint256 luckyId) public view returns(... */\n    tag_7:\n      callvalue\n      dup1\n      iszero\n      tag_46\n      jumpi\n      revert(0x00, 0x00)\n    tag_46:\n      pop\n      tag_47\n      0x04\n      dup1\n      calldatasize\n      sub\n      dup2\n      add\n      swap1\n      tag_48\n      swap2\n      swap1\n      tag_26\n      jump\t// in\n    tag_48:\n      tag_49\n      jump\t// in\n    tag_47:\n      mload(0x40)\n      tag_50\n      swap9\n      swap8\n      swap7\n      swap6\n      swap5\n      swap4\n      swap3\n      swap2\n      swap1\n      tag_51\n      jump\t// in\n    tag_50:\n      mload(0x40)\n      dup1\n      swap2\n      sub\n      swap1\n      return\n        /* \"LuckyDrawVRF.sol\":4267:6116  function drawWinner(uint256 id) public {... */\n    tag_8:\n      callvalue\n      dup1\n      iszero\n      tag_52\n      jumpi\n      revert(0x00, 0x00)\n    tag_52:\n      pop\n      tag_53\n      0x04\n      dup1\n      calldatasize\n      sub\n      dup2\n      add\n      swap1\n      tag_54\n      swap2\n      swap1\n      tag_26\n      jump\t// in\n    tag_54:\n      tag_55\n      jump\t// in\n    tag_53:\n      stop\n        /* \"@chainlink/contracts/src/v0.8/shared/access/ConfirmedOwnerWithProposal.sol\":1026:1342  function acceptOwnership() external override {... */\n    tag_9:\n      callvalue\n      dup1\n      iszero\n      tag_56\n      jumpi\n      revert(0x00, 0x00)\n    tag_56:\n      pop\n      tag_57\n      tag_58\n      jump\t// in\n    tag_57:\n      stop\n        /* \"LuckyDrawVRF.sol\":8450:8533  function getTotalFee() public view returns(uint256){... */\n    tag_10:\n      callvalue\n      dup1\n      iszero\n      tag_59\n      jumpi\n      revert(0x00, 0x00)\n    tag_59:\n      pop\n      tag_60\n      tag_61\n      jump\t// in\n    tag_60:\n      mload(0x40)\n      tag_62\n      swap2\n      swap1\n      tag_45\n      jump\t// in\n    tag_62:\n      mload(0x40)\n      dup1\n      swap2\n      sub\n      swap1\n      return\n        /* \"@chainlink/contracts/src/v0.8/shared/access/ConfirmedOwnerWithProposal.sol\":1382:1463  function owner() public view override returns (address) {... */\n    tag_11:\n      callvalue\n      dup1\n      iszero\n      tag_63\n      jumpi\n      revert(0x00, 0x00)\n    tag_63:\n      pop\n      tag_64\n      tag_65\n      jump\t// in\n    tag_64:\n      mload(0x40)\n      tag_66\n      swap2\n      swap1\n      tag_67\n      jump\t// in\n    tag_66:\n      mload(0x40)\n      dup1\n      swap2\n      sub\n      swap1\n      return\n        /* \"@chainlink/contracts/src/v0.8/vrf/dev/VRFConsumerBaseV2Plus.sol\":7831:8107  function setCoordinator(address _vrfCoordinator) external override onlyOwnerOrCoordinator {... */\n    tag_12:\n      callvalue\n      dup1\n      iszero\n      tag_68\n      jumpi\n      revert(0x00, 0x00)\n    tag_68:\n      pop\n      tag_69\n      0x04\n      dup1\n      calldatasize\n      sub\n      dup2\n      add\n      swap1\n      tag_70\n      swap2\n      swap1\n      tag_71\n      jump\t// in\n    tag_70:\n      tag_72\n      jump\t// in\n    tag_69:\n      stop\n        /* \"@chainlink/contracts/src/v0.8/vrf/dev/VRFConsumerBaseV2Plus.sol\":6077:6122  IVRFCoordinatorV2Plus public s_vrfCoordinator */\n    tag_13:\n      callvalue\n      dup1\n      iszero\n      tag_73\n      jumpi\n      revert(0x00, 0x00)\n    tag_73:\n      pop\n      tag_74\n      tag_75\n      jump\t// in\n    tag_74:\n      mload(0x40)\n      tag_76\n      swap2\n      swap1\n      tag_77\n      jump\t// in\n    tag_76:\n      mload(0x40)\n      dup1\n      swap2\n      sub\n      swap1\n      return\n        /* \"LuckyDrawVRF.sol\":3474:4222  function joinLucky(uint256 id) public payable{... */\n    tag_14:\n      tag_78\n      0x04\n      dup1\n      calldatasize\n      sub\n      dup2\n      add\n      swap1\n      tag_79\n      swap2\n      swap1\n      tag_26\n      jump\t// in\n    tag_79:\n      tag_80\n      jump\t// in\n    tag_78:\n      stop\n        /* \"LuckyDrawVRF.sol\":350:392  uint256 public constant ONE = 10**DECIMALS */\n    tag_15:\n      callvalue\n      dup1\n      iszero\n      tag_81\n      jumpi\n      revert(0x00, 0x00)\n    tag_81:\n      pop\n      tag_82\n      tag_83\n      jump\t// in\n    tag_82:\n      mload(0x40)\n      tag_84\n      swap2\n      swap1\n      tag_45\n      jump\t// in\n    tag_84:\n      mload(0x40)\n      dup1\n      swap2\n      sub\n      swap1\n      return\n        /* \"LuckyDrawVRF.sol\":762:786  uint256 public currentId */\n    tag_16:\n      callvalue\n      dup1\n      iszero\n      tag_85\n      jumpi\n      revert(0x00, 0x00)\n    tag_85:\n      pop\n      tag_86\n      tag_87\n      jump\t// in\n    tag_86:\n      mload(0x40)\n      tag_88\n      swap2\n      swap1\n      tag_45\n      jump\t// in\n    tag_88:\n      mload(0x40)\n      dup1\n      swap2\n      sub\n      swap1\n      return\n        /* \"LuckyDrawVRF.sol\":8235:8444  function getLuckyJoinBalance(uint256 luckyId,address user) public view returns(uint256 amount){... */\n    tag_17:\n      callvalue\n      dup1\n      iszero\n      tag_89\n      jumpi\n      revert(0x00, 0x00)\n    tag_89:\n      pop\n      tag_90\n      0x04\n      dup1\n      calldatasize\n      sub\n      dup2\n      add\n      swap1\n      tag_91\n      swap2\n      swap1\n      tag_92\n      jump\t// in\n    tag_91:\n      tag_93\n      jump\t// in\n    tag_90:\n      mload(0x40)\n      tag_94\n      swap2\n      swap1\n      tag_45\n      jump\t// in\n    tag_94:\n      mload(0x40)\n      dup1\n      swap2\n      sub\n      swap1\n      return\n        /* \"@chainlink/contracts/src/v0.8/shared/access/ConfirmedOwnerWithProposal.sol\":847:945  function transferOwnership(address to) public override onlyOwner {... */\n    tag_18:\n      callvalue\n      dup1\n      iszero\n      tag_95\n      jumpi\n      revert(0x00, 0x00)\n    tag_95:\n      pop\n      tag_96\n      0x04\n      dup1\n      calldatasize\n      sub\n      dup2\n      add\n      swap1\n      tag_97\n      swap2\n      swap1\n      tag_71\n      jump\t// in\n    tag_97:\n      tag_98\n      jump\t// in\n    tag_96:\n      stop\n        /* \"LuckyDrawVRF.sol\":2713:3449  function createLucky(uint256 _startTime,uint256 _endTime,uint256 _conditionPrice) public payable returns(uint256) {... */\n    tag_19:\n      tag_99\n      0x04\n      dup1\n      calldatasize\n      sub\n      dup2\n      add\n      swap1\n      tag_100\n      swap2\n      swap1\n      tag_101\n      jump\t// in\n    tag_100:\n      tag_102\n      jump\t// in\n    tag_99:\n      mload(0x40)\n      tag_103\n      swap2\n      swap1\n      tag_45\n      jump\t// in\n    tag_103:\n      mload(0x40)\n      dup1\n      swap2\n      sub\n      swap1\n      return\n        /* \"LuckyDrawVRF.sol\":6584:7718  function afterDrawWinner(uint256 requestId) external {... */\n    tag_27:\n        /* \"LuckyDrawVRF.sol\":6647:6676  VrfRequestToRandom memory req */\n      0x00\n        /* \"LuckyDrawVRF.sol\":6678:6688  requestMap */\n      0x09\n        /* \"LuckyDrawVRF.sol\":6678:6699  requestMap[requestId] */\n      0x00\n        /* \"LuckyDrawVRF.sol\":6689:6698  requestId */\n      dup4\n        /* \"LuckyDrawVRF.sol\":6678:6699  requestMap[requestId] */\n      dup2\n      mstore\n      0x20\n      add\n      swap1\n      dup2\n      mstore\n      0x20\n      add\n      0x00\n      keccak256\n        /* \"LuckyDrawVRF.sol\":6647:6699  VrfRequestToRandom memory req= requestMap[requestId] */\n      mload(0x40)\n      dup1\n      0x40\n      add\n      0x40\n      mstore\n      swap1\n      dup2\n      0x00\n      dup3\n      add\n      sload\n      dup2\n      mstore\n      0x20\n      add\n      0x01\n      dup3\n      add\n      sload\n      dup2\n      mstore\n      pop\n      pop\n      swap1\n      pop\n        /* \"LuckyDrawVRF.sol\":6729:6730  0 */\n      0x00\n        /* \"LuckyDrawVRF.sol\":6717:6720  req */\n      dup2\n        /* \"LuckyDrawVRF.sol\":6717:6728  req.luckyId */\n      0x20\n      add\n      mload\n        /* \"LuckyDrawVRF.sol\":6717:6730  req.luckyId>0 */\n      gt\n        /* \"LuckyDrawVRF.sol\":6709:6749  require(req.luckyId>0, \"not exist task\") */\n      tag_105\n      jumpi\n      mload(0x40)\n      0x08c379a000000000000000000000000000000000000000000000000000000000\n      dup2\n      mstore\n      0x04\n      add\n      tag_106\n      swap1\n      tag_107\n      jump\t// in\n    tag_106:\n      mload(0x40)\n      dup1\n      swap2\n      sub\n      swap1\n      revert\n    tag_105:\n        /* \"LuckyDrawVRF.sol\":6778:6779  0 */\n      0x00\n        /* \"LuckyDrawVRF.sol\":6767:6770  req */\n      dup2\n        /* \"LuckyDrawVRF.sol\":6767:6777  req.random */\n      0x00\n      add\n      mload\n        /* \"LuckyDrawVRF.sol\":6767:6779  req.random>0 */\n      gt\n        /* \"LuckyDrawVRF.sol\":6759:6810  require(req.random>0, \"please pre call drawwinner\") */\n      tag_108\n      jumpi\n      mload(0x40)\n      0x08c379a000000000000000000000000000000000000000000000000000000000\n      dup2\n      mstore\n      0x04\n      add\n      tag_109\n      swap1\n      tag_110\n      jump\t// in\n    tag_109:\n      mload(0x40)\n      dup1\n      swap2\n      sub\n      swap1\n      revert\n    tag_108:\n        /* \"LuckyDrawVRF.sol\":6821:6845  Join storage currentDraw */\n      0x00\n        /* \"LuckyDrawVRF.sol\":6848:6855  records */\n      0x08\n        /* \"LuckyDrawVRF.sol\":6848:6868  records[req.luckyId] */\n      0x00\n        /* \"LuckyDrawVRF.sol\":6856:6859  req */\n      dup4\n        /* \"LuckyDrawVRF.sol\":6856:6867  req.luckyId */\n      0x20\n      add\n      mload\n        /* \"LuckyDrawVRF.sol\":6848:6868  records[req.luckyId] */\n      dup2\n      mstore\n      0x20\n      add\n      swap1\n      dup2\n      mstore\n      0x20\n      add\n      0x00\n      keccak256\n        /* \"LuckyDrawVRF.sol\":6821:6868  Join storage currentDraw = records[req.luckyId] */\n      swap1\n      pop\n        /* \"LuckyDrawVRF.sol\":6904:6908  true */\n      0x01\n        /* \"LuckyDrawVRF.sol\":6886:6908  currentDraw.open==true */\n      iszero\n      iszero\n        /* \"LuckyDrawVRF.sol\":6886:6897  currentDraw */\n      dup2\n        /* \"LuckyDrawVRF.sol\":6886:6902  currentDraw.open */\n      0x06\n      add\n      0x00\n      swap1\n      sload\n      swap1\n      0x0100\n      exp\n      swap1\n      div\n      0xff\n      and\n        /* \"LuckyDrawVRF.sol\":6886:6908  currentDraw.open==true */\n      iszero\n      iszero\n      eq\n        /* \"LuckyDrawVRF.sol\":6878:6933  require(currentDraw.open==true,\"current task has done\") */\n      tag_111\n      jumpi\n      mload(0x40)\n      0x08c379a000000000000000000000000000000000000000000000000000000000\n      dup2\n      mstore\n      0x04\n      add\n      tag_112\n      swap1\n      tag_113\n      jump\t// in\n    tag_112:\n      mload(0x40)\n      dup1\n      swap2\n      sub\n      swap1\n      revert\n    tag_111:\n        /* \"LuckyDrawVRF.sol\":7014:7015  0 */\n      0x00\n        /* \"LuckyDrawVRF.sol\":6981:6992  currentDraw */\n      dup2\n        /* \"LuckyDrawVRF.sol\":6981:7004  currentDraw.joinAddress */\n      0x08\n      add\n        /* \"LuckyDrawVRF.sol\":6981:7011  currentDraw.joinAddress.length */\n      dup1\n      sload\n      swap1\n      pop\n        /* \"LuckyDrawVRF.sol\":6981:7015  currentDraw.joinAddress.length > 0 */\n      gt\n        /* \"LuckyDrawVRF.sol\":6973:7035  require(currentDraw.joinAddress.length > 0, \"No participants\") */\n      tag_114\n      jumpi\n      mload(0x40)\n      0x08c379a000000000000000000000000000000000000000000000000000000000\n      dup2\n      mstore\n      0x04\n      add\n      tag_115\n      swap1\n      tag_116\n      jump\t// in\n    tag_115:\n      mload(0x40)\n      dup1\n      swap2\n      sub\n      swap1\n      revert\n    tag_114:\n        /* \"LuckyDrawVRF.sol\":7087:7106  uint256 winnerIndex */\n      0x00\n        /* \"LuckyDrawVRF.sol\":7122:7133  currentDraw */\n      dup2\n        /* \"LuckyDrawVRF.sol\":7122:7145  currentDraw.joinAddress */\n      0x08\n      add\n        /* \"LuckyDrawVRF.sol\":7122:7152  currentDraw.joinAddress.length */\n      dup1\n      sload\n      swap1\n      pop\n        /* \"LuckyDrawVRF.sol\":7109:7112  req */\n      dup4\n        /* \"LuckyDrawVRF.sol\":7109:7119  req.random */\n      0x00\n      add\n      mload\n        /* \"LuckyDrawVRF.sol\":7109:7152  req.random % currentDraw.joinAddress.length */\n      tag_117\n      swap2\n      swap1\n      tag_118\n      jump\t// in\n    tag_117:\n        /* \"LuckyDrawVRF.sol\":7087:7152  uint256 winnerIndex = req.random % currentDraw.joinAddress.length */\n      swap1\n      pop\n        /* \"LuckyDrawVRF.sol\":7162:7176  address winner */\n      0x00\n        /* \"LuckyDrawVRF.sol\":7179:7190  currentDraw */\n      dup3\n        /* \"LuckyDrawVRF.sol\":7179:7202  currentDraw.joinAddress */\n      0x08\n      add\n        /* \"LuckyDrawVRF.sol\":7203:7214  winnerIndex */\n      dup3\n        /* \"LuckyDrawVRF.sol\":7179:7215  currentDraw.joinAddress[winnerIndex] */\n      dup2\n      sload\n      dup2\n      lt\n      tag_119\n      jumpi\n      tag_120\n      tag_121\n      jump\t// in\n    tag_120:\n    tag_119:\n      swap1\n      0x00\n      mstore\n      keccak256(0x00, 0x20)\n      add\n      0x00\n      swap1\n      sload\n      swap1\n      0x0100\n      exp\n      swap1\n      div\n      0xffffffffffffffffffffffffffffffffffffffff\n      and\n        /* \"LuckyDrawVRF.sol\":7162:7215  address winner = currentDraw.joinAddress[winnerIndex] */\n      swap1\n      pop\n        /* \"LuckyDrawVRF.sol\":7256:7267  uint256 fee */\n      0x00\n        /* \"LuckyDrawVRF.sol\":342:344  18 */\n      0x12\n        /* \"LuckyDrawVRF.sol\":380:382  10 */\n      0x0a\n        /* \"LuckyDrawVRF.sol\":380:392  10**DECIMALS */\n      tag_123\n      swap2\n      swap1\n      tag_124\n      jump\t// in\n    tag_123:\n        /* \"LuckyDrawVRF.sol\":7295:7299  1e16 */\n      0x2386f26fc10000\n        /* \"LuckyDrawVRF.sol\":7269:7280  currentDraw */\n      dup6\n        /* \"LuckyDrawVRF.sol\":7269:7292  currentDraw.totalReward */\n      0x02\n      add\n      sload\n        /* \"LuckyDrawVRF.sol\":7269:7299  currentDraw.totalReward * 1e16 */\n      tag_125\n      swap2\n      swap1\n      tag_126\n      jump\t// in\n    tag_125:\n        /* \"LuckyDrawVRF.sol\":7268:7304  (currentDraw.totalReward * 1e16)/ONE */\n      tag_127\n      swap2\n      swap1\n      tag_128\n      jump\t// in\n    tag_127:\n        /* \"LuckyDrawVRF.sol\":7256:7304  uint256 fee=(currentDraw.totalReward * 1e16)/ONE */\n      swap1\n      pop\n        /* \"LuckyDrawVRF.sol\":7324:7327  fee */\n      dup1\n        /* \"LuckyDrawVRF.sol\":7314:7322  totalFee */\n      0x0c\n      0x00\n        /* \"LuckyDrawVRF.sol\":7314:7327  totalFee+=fee */\n      dup3\n      dup3\n      sload\n      tag_129\n      swap2\n      swap1\n      tag_130\n      jump\t// in\n    tag_129:\n      swap3\n      pop\n      pop\n      dup2\n      swap1\n      sstore\n      pop\n        /* \"LuckyDrawVRF.sol\":7374:7386  bool success */\n      0x00\n        /* \"LuckyDrawVRF.sol\":7392:7398  winner */\n      dup3\n        /* \"LuckyDrawVRF.sol\":7392:7403  winner.call */\n      0xffffffffffffffffffffffffffffffffffffffff\n      and\n        /* \"LuckyDrawVRF.sol\":7436:7439  fee */\n      dup3\n        /* \"LuckyDrawVRF.sol\":7412:7423  currentDraw */\n      dup7\n        /* \"LuckyDrawVRF.sol\":7412:7435  currentDraw.totalReward */\n      0x02\n      add\n      sload\n        /* \"LuckyDrawVRF.sol\":7412:7439  currentDraw.totalReward-fee */\n      tag_131\n      swap2\n      swap1\n      tag_132\n      jump\t// in\n    tag_131:\n        /* \"LuckyDrawVRF.sol\":7392:7445  winner.call{value: (currentDraw.totalReward-fee)}(\"\") */\n      mload(0x40)\n      tag_133\n      swap1\n      tag_134\n      jump\t// in\n    tag_133:\n      0x00\n      mload(0x40)\n      dup1\n      dup4\n      sub\n      dup2\n      dup6\n      dup8\n      gas\n      call\n      swap3\n      pop\n      pop\n      pop\n      returndatasize\n      dup1\n      0x00\n      dup2\n      eq\n      tag_137\n      jumpi\n      mload(0x40)\n      swap2\n      pop\n      and(add(returndatasize, 0x3f), not(0x1f))\n      dup3\n      add\n      0x40\n      mstore\n      returndatasize\n      dup3\n      mstore\n      returndatasize\n      0x00\n      0x20\n      dup5\n      add\n      returndatacopy\n      jump(tag_136)\n    tag_137:\n      0x60\n      swap2\n      pop\n    tag_136:\n      pop\n        /* \"LuckyDrawVRF.sol\":7373:7445  (bool success, ) = winner.call{value: (currentDraw.totalReward-fee)}(\"\") */\n      pop\n      swap1\n      pop\n        /* \"LuckyDrawVRF.sol\":7463:7470  success */\n      dup1\n        /* \"LuckyDrawVRF.sol\":7455:7496  require(success, \"Failed to send reward\") */\n      tag_138\n      jumpi\n      mload(0x40)\n      0x08c379a000000000000000000000000000000000000000000000000000000000\n      dup2\n      mstore\n      0x04\n      add\n      tag_139\n      swap1\n      tag_140\n      jump\t// in\n    tag_139:\n      mload(0x40)\n      dup1\n      swap2\n      sub\n      swap1\n      revert\n    tag_138:\n        /* \"LuckyDrawVRF.sol\":7545:7551  winner */\n      dup3\n        /* \"LuckyDrawVRF.sol\":7524:7535  currentDraw */\n      dup6\n        /* \"LuckyDrawVRF.sol\":7524:7542  currentDraw.winner */\n      0x04\n      add\n      0x00\n        /* \"LuckyDrawVRF.sol\":7524:7551  currentDraw.winner = winner */\n      0x0100\n      exp\n      dup2\n      sload\n      dup2\n      0xffffffffffffffffffffffffffffffffffffffff\n      mul\n      not\n      and\n      swap1\n      dup4\n      0xffffffffffffffffffffffffffffffffffffffff\n      and\n      mul\n      or\n      swap1\n      sstore\n      pop\n        /* \"LuckyDrawVRF.sol\":7578:7583  false */\n      0x00\n        /* \"LuckyDrawVRF.sol\":7561:7572  currentDraw */\n      dup6\n        /* \"LuckyDrawVRF.sol\":7561:7577  currentDraw.open */\n      0x06\n      add\n      0x00\n        /* \"LuckyDrawVRF.sol\":7561:7583  currentDraw.open=false */\n      0x0100\n      exp\n      dup2\n      sload\n      dup2\n      0xff\n      mul\n      not\n      and\n      swap1\n      dup4\n      iszero\n      iszero\n      mul\n      or\n      swap1\n      sstore\n      pop\n        /* \"LuckyDrawVRF.sol\":7607:7608  0 */\n      0x00\n        /* \"LuckyDrawVRF.sol\":7593:7606  hasProcessing */\n      0x0a\n      0x00\n        /* \"LuckyDrawVRF.sol\":7593:7608  hasProcessing=0 */\n      0x0100\n      exp\n      dup2\n      sload\n      dup2\n      0xff\n      mul\n      not\n      and\n      swap1\n      dup4\n      0xff\n      and\n      mul\n      or\n      swap1\n      sstore\n      pop\n        /* \"LuckyDrawVRF.sol\":7640:7711  EventDrawWinnerSuccess(winner, req.luckyId, requestId, block.timestamp) */\n      0x4938abb0a1220e7b4a0dd8b149717aba799cd3d2263de30c997401abfa845241\n        /* \"LuckyDrawVRF.sol\":7663:7669  winner */\n      dup4\n        /* \"LuckyDrawVRF.sol\":7671:7674  req */\n      dup8\n        /* \"LuckyDrawVRF.sol\":7671:7682  req.luckyId */\n      0x20\n      add\n      mload\n        /* \"LuckyDrawVRF.sol\":7684:7693  requestId */\n      dup10\n        /* \"LuckyDrawVRF.sol\":7695:7710  block.timestamp */\n      timestamp\n        /* \"LuckyDrawVRF.sol\":7640:7711  EventDrawWinnerSuccess(winner, req.luckyId, requestId, block.timestamp) */\n      mload(0x40)\n      tag_141\n      swap5\n      swap4\n      swap3\n      swap2\n      swap1\n      tag_142\n      jump\t// in\n    tag_141:\n      mload(0x40)\n      dup1\n      swap2\n      sub\n      swap1\n      log1\n        /* \"LuckyDrawVRF.sol\":6637:7718  {... */\n      pop\n      pop\n      pop\n      pop\n      pop\n      pop\n        /* \"LuckyDrawVRF.sol\":6584:7718  function afterDrawWinner(uint256 requestId) external {... */\n      pop\n      jump\t// out\n        /* \"LuckyDrawVRF.sol\":8551:8809  function withDraw() public payable onlyOwner{... */\n    tag_29:\n        /* \"@chainlink/contracts/src/v0.8/shared/access/ConfirmedOwnerWithProposal.sol\":2075:2095  _validateOwnership() */\n      tag_144\n        /* \"@chainlink/contracts/src/v0.8/shared/access/ConfirmedOwnerWithProposal.sol\":2075:2093  _validateOwnership */\n      tag_145\n        /* \"@chainlink/contracts/src/v0.8/shared/access/ConfirmedOwnerWithProposal.sol\":2075:2095  _validateOwnership() */\n      jump\t// in\n    tag_144:\n        /* \"LuckyDrawVRF.sol\":8622:8623  0 */\n      0x00\n        /* \"LuckyDrawVRF.sol\":8613:8621  totalFee */\n      sload(0x0c)\n        /* \"LuckyDrawVRF.sol\":8613:8623  totalFee>0 */\n      gt\n        /* \"LuckyDrawVRF.sol\":8605:8638  require(totalFee>0,\"no full fee\") */\n      tag_147\n      jumpi\n      mload(0x40)\n      0x08c379a000000000000000000000000000000000000000000000000000000000\n      dup2\n      mstore\n      0x04\n      add\n      tag_148\n      swap1\n      tag_149\n      jump\t// in\n    tag_148:\n      mload(0x40)\n      dup1\n      swap2\n      sub\n      swap1\n      revert\n    tag_147:\n        /* \"LuckyDrawVRF.sol\":8648:8660  uint256 temp */\n      0x00\n        /* \"LuckyDrawVRF.sol\":8663:8671  totalFee */\n      sload(0x0c)\n        /* \"LuckyDrawVRF.sol\":8648:8671  uint256 temp = totalFee */\n      swap1\n      pop\n        /* \"LuckyDrawVRF.sol\":8690:8691  0 */\n      0x00\n        /* \"LuckyDrawVRF.sol\":8681:8689  totalFee */\n      0x0c\n        /* \"LuckyDrawVRF.sol\":8681:8691  totalFee=0 */\n      dup2\n      swap1\n      sstore\n      pop\n        /* \"LuckyDrawVRF.sol\":8709:8722  contractOwner */\n      0x0d\n      0x00\n      swap1\n      sload\n      swap1\n      0x0100\n      exp\n      swap1\n      div\n      0xffffffffffffffffffffffffffffffffffffffff\n      and\n        /* \"LuckyDrawVRF.sol\":8701:8732  payable(contractOwner).transfer */\n      0xffffffffffffffffffffffffffffffffffffffff\n      and\n        /* \"LuckyDrawVRF.sol\":8701:8738  payable(contractOwner).transfer(temp) */\n      0x08fc\n        /* \"LuckyDrawVRF.sol\":8733:8737  temp */\n      dup3\n        /* \"LuckyDrawVRF.sol\":8701:8738  payable(contractOwner).transfer(temp) */\n      swap1\n      dup2\n      iszero\n      mul\n      swap1\n      mload(0x40)\n      0x00\n      mload(0x40)\n      dup1\n      dup4\n      sub\n      dup2\n      dup6\n      dup9\n      dup9\n      call\n      swap4\n      pop\n      pop\n      pop\n      pop\n      iszero\n      dup1\n      iszero\n      tag_151\n      jumpi\n      returndatacopy(0x00, 0x00, returndatasize)\n      revert(0x00, returndatasize)\n    tag_151:\n      pop\n        /* \"LuckyDrawVRF.sol\":8753:8802  EventDrawSuccess(msg.sender,temp,block.timestamp) */\n      0x9e48992309be40ee6b621aa79b40adfc808eb591f3a3d551650cef9e516aeb0e\n        /* \"LuckyDrawVRF.sol\":8770:8780  msg.sender */\n      caller\n        /* \"LuckyDrawVRF.sol\":8781:8785  temp */\n      dup3\n        /* \"LuckyDrawVRF.sol\":8786:8801  block.timestamp */\n      timestamp\n        /* \"LuckyDrawVRF.sol\":8753:8802  EventDrawSuccess(msg.sender,temp,block.timestamp) */\n      mload(0x40)\n      tag_152\n      swap4\n      swap3\n      swap2\n      swap1\n      tag_153\n      jump\t// in\n    tag_152:\n      mload(0x40)\n      dup1\n      swap2\n      sub\n      swap1\n      log1\n        /* \"LuckyDrawVRF.sol\":8595:8809  {... */\n      pop\n        /* \"LuckyDrawVRF.sol\":8551:8809  function withDraw() public payable onlyOwner{... */\n      jump\t// out\n        /* \"LuckyDrawVRF.sol\":912:966  mapping(uint256=>VrfRequestToRandom) public requestMap */\n    tag_33:\n      mstore(0x20, 0x09)\n      dup1\n      0x00\n      mstore\n      keccak256(0x00, 0x40)\n      0x00\n      swap2\n      pop\n      swap1\n      pop\n      dup1\n      0x00\n      add\n      sload\n      swap1\n      dup1\n      0x01\n      add\n      sload\n      swap1\n      pop\n      dup3\n      jump\t// out\n        /* \"@chainlink/contracts/src/v0.8/vrf/dev/VRFConsumerBaseV2Plus.sol\":7489:7769  function rawFulfillRandomWords(uint256 requestId, uint256[] calldata randomWords) external {... */\n    tag_40:\n        /* \"@chainlink/contracts/src/v0.8/vrf/dev/VRFConsumerBaseV2Plus.sol\":7612:7628  s_vrfCoordinator */\n      0x02\n      0x00\n      swap1\n      sload\n      swap1\n      0x0100\n      exp\n      swap1\n      div\n      0xffffffffffffffffffffffffffffffffffffffff\n      and\n        /* \"@chainlink/contracts/src/v0.8/vrf/dev/VRFConsumerBaseV2Plus.sol\":7590:7629  msg.sender != address(s_vrfCoordinator) */\n      0xffffffffffffffffffffffffffffffffffffffff\n      and\n        /* \"@chainlink/contracts/src/v0.8/vrf/dev/VRFConsumerBaseV2Plus.sol\":7590:7600  msg.sender */\n      caller\n        /* \"@chainlink/contracts/src/v0.8/vrf/dev/VRFConsumerBaseV2Plus.sol\":7590:7629  msg.sender != address(s_vrfCoordinator) */\n      0xffffffffffffffffffffffffffffffffffffffff\n      and\n      eq\n        /* \"@chainlink/contracts/src/v0.8/vrf/dev/VRFConsumerBaseV2Plus.sol\":7586:7717  if (msg.sender != address(s_vrfCoordinator)) {... */\n      tag_155\n      jumpi\n        /* \"@chainlink/contracts/src/v0.8/vrf/dev/VRFConsumerBaseV2Plus.sol\":7672:7682  msg.sender */\n      caller\n        /* \"@chainlink/contracts/src/v0.8/vrf/dev/VRFConsumerBaseV2Plus.sol\":7692:7708  s_vrfCoordinator */\n      0x02\n      0x00\n      swap1\n      sload\n      swap1\n      0x0100\n      exp\n      swap1\n      div\n      0xffffffffffffffffffffffffffffffffffffffff\n      and\n        /* \"@chainlink/contracts/src/v0.8/vrf/dev/VRFConsumerBaseV2Plus.sol\":7646:7710  OnlyCoordinatorCanFulfill(msg.sender, address(s_vrfCoordinator)) */\n      mload(0x40)\n      0x1cf993f400000000000000000000000000000000000000000000000000000000\n      dup2\n      mstore\n      0x04\n      add\n      tag_156\n      swap3\n      swap2\n      swap1\n      tag_157\n      jump\t// in\n    tag_156:\n      mload(0x40)\n      dup1\n      swap2\n      sub\n      swap1\n      revert\n        /* \"@chainlink/contracts/src/v0.8/vrf/dev/VRFConsumerBaseV2Plus.sol\":7586:7717  if (msg.sender != address(s_vrfCoordinator)) {... */\n    tag_155:\n        /* \"@chainlink/contracts/src/v0.8/vrf/dev/VRFConsumerBaseV2Plus.sol\":7722:7764  fulfillRandomWords(requestId, randomWords) */\n      tag_158\n        /* \"@chainlink/contracts/src/v0.8/vrf/dev/VRFConsumerBaseV2Plus.sol\":7741:7750  requestId */\n      dup4\n        /* \"@chainlink/contracts/src/v0.8/vrf/dev/VRFConsumerBaseV2Plus.sol\":7752:7763  randomWords */\n      dup4\n      dup4\n        /* \"@chainlink/contracts/src/v0.8/vrf/dev/VRFConsumerBaseV2Plus.sol\":7722:7740  fulfillRandomWords */\n      tag_159\n        /* \"@chainlink/contracts/src/v0.8/vrf/dev/VRFConsumerBaseV2Plus.sol\":7722:7764  fulfillRandomWords(requestId, randomWords) */\n      jump\t// in\n    tag_158:\n        /* \"@chainlink/contracts/src/v0.8/vrf/dev/VRFConsumerBaseV2Plus.sol\":7489:7769  function rawFulfillRandomWords(uint256 requestId, uint256[] calldata randomWords) external {... */\n      pop\n      pop\n      pop\n      jump\t// out\n        /* \"LuckyDrawVRF.sol\":307:344  uint256 public constant DECIMALS = 18 */\n    tag_43:\n        /* \"LuckyDrawVRF.sol\":342:344  18 */\n      0x12\n        /* \"LuckyDrawVRF.sol\":307:344  uint256 public constant DECIMALS = 18 */\n      dup2\n      jump\t// out\n        /* \"LuckyDrawVRF.sol\":7751:8178  function getOneLuckyInfo(uint256 luckyId) public view returns(... */\n    tag_49:\n        /* \"LuckyDrawVRF.sol\":7822:7839  uint256 startTime */\n      0x00\n        /* \"LuckyDrawVRF.sol\":7849:7864  uint256 endTime */\n      0x00\n        /* \"LuckyDrawVRF.sol\":7874:7893  uint256 totalReward */\n      0x00\n        /* \"LuckyDrawVRF.sol\":7903:7916  address owner */\n      0x00\n        /* \"LuckyDrawVRF.sol\":7926:7940  address winner */\n      0x00\n        /* \"LuckyDrawVRF.sol\":7950:7963  uint256 price */\n      0x00\n        /* \"LuckyDrawVRF.sol\":7973:7982  bool open */\n      0x00\n        /* \"LuckyDrawVRF.sol\":7992:8007  uint256 joinNum */\n      0x00\n        /* \"LuckyDrawVRF.sol\":8024:8039  Join storage jj */\n      0x00\n        /* \"LuckyDrawVRF.sol\":8040:8047  records */\n      0x08\n        /* \"LuckyDrawVRF.sol\":8040:8056  records[luckyId] */\n      0x00\n        /* \"LuckyDrawVRF.sol\":8048:8055  luckyId */\n      dup12\n        /* \"LuckyDrawVRF.sol\":8040:8056  records[luckyId] */\n      dup2\n      mstore\n      0x20\n      add\n      swap1\n      dup2\n      mstore\n      0x20\n      add\n      0x00\n      keccak256\n        /* \"LuckyDrawVRF.sol\":8024:8056  Join storage jj=records[luckyId] */\n      swap1\n      pop\n        /* \"LuckyDrawVRF.sol\":8074:8076  jj */\n      dup1\n        /* \"LuckyDrawVRF.sol\":8074:8086  jj.startTime */\n      0x00\n      add\n      sload\n        /* \"LuckyDrawVRF.sol\":8087:8089  jj */\n      dup2\n        /* \"LuckyDrawVRF.sol\":8087:8097  jj.endTime */\n      0x01\n      add\n      sload\n        /* \"LuckyDrawVRF.sol\":8098:8100  jj */\n      dup3\n        /* \"LuckyDrawVRF.sol\":8098:8112  jj.totalReward */\n      0x02\n      add\n      sload\n        /* \"LuckyDrawVRF.sol\":8113:8115  jj */\n      dup4\n        /* \"LuckyDrawVRF.sol\":8113:8121  jj.owner */\n      0x03\n      add\n      0x00\n      swap1\n      sload\n      swap1\n      0x0100\n      exp\n      swap1\n      div\n      0xffffffffffffffffffffffffffffffffffffffff\n      and\n        /* \"LuckyDrawVRF.sol\":8122:8124  jj */\n      dup5\n        /* \"LuckyDrawVRF.sol\":8122:8131  jj.winner */\n      0x04\n      add\n      0x00\n      swap1\n      sload\n      swap1\n      0x0100\n      exp\n      swap1\n      div\n      0xffffffffffffffffffffffffffffffffffffffff\n      and\n        /* \"LuckyDrawVRF.sol\":8132:8134  jj */\n      dup6\n        /* \"LuckyDrawVRF.sol\":8132:8140  jj.price */\n      0x05\n      add\n      sload\n        /* \"LuckyDrawVRF.sol\":8141:8143  jj */\n      dup7\n        /* \"LuckyDrawVRF.sol\":8141:8148  jj.open */\n      0x06\n      add\n      0x00\n      swap1\n      sload\n      swap1\n      0x0100\n      exp\n      swap1\n      div\n      0xff\n      and\n        /* \"LuckyDrawVRF.sol\":8149:8151  jj */\n      dup8\n        /* \"LuckyDrawVRF.sol\":8149:8163  jj.joinAddress */\n      0x08\n      add\n        /* \"LuckyDrawVRF.sol\":8149:8170  jj.joinAddress.length */\n      dup1\n      sload\n      swap1\n      pop\n        /* \"LuckyDrawVRF.sol\":8066:8171  return (jj.startTime,jj.endTime,jj.totalReward,jj.owner,jj.winner,jj.price,jj.open,jj.joinAddress.length) */\n      swap9\n      pop\n      swap9\n      pop\n      swap9\n      pop\n      swap9\n      pop\n      swap9\n      pop\n      swap9\n      pop\n      swap9\n      pop\n      swap9\n      pop\n      pop\n        /* \"LuckyDrawVRF.sol\":7751:8178  function getOneLuckyInfo(uint256 luckyId) public view returns(... */\n      swap2\n      swap4\n      swap6\n      swap8\n      pop\n      swap2\n      swap4\n      swap6\n      swap8\n      jump\t// out\n        /* \"LuckyDrawVRF.sol\":4267:6116  function drawWinner(uint256 id) public {... */\n    tag_55:\n        /* \"LuckyDrawVRF.sol\":4328:4329  0 */\n      0x00\n        /* \"LuckyDrawVRF.sol\":4324:4326  id */\n      dup2\n        /* \"LuckyDrawVRF.sol\":4324:4329  id >0 */\n      gt\n        /* \"LuckyDrawVRF.sol\":4316:4352  require(id >0,\"please input drawId\") */\n      tag_162\n      jumpi\n      mload(0x40)\n      0x08c379a000000000000000000000000000000000000000000000000000000000\n      dup2\n      mstore\n      0x04\n      add\n      tag_163\n      swap1\n      tag_164\n      jump\t// in\n    tag_163:\n      mload(0x40)\n      dup1\n      swap2\n      sub\n      swap1\n      revert\n    tag_162:\n        /* \"LuckyDrawVRF.sol\":4385:4386  0 */\n      0x00\n        /* \"LuckyDrawVRF.sol\":4370:4383  hasProcessing */\n      0x0a\n      0x00\n      swap1\n      sload\n      swap1\n      0x0100\n      exp\n      swap1\n      div\n      0xff\n      and\n        /* \"LuckyDrawVRF.sol\":4370:4386  hasProcessing<=0 */\n      0xff\n      and\n      gt\n      iszero\n        /* \"LuckyDrawVRF.sol\":4362:4419  require(hasProcessing<=0, \"current has processingg draw\") */\n      tag_165\n      jumpi\n      mload(0x40)\n      0x08c379a000000000000000000000000000000000000000000000000000000000\n      dup2\n      mstore\n      0x04\n      add\n      tag_166\n      swap1\n      tag_167\n      jump\t// in\n    tag_166:\n      mload(0x40)\n      dup1\n      swap2\n      sub\n      swap1\n      revert\n    tag_165:\n        /* \"LuckyDrawVRF.sol\":4453:4460  records */\n      0x08\n        /* \"LuckyDrawVRF.sol\":4453:4464  records[id] */\n      0x00\n        /* \"LuckyDrawVRF.sol\":4461:4463  id */\n      dup3\n        /* \"LuckyDrawVRF.sol\":4453:4464  records[id] */\n      dup2\n      mstore\n      0x20\n      add\n      swap1\n      dup2\n      mstore\n      0x20\n      add\n      0x00\n      keccak256\n        /* \"LuckyDrawVRF.sol\":4453:4474  records[id].startTime */\n      0x00\n      add\n      sload\n        /* \"LuckyDrawVRF.sol\":4437:4452  block.timestamp */\n      timestamp\n        /* \"LuckyDrawVRF.sol\":4437:4474  block.timestamp>records[id].startTime */\n      gt\n        /* \"LuckyDrawVRF.sol\":4429:4502  require(block.timestamp>records[id].startTime,\"current task hasnt start\") */\n      tag_168\n      jumpi\n      mload(0x40)\n      0x08c379a000000000000000000000000000000000000000000000000000000000\n      dup2\n      mstore\n      0x04\n      add\n      tag_169\n      swap1\n      tag_170\n      jump\t// in\n    tag_169:\n      mload(0x40)\n      dup1\n      swap2\n      sub\n      swap1\n      revert\n    tag_168:\n        /* \"LuckyDrawVRF.sol\":4538:4542  true */\n      0x01\n        /* \"LuckyDrawVRF.sol\":4520:4542  records[id].open==true */\n      iszero\n      iszero\n        /* \"LuckyDrawVRF.sol\":4520:4527  records */\n      0x08\n        /* \"LuckyDrawVRF.sol\":4520:4531  records[id] */\n      0x00\n        /* \"LuckyDrawVRF.sol\":4528:4530  id */\n      dup4\n        /* \"LuckyDrawVRF.sol\":4520:4531  records[id] */\n      dup2\n      mstore\n      0x20\n      add\n      swap1\n      dup2\n      mstore\n      0x20\n      add\n      0x00\n      keccak256\n        /* \"LuckyDrawVRF.sol\":4520:4536  records[id].open */\n      0x06\n      add\n      0x00\n      swap1\n      sload\n      swap1\n      0x0100\n      exp\n      swap1\n      div\n      0xff\n      and\n        /* \"LuckyDrawVRF.sol\":4520:4542  records[id].open==true */\n      iszero\n      iszero\n      eq\n        /* \"LuckyDrawVRF.sol\":4512:4567  require(records[id].open==true,\"current task has done\") */\n      tag_171\n      jumpi\n      mload(0x40)\n      0x08c379a000000000000000000000000000000000000000000000000000000000\n      dup2\n      mstore\n      0x04\n      add\n      tag_172\n      swap1\n      tag_113\n      jump\t// in\n    tag_172:\n      mload(0x40)\n      dup1\n      swap2\n      sub\n      swap1\n      revert\n    tag_171:\n        /* \"LuckyDrawVRF.sol\":4606:4616  msg.sender */\n      caller\n        /* \"LuckyDrawVRF.sol\":4585:4616  records[id].owner == msg.sender */\n      0xffffffffffffffffffffffffffffffffffffffff\n      and\n        /* \"LuckyDrawVRF.sol\":4585:4592  records */\n      0x08\n        /* \"LuckyDrawVRF.sol\":4585:4596  records[id] */\n      0x00\n        /* \"LuckyDrawVRF.sol\":4593:4595  id */\n      dup4\n        /* \"LuckyDrawVRF.sol\":4585:4596  records[id] */\n      dup2\n      mstore\n      0x20\n      add\n      swap1\n      dup2\n      mstore\n      0x20\n      add\n      0x00\n      keccak256\n        /* \"LuckyDrawVRF.sol\":4585:4602  records[id].owner */\n      0x03\n      add\n      0x00\n      swap1\n      sload\n      swap1\n      0x0100\n      exp\n      swap1\n      div\n      0xffffffffffffffffffffffffffffffffffffffff\n      and\n        /* \"LuckyDrawVRF.sol\":4585:4616  records[id].owner == msg.sender */\n      0xffffffffffffffffffffffffffffffffffffffff\n      and\n      eq\n        /* \"LuckyDrawVRF.sol\":4577:4642  require(records[id].owner == msg.sender ,\"you are no permission\") */\n      tag_173\n      jumpi\n      mload(0x40)\n      0x08c379a000000000000000000000000000000000000000000000000000000000\n      dup2\n      mstore\n      0x04\n      add\n      tag_174\n      swap1\n      tag_175\n      jump\t// in\n    tag_174:\n      mload(0x40)\n      dup1\n      swap2\n      sub\n      swap1\n      revert\n    tag_173:\n        /* \"LuckyDrawVRF.sol\":4691:4692  0 */\n      0x00\n        /* \"LuckyDrawVRF.sol\":4660:4667  records */\n      0x08\n        /* \"LuckyDrawVRF.sol\":4660:4671  records[id] */\n      0x00\n        /* \"LuckyDrawVRF.sol\":4668:4670  id */\n      dup4\n        /* \"LuckyDrawVRF.sol\":4660:4671  records[id] */\n      dup2\n      mstore\n      0x20\n      add\n      swap1\n      dup2\n      mstore\n      0x20\n      add\n      0x00\n      keccak256\n        /* \"LuckyDrawVRF.sol\":4660:4683  records[id].joinAddress */\n      0x08\n      add\n        /* \"LuckyDrawVRF.sol\":4660:4690  records[id].joinAddress.length */\n      dup1\n      sload\n      swap1\n      pop\n        /* \"LuckyDrawVRF.sol\":4660:4692  records[id].joinAddress.length>0 */\n      gt\n        /* \"LuckyDrawVRF.sol\":4652:4715  require(records[id].joinAddress.length>0,\"no join the persion\") */\n      tag_176\n      jumpi\n      mload(0x40)\n      0x08c379a000000000000000000000000000000000000000000000000000000000\n      dup2\n      mstore\n      0x04\n      add\n      tag_177\n      swap1\n      tag_178\n      jump\t// in\n    tag_177:\n      mload(0x40)\n      dup1\n      swap2\n      sub\n      swap1\n      revert\n    tag_176:\n        /* \"LuckyDrawVRF.sol\":4739:4740  1 */\n      0x01\n        /* \"LuckyDrawVRF.sol\":4725:4738  hasProcessing */\n      0x0a\n      0x00\n        /* \"LuckyDrawVRF.sol\":4725:4740  hasProcessing=1 */\n      0x0100\n      exp\n      dup2\n      sload\n      dup2\n      0xff\n      mul\n      not\n      and\n      swap1\n      dup4\n      0xff\n      and\n      mul\n      or\n      swap1\n      sstore\n      pop\n        /* \"LuckyDrawVRF.sol\":4868:4869  1 */\n      0x01\n        /* \"LuckyDrawVRF.sol\":4836:4843  records */\n      0x08\n        /* \"LuckyDrawVRF.sol\":4836:4847  records[id] */\n      0x00\n        /* \"LuckyDrawVRF.sol\":4844:4846  id */\n      dup4\n        /* \"LuckyDrawVRF.sol\":4836:4847  records[id] */\n      dup2\n      mstore\n      0x20\n      add\n      swap1\n      dup2\n      mstore\n      0x20\n      add\n      0x00\n      keccak256\n        /* \"LuckyDrawVRF.sol\":4836:4859  records[id].joinAddress */\n      0x08\n      add\n        /* \"LuckyDrawVRF.sol\":4836:4866  records[id].joinAddress.length */\n      dup1\n      sload\n      swap1\n      pop\n        /* \"LuckyDrawVRF.sol\":4836:4869  records[id].joinAddress.length==1 */\n      sub\n        /* \"LuckyDrawVRF.sol\":4833:6110  if(records[id].joinAddress.length==1){... */\n      tag_179\n      jumpi\n        /* \"LuckyDrawVRF.sol\":4885:4897  bool success */\n      0x00\n        /* \"LuckyDrawVRF.sol\":4902:4909  records */\n      0x08\n        /* \"LuckyDrawVRF.sol\":4902:4913  records[id] */\n      0x00\n        /* \"LuckyDrawVRF.sol\":4910:4912  id */\n      dup4\n        /* \"LuckyDrawVRF.sol\":4902:4913  records[id] */\n      dup2\n      mstore\n      0x20\n      add\n      swap1\n      dup2\n      mstore\n      0x20\n      add\n      0x00\n      keccak256\n        /* \"LuckyDrawVRF.sol\":4902:4919  records[id].owner */\n      0x03\n      add\n      0x00\n      swap1\n      sload\n      swap1\n      0x0100\n      exp\n      swap1\n      div\n      0xffffffffffffffffffffffffffffffffffffffff\n      and\n        /* \"LuckyDrawVRF.sol\":4902:4924  records[id].owner.call */\n      0xffffffffffffffffffffffffffffffffffffffff\n      and\n        /* \"LuckyDrawVRF.sol\":4931:4938  records */\n      0x08\n        /* \"LuckyDrawVRF.sol\":4931:4942  records[id] */\n      0x00\n        /* \"LuckyDrawVRF.sol\":4939:4941  id */\n      dup5\n        /* \"LuckyDrawVRF.sol\":4931:4942  records[id] */\n      dup2\n      mstore\n      0x20\n      add\n      swap1\n      dup2\n      mstore\n      0x20\n      add\n      0x00\n      keccak256\n        /* \"LuckyDrawVRF.sol\":4931:4954  records[id].totalReward */\n      0x02\n      add\n      sload\n        /* \"LuckyDrawVRF.sol\":4902:4959  records[id].owner.call{value:records[id].totalReward}(\"\") */\n      mload(0x40)\n      tag_180\n      swap1\n      tag_134\n      jump\t// in\n    tag_180:\n      0x00\n      mload(0x40)\n      dup1\n      dup4\n      sub\n      dup2\n      dup6\n      dup8\n      gas\n      call\n      swap3\n      pop\n      pop\n      pop\n      returndatasize\n      dup1\n      0x00\n      dup2\n      eq\n      tag_183\n      jumpi\n      mload(0x40)\n      swap2\n      pop\n      and(add(returndatasize, 0x3f), not(0x1f))\n      dup3\n      add\n      0x40\n      mstore\n      returndatasize\n      dup3\n      mstore\n      returndatasize\n      0x00\n      0x20\n      dup5\n      add\n      returndatacopy\n      jump(tag_182)\n    tag_183:\n      0x60\n      swap2\n      pop\n    tag_182:\n      pop\n        /* \"LuckyDrawVRF.sol\":4884:4959  (bool success, ) =records[id].owner.call{value:records[id].totalReward}(\"\") */\n      pop\n      swap1\n      pop\n        /* \"LuckyDrawVRF.sol\":4981:4988  success */\n      dup1\n        /* \"LuckyDrawVRF.sol\":4973:5008  require(success, \"Transfer failed\") */\n      tag_184\n      jumpi\n      mload(0x40)\n      0x08c379a000000000000000000000000000000000000000000000000000000000\n      dup2\n      mstore\n      0x04\n      add\n      tag_185\n      swap1\n      tag_186\n      jump\t// in\n    tag_185:\n      mload(0x40)\n      dup1\n      swap2\n      sub\n      swap1\n      revert\n    tag_184:\n        /* \"LuckyDrawVRF.sol\":5039:5044  false */\n      0x00\n        /* \"LuckyDrawVRF.sol\":5022:5029  records */\n      0x08\n        /* \"LuckyDrawVRF.sol\":5022:5033  records[id] */\n      0x00\n        /* \"LuckyDrawVRF.sol\":5030:5032  id */\n      dup5\n        /* \"LuckyDrawVRF.sol\":5022:5033  records[id] */\n      dup2\n      mstore\n      0x20\n      add\n      swap1\n      dup2\n      mstore\n      0x20\n      add\n      0x00\n      keccak256\n        /* \"LuckyDrawVRF.sol\":5022:5038  records[id].open */\n      0x06\n      add\n      0x00\n        /* \"LuckyDrawVRF.sol\":5022:5044  records[id].open=false */\n      0x0100\n      exp\n      dup2\n      sload\n      dup2\n      0xff\n      mul\n      not\n      and\n      swap1\n      dup4\n      iszero\n      iszero\n      mul\n      or\n      swap1\n      sstore\n      pop\n        /* \"LuckyDrawVRF.sol\":5077:5087  msg.sender */\n      caller\n        /* \"LuckyDrawVRF.sol\":5058:5065  records */\n      0x08\n        /* \"LuckyDrawVRF.sol\":5058:5069  records[id] */\n      0x00\n        /* \"LuckyDrawVRF.sol\":5066:5068  id */\n      dup5\n        /* \"LuckyDrawVRF.sol\":5058:5069  records[id] */\n      dup2\n      mstore\n      0x20\n      add\n      swap1\n      dup2\n      mstore\n      0x20\n      add\n      0x00\n      keccak256\n        /* \"LuckyDrawVRF.sol\":5058:5076  records[id].winner */\n      0x04\n      add\n      0x00\n        /* \"LuckyDrawVRF.sol\":5058:5087  records[id].winner=msg.sender */\n      0x0100\n      exp\n      dup2\n      sload\n      dup2\n      0xffffffffffffffffffffffffffffffffffffffff\n      mul\n      not\n      and\n      swap1\n      dup4\n      0xffffffffffffffffffffffffffffffffffffffff\n      and\n      mul\n      or\n      swap1\n      sstore\n      pop\n        /* \"LuckyDrawVRF.sol\":5115:5116  0 */\n      0x00\n        /* \"LuckyDrawVRF.sol\":5101:5114  hasProcessing */\n      0x0a\n      0x00\n        /* \"LuckyDrawVRF.sol\":5101:5116  hasProcessing=0 */\n      0x0100\n      exp\n      dup2\n      sload\n      dup2\n      0xff\n      mul\n      not\n      and\n      swap1\n      dup4\n      0xff\n      and\n      mul\n      or\n      swap1\n      sstore\n      pop\n        /* \"LuckyDrawVRF.sol\":5156:5214  EventDrawWinnerSuccess(msg.sender, id, 0, block.timestamp) */\n      0x4938abb0a1220e7b4a0dd8b149717aba799cd3d2263de30c997401abfa845241\n        /* \"LuckyDrawVRF.sol\":5179:5189  msg.sender */\n      caller\n        /* \"LuckyDrawVRF.sol\":5191:5193  id */\n      dup4\n        /* \"LuckyDrawVRF.sol\":5195:5196  0 */\n      0x00\n        /* \"LuckyDrawVRF.sol\":5198:5213  block.timestamp */\n      timestamp\n        /* \"LuckyDrawVRF.sol\":5156:5214  EventDrawWinnerSuccess(msg.sender, id, 0, block.timestamp) */\n      mload(0x40)\n      tag_187\n      swap5\n      swap4\n      swap3\n      swap2\n      swap1\n      tag_188\n      jump\t// in\n    tag_187:\n      mload(0x40)\n      dup1\n      swap2\n      sub\n      swap1\n      log1\n        /* \"LuckyDrawVRF.sol\":4870:5225  {... */\n      pop\n        /* \"LuckyDrawVRF.sol\":4833:6110  if(records[id].joinAddress.length==1){... */\n      jump(tag_189)\n    tag_179:\n        /* \"LuckyDrawVRF.sol\":5314:5331  uint256 requestId */\n      0x00\n        /* \"LuckyDrawVRF.sol\":5334:5350  s_vrfCoordinator */\n      0x02\n      0x00\n      swap1\n      sload\n      swap1\n      0x0100\n      exp\n      swap1\n      div\n      0xffffffffffffffffffffffffffffffffffffffff\n      and\n        /* \"LuckyDrawVRF.sol\":5334:5369  s_vrfCoordinator.requestRandomWords */\n      0xffffffffffffffffffffffffffffffffffffffff\n      and\n      0x9b1c385e\n        /* \"LuckyDrawVRF.sol\":5391:5880  VRFV2PlusClient.RandomWordsRequest({... */\n      mload(0x40)\n      dup1\n      0xc0\n      add\n      0x40\n      mstore\n      dup1\n        /* \"LuckyDrawVRF.sol\":5461:5468  keyHash */\n      sload(0x05)\n        /* \"LuckyDrawVRF.sol\":5391:5880  VRFV2PlusClient.RandomWordsRequest({... */\n      dup2\n      mstore\n      0x20\n      add\n        /* \"LuckyDrawVRF.sol\":5501:5515  subscriptionId */\n      sload(0x03)\n        /* \"LuckyDrawVRF.sol\":5391:5880  VRFV2PlusClient.RandomWordsRequest({... */\n      dup2\n      mstore\n      0x20\n      add\n        /* \"LuckyDrawVRF.sol\":5563:5582  requestConfirmation */\n      0x06\n      0x00\n      swap1\n      sload\n      swap1\n      0x0100\n      exp\n      swap1\n      div\n      0xffff\n      and\n        /* \"LuckyDrawVRF.sol\":5391:5880  VRFV2PlusClient.RandomWordsRequest({... */\n      0xffff\n      and\n      dup2\n      mstore\n      0x20\n      add\n        /* \"LuckyDrawVRF.sol\":5626:5642  callbackGasLimit */\n      0x06\n      0x02\n      swap1\n      sload\n      swap1\n      0x0100\n      exp\n      swap1\n      div\n      0xffffffff\n      and\n        /* \"LuckyDrawVRF.sol\":5391:5880  VRFV2PlusClient.RandomWordsRequest({... */\n      0xffffffff\n      and\n      dup2\n      mstore\n      0x20\n      add\n        /* \"LuckyDrawVRF.sol\":5678:5686  numWords */\n      0x06\n      dup1\n      sload\n      swap1\n      0x0100\n      exp\n      swap1\n      div\n      0xffffffff\n      and\n        /* \"LuckyDrawVRF.sol\":5391:5880  VRFV2PlusClient.RandomWordsRequest({... */\n      0xffffffff\n      and\n      dup2\n      mstore\n      0x20\n      add\n        /* \"LuckyDrawVRF.sol\":5723:5857  VRFV2PlusClient._argsToBytes(... */\n      tag_190\n        /* \"LuckyDrawVRF.sol\":5781:5831  VRFV2PlusClient.ExtraArgsV1({nativePayment: true}) */\n      mload(0x40)\n      dup1\n      0x20\n      add\n      0x40\n      mstore\n      dup1\n        /* \"LuckyDrawVRF.sol\":5825:5829  true */\n      0x01\n        /* \"LuckyDrawVRF.sol\":5781:5831  VRFV2PlusClient.ExtraArgsV1({nativePayment: true}) */\n      iszero\n      iszero\n      dup2\n      mstore\n      pop\n        /* \"LuckyDrawVRF.sol\":5723:5751  VRFV2PlusClient._argsToBytes */\n      tag_191\n        /* \"LuckyDrawVRF.sol\":5723:5857  VRFV2PlusClient._argsToBytes(... */\n      jump\t// in\n    tag_190:\n        /* \"LuckyDrawVRF.sol\":5391:5880  VRFV2PlusClient.RandomWordsRequest({... */\n      dup2\n      mstore\n      pop\n        /* \"LuckyDrawVRF.sol\":5334:5898  s_vrfCoordinator.requestRandomWords(... */\n      mload(0x40)\n      dup3\n      0xffffffff\n      and\n      0xe0\n      shl\n      dup2\n      mstore\n      0x04\n      add\n      tag_192\n      swap2\n      swap1\n      tag_193\n      jump\t// in\n    tag_192:\n      0x20\n      mload(0x40)\n      dup1\n      dup4\n      sub\n      dup2\n      0x00\n      dup8\n      gas\n      call\n      iszero\n      dup1\n      iszero\n      tag_195\n      jumpi\n      returndatacopy(0x00, 0x00, returndatasize)\n      revert(0x00, returndatasize)\n    tag_195:\n      pop\n      pop\n      pop\n      pop\n      mload(0x40)\n      returndatasize\n      not(0x1f)\n      0x1f\n      dup3\n      add\n      and\n      dup3\n      add\n      dup1\n      0x40\n      mstore\n      pop\n      dup2\n      add\n      swap1\n      tag_196\n      swap2\n      swap1\n      tag_197\n      jump\t// in\n    tag_196:\n        /* \"LuckyDrawVRF.sol\":5314:5898  uint256 requestId = s_vrfCoordinator.requestRandomWords(... */\n      swap1\n      pop\n        /* \"LuckyDrawVRF.sol\":5934:6022  VrfRequestToRandom({... */\n      mload(0x40)\n      dup1\n      0x40\n      add\n      0x40\n      mstore\n      dup1\n        /* \"LuckyDrawVRF.sol\":6006:6007  0 */\n      0x00\n        /* \"LuckyDrawVRF.sol\":5934:6022  VrfRequestToRandom({... */\n      dup2\n      mstore\n      0x20\n      add\n        /* \"LuckyDrawVRF.sol\":5979:5981  id */\n      dup4\n        /* \"LuckyDrawVRF.sol\":5934:6022  VrfRequestToRandom({... */\n      dup2\n      mstore\n      pop\n        /* \"LuckyDrawVRF.sol\":5912:5922  requestMap */\n      0x09\n        /* \"LuckyDrawVRF.sol\":5912:5933  requestMap[requestId] */\n      0x00\n        /* \"LuckyDrawVRF.sol\":5923:5932  requestId */\n      dup4\n        /* \"LuckyDrawVRF.sol\":5912:5933  requestMap[requestId] */\n      dup2\n      mstore\n      0x20\n      add\n      swap1\n      dup2\n      mstore\n      0x20\n      add\n      0x00\n      keccak256\n        /* \"LuckyDrawVRF.sol\":5912:6022  requestMap[requestId]=VrfRequestToRandom({... */\n      0x00\n      dup3\n      add\n      mload\n      dup2\n      0x00\n      add\n      sstore\n      0x20\n      dup3\n      add\n      mload\n      dup2\n      0x01\n      add\n      sstore\n      swap1\n      pop\n      pop\n        /* \"LuckyDrawVRF.sol\":6041:6099  EventDrawStart(msg.sender, id, requestId, block.timestamp) */\n      0xa553713effcfd3f3db01a02af9aa2f33afbc3f587a0594e927a1d58ac8a92b52\n        /* \"LuckyDrawVRF.sol\":6056:6066  msg.sender */\n      caller\n        /* \"LuckyDrawVRF.sol\":6068:6070  id */\n      dup4\n        /* \"LuckyDrawVRF.sol\":6072:6081  requestId */\n      dup4\n        /* \"LuckyDrawVRF.sol\":6083:6098  block.timestamp */\n      timestamp\n        /* \"LuckyDrawVRF.sol\":6041:6099  EventDrawStart(msg.sender, id, requestId, block.timestamp) */\n      mload(0x40)\n      tag_198\n      swap5\n      swap4\n      swap3\n      swap2\n      swap1\n      tag_142\n      jump\t// in\n    tag_198:\n      mload(0x40)\n      dup1\n      swap2\n      sub\n      swap1\n      log1\n        /* \"LuckyDrawVRF.sol\":5230:6110  {... */\n      pop\n        /* \"LuckyDrawVRF.sol\":4833:6110  if(records[id].joinAddress.length==1){... */\n    tag_189:\n        /* \"LuckyDrawVRF.sol\":4267:6116  function drawWinner(uint256 id) public {... */\n      pop\n      jump\t// out\n        /* \"@chainlink/contracts/src/v0.8/shared/access/ConfirmedOwnerWithProposal.sol\":1026:1342  function acceptOwnership() external override {... */\n    tag_58:\n        /* \"@chainlink/contracts/src/v0.8/shared/access/ConfirmedOwnerWithProposal.sol\":1150:1164  s_pendingOwner */\n      0x01\n      0x00\n      swap1\n      sload\n      swap1\n      0x0100\n      exp\n      swap1\n      div\n      0xffffffffffffffffffffffffffffffffffffffff\n      and\n        /* \"@chainlink/contracts/src/v0.8/shared/access/ConfirmedOwnerWithProposal.sol\":1136:1164  msg.sender == s_pendingOwner */\n      0xffffffffffffffffffffffffffffffffffffffff\n      and\n        /* \"@chainlink/contracts/src/v0.8/shared/access/ConfirmedOwnerWithProposal.sol\":1136:1146  msg.sender */\n      caller\n        /* \"@chainlink/contracts/src/v0.8/shared/access/ConfirmedOwnerWithProposal.sol\":1136:1164  msg.sender == s_pendingOwner */\n      0xffffffffffffffffffffffffffffffffffffffff\n      and\n      eq\n        /* \"@chainlink/contracts/src/v0.8/shared/access/ConfirmedOwnerWithProposal.sol\":1128:1191  require(msg.sender == s_pendingOwner, \"Must be proposed owner\") */\n      tag_200\n      jumpi\n      mload(0x40)\n      0x08c379a000000000000000000000000000000000000000000000000000000000\n      dup2\n      mstore\n      0x04\n      add\n      tag_201\n      swap1\n      tag_202\n      jump\t// in\n    tag_201:\n      mload(0x40)\n      dup1\n      swap2\n      sub\n      swap1\n      revert\n    tag_200:\n        /* \"@chainlink/contracts/src/v0.8/shared/access/ConfirmedOwnerWithProposal.sol\":1198:1214  address oldOwner */\n      0x00\n        /* \"@chainlink/contracts/src/v0.8/shared/access/ConfirmedOwnerWithProposal.sol\":1217:1224  s_owner */\n      0x00\n      0x00\n      swap1\n      sload\n      swap1\n      0x0100\n      exp\n      swap1\n      div\n      0xffffffffffffffffffffffffffffffffffffffff\n      and\n        /* \"@chainlink/contracts/src/v0.8/shared/access/ConfirmedOwnerWithProposal.sol\":1198:1224  address oldOwner = s_owner */\n      swap1\n      pop\n        /* \"@chainlink/contracts/src/v0.8/shared/access/ConfirmedOwnerWithProposal.sol\":1240:1250  msg.sender */\n      caller\n        /* \"@chainlink/contracts/src/v0.8/shared/access/ConfirmedOwnerWithProposal.sol\":1230:1237  s_owner */\n      0x00\n      0x00\n        /* \"@chainlink/contracts/src/v0.8/shared/access/ConfirmedOwnerWithProposal.sol\":1230:1250  s_owner = msg.sender */\n      0x0100\n      exp\n      dup2\n      sload\n      dup2\n      0xffffffffffffffffffffffffffffffffffffffff\n      mul\n      not\n      and\n      swap1\n      dup4\n      0xffffffffffffffffffffffffffffffffffffffff\n      and\n      mul\n      or\n      swap1\n      sstore\n      pop\n        /* \"@chainlink/contracts/src/v0.8/shared/access/ConfirmedOwnerWithProposal.sol\":1281:1282  0 */\n      0x00\n        /* \"@chainlink/contracts/src/v0.8/shared/access/ConfirmedOwnerWithProposal.sol\":1256:1270  s_pendingOwner */\n      0x01\n      0x00\n        /* \"@chainlink/contracts/src/v0.8/shared/access/ConfirmedOwnerWithProposal.sol\":1256:1283  s_pendingOwner = address(0) */\n      0x0100\n      exp\n      dup2\n      sload\n      dup2\n      0xffffffffffffffffffffffffffffffffffffffff\n      mul\n      not\n      and\n      swap1\n      dup4\n      0xffffffffffffffffffffffffffffffffffffffff\n      and\n      mul\n      or\n      swap1\n      sstore\n      pop\n        /* \"@chainlink/contracts/src/v0.8/shared/access/ConfirmedOwnerWithProposal.sol\":1326:1336  msg.sender */\n      caller\n        /* \"@chainlink/contracts/src/v0.8/shared/access/ConfirmedOwnerWithProposal.sol\":1295:1337  OwnershipTransferred(oldOwner, msg.sender) */\n      0xffffffffffffffffffffffffffffffffffffffff\n      and\n        /* \"@chainlink/contracts/src/v0.8/shared/access/ConfirmedOwnerWithProposal.sol\":1316:1324  oldOwner */\n      dup2\n        /* \"@chainlink/contracts/src/v0.8/shared/access/ConfirmedOwnerWithProposal.sol\":1295:1337  OwnershipTransferred(oldOwner, msg.sender) */\n      0xffffffffffffffffffffffffffffffffffffffff\n      and\n      0x8be0079c531659141344cd1fd0a4f28419497f9722a3daafe3b4186f6b6457e0\n      mload(0x40)\n      mload(0x40)\n      dup1\n      swap2\n      sub\n      swap1\n      log3\n        /* \"@chainlink/contracts/src/v0.8/shared/access/ConfirmedOwnerWithProposal.sol\":1071:1342  {... */\n      pop\n        /* \"@chainlink/contracts/src/v0.8/shared/access/ConfirmedOwnerWithProposal.sol\":1026:1342  function acceptOwnership() external override {... */\n      jump\t// out\n        /* \"LuckyDrawVRF.sol\":8450:8533  function getTotalFee() public view returns(uint256){... */\n    tag_61:\n        /* \"LuckyDrawVRF.sol\":8493:8500  uint256 */\n      0x00\n        /* \"LuckyDrawVRF.sol\":8518:8526  totalFee */\n      sload(0x0c)\n        /* \"LuckyDrawVRF.sol\":8511:8526  return totalFee */\n      swap1\n      pop\n        /* \"LuckyDrawVRF.sol\":8450:8533  function getTotalFee() public view returns(uint256){... */\n      swap1\n      jump\t// out\n        /* \"@chainlink/contracts/src/v0.8/shared/access/ConfirmedOwnerWithProposal.sol\":1382:1463  function owner() public view override returns (address) {... */\n    tag_65:\n        /* \"@chainlink/contracts/src/v0.8/shared/access/ConfirmedOwnerWithProposal.sol\":1429:1436  address */\n      0x00\n        /* \"@chainlink/contracts/src/v0.8/shared/access/ConfirmedOwnerWithProposal.sol\":1451:1458  s_owner */\n      0x00\n      0x00\n      swap1\n      sload\n      swap1\n      0x0100\n      exp\n      swap1\n      div\n      0xffffffffffffffffffffffffffffffffffffffff\n      and\n        /* \"@chainlink/contracts/src/v0.8/shared/access/ConfirmedOwnerWithProposal.sol\":1444:1458  return s_owner */\n      swap1\n      pop\n        /* \"@chainlink/contracts/src/v0.8/shared/access/ConfirmedOwnerWithProposal.sol\":1382:1463  function owner() public view override returns (address) {... */\n      swap1\n      jump\t// out\n        /* \"@chainlink/contracts/src/v0.8/vrf/dev/VRFConsumerBaseV2Plus.sol\":7831:8107  function setCoordinator(address _vrfCoordinator) external override onlyOwnerOrCoordinator {... */\n    tag_72:\n        /* \"@chainlink/contracts/src/v0.8/vrf/dev/VRFConsumerBaseV2Plus.sol\":8169:8176  owner() */\n      tag_206\n        /* \"@chainlink/contracts/src/v0.8/vrf/dev/VRFConsumerBaseV2Plus.sol\":8169:8174  owner */\n      tag_65\n        /* \"@chainlink/contracts/src/v0.8/vrf/dev/VRFConsumerBaseV2Plus.sol\":8169:8176  owner() */\n      jump\t// in\n    tag_206:\n        /* \"@chainlink/contracts/src/v0.8/vrf/dev/VRFConsumerBaseV2Plus.sol\":8155:8176  msg.sender != owner() */\n      0xffffffffffffffffffffffffffffffffffffffff\n      and\n        /* \"@chainlink/contracts/src/v0.8/vrf/dev/VRFConsumerBaseV2Plus.sol\":8155:8165  msg.sender */\n      caller\n        /* \"@chainlink/contracts/src/v0.8/vrf/dev/VRFConsumerBaseV2Plus.sol\":8155:8176  msg.sender != owner() */\n      0xffffffffffffffffffffffffffffffffffffffff\n      and\n      eq\n      iszero\n        /* \"@chainlink/contracts/src/v0.8/vrf/dev/VRFConsumerBaseV2Plus.sol\":8155:8219  msg.sender != owner() && msg.sender != address(s_vrfCoordinator) */\n      dup1\n      iszero\n      tag_207\n      jumpi\n      pop\n        /* \"@chainlink/contracts/src/v0.8/vrf/dev/VRFConsumerBaseV2Plus.sol\":8202:8218  s_vrfCoordinator */\n      0x02\n      0x00\n      swap1\n      sload\n      swap1\n      0x0100\n      exp\n      swap1\n      div\n      0xffffffffffffffffffffffffffffffffffffffff\n      and\n        /* \"@chainlink/contracts/src/v0.8/vrf/dev/VRFConsumerBaseV2Plus.sol\":8180:8219  msg.sender != address(s_vrfCoordinator) */\n      0xffffffffffffffffffffffffffffffffffffffff\n      and\n        /* \"@chainlink/contracts/src/v0.8/vrf/dev/VRFConsumerBaseV2Plus.sol\":8180:8190  msg.sender */\n      caller\n        /* \"@chainlink/contracts/src/v0.8/vrf/dev/VRFConsumerBaseV2Plus.sol\":8180:8219  msg.sender != address(s_vrfCoordinator) */\n      0xffffffffffffffffffffffffffffffffffffffff\n      and\n      eq\n      iszero\n        /* \"@chainlink/contracts/src/v0.8/vrf/dev/VRFConsumerBaseV2Plus.sol\":8155:8219  msg.sender != owner() && msg.sender != address(s_vrfCoordinator) */\n    tag_207:\n        /* \"@chainlink/contracts/src/v0.8/vrf/dev/VRFConsumerBaseV2Plus.sol\":8151:8313  if (msg.sender != owner() && msg.sender != address(s_vrfCoordinator)) {... */\n      iszero\n      tag_208\n      jumpi\n        /* \"@chainlink/contracts/src/v0.8/vrf/dev/VRFConsumerBaseV2Plus.sol\":8259:8269  msg.sender */\n      caller\n        /* \"@chainlink/contracts/src/v0.8/vrf/dev/VRFConsumerBaseV2Plus.sol\":8271:8278  owner() */\n      tag_209\n        /* \"@chainlink/contracts/src/v0.8/vrf/dev/VRFConsumerBaseV2Plus.sol\":8271:8276  owner */\n      tag_65\n        /* \"@chainlink/contracts/src/v0.8/vrf/dev/VRFConsumerBaseV2Plus.sol\":8271:8278  owner() */\n      jump\t// in\n    tag_209:\n        /* \"@chainlink/contracts/src/v0.8/vrf/dev/VRFConsumerBaseV2Plus.sol\":8288:8304  s_vrfCoordinator */\n      0x02\n      0x00\n      swap1\n      sload\n      swap1\n      0x0100\n      exp\n      swap1\n      div\n      0xffffffffffffffffffffffffffffffffffffffff\n      and\n        /* \"@chainlink/contracts/src/v0.8/vrf/dev/VRFConsumerBaseV2Plus.sol\":8236:8306  OnlyOwnerOrCoordinator(msg.sender, owner(), address(s_vrfCoordinator)) */\n      mload(0x40)\n      0x061db9c100000000000000000000000000000000000000000000000000000000\n      dup2\n      mstore\n      0x04\n      add\n      tag_210\n      swap4\n      swap3\n      swap2\n      swap1\n      tag_211\n      jump\t// in\n    tag_210:\n      mload(0x40)\n      dup1\n      swap2\n      sub\n      swap1\n      revert\n        /* \"@chainlink/contracts/src/v0.8/vrf/dev/VRFConsumerBaseV2Plus.sol\":8151:8313  if (msg.sender != owner() && msg.sender != address(s_vrfCoordinator)) {... */\n    tag_208:\n        /* \"@chainlink/contracts/src/v0.8/vrf/dev/VRFConsumerBaseV2Plus.sol\":7958:7959  0 */\n      0x00\n        /* \"@chainlink/contracts/src/v0.8/vrf/dev/VRFConsumerBaseV2Plus.sol\":7931:7960  _vrfCoordinator == address(0) */\n      0xffffffffffffffffffffffffffffffffffffffff\n      and\n        /* \"@chainlink/contracts/src/v0.8/vrf/dev/VRFConsumerBaseV2Plus.sol\":7931:7946  _vrfCoordinator */\n      dup2\n        /* \"@chainlink/contracts/src/v0.8/vrf/dev/VRFConsumerBaseV2Plus.sol\":7931:7960  _vrfCoordinator == address(0) */\n      0xffffffffffffffffffffffffffffffffffffffff\n      and\n      sub\n        /* \"@chainlink/contracts/src/v0.8/vrf/dev/VRFConsumerBaseV2Plus.sol\":7927:7997  if (_vrfCoordinator == address(0)) {... */\n      tag_213\n      jumpi\n        /* \"@chainlink/contracts/src/v0.8/vrf/dev/VRFConsumerBaseV2Plus.sol\":7977:7990  ZeroAddress() */\n      mload(0x40)\n      0xd92e233d00000000000000000000000000000000000000000000000000000000\n      dup2\n      mstore\n      0x04\n      add\n      mload(0x40)\n      dup1\n      swap2\n      sub\n      swap1\n      revert\n        /* \"@chainlink/contracts/src/v0.8/vrf/dev/VRFConsumerBaseV2Plus.sol\":7927:7997  if (_vrfCoordinator == address(0)) {... */\n    tag_213:\n        /* \"@chainlink/contracts/src/v0.8/vrf/dev/VRFConsumerBaseV2Plus.sol\":8043:8058  _vrfCoordinator */\n      dup1\n        /* \"@chainlink/contracts/src/v0.8/vrf/dev/VRFConsumerBaseV2Plus.sol\":8002:8018  s_vrfCoordinator */\n      0x02\n      0x00\n        /* \"@chainlink/contracts/src/v0.8/vrf/dev/VRFConsumerBaseV2Plus.sol\":8002:8059  s_vrfCoordinator = IVRFCoordinatorV2Plus(_vrfCoordinator) */\n      0x0100\n      exp\n      dup2\n      sload\n      dup2\n      0xffffffffffffffffffffffffffffffffffffffff\n      mul\n      not\n      and\n      swap1\n      dup4\n      0xffffffffffffffffffffffffffffffffffffffff\n      and\n      mul\n      or\n      swap1\n      sstore\n      pop\n        /* \"@chainlink/contracts/src/v0.8/vrf/dev/VRFConsumerBaseV2Plus.sol\":8071:8102  CoordinatorSet(_vrfCoordinator) */\n      0xd1a6a14209a385a964d036e404cb5cfb71f4000cdb03c9366292430787261be6\n        /* \"@chainlink/contracts/src/v0.8/vrf/dev/VRFConsumerBaseV2Plus.sol\":8086:8101  _vrfCoordinator */\n      dup2\n        /* \"@chainlink/contracts/src/v0.8/vrf/dev/VRFConsumerBaseV2Plus.sol\":8071:8102  CoordinatorSet(_vrfCoordinator) */\n      mload(0x40)\n      tag_214\n      swap2\n      swap1\n      tag_67\n      jump\t// in\n    tag_214:\n      mload(0x40)\n      dup1\n      swap2\n      sub\n      swap1\n      log1\n        /* \"@chainlink/contracts/src/v0.8/vrf/dev/VRFConsumerBaseV2Plus.sol\":7831:8107  function setCoordinator(address _vrfCoordinator) external override onlyOwnerOrCoordinator {... */\n      pop\n      jump\t// out\n        /* \"@chainlink/contracts/src/v0.8/vrf/dev/VRFConsumerBaseV2Plus.sol\":6077:6122  IVRFCoordinatorV2Plus public s_vrfCoordinator */\n    tag_75:\n      0x02\n      0x00\n      swap1\n      sload\n      swap1\n      0x0100\n      exp\n      swap1\n      div\n      0xffffffffffffffffffffffffffffffffffffffff\n      and\n      dup2\n      jump\t// out\n        /* \"LuckyDrawVRF.sol\":3474:4222  function joinLucky(uint256 id) public payable{... */\n    tag_80:\n        /* \"LuckyDrawVRF.sol\":3557:3558  0 */\n      0x00\n        /* \"LuckyDrawVRF.sol\":3537:3559  msg.sender!=address(0) */\n      0xffffffffffffffffffffffffffffffffffffffff\n      and\n        /* \"LuckyDrawVRF.sol\":3537:3547  msg.sender */\n      caller\n        /* \"LuckyDrawVRF.sol\":3537:3559  msg.sender!=address(0) */\n      0xffffffffffffffffffffffffffffffffffffffff\n      and\n      sub\n        /* \"LuckyDrawVRF.sol\":3529:3583  require(msg.sender!=address(0),\"correct join address\") */\n      tag_216\n      jumpi\n      mload(0x40)\n      0x08c379a000000000000000000000000000000000000000000000000000000000\n      dup2\n      mstore\n      0x04\n      add\n      tag_217\n      swap1\n      tag_218\n      jump\t// in\n    tag_217:\n      mload(0x40)\n      dup1\n      swap2\n      sub\n      swap1\n      revert\n    tag_216:\n        /* \"LuckyDrawVRF.sol\":3593:3610  Join storage task */\n      0x00\n        /* \"LuckyDrawVRF.sol\":3612:3619  records */\n      0x08\n        /* \"LuckyDrawVRF.sol\":3612:3623  records[id] */\n      0x00\n        /* \"LuckyDrawVRF.sol\":3620:3622  id */\n      dup4\n        /* \"LuckyDrawVRF.sol\":3612:3623  records[id] */\n      dup2\n      mstore\n      0x20\n      add\n      swap1\n      dup2\n      mstore\n      0x20\n      add\n      0x00\n      keccak256\n        /* \"LuckyDrawVRF.sol\":3593:3623  Join storage task =records[id] */\n      swap1\n      pop\n        /* \"LuckyDrawVRF.sol\":3657:3672  block.timestamp */\n      timestamp\n        /* \"LuckyDrawVRF.sol\":3641:3645  task */\n      dup2\n        /* \"LuckyDrawVRF.sol\":3641:3655  task.startTime */\n      0x00\n      add\n      sload\n        /* \"LuckyDrawVRF.sol\":3641:3672  task.startTime<=block.timestamp */\n      gt\n      iszero\n        /* \"LuckyDrawVRF.sol\":3641:3702  task.startTime<=block.timestamp&&task.endTime>block.timestamp */\n      dup1\n      iszero\n      tag_219\n      jumpi\n      pop\n        /* \"LuckyDrawVRF.sol\":3687:3702  block.timestamp */\n      timestamp\n        /* \"LuckyDrawVRF.sol\":3674:3678  task */\n      dup2\n        /* \"LuckyDrawVRF.sol\":3674:3686  task.endTime */\n      0x01\n      add\n      sload\n        /* \"LuckyDrawVRF.sol\":3674:3702  task.endTime>block.timestamp */\n      gt\n        /* \"LuckyDrawVRF.sol\":3641:3702  task.startTime<=block.timestamp&&task.endTime>block.timestamp */\n    tag_219:\n        /* \"LuckyDrawVRF.sol\":3633:3726  require(task.startTime<=block.timestamp&&task.endTime>block.timestamp,\"current task has end\") */\n      tag_220\n      jumpi\n      mload(0x40)\n      0x08c379a000000000000000000000000000000000000000000000000000000000\n      dup2\n      mstore\n      0x04\n      add\n      tag_221\n      swap1\n      tag_222\n      jump\t// in\n    tag_221:\n      mload(0x40)\n      dup1\n      swap2\n      sub\n      swap1\n      revert\n    tag_220:\n        /* \"LuckyDrawVRF.sol\":3755:3759  true */\n      0x01\n        /* \"LuckyDrawVRF.sol\":3744:3759  task.open==true */\n      iszero\n      iszero\n        /* \"LuckyDrawVRF.sol\":3744:3748  task */\n      dup2\n        /* \"LuckyDrawVRF.sol\":3744:3753  task.open */\n      0x06\n      add\n      0x00\n      swap1\n      sload\n      swap1\n      0x0100\n      exp\n      swap1\n      div\n      0xff\n      and\n        /* \"LuckyDrawVRF.sol\":3744:3759  task.open==true */\n      iszero\n      iszero\n      eq\n        /* \"LuckyDrawVRF.sol\":3736:3785  require(task.open==true, \"current task has done\") */\n      tag_223\n      jumpi\n      mload(0x40)\n      0x08c379a000000000000000000000000000000000000000000000000000000000\n      dup2\n      mstore\n      0x04\n      add\n      tag_224\n      swap1\n      tag_113\n      jump\t// in\n    tag_224:\n      mload(0x40)\n      dup1\n      swap2\n      sub\n      swap1\n      revert\n    tag_223:\n        /* \"LuckyDrawVRF.sol\":3814:3818  task */\n      dup1\n        /* \"LuckyDrawVRF.sol\":3814:3824  task.price */\n      0x05\n      add\n      sload\n        /* \"LuckyDrawVRF.sol\":3803:3812  msg.value */\n      callvalue\n        /* \"LuckyDrawVRF.sol\":3803:3824  msg.value>=task.price */\n      lt\n      iszero\n        /* \"LuckyDrawVRF.sol\":3795:3866  require(msg.value>=task.price,\"join price must be big than tick price\") */\n      tag_225\n      jumpi\n      mload(0x40)\n      0x08c379a000000000000000000000000000000000000000000000000000000000\n      dup2\n      mstore\n      0x04\n      add\n      tag_226\n      swap1\n      tag_227\n      jump\t// in\n    tag_226:\n      mload(0x40)\n      dup1\n      swap2\n      sub\n      swap1\n      revert\n    tag_225:\n        /* \"LuckyDrawVRF.sol\":3908:3909  0 */\n      0x00\n        /* \"LuckyDrawVRF.sol\":3884:3888  task */\n      dup2\n        /* \"LuckyDrawVRF.sol\":3884:3894  task.joins */\n      0x07\n      add\n        /* \"LuckyDrawVRF.sol\":3884:3906  task.joins[msg.sender] */\n      0x00\n        /* \"LuckyDrawVRF.sol\":3895:3905  msg.sender */\n      caller\n        /* \"LuckyDrawVRF.sol\":3884:3906  task.joins[msg.sender] */\n      0xffffffffffffffffffffffffffffffffffffffff\n      and\n      0xffffffffffffffffffffffffffffffffffffffff\n      and\n      dup2\n      mstore\n      0x20\n      add\n      swap1\n      dup2\n      mstore\n      0x20\n      add\n      0x00\n      keccak256\n      sload\n        /* \"LuckyDrawVRF.sol\":3884:3909  task.joins[msg.sender]<=0 */\n      gt\n      iszero\n        /* \"LuckyDrawVRF.sol\":3876:3960  require(task.joins[msg.sender]<=0,\"you has join it,please waiting lucky going down\") */\n      tag_228\n      jumpi\n      mload(0x40)\n      0x08c379a000000000000000000000000000000000000000000000000000000000\n      dup2\n      mstore\n      0x04\n      add\n      tag_229\n      swap1\n      tag_230\n      jump\t// in\n    tag_229:\n      mload(0x40)\n      dup1\n      swap2\n      sub\n      swap1\n      revert\n    tag_228:\n        /* \"LuckyDrawVRF.sol\":4026:4035  msg.value */\n      callvalue\n        /* \"LuckyDrawVRF.sol\":4008:4012  task */\n      dup2\n        /* \"LuckyDrawVRF.sol\":4008:4024  task.totalReward */\n      0x02\n      add\n      0x00\n        /* \"LuckyDrawVRF.sol\":4008:4035  task.totalReward+=msg.value */\n      dup3\n      dup3\n      sload\n      tag_231\n      swap2\n      swap1\n      tag_130\n      jump\t// in\n    tag_231:\n      swap3\n      pop\n      pop\n      dup2\n      swap1\n      sstore\n      pop\n        /* \"LuckyDrawVRF.sol\":4068:4077  msg.value */\n      callvalue\n        /* \"LuckyDrawVRF.sol\":4045:4049  task */\n      dup2\n        /* \"LuckyDrawVRF.sol\":4045:4055  task.joins */\n      0x07\n      add\n        /* \"LuckyDrawVRF.sol\":4045:4067  task.joins[msg.sender] */\n      0x00\n        /* \"LuckyDrawVRF.sol\":4056:4066  msg.sender */\n      caller\n        /* \"LuckyDrawVRF.sol\":4045:4067  task.joins[msg.sender] */\n      0xffffffffffffffffffffffffffffffffffffffff\n      and\n      0xffffffffffffffffffffffffffffffffffffffff\n      and\n      dup2\n      mstore\n      0x20\n      add\n      swap1\n      dup2\n      mstore\n      0x20\n      add\n      0x00\n      keccak256\n        /* \"LuckyDrawVRF.sol\":4045:4077  task.joins[msg.sender]=msg.value */\n      dup2\n      swap1\n      sstore\n      pop\n        /* \"LuckyDrawVRF.sol\":4087:4091  task */\n      dup1\n        /* \"LuckyDrawVRF.sol\":4087:4103  task.joinAddress */\n      0x08\n      add\n        /* \"LuckyDrawVRF.sol\":4109:4119  msg.sender */\n      caller\n        /* \"LuckyDrawVRF.sol\":4087:4120  task.joinAddress.push(msg.sender) */\n      swap1\n      dup1\n      0x01\n      dup2\n      sload\n      add\n      dup1\n      dup3\n      sstore\n      dup1\n      swap2\n      pop\n      pop\n      0x01\n      swap1\n      sub\n      swap1\n      0x00\n      mstore\n      keccak256(0x00, 0x20)\n      add\n      0x00\n      swap1\n      swap2\n      swap1\n      swap2\n      swap1\n      swap2\n      0x0100\n      exp\n      dup2\n      sload\n      dup2\n      0xffffffffffffffffffffffffffffffffffffffff\n      mul\n      not\n      and\n      swap1\n      dup4\n      0xffffffffffffffffffffffffffffffffffffffff\n      and\n      mul\n      or\n      swap1\n      sstore\n      pop\n        /* \"LuckyDrawVRF.sol\":4158:4215  EventJoinSuccess(msg.sender,id,msg.value,block.timestamp) */\n      0x2e86a4ea48e0ba7adc0ba18a20c7fb7b8e65257bbae7bc0816518c2e5e65cec0\n        /* \"LuckyDrawVRF.sol\":4175:4185  msg.sender */\n      caller\n        /* \"LuckyDrawVRF.sol\":4186:4188  id */\n      dup4\n        /* \"LuckyDrawVRF.sol\":4189:4198  msg.value */\n      callvalue\n        /* \"LuckyDrawVRF.sol\":4199:4214  block.timestamp */\n      timestamp\n        /* \"LuckyDrawVRF.sol\":4158:4215  EventJoinSuccess(msg.sender,id,msg.value,block.timestamp) */\n      mload(0x40)\n      tag_233\n      swap5\n      swap4\n      swap3\n      swap2\n      swap1\n      tag_142\n      jump\t// in\n    tag_233:\n      mload(0x40)\n      dup1\n      swap2\n      sub\n      swap1\n      log1\n        /* \"LuckyDrawVRF.sol\":3519:4222  {... */\n      pop\n        /* \"LuckyDrawVRF.sol\":3474:4222  function joinLucky(uint256 id) public payable{... */\n      pop\n      jump\t// out\n        /* \"LuckyDrawVRF.sol\":350:392  uint256 public constant ONE = 10**DECIMALS */\n    tag_83:\n        /* \"LuckyDrawVRF.sol\":342:344  18 */\n      0x12\n        /* \"LuckyDrawVRF.sol\":380:382  10 */\n      0x0a\n        /* \"LuckyDrawVRF.sol\":380:392  10**DECIMALS */\n      tag_234\n      swap2\n      swap1\n      tag_124\n      jump\t// in\n    tag_234:\n        /* \"LuckyDrawVRF.sol\":350:392  uint256 public constant ONE = 10**DECIMALS */\n      dup2\n      jump\t// out\n        /* \"LuckyDrawVRF.sol\":762:786  uint256 public currentId */\n    tag_87:\n      sload(0x07)\n      dup2\n      jump\t// out\n        /* \"LuckyDrawVRF.sol\":8235:8444  function getLuckyJoinBalance(uint256 luckyId,address user) public view returns(uint256 amount){... */\n    tag_93:\n        /* \"LuckyDrawVRF.sol\":8314:8328  uint256 amount */\n      0x00\n        /* \"LuckyDrawVRF.sol\":8361:8362  0 */\n      0x00\n        /* \"LuckyDrawVRF.sol\":8347:8363  user!=address(0) */\n      0xffffffffffffffffffffffffffffffffffffffff\n      and\n        /* \"LuckyDrawVRF.sol\":8347:8351  user */\n      dup3\n        /* \"LuckyDrawVRF.sol\":8347:8363  user!=address(0) */\n      0xffffffffffffffffffffffffffffffffffffffff\n      and\n      sub\n        /* \"LuckyDrawVRF.sol\":8339:8364  require(user!=address(0)) */\n      tag_236\n      jumpi\n      revert(0x00, 0x00)\n    tag_236:\n        /* \"LuckyDrawVRF.sol\":8374:8389  Join storage jj */\n      0x00\n        /* \"LuckyDrawVRF.sol\":8390:8397  records */\n      0x08\n        /* \"LuckyDrawVRF.sol\":8390:8406  records[luckyId] */\n      0x00\n        /* \"LuckyDrawVRF.sol\":8398:8405  luckyId */\n      dup6\n        /* \"LuckyDrawVRF.sol\":8390:8406  records[luckyId] */\n      dup2\n      mstore\n      0x20\n      add\n      swap1\n      dup2\n      mstore\n      0x20\n      add\n      0x00\n      keccak256\n        /* \"LuckyDrawVRF.sol\":8374:8406  Join storage jj=records[luckyId] */\n      swap1\n      pop\n        /* \"LuckyDrawVRF.sol\":8423:8425  jj */\n      dup1\n        /* \"LuckyDrawVRF.sol\":8423:8431  jj.joins */\n      0x07\n      add\n        /* \"LuckyDrawVRF.sol\":8423:8437  jj.joins[user] */\n      0x00\n        /* \"LuckyDrawVRF.sol\":8432:8436  user */\n      dup5\n        /* \"LuckyDrawVRF.sol\":8423:8437  jj.joins[user] */\n      0xffffffffffffffffffffffffffffffffffffffff\n      and\n      0xffffffffffffffffffffffffffffffffffffffff\n      and\n      dup2\n      mstore\n      0x20\n      add\n      swap1\n      dup2\n      mstore\n      0x20\n      add\n      0x00\n      keccak256\n      sload\n        /* \"LuckyDrawVRF.sol\":8416:8437  return jj.joins[user] */\n      swap2\n      pop\n      pop\n        /* \"LuckyDrawVRF.sol\":8235:8444  function getLuckyJoinBalance(uint256 luckyId,address user) public view returns(uint256 amount){... */\n      swap3\n      swap2\n      pop\n      pop\n      jump\t// out\n        /* \"@chainlink/contracts/src/v0.8/shared/access/ConfirmedOwnerWithProposal.sol\":847:945  function transferOwnership(address to) public override onlyOwner {... */\n    tag_98:\n        /* \"@chainlink/contracts/src/v0.8/shared/access/ConfirmedOwnerWithProposal.sol\":2075:2095  _validateOwnership() */\n      tag_238\n        /* \"@chainlink/contracts/src/v0.8/shared/access/ConfirmedOwnerWithProposal.sol\":2075:2093  _validateOwnership */\n      tag_145\n        /* \"@chainlink/contracts/src/v0.8/shared/access/ConfirmedOwnerWithProposal.sol\":2075:2095  _validateOwnership() */\n      jump\t// in\n    tag_238:\n        /* \"@chainlink/contracts/src/v0.8/shared/access/ConfirmedOwnerWithProposal.sol\":918:940  _transferOwnership(to) */\n      tag_240\n        /* \"@chainlink/contracts/src/v0.8/shared/access/ConfirmedOwnerWithProposal.sol\":937:939  to */\n      dup2\n        /* \"@chainlink/contracts/src/v0.8/shared/access/ConfirmedOwnerWithProposal.sol\":918:936  _transferOwnership */\n      tag_241\n        /* \"@chainlink/contracts/src/v0.8/shared/access/ConfirmedOwnerWithProposal.sol\":918:940  _transferOwnership(to) */\n      jump\t// in\n    tag_240:\n        /* \"@chainlink/contracts/src/v0.8/shared/access/ConfirmedOwnerWithProposal.sol\":847:945  function transferOwnership(address to) public override onlyOwner {... */\n      pop\n      jump\t// out\n        /* \"LuckyDrawVRF.sol\":2713:3449  function createLucky(uint256 _startTime,uint256 _endTime,uint256 _conditionPrice) public payable returns(uint256) {... */\n    tag_102:\n        /* \"LuckyDrawVRF.sol\":2818:2825  uint256 */\n      0x00\n        /* \"LuckyDrawVRF.sol\":2865:2866  0 */\n      0x00\n        /* \"LuckyDrawVRF.sol\":2845:2867  msg.sender!=address(0) */\n      0xffffffffffffffffffffffffffffffffffffffff\n      and\n        /* \"LuckyDrawVRF.sol\":2845:2855  msg.sender */\n      caller\n        /* \"LuckyDrawVRF.sol\":2845:2867  msg.sender!=address(0) */\n      0xffffffffffffffffffffffffffffffffffffffff\n      and\n      sub\n        /* \"LuckyDrawVRF.sol\":2837:2891  require(msg.sender!=address(0),\"not alllowed join it\") */\n      tag_243\n      jumpi\n      mload(0x40)\n      0x08c379a000000000000000000000000000000000000000000000000000000000\n      dup2\n      mstore\n      0x04\n      add\n      tag_244\n      swap1\n      tag_245\n      jump\t// in\n    tag_244:\n      mload(0x40)\n      dup1\n      swap2\n      sub\n      swap1\n      revert\n    tag_243:\n        /* \"LuckyDrawVRF.sol\":2919:2920  0 */\n      0x00\n        /* \"LuckyDrawVRF.sol\":2909:2918  msg.value */\n      callvalue\n        /* \"LuckyDrawVRF.sol\":2909:2920  msg.value>0 */\n      gt\n        /* \"LuckyDrawVRF.sol\":2909:2942  msg.value>0&&msg.value>=miniPrice */\n      dup1\n      iszero\n      tag_246\n      jumpi\n      pop\n        /* \"LuckyDrawVRF.sol\":2933:2942  miniPrice */\n      sload(0x0b)\n        /* \"LuckyDrawVRF.sol\":2922:2931  msg.value */\n      callvalue\n        /* \"LuckyDrawVRF.sol\":2922:2942  msg.value>=miniPrice */\n      lt\n      iszero\n        /* \"LuckyDrawVRF.sol\":2909:2942  msg.value>0&&msg.value>=miniPrice */\n    tag_246:\n        /* \"LuckyDrawVRF.sol\":2901:2991  require(msg.value>0&&msg.value>=miniPrice,\"create luck init reward must be big than zero\") */\n      tag_247\n      jumpi\n      mload(0x40)\n      0x08c379a000000000000000000000000000000000000000000000000000000000\n      dup2\n      mstore\n      0x04\n      add\n      tag_248\n      swap1\n      tag_249\n      jump\t// in\n    tag_248:\n      mload(0x40)\n      dup1\n      swap2\n      sub\n      swap1\n      revert\n    tag_247:\n        /* \"LuckyDrawVRF.sol\":3014:3015  1 */\n      0x01\n        /* \"LuckyDrawVRF.sol\":3001:3010  currentId */\n      0x07\n      0x00\n        /* \"LuckyDrawVRF.sol\":3001:3015  currentId += 1 */\n      dup3\n      dup3\n      sload\n      tag_250\n      swap2\n      swap1\n      tag_130\n      jump\t// in\n    tag_250:\n      swap3\n      pop\n      pop\n      dup2\n      swap1\n      sstore\n      pop\n        /* \"LuckyDrawVRF.sol\":3063:3083  Join storage newJoin */\n      0x00\n        /* \"LuckyDrawVRF.sol\":3086:3093  records */\n      0x08\n        /* \"LuckyDrawVRF.sol\":3086:3104  records[currentId] */\n      0x00\n        /* \"LuckyDrawVRF.sol\":3094:3103  currentId */\n      sload(0x07)\n        /* \"LuckyDrawVRF.sol\":3086:3104  records[currentId] */\n      dup2\n      mstore\n      0x20\n      add\n      swap1\n      dup2\n      mstore\n      0x20\n      add\n      0x00\n      keccak256\n        /* \"LuckyDrawVRF.sol\":3063:3104  Join storage newJoin = records[currentId] */\n      swap1\n      pop\n        /* \"LuckyDrawVRF.sol\":3132:3142  _startTime */\n      dup5\n        /* \"LuckyDrawVRF.sol\":3114:3121  newJoin */\n      dup2\n        /* \"LuckyDrawVRF.sol\":3114:3131  newJoin.startTime */\n      0x00\n      add\n        /* \"LuckyDrawVRF.sol\":3114:3142  newJoin.startTime=_startTime */\n      dup2\n      swap1\n      sstore\n      pop\n        /* \"LuckyDrawVRF.sol\":3170:3178  _endTime */\n      dup4\n        /* \"LuckyDrawVRF.sol\":3152:3159  newJoin */\n      dup2\n        /* \"LuckyDrawVRF.sol\":3152:3167  newJoin.endTime */\n      0x01\n      add\n        /* \"LuckyDrawVRF.sol\":3152:3178  newJoin.endTime = _endTime */\n      dup2\n      swap1\n      sstore\n      pop\n        /* \"LuckyDrawVRF.sol\":3210:3219  msg.value */\n      callvalue\n        /* \"LuckyDrawVRF.sol\":3188:3195  newJoin */\n      dup2\n        /* \"LuckyDrawVRF.sol\":3188:3207  newJoin.totalReward */\n      0x02\n      add\n        /* \"LuckyDrawVRF.sol\":3188:3219  newJoin.totalReward = msg.value */\n      dup2\n      swap1\n      sstore\n      pop\n        /* \"LuckyDrawVRF.sol\":3245:3255  msg.sender */\n      caller\n        /* \"LuckyDrawVRF.sol\":3229:3236  newJoin */\n      dup2\n        /* \"LuckyDrawVRF.sol\":3229:3242  newJoin.owner */\n      0x03\n      add\n      0x00\n        /* \"LuckyDrawVRF.sol\":3229:3255  newJoin.owner = msg.sender */\n      0x0100\n      exp\n      dup2\n      sload\n      dup2\n      0xffffffffffffffffffffffffffffffffffffffff\n      mul\n      not\n      and\n      swap1\n      dup4\n      0xffffffffffffffffffffffffffffffffffffffff\n      and\n      mul\n      or\n      swap1\n      sstore\n      pop\n        /* \"LuckyDrawVRF.sol\":3281:3296  _conditionPrice */\n      dup3\n        /* \"LuckyDrawVRF.sol\":3265:3272  newJoin */\n      dup2\n        /* \"LuckyDrawVRF.sol\":3265:3278  newJoin.price */\n      0x05\n      add\n        /* \"LuckyDrawVRF.sol\":3265:3296  newJoin.price = _conditionPrice */\n      dup2\n      swap1\n      sstore\n      pop\n        /* \"LuckyDrawVRF.sol\":3319:3323  true */\n      0x01\n        /* \"LuckyDrawVRF.sol\":3306:3313  newJoin */\n      dup2\n        /* \"LuckyDrawVRF.sol\":3306:3318  newJoin.open */\n      0x06\n      add\n      0x00\n        /* \"LuckyDrawVRF.sol\":3306:3323  newJoin.open=true */\n      0x0100\n      exp\n      dup2\n      sload\n      dup2\n      0xff\n      mul\n      not\n      and\n      swap1\n      dup4\n      iszero\n      iszero\n      mul\n      or\n      swap1\n      sstore\n      pop\n        /* \"LuckyDrawVRF.sol\":3361:3370  msg.value */\n      callvalue\n        /* \"LuckyDrawVRF.sol\":3333:3340  newJoin */\n      dup2\n        /* \"LuckyDrawVRF.sol\":3333:3346  newJoin.joins */\n      0x07\n      add\n        /* \"LuckyDrawVRF.sol\":3333:3358  newJoin.joins[msg.sender] */\n      0x00\n        /* \"LuckyDrawVRF.sol\":3347:3357  msg.sender */\n      caller\n        /* \"LuckyDrawVRF.sol\":3333:3358  newJoin.joins[msg.sender] */\n      0xffffffffffffffffffffffffffffffffffffffff\n      and\n      0xffffffffffffffffffffffffffffffffffffffff\n      and\n      dup2\n      mstore\n      0x20\n      add\n      swap1\n      dup2\n      mstore\n      0x20\n      add\n      0x00\n      keccak256\n        /* \"LuckyDrawVRF.sol\":3333:3370  newJoin.joins[msg.sender] = msg.value */\n      dup2\n      swap1\n      sstore\n      pop\n        /* \"LuckyDrawVRF.sol\":3380:3387  newJoin */\n      dup1\n        /* \"LuckyDrawVRF.sol\":3380:3399  newJoin.joinAddress */\n      0x08\n      add\n        /* \"LuckyDrawVRF.sol\":3405:3415  msg.sender */\n      caller\n        /* \"LuckyDrawVRF.sol\":3380:3416  newJoin.joinAddress.push(msg.sender) */\n      swap1\n      dup1\n      0x01\n      dup2\n      sload\n      add\n      dup1\n      dup3\n      sstore\n      dup1\n      swap2\n      pop\n      pop\n      0x01\n      swap1\n      sub\n      swap1\n      0x00\n      mstore\n      keccak256(0x00, 0x20)\n      add\n      0x00\n      swap1\n      swap2\n      swap1\n      swap2\n      swap1\n      swap2\n      0x0100\n      exp\n      dup2\n      sload\n      dup2\n      0xffffffffffffffffffffffffffffffffffffffff\n      mul\n      not\n      and\n      swap1\n      dup4\n      0xffffffffffffffffffffffffffffffffffffffff\n      and\n      mul\n      or\n      swap1\n      sstore\n      pop\n        /* \"LuckyDrawVRF.sol\":3433:3442  currentId */\n      sload(0x07)\n        /* \"LuckyDrawVRF.sol\":3426:3442  return currentId */\n      swap2\n      pop\n      pop\n        /* \"LuckyDrawVRF.sol\":2713:3449  function createLucky(uint256 _startTime,uint256 _endTime,uint256 _conditionPrice) public payable returns(uint256) {... */\n      swap4\n      swap3\n      pop\n      pop\n      pop\n      jump\t// out\n        /* \"@chainlink/contracts/src/v0.8/shared/access/ConfirmedOwnerWithProposal.sol\":1809:1971  function _validateOwnership() internal view {... */\n    tag_145:\n        /* \"@chainlink/contracts/src/v0.8/shared/access/ConfirmedOwnerWithProposal.sol\":1932:1939  s_owner */\n      0x00\n      0x00\n      swap1\n      sload\n      swap1\n      0x0100\n      exp\n      swap1\n      div\n      0xffffffffffffffffffffffffffffffffffffffff\n      and\n        /* \"@chainlink/contracts/src/v0.8/shared/access/ConfirmedOwnerWithProposal.sol\":1918:1939  msg.sender == s_owner */\n      0xffffffffffffffffffffffffffffffffffffffff\n      and\n        /* \"@chainlink/contracts/src/v0.8/shared/access/ConfirmedOwnerWithProposal.sol\":1918:1928  msg.sender */\n      caller\n        /* \"@chainlink/contracts/src/v0.8/shared/access/ConfirmedOwnerWithProposal.sol\":1918:1939  msg.sender == s_owner */\n      0xffffffffffffffffffffffffffffffffffffffff\n      and\n      eq\n        /* \"@chainlink/contracts/src/v0.8/shared/access/ConfirmedOwnerWithProposal.sol\":1910:1966  require(msg.sender == s_owner, \"Only callable by owner\") */\n      tag_253\n      jumpi\n      mload(0x40)\n      0x08c379a000000000000000000000000000000000000000000000000000000000\n      dup2\n      mstore\n      0x04\n      add\n      tag_254\n      swap1\n      tag_255\n      jump\t// in\n    tag_254:\n      mload(0x40)\n      dup1\n      swap2\n      sub\n      swap1\n      revert\n    tag_253:\n        /* \"@chainlink/contracts/src/v0.8/shared/access/ConfirmedOwnerWithProposal.sol\":1809:1971  function _validateOwnership() internal view {... */\n      jump\t// out\n        /* \"LuckyDrawVRF.sol\":6236:6529  function fulfillRandomWords(uint256 requestId, uint256[] calldata randomWords) internal override {... */\n    tag_159:\n        /* \"LuckyDrawVRF.sol\":6343:6373  VrfRequestToRandom storage req */\n      0x00\n        /* \"LuckyDrawVRF.sol\":6375:6385  requestMap */\n      0x09\n        /* \"LuckyDrawVRF.sol\":6375:6396  requestMap[requestId] */\n      0x00\n        /* \"LuckyDrawVRF.sol\":6386:6395  requestId */\n      dup6\n        /* \"LuckyDrawVRF.sol\":6375:6396  requestMap[requestId] */\n      dup2\n      mstore\n      0x20\n      add\n      swap1\n      dup2\n      mstore\n      0x20\n      add\n      0x00\n      keccak256\n        /* \"LuckyDrawVRF.sol\":6343:6396  VrfRequestToRandom storage req= requestMap[requestId] */\n      swap1\n      pop\n        /* \"LuckyDrawVRF.sol\":6426:6427  0 */\n      0x00\n        /* \"LuckyDrawVRF.sol\":6414:6417  req */\n      dup2\n        /* \"LuckyDrawVRF.sol\":6414:6425  req.luckyId */\n      0x01\n      add\n      sload\n        /* \"LuckyDrawVRF.sol\":6414:6427  req.luckyId>0 */\n      gt\n        /* \"LuckyDrawVRF.sol\":6406:6446  require(req.luckyId>0, \"not exist task\") */\n      tag_257\n      jumpi\n      mload(0x40)\n      0x08c379a000000000000000000000000000000000000000000000000000000000\n      dup2\n      mstore\n      0x04\n      add\n      tag_258\n      swap1\n      tag_107\n      jump\t// in\n    tag_258:\n      mload(0x40)\n      dup1\n      swap2\n      sub\n      swap1\n      revert\n    tag_257:\n        /* \"LuckyDrawVRF.sol\":6456:6474  uint256 randomness */\n      0x00\n        /* \"LuckyDrawVRF.sol\":6477:6488  randomWords */\n      dup4\n      dup4\n        /* \"LuckyDrawVRF.sol\":6489:6490  0 */\n      0x00\n        /* \"LuckyDrawVRF.sol\":6477:6491  randomWords[0] */\n      dup2\n      dup2\n      lt\n      tag_259\n      jumpi\n      tag_260\n      tag_121\n      jump\t// in\n    tag_260:\n    tag_259:\n      swap1\n      pop\n      0x20\n      mul\n      add\n      calldataload\n        /* \"LuckyDrawVRF.sol\":6456:6491  uint256 randomness = randomWords[0] */\n      swap1\n      pop\n        /* \"LuckyDrawVRF.sol\":6512:6522  randomness */\n      dup1\n        /* \"LuckyDrawVRF.sol\":6501:6504  req */\n      dup3\n        /* \"LuckyDrawVRF.sol\":6501:6511  req.random */\n      0x00\n      add\n        /* \"LuckyDrawVRF.sol\":6501:6522  req.random=randomness */\n      dup2\n      swap1\n      sstore\n      pop\n        /* \"LuckyDrawVRF.sol\":6333:6529  {... */\n      pop\n      pop\n        /* \"LuckyDrawVRF.sol\":6236:6529  function fulfillRandomWords(uint256 requestId, uint256[] calldata randomWords) internal override {... */\n      pop\n      pop\n      pop\n      jump\t// out\n        /* \"@chainlink/contracts/src/v0.8/vrf/dev/libraries/VRFV2PlusClient.sol\":475:638  function _argsToBytes(ExtraArgsV1 memory extraArgs) internal pure returns (bytes memory bts) {... */\n    tag_191:\n        /* \"@chainlink/contracts/src/v0.8/vrf/dev/libraries/VRFV2PlusClient.sol\":550:566  bytes memory bts */\n      0x60\n        /* \"@chainlink/contracts/src/v0.8/vrf/dev/libraries/VRFV2PlusClient.sol\":211:239  keccak256(\"VRF ExtraArgsV1\") */\n      0x92fd13387c7fe7befbc38d303d6468778fb9731bc4583f17d92989c6fcfdeaaa\n        /* \"@chainlink/contracts/src/v0.8/vrf/dev/libraries/VRFV2PlusClient.sol\":623:632  extraArgs */\n      dup3\n        /* \"@chainlink/contracts/src/v0.8/vrf/dev/libraries/VRFV2PlusClient.sol\":581:633  abi.encodeWithSelector(EXTRA_ARGS_V1_TAG, extraArgs) */\n      add(0x24, mload(0x40))\n      tag_262\n      swap2\n      swap1\n      tag_263\n      jump\t// in\n    tag_262:\n      mload(0x40)\n      0x20\n      dup2\n      dup4\n      sub\n      sub\n      dup2\n      mstore\n      swap1\n      0x40\n      mstore\n      swap1\n      not(0xffffffffffffffffffffffffffffffffffffffffffffffffffffffff)\n      and\n      0x20\n      dup3\n      add\n      dup1\n      mload\n      0xffffffffffffffffffffffffffffffffffffffffffffffffffffffff\n      dup4\n      dup2\n      dup4\n      and\n      or\n      dup4\n      mstore\n      pop\n      pop\n      pop\n      pop\n        /* \"@chainlink/contracts/src/v0.8/vrf/dev/libraries/VRFV2PlusClient.sol\":574:633  return abi.encodeWithSelector(EXTRA_ARGS_V1_TAG, extraArgs) */\n      swap1\n      pop\n        /* \"@chainlink/contracts/src/v0.8/vrf/dev/libraries/VRFV2PlusClient.sol\":475:638  function _argsToBytes(ExtraArgsV1 memory extraArgs) internal pure returns (bytes memory bts) {... */\n      swap2\n      swap1\n      pop\n      jump\t// out\n        /* \"@chainlink/contracts/src/v0.8/shared/access/ConfirmedOwnerWithProposal.sol\":1536:1775  function _transferOwnership(address to) private {... */\n    tag_241:\n        /* \"@chainlink/contracts/src/v0.8/shared/access/ConfirmedOwnerWithProposal.sol\":1655:1665  msg.sender */\n      caller\n        /* \"@chainlink/contracts/src/v0.8/shared/access/ConfirmedOwnerWithProposal.sol\":1649:1665  to != msg.sender */\n      0xffffffffffffffffffffffffffffffffffffffff\n      and\n        /* \"@chainlink/contracts/src/v0.8/shared/access/ConfirmedOwnerWithProposal.sol\":1649:1651  to */\n      dup2\n        /* \"@chainlink/contracts/src/v0.8/shared/access/ConfirmedOwnerWithProposal.sol\":1649:1665  to != msg.sender */\n      0xffffffffffffffffffffffffffffffffffffffff\n      and\n      sub\n        /* \"@chainlink/contracts/src/v0.8/shared/access/ConfirmedOwnerWithProposal.sol\":1641:1693  require(to != msg.sender, \"Cannot transfer to self\") */\n      tag_265\n      jumpi\n      mload(0x40)\n      0x08c379a000000000000000000000000000000000000000000000000000000000\n      dup2\n      mstore\n      0x04\n      add\n      tag_266\n      swap1\n      tag_267\n      jump\t// in\n    tag_266:\n      mload(0x40)\n      dup1\n      swap2\n      sub\n      swap1\n      revert\n    tag_265:\n        /* \"@chainlink/contracts/src/v0.8/shared/access/ConfirmedOwnerWithProposal.sol\":1717:1719  to */\n      dup1\n        /* \"@chainlink/contracts/src/v0.8/shared/access/ConfirmedOwnerWithProposal.sol\":1700:1714  s_pendingOwner */\n      0x01\n      0x00\n        /* \"@chainlink/contracts/src/v0.8/shared/access/ConfirmedOwnerWithProposal.sol\":1700:1719  s_pendingOwner = to */\n      0x0100\n      exp\n      dup2\n      sload\n      dup2\n      0xffffffffffffffffffffffffffffffffffffffff\n      mul\n      not\n      and\n      swap1\n      dup4\n      0xffffffffffffffffffffffffffffffffffffffff\n      and\n      mul\n      or\n      swap1\n      sstore\n      pop\n        /* \"@chainlink/contracts/src/v0.8/shared/access/ConfirmedOwnerWithProposal.sol\":1767:1769  to */\n      dup1\n        /* \"@chainlink/contracts/src/v0.8/shared/access/ConfirmedOwnerWithProposal.sol\":1731:1770  OwnershipTransferRequested(s_owner, to) */\n      0xffffffffffffffffffffffffffffffffffffffff\n      and\n        /* \"@chainlink/contracts/src/v0.8/shared/access/ConfirmedOwnerWithProposal.sol\":1758:1765  s_owner */\n      0x00\n      0x00\n      swap1\n      sload\n      swap1\n      0x0100\n      exp\n      swap1\n      div\n      0xffffffffffffffffffffffffffffffffffffffff\n      and\n        /* \"@chainlink/contracts/src/v0.8/shared/access/ConfirmedOwnerWithProposal.sol\":1731:1770  OwnershipTransferRequested(s_owner, to) */\n      0xffffffffffffffffffffffffffffffffffffffff\n      and\n      0xed8889f560326eb138920d842192f0eb3dd22b4f139c87a2c57538e05bae1278\n      mload(0x40)\n      mload(0x40)\n      dup1\n      swap2\n      sub\n      swap1\n      log3\n        /* \"@chainlink/contracts/src/v0.8/shared/access/ConfirmedOwnerWithProposal.sol\":1536:1775  function _transferOwnership(address to) private {... */\n      pop\n      jump\t// out\n        /* \"#utility.yul\":88:205   */\n    tag_269:\n        /* \"#utility.yul\":197:198   */\n      0x00\n        /* \"#utility.yul\":194:195   */\n      0x00\n        /* \"#utility.yul\":187:199   */\n      revert\n        /* \"#utility.yul\":211:328   */\n    tag_270:\n        /* \"#utility.yul\":320:321   */\n      0x00\n        /* \"#utility.yul\":317:318   */\n      0x00\n        /* \"#utility.yul\":310:322   */\n      revert\n        /* \"#utility.yul\":334:411   */\n    tag_271:\n        /* \"#utility.yul\":371:378   */\n      0x00\n        /* \"#utility.yul\":400:405   */\n      dup2\n        /* \"#utility.yul\":389:405   */\n      swap1\n      pop\n        /* \"#utility.yul\":334:411   */\n      swap2\n      swap1\n      pop\n      jump\t// out\n        /* \"#utility.yul\":417:539   */\n    tag_272:\n        /* \"#utility.yul\":490:514   */\n      tag_367\n        /* \"#utility.yul\":508:513   */\n      dup2\n        /* \"#utility.yul\":490:514   */\n      tag_271\n      jump\t// in\n    tag_367:\n        /* \"#utility.yul\":483:488   */\n      dup2\n        /* \"#utility.yul\":480:515   */\n      eq\n        /* \"#utility.yul\":470:533   */\n      tag_368\n      jumpi\n        /* \"#utility.yul\":529:530   */\n      0x00\n        /* \"#utility.yul\":526:527   */\n      0x00\n        /* \"#utility.yul\":519:531   */\n      revert\n        /* \"#utility.yul\":470:533   */\n    tag_368:\n        /* \"#utility.yul\":417:539   */\n      pop\n      jump\t// out\n        /* \"#utility.yul\":545:684   */\n    tag_273:\n        /* \"#utility.yul\":591:596   */\n      0x00\n        /* \"#utility.yul\":629:635   */\n      dup2\n        /* \"#utility.yul\":616:636   */\n      calldataload\n        /* \"#utility.yul\":607:636   */\n      swap1\n      pop\n        /* \"#utility.yul\":645:678   */\n      tag_370\n        /* \"#utility.yul\":672:677   */\n      dup2\n        /* \"#utility.yul\":645:678   */\n      tag_272\n      jump\t// in\n    tag_370:\n        /* \"#utility.yul\":545:684   */\n      swap3\n      swap2\n      pop\n      pop\n      jump\t// out\n        /* \"#utility.yul\":690:1019   */\n    tag_26:\n        /* \"#utility.yul\":749:755   */\n      0x00\n        /* \"#utility.yul\":798:800   */\n      0x20\n        /* \"#utility.yul\":786:795   */\n      dup3\n        /* \"#utility.yul\":777:784   */\n      dup5\n        /* \"#utility.yul\":773:796   */\n      sub\n        /* \"#utility.yul\":769:801   */\n      slt\n        /* \"#utility.yul\":766:885   */\n      iszero\n      tag_372\n      jumpi\n        /* \"#utility.yul\":804:883   */\n      tag_373\n      tag_269\n      jump\t// in\n    tag_373:\n        /* \"#utility.yul\":766:885   */\n    tag_372:\n        /* \"#utility.yul\":924:925   */\n      0x00\n        /* \"#utility.yul\":949:1002   */\n      tag_374\n        /* \"#utility.yul\":994:1001   */\n      dup5\n        /* \"#utility.yul\":985:991   */\n      dup3\n        /* \"#utility.yul\":974:983   */\n      dup6\n        /* \"#utility.yul\":970:992   */\n      add\n        /* \"#utility.yul\":949:1002   */\n      tag_273\n      jump\t// in\n    tag_374:\n        /* \"#utility.yul\":939:1002   */\n      swap2\n      pop\n        /* \"#utility.yul\":895:1012   */\n      pop\n        /* \"#utility.yul\":690:1019   */\n      swap3\n      swap2\n      pop\n      pop\n      jump\t// out\n        /* \"#utility.yul\":1025:1143   */\n    tag_274:\n        /* \"#utility.yul\":1112:1136   */\n      tag_376\n        /* \"#utility.yul\":1130:1135   */\n      dup2\n        /* \"#utility.yul\":1112:1136   */\n      tag_271\n      jump\t// in\n    tag_376:\n        /* \"#utility.yul\":1107:1110   */\n      dup3\n        /* \"#utility.yul\":1100:1137   */\n      mstore\n        /* \"#utility.yul\":1025:1143   */\n      pop\n      pop\n      jump\t// out\n        /* \"#utility.yul\":1149:1481   */\n    tag_35:\n        /* \"#utility.yul\":1270:1274   */\n      0x00\n        /* \"#utility.yul\":1308:1310   */\n      0x40\n        /* \"#utility.yul\":1297:1306   */\n      dup3\n        /* \"#utility.yul\":1293:1311   */\n      add\n        /* \"#utility.yul\":1285:1311   */\n      swap1\n      pop\n        /* \"#utility.yul\":1321:1392   */\n      tag_378\n        /* \"#utility.yul\":1389:1390   */\n      0x00\n        /* \"#utility.yul\":1378:1387   */\n      dup4\n        /* \"#utility.yul\":1374:1391   */\n      add\n        /* \"#utility.yul\":1365:1371   */\n      dup6\n        /* \"#utility.yul\":1321:1392   */\n      tag_274\n      jump\t// in\n    tag_378:\n        /* \"#utility.yul\":1402:1474   */\n      tag_379\n        /* \"#utility.yul\":1470:1472   */\n      0x20\n        /* \"#utility.yul\":1459:1468   */\n      dup4\n        /* \"#utility.yul\":1455:1473   */\n      add\n        /* \"#utility.yul\":1446:1452   */\n      dup5\n        /* \"#utility.yul\":1402:1474   */\n      tag_274\n      jump\t// in\n    tag_379:\n        /* \"#utility.yul\":1149:1481   */\n      swap4\n      swap3\n      pop\n      pop\n      pop\n      jump\t// out\n        /* \"#utility.yul\":1487:1604   */\n    tag_275:\n        /* \"#utility.yul\":1596:1597   */\n      0x00\n        /* \"#utility.yul\":1593:1594   */\n      0x00\n        /* \"#utility.yul\":1586:1598   */\n      revert\n        /* \"#utility.yul\":1610:1727   */\n    tag_276:\n        /* \"#utility.yul\":1719:1720   */\n      0x00\n        /* \"#utility.yul\":1716:1717   */\n      0x00\n        /* \"#utility.yul\":1709:1721   */\n      revert\n        /* \"#utility.yul\":1733:1850   */\n    tag_277:\n        /* \"#utility.yul\":1842:1843   */\n      0x00\n        /* \"#utility.yul\":1839:1840   */\n      0x00\n        /* \"#utility.yul\":1832:1844   */\n      revert\n        /* \"#utility.yul\":1873:2441   */\n    tag_278:\n        /* \"#utility.yul\":1946:1954   */\n      0x00\n        /* \"#utility.yul\":1956:1962   */\n      0x00\n        /* \"#utility.yul\":2006:2009   */\n      dup4\n        /* \"#utility.yul\":1999:2003   */\n      0x1f\n        /* \"#utility.yul\":1991:1997   */\n      dup5\n        /* \"#utility.yul\":1987:2004   */\n      add\n        /* \"#utility.yul\":1983:2010   */\n      slt\n        /* \"#utility.yul\":1973:2095   */\n      tag_384\n      jumpi\n        /* \"#utility.yul\":2014:2093   */\n      tag_385\n      tag_275\n      jump\t// in\n    tag_385:\n        /* \"#utility.yul\":1973:2095   */\n    tag_384:\n        /* \"#utility.yul\":2127:2133   */\n      dup3\n        /* \"#utility.yul\":2114:2134   */\n      calldataload\n        /* \"#utility.yul\":2104:2134   */\n      swap1\n      pop\n        /* \"#utility.yul\":2157:2175   */\n      0xffffffffffffffff\n        /* \"#utility.yul\":2149:2155   */\n      dup2\n        /* \"#utility.yul\":2146:2176   */\n      gt\n        /* \"#utility.yul\":2143:2260   */\n      iszero\n      tag_386\n      jumpi\n        /* \"#utility.yul\":2179:2258   */\n      tag_387\n      tag_276\n      jump\t// in\n    tag_387:\n        /* \"#utility.yul\":2143:2260   */\n    tag_386:\n        /* \"#utility.yul\":2293:2297   */\n      0x20\n        /* \"#utility.yul\":2285:2291   */\n      dup4\n        /* \"#utility.yul\":2281:2298   */\n      add\n        /* \"#utility.yul\":2269:2298   */\n      swap2\n      pop\n        /* \"#utility.yul\":2347:2350   */\n      dup4\n        /* \"#utility.yul\":2339:2343   */\n      0x20\n        /* \"#utility.yul\":2331:2337   */\n      dup3\n        /* \"#utility.yul\":2327:2344   */\n      mul\n        /* \"#utility.yul\":2317:2325   */\n      dup4\n        /* \"#utility.yul\":2313:2345   */\n      add\n        /* \"#utility.yul\":2310:2351   */\n      gt\n        /* \"#utility.yul\":2307:2435   */\n      iszero\n      tag_388\n      jumpi\n        /* \"#utility.yul\":2354:2433   */\n      tag_389\n      tag_277\n      jump\t// in\n    tag_389:\n        /* \"#utility.yul\":2307:2435   */\n    tag_388:\n        /* \"#utility.yul\":1873:2441   */\n      swap3\n      pop\n      swap3\n      swap1\n      pop\n      jump\t// out\n        /* \"#utility.yul\":2447:3151   */\n    tag_39:\n        /* \"#utility.yul\":2542:2548   */\n      0x00\n        /* \"#utility.yul\":2550:2556   */\n      0x00\n        /* \"#utility.yul\":2558:2564   */\n      0x00\n        /* \"#utility.yul\":2607:2609   */\n      0x40\n        /* \"#utility.yul\":2595:2604   */\n      dup5\n        /* \"#utility.yul\":2586:2593   */\n      dup7\n        /* \"#utility.yul\":2582:2605   */\n      sub\n        /* \"#utility.yul\":2578:2610   */\n      slt\n        /* \"#utility.yul\":2575:2694   */\n      iszero\n      tag_391\n      jumpi\n        /* \"#utility.yul\":2613:2692   */\n      tag_392\n      tag_269\n      jump\t// in\n    tag_392:\n        /* \"#utility.yul\":2575:2694   */\n    tag_391:\n        /* \"#utility.yul\":2733:2734   */\n      0x00\n        /* \"#utility.yul\":2758:2811   */\n      tag_393\n        /* \"#utility.yul\":2803:2810   */\n      dup7\n        /* \"#utility.yul\":2794:2800   */\n      dup3\n        /* \"#utility.yul\":2783:2792   */\n      dup8\n        /* \"#utility.yul\":2779:2801   */\n      add\n        /* \"#utility.yul\":2758:2811   */\n      tag_273\n      jump\t// in\n    tag_393:\n        /* \"#utility.yul\":2748:2811   */\n      swap4\n      pop\n        /* \"#utility.yul\":2704:2821   */\n      pop\n        /* \"#utility.yul\":2888:2890   */\n      0x20\n        /* \"#utility.yul\":2877:2886   */\n      dup5\n        /* \"#utility.yul\":2873:2891   */\n      add\n        /* \"#utility.yul\":2860:2892   */\n      calldataload\n        /* \"#utility.yul\":2919:2937   */\n      0xffffffffffffffff\n        /* \"#utility.yul\":2911:2917   */\n      dup2\n        /* \"#utility.yul\":2908:2938   */\n      gt\n        /* \"#utility.yul\":2905:3022   */\n      iszero\n      tag_394\n      jumpi\n        /* \"#utility.yul\":2941:3020   */\n      tag_395\n      tag_270\n      jump\t// in\n    tag_395:\n        /* \"#utility.yul\":2905:3022   */\n    tag_394:\n        /* \"#utility.yul\":3054:3134   */\n      tag_396\n        /* \"#utility.yul\":3126:3133   */\n      dup7\n        /* \"#utility.yul\":3117:3123   */\n      dup3\n        /* \"#utility.yul\":3106:3115   */\n      dup8\n        /* \"#utility.yul\":3102:3124   */\n      add\n        /* \"#utility.yul\":3054:3134   */\n      tag_278\n      jump\t// in\n    tag_396:\n        /* \"#utility.yul\":3036:3134   */\n      swap3\n      pop\n      swap3\n      pop\n        /* \"#utility.yul\":2831:3144   */\n      pop\n        /* \"#utility.yul\":2447:3151   */\n      swap3\n      pop\n      swap3\n      pop\n      swap3\n      jump\t// out\n        /* \"#utility.yul\":3157:3379   */\n    tag_45:\n        /* \"#utility.yul\":3250:3254   */\n      0x00\n        /* \"#utility.yul\":3288:3290   */\n      0x20\n        /* \"#utility.yul\":3277:3286   */\n      dup3\n        /* \"#utility.yul\":3273:3291   */\n      add\n        /* \"#utility.yul\":3265:3291   */\n      swap1\n      pop\n        /* \"#utility.yul\":3301:3372   */\n      tag_398\n        /* \"#utility.yul\":3369:3370   */\n      0x00\n        /* \"#utility.yul\":3358:3367   */\n      dup4\n        /* \"#utility.yul\":3354:3371   */\n      add\n        /* \"#utility.yul\":3345:3351   */\n      dup5\n        /* \"#utility.yul\":3301:3372   */\n      tag_274\n      jump\t// in\n    tag_398:\n        /* \"#utility.yul\":3157:3379   */\n      swap3\n      swap2\n      pop\n      pop\n      jump\t// out\n        /* \"#utility.yul\":3385:3511   */\n    tag_279:\n        /* \"#utility.yul\":3422:3429   */\n      0x00\n        /* \"#utility.yul\":3462:3504   */\n      0xffffffffffffffffffffffffffffffffffffffff\n        /* \"#utility.yul\":3455:3460   */\n      dup3\n        /* \"#utility.yul\":3451:3505   */\n      and\n        /* \"#utility.yul\":3440:3505   */\n      swap1\n      pop\n        /* \"#utility.yul\":3385:3511   */\n      swap2\n      swap1\n      pop\n      jump\t// out\n        /* \"#utility.yul\":3517:3613   */\n    tag_280:\n        /* \"#utility.yul\":3554:3561   */\n      0x00\n        /* \"#utility.yul\":3583:3607   */\n      tag_401\n        /* \"#utility.yul\":3601:3606   */\n      dup3\n        /* \"#utility.yul\":3583:3607   */\n      tag_279\n      jump\t// in\n    tag_401:\n        /* \"#utility.yul\":3572:3607   */\n      swap1\n      pop\n        /* \"#utility.yul\":3517:3613   */\n      swap2\n      swap1\n      pop\n      jump\t// out\n        /* \"#utility.yul\":3619:3737   */\n    tag_281:\n        /* \"#utility.yul\":3706:3730   */\n      tag_403\n        /* \"#utility.yul\":3724:3729   */\n      dup2\n        /* \"#utility.yul\":3706:3730   */\n      tag_280\n      jump\t// in\n    tag_403:\n        /* \"#utility.yul\":3701:3704   */\n      dup3\n        /* \"#utility.yul\":3694:3731   */\n      mstore\n        /* \"#utility.yul\":3619:3737   */\n      pop\n      pop\n      jump\t// out\n        /* \"#utility.yul\":3743:3833   */\n    tag_282:\n        /* \"#utility.yul\":3777:3784   */\n      0x00\n        /* \"#utility.yul\":3820:3825   */\n      dup2\n        /* \"#utility.yul\":3813:3826   */\n      iszero\n        /* \"#utility.yul\":3806:3827   */\n      iszero\n        /* \"#utility.yul\":3795:3827   */\n      swap1\n      pop\n        /* \"#utility.yul\":3743:3833   */\n      swap2\n      swap1\n      pop\n      jump\t// out\n        /* \"#utility.yul\":3839:3948   */\n    tag_283:\n        /* \"#utility.yul\":3920:3941   */\n      tag_406\n        /* \"#utility.yul\":3935:3940   */\n      dup2\n        /* \"#utility.yul\":3920:3941   */\n      tag_282\n      jump\t// in\n    tag_406:\n        /* \"#utility.yul\":3915:3918   */\n      dup3\n        /* \"#utility.yul\":3908:3942   */\n      mstore\n        /* \"#utility.yul\":3839:3948   */\n      pop\n      pop\n      jump\t// out\n        /* \"#utility.yul\":3954:4939   */\n    tag_51:\n        /* \"#utility.yul\":4237:4241   */\n      0x00\n        /* \"#utility.yul\":4275:4278   */\n      0x0100\n        /* \"#utility.yul\":4264:4273   */\n      dup3\n        /* \"#utility.yul\":4260:4279   */\n      add\n        /* \"#utility.yul\":4252:4279   */\n      swap1\n      pop\n        /* \"#utility.yul\":4289:4360   */\n      tag_408\n        /* \"#utility.yul\":4357:4358   */\n      0x00\n        /* \"#utility.yul\":4346:4355   */\n      dup4\n        /* \"#utility.yul\":4342:4359   */\n      add\n        /* \"#utility.yul\":4333:4339   */\n      dup12\n        /* \"#utility.yul\":4289:4360   */\n      tag_274\n      jump\t// in\n    tag_408:\n        /* \"#utility.yul\":4370:4442   */\n      tag_409\n        /* \"#utility.yul\":4438:4440   */\n      0x20\n        /* \"#utility.yul\":4427:4436   */\n      dup4\n        /* \"#utility.yul\":4423:4441   */\n      add\n        /* \"#utility.yul\":4414:4420   */\n      dup11\n        /* \"#utility.yul\":4370:4442   */\n      tag_274\n      jump\t// in\n    tag_409:\n        /* \"#utility.yul\":4452:4524   */\n      tag_410\n        /* \"#utility.yul\":4520:4522   */\n      0x40\n        /* \"#utility.yul\":4509:4518   */\n      dup4\n        /* \"#utility.yul\":4505:4523   */\n      add\n        /* \"#utility.yul\":4496:4502   */\n      dup10\n        /* \"#utility.yul\":4452:4524   */\n      tag_274\n      jump\t// in\n    tag_410:\n        /* \"#utility.yul\":4534:4606   */\n      tag_411\n        /* \"#utility.yul\":4602:4604   */\n      0x60\n        /* \"#utility.yul\":4591:4600   */\n      dup4\n        /* \"#utility.yul\":4587:4605   */\n      add\n        /* \"#utility.yul\":4578:4584   */\n      dup9\n        /* \"#utility.yul\":4534:4606   */\n      tag_281\n      jump\t// in\n    tag_411:\n        /* \"#utility.yul\":4616:4689   */\n      tag_412\n        /* \"#utility.yul\":4684:4687   */\n      0x80\n        /* \"#utility.yul\":4673:4682   */\n      dup4\n        /* \"#utility.yul\":4669:4688   */\n      add\n        /* \"#utility.yul\":4660:4666   */\n      dup8\n        /* \"#utility.yul\":4616:4689   */\n      tag_281\n      jump\t// in\n    tag_412:\n        /* \"#utility.yul\":4699:4772   */\n      tag_413\n        /* \"#utility.yul\":4767:4770   */\n      0xa0\n        /* \"#utility.yul\":4756:4765   */\n      dup4\n        /* \"#utility.yul\":4752:4771   */\n      add\n        /* \"#utility.yul\":4743:4749   */\n      dup7\n        /* \"#utility.yul\":4699:4772   */\n      tag_274\n      jump\t// in\n    tag_413:\n        /* \"#utility.yul\":4782:4849   */\n      tag_414\n        /* \"#utility.yul\":4844:4847   */\n      0xc0\n        /* \"#utility.yul\":4833:4842   */\n      dup4\n        /* \"#utility.yul\":4829:4848   */\n      add\n        /* \"#utility.yul\":4820:4826   */\n      dup6\n        /* \"#utility.yul\":4782:4849   */\n      tag_283\n      jump\t// in\n    tag_414:\n        /* \"#utility.yul\":4859:4932   */\n      tag_415\n        /* \"#utility.yul\":4927:4930   */\n      0xe0\n        /* \"#utility.yul\":4916:4925   */\n      dup4\n        /* \"#utility.yul\":4912:4931   */\n      add\n        /* \"#utility.yul\":4903:4909   */\n      dup5\n        /* \"#utility.yul\":4859:4932   */\n      tag_274\n      jump\t// in\n    tag_415:\n        /* \"#utility.yul\":3954:4939   */\n      swap10\n      swap9\n      pop\n      pop\n      pop\n      pop\n      pop\n      pop\n      pop\n      pop\n      pop\n      jump\t// out\n        /* \"#utility.yul\":4945:5167   */\n    tag_67:\n        /* \"#utility.yul\":5038:5042   */\n      0x00\n        /* \"#utility.yul\":5076:5078   */\n      0x20\n        /* \"#utility.yul\":5065:5074   */\n      dup3\n        /* \"#utility.yul\":5061:5079   */\n      add\n        /* \"#utility.yul\":5053:5079   */\n      swap1\n      pop\n        /* \"#utility.yul\":5089:5160   */\n      tag_417\n        /* \"#utility.yul\":5157:5158   */\n      0x00\n        /* \"#utility.yul\":5146:5155   */\n      dup4\n        /* \"#utility.yul\":5142:5159   */\n      add\n        /* \"#utility.yul\":5133:5139   */\n      dup5\n        /* \"#utility.yul\":5089:5160   */\n      tag_281\n      jump\t// in\n    tag_417:\n        /* \"#utility.yul\":4945:5167   */\n      swap3\n      swap2\n      pop\n      pop\n      jump\t// out\n        /* \"#utility.yul\":5173:5295   */\n    tag_284:\n        /* \"#utility.yul\":5246:5270   */\n      tag_419\n        /* \"#utility.yul\":5264:5269   */\n      dup2\n        /* \"#utility.yul\":5246:5270   */\n      tag_280\n      jump\t// in\n    tag_419:\n        /* \"#utility.yul\":5239:5244   */\n      dup2\n        /* \"#utility.yul\":5236:5271   */\n      eq\n        /* \"#utility.yul\":5226:5289   */\n      tag_420\n      jumpi\n        /* \"#utility.yul\":5285:5286   */\n      0x00\n        /* \"#utility.yul\":5282:5283   */\n      0x00\n        /* \"#utility.yul\":5275:5287   */\n      revert\n        /* \"#utility.yul\":5226:5289   */\n    tag_420:\n        /* \"#utility.yul\":5173:5295   */\n      pop\n      jump\t// out\n        /* \"#utility.yul\":5301:5440   */\n    tag_285:\n        /* \"#utility.yul\":5347:5352   */\n      0x00\n        /* \"#utility.yul\":5385:5391   */\n      dup2\n        /* \"#utility.yul\":5372:5392   */\n      calldataload\n        /* \"#utility.yul\":5363:5392   */\n      swap1\n      pop\n        /* \"#utility.yul\":5401:5434   */\n      tag_422\n        /* \"#utility.yul\":5428:5433   */\n      dup2\n        /* \"#utility.yul\":5401:5434   */\n      tag_284\n      jump\t// in\n    tag_422:\n        /* \"#utility.yul\":5301:5440   */\n      swap3\n      swap2\n      pop\n      pop\n      jump\t// out\n        /* \"#utility.yul\":5446:5775   */\n    tag_71:\n        /* \"#utility.yul\":5505:5511   */\n      0x00\n        /* \"#utility.yul\":5554:5556   */\n      0x20\n        /* \"#utility.yul\":5542:5551   */\n      dup3\n        /* \"#utility.yul\":5533:5540   */\n      dup5\n        /* \"#utility.yul\":5529:5552   */\n      sub\n        /* \"#utility.yul\":5525:5557   */\n      slt\n        /* \"#utility.yul\":5522:5641   */\n      iszero\n      tag_424\n      jumpi\n        /* \"#utility.yul\":5560:5639   */\n      tag_425\n      tag_269\n      jump\t// in\n    tag_425:\n        /* \"#utility.yul\":5522:5641   */\n    tag_424:\n        /* \"#utility.yul\":5680:5681   */\n      0x00\n        /* \"#utility.yul\":5705:5758   */\n      tag_426\n        /* \"#utility.yul\":5750:5757   */\n      dup5\n        /* \"#utility.yul\":5741:5747   */\n      dup3\n        /* \"#utility.yul\":5730:5739   */\n      dup6\n        /* \"#utility.yul\":5726:5748   */\n      add\n        /* \"#utility.yul\":5705:5758   */\n      tag_285\n      jump\t// in\n    tag_426:\n        /* \"#utility.yul\":5695:5758   */\n      swap2\n      pop\n        /* \"#utility.yul\":5651:5768   */\n      pop\n        /* \"#utility.yul\":5446:5775   */\n      swap3\n      swap2\n      pop\n      pop\n      jump\t// out\n        /* \"#utility.yul\":5781:5841   */\n    tag_286:\n        /* \"#utility.yul\":5809:5812   */\n      0x00\n        /* \"#utility.yul\":5830:5835   */\n      dup2\n        /* \"#utility.yul\":5823:5835   */\n      swap1\n      pop\n        /* \"#utility.yul\":5781:5841   */\n      swap2\n      swap1\n      pop\n      jump\t// out\n        /* \"#utility.yul\":5847:5989   */\n    tag_287:\n        /* \"#utility.yul\":5897:5906   */\n      0x00\n        /* \"#utility.yul\":5930:5983   */\n      tag_429\n        /* \"#utility.yul\":5948:5982   */\n      tag_430\n        /* \"#utility.yul\":5957:5981   */\n      tag_431\n        /* \"#utility.yul\":5975:5980   */\n      dup5\n        /* \"#utility.yul\":5957:5981   */\n      tag_279\n      jump\t// in\n    tag_431:\n        /* \"#utility.yul\":5948:5982   */\n      tag_286\n      jump\t// in\n    tag_430:\n        /* \"#utility.yul\":5930:5983   */\n      tag_279\n      jump\t// in\n    tag_429:\n        /* \"#utility.yul\":5917:5983   */\n      swap1\n      pop\n        /* \"#utility.yul\":5847:5989   */\n      swap2\n      swap1\n      pop\n      jump\t// out\n        /* \"#utility.yul\":5995:6121   */\n    tag_288:\n        /* \"#utility.yul\":6045:6054   */\n      0x00\n        /* \"#utility.yul\":6078:6115   */\n      tag_433\n        /* \"#utility.yul\":6109:6114   */\n      dup3\n        /* \"#utility.yul\":6078:6115   */\n      tag_287\n      jump\t// in\n    tag_433:\n        /* \"#utility.yul\":6065:6115   */\n      swap1\n      pop\n        /* \"#utility.yul\":5995:6121   */\n      swap2\n      swap1\n      pop\n      jump\t// out\n        /* \"#utility.yul\":6127:6282   */\n    tag_289:\n        /* \"#utility.yul\":6206:6215   */\n      0x00\n        /* \"#utility.yul\":6239:6276   */\n      tag_435\n        /* \"#utility.yul\":6270:6275   */\n      dup3\n        /* \"#utility.yul\":6239:6276   */\n      tag_288\n      jump\t// in\n    tag_435:\n        /* \"#utility.yul\":6226:6276   */\n      swap1\n      pop\n        /* \"#utility.yul\":6127:6282   */\n      swap2\n      swap1\n      pop\n      jump\t// out\n        /* \"#utility.yul\":6288:6477   */\n    tag_290:\n        /* \"#utility.yul\":6404:6470   */\n      tag_437\n        /* \"#utility.yul\":6464:6469   */\n      dup2\n        /* \"#utility.yul\":6404:6470   */\n      tag_289\n      jump\t// in\n    tag_437:\n        /* \"#utility.yul\":6399:6402   */\n      dup3\n        /* \"#utility.yul\":6392:6471   */\n      mstore\n        /* \"#utility.yul\":6288:6477   */\n      pop\n      pop\n      jump\t// out\n        /* \"#utility.yul\":6483:6763   */\n    tag_77:\n        /* \"#utility.yul\":6605:6609   */\n      0x00\n        /* \"#utility.yul\":6643:6645   */\n      0x20\n        /* \"#utility.yul\":6632:6641   */\n      dup3\n        /* \"#utility.yul\":6628:6646   */\n      add\n        /* \"#utility.yul\":6620:6646   */\n      swap1\n      pop\n        /* \"#utility.yul\":6656:6756   */\n      tag_439\n        /* \"#utility.yul\":6753:6754   */\n      0x00\n        /* \"#utility.yul\":6742:6751   */\n      dup4\n        /* \"#utility.yul\":6738:6755   */\n      add\n        /* \"#utility.yul\":6729:6735   */\n      dup5\n        /* \"#utility.yul\":6656:6756   */\n      tag_290\n      jump\t// in\n    tag_439:\n        /* \"#utility.yul\":6483:6763   */\n      swap3\n      swap2\n      pop\n      pop\n      jump\t// out\n        /* \"#utility.yul\":6769:7243   */\n    tag_92:\n        /* \"#utility.yul\":6837:6843   */\n      0x00\n        /* \"#utility.yul\":6845:6851   */\n      0x00\n        /* \"#utility.yul\":6894:6896   */\n      0x40\n        /* \"#utility.yul\":6882:6891   */\n      dup4\n        /* \"#utility.yul\":6873:6880   */\n      dup6\n        /* \"#utility.yul\":6869:6892   */\n      sub\n        /* \"#utility.yul\":6865:6897   */\n      slt\n        /* \"#utility.yul\":6862:6981   */\n      iszero\n      tag_441\n      jumpi\n        /* \"#utility.yul\":6900:6979   */\n      tag_442\n      tag_269\n      jump\t// in\n    tag_442:\n        /* \"#utility.yul\":6862:6981   */\n    tag_441:\n        /* \"#utility.yul\":7020:7021   */\n      0x00\n        /* \"#utility.yul\":7045:7098   */\n      tag_443\n        /* \"#utility.yul\":7090:7097   */\n      dup6\n        /* \"#utility.yul\":7081:7087   */\n      dup3\n        /* \"#utility.yul\":7070:7079   */\n      dup7\n        /* \"#utility.yul\":7066:7088   */\n      add\n        /* \"#utility.yul\":7045:7098   */\n      tag_273\n      jump\t// in\n    tag_443:\n        /* \"#utility.yul\":7035:7098   */\n      swap3\n      pop\n        /* \"#utility.yul\":6991:7108   */\n      pop\n        /* \"#utility.yul\":7147:7149   */\n      0x20\n        /* \"#utility.yul\":7173:7226   */\n      tag_444\n        /* \"#utility.yul\":7218:7225   */\n      dup6\n        /* \"#utility.yul\":7209:7215   */\n      dup3\n        /* \"#utility.yul\":7198:7207   */\n      dup7\n        /* \"#utility.yul\":7194:7216   */\n      add\n        /* \"#utility.yul\":7173:7226   */\n      tag_285\n      jump\t// in\n    tag_444:\n        /* \"#utility.yul\":7163:7226   */\n      swap2\n      pop\n        /* \"#utility.yul\":7118:7236   */\n      pop\n        /* \"#utility.yul\":6769:7243   */\n      swap3\n      pop\n      swap3\n      swap1\n      pop\n      jump\t// out\n        /* \"#utility.yul\":7249:7868   */\n    tag_101:\n        /* \"#utility.yul\":7326:7332   */\n      0x00\n        /* \"#utility.yul\":7334:7340   */\n      0x00\n        /* \"#utility.yul\":7342:7348   */\n      0x00\n        /* \"#utility.yul\":7391:7393   */\n      0x60\n        /* \"#utility.yul\":7379:7388   */\n      dup5\n        /* \"#utility.yul\":7370:7377   */\n      dup7\n        /* \"#utility.yul\":7366:7389   */\n      sub\n        /* \"#utility.yul\":7362:7394   */\n      slt\n        /* \"#utility.yul\":7359:7478   */\n      iszero\n      tag_446\n      jumpi\n        /* \"#utility.yul\":7397:7476   */\n      tag_447\n      tag_269\n      jump\t// in\n    tag_447:\n        /* \"#utility.yul\":7359:7478   */\n    tag_446:\n        /* \"#utility.yul\":7517:7518   */\n      0x00\n        /* \"#utility.yul\":7542:7595   */\n      tag_448\n        /* \"#utility.yul\":7587:7594   */\n      dup7\n        /* \"#utility.yul\":7578:7584   */\n      dup3\n        /* \"#utility.yul\":7567:7576   */\n      dup8\n        /* \"#utility.yul\":7563:7585   */\n      add\n        /* \"#utility.yul\":7542:7595   */\n      tag_273\n      jump\t// in\n    tag_448:\n        /* \"#utility.yul\":7532:7595   */\n      swap4\n      pop\n        /* \"#utility.yul\":7488:7605   */\n      pop\n        /* \"#utility.yul\":7644:7646   */\n      0x20\n        /* \"#utility.yul\":7670:7723   */\n      tag_449\n        /* \"#utility.yul\":7715:7722   */\n      dup7\n        /* \"#utility.yul\":7706:7712   */\n      dup3\n        /* \"#utility.yul\":7695:7704   */\n      dup8\n        /* \"#utility.yul\":7691:7713   */\n      add\n        /* \"#utility.yul\":7670:7723   */\n      tag_273\n      jump\t// in\n    tag_449:\n        /* \"#utility.yul\":7660:7723   */\n      swap3\n      pop\n        /* \"#utility.yul\":7615:7733   */\n      pop\n        /* \"#utility.yul\":7772:7774   */\n      0x40\n        /* \"#utility.yul\":7798:7851   */\n      tag_450\n        /* \"#utility.yul\":7843:7850   */\n      dup7\n        /* \"#utility.yul\":7834:7840   */\n      dup3\n        /* \"#utility.yul\":7823:7832   */\n      dup8\n        /* \"#utility.yul\":7819:7841   */\n      add\n        /* \"#utility.yul\":7798:7851   */\n      tag_273\n      jump\t// in\n    tag_450:\n        /* \"#utility.yul\":7788:7851   */\n      swap2\n      pop\n        /* \"#utility.yul\":7743:7861   */\n      pop\n        /* \"#utility.yul\":7249:7868   */\n      swap3\n      pop\n      swap3\n      pop\n      swap3\n      jump\t// out\n        /* \"#utility.yul\":7874:8043   */\n    tag_291:\n        /* \"#utility.yul\":7958:7969   */\n      0x00\n        /* \"#utility.yul\":7992:7998   */\n      dup3\n        /* \"#utility.yul\":7987:7990   */\n      dup3\n        /* \"#utility.yul\":7980:7999   */\n      mstore\n        /* \"#utility.yul\":8032:8036   */\n      0x20\n        /* \"#utility.yul\":8027:8030   */\n      dup3\n        /* \"#utility.yul\":8023:8037   */\n      add\n        /* \"#utility.yul\":8008:8037   */\n      swap1\n      pop\n        /* \"#utility.yul\":7874:8043   */\n      swap3\n      swap2\n      pop\n      pop\n      jump\t// out\n        /* \"#utility.yul\":8049:8213   */\n    tag_292:\n        /* \"#utility.yul\":8189:8205   */\n      0x6e6f74206578697374207461736b000000000000000000000000000000000000\n        /* \"#utility.yul\":8185:8186   */\n      0x00\n        /* \"#utility.yul\":8177:8183   */\n      dup3\n        /* \"#utility.yul\":8173:8187   */\n      add\n        /* \"#utility.yul\":8166:8206   */\n      mstore\n        /* \"#utility.yul\":8049:8213   */\n      pop\n      jump\t// out\n        /* \"#utility.yul\":8219:8585   */\n    tag_293:\n        /* \"#utility.yul\":8361:8364   */\n      0x00\n        /* \"#utility.yul\":8382:8449   */\n      tag_454\n        /* \"#utility.yul\":8446:8448   */\n      0x0e\n        /* \"#utility.yul\":8441:8444   */\n      dup4\n        /* \"#utility.yul\":8382:8449   */\n      tag_291\n      jump\t// in\n    tag_454:\n        /* \"#utility.yul\":8375:8449   */\n      swap2\n      pop\n        /* \"#utility.yul\":8458:8551   */\n      tag_455\n        /* \"#utility.yul\":8547:8550   */\n      dup3\n        /* \"#utility.yul\":8458:8551   */\n      tag_292\n      jump\t// in\n    tag_455:\n        /* \"#utility.yul\":8576:8578   */\n      0x20\n        /* \"#utility.yul\":8571:8574   */\n      dup3\n        /* \"#utility.yul\":8567:8579   */\n      add\n        /* \"#utility.yul\":8560:8579   */\n      swap1\n      pop\n        /* \"#utility.yul\":8219:8585   */\n      swap2\n      swap1\n      pop\n      jump\t// out\n        /* \"#utility.yul\":8591:9010   */\n    tag_107:\n        /* \"#utility.yul\":8757:8761   */\n      0x00\n        /* \"#utility.yul\":8795:8797   */\n      0x20\n        /* \"#utility.yul\":8784:8793   */\n      dup3\n        /* \"#utility.yul\":8780:8798   */\n      add\n        /* \"#utility.yul\":8772:8798   */\n      swap1\n      pop\n        /* \"#utility.yul\":8844:8853   */\n      dup2\n        /* \"#utility.yul\":8838:8842   */\n      dup2\n        /* \"#utility.yul\":8834:8854   */\n      sub\n        /* \"#utility.yul\":8830:8831   */\n      0x00\n        /* \"#utility.yul\":8819:8828   */\n      dup4\n        /* \"#utility.yul\":8815:8832   */\n      add\n        /* \"#utility.yul\":8808:8855   */\n      mstore\n        /* \"#utility.yul\":8872:9003   */\n      tag_457\n        /* \"#utility.yul\":8998:9002   */\n      dup2\n        /* \"#utility.yul\":8872:9003   */\n      tag_293\n      jump\t// in\n    tag_457:\n        /* \"#utility.yul\":8864:9003   */\n      swap1\n      pop\n        /* \"#utility.yul\":8591:9010   */\n      swap2\n      swap1\n      pop\n      jump\t// out\n        /* \"#utility.yul\":9016:9192   */\n    tag_294:\n        /* \"#utility.yul\":9156:9184   */\n      0x706c65617365207072652063616c6c206472617777696e6e6572000000000000\n        /* \"#utility.yul\":9152:9153   */\n      0x00\n        /* \"#utility.yul\":9144:9150   */\n      dup3\n        /* \"#utility.yul\":9140:9154   */\n      add\n        /* \"#utility.yul\":9133:9185   */\n      mstore\n        /* \"#utility.yul\":9016:9192   */\n      pop\n      jump\t// out\n        /* \"#utility.yul\":9198:9564   */\n    tag_295:\n        /* \"#utility.yul\":9340:9343   */\n      0x00\n        /* \"#utility.yul\":9361:9428   */\n      tag_460\n        /* \"#utility.yul\":9425:9427   */\n      0x1a\n        /* \"#utility.yul\":9420:9423   */\n      dup4\n        /* \"#utility.yul\":9361:9428   */\n      tag_291\n      jump\t// in\n    tag_460:\n        /* \"#utility.yul\":9354:9428   */\n      swap2\n      pop\n        /* \"#utility.yul\":9437:9530   */\n      tag_461\n        /* \"#utility.yul\":9526:9529   */\n      dup3\n        /* \"#utility.yul\":9437:9530   */\n      tag_294\n      jump\t// in\n    tag_461:\n        /* \"#utility.yul\":9555:9557   */\n      0x20\n        /* \"#utility.yul\":9550:9553   */\n      dup3\n        /* \"#utility.yul\":9546:9558   */\n      add\n        /* \"#utility.yul\":9539:9558   */\n      swap1\n      pop\n        /* \"#utility.yul\":9198:9564   */\n      swap2\n      swap1\n      pop\n      jump\t// out\n        /* \"#utility.yul\":9570:9989   */\n    tag_110:\n        /* \"#utility.yul\":9736:9740   */\n      0x00\n        /* \"#utility.yul\":9774:9776   */\n      0x20\n        /* \"#utility.yul\":9763:9772   */\n      dup3\n        /* \"#utility.yul\":9759:9777   */\n      add\n        /* \"#utility.yul\":9751:9777   */\n      swap1\n      pop\n        /* \"#utility.yul\":9823:9832   */\n      dup2\n        /* \"#utility.yul\":9817:9821   */\n      dup2\n        /* \"#utility.yul\":9813:9833   */\n      sub\n        /* \"#utility.yul\":9809:9810   */\n      0x00\n        /* \"#utility.yul\":9798:9807   */\n      dup4\n        /* \"#utility.yul\":9794:9811   */\n      add\n        /* \"#utility.yul\":9787:9834   */\n      mstore\n        /* \"#utility.yul\":9851:9982   */\n      tag_463\n        /* \"#utility.yul\":9977:9981   */\n      dup2\n        /* \"#utility.yul\":9851:9982   */\n      tag_295\n      jump\t// in\n    tag_463:\n        /* \"#utility.yul\":9843:9982   */\n      swap1\n      pop\n        /* \"#utility.yul\":9570:9989   */\n      swap2\n      swap1\n      pop\n      jump\t// out\n        /* \"#utility.yul\":9995:10166   */\n    tag_296:\n        /* \"#utility.yul\":10135:10158   */\n      0x63757272656e74207461736b2068617320646f6e650000000000000000000000\n        /* \"#utility.yul\":10131:10132   */\n      0x00\n        /* \"#utility.yul\":10123:10129   */\n      dup3\n        /* \"#utility.yul\":10119:10133   */\n      add\n        /* \"#utility.yul\":10112:10159   */\n      mstore\n        /* \"#utility.yul\":9995:10166   */\n      pop\n      jump\t// out\n        /* \"#utility.yul\":10172:10538   */\n    tag_297:\n        /* \"#utility.yul\":10314:10317   */\n      0x00\n        /* \"#utility.yul\":10335:10402   */\n      tag_466\n        /* \"#utility.yul\":10399:10401   */\n      0x15\n        /* \"#utility.yul\":10394:10397   */\n      dup4\n        /* \"#utility.yul\":10335:10402   */\n      tag_291\n      jump\t// in\n    tag_466:\n        /* \"#utility.yul\":10328:10402   */\n      swap2\n      pop\n        /* \"#utility.yul\":10411:10504   */\n      tag_467\n        /* \"#utility.yul\":10500:10503   */\n      dup3\n        /* \"#utility.yul\":10411:10504   */\n      tag_296\n      jump\t// in\n    tag_467:\n        /* \"#utility.yul\":10529:10531   */\n      0x20\n        /* \"#utility.yul\":10524:10527   */\n      dup3\n        /* \"#utility.yul\":10520:10532   */\n      add\n        /* \"#utility.yul\":10513:10532   */\n      swap1\n      pop\n        /* \"#utility.yul\":10172:10538   */\n      swap2\n      swap1\n      pop\n      jump\t// out\n        /* \"#utility.yul\":10544:10963   */\n    tag_113:\n        /* \"#utility.yul\":10710:10714   */\n      0x00\n        /* \"#utility.yul\":10748:10750   */\n      0x20\n        /* \"#utility.yul\":10737:10746   */\n      dup3\n        /* \"#utility.yul\":10733:10751   */\n      add\n        /* \"#utility.yul\":10725:10751   */\n      swap1\n      pop\n        /* \"#utility.yul\":10797:10806   */\n      dup2\n        /* \"#utility.yul\":10791:10795   */\n      dup2\n        /* \"#utility.yul\":10787:10807   */\n      sub\n        /* \"#utility.yul\":10783:10784   */\n      0x00\n        /* \"#utility.yul\":10772:10781   */\n      dup4\n        /* \"#utility.yul\":10768:10785   */\n      add\n        /* \"#utility.yul\":10761:10808   */\n      mstore\n        /* \"#utility.yul\":10825:10956   */\n      tag_469\n        /* \"#utility.yul\":10951:10955   */\n      dup2\n        /* \"#utility.yul\":10825:10956   */\n      tag_297\n      jump\t// in\n    tag_469:\n        /* \"#utility.yul\":10817:10956   */\n      swap1\n      pop\n        /* \"#utility.yul\":10544:10963   */\n      swap2\n      swap1\n      pop\n      jump\t// out\n        /* \"#utility.yul\":10969:11134   */\n    tag_298:\n        /* \"#utility.yul\":11109:11126   */\n      0x4e6f207061727469636970616e74730000000000000000000000000000000000\n        /* \"#utility.yul\":11105:11106   */\n      0x00\n        /* \"#utility.yul\":11097:11103   */\n      dup3\n        /* \"#utility.yul\":11093:11107   */\n      add\n        /* \"#utility.yul\":11086:11127   */\n      mstore\n        /* \"#utility.yul\":10969:11134   */\n      pop\n      jump\t// out\n        /* \"#utility.yul\":11140:11506   */\n    tag_299:\n        /* \"#utility.yul\":11282:11285   */\n      0x00\n        /* \"#utility.yul\":11303:11370   */\n      tag_472\n        /* \"#utility.yul\":11367:11369   */\n      0x0f\n        /* \"#utility.yul\":11362:11365   */\n      dup4\n        /* \"#utility.yul\":11303:11370   */\n      tag_291\n      jump\t// in\n    tag_472:\n        /* \"#utility.yul\":11296:11370   */\n      swap2\n      pop\n        /* \"#utility.yul\":11379:11472   */\n      tag_473\n        /* \"#utility.yul\":11468:11471   */\n      dup3\n        /* \"#utility.yul\":11379:11472   */\n      tag_298\n      jump\t// in\n    tag_473:\n        /* \"#utility.yul\":11497:11499   */\n      0x20\n        /* \"#utility.yul\":11492:11495   */\n      dup3\n        /* \"#utility.yul\":11488:11500   */\n      add\n        /* \"#utility.yul\":11481:11500   */\n      swap1\n      pop\n        /* \"#utility.yul\":11140:11506   */\n      swap2\n      swap1\n      pop\n      jump\t// out\n        /* \"#utility.yul\":11512:11931   */\n    tag_116:\n        /* \"#utility.yul\":11678:11682   */\n      0x00\n        /* \"#utility.yul\":11716:11718   */\n      0x20\n        /* \"#utility.yul\":11705:11714   */\n      dup3\n        /* \"#utility.yul\":11701:11719   */\n      add\n        /* \"#utility.yul\":11693:11719   */\n      swap1\n      pop\n        /* \"#utility.yul\":11765:11774   */\n      dup2\n        /* \"#utility.yul\":11759:11763   */\n      dup2\n        /* \"#utility.yul\":11755:11775   */\n      sub\n        /* \"#utility.yul\":11751:11752   */\n      0x00\n        /* \"#utility.yul\":11740:11749   */\n      dup4\n        /* \"#utility.yul\":11736:11753   */\n      add\n        /* \"#utility.yul\":11729:11776   */\n      mstore\n        /* \"#utility.yul\":11793:11924   */\n      tag_475\n        /* \"#utility.yul\":11919:11923   */\n      dup2\n        /* \"#utility.yul\":11793:11924   */\n      tag_299\n      jump\t// in\n    tag_475:\n        /* \"#utility.yul\":11785:11924   */\n      swap1\n      pop\n        /* \"#utility.yul\":11512:11931   */\n      swap2\n      swap1\n      pop\n      jump\t// out\n        /* \"#utility.yul\":11937:12117   */\n    tag_300:\n        /* \"#utility.yul\":11985:12062   */\n      0x4e487b7100000000000000000000000000000000000000000000000000000000\n        /* \"#utility.yul\":11982:11983   */\n      0x00\n        /* \"#utility.yul\":11975:12063   */\n      mstore\n        /* \"#utility.yul\":12082:12086   */\n      0x12\n        /* \"#utility.yul\":12079:12080   */\n      0x04\n        /* \"#utility.yul\":12072:12087   */\n      mstore\n        /* \"#utility.yul\":12106:12110   */\n      0x24\n        /* \"#utility.yul\":12103:12104   */\n      0x00\n        /* \"#utility.yul\":12096:12111   */\n      revert\n        /* \"#utility.yul\":12123:12299   */\n    tag_118:\n        /* \"#utility.yul\":12155:12156   */\n      0x00\n        /* \"#utility.yul\":12172:12192   */\n      tag_478\n        /* \"#utility.yul\":12190:12191   */\n      dup3\n        /* \"#utility.yul\":12172:12192   */\n      tag_271\n      jump\t// in\n    tag_478:\n        /* \"#utility.yul\":12167:12192   */\n      swap2\n      pop\n        /* \"#utility.yul\":12206:12226   */\n      tag_479\n        /* \"#utility.yul\":12224:12225   */\n      dup4\n        /* \"#utility.yul\":12206:12226   */\n      tag_271\n      jump\t// in\n    tag_479:\n        /* \"#utility.yul\":12201:12226   */\n      swap3\n      pop\n        /* \"#utility.yul\":12245:12246   */\n      dup3\n        /* \"#utility.yul\":12235:12270   */\n      tag_480\n      jumpi\n        /* \"#utility.yul\":12250:12268   */\n      tag_481\n      tag_300\n      jump\t// in\n    tag_481:\n        /* \"#utility.yul\":12235:12270   */\n    tag_480:\n        /* \"#utility.yul\":12291:12292   */\n      dup3\n        /* \"#utility.yul\":12288:12289   */\n      dup3\n        /* \"#utility.yul\":12284:12293   */\n      mod\n        /* \"#utility.yul\":12279:12293   */\n      swap1\n      pop\n        /* \"#utility.yul\":12123:12299   */\n      swap3\n      swap2\n      pop\n      pop\n      jump\t// out\n        /* \"#utility.yul\":12305:12485   */\n    tag_121:\n        /* \"#utility.yul\":12353:12430   */\n      0x4e487b7100000000000000000000000000000000000000000000000000000000\n        /* \"#utility.yul\":12350:12351   */\n      0x00\n        /* \"#utility.yul\":12343:12431   */\n      mstore\n        /* \"#utility.yul\":12450:12454   */\n      0x32\n        /* \"#utility.yul\":12447:12448   */\n      0x04\n        /* \"#utility.yul\":12440:12455   */\n      mstore\n        /* \"#utility.yul\":12474:12478   */\n      0x24\n        /* \"#utility.yul\":12471:12472   */\n      0x00\n        /* \"#utility.yul\":12464:12479   */\n      revert\n        /* \"#utility.yul\":12491:12671   */\n    tag_301:\n        /* \"#utility.yul\":12539:12616   */\n      0x4e487b7100000000000000000000000000000000000000000000000000000000\n        /* \"#utility.yul\":12536:12537   */\n      0x00\n        /* \"#utility.yul\":12529:12617   */\n      mstore\n        /* \"#utility.yul\":12636:12640   */\n      0x11\n        /* \"#utility.yul\":12633:12634   */\n      0x04\n        /* \"#utility.yul\":12626:12641   */\n      mstore\n        /* \"#utility.yul\":12660:12664   */\n      0x24\n        /* \"#utility.yul\":12657:12658   */\n      0x00\n        /* \"#utility.yul\":12650:12665   */\n      revert\n        /* \"#utility.yul\":12677:12779   */\n    tag_302:\n        /* \"#utility.yul\":12719:12727   */\n      0x00\n        /* \"#utility.yul\":12766:12771   */\n      dup2\n        /* \"#utility.yul\":12763:12764   */\n      0x01\n        /* \"#utility.yul\":12759:12772   */\n      shr\n        /* \"#utility.yul\":12738:12772   */\n      swap1\n      pop\n        /* \"#utility.yul\":12677:12779   */\n      swap2\n      swap1\n      pop\n      jump\t// out\n        /* \"#utility.yul\":12785:13633   */\n    tag_303:\n        /* \"#utility.yul\":12846:12851   */\n      0x00\n        /* \"#utility.yul\":12853:12857   */\n      0x00\n        /* \"#utility.yul\":12877:12883   */\n      dup3\n        /* \"#utility.yul\":12868:12883   */\n      swap2\n      pop\n        /* \"#utility.yul\":12901:12906   */\n      dup4\n        /* \"#utility.yul\":12892:12906   */\n      swap1\n      pop\n        /* \"#utility.yul\":12915:13627   */\n    tag_486:\n        /* \"#utility.yul\":12936:12937   */\n      0x01\n        /* \"#utility.yul\":12926:12934   */\n      dup6\n        /* \"#utility.yul\":12923:12938   */\n      gt\n        /* \"#utility.yul\":12915:13627   */\n      iszero\n      tag_488\n      jumpi\n        /* \"#utility.yul\":13031:13035   */\n      dup1\n        /* \"#utility.yul\":13026:13029   */\n      dup7\n        /* \"#utility.yul\":13022:13036   */\n      div\n        /* \"#utility.yul\":13016:13020   */\n      dup2\n        /* \"#utility.yul\":13013:13037   */\n      gt\n        /* \"#utility.yul\":13010:13060   */\n      iszero\n      tag_489\n      jumpi\n        /* \"#utility.yul\":13040:13058   */\n      tag_490\n      tag_301\n      jump\t// in\n    tag_490:\n        /* \"#utility.yul\":13010:13060   */\n    tag_489:\n        /* \"#utility.yul\":13090:13091   */\n      0x01\n        /* \"#utility.yul\":13080:13088   */\n      dup6\n        /* \"#utility.yul\":13076:13092   */\n      and\n        /* \"#utility.yul\":13073:13524   */\n      iszero\n      tag_491\n      jumpi\n        /* \"#utility.yul\":13505:13509   */\n      dup1\n        /* \"#utility.yul\":13498:13503   */\n      dup3\n        /* \"#utility.yul\":13494:13510   */\n      mul\n        /* \"#utility.yul\":13485:13510   */\n      swap2\n      pop\n        /* \"#utility.yul\":13073:13524   */\n    tag_491:\n        /* \"#utility.yul\":13555:13559   */\n      dup1\n        /* \"#utility.yul\":13549:13553   */\n      dup2\n        /* \"#utility.yul\":13545:13560   */\n      mul\n        /* \"#utility.yul\":13537:13560   */\n      swap1\n      pop\n        /* \"#utility.yul\":13585:13617   */\n      tag_492\n        /* \"#utility.yul\":13608:13616   */\n      dup6\n        /* \"#utility.yul\":13585:13617   */\n      tag_302\n      jump\t// in\n    tag_492:\n        /* \"#utility.yul\":13573:13617   */\n      swap5\n      pop\n        /* \"#utility.yul\":12915:13627   */\n      jump(tag_486)\n    tag_488:\n        /* \"#utility.yul\":12785:13633   */\n      swap5\n      pop\n      swap5\n      swap3\n      pop\n      pop\n      pop\n      jump\t// out\n        /* \"#utility.yul\":13639:14712   */\n    tag_304:\n        /* \"#utility.yul\":13693:13698   */\n      0x00\n        /* \"#utility.yul\":13884:13892   */\n      dup3\n        /* \"#utility.yul\":13874:13914   */\n      tag_494\n      jumpi\n        /* \"#utility.yul\":13905:13906   */\n      0x01\n        /* \"#utility.yul\":13896:13906   */\n      swap1\n      pop\n        /* \"#utility.yul\":13907:13912   */\n      jump(tag_493)\n        /* \"#utility.yul\":13874:13914   */\n    tag_494:\n        /* \"#utility.yul\":13933:13937   */\n      dup2\n        /* \"#utility.yul\":13923:13959   */\n      tag_495\n      jumpi\n        /* \"#utility.yul\":13950:13951   */\n      0x00\n        /* \"#utility.yul\":13941:13951   */\n      swap1\n      pop\n        /* \"#utility.yul\":13952:13957   */\n      jump(tag_493)\n        /* \"#utility.yul\":13923:13959   */\n    tag_495:\n        /* \"#utility.yul\":14019:14023   */\n      dup2\n        /* \"#utility.yul\":14067:14068   */\n      0x01\n        /* \"#utility.yul\":14062:14089   */\n      dup2\n      eq\n      tag_497\n      jumpi\n        /* \"#utility.yul\":14103:14104   */\n      0x02\n        /* \"#utility.yul\":14098:14289   */\n      dup2\n      eq\n      tag_498\n      jumpi\n        /* \"#utility.yul\":14012:14289   */\n      jump(tag_496)\n        /* \"#utility.yul\":14062:14089   */\n    tag_497:\n        /* \"#utility.yul\":14080:14081   */\n      0x01\n        /* \"#utility.yul\":14071:14081   */\n      swap2\n      pop\n        /* \"#utility.yul\":14082:14087   */\n      pop\n      jump(tag_493)\n        /* \"#utility.yul\":14098:14289   */\n    tag_498:\n        /* \"#utility.yul\":14143:14146   */\n      0xff\n        /* \"#utility.yul\":14133:14141   */\n      dup5\n        /* \"#utility.yul\":14130:14147   */\n      gt\n        /* \"#utility.yul\":14127:14170   */\n      iszero\n      tag_499\n      jumpi\n        /* \"#utility.yul\":14150:14168   */\n      tag_500\n      tag_301\n      jump\t// in\n    tag_500:\n        /* \"#utility.yul\":14127:14170   */\n    tag_499:\n        /* \"#utility.yul\":14199:14207   */\n      dup4\n        /* \"#utility.yul\":14196:14197   */\n      0x02\n        /* \"#utility.yul\":14192:14208   */\n      exp\n        /* \"#utility.yul\":14183:14208   */\n      swap2\n      pop\n        /* \"#utility.yul\":14234:14237   */\n      dup5\n        /* \"#utility.yul\":14227:14232   */\n      dup3\n        /* \"#utility.yul\":14224:14238   */\n      gt\n        /* \"#utility.yul\":14221:14261   */\n      iszero\n      tag_501\n      jumpi\n        /* \"#utility.yul\":14241:14259   */\n      tag_502\n      tag_301\n      jump\t// in\n    tag_502:\n        /* \"#utility.yul\":14221:14261   */\n    tag_501:\n        /* \"#utility.yul\":14274:14279   */\n      pop\n      jump(tag_493)\n        /* \"#utility.yul\":14012:14289   */\n    tag_496:\n      pop\n        /* \"#utility.yul\":14398:14400   */\n      0x20\n        /* \"#utility.yul\":14388:14396   */\n      dup4\n        /* \"#utility.yul\":14385:14401   */\n      lt\n        /* \"#utility.yul\":14379:14382   */\n      0x0133\n        /* \"#utility.yul\":14373:14377   */\n      dup4\n        /* \"#utility.yul\":14370:14383   */\n      lt\n        /* \"#utility.yul\":14366:14402   */\n      and\n        /* \"#utility.yul\":14348:14350   */\n      0x4e\n        /* \"#utility.yul\":14338:14346   */\n      dup5\n        /* \"#utility.yul\":14335:14351   */\n      lt\n        /* \"#utility.yul\":14330:14332   */\n      0x0b\n        /* \"#utility.yul\":14324:14328   */\n      dup5\n        /* \"#utility.yul\":14321:14333   */\n      lt\n        /* \"#utility.yul\":14317:14352   */\n      and\n        /* \"#utility.yul\":14301:14412   */\n      or\n        /* \"#utility.yul\":14298:14544   */\n      iszero\n      tag_503\n      jumpi\n        /* \"#utility.yul\":14454:14462   */\n      dup3\n        /* \"#utility.yul\":14448:14452   */\n      dup3\n        /* \"#utility.yul\":14444:14463   */\n      exp\n        /* \"#utility.yul\":14435:14463   */\n      swap1\n      pop\n        /* \"#utility.yul\":14489:14492   */\n      dup4\n        /* \"#utility.yul\":14482:14487   */\n      dup2\n        /* \"#utility.yul\":14479:14493   */\n      gt\n        /* \"#utility.yul\":14476:14516   */\n      iszero\n      tag_504\n      jumpi\n        /* \"#utility.yul\":14496:14514   */\n      tag_505\n      tag_301\n      jump\t// in\n    tag_505:\n        /* \"#utility.yul\":14476:14516   */\n    tag_504:\n        /* \"#utility.yul\":14529:14534   */\n      jump(tag_493)\n        /* \"#utility.yul\":14298:14544   */\n    tag_503:\n        /* \"#utility.yul\":14569:14611   */\n      tag_506\n        /* \"#utility.yul\":14607:14610   */\n      dup5\n        /* \"#utility.yul\":14597:14605   */\n      dup5\n        /* \"#utility.yul\":14591:14595   */\n      dup5\n        /* \"#utility.yul\":14588:14589   */\n      0x01\n        /* \"#utility.yul\":14569:14611   */\n      tag_303\n      jump\t// in\n    tag_506:\n        /* \"#utility.yul\":14554:14611   */\n      swap3\n      pop\n      swap1\n      pop\n        /* \"#utility.yul\":14643:14647   */\n      dup2\n        /* \"#utility.yul\":14638:14641   */\n      dup5\n        /* \"#utility.yul\":14634:14648   */\n      div\n        /* \"#utility.yul\":14627:14632   */\n      dup2\n        /* \"#utility.yul\":14624:14649   */\n      gt\n        /* \"#utility.yul\":14621:14672   */\n      iszero\n      tag_507\n      jumpi\n        /* \"#utility.yul\":14652:14670   */\n      tag_508\n      tag_301\n      jump\t// in\n    tag_508:\n        /* \"#utility.yul\":14621:14672   */\n    tag_507:\n        /* \"#utility.yul\":14701:14705   */\n      dup2\n        /* \"#utility.yul\":14694:14699   */\n      dup2\n        /* \"#utility.yul\":14690:14706   */\n      mul\n        /* \"#utility.yul\":14681:14706   */\n      swap1\n      pop\n        /* \"#utility.yul\":13639:14712   */\n    tag_493:\n      swap4\n      swap3\n      pop\n      pop\n      pop\n      jump\t// out\n        /* \"#utility.yul\":14718:15003   */\n    tag_124:\n        /* \"#utility.yul\":14778:14783   */\n      0x00\n        /* \"#utility.yul\":14802:14825   */\n      tag_510\n        /* \"#utility.yul\":14820:14824   */\n      dup3\n        /* \"#utility.yul\":14802:14825   */\n      tag_271\n      jump\t// in\n    tag_510:\n        /* \"#utility.yul\":14794:14825   */\n      swap2\n      pop\n        /* \"#utility.yul\":14846:14873   */\n      tag_511\n        /* \"#utility.yul\":14864:14872   */\n      dup4\n        /* \"#utility.yul\":14846:14873   */\n      tag_271\n      jump\t// in\n    tag_511:\n        /* \"#utility.yul\":14834:14873   */\n      swap3\n      pop\n        /* \"#utility.yul\":14892:14996   */\n      tag_512\n        /* \"#utility.yul\":14929:14995   */\n      0xffffffffffffffffffffffffffffffffffffffffffffffffffffffffffffffff\n        /* \"#utility.yul\":14919:14927   */\n      dup5\n        /* \"#utility.yul\":14913:14917   */\n      dup5\n        /* \"#utility.yul\":14892:14996   */\n      tag_304\n      jump\t// in\n    tag_512:\n        /* \"#utility.yul\":14883:14996   */\n      swap1\n      pop\n        /* \"#utility.yul\":14718:15003   */\n      swap3\n      swap2\n      pop\n      pop\n      jump\t// out\n        /* \"#utility.yul\":15009:15419   */\n    tag_126:\n        /* \"#utility.yul\":15049:15056   */\n      0x00\n        /* \"#utility.yul\":15072:15092   */\n      tag_514\n        /* \"#utility.yul\":15090:15091   */\n      dup3\n        /* \"#utility.yul\":15072:15092   */\n      tag_271\n      jump\t// in\n    tag_514:\n        /* \"#utility.yul\":15067:15092   */\n      swap2\n      pop\n        /* \"#utility.yul\":15106:15126   */\n      tag_515\n        /* \"#utility.yul\":15124:15125   */\n      dup4\n        /* \"#utility.yul\":15106:15126   */\n      tag_271\n      jump\t// in\n    tag_515:\n        /* \"#utility.yul\":15101:15126   */\n      swap3\n      pop\n        /* \"#utility.yul\":15161:15162   */\n      dup3\n        /* \"#utility.yul\":15158:15159   */\n      dup3\n        /* \"#utility.yul\":15154:15163   */\n      mul\n        /* \"#utility.yul\":15183:15213   */\n      tag_516\n        /* \"#utility.yul\":15201:15212   */\n      dup2\n        /* \"#utility.yul\":15183:15213   */\n      tag_271\n      jump\t// in\n    tag_516:\n        /* \"#utility.yul\":15172:15213   */\n      swap2\n      pop\n        /* \"#utility.yul\":15362:15363   */\n      dup3\n        /* \"#utility.yul\":15353:15360   */\n      dup3\n        /* \"#utility.yul\":15349:15364   */\n      div\n        /* \"#utility.yul\":15346:15347   */\n      dup5\n        /* \"#utility.yul\":15343:15365   */\n      eq\n        /* \"#utility.yul\":15323:15324   */\n      dup4\n        /* \"#utility.yul\":15316:15325   */\n      iszero\n        /* \"#utility.yul\":15296:15379   */\n      or\n        /* \"#utility.yul\":15273:15412   */\n      tag_517\n      jumpi\n        /* \"#utility.yul\":15392:15410   */\n      tag_518\n      tag_301\n      jump\t// in\n    tag_518:\n        /* \"#utility.yul\":15273:15412   */\n    tag_517:\n        /* \"#utility.yul\":15057:15419   */\n      pop\n        /* \"#utility.yul\":15009:15419   */\n      swap3\n      swap2\n      pop\n      pop\n      jump\t// out\n        /* \"#utility.yul\":15425:15610   */\n    tag_128:\n        /* \"#utility.yul\":15465:15466   */\n      0x00\n        /* \"#utility.yul\":15482:15502   */\n      tag_520\n        /* \"#utility.yul\":15500:15501   */\n      dup3\n        /* \"#utility.yul\":15482:15502   */\n      tag_271\n      jump\t// in\n    tag_520:\n        /* \"#utility.yul\":15477:15502   */\n      swap2\n      pop\n        /* \"#utility.yul\":15516:15536   */\n      tag_521\n        /* \"#utility.yul\":15534:15535   */\n      dup4\n        /* \"#utility.yul\":15516:15536   */\n      tag_271\n      jump\t// in\n    tag_521:\n        /* \"#utility.yul\":15511:15536   */\n      swap3\n      pop\n        /* \"#utility.yul\":15555:15556   */\n      dup3\n        /* \"#utility.yul\":15545:15580   */\n      tag_522\n      jumpi\n        /* \"#utility.yul\":15560:15578   */\n      tag_523\n      tag_300\n      jump\t// in\n    tag_523:\n        /* \"#utility.yul\":15545:15580   */\n    tag_522:\n        /* \"#utility.yul\":15602:15603   */\n      dup3\n        /* \"#utility.yul\":15599:15600   */\n      dup3\n        /* \"#utility.yul\":15595:15604   */\n      div\n        /* \"#utility.yul\":15590:15604   */\n      swap1\n      pop\n        /* \"#utility.yul\":15425:15610   */\n      swap3\n      swap2\n      pop\n      pop\n      jump\t// out\n        /* \"#utility.yul\":15616:15807   */\n    tag_130:\n        /* \"#utility.yul\":15656:15659   */\n      0x00\n        /* \"#utility.yul\":15675:15695   */\n      tag_525\n        /* \"#utility.yul\":15693:15694   */\n      dup3\n        /* \"#utility.yul\":15675:15695   */\n      tag_271\n      jump\t// in\n    tag_525:\n        /* \"#utility.yul\":15670:15695   */\n      swap2\n      pop\n        /* \"#utility.yul\":15709:15729   */\n      tag_526\n        /* \"#utility.yul\":15727:15728   */\n      dup4\n        /* \"#utility.yul\":15709:15729   */\n      tag_271\n      jump\t// in\n    tag_526:\n        /* \"#utility.yul\":15704:15729   */\n      swap3\n      pop\n        /* \"#utility.yul\":15752:15753   */\n      dup3\n        /* \"#utility.yul\":15749:15750   */\n      dup3\n        /* \"#utility.yul\":15745:15754   */\n      add\n        /* \"#utility.yul\":15738:15754   */\n      swap1\n      pop\n        /* \"#utility.yul\":15773:15776   */\n      dup1\n        /* \"#utility.yul\":15770:15771   */\n      dup3\n        /* \"#utility.yul\":15767:15777   */\n      gt\n        /* \"#utility.yul\":15764:15800   */\n      iszero\n      tag_527\n      jumpi\n        /* \"#utility.yul\":15780:15798   */\n      tag_528\n      tag_301\n      jump\t// in\n    tag_528:\n        /* \"#utility.yul\":15764:15800   */\n    tag_527:\n        /* \"#utility.yul\":15616:15807   */\n      swap3\n      swap2\n      pop\n      pop\n      jump\t// out\n        /* \"#utility.yul\":15813:16007   */\n    tag_132:\n        /* \"#utility.yul\":15853:15857   */\n      0x00\n        /* \"#utility.yul\":15873:15893   */\n      tag_530\n        /* \"#utility.yul\":15891:15892   */\n      dup3\n        /* \"#utility.yul\":15873:15893   */\n      tag_271\n      jump\t// in\n    tag_530:\n        /* \"#utility.yul\":15868:15893   */\n      swap2\n      pop\n        /* \"#utility.yul\":15907:15927   */\n      tag_531\n        /* \"#utility.yul\":15925:15926   */\n      dup4\n        /* \"#utility.yul\":15907:15927   */\n      tag_271\n      jump\t// in\n    tag_531:\n        /* \"#utility.yul\":15902:15927   */\n      swap3\n      pop\n        /* \"#utility.yul\":15951:15952   */\n      dup3\n        /* \"#utility.yul\":15948:15949   */\n      dup3\n        /* \"#utility.yul\":15944:15953   */\n      sub\n        /* \"#utility.yul\":15936:15953   */\n      swap1\n      pop\n        /* \"#utility.yul\":15975:15976   */\n      dup2\n        /* \"#utility.yul\":15969:15973   */\n      dup2\n        /* \"#utility.yul\":15966:15977   */\n      gt\n        /* \"#utility.yul\":15963:16000   */\n      iszero\n      tag_532\n      jumpi\n        /* \"#utility.yul\":15980:15998   */\n      tag_533\n      tag_301\n      jump\t// in\n    tag_533:\n        /* \"#utility.yul\":15963:16000   */\n    tag_532:\n        /* \"#utility.yul\":15813:16007   */\n      swap3\n      swap2\n      pop\n      pop\n      jump\t// out\n        /* \"#utility.yul\":16013:16160   */\n    tag_305:\n        /* \"#utility.yul\":16114:16125   */\n      0x00\n        /* \"#utility.yul\":16151:16154   */\n      dup2\n        /* \"#utility.yul\":16136:16154   */\n      swap1\n      pop\n        /* \"#utility.yul\":16013:16160   */\n      swap3\n      swap2\n      pop\n      pop\n      jump\t// out\n        /* \"#utility.yul\":16166:16280   */\n    tag_306:\n      pop\n      jump\t// out\n        /* \"#utility.yul\":16286:16684   */\n    tag_307:\n        /* \"#utility.yul\":16445:16448   */\n      0x00\n        /* \"#utility.yul\":16466:16549   */\n      tag_537\n        /* \"#utility.yul\":16547:16548   */\n      0x00\n        /* \"#utility.yul\":16542:16545   */\n      dup4\n        /* \"#utility.yul\":16466:16549   */\n      tag_305\n      jump\t// in\n    tag_537:\n        /* \"#utility.yul\":16459:16549   */\n      swap2\n      pop\n        /* \"#utility.yul\":16558:16651   */\n      tag_538\n        /* \"#utility.yul\":16647:16650   */\n      dup3\n        /* \"#utility.yul\":16558:16651   */\n      tag_306\n      jump\t// in\n    tag_538:\n        /* \"#utility.yul\":16676:16677   */\n      0x00\n        /* \"#utility.yul\":16671:16674   */\n      dup3\n        /* \"#utility.yul\":16667:16678   */\n      add\n        /* \"#utility.yul\":16660:16678   */\n      swap1\n      pop\n        /* \"#utility.yul\":16286:16684   */\n      swap2\n      swap1\n      pop\n      jump\t// out\n        /* \"#utility.yul\":16690:17069   */\n    tag_134:\n        /* \"#utility.yul\":16874:16877   */\n      0x00\n        /* \"#utility.yul\":16896:17043   */\n      tag_540\n        /* \"#utility.yul\":17039:17042   */\n      dup3\n        /* \"#utility.yul\":16896:17043   */\n      tag_307\n      jump\t// in\n    tag_540:\n        /* \"#utility.yul\":16889:17043   */\n      swap2\n      pop\n        /* \"#utility.yul\":17060:17063   */\n      dup2\n        /* \"#utility.yul\":17053:17063   */\n      swap1\n      pop\n        /* \"#utility.yul\":16690:17069   */\n      swap2\n      swap1\n      pop\n      jump\t// out\n        /* \"#utility.yul\":17075:17246   */\n    tag_308:\n        /* \"#utility.yul\":17215:17238   */\n      0x4661696c656420746f2073656e64207265776172640000000000000000000000\n        /* \"#utility.yul\":17211:17212   */\n      0x00\n        /* \"#utility.yul\":17203:17209   */\n      dup3\n        /* \"#utility.yul\":17199:17213   */\n      add\n        /* \"#utility.yul\":17192:17239   */\n      mstore\n        /* \"#utility.yul\":17075:17246   */\n      pop\n      jump\t// out\n        /* \"#utility.yul\":17252:17618   */\n    tag_309:\n        /* \"#utility.yul\":17394:17397   */\n      0x00\n        /* \"#utility.yul\":17415:17482   */\n      tag_543\n        /* \"#utility.yul\":17479:17481   */\n      0x15\n        /* \"#utility.yul\":17474:17477   */\n      dup4\n        /* \"#utility.yul\":17415:17482   */\n      tag_291\n      jump\t// in\n    tag_543:\n        /* \"#utility.yul\":17408:17482   */\n      swap2\n      pop\n        /* \"#utility.yul\":17491:17584   */\n      tag_544\n        /* \"#utility.yul\":17580:17583   */\n      dup3\n        /* \"#utility.yul\":17491:17584   */\n      tag_308\n      jump\t// in\n    tag_544:\n        /* \"#utility.yul\":17609:17611   */\n      0x20\n        /* \"#utility.yul\":17604:17607   */\n      dup3\n        /* \"#utility.yul\":17600:17612   */\n      add\n        /* \"#utility.yul\":17593:17612   */\n      swap1\n      pop\n        /* \"#utility.yul\":17252:17618   */\n      swap2\n      swap1\n      pop\n      jump\t// out\n        /* \"#utility.yul\":17624:18043   */\n    tag_140:\n        /* \"#utility.yul\":17790:17794   */\n      0x00\n        /* \"#utility.yul\":17828:17830   */\n      0x20\n        /* \"#utility.yul\":17817:17826   */\n      dup3\n        /* \"#utility.yul\":17813:17831   */\n      add\n        /* \"#utility.yul\":17805:17831   */\n      swap1\n      pop\n        /* \"#utility.yul\":17877:17886   */\n      dup2\n        /* \"#utility.yul\":17871:17875   */\n      dup2\n        /* \"#utility.yul\":17867:17887   */\n      sub\n        /* \"#utility.yul\":17863:17864   */\n      0x00\n        /* \"#utility.yul\":17852:17861   */\n      dup4\n        /* \"#utility.yul\":17848:17865   */\n      add\n        /* \"#utility.yul\":17841:17888   */\n      mstore\n        /* \"#utility.yul\":17905:18036   */\n      tag_546\n        /* \"#utility.yul\":18031:18035   */\n      dup2\n        /* \"#utility.yul\":17905:18036   */\n      tag_309\n      jump\t// in\n    tag_546:\n        /* \"#utility.yul\":17897:18036   */\n      swap1\n      pop\n        /* \"#utility.yul\":17624:18043   */\n      swap2\n      swap1\n      pop\n      jump\t// out\n        /* \"#utility.yul\":18049:18602   */\n    tag_142:\n        /* \"#utility.yul\":18226:18230   */\n      0x00\n        /* \"#utility.yul\":18264:18267   */\n      0x80\n        /* \"#utility.yul\":18253:18262   */\n      dup3\n        /* \"#utility.yul\":18249:18268   */\n      add\n        /* \"#utility.yul\":18241:18268   */\n      swap1\n      pop\n        /* \"#utility.yul\":18278:18349   */\n      tag_548\n        /* \"#utility.yul\":18346:18347   */\n      0x00\n        /* \"#utility.yul\":18335:18344   */\n      dup4\n        /* \"#utility.yul\":18331:18348   */\n      add\n        /* \"#utility.yul\":18322:18328   */\n      dup8\n        /* \"#utility.yul\":18278:18349   */\n      tag_281\n      jump\t// in\n    tag_548:\n        /* \"#utility.yul\":18359:18431   */\n      tag_549\n        /* \"#utility.yul\":18427:18429   */\n      0x20\n        /* \"#utility.yul\":18416:18425   */\n      dup4\n        /* \"#utility.yul\":18412:18430   */\n      add\n        /* \"#utility.yul\":18403:18409   */\n      dup7\n        /* \"#utility.yul\":18359:18431   */\n      tag_274\n      jump\t// in\n    tag_549:\n        /* \"#utility.yul\":18441:18513   */\n      tag_550\n        /* \"#utility.yul\":18509:18511   */\n      0x40\n        /* \"#utility.yul\":18498:18507   */\n      dup4\n        /* \"#utility.yul\":18494:18512   */\n      add\n        /* \"#utility.yul\":18485:18491   */\n      dup6\n        /* \"#utility.yul\":18441:18513   */\n      tag_274\n      jump\t// in\n    tag_550:\n        /* \"#utility.yul\":18523:18595   */\n      tag_551\n        /* \"#utility.yul\":18591:18593   */\n      0x60\n        /* \"#utility.yul\":18580:18589   */\n      dup4\n        /* \"#utility.yul\":18576:18594   */\n      add\n        /* \"#utility.yul\":18567:18573   */\n      dup5\n        /* \"#utility.yul\":18523:18595   */\n      tag_274\n      jump\t// in\n    tag_551:\n        /* \"#utility.yul\":18049:18602   */\n      swap6\n      swap5\n      pop\n      pop\n      pop\n      pop\n      pop\n      jump\t// out\n        /* \"#utility.yul\":18608:18769   */\n    tag_310:\n        /* \"#utility.yul\":18748:18761   */\n      0x6e6f2066756c6c20666565000000000000000000000000000000000000000000\n        /* \"#utility.yul\":18744:18745   */\n      0x00\n        /* \"#utility.yul\":18736:18742   */\n      dup3\n        /* \"#utility.yul\":18732:18746   */\n      add\n        /* \"#utility.yul\":18725:18762   */\n      mstore\n        /* \"#utility.yul\":18608:18769   */\n      pop\n      jump\t// out\n        /* \"#utility.yul\":18775:19141   */\n    tag_311:\n        /* \"#utility.yul\":18917:18920   */\n      0x00\n        /* \"#utility.yul\":18938:19005   */\n      tag_554\n        /* \"#utility.yul\":19002:19004   */\n      0x0b\n        /* \"#utility.yul\":18997:19000   */\n      dup4\n        /* \"#utility.yul\":18938:19005   */\n      tag_291\n      jump\t// in\n    tag_554:\n        /* \"#utility.yul\":18931:19005   */\n      swap2\n      pop\n        /* \"#utility.yul\":19014:19107   */\n      tag_555\n        /* \"#utility.yul\":19103:19106   */\n      dup3\n        /* \"#utility.yul\":19014:19107   */\n      tag_310\n      jump\t// in\n    tag_555:\n        /* \"#utility.yul\":19132:19134   */\n      0x20\n        /* \"#utility.yul\":19127:19130   */\n      dup3\n        /* \"#utility.yul\":19123:19135   */\n      add\n        /* \"#utility.yul\":19116:19135   */\n      swap1\n      pop\n        /* \"#utility.yul\":18775:19141   */\n      swap2\n      swap1\n      pop\n      jump\t// out\n        /* \"#utility.yul\":19147:19566   */\n    tag_149:\n        /* \"#utility.yul\":19313:19317   */\n      0x00\n        /* \"#utility.yul\":19351:19353   */\n      0x20\n        /* \"#utility.yul\":19340:19349   */\n      dup3\n        /* \"#utility.yul\":19336:19354   */\n      add\n        /* \"#utility.yul\":19328:19354   */\n      swap1\n      pop\n        /* \"#utility.yul\":19400:19409   */\n      dup2\n        /* \"#utility.yul\":19394:19398   */\n      dup2\n        /* \"#utility.yul\":19390:19410   */\n      sub\n        /* \"#utility.yul\":19386:19387   */\n      0x00\n        /* \"#utility.yul\":19375:19384   */\n      dup4\n        /* \"#utility.yul\":19371:19388   */\n      add\n        /* \"#utility.yul\":19364:19411   */\n      mstore\n        /* \"#utility.yul\":19428:19559   */\n      tag_557\n        /* \"#utility.yul\":19554:19558   */\n      dup2\n        /* \"#utility.yul\":19428:19559   */\n      tag_311\n      jump\t// in\n    tag_557:\n        /* \"#utility.yul\":19420:19559   */\n      swap1\n      pop\n        /* \"#utility.yul\":19147:19566   */\n      swap2\n      swap1\n      pop\n      jump\t// out\n        /* \"#utility.yul\":19572:20014   */\n    tag_153:\n        /* \"#utility.yul\":19721:19725   */\n      0x00\n        /* \"#utility.yul\":19759:19761   */\n      0x60\n        /* \"#utility.yul\":19748:19757   */\n      dup3\n        /* \"#utility.yul\":19744:19762   */\n      add\n        /* \"#utility.yul\":19736:19762   */\n      swap1\n      pop\n        /* \"#utility.yul\":19772:19843   */\n      tag_559\n        /* \"#utility.yul\":19840:19841   */\n      0x00\n        /* \"#utility.yul\":19829:19838   */\n      dup4\n        /* \"#utility.yul\":19825:19842   */\n      add\n        /* \"#utility.yul\":19816:19822   */\n      dup7\n        /* \"#utility.yul\":19772:19843   */\n      tag_281\n      jump\t// in\n    tag_559:\n        /* \"#utility.yul\":19853:19925   */\n      tag_560\n        /* \"#utility.yul\":19921:19923   */\n      0x20\n        /* \"#utility.yul\":19910:19919   */\n      dup4\n        /* \"#utility.yul\":19906:19924   */\n      add\n        /* \"#utility.yul\":19897:19903   */\n      dup6\n        /* \"#utility.yul\":19853:19925   */\n      tag_274\n      jump\t// in\n    tag_560:\n        /* \"#utility.yul\":19935:20007   */\n      tag_561\n        /* \"#utility.yul\":20003:20005   */\n      0x40\n        /* \"#utility.yul\":19992:20001   */\n      dup4\n        /* \"#utility.yul\":19988:20006   */\n      add\n        /* \"#utility.yul\":19979:19985   */\n      dup5\n        /* \"#utility.yul\":19935:20007   */\n      tag_274\n      jump\t// in\n    tag_561:\n        /* \"#utility.yul\":19572:20014   */\n      swap5\n      swap4\n      pop\n      pop\n      pop\n      pop\n      jump\t// out\n        /* \"#utility.yul\":20020:20352   */\n    tag_157:\n        /* \"#utility.yul\":20141:20145   */\n      0x00\n        /* \"#utility.yul\":20179:20181   */\n      0x40\n        /* \"#utility.yul\":20168:20177   */\n      dup3\n        /* \"#utility.yul\":20164:20182   */\n      add\n        /* \"#utility.yul\":20156:20182   */\n      swap1\n      pop\n        /* \"#utility.yul\":20192:20263   */\n      tag_563\n        /* \"#utility.yul\":20260:20261   */\n      0x00\n        /* \"#utility.yul\":20249:20258   */\n      dup4\n        /* \"#utility.yul\":20245:20262   */\n      add\n        /* \"#utility.yul\":20236:20242   */\n      dup6\n        /* \"#utility.yul\":20192:20263   */\n      tag_281\n      jump\t// in\n    tag_563:\n        /* \"#utility.yul\":20273:20345   */\n      tag_564\n        /* \"#utility.yul\":20341:20343   */\n      0x20\n        /* \"#utility.yul\":20330:20339   */\n      dup4\n        /* \"#utility.yul\":20326:20344   */\n      add\n        /* \"#utility.yul\":20317:20323   */\n      dup5\n        /* \"#utility.yul\":20273:20345   */\n      tag_281\n      jump\t// in\n    tag_564:\n        /* \"#utility.yul\":20020:20352   */\n      swap4\n      swap3\n      pop\n      pop\n      pop\n      jump\t// out\n        /* \"#utility.yul\":20358:20527   */\n    tag_312:\n        /* \"#utility.yul\":20498:20519   */\n      0x706c6561736520696e7075742064726177496400000000000000000000000000\n        /* \"#utility.yul\":20494:20495   */\n      0x00\n        /* \"#utility.yul\":20486:20492   */\n      dup3\n        /* \"#utility.yul\":20482:20496   */\n      add\n        /* \"#utility.yul\":20475:20520   */\n      mstore\n        /* \"#utility.yul\":20358:20527   */\n      pop\n      jump\t// out\n        /* \"#utility.yul\":20533:20899   */\n    tag_313:\n        /* \"#utility.yul\":20675:20678   */\n      0x00\n        /* \"#utility.yul\":20696:20763   */\n      tag_567\n        /* \"#utility.yul\":20760:20762   */\n      0x13\n        /* \"#utility.yul\":20755:20758   */\n      dup4\n        /* \"#utility.yul\":20696:20763   */\n      tag_291\n      jump\t// in\n    tag_567:\n        /* \"#utility.yul\":20689:20763   */\n      swap2\n      pop\n        /* \"#utility.yul\":20772:20865   */\n      tag_568\n        /* \"#utility.yul\":20861:20864   */\n      dup3\n        /* \"#utility.yul\":20772:20865   */\n      tag_312\n      jump\t// in\n    tag_568:\n        /* \"#utility.yul\":20890:20892   */\n      0x20\n        /* \"#utility.yul\":20885:20888   */\n      dup3\n        /* \"#utility.yul\":20881:20893   */\n      add\n        /* \"#utility.yul\":20874:20893   */\n      swap1\n      pop\n        /* \"#utility.yul\":20533:20899   */\n      swap2\n      swap1\n      pop\n      jump\t// out\n        /* \"#utility.yul\":20905:21324   */\n    tag_164:\n        /* \"#utility.yul\":21071:21075   */\n      0x00\n        /* \"#utility.yul\":21109:21111   */\n      0x20\n        /* \"#utility.yul\":21098:21107   */\n      dup3\n        /* \"#utility.yul\":21094:21112   */\n      add\n        /* \"#utility.yul\":21086:21112   */\n      swap1\n      pop\n        /* \"#utility.yul\":21158:21167   */\n      dup2\n        /* \"#utility.yul\":21152:21156   */\n      dup2\n        /* \"#utility.yul\":21148:21168   */\n      sub\n        /* \"#utility.yul\":21144:21145   */\n      0x00\n        /* \"#utility.yul\":21133:21142   */\n      dup4\n        /* \"#utility.yul\":21129:21146   */\n      add\n        /* \"#utility.yul\":21122:21169   */\n      mstore\n        /* \"#utility.yul\":21186:21317   */\n      tag_570\n        /* \"#utility.yul\":21312:21316   */\n      dup2\n        /* \"#utility.yul\":21186:21317   */\n      tag_313\n      jump\t// in\n    tag_570:\n        /* \"#utility.yul\":21178:21317   */\n      swap1\n      pop\n        /* \"#utility.yul\":20905:21324   */\n      swap2\n      swap1\n      pop\n      jump\t// out\n        /* \"#utility.yul\":21330:21508   */\n    tag_314:\n        /* \"#utility.yul\":21470:21500   */\n      0x63757272656e74206861732070726f63657373696e6767206472617700000000\n        /* \"#utility.yul\":21466:21467   */\n      0x00\n        /* \"#utility.yul\":21458:21464   */\n      dup3\n        /* \"#utility.yul\":21454:21468   */\n      add\n        /* \"#utility.yul\":21447:21501   */\n      mstore\n        /* \"#utility.yul\":21330:21508   */\n      pop\n      jump\t// out\n        /* \"#utility.yul\":21514:21880   */\n    tag_315:\n        /* \"#utility.yul\":21656:21659   */\n      0x00\n        /* \"#utility.yul\":21677:21744   */\n      tag_573\n        /* \"#utility.yul\":21741:21743   */\n      0x1c\n        /* \"#utility.yul\":21736:21739   */\n      dup4\n        /* \"#utility.yul\":21677:21744   */\n      tag_291\n      jump\t// in\n    tag_573:\n        /* \"#utility.yul\":21670:21744   */\n      swap2\n      pop\n        /* \"#utility.yul\":21753:21846   */\n      tag_574\n        /* \"#utility.yul\":21842:21845   */\n      dup3\n        /* \"#utility.yul\":21753:21846   */\n      tag_314\n      jump\t// in\n    tag_574:\n        /* \"#utility.yul\":21871:21873   */\n      0x20\n        /* \"#utility.yul\":21866:21869   */\n      dup3\n        /* \"#utility.yul\":21862:21874   */\n      add\n        /* \"#utility.yul\":21855:21874   */\n      swap1\n      pop\n        /* \"#utility.yul\":21514:21880   */\n      swap2\n      swap1\n      pop\n      jump\t// out\n        /* \"#utility.yul\":21886:22305   */\n    tag_167:\n        /* \"#utility.yul\":22052:22056   */\n      0x00\n        /* \"#utility.yul\":22090:22092   */\n      0x20\n        /* \"#utility.yul\":22079:22088   */\n      dup3\n        /* \"#utility.yul\":22075:22093   */\n      add\n        /* \"#utility.yul\":22067:22093   */\n      swap1\n      pop\n        /* \"#utility.yul\":22139:22148   */\n      dup2\n        /* \"#utility.yul\":22133:22137   */\n      dup2\n        /* \"#utility.yul\":22129:22149   */\n      sub\n        /* \"#utility.yul\":22125:22126   */\n      0x00\n        /* \"#utility.yul\":22114:22123   */\n      dup4\n        /* \"#utility.yul\":22110:22127   */\n      add\n        /* \"#utility.yul\":22103:22150   */\n      mstore\n        /* \"#utility.yul\":22167:22298   */\n      tag_576\n        /* \"#utility.yul\":22293:22297   */\n      dup2\n        /* \"#utility.yul\":22167:22298   */\n      tag_315\n      jump\t// in\n    tag_576:\n        /* \"#utility.yul\":22159:22298   */\n      swap1\n      pop\n        /* \"#utility.yul\":21886:22305   */\n      swap2\n      swap1\n      pop\n      jump\t// out\n        /* \"#utility.yul\":22311:22485   */\n    tag_316:\n        /* \"#utility.yul\":22451:22477   */\n      0x63757272656e74207461736b206861736e742073746172740000000000000000\n        /* \"#utility.yul\":22447:22448   */\n      0x00\n        /* \"#utility.yul\":22439:22445   */\n      dup3\n        /* \"#utility.yul\":22435:22449   */\n      add\n        /* \"#utility.yul\":22428:22478   */\n      mstore\n        /* \"#utility.yul\":22311:22485   */\n      pop\n      jump\t// out\n        /* \"#utility.yul\":22491:22857   */\n    tag_317:\n        /* \"#utility.yul\":22633:22636   */\n      0x00\n        /* \"#utility.yul\":22654:22721   */\n      tag_579\n        /* \"#utility.yul\":22718:22720   */\n      0x18\n        /* \"#utility.yul\":22713:22716   */\n      dup4\n        /* \"#utility.yul\":22654:22721   */\n      tag_291\n      jump\t// in\n    tag_579:\n        /* \"#utility.yul\":22647:22721   */\n      swap2\n      pop\n        /* \"#utility.yul\":22730:22823   */\n      tag_580\n        /* \"#utility.yul\":22819:22822   */\n      dup3\n        /* \"#utility.yul\":22730:22823   */\n      tag_316\n      jump\t// in\n    tag_580:\n        /* \"#utility.yul\":22848:22850   */\n      0x20\n        /* \"#utility.yul\":22843:22846   */\n      dup3\n        /* \"#utility.yul\":22839:22851   */\n      add\n        /* \"#utility.yul\":22832:22851   */\n      swap1\n      pop\n        /* \"#utility.yul\":22491:22857   */\n      swap2\n      swap1\n      pop\n      jump\t// out\n        /* \"#utility.yul\":22863:23282   */\n    tag_170:\n        /* \"#utility.yul\":23029:23033   */\n      0x00\n        /* \"#utility.yul\":23067:23069   */\n      0x20\n        /* \"#utility.yul\":23056:23065   */\n      dup3\n        /* \"#utility.yul\":23052:23070   */\n      add\n        /* \"#utility.yul\":23044:23070   */\n      swap1\n      pop\n        /* \"#utility.yul\":23116:23125   */\n      dup2\n        /* \"#utility.yul\":23110:23114   */\n      dup2\n        /* \"#utility.yul\":23106:23126   */\n      sub\n        /* \"#utility.yul\":23102:23103   */\n      0x00\n        /* \"#utility.yul\":23091:23100   */\n      dup4\n        /* \"#utility.yul\":23087:23104   */\n      add\n        /* \"#utility.yul\":23080:23127   */\n      mstore\n        /* \"#utility.yul\":23144:23275   */\n      tag_582\n        /* \"#utility.yul\":23270:23274   */\n      dup2\n        /* \"#utility.yul\":23144:23275   */\n      tag_317\n      jump\t// in\n    tag_582:\n        /* \"#utility.yul\":23136:23275   */\n      swap1\n      pop\n        /* \"#utility.yul\":22863:23282   */\n      swap2\n      swap1\n      pop\n      jump\t// out\n        /* \"#utility.yul\":23288:23459   */\n    tag_318:\n        /* \"#utility.yul\":23428:23451   */\n      0x796f7520617265206e6f207065726d697373696f6e0000000000000000000000\n        /* \"#utility.yul\":23424:23425   */\n      0x00\n        /* \"#utility.yul\":23416:23422   */\n      dup3\n        /* \"#utility.yul\":23412:23426   */\n      add\n        /* \"#utility.yul\":23405:23452   */\n      mstore\n        /* \"#utility.yul\":23288:23459   */\n      pop\n      jump\t// out\n        /* \"#utility.yul\":23465:23831   */\n    tag_319:\n        /* \"#utility.yul\":23607:23610   */\n      0x00\n        /* \"#utility.yul\":23628:23695   */\n      tag_585\n        /* \"#utility.yul\":23692:23694   */\n      0x15\n        /* \"#utility.yul\":23687:23690   */\n      dup4\n        /* \"#utility.yul\":23628:23695   */\n      tag_291\n      jump\t// in\n    tag_585:\n        /* \"#utility.yul\":23621:23695   */\n      swap2\n      pop\n        /* \"#utility.yul\":23704:23797   */\n      tag_586\n        /* \"#utility.yul\":23793:23796   */\n      dup3\n        /* \"#utility.yul\":23704:23797   */\n      tag_318\n      jump\t// in\n    tag_586:\n        /* \"#utility.yul\":23822:23824   */\n      0x20\n        /* \"#utility.yul\":23817:23820   */\n      dup3\n        /* \"#utility.yul\":23813:23825   */\n      add\n        /* \"#utility.yul\":23806:23825   */\n      swap1\n      pop\n        /* \"#utility.yul\":23465:23831   */\n      swap2\n      swap1\n      pop\n      jump\t// out\n        /* \"#utility.yul\":23837:24256   */\n    tag_175:\n        /* \"#utility.yul\":24003:24007   */\n      0x00\n        /* \"#utility.yul\":24041:24043   */\n      0x20\n        /* \"#utility.yul\":24030:24039   */\n      dup3\n        /* \"#utility.yul\":24026:24044   */\n      add\n        /* \"#utility.yul\":24018:24044   */\n      swap1\n      pop\n        /* \"#utility.yul\":24090:24099   */\n      dup2\n        /* \"#utility.yul\":24084:24088   */\n      dup2\n        /* \"#utility.yul\":24080:24100   */\n      sub\n        /* \"#utility.yul\":24076:24077   */\n      0x00\n        /* \"#utility.yul\":24065:24074   */\n      dup4\n        /* \"#utility.yul\":24061:24078   */\n      add\n        /* \"#utility.yul\":24054:24101   */\n      mstore\n        /* \"#utility.yul\":24118:24249   */\n      tag_588\n        /* \"#utility.yul\":24244:24248   */\n      dup2\n        /* \"#utility.yul\":24118:24249   */\n      tag_319\n      jump\t// in\n    tag_588:\n        /* \"#utility.yul\":24110:24249   */\n      swap1\n      pop\n        /* \"#utility.yul\":23837:24256   */\n      swap2\n      swap1\n      pop\n      jump\t// out\n        /* \"#utility.yul\":24262:24431   */\n    tag_320:\n        /* \"#utility.yul\":24402:24423   */\n      0x6e6f206a6f696e207468652070657273696f6e00000000000000000000000000\n        /* \"#utility.yul\":24398:24399   */\n      0x00\n        /* \"#utility.yul\":24390:24396   */\n      dup3\n        /* \"#utility.yul\":24386:24400   */\n      add\n        /* \"#utility.yul\":24379:24424   */\n      mstore\n        /* \"#utility.yul\":24262:24431   */\n      pop\n      jump\t// out\n        /* \"#utility.yul\":24437:24803   */\n    tag_321:\n        /* \"#utility.yul\":24579:24582   */\n      0x00\n        /* \"#utility.yul\":24600:24667   */\n      tag_591\n        /* \"#utility.yul\":24664:24666   */\n      0x13\n        /* \"#utility.yul\":24659:24662   */\n      dup4\n        /* \"#utility.yul\":24600:24667   */\n      tag_291\n      jump\t// in\n    tag_591:\n        /* \"#utility.yul\":24593:24667   */\n      swap2\n      pop\n        /* \"#utility.yul\":24676:24769   */\n      tag_592\n        /* \"#utility.yul\":24765:24768   */\n      dup3\n        /* \"#utility.yul\":24676:24769   */\n      tag_320\n      jump\t// in\n    tag_592:\n        /* \"#utility.yul\":24794:24796   */\n      0x20\n        /* \"#utility.yul\":24789:24792   */\n      dup3\n        /* \"#utility.yul\":24785:24797   */\n      add\n        /* \"#utility.yul\":24778:24797   */\n      swap1\n      pop\n        /* \"#utility.yul\":24437:24803   */\n      swap2\n      swap1\n      pop\n      jump\t// out\n        /* \"#utility.yul\":24809:25228   */\n    tag_178:\n        /* \"#utility.yul\":24975:24979   */\n      0x00\n        /* \"#utility.yul\":25013:25015   */\n      0x20\n        /* \"#utility.yul\":25002:25011   */\n      dup3\n        /* \"#utility.yul\":24998:25016   */\n      add\n        /* \"#utility.yul\":24990:25016   */\n      swap1\n      pop\n        /* \"#utility.yul\":25062:25071   */\n      dup2\n        /* \"#utility.yul\":25056:25060   */\n      dup2\n        /* \"#utility.yul\":25052:25072   */\n      sub\n        /* \"#utility.yul\":25048:25049   */\n      0x00\n        /* \"#utility.yul\":25037:25046   */\n      dup4\n        /* \"#utility.yul\":25033:25050   */\n      add\n        /* \"#utility.yul\":25026:25073   */\n      mstore\n        /* \"#utility.yul\":25090:25221   */\n      tag_594\n        /* \"#utility.yul\":25216:25220   */\n      dup2\n        /* \"#utility.yul\":25090:25221   */\n      tag_321\n      jump\t// in\n    tag_594:\n        /* \"#utility.yul\":25082:25221   */\n      swap1\n      pop\n        /* \"#utility.yul\":24809:25228   */\n      swap2\n      swap1\n      pop\n      jump\t// out\n        /* \"#utility.yul\":25234:25399   */\n    tag_322:\n        /* \"#utility.yul\":25374:25391   */\n      0x5472616e73666572206661696c65640000000000000000000000000000000000\n        /* \"#utility.yul\":25370:25371   */\n      0x00\n        /* \"#utility.yul\":25362:25368   */\n      dup3\n        /* \"#utility.yul\":25358:25372   */\n      add\n        /* \"#utility.yul\":25351:25392   */\n      mstore\n        /* \"#utility.yul\":25234:25399   */\n      pop\n      jump\t// out\n        /* \"#utility.yul\":25405:25771   */\n    tag_323:\n        /* \"#utility.yul\":25547:25550   */\n      0x00\n        /* \"#utility.yul\":25568:25635   */\n      tag_597\n        /* \"#utility.yul\":25632:25634   */\n      0x0f\n        /* \"#utility.yul\":25627:25630   */\n      dup4\n        /* \"#utility.yul\":25568:25635   */\n      tag_291\n      jump\t// in\n    tag_597:\n        /* \"#utility.yul\":25561:25635   */\n      swap2\n      pop\n        /* \"#utility.yul\":25644:25737   */\n      tag_598\n        /* \"#utility.yul\":25733:25736   */\n      dup3\n        /* \"#utility.yul\":25644:25737   */\n      tag_322\n      jump\t// in\n    tag_598:\n        /* \"#utility.yul\":25762:25764   */\n      0x20\n        /* \"#utility.yul\":25757:25760   */\n      dup3\n        /* \"#utility.yul\":25753:25765   */\n      add\n        /* \"#utility.yul\":25746:25765   */\n      swap1\n      pop\n        /* \"#utility.yul\":25405:25771   */\n      swap2\n      swap1\n      pop\n      jump\t// out\n        /* \"#utility.yul\":25777:26196   */\n    tag_186:\n        /* \"#utility.yul\":25943:25947   */\n      0x00\n        /* \"#utility.yul\":25981:25983   */\n      0x20\n        /* \"#utility.yul\":25970:25979   */\n      dup3\n        /* \"#utility.yul\":25966:25984   */\n      add\n        /* \"#utility.yul\":25958:25984   */\n      swap1\n      pop\n        /* \"#utility.yul\":26030:26039   */\n      dup2\n        /* \"#utility.yul\":26024:26028   */\n      dup2\n        /* \"#utility.yul\":26020:26040   */\n      sub\n        /* \"#utility.yul\":26016:26017   */\n      0x00\n        /* \"#utility.yul\":26005:26014   */\n      dup4\n        /* \"#utility.yul\":26001:26018   */\n      add\n        /* \"#utility.yul\":25994:26041   */\n      mstore\n        /* \"#utility.yul\":26058:26189   */\n      tag_600\n        /* \"#utility.yul\":26184:26188   */\n      dup2\n        /* \"#utility.yul\":26058:26189   */\n      tag_323\n      jump\t// in\n    tag_600:\n        /* \"#utility.yul\":26050:26189   */\n      swap1\n      pop\n        /* \"#utility.yul\":25777:26196   */\n      swap2\n      swap1\n      pop\n      jump\t// out\n        /* \"#utility.yul\":26202:26287   */\n    tag_324:\n        /* \"#utility.yul\":26247:26254   */\n      0x00\n        /* \"#utility.yul\":26276:26281   */\n      dup2\n        /* \"#utility.yul\":26265:26281   */\n      swap1\n      pop\n        /* \"#utility.yul\":26202:26287   */\n      swap2\n      swap1\n      pop\n      jump\t// out\n        /* \"#utility.yul\":26293:26451   */\n    tag_325:\n        /* \"#utility.yul\":26351:26360   */\n      0x00\n        /* \"#utility.yul\":26384:26445   */\n      tag_603\n        /* \"#utility.yul\":26402:26444   */\n      tag_604\n        /* \"#utility.yul\":26411:26443   */\n      tag_605\n        /* \"#utility.yul\":26437:26442   */\n      dup5\n        /* \"#utility.yul\":26411:26443   */\n      tag_324\n      jump\t// in\n    tag_605:\n        /* \"#utility.yul\":26402:26444   */\n      tag_286\n      jump\t// in\n    tag_604:\n        /* \"#utility.yul\":26384:26445   */\n      tag_271\n      jump\t// in\n    tag_603:\n        /* \"#utility.yul\":26371:26445   */\n      swap1\n      pop\n        /* \"#utility.yul\":26293:26451   */\n      swap2\n      swap1\n      pop\n      jump\t// out\n        /* \"#utility.yul\":26457:26604   */\n    tag_326:\n        /* \"#utility.yul\":26552:26597   */\n      tag_607\n        /* \"#utility.yul\":26591:26596   */\n      dup2\n        /* \"#utility.yul\":26552:26597   */\n      tag_325\n      jump\t// in\n    tag_607:\n        /* \"#utility.yul\":26547:26550   */\n      dup3\n        /* \"#utility.yul\":26540:26598   */\n      mstore\n        /* \"#utility.yul\":26457:26604   */\n      pop\n      pop\n      jump\t// out\n        /* \"#utility.yul\":26610:27179   */\n    tag_188:\n        /* \"#utility.yul\":26795:26799   */\n      0x00\n        /* \"#utility.yul\":26833:26836   */\n      0x80\n        /* \"#utility.yul\":26822:26831   */\n      dup3\n        /* \"#utility.yul\":26818:26837   */\n      add\n        /* \"#utility.yul\":26810:26837   */\n      swap1\n      pop\n        /* \"#utility.yul\":26847:26918   */\n      tag_609\n        /* \"#utility.yul\":26915:26916   */\n      0x00\n        /* \"#utility.yul\":26904:26913   */\n      dup4\n        /* \"#utility.yul\":26900:26917   */\n      add\n        /* \"#utility.yul\":26891:26897   */\n      dup8\n        /* \"#utility.yul\":26847:26918   */\n      tag_281\n      jump\t// in\n    tag_609:\n        /* \"#utility.yul\":26928:27000   */\n      tag_610\n        /* \"#utility.yul\":26996:26998   */\n      0x20\n        /* \"#utility.yul\":26985:26994   */\n      dup4\n        /* \"#utility.yul\":26981:26999   */\n      add\n        /* \"#utility.yul\":26972:26978   */\n      dup7\n        /* \"#utility.yul\":26928:27000   */\n      tag_274\n      jump\t// in\n    tag_610:\n        /* \"#utility.yul\":27010:27090   */\n      tag_611\n        /* \"#utility.yul\":27086:27088   */\n      0x40\n        /* \"#utility.yul\":27075:27084   */\n      dup4\n        /* \"#utility.yul\":27071:27089   */\n      add\n        /* \"#utility.yul\":27062:27068   */\n      dup6\n        /* \"#utility.yul\":27010:27090   */\n      tag_326\n      jump\t// in\n    tag_611:\n        /* \"#utility.yul\":27100:27172   */\n      tag_612\n        /* \"#utility.yul\":27168:27170   */\n      0x60\n        /* \"#utility.yul\":27157:27166   */\n      dup4\n        /* \"#utility.yul\":27153:27171   */\n      add\n        /* \"#utility.yul\":27144:27150   */\n      dup5\n        /* \"#utility.yul\":27100:27172   */\n      tag_274\n      jump\t// in\n    tag_612:\n        /* \"#utility.yul\":26610:27179   */\n      swap6\n      swap5\n      pop\n      pop\n      pop\n      pop\n      pop\n      jump\t// out\n        /* \"#utility.yul\":27185:27262   */\n    tag_327:\n        /* \"#utility.yul\":27222:27229   */\n      0x00\n        /* \"#utility.yul\":27251:27256   */\n      dup2\n        /* \"#utility.yul\":27240:27256   */\n      swap1\n      pop\n        /* \"#utility.yul\":27185:27262   */\n      swap2\n      swap1\n      pop\n      jump\t// out\n        /* \"#utility.yul\":27268:27376   */\n    tag_328:\n        /* \"#utility.yul\":27345:27369   */\n      tag_615\n        /* \"#utility.yul\":27363:27368   */\n      dup2\n        /* \"#utility.yul\":27345:27369   */\n      tag_327\n      jump\t// in\n    tag_615:\n        /* \"#utility.yul\":27340:27343   */\n      dup3\n        /* \"#utility.yul\":27333:27370   */\n      mstore\n        /* \"#utility.yul\":27268:27376   */\n      pop\n      pop\n      jump\t// out\n        /* \"#utility.yul\":27382:27490   */\n    tag_329:\n        /* \"#utility.yul\":27459:27483   */\n      tag_617\n        /* \"#utility.yul\":27477:27482   */\n      dup2\n        /* \"#utility.yul\":27459:27483   */\n      tag_271\n      jump\t// in\n    tag_617:\n        /* \"#utility.yul\":27454:27457   */\n      dup3\n        /* \"#utility.yul\":27447:27484   */\n      mstore\n        /* \"#utility.yul\":27382:27490   */\n      pop\n      pop\n      jump\t// out\n        /* \"#utility.yul\":27496:27585   */\n    tag_330:\n        /* \"#utility.yul\":27532:27539   */\n      0x00\n        /* \"#utility.yul\":27572:27578   */\n      0xffff\n        /* \"#utility.yul\":27565:27570   */\n      dup3\n        /* \"#utility.yul\":27561:27579   */\n      and\n        /* \"#utility.yul\":27550:27579   */\n      swap1\n      pop\n        /* \"#utility.yul\":27496:27585   */\n      swap2\n      swap1\n      pop\n      jump\t// out\n        /* \"#utility.yul\":27591:27696   */\n    tag_331:\n        /* \"#utility.yul\":27666:27689   */\n      tag_620\n        /* \"#utility.yul\":27683:27688   */\n      dup2\n        /* \"#utility.yul\":27666:27689   */\n      tag_330\n      jump\t// in\n    tag_620:\n        /* \"#utility.yul\":27661:27664   */\n      dup3\n        /* \"#utility.yul\":27654:27690   */\n      mstore\n        /* \"#utility.yul\":27591:27696   */\n      pop\n      pop\n      jump\t// out\n        /* \"#utility.yul\":27702:27795   */\n    tag_332:\n        /* \"#utility.yul\":27738:27745   */\n      0x00\n        /* \"#utility.yul\":27778:27788   */\n      0xffffffff\n        /* \"#utility.yul\":27771:27776   */\n      dup3\n        /* \"#utility.yul\":27767:27789   */\n      and\n        /* \"#utility.yul\":27756:27789   */\n      swap1\n      pop\n        /* \"#utility.yul\":27702:27795   */\n      swap2\n      swap1\n      pop\n      jump\t// out\n        /* \"#utility.yul\":27801:27906   */\n    tag_333:\n        /* \"#utility.yul\":27876:27899   */\n      tag_623\n        /* \"#utility.yul\":27893:27898   */\n      dup2\n        /* \"#utility.yul\":27876:27899   */\n      tag_332\n      jump\t// in\n    tag_623:\n        /* \"#utility.yul\":27871:27874   */\n      dup3\n        /* \"#utility.yul\":27864:27900   */\n      mstore\n        /* \"#utility.yul\":27801:27906   */\n      pop\n      pop\n      jump\t// out\n        /* \"#utility.yul\":27912:28010   */\n    tag_334:\n        /* \"#utility.yul\":27963:27969   */\n      0x00\n        /* \"#utility.yul\":27997:28002   */\n      dup2\n        /* \"#utility.yul\":27991:28003   */\n      mload\n        /* \"#utility.yul\":27981:28003   */\n      swap1\n      pop\n        /* \"#utility.yul\":27912:28010   */\n      swap2\n      swap1\n      pop\n      jump\t// out\n        /* \"#utility.yul\":28016:28174   */\n    tag_335:\n        /* \"#utility.yul\":28089:28100   */\n      0x00\n        /* \"#utility.yul\":28123:28129   */\n      dup3\n        /* \"#utility.yul\":28118:28121   */\n      dup3\n        /* \"#utility.yul\":28111:28130   */\n      mstore\n        /* \"#utility.yul\":28163:28167   */\n      0x20\n        /* \"#utility.yul\":28158:28161   */\n      dup3\n        /* \"#utility.yul\":28154:28168   */\n      add\n        /* \"#utility.yul\":28139:28168   */\n      swap1\n      pop\n        /* \"#utility.yul\":28016:28174   */\n      swap3\n      swap2\n      pop\n      pop\n      jump\t// out\n        /* \"#utility.yul\":28180:28319   */\n    tag_336:\n        /* \"#utility.yul\":28269:28275   */\n      dup3\n        /* \"#utility.yul\":28264:28267   */\n      dup2\n        /* \"#utility.yul\":28259:28262   */\n      dup4\n        /* \"#utility.yul\":28253:28276   */\n      mcopy\n        /* \"#utility.yul\":28310:28311   */\n      0x00\n        /* \"#utility.yul\":28301:28307   */\n      dup4\n        /* \"#utility.yul\":28296:28299   */\n      dup4\n        /* \"#utility.yul\":28292:28308   */\n      add\n        /* \"#utility.yul\":28285:28312   */\n      mstore\n        /* \"#utility.yul\":28180:28319   */\n      pop\n      pop\n      pop\n      jump\t// out\n        /* \"#utility.yul\":28325:28427   */\n    tag_337:\n        /* \"#utility.yul\":28366:28372   */\n      0x00\n        /* \"#utility.yul\":28417:28419   */\n      0x1f\n        /* \"#utility.yul\":28413:28420   */\n      not\n        /* \"#utility.yul\":28408:28410   */\n      0x1f\n        /* \"#utility.yul\":28401:28406   */\n      dup4\n        /* \"#utility.yul\":28397:28411   */\n      add\n        /* \"#utility.yul\":28393:28421   */\n      and\n        /* \"#utility.yul\":28383:28421   */\n      swap1\n      pop\n        /* \"#utility.yul\":28325:28427   */\n      swap2\n      swap1\n      pop\n      jump\t// out\n        /* \"#utility.yul\":28433:28786   */\n    tag_338:\n        /* \"#utility.yul\":28509:28512   */\n      0x00\n        /* \"#utility.yul\":28537:28575   */\n      tag_629\n        /* \"#utility.yul\":28569:28574   */\n      dup3\n        /* \"#utility.yul\":28537:28575   */\n      tag_334\n      jump\t// in\n    tag_629:\n        /* \"#utility.yul\":28591:28651   */\n      tag_630\n        /* \"#utility.yul\":28644:28650   */\n      dup2\n        /* \"#utility.yul\":28639:28642   */\n      dup6\n        /* \"#utility.yul\":28591:28651   */\n      tag_335\n      jump\t// in\n    tag_630:\n        /* \"#utility.yul\":28584:28651   */\n      swap4\n      pop\n        /* \"#utility.yul\":28660:28725   */\n      tag_631\n        /* \"#utility.yul\":28718:28724   */\n      dup2\n        /* \"#utility.yul\":28713:28716   */\n      dup6\n        /* \"#utility.yul\":28706:28710   */\n      0x20\n        /* \"#utility.yul\":28699:28704   */\n      dup7\n        /* \"#utility.yul\":28695:28711   */\n      add\n        /* \"#utility.yul\":28660:28725   */\n      tag_336\n      jump\t// in\n    tag_631:\n        /* \"#utility.yul\":28750:28779   */\n      tag_632\n        /* \"#utility.yul\":28772:28778   */\n      dup2\n        /* \"#utility.yul\":28750:28779   */\n      tag_337\n      jump\t// in\n    tag_632:\n        /* \"#utility.yul\":28745:28748   */\n      dup5\n        /* \"#utility.yul\":28741:28780   */\n      add\n        /* \"#utility.yul\":28734:28780   */\n      swap2\n      pop\n        /* \"#utility.yul\":28513:28786   */\n      pop\n        /* \"#utility.yul\":28433:28786   */\n      swap3\n      swap2\n      pop\n      pop\n      jump\t// out\n        /* \"#utility.yul\":28886:30241   */\n    tag_339:\n        /* \"#utility.yul\":29025:29028   */\n      0x00\n        /* \"#utility.yul\":29061:29065   */\n      0xc0\n        /* \"#utility.yul\":29056:29059   */\n      dup4\n        /* \"#utility.yul\":29052:29066   */\n      add\n        /* \"#utility.yul\":29151:29155   */\n      0x00\n        /* \"#utility.yul\":29144:29149   */\n      dup4\n        /* \"#utility.yul\":29140:29156   */\n      add\n        /* \"#utility.yul\":29134:29157   */\n      mload\n        /* \"#utility.yul\":29170:29233   */\n      tag_634\n        /* \"#utility.yul\":29227:29231   */\n      0x00\n        /* \"#utility.yul\":29222:29225   */\n      dup7\n        /* \"#utility.yul\":29218:29232   */\n      add\n        /* \"#utility.yul\":29204:29216   */\n      dup3\n        /* \"#utility.yul\":29170:29233   */\n      tag_328\n      jump\t// in\n    tag_634:\n        /* \"#utility.yul\":29076:29243   */\n      pop\n        /* \"#utility.yul\":29326:29330   */\n      0x20\n        /* \"#utility.yul\":29319:29324   */\n      dup4\n        /* \"#utility.yul\":29315:29331   */\n      add\n        /* \"#utility.yul\":29309:29332   */\n      mload\n        /* \"#utility.yul\":29345:29408   */\n      tag_635\n        /* \"#utility.yul\":29402:29406   */\n      0x20\n        /* \"#utility.yul\":29397:29400   */\n      dup7\n        /* \"#utility.yul\":29393:29407   */\n      add\n        /* \"#utility.yul\":29379:29391   */\n      dup3\n        /* \"#utility.yul\":29345:29408   */\n      tag_329\n      jump\t// in\n    tag_635:\n        /* \"#utility.yul\":29253:29418   */\n      pop\n        /* \"#utility.yul\":29516:29520   */\n      0x40\n        /* \"#utility.yul\":29509:29514   */\n      dup4\n        /* \"#utility.yul\":29505:29521   */\n      add\n        /* \"#utility.yul\":29499:29522   */\n      mload\n        /* \"#utility.yul\":29535:29596   */\n      tag_636\n        /* \"#utility.yul\":29590:29594   */\n      0x40\n        /* \"#utility.yul\":29585:29588   */\n      dup7\n        /* \"#utility.yul\":29581:29595   */\n      add\n        /* \"#utility.yul\":29567:29579   */\n      dup3\n        /* \"#utility.yul\":29535:29596   */\n      tag_331\n      jump\t// in\n    tag_636:\n        /* \"#utility.yul\":29428:29606   */\n      pop\n        /* \"#utility.yul\":29700:29704   */\n      0x60\n        /* \"#utility.yul\":29693:29698   */\n      dup4\n        /* \"#utility.yul\":29689:29705   */\n      add\n        /* \"#utility.yul\":29683:29706   */\n      mload\n        /* \"#utility.yul\":29719:29780   */\n      tag_637\n        /* \"#utility.yul\":29774:29778   */\n      0x60\n        /* \"#utility.yul\":29769:29772   */\n      dup7\n        /* \"#utility.yul\":29765:29779   */\n      add\n        /* \"#utility.yul\":29751:29763   */\n      dup3\n        /* \"#utility.yul\":29719:29780   */\n      tag_333\n      jump\t// in\n    tag_637:\n        /* \"#utility.yul\":29616:29790   */\n      pop\n        /* \"#utility.yul\":29876:29880   */\n      0x80\n        /* \"#utility.yul\":29869:29874   */\n      dup4\n        /* \"#utility.yul\":29865:29881   */\n      add\n        /* \"#utility.yul\":29859:29882   */\n      mload\n        /* \"#utility.yul\":29895:29956   */\n      tag_638\n        /* \"#utility.yul\":29950:29954   */\n      0x80\n        /* \"#utility.yul\":29945:29948   */\n      dup7\n        /* \"#utility.yul\":29941:29955   */\n      add\n        /* \"#utility.yul\":29927:29939   */\n      dup3\n        /* \"#utility.yul\":29895:29956   */\n      tag_333\n      jump\t// in\n    tag_638:\n        /* \"#utility.yul\":29800:29966   */\n      pop\n        /* \"#utility.yul\":30053:30057   */\n      0xa0\n        /* \"#utility.yul\":30046:30051   */\n      dup4\n        /* \"#utility.yul\":30042:30058   */\n      add\n        /* \"#utility.yul\":30036:30059   */\n      mload\n        /* \"#utility.yul\":30106:30109   */\n      dup5\n        /* \"#utility.yul\":30100:30104   */\n      dup3\n        /* \"#utility.yul\":30096:30110   */\n      sub\n        /* \"#utility.yul\":30089:30093   */\n      0xa0\n        /* \"#utility.yul\":30084:30087   */\n      dup7\n        /* \"#utility.yul\":30080:30094   */\n      add\n        /* \"#utility.yul\":30073:30111   */\n      mstore\n        /* \"#utility.yul\":30132:30203   */\n      tag_639\n        /* \"#utility.yul\":30198:30202   */\n      dup3\n        /* \"#utility.yul\":30184:30196   */\n      dup3\n        /* \"#utility.yul\":30132:30203   */\n      tag_338\n      jump\t// in\n    tag_639:\n        /* \"#utility.yul\":30124:30203   */\n      swap2\n      pop\n        /* \"#utility.yul\":29976:30214   */\n      pop\n        /* \"#utility.yul\":30231:30235   */\n      dup1\n        /* \"#utility.yul\":30224:30235   */\n      swap2\n      pop\n        /* \"#utility.yul\":29030:30241   */\n      pop\n        /* \"#utility.yul\":28886:30241   */\n      swap3\n      swap2\n      pop\n      pop\n      jump\t// out\n        /* \"#utility.yul\":30247:30660   */\n    tag_193:\n        /* \"#utility.yul\":30410:30414   */\n      0x00\n        /* \"#utility.yul\":30448:30450   */\n      0x20\n        /* \"#utility.yul\":30437:30446   */\n      dup3\n        /* \"#utility.yul\":30433:30451   */\n      add\n        /* \"#utility.yul\":30425:30451   */\n      swap1\n      pop\n        /* \"#utility.yul\":30497:30506   */\n      dup2\n        /* \"#utility.yul\":30491:30495   */\n      dup2\n        /* \"#utility.yul\":30487:30507   */\n      sub\n        /* \"#utility.yul\":30483:30484   */\n      0x00\n        /* \"#utility.yul\":30472:30481   */\n      dup4\n        /* \"#utility.yul\":30468:30485   */\n      add\n        /* \"#utility.yul\":30461:30508   */\n      mstore\n        /* \"#utility.yul\":30525:30653   */\n      tag_641\n        /* \"#utility.yul\":30648:30652   */\n      dup2\n        /* \"#utility.yul\":30639:30645   */\n      dup5\n        /* \"#utility.yul\":30525:30653   */\n      tag_339\n      jump\t// in\n    tag_641:\n        /* \"#utility.yul\":30517:30653   */\n      swap1\n      pop\n        /* \"#utility.yul\":30247:30660   */\n      swap3\n      swap2\n      pop\n      pop\n      jump\t// out\n        /* \"#utility.yul\":30666:30809   */\n    tag_340:\n        /* \"#utility.yul\":30723:30728   */\n      0x00\n        /* \"#utility.yul\":30754:30760   */\n      dup2\n        /* \"#utility.yul\":30748:30761   */\n      mload\n        /* \"#utility.yul\":30739:30761   */\n      swap1\n      pop\n        /* \"#utility.yul\":30770:30803   */\n      tag_643\n        /* \"#utility.yul\":30797:30802   */\n      dup2\n        /* \"#utility.yul\":30770:30803   */\n      tag_272\n      jump\t// in\n    tag_643:\n        /* \"#utility.yul\":30666:30809   */\n      swap3\n      swap2\n      pop\n      pop\n      jump\t// out\n        /* \"#utility.yul\":30815:31166   */\n    tag_197:\n        /* \"#utility.yul\":30885:30891   */\n      0x00\n        /* \"#utility.yul\":30934:30936   */\n      0x20\n        /* \"#utility.yul\":30922:30931   */\n      dup3\n        /* \"#utility.yul\":30913:30920   */\n      dup5\n        /* \"#utility.yul\":30909:30932   */\n      sub\n        /* \"#utility.yul\":30905:30937   */\n      slt\n        /* \"#utility.yul\":30902:31021   */\n      iszero\n      tag_645\n      jumpi\n        /* \"#utility.yul\":30940:31019   */\n      tag_646\n      tag_269\n      jump\t// in\n    tag_646:\n        /* \"#utility.yul\":30902:31021   */\n    tag_645:\n        /* \"#utility.yul\":31060:31061   */\n      0x00\n        /* \"#utility.yul\":31085:31149   */\n      tag_647\n        /* \"#utility.yul\":31141:31148   */\n      dup5\n        /* \"#utility.yul\":31132:31138   */\n      dup3\n        /* \"#utility.yul\":31121:31130   */\n      dup6\n        /* \"#utility.yul\":31117:31139   */\n      add\n        /* \"#utility.yul\":31085:31149   */\n      tag_340\n      jump\t// in\n    tag_647:\n        /* \"#utility.yul\":31075:31149   */\n      swap2\n      pop\n        /* \"#utility.yul\":31031:31159   */\n      pop\n        /* \"#utility.yul\":30815:31166   */\n      swap3\n      swap2\n      pop\n      pop\n      jump\t// out\n        /* \"#utility.yul\":31172:31344   */\n    tag_341:\n        /* \"#utility.yul\":31312:31336   */\n      0x4d7573742062652070726f706f736564206f776e657200000000000000000000\n        /* \"#utility.yul\":31308:31309   */\n      0x00\n        /* \"#utility.yul\":31300:31306   */\n      dup3\n        /* \"#utility.yul\":31296:31310   */\n      add\n        /* \"#utility.yul\":31289:31337   */\n      mstore\n        /* \"#utility.yul\":31172:31344   */\n      pop\n      jump\t// out\n        /* \"#utility.yul\":31350:31716   */\n    tag_342:\n        /* \"#utility.yul\":31492:31495   */\n      0x00\n        /* \"#utility.yul\":31513:31580   */\n      tag_650\n        /* \"#utility.yul\":31577:31579   */\n      0x16\n        /* \"#utility.yul\":31572:31575   */\n      dup4\n        /* \"#utility.yul\":31513:31580   */\n      tag_291\n      jump\t// in\n    tag_650:\n        /* \"#utility.yul\":31506:31580   */\n      swap2\n      pop\n        /* \"#utility.yul\":31589:31682   */\n      tag_651\n        /* \"#utility.yul\":31678:31681   */\n      dup3\n        /* \"#utility.yul\":31589:31682   */\n      tag_341\n      jump\t// in\n    tag_651:\n        /* \"#utility.yul\":31707:31709   */\n      0x20\n        /* \"#utility.yul\":31702:31705   */\n      dup3\n        /* \"#utility.yul\":31698:31710   */\n      add\n        /* \"#utility.yul\":31691:31710   */\n      swap1\n      pop\n        /* \"#utility.yul\":31350:31716   */\n      swap2\n      swap1\n      pop\n      jump\t// out\n        /* \"#utility.yul\":31722:32141   */\n    tag_202:\n        /* \"#utility.yul\":31888:31892   */\n      0x00\n        /* \"#utility.yul\":31926:31928   */\n      0x20\n        /* \"#utility.yul\":31915:31924   */\n      dup3\n        /* \"#utility.yul\":31911:31929   */\n      add\n        /* \"#utility.yul\":31903:31929   */\n      swap1\n      pop\n        /* \"#utility.yul\":31975:31984   */\n      dup2\n        /* \"#utility.yul\":31969:31973   */\n      dup2\n        /* \"#utility.yul\":31965:31985   */\n      sub\n        /* \"#utility.yul\":31961:31962   */\n      0x00\n        /* \"#utility.yul\":31950:31959   */\n      dup4\n        /* \"#utility.yul\":31946:31963   */\n      add\n        /* \"#utility.yul\":31939:31986   */\n      mstore\n        /* \"#utility.yul\":32003:32134   */\n      tag_653\n        /* \"#utility.yul\":32129:32133   */\n      dup2\n        /* \"#utility.yul\":32003:32134   */\n      tag_342\n      jump\t// in\n    tag_653:\n        /* \"#utility.yul\":31995:32134   */\n      swap1\n      pop\n        /* \"#utility.yul\":31722:32141   */\n      swap2\n      swap1\n      pop\n      jump\t// out\n        /* \"#utility.yul\":32147:32589   */\n    tag_211:\n        /* \"#utility.yul\":32296:32300   */\n      0x00\n        /* \"#utility.yul\":32334:32336   */\n      0x60\n        /* \"#utility.yul\":32323:32332   */\n      dup3\n        /* \"#utility.yul\":32319:32337   */\n      add\n        /* \"#utility.yul\":32311:32337   */\n      swap1\n      pop\n        /* \"#utility.yul\":32347:32418   */\n      tag_655\n        /* \"#utility.yul\":32415:32416   */\n      0x00\n        /* \"#utility.yul\":32404:32413   */\n      dup4\n        /* \"#utility.yul\":32400:32417   */\n      add\n        /* \"#utility.yul\":32391:32397   */\n      dup7\n        /* \"#utility.yul\":32347:32418   */\n      tag_281\n      jump\t// in\n    tag_655:\n        /* \"#utility.yul\":32428:32500   */\n      tag_656\n        /* \"#utility.yul\":32496:32498   */\n      0x20\n        /* \"#utility.yul\":32485:32494   */\n      dup4\n        /* \"#utility.yul\":32481:32499   */\n      add\n        /* \"#utility.yul\":32472:32478   */\n      dup6\n        /* \"#utility.yul\":32428:32500   */\n      tag_281\n      jump\t// in\n    tag_656:\n        /* \"#utility.yul\":32510:32582   */\n      tag_657\n        /* \"#utility.yul\":32578:32580   */\n      0x40\n        /* \"#utility.yul\":32567:32576   */\n      dup4\n        /* \"#utility.yul\":32563:32581   */\n      add\n        /* \"#utility.yul\":32554:32560   */\n      dup5\n        /* \"#utility.yul\":32510:32582   */\n      tag_281\n      jump\t// in\n    tag_657:\n        /* \"#utility.yul\":32147:32589   */\n      swap5\n      swap4\n      pop\n      pop\n      pop\n      pop\n      jump\t// out\n        /* \"#utility.yul\":32595:32765   */\n    tag_343:\n        /* \"#utility.yul\":32735:32757   */\n      0x636f7272656374206a6f696e2061646472657373000000000000000000000000\n        /* \"#utility.yul\":32731:32732   */\n      0x00\n        /* \"#utility.yul\":32723:32729   */\n      dup3\n        /* \"#utility.yul\":32719:32733   */\n      add\n        /* \"#utility.yul\":32712:32758   */\n      mstore\n        /* \"#utility.yul\":32595:32765   */\n      pop\n      jump\t// out\n        /* \"#utility.yul\":32771:33137   */\n    tag_344:\n        /* \"#utility.yul\":32913:32916   */\n      0x00\n        /* \"#utility.yul\":32934:33001   */\n      tag_660\n        /* \"#utility.yul\":32998:33000   */\n      0x14\n        /* \"#utility.yul\":32993:32996   */\n      dup4\n        /* \"#utility.yul\":32934:33001   */\n      tag_291\n      jump\t// in\n    tag_660:\n        /* \"#utility.yul\":32927:33001   */\n      swap2\n      pop\n        /* \"#utility.yul\":33010:33103   */\n      tag_661\n        /* \"#utility.yul\":33099:33102   */\n      dup3\n        /* \"#utility.yul\":33010:33103   */\n      tag_343\n      jump\t// in\n    tag_661:\n        /* \"#utility.yul\":33128:33130   */\n      0x20\n        /* \"#utility.yul\":33123:33126   */\n      dup3\n        /* \"#utility.yul\":33119:33131   */\n      add\n        /* \"#utility.yul\":33112:33131   */\n      swap1\n      pop\n        /* \"#utility.yul\":32771:33137   */\n      swap2\n      swap1\n      pop\n      jump\t// out\n        /* \"#utility.yul\":33143:33562   */\n    tag_218:\n        /* \"#utility.yul\":33309:33313   */\n      0x00\n        /* \"#utility.yul\":33347:33349   */\n      0x20\n        /* \"#utility.yul\":33336:33345   */\n      dup3\n        /* \"#utility.yul\":33332:33350   */\n      add\n        /* \"#utility.yul\":33324:33350   */\n      swap1\n      pop\n        /* \"#utility.yul\":33396:33405   */\n      dup2\n        /* \"#utility.yul\":33390:33394   */\n      dup2\n        /* \"#utility.yul\":33386:33406   */\n      sub\n        /* \"#utility.yul\":33382:33383   */\n      0x00\n        /* \"#utility.yul\":33371:33380   */\n      dup4\n        /* \"#utility.yul\":33367:33384   */\n      add\n        /* \"#utility.yul\":33360:33407   */\n      mstore\n        /* \"#utility.yul\":33424:33555   */\n      tag_663\n        /* \"#utility.yul\":33550:33554   */\n      dup2\n        /* \"#utility.yul\":33424:33555   */\n      tag_344\n      jump\t// in\n    tag_663:\n        /* \"#utility.yul\":33416:33555   */\n      swap1\n      pop\n        /* \"#utility.yul\":33143:33562   */\n      swap2\n      swap1\n      pop\n      jump\t// out\n        /* \"#utility.yul\":33568:33738   */\n    tag_345:\n        /* \"#utility.yul\":33708:33730   */\n      0x63757272656e74207461736b2068617320656e64000000000000000000000000\n        /* \"#utility.yul\":33704:33705   */\n      0x00\n        /* \"#utility.yul\":33696:33702   */\n      dup3\n        /* \"#utility.yul\":33692:33706   */\n      add\n        /* \"#utility.yul\":33685:33731   */\n      mstore\n        /* \"#utility.yul\":33568:33738   */\n      pop\n      jump\t// out\n        /* \"#utility.yul\":33744:34110   */\n    tag_346:\n        /* \"#utility.yul\":33886:33889   */\n      0x00\n        /* \"#utility.yul\":33907:33974   */\n      tag_666\n        /* \"#utility.yul\":33971:33973   */\n      0x14\n        /* \"#utility.yul\":33966:33969   */\n      dup4\n        /* \"#utility.yul\":33907:33974   */\n      tag_291\n      jump\t// in\n    tag_666:\n        /* \"#utility.yul\":33900:33974   */\n      swap2\n      pop\n        /* \"#utility.yul\":33983:34076   */\n      tag_667\n        /* \"#utility.yul\":34072:34075   */\n      dup3\n        /* \"#utility.yul\":33983:34076   */\n      tag_345\n      jump\t// in\n    tag_667:\n        /* \"#utility.yul\":34101:34103   */\n      0x20\n        /* \"#utility.yul\":34096:34099   */\n      dup3\n        /* \"#utility.yul\":34092:34104   */\n      add\n        /* \"#utility.yul\":34085:34104   */\n      swap1\n      pop\n        /* \"#utility.yul\":33744:34110   */\n      swap2\n      swap1\n      pop\n      jump\t// out\n        /* \"#utility.yul\":34116:34535   */\n    tag_222:\n        /* \"#utility.yul\":34282:34286   */\n      0x00\n        /* \"#utility.yul\":34320:34322   */\n      0x20\n        /* \"#utility.yul\":34309:34318   */\n      dup3\n        /* \"#utility.yul\":34305:34323   */\n      add\n        /* \"#utility.yul\":34297:34323   */\n      swap1\n      pop\n        /* \"#utility.yul\":34369:34378   */\n      dup2\n        /* \"#utility.yul\":34363:34367   */\n      dup2\n        /* \"#utility.yul\":34359:34379   */\n      sub\n        /* \"#utility.yul\":34355:34356   */\n      0x00\n        /* \"#utility.yul\":34344:34353   */\n      dup4\n        /* \"#utility.yul\":34340:34357   */\n      add\n        /* \"#utility.yul\":34333:34380   */\n      mstore\n        /* \"#utility.yul\":34397:34528   */\n      tag_669\n        /* \"#utility.yul\":34523:34527   */\n      dup2\n        /* \"#utility.yul\":34397:34528   */\n      tag_346\n      jump\t// in\n    tag_669:\n        /* \"#utility.yul\":34389:34528   */\n      swap1\n      pop\n        /* \"#utility.yul\":34116:34535   */\n      swap2\n      swap1\n      pop\n      jump\t// out\n        /* \"#utility.yul\":34541:34766   */\n    tag_347:\n        /* \"#utility.yul\":34681:34715   */\n      0x6a6f696e207072696365206d75737420626520626967207468616e207469636b\n        /* \"#utility.yul\":34677:34678   */\n      0x00\n        /* \"#utility.yul\":34669:34675   */\n      dup3\n        /* \"#utility.yul\":34665:34679   */\n      add\n        /* \"#utility.yul\":34658:34716   */\n      mstore\n        /* \"#utility.yul\":34750:34758   */\n      0x2070726963650000000000000000000000000000000000000000000000000000\n        /* \"#utility.yul\":34745:34747   */\n      0x20\n        /* \"#utility.yul\":34737:34743   */\n      dup3\n        /* \"#utility.yul\":34733:34748   */\n      add\n        /* \"#utility.yul\":34726:34759   */\n      mstore\n        /* \"#utility.yul\":34541:34766   */\n      pop\n      jump\t// out\n        /* \"#utility.yul\":34772:35138   */\n    tag_348:\n        /* \"#utility.yul\":34914:34917   */\n      0x00\n        /* \"#utility.yul\":34935:35002   */\n      tag_672\n        /* \"#utility.yul\":34999:35001   */\n      0x26\n        /* \"#utility.yul\":34994:34997   */\n      dup4\n        /* \"#utility.yul\":34935:35002   */\n      tag_291\n      jump\t// in\n    tag_672:\n        /* \"#utility.yul\":34928:35002   */\n      swap2\n      pop\n        /* \"#utility.yul\":35011:35104   */\n      tag_673\n        /* \"#utility.yul\":35100:35103   */\n      dup3\n        /* \"#utility.yul\":35011:35104   */\n      tag_347\n      jump\t// in\n    tag_673:\n        /* \"#utility.yul\":35129:35131   */\n      0x40\n        /* \"#utility.yul\":35124:35127   */\n      dup3\n        /* \"#utility.yul\":35120:35132   */\n      add\n        /* \"#utility.yul\":35113:35132   */\n      swap1\n      pop\n        /* \"#utility.yul\":34772:35138   */\n      swap2\n      swap1\n      pop\n      jump\t// out\n        /* \"#utility.yul\":35144:35563   */\n    tag_227:\n        /* \"#utility.yul\":35310:35314   */\n      0x00\n        /* \"#utility.yul\":35348:35350   */\n      0x20\n        /* \"#utility.yul\":35337:35346   */\n      dup3\n        /* \"#utility.yul\":35333:35351   */\n      add\n        /* \"#utility.yul\":35325:35351   */\n      swap1\n      pop\n        /* \"#utility.yul\":35397:35406   */\n      dup2\n        /* \"#utility.yul\":35391:35395   */\n      dup2\n        /* \"#utility.yul\":35387:35407   */\n      sub\n        /* \"#utility.yul\":35383:35384   */\n      0x00\n        /* \"#utility.yul\":35372:35381   */\n      dup4\n        /* \"#utility.yul\":35368:35385   */\n      add\n        /* \"#utility.yul\":35361:35408   */\n      mstore\n        /* \"#utility.yul\":35425:35556   */\n      tag_675\n        /* \"#utility.yul\":35551:35555   */\n      dup2\n        /* \"#utility.yul\":35425:35556   */\n      tag_348\n      jump\t// in\n    tag_675:\n        /* \"#utility.yul\":35417:35556   */\n      swap1\n      pop\n        /* \"#utility.yul\":35144:35563   */\n      swap2\n      swap1\n      pop\n      jump\t// out\n        /* \"#utility.yul\":35569:35803   */\n    tag_349:\n        /* \"#utility.yul\":35709:35743   */\n      0x796f7520686173206a6f696e2069742c706c656173652077616974696e67206c\n        /* \"#utility.yul\":35705:35706   */\n      0x00\n        /* \"#utility.yul\":35697:35703   */\n      dup3\n        /* \"#utility.yul\":35693:35707   */\n      add\n        /* \"#utility.yul\":35686:35744   */\n      mstore\n        /* \"#utility.yul\":35778:35795   */\n      0x75636b7920676f696e6720646f776e0000000000000000000000000000000000\n        /* \"#utility.yul\":35773:35775   */\n      0x20\n        /* \"#utility.yul\":35765:35771   */\n      dup3\n        /* \"#utility.yul\":35761:35776   */\n      add\n        /* \"#utility.yul\":35754:35796   */\n      mstore\n        /* \"#utility.yul\":35569:35803   */\n      pop\n      jump\t// out\n        /* \"#utility.yul\":35809:36175   */\n    tag_350:\n        /* \"#utility.yul\":35951:35954   */\n      0x00\n        /* \"#utility.yul\":35972:36039   */\n      tag_678\n        /* \"#utility.yul\":36036:36038   */\n      0x2f\n        /* \"#utility.yul\":36031:36034   */\n      dup4\n        /* \"#utility.yul\":35972:36039   */\n      tag_291\n      jump\t// in\n    tag_678:\n        /* \"#utility.yul\":35965:36039   */\n      swap2\n      pop\n        /* \"#utility.yul\":36048:36141   */\n      tag_679\n        /* \"#utility.yul\":36137:36140   */\n      dup3\n        /* \"#utility.yul\":36048:36141   */\n      tag_349\n      jump\t// in\n    tag_679:\n        /* \"#utility.yul\":36166:36168   */\n      0x40\n        /* \"#utility.yul\":36161:36164   */\n      dup3\n        /* \"#utility.yul\":36157:36169   */\n      add\n        /* \"#utility.yul\":36150:36169   */\n      swap1\n      pop\n        /* \"#utility.yul\":35809:36175   */\n      swap2\n      swap1\n      pop\n      jump\t// out\n        /* \"#utility.yul\":36181:36600   */\n    tag_230:\n        /* \"#utility.yul\":36347:36351   */\n      0x00\n        /* \"#utility.yul\":36385:36387   */\n      0x20\n        /* \"#utility.yul\":36374:36383   */\n      dup3\n        /* \"#utility.yul\":36370:36388   */\n      add\n        /* \"#utility.yul\":36362:36388   */\n      swap1\n      pop\n        /* \"#utility.yul\":36434:36443   */\n      dup2\n        /* \"#utility.yul\":36428:36432   */\n      dup2\n        /* \"#utility.yul\":36424:36444   */\n      sub\n        /* \"#utility.yul\":36420:36421   */\n      0x00\n        /* \"#utility.yul\":36409:36418   */\n      dup4\n        /* \"#utility.yul\":36405:36422   */\n      add\n        /* \"#utility.yul\":36398:36445   */\n      mstore\n        /* \"#utility.yul\":36462:36593   */\n      tag_681\n        /* \"#utility.yul\":36588:36592   */\n      dup2\n        /* \"#utility.yul\":36462:36593   */\n      tag_350\n      jump\t// in\n    tag_681:\n        /* \"#utility.yul\":36454:36593   */\n      swap1\n      pop\n        /* \"#utility.yul\":36181:36600   */\n      swap2\n      swap1\n      pop\n      jump\t// out\n        /* \"#utility.yul\":36606:36776   */\n    tag_351:\n        /* \"#utility.yul\":36746:36768   */\n      0x6e6f7420616c6c6c6f776564206a6f696e206974000000000000000000000000\n        /* \"#utility.yul\":36742:36743   */\n      0x00\n        /* \"#utility.yul\":36734:36740   */\n      dup3\n        /* \"#utility.yul\":36730:36744   */\n      add\n        /* \"#utility.yul\":36723:36769   */\n      mstore\n        /* \"#utility.yul\":36606:36776   */\n      pop\n      jump\t// out\n        /* \"#utility.yul\":36782:37148   */\n    tag_352:\n        /* \"#utility.yul\":36924:36927   */\n      0x00\n        /* \"#utility.yul\":36945:37012   */\n      tag_684\n        /* \"#utility.yul\":37009:37011   */\n      0x14\n        /* \"#utility.yul\":37004:37007   */\n      dup4\n        /* \"#utility.yul\":36945:37012   */\n      tag_291\n      jump\t// in\n    tag_684:\n        /* \"#utility.yul\":36938:37012   */\n      swap2\n      pop\n        /* \"#utility.yul\":37021:37114   */\n      tag_685\n        /* \"#utility.yul\":37110:37113   */\n      dup3\n        /* \"#utility.yul\":37021:37114   */\n      tag_351\n      jump\t// in\n    tag_685:\n        /* \"#utility.yul\":37139:37141   */\n      0x20\n        /* \"#utility.yul\":37134:37137   */\n      dup3\n        /* \"#utility.yul\":37130:37142   */\n      add\n        /* \"#utility.yul\":37123:37142   */\n      swap1\n      pop\n        /* \"#utility.yul\":36782:37148   */\n      swap2\n      swap1\n      pop\n      jump\t// out\n        /* \"#utility.yul\":37154:37573   */\n    tag_245:\n        /* \"#utility.yul\":37320:37324   */\n      0x00\n        /* \"#utility.yul\":37358:37360   */\n      0x20\n        /* \"#utility.yul\":37347:37356   */\n      dup3\n        /* \"#utility.yul\":37343:37361   */\n      add\n        /* \"#utility.yul\":37335:37361   */\n      swap1\n      pop\n        /* \"#utility.yul\":37407:37416   */\n      dup2\n        /* \"#utility.yul\":37401:37405   */\n      dup2\n        /* \"#utility.yul\":37397:37417   */\n      sub\n        /* \"#utility.yul\":37393:37394   */\n      0x00\n        /* \"#utility.yul\":37382:37391   */\n      dup4\n        /* \"#utility.yul\":37378:37395   */\n      add\n        /* \"#utility.yul\":37371:37418   */\n      mstore\n        /* \"#utility.yul\":37435:37566   */\n      tag_687\n        /* \"#utility.yul\":37561:37565   */\n      dup2\n        /* \"#utility.yul\":37435:37566   */\n      tag_352\n      jump\t// in\n    tag_687:\n        /* \"#utility.yul\":37427:37566   */\n      swap1\n      pop\n        /* \"#utility.yul\":37154:37573   */\n      swap2\n      swap1\n      pop\n      jump\t// out\n        /* \"#utility.yul\":37579:37811   */\n    tag_353:\n        /* \"#utility.yul\":37719:37753   */\n      0x637265617465206c75636b20696e697420726577617264206d75737420626520\n        /* \"#utility.yul\":37715:37716   */\n      0x00\n        /* \"#utility.yul\":37707:37713   */\n      dup3\n        /* \"#utility.yul\":37703:37717   */\n      add\n        /* \"#utility.yul\":37696:37754   */\n      mstore\n        /* \"#utility.yul\":37788:37803   */\n      0x626967207468616e207a65726f00000000000000000000000000000000000000\n        /* \"#utility.yul\":37783:37785   */\n      0x20\n        /* \"#utility.yul\":37775:37781   */\n      dup3\n        /* \"#utility.yul\":37771:37786   */\n      add\n        /* \"#utility.yul\":37764:37804   */\n      mstore\n        /* \"#utility.yul\":37579:37811   */\n      pop\n      jump\t// out\n        /* \"#utility.yul\":37817:38183   */\n    tag_354:\n        /* \"#utility.yul\":37959:37962   */\n      0x00\n        /* \"#utility.yul\":37980:38047   */\n      tag_690\n        /* \"#utility.yul\":38044:38046   */\n      0x2d\n        /* \"#utility.yul\":38039:38042   */\n      dup4\n        /* \"#utility.yul\":37980:38047   */\n      tag_291\n      jump\t// in\n    tag_690:\n        /* \"#utility.yul\":37973:38047   */\n      swap2\n      pop\n        /* \"#utility.yul\":38056:38149   */\n      tag_691\n        /* \"#utility.yul\":38145:38148   */\n      dup3\n        /* \"#utility.yul\":38056:38149   */\n      tag_353\n      jump\t// in\n    tag_691:\n        /* \"#utility.yul\":38174:38176   */\n      0x40\n        /* \"#utility.yul\":38169:38172   */\n      dup3\n        /* \"#utility.yul\":38165:38177   */\n      add\n        /* \"#utility.yul\":38158:38177   */\n      swap1\n      pop\n        /* \"#utility.yul\":37817:38183   */\n      swap2\n      swap1\n      pop\n      jump\t// out\n        /* \"#utility.yul\":38189:38608   */\n    tag_249:\n        /* \"#utility.yul\":38355:38359   */\n      0x00\n        /* \"#utility.yul\":38393:38395   */\n      0x20\n        /* \"#utility.yul\":38382:38391   */\n      dup3\n        /* \"#utility.yul\":38378:38396   */\n      add\n        /* \"#utility.yul\":38370:38396   */\n      swap1\n      pop\n        /* \"#utility.yul\":38442:38451   */\n      dup2\n        /* \"#utility.yul\":38436:38440   */\n      dup2\n        /* \"#utility.yul\":38432:38452   */\n      sub\n        /* \"#utility.yul\":38428:38429   */\n      0x00\n        /* \"#utility.yul\":38417:38426   */\n      dup4\n        /* \"#utility.yul\":38413:38430   */\n      add\n        /* \"#utility.yul\":38406:38453   */\n      mstore\n        /* \"#utility.yul\":38470:38601   */\n      tag_693\n        /* \"#utility.yul\":38596:38600   */\n      dup2\n        /* \"#utility.yul\":38470:38601   */\n      tag_354\n      jump\t// in\n    tag_693:\n        /* \"#utility.yul\":38462:38601   */\n      swap1\n      pop\n        /* \"#utility.yul\":38189:38608   */\n      swap2\n      swap1\n      pop\n      jump\t// out\n        /* \"#utility.yul\":38614:38786   */\n    tag_355:\n        /* \"#utility.yul\":38754:38778   */\n      0x4f6e6c792063616c6c61626c65206279206f776e657200000000000000000000\n        /* \"#utility.yul\":38750:38751   */\n      0x00\n        /* \"#utility.yul\":38742:38748   */\n      dup3\n        /* \"#utility.yul\":38738:38752   */\n      add\n        /* \"#utility.yul\":38731:38779   */\n      mstore\n        /* \"#utility.yul\":38614:38786   */\n      pop\n      jump\t// out\n        /* \"#utility.yul\":38792:39158   */\n    tag_356:\n        /* \"#utility.yul\":38934:38937   */\n      0x00\n        /* \"#utility.yul\":38955:39022   */\n      tag_696\n        /* \"#utility.yul\":39019:39021   */\n      0x16\n        /* \"#utility.yul\":39014:39017   */\n      dup4\n        /* \"#utility.yul\":38955:39022   */\n      tag_291\n      jump\t// in\n    tag_696:\n        /* \"#utility.yul\":38948:39022   */\n      swap2\n      pop\n        /* \"#utility.yul\":39031:39124   */\n      tag_697\n        /* \"#utility.yul\":39120:39123   */\n      dup3\n        /* \"#utility.yul\":39031:39124   */\n      tag_355\n      jump\t// in\n    tag_697:\n        /* \"#utility.yul\":39149:39151   */\n      0x20\n        /* \"#utility.yul\":39144:39147   */\n      dup3\n        /* \"#utility.yul\":39140:39152   */\n      add\n        /* \"#utility.yul\":39133:39152   */\n      swap1\n      pop\n        /* \"#utility.yul\":38792:39158   */\n      swap2\n      swap1\n      pop\n      jump\t// out\n        /* \"#utility.yul\":39164:39583   */\n    tag_255:\n        /* \"#utility.yul\":39330:39334   */\n      0x00\n        /* \"#utility.yul\":39368:39370   */\n      0x20\n        /* \"#utility.yul\":39357:39366   */\n      dup3\n        /* \"#utility.yul\":39353:39371   */\n      add\n        /* \"#utility.yul\":39345:39371   */\n      swap1\n      pop\n        /* \"#utility.yul\":39417:39426   */\n      dup2\n        /* \"#utility.yul\":39411:39415   */\n      dup2\n        /* \"#utility.yul\":39407:39427   */\n      sub\n        /* \"#utility.yul\":39403:39404   */\n      0x00\n        /* \"#utility.yul\":39392:39401   */\n      dup4\n        /* \"#utility.yul\":39388:39405   */\n      add\n        /* \"#utility.yul\":39381:39428   */\n      mstore\n        /* \"#utility.yul\":39445:39576   */\n      tag_699\n        /* \"#utility.yul\":39571:39575   */\n      dup2\n        /* \"#utility.yul\":39445:39576   */\n      tag_356\n      jump\t// in\n    tag_699:\n        /* \"#utility.yul\":39437:39576   */\n      swap1\n      pop\n        /* \"#utility.yul\":39164:39583   */\n      swap2\n      swap1\n      pop\n      jump\t// out\n        /* \"#utility.yul\":39589:39688   */\n    tag_357:\n        /* \"#utility.yul\":39660:39681   */\n      tag_701\n        /* \"#utility.yul\":39675:39680   */\n      dup2\n        /* \"#utility.yul\":39660:39681   */\n      tag_282\n      jump\t// in\n    tag_701:\n        /* \"#utility.yul\":39655:39658   */\n      dup3\n        /* \"#utility.yul\":39648:39682   */\n      mstore\n        /* \"#utility.yul\":39589:39688   */\n      pop\n      pop\n      jump\t// out\n        /* \"#utility.yul\":39774:40116   */\n    tag_358:\n        /* \"#utility.yul\":39927:39931   */\n      0x20\n        /* \"#utility.yul\":39922:39925   */\n      dup3\n        /* \"#utility.yul\":39918:39932   */\n      add\n        /* \"#utility.yul\":40023:40027   */\n      0x00\n        /* \"#utility.yul\":40016:40021   */\n      dup3\n        /* \"#utility.yul\":40012:40028   */\n      add\n        /* \"#utility.yul\":40006:40029   */\n      mload\n        /* \"#utility.yul\":40042:40099   */\n      tag_703\n        /* \"#utility.yul\":40093:40097   */\n      0x00\n        /* \"#utility.yul\":40088:40091   */\n      dup6\n        /* \"#utility.yul\":40084:40098   */\n      add\n        /* \"#utility.yul\":40070:40082   */\n      dup3\n        /* \"#utility.yul\":40042:40099   */\n      tag_357\n      jump\t// in\n    tag_703:\n        /* \"#utility.yul\":39942:40109   */\n      pop\n        /* \"#utility.yul\":39896:40116   */\n      pop\n        /* \"#utility.yul\":39774:40116   */\n      pop\n      pop\n      jump\t// out\n        /* \"#utility.yul\":40122:40456   */\n    tag_263:\n        /* \"#utility.yul\":40271:40275   */\n      0x00\n        /* \"#utility.yul\":40309:40311   */\n      0x20\n        /* \"#utility.yul\":40298:40307   */\n      dup3\n        /* \"#utility.yul\":40294:40312   */\n      add\n        /* \"#utility.yul\":40286:40312   */\n      swap1\n      pop\n        /* \"#utility.yul\":40322:40449   */\n      tag_705\n        /* \"#utility.yul\":40446:40447   */\n      0x00\n        /* \"#utility.yul\":40435:40444   */\n      dup4\n        /* \"#utility.yul\":40431:40448   */\n      add\n        /* \"#utility.yul\":40422:40428   */\n      dup5\n        /* \"#utility.yul\":40322:40449   */\n      tag_358\n      jump\t// in\n    tag_705:\n        /* \"#utility.yul\":40122:40456   */\n      swap3\n      swap2\n      pop\n      pop\n      jump\t// out\n        /* \"#utility.yul\":40462:40635   */\n    tag_359:\n        /* \"#utility.yul\":40602:40627   */\n      0x43616e6e6f74207472616e7366657220746f2073656c66000000000000000000\n        /* \"#utility.yul\":40598:40599   */\n      0x00\n        /* \"#utility.yul\":40590:40596   */\n      dup3\n        /* \"#utility.yul\":40586:40600   */\n      add\n        /* \"#utility.yul\":40579:40628   */\n      mstore\n        /* \"#utility.yul\":40462:40635   */\n      pop\n      jump\t// out\n        /* \"#utility.yul\":40641:41007   */\n    tag_360:\n        /* \"#utility.yul\":40783:40786   */\n      0x00\n        /* \"#utility.yul\":40804:40871   */\n      tag_708\n        /* \"#utility.yul\":40868:40870   */\n      0x17\n        /* \"#utility.yul\":40863:40866   */\n      dup4\n        /* \"#utility.yul\":40804:40871   */\n      tag_291\n      jump\t// in\n    tag_708:\n        /* \"#utility.yul\":40797:40871   */\n      swap2\n      pop\n        /* \"#utility.yul\":40880:40973   */\n      tag_709\n        /* \"#utility.yul\":40969:40972   */\n      dup3\n        /* \"#utility.yul\":40880:40973   */\n      tag_359\n      jump\t// in\n    tag_709:\n        /* \"#utility.yul\":40998:41000   */\n      0x20\n        /* \"#utility.yul\":40993:40996   */\n      dup3\n        /* \"#utility.yul\":40989:41001   */\n      add\n        /* \"#utility.yul\":40982:41001   */\n      swap1\n      pop\n        /* \"#utility.yul\":40641:41007   */\n      swap2\n      swap1\n      pop\n      jump\t// out\n        /* \"#utility.yul\":41013:41432   */\n    tag_267:\n        /* \"#utility.yul\":41179:41183   */\n      0x00\n        /* \"#utility.yul\":41217:41219   */\n      0x20\n        /* \"#utility.yul\":41206:41215   */\n      dup3\n        /* \"#utility.yul\":41202:41220   */\n      add\n        /* \"#utility.yul\":41194:41220   */\n      swap1\n      pop\n        /* \"#utility.yul\":41266:41275   */\n      dup2\n        /* \"#utility.yul\":41260:41264   */\n      dup2\n        /* \"#utility.yul\":41256:41276   */\n      sub\n        /* \"#utility.yul\":41252:41253   */\n      0x00\n        /* \"#utility.yul\":41241:41250   */\n      dup4\n        /* \"#utility.yul\":41237:41254   */\n      add\n        /* \"#utility.yul\":41230:41277   */\n      mstore\n        /* \"#utility.yul\":41294:41425   */\n      tag_711\n        /* \"#utility.yul\":41420:41424   */\n      dup2\n        /* \"#utility.yul\":41294:41425   */\n      tag_360\n      jump\t// in\n    tag_711:\n        /* \"#utility.yul\":41286:41425   */\n      swap1\n      pop\n        /* \"#utility.yul\":41013:41432   */\n      swap2\n      swap1\n      pop\n      jump\t// out\n\n    auxdata: 0xa2646970667358221220fa092303716cecd1c9a8278402692222337a4b03a6653539530d2a75fc25ea6164736f6c634300081e0033\n}\n",
				"bytecode": {
					"linkReferences": {},
					"object": "6080604052600360065f6101000a81548161ffff021916908361ffff1602179055506207a120600660026101000a81548163ffffffff021916908363ffffffff16021790555060016006806101000a81548163ffffffff021916908363ffffffff1602179055505f600a5f6101000a81548160ff021916908360ff16021790555034801561008b575f5ffd5b5060405161367938038061367983398181016040528101906100ad919061051f565b8333805f5f73ffffffffffffffffffffffffffffffffffffffff168273ffffffffffffffffffffffffffffffffffffffff160361011f576040517f08c379a0000000000000000000000000000000000000000000000000000000008152600401610116906105dd565b60405180910390fd5b815f5f6101000a81548173ffffffffffffffffffffffffffffffffffffffff021916908373ffffffffffffffffffffffffffffffffffffffff1602179055505f73ffffffffffffffffffffffffffffffffffffffff168173ffffffffffffffffffffffffffffffffffffffff16146101a1576101a08161033060201b60201c565b5b5050505f73ffffffffffffffffffffffffffffffffffffffff168173ffffffffffffffffffffffffffffffffffffffff1603610209576040517fd92e233d00000000000000000000000000000000000000000000000000000000815260040160405180910390fd5b8060025f6101000a81548173ffffffffffffffffffffffffffffffffffffffff021916908373ffffffffffffffffffffffffffffffffffffffff160217905550508360045f6101000a81548173ffffffffffffffffffffffffffffffffffffffff021916908373ffffffffffffffffffffffffffffffffffffffff1602179055508360025f6101000a81548173ffffffffffffffffffffffffffffffffffffffff021916908373ffffffffffffffffffffffffffffffffffffffff1602179055508260038190555081600581905550600160078190555080600b8190555033600d5f6101000a81548173ffffffffffffffffffffffffffffffffffffffff021916908373ffffffffffffffffffffffffffffffffffffffff16021790555050505050610663565b3373ffffffffffffffffffffffffffffffffffffffff168173ffffffffffffffffffffffffffffffffffffffff160361039e576040517f08c379a000000000000000000000000000000000000000000000000000000000815260040161039590610645565b60405180910390fd5b8060015f6101000a81548173ffffffffffffffffffffffffffffffffffffffff021916908373ffffffffffffffffffffffffffffffffffffffff1602179055508073ffffffffffffffffffffffffffffffffffffffff165f5f9054906101000a900473ffffffffffffffffffffffffffffffffffffffff1673ffffffffffffffffffffffffffffffffffffffff167fed8889f560326eb138920d842192f0eb3dd22b4f139c87a2c57538e05bae127860405160405180910390a350565b5f5ffd5b5f73ffffffffffffffffffffffffffffffffffffffff82169050919050565b5f6104888261045f565b9050919050565b6104988161047e565b81146104a2575f5ffd5b50565b5f815190506104b38161048f565b92915050565b5f819050919050565b6104cb816104b9565b81146104d5575f5ffd5b50565b5f815190506104e6816104c2565b92915050565b5f819050919050565b6104fe816104ec565b8114610508575f5ffd5b50565b5f81519050610519816104f5565b92915050565b5f5f5f5f608085870312156105375761053661045b565b5b5f610544878288016104a5565b9450506020610555878288016104d8565b93505060406105668782880161050b565b9250506060610577878288016104d8565b91505092959194509250565b5f82825260208201905092915050565b7f43616e6e6f7420736574206f776e657220746f207a65726f00000000000000005f82015250565b5f6105c7601883610583565b91506105d282610593565b602082019050919050565b5f6020820190508181035f8301526105f4816105bb565b9050919050565b7f43616e6e6f74207472616e7366657220746f2073656c660000000000000000005f82015250565b5f61062f601783610583565b915061063a826105fb565b602082019050919050565b5f6020820190508181035f83015261065c81610623565b9050919050565b613009806106705f395ff3fe608060405260043610610108575f3560e01c80638da5cb5b11610094578063c2ee3a0811610063578063c2ee3a0814610310578063e00dd1611461033a578063e578b0bb14610364578063f2fde38b146103a0578063f36b98fb146103c857610108565b80638da5cb5b146102785780638ea98117146102a25780639eccacf6146102ca578063a3fa9775146102f457610108565b80632e0f2625116100db5780632e0f2625146101a357806336068a56146101cd57806360b2a56a1461021057806379ba5097146102385780637ae316d01461024e57610108565b806303db19cf1461010c5780630fdb1c10146101345780631a735f181461013e5780631fe543e31461017b575b5f5ffd5b348015610117575f5ffd5b50610132600480360381019061012d9190611cbc565b6103f8565b005b61013c610789565b005b348015610149575f5ffd5b50610164600480360381019061015f9190611cbc565b610885565b604051610172929190611cf6565b60405180910390f35b348015610186575f5ffd5b506101a1600480360381019061019c9190611d7e565b6108a5565b005b3480156101ae575f5ffd5b506101b7610969565b6040516101c49190611ddb565b60405180910390f35b3480156101d8575f5ffd5b506101f360048036038101906101ee9190611cbc565b61096e565b604051610207989796959493929190611e4d565b60405180910390f35b34801561021b575f5ffd5b5061023660048036038101906102319190611cbc565b610a1a565b005b348015610243575f5ffd5b5061024c61100d565b005b348015610259575f5ffd5b5061026261119c565b60405161026f9190611ddb565b60405180910390f35b348015610283575f5ffd5b5061028c6111a5565b6040516102999190611ec9565b60405180910390f35b3480156102ad575f5ffd5b506102c860048036038101906102c39190611f0c565b6111cc565b005b3480156102d5575f5ffd5b506102de6113a9565b6040516102eb9190611f92565b60405180910390f35b61030e60048036038101906103099190611cbc565b6113ce565b005b34801561031b575f5ffd5b506103246116c6565b6040516103319190611ddb565b60405180910390f35b348015610345575f5ffd5b5061034e6116d7565b60405161035b9190611ddb565b60405180910390f35b34801561036f575f5ffd5b5061038a60048036038101906103859190611fab565b6116dd565b6040516103979190611ddb565b60405180910390f35b3480156103ab575f5ffd5b506103c660048036038101906103c19190611f0c565b611772565b005b6103e260048036038101906103dd9190611fe9565b611786565b6040516103ef9190611ddb565b60405180910390f35b5f60095f8381526020019081526020015f206040518060400160405290815f820154815260200160018201548152505090505f816020015111610470576040517f08c379a000000000000000000000000000000000000000000000000000000000815260040161046790612093565b60405180910390fd5b5f815f0151116104b5576040517f08c379a00000000000000000000000000000000000000000000000000000000081526004016104ac906120fb565b60405180910390fd5b5f60085f836020015181526020019081526020015f20905060011515816006015f9054906101000a900460ff16151514610524576040517f08c379a000000000000000000000000000000000000000000000000000000000815260040161051b90612163565b60405180910390fd5b5f81600801805490501161056d576040517f08c379a0000000000000000000000000000000000000000000000000000000008152600401610564906121cb565b60405180910390fd5b5f8160080180549050835f01516105849190612216565b90505f82600801828154811061059d5761059c612246565b5b905f5260205f20015f9054906101000a900473ffffffffffffffffffffffffffffffffffffffff1690505f6012600a6105d691906123cf565b662386f26fc1000085600201546105ed9190612419565b6105f7919061245a565b905080600c5f82825461060a919061248a565b925050819055505f8273ffffffffffffffffffffffffffffffffffffffff1682866002015461063991906124bd565b6040516106459061251d565b5f6040518083038185875af1925050503d805f811461067f576040519150601f19603f3d011682016040523d82523d5f602084013e610684565b606091505b50509050806106c8576040517f08c379a00000000000000000000000000000000000000000000000000000000081526004016106bf9061257b565b60405180910390fd5b82856004015f6101000a81548173ffffffffffffffffffffffffffffffffffffffff021916908373ffffffffffffffffffffffffffffffffffffffff1602179055505f856006015f6101000a81548160ff0219169083151502179055505f600a5f6101000a81548160ff021916908360ff1602179055507f4938abb0a1220e7b4a0dd8b149717aba799cd3d2263de30c997401abfa84524183876020015189426040516107789493929190612599565b60405180910390a150505050505050565b6107916119a8565b5f600c54116107d5576040517f08c379a00000000000000000000000000000000000000000000000000000000081526004016107cc90612626565b60405180910390fd5b5f600c5490505f600c81905550600d5f9054906101000a900473ffffffffffffffffffffffffffffffffffffffff1673ffffffffffffffffffffffffffffffffffffffff166108fc8290811502906040515f60405180830381858888f19350505050158015610846573d5f5f3e3d5ffd5b507f9e48992309be40ee6b621aa79b40adfc808eb591f3a3d551650cef9e516aeb0e33824260405161087a93929190612644565b60405180910390a150565b6009602052805f5260405f205f91509050805f0154908060010154905082565b60025f9054906101000a900473ffffffffffffffffffffffffffffffffffffffff1673ffffffffffffffffffffffffffffffffffffffff163373ffffffffffffffffffffffffffffffffffffffff1614610959573360025f9054906101000a900473ffffffffffffffffffffffffffffffffffffffff166040517f1cf993f4000000000000000000000000000000000000000000000000000000008152600401610950929190612679565b60405180910390fd5b610964838383611a38565b505050565b601281565b5f5f5f5f5f5f5f5f5f60085f8b81526020019081526020015f209050805f015481600101548260020154836003015f9054906101000a900473ffffffffffffffffffffffffffffffffffffffff16846004015f9054906101000a900473ffffffffffffffffffffffffffffffffffffffff168560050154866006015f9054906101000a900460ff1687600801805490509850985098509850985098509850985050919395975091939597565b5f8111610a5c576040517f08c379a0000000000000000000000000000000000000000000000000000000008152600401610a53906126ea565b60405180910390fd5b5f600a5f9054906101000a900460ff1660ff161115610ab0576040517f08c379a0000000000000000000000000000000000000000000000000000000008152600401610aa790612752565b60405180910390fd5b60085f8281526020019081526020015f205f01544211610b05576040517f08c379a0000000000000000000000000000000000000000000000000000000008152600401610afc906127ba565b60405180910390fd5b6001151560085f8381526020019081526020015f206006015f9054906101000a900460ff16151514610b6c576040517f08c379a0000000000000000000000000000000000000000000000000000000008152600401610b6390612163565b60405180910390fd5b3373ffffffffffffffffffffffffffffffffffffffff1660085f8381526020019081526020015f206003015f9054906101000a900473ffffffffffffffffffffffffffffffffffffffff1673ffffffffffffffffffffffffffffffffffffffff1614610c0d576040517f08c379a0000000000000000000000000000000000000000000000000000000008152600401610c0490612822565b60405180910390fd5b5f60085f8381526020019081526020015f206008018054905011610c66576040517f08c379a0000000000000000000000000000000000000000000000000000000008152600401610c5d9061288a565b60405180910390fd5b6001600a5f6101000a81548160ff021916908360ff160217905550600160085f8381526020019081526020015f206008018054905003610e69575f60085f8381526020019081526020015f206003015f9054906101000a900473ffffffffffffffffffffffffffffffffffffffff1673ffffffffffffffffffffffffffffffffffffffff1660085f8481526020019081526020015f2060020154604051610d0c9061251d565b5f6040518083038185875af1925050503d805f8114610d46576040519150601f19603f3d011682016040523d82523d5f602084013e610d4b565b606091505b5050905080610d8f576040517f08c379a0000000000000000000000000000000000000000000000000000000008152600401610d86906128f2565b60405180910390fd5b5f60085f8481526020019081526020015f206006015f6101000a81548160ff0219169083151502179055503360085f8481526020019081526020015f206004015f6101000a81548173ffffffffffffffffffffffffffffffffffffffff021916908373ffffffffffffffffffffffffffffffffffffffff1602179055505f600a5f6101000a81548160ff021916908360ff1602179055507f4938abb0a1220e7b4a0dd8b149717aba799cd3d2263de30c997401abfa84524133835f42604051610e5b9493929190612949565b60405180910390a15061100a565b5f60025f9054906101000a900473ffffffffffffffffffffffffffffffffffffffff1673ffffffffffffffffffffffffffffffffffffffff16639b1c385e6040518060c001604052806005548152602001600354815260200160065f9054906101000a900461ffff1661ffff168152602001600660029054906101000a900463ffffffff1663ffffffff16815260200160068054906101000a900463ffffffff1663ffffffff168152602001610f2f604051806020016040528060011515815250611abe565b8152506040518263ffffffff1660e01b8152600401610f4e9190612ae3565b6020604051808303815f875af1158015610f6a573d5f5f3e3d5ffd5b505050506040513d601f19601f82011682018060405250810190610f8e9190612b17565b905060405180604001604052805f81526020018381525060095f8381526020019081526020015f205f820151815f0155602082015181600101559050507fa553713effcfd3f3db01a02af9aa2f33afbc3f587a0594e927a1d58ac8a92b52338383426040516110009493929190612599565b60405180910390a1505b50565b60015f9054906101000a900473ffffffffffffffffffffffffffffffffffffffff1673ffffffffffffffffffffffffffffffffffffffff163373ffffffffffffffffffffffffffffffffffffffff161461109c576040517f08c379a000000000000000000000000000000000000000000000000000000000815260040161109390612b8c565b60405180910390fd5b5f5f5f9054906101000a900473ffffffffffffffffffffffffffffffffffffffff169050335f5f6101000a81548173ffffffffffffffffffffffffffffffffffffffff021916908373ffffffffffffffffffffffffffffffffffffffff1602179055505f60015f6101000a81548173ffffffffffffffffffffffffffffffffffffffff021916908373ffffffffffffffffffffffffffffffffffffffff1602179055503373ffffffffffffffffffffffffffffffffffffffff168173ffffffffffffffffffffffffffffffffffffffff167f8be0079c531659141344cd1fd0a4f28419497f9722a3daafe3b4186f6b6457e060405160405180910390a350565b5f600c54905090565b5f5f5f9054906101000a900473ffffffffffffffffffffffffffffffffffffffff16905090565b6111d46111a5565b73ffffffffffffffffffffffffffffffffffffffff163373ffffffffffffffffffffffffffffffffffffffff161415801561125c575060025f9054906101000a900473ffffffffffffffffffffffffffffffffffffffff1673ffffffffffffffffffffffffffffffffffffffff163373ffffffffffffffffffffffffffffffffffffffff1614155b156112ca573361126a6111a5565b60025f9054906101000a900473ffffffffffffffffffffffffffffffffffffffff166040517f061db9c10000000000000000000000000000000000000000000000000000000081526004016112c193929190612baa565b60405180910390fd5b5f73ffffffffffffffffffffffffffffffffffffffff168173ffffffffffffffffffffffffffffffffffffffff160361132f576040517fd92e233d00000000000000000000000000000000000000000000000000000000815260040160405180910390fd5b8060025f6101000a81548173ffffffffffffffffffffffffffffffffffffffff021916908373ffffffffffffffffffffffffffffffffffffffff1602179055507fd1a6a14209a385a964d036e404cb5cfb71f4000cdb03c9366292430787261be68160405161139e9190611ec9565b60405180910390a150565b60025f9054906101000a900473ffffffffffffffffffffffffffffffffffffffff1681565b5f73ffffffffffffffffffffffffffffffffffffffff163373ffffffffffffffffffffffffffffffffffffffff160361143c576040517f08c379a000000000000000000000000000000000000000000000000000000000815260040161143390612c29565b60405180910390fd5b5f60085f8381526020019081526020015f20905042815f0154111580156114665750428160010154115b6114a5576040517f08c379a000000000000000000000000000000000000000000000000000000000815260040161149c90612c91565b60405180910390fd5b60011515816006015f9054906101000a900460ff161515146114fc576040517f08c379a00000000000000000000000000000000000000000000000000000000081526004016114f390612163565b60405180910390fd5b8060050154341015611543576040517f08c379a000000000000000000000000000000000000000000000000000000000815260040161153a90612d1f565b60405180910390fd5b5f816007015f3373ffffffffffffffffffffffffffffffffffffffff1673ffffffffffffffffffffffffffffffffffffffff1681526020019081526020015f205411156115c5576040517f08c379a00000000000000000000000000000000000000000000000000000000081526004016115bc90612dad565b60405180910390fd5b34816002015f8282546115d8919061248a565b9250508190555034816007015f3373ffffffffffffffffffffffffffffffffffffffff1673ffffffffffffffffffffffffffffffffffffffff1681526020019081526020015f20819055508060080133908060018154018082558091505060019003905f5260205f20015f9091909190916101000a81548173ffffffffffffffffffffffffffffffffffffffff021916908373ffffffffffffffffffffffffffffffffffffffff1602179055507f2e86a4ea48e0ba7adc0ba18a20c7fb7b8e65257bbae7bc0816518c2e5e65cec0338334426040516116ba9493929190612599565b60405180910390a15050565b6012600a6116d491906123cf565b81565b60075481565b5f5f73ffffffffffffffffffffffffffffffffffffffff168273ffffffffffffffffffffffffffffffffffffffff1603611715575f5ffd5b5f60085f8581526020019081526020015f209050806007015f8473ffffffffffffffffffffffffffffffffffffffff1673ffffffffffffffffffffffffffffffffffffffff1681526020019081526020015f205491505092915050565b61177a6119a8565b61178381611b56565b50565b5f5f73ffffffffffffffffffffffffffffffffffffffff163373ffffffffffffffffffffffffffffffffffffffff16036117f5576040517f08c379a00000000000000000000000000000000000000000000000000000000081526004016117ec90612e15565b60405180910390fd5b5f341180156118065750600b543410155b611845576040517f08c379a000000000000000000000000000000000000000000000000000000000815260040161183c90612ea3565b60405180910390fd5b600160075f828254611857919061248a565b925050819055505f60085f60075481526020019081526020015f20905084815f018190555083816001018190555034816002018190555033816003015f6101000a81548173ffffffffffffffffffffffffffffffffffffffff021916908373ffffffffffffffffffffffffffffffffffffffff1602179055508281600501819055506001816006015f6101000a81548160ff02191690831515021790555034816007015f3373ffffffffffffffffffffffffffffffffffffffff1673ffffffffffffffffffffffffffffffffffffffff1681526020019081526020015f20819055508060080133908060018154018082558091505060019003905f5260205f20015f9091909190916101000a81548173ffffffffffffffffffffffffffffffffffffffff021916908373ffffffffffffffffffffffffffffffffffffffff1602179055506007549150509392505050565b5f5f9054906101000a900473ffffffffffffffffffffffffffffffffffffffff1673ffffffffffffffffffffffffffffffffffffffff163373ffffffffffffffffffffffffffffffffffffffff1614611a36576040517f08c379a0000000000000000000000000000000000000000000000000000000008152600401611a2d90612f0b565b60405180910390fd5b565b5f60095f8581526020019081526020015f2090505f816001015411611a92576040517f08c379a0000000000000000000000000000000000000000000000000000000008152600401611a8990612093565b60405180910390fd5b5f83835f818110611aa657611aa5612246565b5b90506020020135905080825f01819055505050505050565b60607f92fd13387c7fe7befbc38d303d6468778fb9731bc4583f17d92989c6fcfdeaaa82604051602401611af29190612f52565b604051602081830303815290604052907bffffffffffffffffffffffffffffffffffffffffffffffffffffffff19166020820180517bffffffffffffffffffffffffffffffffffffffffffffffffffffffff83818316178352505050509050919050565b3373ffffffffffffffffffffffffffffffffffffffff168173ffffffffffffffffffffffffffffffffffffffff1603611bc4576040517f08c379a0000000000000000000000000000000000000000000000000000000008152600401611bbb90612fb5565b60405180910390fd5b8060015f6101000a81548173ffffffffffffffffffffffffffffffffffffffff021916908373ffffffffffffffffffffffffffffffffffffffff1602179055508073ffffffffffffffffffffffffffffffffffffffff165f5f9054906101000a900473ffffffffffffffffffffffffffffffffffffffff1673ffffffffffffffffffffffffffffffffffffffff167fed8889f560326eb138920d842192f0eb3dd22b4f139c87a2c57538e05bae127860405160405180910390a350565b5f5ffd5b5f5ffd5b5f819050919050565b611c9b81611c89565b8114611ca5575f5ffd5b50565b5f81359050611cb681611c92565b92915050565b5f60208284031215611cd157611cd0611c81565b5b5f611cde84828501611ca8565b91505092915050565b611cf081611c89565b82525050565b5f604082019050611d095f830185611ce7565b611d166020830184611ce7565b9392505050565b5f5ffd5b5f5ffd5b5f5ffd5b5f5f83601f840112611d3e57611d3d611d1d565b5b8235905067ffffffffffffffff811115611d5b57611d5a611d21565b5b602083019150836020820283011115611d7757611d76611d25565b5b9250929050565b5f5f5f60408486031215611d9557611d94611c81565b5b5f611da286828701611ca8565b935050602084013567ffffffffffffffff811115611dc357611dc2611c85565b5b611dcf86828701611d29565b92509250509250925092565b5f602082019050611dee5f830184611ce7565b92915050565b5f73ffffffffffffffffffffffffffffffffffffffff82169050919050565b5f611e1d82611df4565b9050919050565b611e2d81611e13565b82525050565b5f8115159050919050565b611e4781611e33565b82525050565b5f61010082019050611e615f83018b611ce7565b611e6e602083018a611ce7565b611e7b6040830189611ce7565b611e886060830188611e24565b611e956080830187611e24565b611ea260a0830186611ce7565b611eaf60c0830185611e3e565b611ebc60e0830184611ce7565b9998505050505050505050565b5f602082019050611edc5f830184611e24565b92915050565b611eeb81611e13565b8114611ef5575f5ffd5b50565b5f81359050611f0681611ee2565b92915050565b5f60208284031215611f2157611f20611c81565b5b5f611f2e84828501611ef8565b91505092915050565b5f819050919050565b5f611f5a611f55611f5084611df4565b611f37565b611df4565b9050919050565b5f611f6b82611f40565b9050919050565b5f611f7c82611f61565b9050919050565b611f8c81611f72565b82525050565b5f602082019050611fa55f830184611f83565b92915050565b5f5f60408385031215611fc157611fc0611c81565b5b5f611fce85828601611ca8565b9250506020611fdf85828601611ef8565b9150509250929050565b5f5f5f6060848603121561200057611fff611c81565b5b5f61200d86828701611ca8565b935050602061201e86828701611ca8565b925050604061202f86828701611ca8565b9150509250925092565b5f82825260208201905092915050565b7f6e6f74206578697374207461736b0000000000000000000000000000000000005f82015250565b5f61207d600e83612039565b915061208882612049565b602082019050919050565b5f6020820190508181035f8301526120aa81612071565b9050919050565b7f706c65617365207072652063616c6c206472617777696e6e65720000000000005f82015250565b5f6120e5601a83612039565b91506120f0826120b1565b602082019050919050565b5f6020820190508181035f830152612112816120d9565b9050919050565b7f63757272656e74207461736b2068617320646f6e6500000000000000000000005f82015250565b5f61214d601583612039565b915061215882612119565b602082019050919050565b5f6020820190508181035f83015261217a81612141565b9050919050565b7f4e6f207061727469636970616e747300000000000000000000000000000000005f82015250565b5f6121b5600f83612039565b91506121c082612181565b602082019050919050565b5f6020820190508181035f8301526121e2816121a9565b9050919050565b7f4e487b71000000000000000000000000000000000000000000000000000000005f52601260045260245ffd5b5f61222082611c89565b915061222b83611c89565b92508261223b5761223a6121e9565b5b828206905092915050565b7f4e487b71000000000000000000000000000000000000000000000000000000005f52603260045260245ffd5b7f4e487b71000000000000000000000000000000000000000000000000000000005f52601160045260245ffd5b5f8160011c9050919050565b5f5f8291508390505b60018511156122f5578086048111156122d1576122d0612273565b5b60018516156122e05780820291505b80810290506122ee856122a0565b94506122b5565b94509492505050565b5f8261230d57600190506123c8565b8161231a575f90506123c8565b8160018114612330576002811461233a57612369565b60019150506123c8565b60ff84111561234c5761234b612273565b5b8360020a91508482111561236357612362612273565b5b506123c8565b5060208310610133831016604e8410600b841016171561239e5782820a90508381111561239957612398612273565b5b6123c8565b6123ab84848460016122ac565b925090508184048111156123c2576123c1612273565b5b81810290505b9392505050565b5f6123d982611c89565b91506123e483611c89565b92506124117fffffffffffffffffffffffffffffffffffffffffffffffffffffffffffffffff84846122fe565b905092915050565b5f61242382611c89565b915061242e83611c89565b925082820261243c81611c89565b9150828204841483151761245357612452612273565b5b5092915050565b5f61246482611c89565b915061246f83611c89565b92508261247f5761247e6121e9565b5b828204905092915050565b5f61249482611c89565b915061249f83611c89565b92508282019050808211156124b7576124b6612273565b5b92915050565b5f6124c782611c89565b91506124d283611c89565b92508282039050818111156124ea576124e9612273565b5b92915050565b5f81905092915050565b50565b5f6125085f836124f0565b9150612513826124fa565b5f82019050919050565b5f612527826124fd565b9150819050919050565b7f4661696c656420746f2073656e642072657761726400000000000000000000005f82015250565b5f612565601583612039565b915061257082612531565b602082019050919050565b5f6020820190508181035f83015261259281612559565b9050919050565b5f6080820190506125ac5f830187611e24565b6125b96020830186611ce7565b6125c66040830185611ce7565b6125d36060830184611ce7565b95945050505050565b7f6e6f2066756c6c206665650000000000000000000000000000000000000000005f82015250565b5f612610600b83612039565b915061261b826125dc565b602082019050919050565b5f6020820190508181035f83015261263d81612604565b9050919050565b5f6060820190506126575f830186611e24565b6126646020830185611ce7565b6126716040830184611ce7565b949350505050565b5f60408201905061268c5f830185611e24565b6126996020830184611e24565b9392505050565b7f706c6561736520696e70757420647261774964000000000000000000000000005f82015250565b5f6126d4601383612039565b91506126df826126a0565b602082019050919050565b5f6020820190508181035f830152612701816126c8565b9050919050565b7f63757272656e74206861732070726f63657373696e67672064726177000000005f82015250565b5f61273c601c83612039565b915061274782612708565b602082019050919050565b5f6020820190508181035f83015261276981612730565b9050919050565b7f63757272656e74207461736b206861736e7420737461727400000000000000005f82015250565b5f6127a4601883612039565b91506127af82612770565b602082019050919050565b5f6020820190508181035f8301526127d181612798565b9050919050565b7f796f7520617265206e6f207065726d697373696f6e00000000000000000000005f82015250565b5f61280c601583612039565b9150612817826127d8565b602082019050919050565b5f6020820190508181035f83015261283981612800565b9050919050565b7f6e6f206a6f696e207468652070657273696f6e000000000000000000000000005f82015250565b5f612874601383612039565b915061287f82612840565b602082019050919050565b5f6020820190508181035f8301526128a181612868565b9050919050565b7f5472616e73666572206661696c656400000000000000000000000000000000005f82015250565b5f6128dc600f83612039565b91506128e7826128a8565b602082019050919050565b5f6020820190508181035f830152612909816128d0565b9050919050565b5f819050919050565b5f61293361292e61292984612910565b611f37565b611c89565b9050919050565b61294381612919565b82525050565b5f60808201905061295c5f830187611e24565b6129696020830186611ce7565b612976604083018561293a565b6129836060830184611ce7565b95945050505050565b5f819050919050565b61299e8161298c565b82525050565b6129ad81611c89565b82525050565b5f61ffff82169050919050565b6129c9816129b3565b82525050565b5f63ffffffff82169050919050565b6129e7816129cf565b82525050565b5f81519050919050565b5f82825260208201905092915050565b8281835e5f83830152505050565b5f601f19601f8301169050919050565b5f612a2f826129ed565b612a3981856129f7565b9350612a49818560208601612a07565b612a5281612a15565b840191505092915050565b5f60c083015f830151612a725f860182612995565b506020830151612a8560208601826129a4565b506040830151612a9860408601826129c0565b506060830151612aab60608601826129de565b506080830151612abe60808601826129de565b5060a083015184820360a0860152612ad68282612a25565b9150508091505092915050565b5f6020820190508181035f830152612afb8184612a5d565b905092915050565b5f81519050612b1181611c92565b92915050565b5f60208284031215612b2c57612b2b611c81565b5b5f612b3984828501612b03565b91505092915050565b7f4d7573742062652070726f706f736564206f776e6572000000000000000000005f82015250565b5f612b76601683612039565b9150612b8182612b42565b602082019050919050565b5f6020820190508181035f830152612ba381612b6a565b9050919050565b5f606082019050612bbd5f830186611e24565b612bca6020830185611e24565b612bd76040830184611e24565b949350505050565b7f636f7272656374206a6f696e20616464726573730000000000000000000000005f82015250565b5f612c13601483612039565b9150612c1e82612bdf565b602082019050919050565b5f6020820190508181035f830152612c4081612c07565b9050919050565b7f63757272656e74207461736b2068617320656e640000000000000000000000005f82015250565b5f612c7b601483612039565b9150612c8682612c47565b602082019050919050565b5f6020820190508181035f830152612ca881612c6f565b9050919050565b7f6a6f696e207072696365206d75737420626520626967207468616e207469636b5f8201527f2070726963650000000000000000000000000000000000000000000000000000602082015250565b5f612d09602683612039565b9150612d1482612caf565b604082019050919050565b5f6020820190508181035f830152612d3681612cfd565b9050919050565b7f796f7520686173206a6f696e2069742c706c656173652077616974696e67206c5f8201527f75636b7920676f696e6720646f776e0000000000000000000000000000000000602082015250565b5f612d97602f83612039565b9150612da282612d3d565b604082019050919050565b5f6020820190508181035f830152612dc481612d8b565b9050919050565b7f6e6f7420616c6c6c6f776564206a6f696e2069740000000000000000000000005f82015250565b5f612dff601483612039565b9150612e0a82612dcb565b602082019050919050565b5f6020820190508181035f830152612e2c81612df3565b9050919050565b7f637265617465206c75636b20696e697420726577617264206d757374206265205f8201527f626967207468616e207a65726f00000000000000000000000000000000000000602082015250565b5f612e8d602d83612039565b9150612e9882612e33565b604082019050919050565b5f6020820190508181035f830152612eba81612e81565b9050919050565b7f4f6e6c792063616c6c61626c65206279206f776e6572000000000000000000005f82015250565b5f612ef5601683612039565b9150612f0082612ec1565b602082019050919050565b5f6020820190508181035f830152612f2281612ee9565b9050919050565b612f3281611e33565b82525050565b602082015f820151612f4c5f850182612f29565b50505050565b5f602082019050612f655f830184612f38565b92915050565b7f43616e6e6f74207472616e7366657220746f2073656c660000000000000000005f82015250565b5f612f9f601783612039565b9150612faa82612f6b565b602082019050919050565b5f6020820190508181035f830152612fcc81612f93565b905091905056fea2646970667358221220fa092303716cecd1c9a8278402692222337a4b03a6653539530d2a75fc25ea6164736f6c634300081e0033",
					"opcodes": "PUSH1 0x80 PUSH1 0x40 MSTORE PUSH1 0x3 PUSH1 0x6 PUSH0 PUSH2 0x100 EXP DUP2 SLOAD DUP2 PUSH2 0xFFFF MUL NOT AND SWAP1 DUP4 PUSH2 0xFFFF AND MUL OR SWAP1 SSTORE POP PUSH3 0x7A120 PUSH1 0x6 PUSH1 0x2 PUSH2 0x100 EXP DUP2 SLOAD DUP2 PUSH4 0xFFFFFFFF MUL NOT AND SWAP1 DUP4 PUSH4 0xFFFFFFFF AND MUL OR SWAP1 SSTORE POP PUSH1 0x1 PUSH1 0x6 DUP1 PUSH2 0x100 EXP DUP2 SLOAD DUP2 PUSH4 0xFFFFFFFF MUL NOT AND SWAP1 DUP4 PUSH4 0xFFFFFFFF AND MUL OR SWAP1 SSTORE POP PUSH0 PUSH1 0xA PUSH0 PUSH2 0x100 EXP DUP2 SLOAD DUP2 PUSH1 0xFF MUL NOT AND SWAP1 DUP4 PUSH1 0xFF AND MUL OR SWAP1 SSTORE POP CALLVALUE DUP1 ISZERO PUSH2 0x8B JUMPI PUSH0 PUSH0 REVERT JUMPDEST POP PUSH1 0x40 MLOAD PUSH2 0x3679 CODESIZE SUB DUP1 PUSH2 0x3679 DUP4 CODECOPY DUP2 DUP2 ADD PUSH1 0x40 MSTORE DUP2 ADD SWAP1 PUSH2 0xAD SWAP2 SWAP1 PUSH2 0x51F JUMP JUMPDEST DUP4 CALLER DUP1 PUSH0 PUSH0 PUSH20 0xFFFFFFFFFFFFFFFFFFFFFFFFFFFFFFFFFFFFFFFF AND DUP3 PUSH20 0xFFFFFFFFFFFFFFFFFFFFFFFFFFFFFFFFFFFFFFFF AND SUB PUSH2 0x11F JUMPI PUSH1 0x40 MLOAD PUSH32 0x8C379A000000000000000000000000000000000000000000000000000000000 DUP2 MSTORE PUSH1 0x4 ADD PUSH2 0x116 SWAP1 PUSH2 0x5DD JUMP JUMPDEST PUSH1 0x40 MLOAD DUP1 SWAP2 SUB SWAP1 REVERT JUMPDEST DUP2 PUSH0 PUSH0 PUSH2 0x100 EXP DUP2 SLOAD DUP2 PUSH20 0xFFFFFFFFFFFFFFFFFFFFFFFFFFFFFFFFFFFFFFFF MUL NOT AND SWAP1 DUP4 PUSH20 0xFFFFFFFFFFFFFFFFFFFFFFFFFFFFFFFFFFFFFFFF AND MUL OR SWAP1 SSTORE POP PUSH0 PUSH20 0xFFFFFFFFFFFFFFFFFFFFFFFFFFFFFFFFFFFFFFFF AND DUP2 PUSH20 0xFFFFFFFFFFFFFFFFFFFFFFFFFFFFFFFFFFFFFFFF AND EQ PUSH2 0x1A1 JUMPI PUSH2 0x1A0 DUP2 PUSH2 0x330 PUSH1 0x20 SHL PUSH1 0x20 SHR JUMP JUMPDEST JUMPDEST POP POP POP PUSH0 PUSH20 0xFFFFFFFFFFFFFFFFFFFFFFFFFFFFFFFFFFFFFFFF AND DUP2 PUSH20 0xFFFFFFFFFFFFFFFFFFFFFFFFFFFFFFFFFFFFFFFF AND SUB PUSH2 0x209 JUMPI PUSH1 0x40 MLOAD PUSH32 0xD92E233D00000000000000000000000000000000000000000000000000000000 DUP2 MSTORE PUSH1 0x4 ADD PUSH1 0x40 MLOAD DUP1 SWAP2 SUB SWAP1 REVERT JUMPDEST DUP1 PUSH1 0x2 PUSH0 PUSH2 0x100 EXP DUP2 SLOAD DUP2 PUSH20 0xFFFFFFFFFFFFFFFFFFFFFFFFFFFFFFFFFFFFFFFF MUL NOT AND SWAP1 DUP4 PUSH20 0xFFFFFFFFFFFFFFFFFFFFFFFFFFFFFFFFFFFFFFFF AND MUL OR SWAP1 SSTORE POP POP DUP4 PUSH1 0x4 PUSH0 PUSH2 0x100 EXP DUP2 SLOAD DUP2 PUSH20 0xFFFFFFFFFFFFFFFFFFFFFFFFFFFFFFFFFFFFFFFF MUL NOT AND SWAP1 DUP4 PUSH20 0xFFFFFFFFFFFFFFFFFFFFFFFFFFFFFFFFFFFFFFFF AND MUL OR SWAP1 SSTORE POP DUP4 PUSH1 0x2 PUSH0 PUSH2 0x100 EXP DUP2 SLOAD DUP2 PUSH20 0xFFFFFFFFFFFFFFFFFFFFFFFFFFFFFFFFFFFFFFFF MUL NOT AND SWAP1 DUP4 PUSH20 0xFFFFFFFFFFFFFFFFFFFFFFFFFFFFFFFFFFFFFFFF AND MUL OR SWAP1 SSTORE POP DUP3 PUSH1 0x3 DUP2 SWAP1 SSTORE POP DUP2 PUSH1 0x5 DUP2 SWAP1 SSTORE POP PUSH1 0x1 PUSH1 0x7 DUP2 SWAP1 SSTORE POP DUP1 PUSH1 0xB DUP2 SWAP1 SSTORE POP CALLER PUSH1 0xD PUSH0 PUSH2 0x100 EXP DUP2 SLOAD DUP2 PUSH20 0xFFFFFFFFFFFFFFFFFFFFFFFFFFFFFFFFFFFFFFFF MUL NOT AND SWAP1 DUP4 PUSH20 0xFFFFFFFFFFFFFFFFFFFFFFFFFFFFFFFFFFFFFFFF AND MUL OR SWAP1 SSTORE POP POP POP POP POP PUSH2 0x663 JUMP JUMPDEST CALLER PUSH20 0xFFFFFFFFFFFFFFFFFFFFFFFFFFFFFFFFFFFFFFFF AND DUP2 PUSH20 0xFFFFFFFFFFFFFFFFFFFFFFFFFFFFFFFFFFFFFFFF AND SUB PUSH2 0x39E JUMPI PUSH1 0x40 MLOAD PUSH32 0x8C379A000000000000000000000000000000000000000000000000000000000 DUP2 MSTORE PUSH1 0x4 ADD PUSH2 0x395 SWAP1 PUSH2 0x645 JUMP JUMPDEST PUSH1 0x40 MLOAD DUP1 SWAP2 SUB SWAP1 REVERT JUMPDEST DUP1 PUSH1 0x1 PUSH0 PUSH2 0x100 EXP DUP2 SLOAD DUP2 PUSH20 0xFFFFFFFFFFFFFFFFFFFFFFFFFFFFFFFFFFFFFFFF MUL NOT AND SWAP1 DUP4 PUSH20 0xFFFFFFFFFFFFFFFFFFFFFFFFFFFFFFFFFFFFFFFF AND MUL OR SWAP1 SSTORE POP DUP1 PUSH20 0xFFFFFFFFFFFFFFFFFFFFFFFFFFFFFFFFFFFFFFFF AND PUSH0 PUSH0 SWAP1 SLOAD SWAP1 PUSH2 0x100 EXP SWAP1 DIV PUSH20 0xFFFFFFFFFFFFFFFFFFFFFFFFFFFFFFFFFFFFFFFF AND PUSH20 0xFFFFFFFFFFFFFFFFFFFFFFFFFFFFFFFFFFFFFFFF AND PUSH32 0xED8889F560326EB138920D842192F0EB3DD22B4F139C87A2C57538E05BAE1278 PUSH1 0x40 MLOAD PUSH1 0x40 MLOAD DUP1 SWAP2 SUB SWAP1 LOG3 POP JUMP JUMPDEST PUSH0 PUSH0 REVERT JUMPDEST PUSH0 PUSH20 0xFFFFFFFFFFFFFFFFFFFFFFFFFFFFFFFFFFFFFFFF DUP3 AND SWAP1 POP SWAP2 SWAP1 POP JUMP JUMPDEST PUSH0 PUSH2 0x488 DUP3 PUSH2 0x45F JUMP JUMPDEST SWAP1 POP SWAP2 SWAP1 POP JUMP JUMPDEST PUSH2 0x498 DUP2 PUSH2 0x47E JUMP JUMPDEST DUP2 EQ PUSH2 0x4A2 JUMPI PUSH0 PUSH0 REVERT JUMPDEST POP JUMP JUMPDEST PUSH0 DUP2 MLOAD SWAP1 POP PUSH2 0x4B3 DUP2 PUSH2 0x48F JUMP JUMPDEST SWAP3 SWAP2 POP POP JUMP JUMPDEST PUSH0 DUP2 SWAP1 POP SWAP2 SWAP1 POP JUMP JUMPDEST PUSH2 0x4CB DUP2 PUSH2 0x4B9 JUMP JUMPDEST DUP2 EQ PUSH2 0x4D5 JUMPI PUSH0 PUSH0 REVERT JUMPDEST POP JUMP JUMPDEST PUSH0 DUP2 MLOAD SWAP1 POP PUSH2 0x4E6 DUP2 PUSH2 0x4C2 JUMP JUMPDEST SWAP3 SWAP2 POP POP JUMP JUMPDEST PUSH0 DUP2 SWAP1 POP SWAP2 SWAP1 POP JUMP JUMPDEST PUSH2 0x4FE DUP2 PUSH2 0x4EC JUMP JUMPDEST DUP2 EQ PUSH2 0x508 JUMPI PUSH0 PUSH0 REVERT JUMPDEST POP JUMP JUMPDEST PUSH0 DUP2 MLOAD SWAP1 POP PUSH2 0x519 DUP2 PUSH2 0x4F5 JUMP JUMPDEST SWAP3 SWAP2 POP POP JUMP JUMPDEST PUSH0 PUSH0 PUSH0 PUSH0 PUSH1 0x80 DUP6 DUP8 SUB SLT ISZERO PUSH2 0x537 JUMPI PUSH2 0x536 PUSH2 0x45B JUMP JUMPDEST JUMPDEST PUSH0 PUSH2 0x544 DUP8 DUP3 DUP9 ADD PUSH2 0x4A5 JUMP JUMPDEST SWAP5 POP POP PUSH1 0x20 PUSH2 0x555 DUP8 DUP3 DUP9 ADD PUSH2 0x4D8 JUMP JUMPDEST SWAP4 POP POP PUSH1 0x40 PUSH2 0x566 DUP8 DUP3 DUP9 ADD PUSH2 0x50B JUMP JUMPDEST SWAP3 POP POP PUSH1 0x60 PUSH2 0x577 DUP8 DUP3 DUP9 ADD PUSH2 0x4D8 JUMP JUMPDEST SWAP2 POP POP SWAP3 SWAP6 SWAP2 SWAP5 POP SWAP3 POP JUMP JUMPDEST PUSH0 DUP3 DUP3 MSTORE PUSH1 0x20 DUP3 ADD SWAP1 POP SWAP3 SWAP2 POP POP JUMP JUMPDEST PUSH32 0x43616E6E6F7420736574206F776E657220746F207A65726F0000000000000000 PUSH0 DUP3 ADD MSTORE POP JUMP JUMPDEST PUSH0 PUSH2 0x5C7 PUSH1 0x18 DUP4 PUSH2 0x583 JUMP JUMPDEST SWAP2 POP PUSH2 0x5D2 DUP3 PUSH2 0x593 JUMP JUMPDEST PUSH1 0x20 DUP3 ADD SWAP1 POP SWAP2 SWAP1 POP JUMP JUMPDEST PUSH0 PUSH1 0x20 DUP3 ADD SWAP1 POP DUP2 DUP2 SUB PUSH0 DUP4 ADD MSTORE PUSH2 0x5F4 DUP2 PUSH2 0x5BB JUMP JUMPDEST SWAP1 POP SWAP2 SWAP1 POP JUMP JUMPDEST PUSH32 0x43616E6E6F74207472616E7366657220746F2073656C66000000000000000000 PUSH0 DUP3 ADD MSTORE POP JUMP JUMPDEST PUSH0 PUSH2 0x62F PUSH1 0x17 DUP4 PUSH2 0x583 JUMP JUMPDEST SWAP2 POP PUSH2 0x63A DUP3 PUSH2 0x5FB JUMP JUMPDEST PUSH1 0x20 DUP3 ADD SWAP1 POP SWAP2 SWAP1 POP JUMP JUMPDEST PUSH0 PUSH1 0x20 DUP3 ADD SWAP1 POP DUP2 DUP2 SUB PUSH0 DUP4 ADD MSTORE PUSH2 0x65C DUP2 PUSH2 0x623 JUMP JUMPDEST SWAP1 POP SWAP2 SWAP1 POP JUMP JUMPDEST PUSH2 0x3009 DUP1 PUSH2 0x670 PUSH0 CODECOPY PUSH0 RETURN INVALID PUSH1 0x80 PUSH1 0x40 MSTORE PUSH1 0x4 CALLDATASIZE LT PUSH2 0x108 JUMPI PUSH0 CALLDATALOAD PUSH1 0xE0 SHR DUP1 PUSH4 0x8DA5CB5B GT PUSH2 0x94 JUMPI DUP1 PUSH4 0xC2EE3A08 GT PUSH2 0x63 JUMPI DUP1 PUSH4 0xC2EE3A08 EQ PUSH2 0x310 JUMPI DUP1 PUSH4 0xE00DD161 EQ PUSH2 0x33A JUMPI DUP1 PUSH4 0xE578B0BB EQ PUSH2 0x364 JUMPI DUP1 PUSH4 0xF2FDE38B EQ PUSH2 0x3A0 JUMPI DUP1 PUSH4 0xF36B98FB EQ PUSH2 0x3C8 JUMPI PUSH2 0x108 JUMP JUMPDEST DUP1 PUSH4 0x8DA5CB5B EQ PUSH2 0x278 JUMPI DUP1 PUSH4 0x8EA98117 EQ PUSH2 0x2A2 JUMPI DUP1 PUSH4 0x9ECCACF6 EQ PUSH2 0x2CA JUMPI DUP1 PUSH4 0xA3FA9775 EQ PUSH2 0x2F4 JUMPI PUSH2 0x108 JUMP JUMPDEST DUP1 PUSH4 0x2E0F2625 GT PUSH2 0xDB JUMPI DUP1 PUSH4 0x2E0F2625 EQ PUSH2 0x1A3 JUMPI DUP1 PUSH4 0x36068A56 EQ PUSH2 0x1CD JUMPI DUP1 PUSH4 0x60B2A56A EQ PUSH2 0x210 JUMPI DUP1 PUSH4 0x79BA5097 EQ PUSH2 0x238 JUMPI DUP1 PUSH4 0x7AE316D0 EQ PUSH2 0x24E JUMPI PUSH2 0x108 JUMP JUMPDEST DUP1 PUSH4 0x3DB19CF EQ PUSH2 0x10C JUMPI DUP1 PUSH4 0xFDB1C10 EQ PUSH2 0x134 JUMPI DUP1 PUSH4 0x1A735F18 EQ PUSH2 0x13E JUMPI DUP1 PUSH4 0x1FE543E3 EQ PUSH2 0x17B JUMPI JUMPDEST PUSH0 PUSH0 REVERT JUMPDEST CALLVALUE DUP1 ISZERO PUSH2 0x117 JUMPI PUSH0 PUSH0 REVERT JUMPDEST POP PUSH2 0x132 PUSH1 0x4 DUP1 CALLDATASIZE SUB DUP2 ADD SWAP1 PUSH2 0x12D SWAP2 SWAP1 PUSH2 0x1CBC JUMP JUMPDEST PUSH2 0x3F8 JUMP JUMPDEST STOP JUMPDEST PUSH2 0x13C PUSH2 0x789 JUMP JUMPDEST STOP JUMPDEST CALLVALUE DUP1 ISZERO PUSH2 0x149 JUMPI PUSH0 PUSH0 REVERT JUMPDEST POP PUSH2 0x164 PUSH1 0x4 DUP1 CALLDATASIZE SUB DUP2 ADD SWAP1 PUSH2 0x15F SWAP2 SWAP1 PUSH2 0x1CBC JUMP JUMPDEST PUSH2 0x885 JUMP JUMPDEST PUSH1 0x40 MLOAD PUSH2 0x172 SWAP3 SWAP2 SWAP1 PUSH2 0x1CF6 JUMP JUMPDEST PUSH1 0x40 MLOAD DUP1 SWAP2 SUB SWAP1 RETURN JUMPDEST CALLVALUE DUP1 ISZERO PUSH2 0x186 JUMPI PUSH0 PUSH0 REVERT JUMPDEST POP PUSH2 0x1A1 PUSH1 0x4 DUP1 CALLDATASIZE SUB DUP2 ADD SWAP1 PUSH2 0x19C SWAP2 SWAP1 PUSH2 0x1D7E JUMP JUMPDEST PUSH2 0x8A5 JUMP JUMPDEST STOP JUMPDEST CALLVALUE DUP1 ISZERO PUSH2 0x1AE JUMPI PUSH0 PUSH0 REVERT JUMPDEST POP PUSH2 0x1B7 PUSH2 0x969 JUMP JUMPDEST PUSH1 0x40 MLOAD PUSH2 0x1C4 SWAP2 SWAP1 PUSH2 0x1DDB JUMP JUMPDEST PUSH1 0x40 MLOAD DUP1 SWAP2 SUB SWAP1 RETURN JUMPDEST CALLVALUE DUP1 ISZERO PUSH2 0x1D8 JUMPI PUSH0 PUSH0 REVERT JUMPDEST POP PUSH2 0x1F3 PUSH1 0x4 DUP1 CALLDATASIZE SUB DUP2 ADD SWAP1 PUSH2 0x1EE SWAP2 SWAP1 PUSH2 0x1CBC JUMP JUMPDEST PUSH2 0x96E JUMP JUMPDEST PUSH1 0x40 MLOAD PUSH2 0x207 SWAP9 SWAP8 SWAP7 SWAP6 SWAP5 SWAP4 SWAP3 SWAP2 SWAP1 PUSH2 0x1E4D JUMP JUMPDEST PUSH1 0x40 MLOAD DUP1 SWAP2 SUB SWAP1 RETURN JUMPDEST CALLVALUE DUP1 ISZERO PUSH2 0x21B JUMPI PUSH0 PUSH0 REVERT JUMPDEST POP PUSH2 0x236 PUSH1 0x4 DUP1 CALLDATASIZE SUB DUP2 ADD SWAP1 PUSH2 0x231 SWAP2 SWAP1 PUSH2 0x1CBC JUMP JUMPDEST PUSH2 0xA1A JUMP JUMPDEST STOP JUMPDEST CALLVALUE DUP1 ISZERO PUSH2 0x243 JUMPI PUSH0 PUSH0 REVERT JUMPDEST POP PUSH2 0x24C PUSH2 0x100D JUMP JUMPDEST STOP JUMPDEST CALLVALUE DUP1 ISZERO PUSH2 0x259 JUMPI PUSH0 PUSH0 REVERT JUMPDEST POP PUSH2 0x262 PUSH2 0x119C JUMP JUMPDEST PUSH1 0x40 MLOAD PUSH2 0x26F SWAP2 SWAP1 PUSH2 0x1DDB JUMP JUMPDEST PUSH1 0x40 MLOAD DUP1 SWAP2 SUB SWAP1 RETURN JUMPDEST CALLVALUE DUP1 ISZERO PUSH2 0x283 JUMPI PUSH0 PUSH0 REVERT JUMPDEST POP PUSH2 0x28C PUSH2 0x11A5 JUMP JUMPDEST PUSH1 0x40 MLOAD PUSH2 0x299 SWAP2 SWAP1 PUSH2 0x1EC9 JUMP JUMPDEST PUSH1 0x40 MLOAD DUP1 SWAP2 SUB SWAP1 RETURN JUMPDEST CALLVALUE DUP1 ISZERO PUSH2 0x2AD JUMPI PUSH0 PUSH0 REVERT JUMPDEST POP PUSH2 0x2C8 PUSH1 0x4 DUP1 CALLDATASIZE SUB DUP2 ADD SWAP1 PUSH2 0x2C3 SWAP2 SWAP1 PUSH2 0x1F0C JUMP JUMPDEST PUSH2 0x11CC JUMP JUMPDEST STOP JUMPDEST CALLVALUE DUP1 ISZERO PUSH2 0x2D5 JUMPI PUSH0 PUSH0 REVERT JUMPDEST POP PUSH2 0x2DE PUSH2 0x13A9 JUMP JUMPDEST PUSH1 0x40 MLOAD PUSH2 0x2EB SWAP2 SWAP1 PUSH2 0x1F92 JUMP JUMPDEST PUSH1 0x40 MLOAD DUP1 SWAP2 SUB SWAP1 RETURN JUMPDEST PUSH2 0x30E PUSH1 0x4 DUP1 CALLDATASIZE SUB DUP2 ADD SWAP1 PUSH2 0x309 SWAP2 SWAP1 PUSH2 0x1CBC JUMP JUMPDEST PUSH2 0x13CE JUMP JUMPDEST STOP JUMPDEST CALLVALUE DUP1 ISZERO PUSH2 0x31B JUMPI PUSH0 PUSH0 REVERT JUMPDEST POP PUSH2 0x324 PUSH2 0x16C6 JUMP JUMPDEST PUSH1 0x40 MLOAD PUSH2 0x331 SWAP2 SWAP1 PUSH2 0x1DDB JUMP JUMPDEST PUSH1 0x40 MLOAD DUP1 SWAP2 SUB SWAP1 RETURN JUMPDEST CALLVALUE DUP1 ISZERO PUSH2 0x345 JUMPI PUSH0 PUSH0 REVERT JUMPDEST POP PUSH2 0x34E PUSH2 0x16D7 JUMP JUMPDEST PUSH1 0x40 MLOAD PUSH2 0x35B SWAP2 SWAP1 PUSH2 0x1DDB JUMP JUMPDEST PUSH1 0x40 MLOAD DUP1 SWAP2 SUB SWAP1 RETURN JUMPDEST CALLVALUE DUP1 ISZERO PUSH2 0x36F JUMPI PUSH0 PUSH0 REVERT JUMPDEST POP PUSH2 0x38A PUSH1 0x4 DUP1 CALLDATASIZE SUB DUP2 ADD SWAP1 PUSH2 0x385 SWAP2 SWAP1 PUSH2 0x1FAB JUMP JUMPDEST PUSH2 0x16DD JUMP JUMPDEST PUSH1 0x40 MLOAD PUSH2 0x397 SWAP2 SWAP1 PUSH2 0x1DDB JUMP JUMPDEST PUSH1 0x40 MLOAD DUP1 SWAP2 SUB SWAP1 RETURN JUMPDEST CALLVALUE DUP1 ISZERO PUSH2 0x3AB JUMPI PUSH0 PUSH0 REVERT JUMPDEST POP PUSH2 0x3C6 PUSH1 0x4 DUP1 CALLDATASIZE SUB DUP2 ADD SWAP1 PUSH2 0x3C1 SWAP2 SWAP1 PUSH2 0x1F0C JUMP JUMPDEST PUSH2 0x1772 JUMP JUMPDEST STOP JUMPDEST PUSH2 0x3E2 PUSH1 0x4 DUP1 CALLDATASIZE SUB DUP2 ADD SWAP1 PUSH2 0x3DD SWAP2 SWAP1 PUSH2 0x1FE9 JUMP JUMPDEST PUSH2 0x1786 JUMP JUMPDEST PUSH1 0x40 MLOAD PUSH2 0x3EF SWAP2 SWAP1 PUSH2 0x1DDB JUMP JUMPDEST PUSH1 0x40 MLOAD DUP1 SWAP2 SUB SWAP1 RETURN JUMPDEST PUSH0 PUSH1 0x9 PUSH0 DUP4 DUP2 MSTORE PUSH1 0x20 ADD SWAP1 DUP2 MSTORE PUSH1 0x20 ADD PUSH0 KECCAK256 PUSH1 0x40 MLOAD DUP1 PUSH1 0x40 ADD PUSH1 0x40 MSTORE SWAP1 DUP2 PUSH0 DUP3 ADD SLOAD DUP2 MSTORE PUSH1 0x20 ADD PUSH1 0x1 DUP3 ADD SLOAD DUP2 MSTORE POP POP SWAP1 POP PUSH0 DUP2 PUSH1 0x20 ADD MLOAD GT PUSH2 0x470 JUMPI PUSH1 0x40 MLOAD PUSH32 0x8C379A000000000000000000000000000000000000000000000000000000000 DUP2 MSTORE PUSH1 0x4 ADD PUSH2 0x467 SWAP1 PUSH2 0x2093 JUMP JUMPDEST PUSH1 0x40 MLOAD DUP1 SWAP2 SUB SWAP1 REVERT JUMPDEST PUSH0 DUP2 PUSH0 ADD MLOAD GT PUSH2 0x4B5 JUMPI PUSH1 0x40 MLOAD PUSH32 0x8C379A000000000000000000000000000000000000000000000000000000000 DUP2 MSTORE PUSH1 0x4 ADD PUSH2 0x4AC SWAP1 PUSH2 0x20FB JUMP JUMPDEST PUSH1 0x40 MLOAD DUP1 SWAP2 SUB SWAP1 REVERT JUMPDEST PUSH0 PUSH1 0x8 PUSH0 DUP4 PUSH1 0x20 ADD MLOAD DUP2 MSTORE PUSH1 0x20 ADD SWAP1 DUP2 MSTORE PUSH1 0x20 ADD PUSH0 KECCAK256 SWAP1 POP PUSH1 0x1 ISZERO ISZERO DUP2 PUSH1 0x6 ADD PUSH0 SWAP1 SLOAD SWAP1 PUSH2 0x100 EXP SWAP1 DIV PUSH1 0xFF AND ISZERO ISZERO EQ PUSH2 0x524 JUMPI PUSH1 0x40 MLOAD PUSH32 0x8C379A000000000000000000000000000000000000000000000000000000000 DUP2 MSTORE PUSH1 0x4 ADD PUSH2 0x51B SWAP1 PUSH2 0x2163 JUMP JUMPDEST PUSH1 0x40 MLOAD DUP1 SWAP2 SUB SWAP1 REVERT JUMPDEST PUSH0 DUP2 PUSH1 0x8 ADD DUP1 SLOAD SWAP1 POP GT PUSH2 0x56D JUMPI PUSH1 0x40 MLOAD PUSH32 0x8C379A000000000000000000000000000000000000000000000000000000000 DUP2 MSTORE PUSH1 0x4 ADD PUSH2 0x564 SWAP1 PUSH2 0x21CB JUMP JUMPDEST PUSH1 0x40 MLOAD DUP1 SWAP2 SUB SWAP1 REVERT JUMPDEST PUSH0 DUP2 PUSH1 0x8 ADD DUP1 SLOAD SWAP1 POP DUP4 PUSH0 ADD MLOAD PUSH2 0x584 SWAP2 SWAP1 PUSH2 0x2216 JUMP JUMPDEST SWAP1 POP PUSH0 DUP3 PUSH1 0x8 ADD DUP3 DUP2 SLOAD DUP2 LT PUSH2 0x59D JUMPI PUSH2 0x59C PUSH2 0x2246 JUMP JUMPDEST JUMPDEST SWAP1 PUSH0 MSTORE PUSH1 0x20 PUSH0 KECCAK256 ADD PUSH0 SWAP1 SLOAD SWAP1 PUSH2 0x100 EXP SWAP1 DIV PUSH20 0xFFFFFFFFFFFFFFFFFFFFFFFFFFFFFFFFFFFFFFFF AND SWAP1 POP PUSH0 PUSH1 0x12 PUSH1 0xA PUSH2 0x5D6 SWAP2 SWAP1 PUSH2 0x23CF JUMP JUMPDEST PUSH7 0x2386F26FC10000 DUP6 PUSH1 0x2 ADD SLOAD PUSH2 0x5ED SWAP2 SWAP1 PUSH2 0x2419 JUMP JUMPDEST PUSH2 0x5F7 SWAP2 SWAP1 PUSH2 0x245A JUMP JUMPDEST SWAP1 POP DUP1 PUSH1 0xC PUSH0 DUP3 DUP3 SLOAD PUSH2 0x60A SWAP2 SWAP1 PUSH2 0x248A JUMP JUMPDEST SWAP3 POP POP DUP2 SWAP1 SSTORE POP PUSH0 DUP3 PUSH20 0xFFFFFFFFFFFFFFFFFFFFFFFFFFFFFFFFFFFFFFFF AND DUP3 DUP7 PUSH1 0x2 ADD SLOAD PUSH2 0x639 SWAP2 SWAP1 PUSH2 0x24BD JUMP JUMPDEST PUSH1 0x40 MLOAD PUSH2 0x645 SWAP1 PUSH2 0x251D JUMP JUMPDEST PUSH0 PUSH1 0x40 MLOAD DUP1 DUP4 SUB DUP2 DUP6 DUP8 GAS CALL SWAP3 POP POP POP RETURNDATASIZE DUP1 PUSH0 DUP2 EQ PUSH2 0x67F JUMPI PUSH1 0x40 MLOAD SWAP2 POP PUSH1 0x1F NOT PUSH1 0x3F RETURNDATASIZE ADD AND DUP3 ADD PUSH1 0x40 MSTORE RETURNDATASIZE DUP3 MSTORE RETURNDATASIZE PUSH0 PUSH1 0x20 DUP5 ADD RETURNDATACOPY PUSH2 0x684 JUMP JUMPDEST PUSH1 0x60 SWAP2 POP JUMPDEST POP POP SWAP1 POP DUP1 PUSH2 0x6C8 JUMPI PUSH1 0x40 MLOAD PUSH32 0x8C379A000000000000000000000000000000000000000000000000000000000 DUP2 MSTORE PUSH1 0x4 ADD PUSH2 0x6BF SWAP1 PUSH2 0x257B JUMP JUMPDEST PUSH1 0x40 MLOAD DUP1 SWAP2 SUB SWAP1 REVERT JUMPDEST DUP3 DUP6 PUSH1 0x4 ADD PUSH0 PUSH2 0x100 EXP DUP2 SLOAD DUP2 PUSH20 0xFFFFFFFFFFFFFFFFFFFFFFFFFFFFFFFFFFFFFFFF MUL NOT AND SWAP1 DUP4 PUSH20 0xFFFFFFFFFFFFFFFFFFFFFFFFFFFFFFFFFFFFFFFF AND MUL OR SWAP1 SSTORE POP PUSH0 DUP6 PUSH1 0x6 ADD PUSH0 PUSH2 0x100 EXP DUP2 SLOAD DUP2 PUSH1 0xFF MUL NOT AND SWAP1 DUP4 ISZERO ISZERO MUL OR SWAP1 SSTORE POP PUSH0 PUSH1 0xA PUSH0 PUSH2 0x100 EXP DUP2 SLOAD DUP2 PUSH1 0xFF MUL NOT AND SWAP1 DUP4 PUSH1 0xFF AND MUL OR SWAP1 SSTORE POP PUSH32 0x4938ABB0A1220E7B4A0DD8B149717ABA799CD3D2263DE30C997401ABFA845241 DUP4 DUP8 PUSH1 0x20 ADD MLOAD DUP10 TIMESTAMP PUSH1 0x40 MLOAD PUSH2 0x778 SWAP5 SWAP4 SWAP3 SWAP2 SWAP1 PUSH2 0x2599 JUMP JUMPDEST PUSH1 0x40 MLOAD DUP1 SWAP2 SUB SWAP1 LOG1 POP POP POP POP POP POP POP JUMP JUMPDEST PUSH2 0x791 PUSH2 0x19A8 JUMP JUMPDEST PUSH0 PUSH1 0xC SLOAD GT PUSH2 0x7D5 JUMPI PUSH1 0x40 MLOAD PUSH32 0x8C379A000000000000000000000000000000000000000000000000000000000 DUP2 MSTORE PUSH1 0x4 ADD PUSH2 0x7CC SWAP1 PUSH2 0x2626 JUMP JUMPDEST PUSH1 0x40 MLOAD DUP1 SWAP2 SUB SWAP1 REVERT JUMPDEST PUSH0 PUSH1 0xC SLOAD SWAP1 POP PUSH0 PUSH1 0xC DUP2 SWAP1 SSTORE POP PUSH1 0xD PUSH0 SWAP1 SLOAD SWAP1 PUSH2 0x100 EXP SWAP1 DIV PUSH20 0xFFFFFFFFFFFFFFFFFFFFFFFFFFFFFFFFFFFFFFFF AND PUSH20 0xFFFFFFFFFFFFFFFFFFFFFFFFFFFFFFFFFFFFFFFF AND PUSH2 0x8FC DUP3 SWAP1 DUP2 ISZERO MUL SWAP1 PUSH1 0x40 MLOAD PUSH0 PUSH1 0x40 MLOAD DUP1 DUP4 SUB DUP2 DUP6 DUP9 DUP9 CALL SWAP4 POP POP POP POP ISZERO DUP1 ISZERO PUSH2 0x846 JUMPI RETURNDATASIZE PUSH0 PUSH0 RETURNDATACOPY RETURNDATASIZE PUSH0 REVERT JUMPDEST POP PUSH32 0x9E48992309BE40EE6B621AA79B40ADFC808EB591F3A3D551650CEF9E516AEB0E CALLER DUP3 TIMESTAMP PUSH1 0x40 MLOAD PUSH2 0x87A SWAP4 SWAP3 SWAP2 SWAP1 PUSH2 0x2644 JUMP JUMPDEST PUSH1 0x40 MLOAD DUP1 SWAP2 SUB SWAP1 LOG1 POP JUMP JUMPDEST PUSH1 0x9 PUSH1 0x20 MSTORE DUP1 PUSH0 MSTORE PUSH1 0x40 PUSH0 KECCAK256 PUSH0 SWAP2 POP SWAP1 POP DUP1 PUSH0 ADD SLOAD SWAP1 DUP1 PUSH1 0x1 ADD SLOAD SWAP1 POP DUP3 JUMP JUMPDEST PUSH1 0x2 PUSH0 SWAP1 SLOAD SWAP1 PUSH2 0x100 EXP SWAP1 DIV PUSH20 0xFFFFFFFFFFFFFFFFFFFFFFFFFFFFFFFFFFFFFFFF AND PUSH20 0xFFFFFFFFFFFFFFFFFFFFFFFFFFFFFFFFFFFFFFFF AND CALLER PUSH20 0xFFFFFFFFFFFFFFFFFFFFFFFFFFFFFFFFFFFFFFFF AND EQ PUSH2 0x959 JUMPI CALLER PUSH1 0x2 PUSH0 SWAP1 SLOAD SWAP1 PUSH2 0x100 EXP SWAP1 DIV PUSH20 0xFFFFFFFFFFFFFFFFFFFFFFFFFFFFFFFFFFFFFFFF AND PUSH1 0x40 MLOAD PUSH32 0x1CF993F400000000000000000000000000000000000000000000000000000000 DUP2 MSTORE PUSH1 0x4 ADD PUSH2 0x950 SWAP3 SWAP2 SWAP1 PUSH2 0x2679 JUMP JUMPDEST PUSH1 0x40 MLOAD DUP1 SWAP2 SUB SWAP1 REVERT JUMPDEST PUSH2 0x964 DUP4 DUP4 DUP4 PUSH2 0x1A38 JUMP JUMPDEST POP POP POP JUMP JUMPDEST PUSH1 0x12 DUP2 JUMP JUMPDEST PUSH0 PUSH0 PUSH0 PUSH0 PUSH0 PUSH0 PUSH0 PUSH0 PUSH0 PUSH1 0x8 PUSH0 DUP12 DUP2 MSTORE PUSH1 0x20 ADD SWAP1 DUP2 MSTORE PUSH1 0x20 ADD PUSH0 KECCAK256 SWAP1 POP DUP1 PUSH0 ADD SLOAD DUP2 PUSH1 0x1 ADD SLOAD DUP3 PUSH1 0x2 ADD SLOAD DUP4 PUSH1 0x3 ADD PUSH0 SWAP1 SLOAD SWAP1 PUSH2 0x100 EXP SWAP1 DIV PUSH20 0xFFFFFFFFFFFFFFFFFFFFFFFFFFFFFFFFFFFFFFFF AND DUP5 PUSH1 0x4 ADD PUSH0 SWAP1 SLOAD SWAP1 PUSH2 0x100 EXP SWAP1 DIV PUSH20 0xFFFFFFFFFFFFFFFFFFFFFFFFFFFFFFFFFFFFFFFF AND DUP6 PUSH1 0x5 ADD SLOAD DUP7 PUSH1 0x6 ADD PUSH0 SWAP1 SLOAD SWAP1 PUSH2 0x100 EXP SWAP1 DIV PUSH1 0xFF AND DUP8 PUSH1 0x8 ADD DUP1 SLOAD SWAP1 POP SWAP9 POP SWAP9 POP SWAP9 POP SWAP9 POP SWAP9 POP SWAP9 POP SWAP9 POP SWAP9 POP POP SWAP2 SWAP4 SWAP6 SWAP8 POP SWAP2 SWAP4 SWAP6 SWAP8 JUMP JUMPDEST PUSH0 DUP2 GT PUSH2 0xA5C JUMPI PUSH1 0x40 MLOAD PUSH32 0x8C379A000000000000000000000000000000000000000000000000000000000 DUP2 MSTORE PUSH1 0x4 ADD PUSH2 0xA53 SWAP1 PUSH2 0x26EA JUMP JUMPDEST PUSH1 0x40 MLOAD DUP1 SWAP2 SUB SWAP1 REVERT JUMPDEST PUSH0 PUSH1 0xA PUSH0 SWAP1 SLOAD SWAP1 PUSH2 0x100 EXP SWAP1 DIV PUSH1 0xFF AND PUSH1 0xFF AND GT ISZERO PUSH2 0xAB0 JUMPI PUSH1 0x40 MLOAD PUSH32 0x8C379A000000000000000000000000000000000000000000000000000000000 DUP2 MSTORE PUSH1 0x4 ADD PUSH2 0xAA7 SWAP1 PUSH2 0x2752 JUMP JUMPDEST PUSH1 0x40 MLOAD DUP1 SWAP2 SUB SWAP1 REVERT JUMPDEST PUSH1 0x8 PUSH0 DUP3 DUP2 MSTORE PUSH1 0x20 ADD SWAP1 DUP2 MSTORE PUSH1 0x20 ADD PUSH0 KECCAK256 PUSH0 ADD SLOAD TIMESTAMP GT PUSH2 0xB05 JUMPI PUSH1 0x40 MLOAD PUSH32 0x8C379A000000000000000000000000000000000000000000000000000000000 DUP2 MSTORE PUSH1 0x4 ADD PUSH2 0xAFC SWAP1 PUSH2 0x27BA JUMP JUMPDEST PUSH1 0x40 MLOAD DUP1 SWAP2 SUB SWAP1 REVERT JUMPDEST PUSH1 0x1 ISZERO ISZERO PUSH1 0x8 PUSH0 DUP4 DUP2 MSTORE PUSH1 0x20 ADD SWAP1 DUP2 MSTORE PUSH1 0x20 ADD PUSH0 KECCAK256 PUSH1 0x6 ADD PUSH0 SWAP1 SLOAD SWAP1 PUSH2 0x100 EXP SWAP1 DIV PUSH1 0xFF AND ISZERO ISZERO EQ PUSH2 0xB6C JUMPI PUSH1 0x40 MLOAD PUSH32 0x8C379A000000000000000000000000000000000000000000000000000000000 DUP2 MSTORE PUSH1 0x4 ADD PUSH2 0xB63 SWAP1 PUSH2 0x2163 JUMP JUMPDEST PUSH1 0x40 MLOAD DUP1 SWAP2 SUB SWAP1 REVERT JUMPDEST CALLER PUSH20 0xFFFFFFFFFFFFFFFFFFFFFFFFFFFFFFFFFFFFFFFF AND PUSH1 0x8 PUSH0 DUP4 DUP2 MSTORE PUSH1 0x20 ADD SWAP1 DUP2 MSTORE PUSH1 0x20 ADD PUSH0 KECCAK256 PUSH1 0x3 ADD PUSH0 SWAP1 SLOAD SWAP1 PUSH2 0x100 EXP SWAP1 DIV PUSH20 0xFFFFFFFFFFFFFFFFFFFFFFFFFFFFFFFFFFFFFFFF AND PUSH20 0xFFFFFFFFFFFFFFFFFFFFFFFFFFFFFFFFFFFFFFFF AND EQ PUSH2 0xC0D JUMPI PUSH1 0x40 MLOAD PUSH32 0x8C379A000000000000000000000000000000000000000000000000000000000 DUP2 MSTORE PUSH1 0x4 ADD PUSH2 0xC04 SWAP1 PUSH2 0x2822 JUMP JUMPDEST PUSH1 0x40 MLOAD DUP1 SWAP2 SUB SWAP1 REVERT JUMPDEST PUSH0 PUSH1 0x8 PUSH0 DUP4 DUP2 MSTORE PUSH1 0x20 ADD SWAP1 DUP2 MSTORE PUSH1 0x20 ADD PUSH0 KECCAK256 PUSH1 0x8 ADD DUP1 SLOAD SWAP1 POP GT PUSH2 0xC66 JUMPI PUSH1 0x40 MLOAD PUSH32 0x8C379A000000000000000000000000000000000000000000000000000000000 DUP2 MSTORE PUSH1 0x4 ADD PUSH2 0xC5D SWAP1 PUSH2 0x288A JUMP JUMPDEST PUSH1 0x40 MLOAD DUP1 SWAP2 SUB SWAP1 REVERT JUMPDEST PUSH1 0x1 PUSH1 0xA PUSH0 PUSH2 0x100 EXP DUP2 SLOAD DUP2 PUSH1 0xFF MUL NOT AND SWAP1 DUP4 PUSH1 0xFF AND MUL OR SWAP1 SSTORE POP PUSH1 0x1 PUSH1 0x8 PUSH0 DUP4 DUP2 MSTORE PUSH1 0x20 ADD SWAP1 DUP2 MSTORE PUSH1 0x20 ADD PUSH0 KECCAK256 PUSH1 0x8 ADD DUP1 SLOAD SWAP1 POP SUB PUSH2 0xE69 JUMPI PUSH0 PUSH1 0x8 PUSH0 DUP4 DUP2 MSTORE PUSH1 0x20 ADD SWAP1 DUP2 MSTORE PUSH1 0x20 ADD PUSH0 KECCAK256 PUSH1 0x3 ADD PUSH0 SWAP1 SLOAD SWAP1 PUSH2 0x100 EXP SWAP1 DIV PUSH20 0xFFFFFFFFFFFFFFFFFFFFFFFFFFFFFFFFFFFFFFFF AND PUSH20 0xFFFFFFFFFFFFFFFFFFFFFFFFFFFFFFFFFFFFFFFF AND PUSH1 0x8 PUSH0 DUP5 DUP2 MSTORE PUSH1 0x20 ADD SWAP1 DUP2 MSTORE PUSH1 0x20 ADD PUSH0 KECCAK256 PUSH1 0x2 ADD SLOAD PUSH1 0x40 MLOAD PUSH2 0xD0C SWAP1 PUSH2 0x251D JUMP JUMPDEST PUSH0 PUSH1 0x40 MLOAD DUP1 DUP4 SUB DUP2 DUP6 DUP8 GAS CALL SWAP3 POP POP POP RETURNDATASIZE DUP1 PUSH0 DUP2 EQ PUSH2 0xD46 JUMPI PUSH1 0x40 MLOAD SWAP2 POP PUSH1 0x1F NOT PUSH1 0x3F RETURNDATASIZE ADD AND DUP3 ADD PUSH1 0x40 MSTORE RETURNDATASIZE DUP3 MSTORE RETURNDATASIZE PUSH0 PUSH1 0x20 DUP5 ADD RETURNDATACOPY PUSH2 0xD4B JUMP JUMPDEST PUSH1 0x60 SWAP2 POP JUMPDEST POP POP SWAP1 POP DUP1 PUSH2 0xD8F JUMPI PUSH1 0x40 MLOAD PUSH32 0x8C379A000000000000000000000000000000000000000000000000000000000 DUP2 MSTORE PUSH1 0x4 ADD PUSH2 0xD86 SWAP1 PUSH2 0x28F2 JUMP JUMPDEST PUSH1 0x40 MLOAD DUP1 SWAP2 SUB SWAP1 REVERT JUMPDEST PUSH0 PUSH1 0x8 PUSH0 DUP5 DUP2 MSTORE PUSH1 0x20 ADD SWAP1 DUP2 MSTORE PUSH1 0x20 ADD PUSH0 KECCAK256 PUSH1 0x6 ADD PUSH0 PUSH2 0x100 EXP DUP2 SLOAD DUP2 PUSH1 0xFF MUL NOT AND SWAP1 DUP4 ISZERO ISZERO MUL OR SWAP1 SSTORE POP CALLER PUSH1 0x8 PUSH0 DUP5 DUP2 MSTORE PUSH1 0x20 ADD SWAP1 DUP2 MSTORE PUSH1 0x20 ADD PUSH0 KECCAK256 PUSH1 0x4 ADD PUSH0 PUSH2 0x100 EXP DUP2 SLOAD DUP2 PUSH20 0xFFFFFFFFFFFFFFFFFFFFFFFFFFFFFFFFFFFFFFFF MUL NOT AND SWAP1 DUP4 PUSH20 0xFFFFFFFFFFFFFFFFFFFFFFFFFFFFFFFFFFFFFFFF AND MUL OR SWAP1 SSTORE POP PUSH0 PUSH1 0xA PUSH0 PUSH2 0x100 EXP DUP2 SLOAD DUP2 PUSH1 0xFF MUL NOT AND SWAP1 DUP4 PUSH1 0xFF AND MUL OR SWAP1 SSTORE POP PUSH32 0x4938ABB0A1220E7B4A0DD8B149717ABA799CD3D2263DE30C997401ABFA845241 CALLER DUP4 PUSH0 TIMESTAMP PUSH1 0x40 MLOAD PUSH2 0xE5B SWAP5 SWAP4 SWAP3 SWAP2 SWAP1 PUSH2 0x2949 JUMP JUMPDEST PUSH1 0x40 MLOAD DUP1 SWAP2 SUB SWAP1 LOG1 POP PUSH2 0x100A JUMP JUMPDEST PUSH0 PUSH1 0x2 PUSH0 SWAP1 SLOAD SWAP1 PUSH2 0x100 EXP SWAP1 DIV PUSH20 0xFFFFFFFFFFFFFFFFFFFFFFFFFFFFFFFFFFFFFFFF AND PUSH20 0xFFFFFFFFFFFFFFFFFFFFFFFFFFFFFFFFFFFFFFFF AND PUSH4 0x9B1C385E PUSH1 0x40 MLOAD DUP1 PUSH1 0xC0 ADD PUSH1 0x40 MSTORE DUP1 PUSH1 0x5 SLOAD DUP2 MSTORE PUSH1 0x20 ADD PUSH1 0x3 SLOAD DUP2 MSTORE PUSH1 0x20 ADD PUSH1 0x6 PUSH0 SWAP1 SLOAD SWAP1 PUSH2 0x100 EXP SWAP1 DIV PUSH2 0xFFFF AND PUSH2 0xFFFF AND DUP2 MSTORE PUSH1 0x20 ADD PUSH1 0x6 PUSH1 0x2 SWAP1 SLOAD SWAP1 PUSH2 0x100 EXP SWAP1 DIV PUSH4 0xFFFFFFFF AND PUSH4 0xFFFFFFFF AND DUP2 MSTORE PUSH1 0x20 ADD PUSH1 0x6 DUP1 SLOAD SWAP1 PUSH2 0x100 EXP SWAP1 DIV PUSH4 0xFFFFFFFF AND PUSH4 0xFFFFFFFF AND DUP2 MSTORE PUSH1 0x20 ADD PUSH2 0xF2F PUSH1 0x40 MLOAD DUP1 PUSH1 0x20 ADD PUSH1 0x40 MSTORE DUP1 PUSH1 0x1 ISZERO ISZERO DUP2 MSTORE POP PUSH2 0x1ABE JUMP JUMPDEST DUP2 MSTORE POP PUSH1 0x40 MLOAD DUP3 PUSH4 0xFFFFFFFF AND PUSH1 0xE0 SHL DUP2 MSTORE PUSH1 0x4 ADD PUSH2 0xF4E SWAP2 SWAP1 PUSH2 0x2AE3 JUMP JUMPDEST PUSH1 0x20 PUSH1 0x40 MLOAD DUP1 DUP4 SUB DUP2 PUSH0 DUP8 GAS CALL ISZERO DUP1 ISZERO PUSH2 0xF6A JUMPI RETURNDATASIZE PUSH0 PUSH0 RETURNDATACOPY RETURNDATASIZE PUSH0 REVERT JUMPDEST POP POP POP POP PUSH1 0x40 MLOAD RETURNDATASIZE PUSH1 0x1F NOT PUSH1 0x1F DUP3 ADD AND DUP3 ADD DUP1 PUSH1 0x40 MSTORE POP DUP2 ADD SWAP1 PUSH2 0xF8E SWAP2 SWAP1 PUSH2 0x2B17 JUMP JUMPDEST SWAP1 POP PUSH1 0x40 MLOAD DUP1 PUSH1 0x40 ADD PUSH1 0x40 MSTORE DUP1 PUSH0 DUP2 MSTORE PUSH1 0x20 ADD DUP4 DUP2 MSTORE POP PUSH1 0x9 PUSH0 DUP4 DUP2 MSTORE PUSH1 0x20 ADD SWAP1 DUP2 MSTORE PUSH1 0x20 ADD PUSH0 KECCAK256 PUSH0 DUP3 ADD MLOAD DUP2 PUSH0 ADD SSTORE PUSH1 0x20 DUP3 ADD MLOAD DUP2 PUSH1 0x1 ADD SSTORE SWAP1 POP POP PUSH32 0xA553713EFFCFD3F3DB01A02AF9AA2F33AFBC3F587A0594E927A1D58AC8A92B52 CALLER DUP4 DUP4 TIMESTAMP PUSH1 0x40 MLOAD PUSH2 0x1000 SWAP5 SWAP4 SWAP3 SWAP2 SWAP1 PUSH2 0x2599 JUMP JUMPDEST PUSH1 0x40 MLOAD DUP1 SWAP2 SUB SWAP1 LOG1 POP JUMPDEST POP JUMP JUMPDEST PUSH1 0x1 PUSH0 SWAP1 SLOAD SWAP1 PUSH2 0x100 EXP SWAP1 DIV PUSH20 0xFFFFFFFFFFFFFFFFFFFFFFFFFFFFFFFFFFFFFFFF AND PUSH20 0xFFFFFFFFFFFFFFFFFFFFFFFFFFFFFFFFFFFFFFFF AND CALLER PUSH20 0xFFFFFFFFFFFFFFFFFFFFFFFFFFFFFFFFFFFFFFFF AND EQ PUSH2 0x109C JUMPI PUSH1 0x40 MLOAD PUSH32 0x8C379A000000000000000000000000000000000000000000000000000000000 DUP2 MSTORE PUSH1 0x4 ADD PUSH2 0x1093 SWAP1 PUSH2 0x2B8C JUMP JUMPDEST PUSH1 0x40 MLOAD DUP1 SWAP2 SUB SWAP1 REVERT JUMPDEST PUSH0 PUSH0 PUSH0 SWAP1 SLOAD SWAP1 PUSH2 0x100 EXP SWAP1 DIV PUSH20 0xFFFFFFFFFFFFFFFFFFFFFFFFFFFFFFFFFFFFFFFF AND SWAP1 POP CALLER PUSH0 PUSH0 PUSH2 0x100 EXP DUP2 SLOAD DUP2 PUSH20 0xFFFFFFFFFFFFFFFFFFFFFFFFFFFFFFFFFFFFFFFF MUL NOT AND SWAP1 DUP4 PUSH20 0xFFFFFFFFFFFFFFFFFFFFFFFFFFFFFFFFFFFFFFFF AND MUL OR SWAP1 SSTORE POP PUSH0 PUSH1 0x1 PUSH0 PUSH2 0x100 EXP DUP2 SLOAD DUP2 PUSH20 0xFFFFFFFFFFFFFFFFFFFFFFFFFFFFFFFFFFFFFFFF MUL NOT AND SWAP1 DUP4 PUSH20 0xFFFFFFFFFFFFFFFFFFFFFFFFFFFFFFFFFFFFFFFF AND MUL OR SWAP1 SSTORE POP CALLER PUSH20 0xFFFFFFFFFFFFFFFFFFFFFFFFFFFFFFFFFFFFFFFF AND DUP2 PUSH20 0xFFFFFFFFFFFFFFFFFFFFFFFFFFFFFFFFFFFFFFFF AND PUSH32 0x8BE0079C531659141344CD1FD0A4F28419497F9722A3DAAFE3B4186F6B6457E0 PUSH1 0x40 MLOAD PUSH1 0x40 MLOAD DUP1 SWAP2 SUB SWAP1 LOG3 POP JUMP JUMPDEST PUSH0 PUSH1 0xC SLOAD SWAP1 POP SWAP1 JUMP JUMPDEST PUSH0 PUSH0 PUSH0 SWAP1 SLOAD SWAP1 PUSH2 0x100 EXP SWAP1 DIV PUSH20 0xFFFFFFFFFFFFFFFFFFFFFFFFFFFFFFFFFFFFFFFF AND SWAP1 POP SWAP1 JUMP JUMPDEST PUSH2 0x11D4 PUSH2 0x11A5 JUMP JUMPDEST PUSH20 0xFFFFFFFFFFFFFFFFFFFFFFFFFFFFFFFFFFFFFFFF AND CALLER PUSH20 0xFFFFFFFFFFFFFFFFFFFFFFFFFFFFFFFFFFFFFFFF AND EQ ISZERO DUP1 ISZERO PUSH2 0x125C JUMPI POP PUSH1 0x2 PUSH0 SWAP1 SLOAD SWAP1 PUSH2 0x100 EXP SWAP1 DIV PUSH20 0xFFFFFFFFFFFFFFFFFFFFFFFFFFFFFFFFFFFFFFFF AND PUSH20 0xFFFFFFFFFFFFFFFFFFFFFFFFFFFFFFFFFFFFFFFF AND CALLER PUSH20 0xFFFFFFFFFFFFFFFFFFFFFFFFFFFFFFFFFFFFFFFF AND EQ ISZERO JUMPDEST ISZERO PUSH2 0x12CA JUMPI CALLER PUSH2 0x126A PUSH2 0x11A5 JUMP JUMPDEST PUSH1 0x2 PUSH0 SWAP1 SLOAD SWAP1 PUSH2 0x100 EXP SWAP1 DIV PUSH20 0xFFFFFFFFFFFFFFFFFFFFFFFFFFFFFFFFFFFFFFFF AND PUSH1 0x40 MLOAD PUSH32 0x61DB9C100000000000000000000000000000000000000000000000000000000 DUP2 MSTORE PUSH1 0x4 ADD PUSH2 0x12C1 SWAP4 SWAP3 SWAP2 SWAP1 PUSH2 0x2BAA JUMP JUMPDEST PUSH1 0x40 MLOAD DUP1 SWAP2 SUB SWAP1 REVERT JUMPDEST PUSH0 PUSH20 0xFFFFFFFFFFFFFFFFFFFFFFFFFFFFFFFFFFFFFFFF AND DUP2 PUSH20 0xFFFFFFFFFFFFFFFFFFFFFFFFFFFFFFFFFFFFFFFF AND SUB PUSH2 0x132F JUMPI PUSH1 0x40 MLOAD PUSH32 0xD92E233D00000000000000000000000000000000000000000000000000000000 DUP2 MSTORE PUSH1 0x4 ADD PUSH1 0x40 MLOAD DUP1 SWAP2 SUB SWAP1 REVERT JUMPDEST DUP1 PUSH1 0x2 PUSH0 PUSH2 0x100 EXP DUP2 SLOAD DUP2 PUSH20 0xFFFFFFFFFFFFFFFFFFFFFFFFFFFFFFFFFFFFFFFF MUL NOT AND SWAP1 DUP4 PUSH20 0xFFFFFFFFFFFFFFFFFFFFFFFFFFFFFFFFFFFFFFFF AND MUL OR SWAP1 SSTORE POP PUSH32 0xD1A6A14209A385A964D036E404CB5CFB71F4000CDB03C9366292430787261BE6 DUP2 PUSH1 0x40 MLOAD PUSH2 0x139E SWAP2 SWAP1 PUSH2 0x1EC9 JUMP JUMPDEST PUSH1 0x40 MLOAD DUP1 SWAP2 SUB SWAP1 LOG1 POP JUMP JUMPDEST PUSH1 0x2 PUSH0 SWAP1 SLOAD SWAP1 PUSH2 0x100 EXP SWAP1 DIV PUSH20 0xFFFFFFFFFFFFFFFFFFFFFFFFFFFFFFFFFFFFFFFF AND DUP2 JUMP JUMPDEST PUSH0 PUSH20 0xFFFFFFFFFFFFFFFFFFFFFFFFFFFFFFFFFFFFFFFF AND CALLER PUSH20 0xFFFFFFFFFFFFFFFFFFFFFFFFFFFFFFFFFFFFFFFF AND SUB PUSH2 0x143C JUMPI PUSH1 0x40 MLOAD PUSH32 0x8C379A000000000000000000000000000000000000000000000000000000000 DUP2 MSTORE PUSH1 0x4 ADD PUSH2 0x1433 SWAP1 PUSH2 0x2C29 JUMP JUMPDEST PUSH1 0x40 MLOAD DUP1 SWAP2 SUB SWAP1 REVERT JUMPDEST PUSH0 PUSH1 0x8 PUSH0 DUP4 DUP2 MSTORE PUSH1 0x20 ADD SWAP1 DUP2 MSTORE PUSH1 0x20 ADD PUSH0 KECCAK256 SWAP1 POP TIMESTAMP DUP2 PUSH0 ADD SLOAD GT ISZERO DUP1 ISZERO PUSH2 0x1466 JUMPI POP TIMESTAMP DUP2 PUSH1 0x1 ADD SLOAD GT JUMPDEST PUSH2 0x14A5 JUMPI PUSH1 0x40 MLOAD PUSH32 0x8C379A000000000000000000000000000000000000000000000000000000000 DUP2 MSTORE PUSH1 0x4 ADD PUSH2 0x149C SWAP1 PUSH2 0x2C91 JUMP JUMPDEST PUSH1 0x40 MLOAD DUP1 SWAP2 SUB SWAP1 REVERT JUMPDEST PUSH1 0x1 ISZERO ISZERO DUP2 PUSH1 0x6 ADD PUSH0 SWAP1 SLOAD SWAP1 PUSH2 0x100 EXP SWAP1 DIV PUSH1 0xFF AND ISZERO ISZERO EQ PUSH2 0x14FC JUMPI PUSH1 0x40 MLOAD PUSH32 0x8C379A000000000000000000000000000000000000000000000000000000000 DUP2 MSTORE PUSH1 0x4 ADD PUSH2 0x14F3 SWAP1 PUSH2 0x2163 JUMP JUMPDEST PUSH1 0x40 MLOAD DUP1 SWAP2 SUB SWAP1 REVERT JUMPDEST DUP1 PUSH1 0x5 ADD SLOAD CALLVALUE LT ISZERO PUSH2 0x1543 JUMPI PUSH1 0x40 MLOAD PUSH32 0x8C379A000000000000000000000000000000000000000000000000000000000 DUP2 MSTORE PUSH1 0x4 ADD PUSH2 0x153A SWAP1 PUSH2 0x2D1F JUMP JUMPDEST PUSH1 0x40 MLOAD DUP1 SWAP2 SUB SWAP1 REVERT JUMPDEST PUSH0 DUP2 PUSH1 0x7 ADD PUSH0 CALLER PUSH20 0xFFFFFFFFFFFFFFFFFFFFFFFFFFFFFFFFFFFFFFFF AND PUSH20 0xFFFFFFFFFFFFFFFFFFFFFFFFFFFFFFFFFFFFFFFF AND DUP2 MSTORE PUSH1 0x20 ADD SWAP1 DUP2 MSTORE PUSH1 0x20 ADD PUSH0 KECCAK256 SLOAD GT ISZERO PUSH2 0x15C5 JUMPI PUSH1 0x40 MLOAD PUSH32 0x8C379A000000000000000000000000000000000000000000000000000000000 DUP2 MSTORE PUSH1 0x4 ADD PUSH2 0x15BC SWAP1 PUSH2 0x2DAD JUMP JUMPDEST PUSH1 0x40 MLOAD DUP1 SWAP2 SUB SWAP1 REVERT JUMPDEST CALLVALUE DUP2 PUSH1 0x2 ADD PUSH0 DUP3 DUP3 SLOAD PUSH2 0x15D8 SWAP2 SWAP1 PUSH2 0x248A JUMP JUMPDEST SWAP3 POP POP DUP2 SWAP1 SSTORE POP CALLVALUE DUP2 PUSH1 0x7 ADD PUSH0 CALLER PUSH20 0xFFFFFFFFFFFFFFFFFFFFFFFFFFFFFFFFFFFFFFFF AND PUSH20 0xFFFFFFFFFFFFFFFFFFFFFFFFFFFFFFFFFFFFFFFF AND DUP2 MSTORE PUSH1 0x20 ADD SWAP1 DUP2 MSTORE PUSH1 0x20 ADD PUSH0 KECCAK256 DUP2 SWAP1 SSTORE POP DUP1 PUSH1 0x8 ADD CALLER SWAP1 DUP1 PUSH1 0x1 DUP2 SLOAD ADD DUP1 DUP3 SSTORE DUP1 SWAP2 POP POP PUSH1 0x1 SWAP1 SUB SWAP1 PUSH0 MSTORE PUSH1 0x20 PUSH0 KECCAK256 ADD PUSH0 SWAP1 SWAP2 SWAP1 SWAP2 SWAP1 SWAP2 PUSH2 0x100 EXP DUP2 SLOAD DUP2 PUSH20 0xFFFFFFFFFFFFFFFFFFFFFFFFFFFFFFFFFFFFFFFF MUL NOT AND SWAP1 DUP4 PUSH20 0xFFFFFFFFFFFFFFFFFFFFFFFFFFFFFFFFFFFFFFFF AND MUL OR SWAP1 SSTORE POP PUSH32 0x2E86A4EA48E0BA7ADC0BA18A20C7FB7B8E65257BBAE7BC0816518C2E5E65CEC0 CALLER DUP4 CALLVALUE TIMESTAMP PUSH1 0x40 MLOAD PUSH2 0x16BA SWAP5 SWAP4 SWAP3 SWAP2 SWAP1 PUSH2 0x2599 JUMP JUMPDEST PUSH1 0x40 MLOAD DUP1 SWAP2 SUB SWAP1 LOG1 POP POP JUMP JUMPDEST PUSH1 0x12 PUSH1 0xA PUSH2 0x16D4 SWAP2 SWAP1 PUSH2 0x23CF JUMP JUMPDEST DUP2 JUMP JUMPDEST PUSH1 0x7 SLOAD DUP2 JUMP JUMPDEST PUSH0 PUSH0 PUSH20 0xFFFFFFFFFFFFFFFFFFFFFFFFFFFFFFFFFFFFFFFF AND DUP3 PUSH20 0xFFFFFFFFFFFFFFFFFFFFFFFFFFFFFFFFFFFFFFFF AND SUB PUSH2 0x1715 JUMPI PUSH0 PUSH0 REVERT JUMPDEST PUSH0 PUSH1 0x8 PUSH0 DUP6 DUP2 MSTORE PUSH1 0x20 ADD SWAP1 DUP2 MSTORE PUSH1 0x20 ADD PUSH0 KECCAK256 SWAP1 POP DUP1 PUSH1 0x7 ADD PUSH0 DUP5 PUSH20 0xFFFFFFFFFFFFFFFFFFFFFFFFFFFFFFFFFFFFFFFF AND PUSH20 0xFFFFFFFFFFFFFFFFFFFFFFFFFFFFFFFFFFFFFFFF AND DUP2 MSTORE PUSH1 0x20 ADD SWAP1 DUP2 MSTORE PUSH1 0x20 ADD PUSH0 KECCAK256 SLOAD SWAP2 POP POP SWAP3 SWAP2 POP POP JUMP JUMPDEST PUSH2 0x177A PUSH2 0x19A8 JUMP JUMPDEST PUSH2 0x1783 DUP2 PUSH2 0x1B56 JUMP JUMPDEST POP JUMP JUMPDEST PUSH0 PUSH0 PUSH20 0xFFFFFFFFFFFFFFFFFFFFFFFFFFFFFFFFFFFFFFFF AND CALLER PUSH20 0xFFFFFFFFFFFFFFFFFFFFFFFFFFFFFFFFFFFFFFFF AND SUB PUSH2 0x17F5 JUMPI PUSH1 0x40 MLOAD PUSH32 0x8C379A000000000000000000000000000000000000000000000000000000000 DUP2 MSTORE PUSH1 0x4 ADD PUSH2 0x17EC SWAP1 PUSH2 0x2E15 JUMP JUMPDEST PUSH1 0x40 MLOAD DUP1 SWAP2 SUB SWAP1 REVERT JUMPDEST PUSH0 CALLVALUE GT DUP1 ISZERO PUSH2 0x1806 JUMPI POP PUSH1 0xB SLOAD CALLVALUE LT ISZERO JUMPDEST PUSH2 0x1845 JUMPI PUSH1 0x40 MLOAD PUSH32 0x8C379A000000000000000000000000000000000000000000000000000000000 DUP2 MSTORE PUSH1 0x4 ADD PUSH2 0x183C SWAP1 PUSH2 0x2EA3 JUMP JUMPDEST PUSH1 0x40 MLOAD DUP1 SWAP2 SUB SWAP1 REVERT JUMPDEST PUSH1 0x1 PUSH1 0x7 PUSH0 DUP3 DUP3 SLOAD PUSH2 0x1857 SWAP2 SWAP1 PUSH2 0x248A JUMP JUMPDEST SWAP3 POP POP DUP2 SWAP1 SSTORE POP PUSH0 PUSH1 0x8 PUSH0 PUSH1 0x7 SLOAD DUP2 MSTORE PUSH1 0x20 ADD SWAP1 DUP2 MSTORE PUSH1 0x20 ADD PUSH0 KECCAK256 SWAP1 POP DUP5 DUP2 PUSH0 ADD DUP2 SWAP1 SSTORE POP DUP4 DUP2 PUSH1 0x1 ADD DUP2 SWAP1 SSTORE POP CALLVALUE DUP2 PUSH1 0x2 ADD DUP2 SWAP1 SSTORE POP CALLER DUP2 PUSH1 0x3 ADD PUSH0 PUSH2 0x100 EXP DUP2 SLOAD DUP2 PUSH20 0xFFFFFFFFFFFFFFFFFFFFFFFFFFFFFFFFFFFFFFFF MUL NOT AND SWAP1 DUP4 PUSH20 0xFFFFFFFFFFFFFFFFFFFFFFFFFFFFFFFFFFFFFFFF AND MUL OR SWAP1 SSTORE POP DUP3 DUP2 PUSH1 0x5 ADD DUP2 SWAP1 SSTORE POP PUSH1 0x1 DUP2 PUSH1 0x6 ADD PUSH0 PUSH2 0x100 EXP DUP2 SLOAD DUP2 PUSH1 0xFF MUL NOT AND SWAP1 DUP4 ISZERO ISZERO MUL OR SWAP1 SSTORE POP CALLVALUE DUP2 PUSH1 0x7 ADD PUSH0 CALLER PUSH20 0xFFFFFFFFFFFFFFFFFFFFFFFFFFFFFFFFFFFFFFFF AND PUSH20 0xFFFFFFFFFFFFFFFFFFFFFFFFFFFFFFFFFFFFFFFF AND DUP2 MSTORE PUSH1 0x20 ADD SWAP1 DUP2 MSTORE PUSH1 0x20 ADD PUSH0 KECCAK256 DUP2 SWAP1 SSTORE POP DUP1 PUSH1 0x8 ADD CALLER SWAP1 DUP1 PUSH1 0x1 DUP2 SLOAD ADD DUP1 DUP3 SSTORE DUP1 SWAP2 POP POP PUSH1 0x1 SWAP1 SUB SWAP1 PUSH0 MSTORE PUSH1 0x20 PUSH0 KECCAK256 ADD PUSH0 SWAP1 SWAP2 SWAP1 SWAP2 SWAP1 SWAP2 PUSH2 0x100 EXP DUP2 SLOAD DUP2 PUSH20 0xFFFFFFFFFFFFFFFFFFFFFFFFFFFFFFFFFFFFFFFF MUL NOT AND SWAP1 DUP4 PUSH20 0xFFFFFFFFFFFFFFFFFFFFFFFFFFFFFFFFFFFFFFFF AND MUL OR SWAP1 SSTORE POP PUSH1 0x7 SLOAD SWAP2 POP POP SWAP4 SWAP3 POP POP POP JUMP JUMPDEST PUSH0 PUSH0 SWAP1 SLOAD SWAP1 PUSH2 0x100 EXP SWAP1 DIV PUSH20 0xFFFFFFFFFFFFFFFFFFFFFFFFFFFFFFFFFFFFFFFF AND PUSH20 0xFFFFFFFFFFFFFFFFFFFFFFFFFFFFFFFFFFFFFFFF AND CALLER PUSH20 0xFFFFFFFFFFFFFFFFFFFFFFFFFFFFFFFFFFFFFFFF AND EQ PUSH2 0x1A36 JUMPI PUSH1 0x40 MLOAD PUSH32 0x8C379A000000000000000000000000000000000000000000000000000000000 DUP2 MSTORE PUSH1 0x4 ADD PUSH2 0x1A2D SWAP1 PUSH2 0x2F0B JUMP JUMPDEST PUSH1 0x40 MLOAD DUP1 SWAP2 SUB SWAP1 REVERT JUMPDEST JUMP JUMPDEST PUSH0 PUSH1 0x9 PUSH0 DUP6 DUP2 MSTORE PUSH1 0x20 ADD SWAP1 DUP2 MSTORE PUSH1 0x20 ADD PUSH0 KECCAK256 SWAP1 POP PUSH0 DUP2 PUSH1 0x1 ADD SLOAD GT PUSH2 0x1A92 JUMPI PUSH1 0x40 MLOAD PUSH32 0x8C379A000000000000000000000000000000000000000000000000000000000 DUP2 MSTORE PUSH1 0x4 ADD PUSH2 0x1A89 SWAP1 PUSH2 0x2093 JUMP JUMPDEST PUSH1 0x40 MLOAD DUP1 SWAP2 SUB SWAP1 REVERT JUMPDEST PUSH0 DUP4 DUP4 PUSH0 DUP2 DUP2 LT PUSH2 0x1AA6 JUMPI PUSH2 0x1AA5 PUSH2 0x2246 JUMP JUMPDEST JUMPDEST SWAP1 POP PUSH1 0x20 MUL ADD CALLDATALOAD SWAP1 POP DUP1 DUP3 PUSH0 ADD DUP2 SWAP1 SSTORE POP POP POP POP POP POP JUMP JUMPDEST PUSH1 0x60 PUSH32 0x92FD13387C7FE7BEFBC38D303D6468778FB9731BC4583F17D92989C6FCFDEAAA DUP3 PUSH1 0x40 MLOAD PUSH1 0x24 ADD PUSH2 0x1AF2 SWAP2 SWAP1 PUSH2 0x2F52 JUMP JUMPDEST PUSH1 0x40 MLOAD PUSH1 0x20 DUP2 DUP4 SUB SUB DUP2 MSTORE SWAP1 PUSH1 0x40 MSTORE SWAP1 PUSH28 0xFFFFFFFFFFFFFFFFFFFFFFFFFFFFFFFFFFFFFFFFFFFFFFFFFFFFFFFF NOT AND PUSH1 0x20 DUP3 ADD DUP1 MLOAD PUSH28 0xFFFFFFFFFFFFFFFFFFFFFFFFFFFFFFFFFFFFFFFFFFFFFFFFFFFFFFFF DUP4 DUP2 DUP4 AND OR DUP4 MSTORE POP POP POP POP SWAP1 POP SWAP2 SWAP1 POP JUMP JUMPDEST CALLER PUSH20 0xFFFFFFFFFFFFFFFFFFFFFFFFFFFFFFFFFFFFFFFF AND DUP2 PUSH20 0xFFFFFFFFFFFFFFFFFFFFFFFFFFFFFFFFFFFFFFFF AND SUB PUSH2 0x1BC4 JUMPI PUSH1 0x40 MLOAD PUSH32 0x8C379A000000000000000000000000000000000000000000000000000000000 DUP2 MSTORE PUSH1 0x4 ADD PUSH2 0x1BBB SWAP1 PUSH2 0x2FB5 JUMP JUMPDEST PUSH1 0x40 MLOAD DUP1 SWAP2 SUB SWAP1 REVERT JUMPDEST DUP1 PUSH1 0x1 PUSH0 PUSH2 0x100 EXP DUP2 SLOAD DUP2 PUSH20 0xFFFFFFFFFFFFFFFFFFFFFFFFFFFFFFFFFFFFFFFF MUL NOT AND SWAP1 DUP4 PUSH20 0xFFFFFFFFFFFFFFFFFFFFFFFFFFFFFFFFFFFFFFFF AND MUL OR SWAP1 SSTORE POP DUP1 PUSH20 0xFFFFFFFFFFFFFFFFFFFFFFFFFFFFFFFFFFFFFFFF AND PUSH0 PUSH0 SWAP1 SLOAD SWAP1 PUSH2 0x100 EXP SWAP1 DIV PUSH20 0xFFFFFFFFFFFFFFFFFFFFFFFFFFFFFFFFFFFFFFFF AND PUSH20 0xFFFFFFFFFFFFFFFFFFFFFFFFFFFFFFFFFFFFFFFF AND PUSH32 0xED8889F560326EB138920D842192F0EB3DD22B4F139C87A2C57538E05BAE1278 PUSH1 0x40 MLOAD PUSH1 0x40 MLOAD DUP1 SWAP2 SUB SWAP1 LOG3 POP JUMP JUMPDEST PUSH0 PUSH0 REVERT JUMPDEST PUSH0 PUSH0 REVERT JUMPDEST PUSH0 DUP2 SWAP1 POP SWAP2 SWAP1 POP JUMP JUMPDEST PUSH2 0x1C9B DUP2 PUSH2 0x1C89 JUMP JUMPDEST DUP2 EQ PUSH2 0x1CA5 JUMPI PUSH0 PUSH0 REVERT JUMPDEST POP JUMP JUMPDEST PUSH0 DUP2 CALLDATALOAD SWAP1 POP PUSH2 0x1CB6 DUP2 PUSH2 0x1C92 JUMP JUMPDEST SWAP3 SWAP2 POP POP JUMP JUMPDEST PUSH0 PUSH1 0x20 DUP3 DUP5 SUB SLT ISZERO PUSH2 0x1CD1 JUMPI PUSH2 0x1CD0 PUSH2 0x1C81 JUMP JUMPDEST JUMPDEST PUSH0 PUSH2 0x1CDE DUP5 DUP3 DUP6 ADD PUSH2 0x1CA8 JUMP JUMPDEST SWAP2 POP POP SWAP3 SWAP2 POP POP JUMP JUMPDEST PUSH2 0x1CF0 DUP2 PUSH2 0x1C89 JUMP JUMPDEST DUP3 MSTORE POP POP JUMP JUMPDEST PUSH0 PUSH1 0x40 DUP3 ADD SWAP1 POP PUSH2 0x1D09 PUSH0 DUP4 ADD DUP6 PUSH2 0x1CE7 JUMP JUMPDEST PUSH2 0x1D16 PUSH1 0x20 DUP4 ADD DUP5 PUSH2 0x1CE7 JUMP JUMPDEST SWAP4 SWAP3 POP POP POP JUMP JUMPDEST PUSH0 PUSH0 REVERT JUMPDEST PUSH0 PUSH0 REVERT JUMPDEST PUSH0 PUSH0 REVERT JUMPDEST PUSH0 PUSH0 DUP4 PUSH1 0x1F DUP5 ADD SLT PUSH2 0x1D3E JUMPI PUSH2 0x1D3D PUSH2 0x1D1D JUMP JUMPDEST JUMPDEST DUP3 CALLDATALOAD SWAP1 POP PUSH8 0xFFFFFFFFFFFFFFFF DUP2 GT ISZERO PUSH2 0x1D5B JUMPI PUSH2 0x1D5A PUSH2 0x1D21 JUMP JUMPDEST JUMPDEST PUSH1 0x20 DUP4 ADD SWAP2 POP DUP4 PUSH1 0x20 DUP3 MUL DUP4 ADD GT ISZERO PUSH2 0x1D77 JUMPI PUSH2 0x1D76 PUSH2 0x1D25 JUMP JUMPDEST JUMPDEST SWAP3 POP SWAP3 SWAP1 POP JUMP JUMPDEST PUSH0 PUSH0 PUSH0 PUSH1 0x40 DUP5 DUP7 SUB SLT ISZERO PUSH2 0x1D95 JUMPI PUSH2 0x1D94 PUSH2 0x1C81 JUMP JUMPDEST JUMPDEST PUSH0 PUSH2 0x1DA2 DUP7 DUP3 DUP8 ADD PUSH2 0x1CA8 JUMP JUMPDEST SWAP4 POP POP PUSH1 0x20 DUP5 ADD CALLDATALOAD PUSH8 0xFFFFFFFFFFFFFFFF DUP2 GT ISZERO PUSH2 0x1DC3 JUMPI PUSH2 0x1DC2 PUSH2 0x1C85 JUMP JUMPDEST JUMPDEST PUSH2 0x1DCF DUP7 DUP3 DUP8 ADD PUSH2 0x1D29 JUMP JUMPDEST SWAP3 POP SWAP3 POP POP SWAP3 POP SWAP3 POP SWAP3 JUMP JUMPDEST PUSH0 PUSH1 0x20 DUP3 ADD SWAP1 POP PUSH2 0x1DEE PUSH0 DUP4 ADD DUP5 PUSH2 0x1CE7 JUMP JUMPDEST SWAP3 SWAP2 POP POP JUMP JUMPDEST PUSH0 PUSH20 0xFFFFFFFFFFFFFFFFFFFFFFFFFFFFFFFFFFFFFFFF DUP3 AND SWAP1 POP SWAP2 SWAP1 POP JUMP JUMPDEST PUSH0 PUSH2 0x1E1D DUP3 PUSH2 0x1DF4 JUMP JUMPDEST SWAP1 POP SWAP2 SWAP1 POP JUMP JUMPDEST PUSH2 0x1E2D DUP2 PUSH2 0x1E13 JUMP JUMPDEST DUP3 MSTORE POP POP JUMP JUMPDEST PUSH0 DUP2 ISZERO ISZERO SWAP1 POP SWAP2 SWAP1 POP JUMP JUMPDEST PUSH2 0x1E47 DUP2 PUSH2 0x1E33 JUMP JUMPDEST DUP3 MSTORE POP POP JUMP JUMPDEST PUSH0 PUSH2 0x100 DUP3 ADD SWAP1 POP PUSH2 0x1E61 PUSH0 DUP4 ADD DUP12 PUSH2 0x1CE7 JUMP JUMPDEST PUSH2 0x1E6E PUSH1 0x20 DUP4 ADD DUP11 PUSH2 0x1CE7 JUMP JUMPDEST PUSH2 0x1E7B PUSH1 0x40 DUP4 ADD DUP10 PUSH2 0x1CE7 JUMP JUMPDEST PUSH2 0x1E88 PUSH1 0x60 DUP4 ADD DUP9 PUSH2 0x1E24 JUMP JUMPDEST PUSH2 0x1E95 PUSH1 0x80 DUP4 ADD DUP8 PUSH2 0x1E24 JUMP JUMPDEST PUSH2 0x1EA2 PUSH1 0xA0 DUP4 ADD DUP7 PUSH2 0x1CE7 JUMP JUMPDEST PUSH2 0x1EAF PUSH1 0xC0 DUP4 ADD DUP6 PUSH2 0x1E3E JUMP JUMPDEST PUSH2 0x1EBC PUSH1 0xE0 DUP4 ADD DUP5 PUSH2 0x1CE7 JUMP JUMPDEST SWAP10 SWAP9 POP POP POP POP POP POP POP POP POP JUMP JUMPDEST PUSH0 PUSH1 0x20 DUP3 ADD SWAP1 POP PUSH2 0x1EDC PUSH0 DUP4 ADD DUP5 PUSH2 0x1E24 JUMP JUMPDEST SWAP3 SWAP2 POP POP JUMP JUMPDEST PUSH2 0x1EEB DUP2 PUSH2 0x1E13 JUMP JUMPDEST DUP2 EQ PUSH2 0x1EF5 JUMPI PUSH0 PUSH0 REVERT JUMPDEST POP JUMP JUMPDEST PUSH0 DUP2 CALLDATALOAD SWAP1 POP PUSH2 0x1F06 DUP2 PUSH2 0x1EE2 JUMP JUMPDEST SWAP3 SWAP2 POP POP JUMP JUMPDEST PUSH0 PUSH1 0x20 DUP3 DUP5 SUB SLT ISZERO PUSH2 0x1F21 JUMPI PUSH2 0x1F20 PUSH2 0x1C81 JUMP JUMPDEST JUMPDEST PUSH0 PUSH2 0x1F2E DUP5 DUP3 DUP6 ADD PUSH2 0x1EF8 JUMP JUMPDEST SWAP2 POP POP SWAP3 SWAP2 POP POP JUMP JUMPDEST PUSH0 DUP2 SWAP1 POP SWAP2 SWAP1 POP JUMP JUMPDEST PUSH0 PUSH2 0x1F5A PUSH2 0x1F55 PUSH2 0x1F50 DUP5 PUSH2 0x1DF4 JUMP JUMPDEST PUSH2 0x1F37 JUMP JUMPDEST PUSH2 0x1DF4 JUMP JUMPDEST SWAP1 POP SWAP2 SWAP1 POP JUMP JUMPDEST PUSH0 PUSH2 0x1F6B DUP3 PUSH2 0x1F40 JUMP JUMPDEST SWAP1 POP SWAP2 SWAP1 POP JUMP JUMPDEST PUSH0 PUSH2 0x1F7C DUP3 PUSH2 0x1F61 JUMP JUMPDEST SWAP1 POP SWAP2 SWAP1 POP JUMP JUMPDEST PUSH2 0x1F8C DUP2 PUSH2 0x1F72 JUMP JUMPDEST DUP3 MSTORE POP POP JUMP JUMPDEST PUSH0 PUSH1 0x20 DUP3 ADD SWAP1 POP PUSH2 0x1FA5 PUSH0 DUP4 ADD DUP5 PUSH2 0x1F83 JUMP JUMPDEST SWAP3 SWAP2 POP POP JUMP JUMPDEST PUSH0 PUSH0 PUSH1 0x40 DUP4 DUP6 SUB SLT ISZERO PUSH2 0x1FC1 JUMPI PUSH2 0x1FC0 PUSH2 0x1C81 JUMP JUMPDEST JUMPDEST PUSH0 PUSH2 0x1FCE DUP6 DUP3 DUP7 ADD PUSH2 0x1CA8 JUMP JUMPDEST SWAP3 POP POP PUSH1 0x20 PUSH2 0x1FDF DUP6 DUP3 DUP7 ADD PUSH2 0x1EF8 JUMP JUMPDEST SWAP2 POP POP SWAP3 POP SWAP3 SWAP1 POP JUMP JUMPDEST PUSH0 PUSH0 PUSH0 PUSH1 0x60 DUP5 DUP7 SUB SLT ISZERO PUSH2 0x2000 JUMPI PUSH2 0x1FFF PUSH2 0x1C81 JUMP JUMPDEST JUMPDEST PUSH0 PUSH2 0x200D DUP7 DUP3 DUP8 ADD PUSH2 0x1CA8 JUMP JUMPDEST SWAP4 POP POP PUSH1 0x20 PUSH2 0x201E DUP7 DUP3 DUP8 ADD PUSH2 0x1CA8 JUMP JUMPDEST SWAP3 POP POP PUSH1 0x40 PUSH2 0x202F DUP7 DUP3 DUP8 ADD PUSH2 0x1CA8 JUMP JUMPDEST SWAP2 POP POP SWAP3 POP SWAP3 POP SWAP3 JUMP JUMPDEST PUSH0 DUP3 DUP3 MSTORE PUSH1 0x20 DUP3 ADD SWAP1 POP SWAP3 SWAP2 POP POP JUMP JUMPDEST PUSH32 0x6E6F74206578697374207461736B000000000000000000000000000000000000 PUSH0 DUP3 ADD MSTORE POP JUMP JUMPDEST PUSH0 PUSH2 0x207D PUSH1 0xE DUP4 PUSH2 0x2039 JUMP JUMPDEST SWAP2 POP PUSH2 0x2088 DUP3 PUSH2 0x2049 JUMP JUMPDEST PUSH1 0x20 DUP3 ADD SWAP1 POP SWAP2 SWAP1 POP JUMP JUMPDEST PUSH0 PUSH1 0x20 DUP3 ADD SWAP1 POP DUP2 DUP2 SUB PUSH0 DUP4 ADD MSTORE PUSH2 0x20AA DUP2 PUSH2 0x2071 JUMP JUMPDEST SWAP1 POP SWAP2 SWAP1 POP JUMP JUMPDEST PUSH32 0x706C65617365207072652063616C6C206472617777696E6E6572000000000000 PUSH0 DUP3 ADD MSTORE POP JUMP JUMPDEST PUSH0 PUSH2 0x20E5 PUSH1 0x1A DUP4 PUSH2 0x2039 JUMP JUMPDEST SWAP2 POP PUSH2 0x20F0 DUP3 PUSH2 0x20B1 JUMP JUMPDEST PUSH1 0x20 DUP3 ADD SWAP1 POP SWAP2 SWAP1 POP JUMP JUMPDEST PUSH0 PUSH1 0x20 DUP3 ADD SWAP1 POP DUP2 DUP2 SUB PUSH0 DUP4 ADD MSTORE PUSH2 0x2112 DUP2 PUSH2 0x20D9 JUMP JUMPDEST SWAP1 POP SWAP2 SWAP1 POP JUMP JUMPDEST PUSH32 0x63757272656E74207461736B2068617320646F6E650000000000000000000000 PUSH0 DUP3 ADD MSTORE POP JUMP JUMPDEST PUSH0 PUSH2 0x214D PUSH1 0x15 DUP4 PUSH2 0x2039 JUMP JUMPDEST SWAP2 POP PUSH2 0x2158 DUP3 PUSH2 0x2119 JUMP JUMPDEST PUSH1 0x20 DUP3 ADD SWAP1 POP SWAP2 SWAP1 POP JUMP JUMPDEST PUSH0 PUSH1 0x20 DUP3 ADD SWAP1 POP DUP2 DUP2 SUB PUSH0 DUP4 ADD MSTORE PUSH2 0x217A DUP2 PUSH2 0x2141 JUMP JUMPDEST SWAP1 POP SWAP2 SWAP1 POP JUMP JUMPDEST PUSH32 0x4E6F207061727469636970616E74730000000000000000000000000000000000 PUSH0 DUP3 ADD MSTORE POP JUMP JUMPDEST PUSH0 PUSH2 0x21B5 PUSH1 0xF DUP4 PUSH2 0x2039 JUMP JUMPDEST SWAP2 POP PUSH2 0x21C0 DUP3 PUSH2 0x2181 JUMP JUMPDEST PUSH1 0x20 DUP3 ADD SWAP1 POP SWAP2 SWAP1 POP JUMP JUMPDEST PUSH0 PUSH1 0x20 DUP3 ADD SWAP1 POP DUP2 DUP2 SUB PUSH0 DUP4 ADD MSTORE PUSH2 0x21E2 DUP2 PUSH2 0x21A9 JUMP JUMPDEST SWAP1 POP SWAP2 SWAP1 POP JUMP JUMPDEST PUSH32 0x4E487B7100000000000000000000000000000000000000000000000000000000 PUSH0 MSTORE PUSH1 0x12 PUSH1 0x4 MSTORE PUSH1 0x24 PUSH0 REVERT JUMPDEST PUSH0 PUSH2 0x2220 DUP3 PUSH2 0x1C89 JUMP JUMPDEST SWAP2 POP PUSH2 0x222B DUP4 PUSH2 0x1C89 JUMP JUMPDEST SWAP3 POP DUP3 PUSH2 0x223B JUMPI PUSH2 0x223A PUSH2 0x21E9 JUMP JUMPDEST JUMPDEST DUP3 DUP3 MOD SWAP1 POP SWAP3 SWAP2 POP POP JUMP JUMPDEST PUSH32 0x4E487B7100000000000000000000000000000000000000000000000000000000 PUSH0 MSTORE PUSH1 0x32 PUSH1 0x4 MSTORE PUSH1 0x24 PUSH0 REVERT JUMPDEST PUSH32 0x4E487B7100000000000000000000000000000000000000000000000000000000 PUSH0 MSTORE PUSH1 0x11 PUSH1 0x4 MSTORE PUSH1 0x24 PUSH0 REVERT JUMPDEST PUSH0 DUP2 PUSH1 0x1 SHR SWAP1 POP SWAP2 SWAP1 POP JUMP JUMPDEST PUSH0 PUSH0 DUP3 SWAP2 POP DUP4 SWAP1 POP JUMPDEST PUSH1 0x1 DUP6 GT ISZERO PUSH2 0x22F5 JUMPI DUP1 DUP7 DIV DUP2 GT ISZERO PUSH2 0x22D1 JUMPI PUSH2 0x22D0 PUSH2 0x2273 JUMP JUMPDEST JUMPDEST PUSH1 0x1 DUP6 AND ISZERO PUSH2 0x22E0 JUMPI DUP1 DUP3 MUL SWAP2 POP JUMPDEST DUP1 DUP2 MUL SWAP1 POP PUSH2 0x22EE DUP6 PUSH2 0x22A0 JUMP JUMPDEST SWAP5 POP PUSH2 0x22B5 JUMP JUMPDEST SWAP5 POP SWAP5 SWAP3 POP POP POP JUMP JUMPDEST PUSH0 DUP3 PUSH2 0x230D JUMPI PUSH1 0x1 SWAP1 POP PUSH2 0x23C8 JUMP JUMPDEST DUP2 PUSH2 0x231A JUMPI PUSH0 SWAP1 POP PUSH2 0x23C8 JUMP JUMPDEST DUP2 PUSH1 0x1 DUP2 EQ PUSH2 0x2330 JUMPI PUSH1 0x2 DUP2 EQ PUSH2 0x233A JUMPI PUSH2 0x2369 JUMP JUMPDEST PUSH1 0x1 SWAP2 POP POP PUSH2 0x23C8 JUMP JUMPDEST PUSH1 0xFF DUP5 GT ISZERO PUSH2 0x234C JUMPI PUSH2 0x234B PUSH2 0x2273 JUMP JUMPDEST JUMPDEST DUP4 PUSH1 0x2 EXP SWAP2 POP DUP5 DUP3 GT ISZERO PUSH2 0x2363 JUMPI PUSH2 0x2362 PUSH2 0x2273 JUMP JUMPDEST JUMPDEST POP PUSH2 0x23C8 JUMP JUMPDEST POP PUSH1 0x20 DUP4 LT PUSH2 0x133 DUP4 LT AND PUSH1 0x4E DUP5 LT PUSH1 0xB DUP5 LT AND OR ISZERO PUSH2 0x239E JUMPI DUP3 DUP3 EXP SWAP1 POP DUP4 DUP2 GT ISZERO PUSH2 0x2399 JUMPI PUSH2 0x2398 PUSH2 0x2273 JUMP JUMPDEST JUMPDEST PUSH2 0x23C8 JUMP JUMPDEST PUSH2 0x23AB DUP5 DUP5 DUP5 PUSH1 0x1 PUSH2 0x22AC JUMP JUMPDEST SWAP3 POP SWAP1 POP DUP2 DUP5 DIV DUP2 GT ISZERO PUSH2 0x23C2 JUMPI PUSH2 0x23C1 PUSH2 0x2273 JUMP JUMPDEST JUMPDEST DUP2 DUP2 MUL SWAP1 POP JUMPDEST SWAP4 SWAP3 POP POP POP JUMP JUMPDEST PUSH0 PUSH2 0x23D9 DUP3 PUSH2 0x1C89 JUMP JUMPDEST SWAP2 POP PUSH2 0x23E4 DUP4 PUSH2 0x1C89 JUMP JUMPDEST SWAP3 POP PUSH2 0x2411 PUSH32 0xFFFFFFFFFFFFFFFFFFFFFFFFFFFFFFFFFFFFFFFFFFFFFFFFFFFFFFFFFFFFFFFF DUP5 DUP5 PUSH2 0x22FE JUMP JUMPDEST SWAP1 POP SWAP3 SWAP2 POP POP JUMP JUMPDEST PUSH0 PUSH2 0x2423 DUP3 PUSH2 0x1C89 JUMP JUMPDEST SWAP2 POP PUSH2 0x242E DUP4 PUSH2 0x1C89 JUMP JUMPDEST SWAP3 POP DUP3 DUP3 MUL PUSH2 0x243C DUP2 PUSH2 0x1C89 JUMP JUMPDEST SWAP2 POP DUP3 DUP3 DIV DUP5 EQ DUP4 ISZERO OR PUSH2 0x2453 JUMPI PUSH2 0x2452 PUSH2 0x2273 JUMP JUMPDEST JUMPDEST POP SWAP3 SWAP2 POP POP JUMP JUMPDEST PUSH0 PUSH2 0x2464 DUP3 PUSH2 0x1C89 JUMP JUMPDEST SWAP2 POP PUSH2 0x246F DUP4 PUSH2 0x1C89 JUMP JUMPDEST SWAP3 POP DUP3 PUSH2 0x247F JUMPI PUSH2 0x247E PUSH2 0x21E9 JUMP JUMPDEST JUMPDEST DUP3 DUP3 DIV SWAP1 POP SWAP3 SWAP2 POP POP JUMP JUMPDEST PUSH0 PUSH2 0x2494 DUP3 PUSH2 0x1C89 JUMP JUMPDEST SWAP2 POP PUSH2 0x249F DUP4 PUSH2 0x1C89 JUMP JUMPDEST SWAP3 POP DUP3 DUP3 ADD SWAP1 POP DUP1 DUP3 GT ISZERO PUSH2 0x24B7 JUMPI PUSH2 0x24B6 PUSH2 0x2273 JUMP JUMPDEST JUMPDEST SWAP3 SWAP2 POP POP JUMP JUMPDEST PUSH0 PUSH2 0x24C7 DUP3 PUSH2 0x1C89 JUMP JUMPDEST SWAP2 POP PUSH2 0x24D2 DUP4 PUSH2 0x1C89 JUMP JUMPDEST SWAP3 POP DUP3 DUP3 SUB SWAP1 POP DUP2 DUP2 GT ISZERO PUSH2 0x24EA JUMPI PUSH2 0x24E9 PUSH2 0x2273 JUMP JUMPDEST JUMPDEST SWAP3 SWAP2 POP POP JUMP JUMPDEST PUSH0 DUP2 SWAP1 POP SWAP3 SWAP2 POP POP JUMP JUMPDEST POP JUMP JUMPDEST PUSH0 PUSH2 0x2508 PUSH0 DUP4 PUSH2 0x24F0 JUMP JUMPDEST SWAP2 POP PUSH2 0x2513 DUP3 PUSH2 0x24FA JUMP JUMPDEST PUSH0 DUP3 ADD SWAP1 POP SWAP2 SWAP1 POP JUMP JUMPDEST PUSH0 PUSH2 0x2527 DUP3 PUSH2 0x24FD JUMP JUMPDEST SWAP2 POP DUP2 SWAP1 POP SWAP2 SWAP1 POP JUMP JUMPDEST PUSH32 0x4661696C656420746F2073656E64207265776172640000000000000000000000 PUSH0 DUP3 ADD MSTORE POP JUMP JUMPDEST PUSH0 PUSH2 0x2565 PUSH1 0x15 DUP4 PUSH2 0x2039 JUMP JUMPDEST SWAP2 POP PUSH2 0x2570 DUP3 PUSH2 0x2531 JUMP JUMPDEST PUSH1 0x20 DUP3 ADD SWAP1 POP SWAP2 SWAP1 POP JUMP JUMPDEST PUSH0 PUSH1 0x20 DUP3 ADD SWAP1 POP DUP2 DUP2 SUB PUSH0 DUP4 ADD MSTORE PUSH2 0x2592 DUP2 PUSH2 0x2559 JUMP JUMPDEST SWAP1 POP SWAP2 SWAP1 POP JUMP JUMPDEST PUSH0 PUSH1 0x80 DUP3 ADD SWAP1 POP PUSH2 0x25AC PUSH0 DUP4 ADD DUP8 PUSH2 0x1E24 JUMP JUMPDEST PUSH2 0x25B9 PUSH1 0x20 DUP4 ADD DUP7 PUSH2 0x1CE7 JUMP JUMPDEST PUSH2 0x25C6 PUSH1 0x40 DUP4 ADD DUP6 PUSH2 0x1CE7 JUMP JUMPDEST PUSH2 0x25D3 PUSH1 0x60 DUP4 ADD DUP5 PUSH2 0x1CE7 JUMP JUMPDEST SWAP6 SWAP5 POP POP POP POP POP JUMP JUMPDEST PUSH32 0x6E6F2066756C6C20666565000000000000000000000000000000000000000000 PUSH0 DUP3 ADD MSTORE POP JUMP JUMPDEST PUSH0 PUSH2 0x2610 PUSH1 0xB DUP4 PUSH2 0x2039 JUMP JUMPDEST SWAP2 POP PUSH2 0x261B DUP3 PUSH2 0x25DC JUMP JUMPDEST PUSH1 0x20 DUP3 ADD SWAP1 POP SWAP2 SWAP1 POP JUMP JUMPDEST PUSH0 PUSH1 0x20 DUP3 ADD SWAP1 POP DUP2 DUP2 SUB PUSH0 DUP4 ADD MSTORE PUSH2 0x263D DUP2 PUSH2 0x2604 JUMP JUMPDEST SWAP1 POP SWAP2 SWAP1 POP JUMP JUMPDEST PUSH0 PUSH1 0x60 DUP3 ADD SWAP1 POP PUSH2 0x2657 PUSH0 DUP4 ADD DUP7 PUSH2 0x1E24 JUMP JUMPDEST PUSH2 0x2664 PUSH1 0x20 DUP4 ADD DUP6 PUSH2 0x1CE7 JUMP JUMPDEST PUSH2 0x2671 PUSH1 0x40 DUP4 ADD DUP5 PUSH2 0x1CE7 JUMP JUMPDEST SWAP5 SWAP4 POP POP POP POP JUMP JUMPDEST PUSH0 PUSH1 0x40 DUP3 ADD SWAP1 POP PUSH2 0x268C PUSH0 DUP4 ADD DUP6 PUSH2 0x1E24 JUMP JUMPDEST PUSH2 0x2699 PUSH1 0x20 DUP4 ADD DUP5 PUSH2 0x1E24 JUMP JUMPDEST SWAP4 SWAP3 POP POP POP JUMP JUMPDEST PUSH32 0x706C6561736520696E7075742064726177496400000000000000000000000000 PUSH0 DUP3 ADD MSTORE POP JUMP JUMPDEST PUSH0 PUSH2 0x26D4 PUSH1 0x13 DUP4 PUSH2 0x2039 JUMP JUMPDEST SWAP2 POP PUSH2 0x26DF DUP3 PUSH2 0x26A0 JUMP JUMPDEST PUSH1 0x20 DUP3 ADD SWAP1 POP SWAP2 SWAP1 POP JUMP JUMPDEST PUSH0 PUSH1 0x20 DUP3 ADD SWAP1 POP DUP2 DUP2 SUB PUSH0 DUP4 ADD MSTORE PUSH2 0x2701 DUP2 PUSH2 0x26C8 JUMP JUMPDEST SWAP1 POP SWAP2 SWAP1 POP JUMP JUMPDEST PUSH32 0x63757272656E74206861732070726F63657373696E6767206472617700000000 PUSH0 DUP3 ADD MSTORE POP JUMP JUMPDEST PUSH0 PUSH2 0x273C PUSH1 0x1C DUP4 PUSH2 0x2039 JUMP JUMPDEST SWAP2 POP PUSH2 0x2747 DUP3 PUSH2 0x2708 JUMP JUMPDEST PUSH1 0x20 DUP3 ADD SWAP1 POP SWAP2 SWAP1 POP JUMP JUMPDEST PUSH0 PUSH1 0x20 DUP3 ADD SWAP1 POP DUP2 DUP2 SUB PUSH0 DUP4 ADD MSTORE PUSH2 0x2769 DUP2 PUSH2 0x2730 JUMP JUMPDEST SWAP1 POP SWAP2 SWAP1 POP JUMP JUMPDEST PUSH32 0x63757272656E74207461736B206861736E742073746172740000000000000000 PUSH0 DUP3 ADD MSTORE POP JUMP JUMPDEST PUSH0 PUSH2 0x27A4 PUSH1 0x18 DUP4 PUSH2 0x2039 JUMP JUMPDEST SWAP2 POP PUSH2 0x27AF DUP3 PUSH2 0x2770 JUMP JUMPDEST PUSH1 0x20 DUP3 ADD SWAP1 POP SWAP2 SWAP1 POP JUMP JUMPDEST PUSH0 PUSH1 0x20 DUP3 ADD SWAP1 POP DUP2 DUP2 SUB PUSH0 DUP4 ADD MSTORE PUSH2 0x27D1 DUP2 PUSH2 0x2798 JUMP JUMPDEST SWAP1 POP SWAP2 SWAP1 POP JUMP JUMPDEST PUSH32 0x796F7520617265206E6F207065726D697373696F6E0000000000000000000000 PUSH0 DUP3 ADD MSTORE POP JUMP JUMPDEST PUSH0 PUSH2 0x280C PUSH1 0x15 DUP4 PUSH2 0x2039 JUMP JUMPDEST SWAP2 POP PUSH2 0x2817 DUP3 PUSH2 0x27D8 JUMP JUMPDEST PUSH1 0x20 DUP3 ADD SWAP1 POP SWAP2 SWAP1 POP JUMP JUMPDEST PUSH0 PUSH1 0x20 DUP3 ADD SWAP1 POP DUP2 DUP2 SUB PUSH0 DUP4 ADD MSTORE PUSH2 0x2839 DUP2 PUSH2 0x2800 JUMP JUMPDEST SWAP1 POP SWAP2 SWAP1 POP JUMP JUMPDEST PUSH32 0x6E6F206A6F696E207468652070657273696F6E00000000000000000000000000 PUSH0 DUP3 ADD MSTORE POP JUMP JUMPDEST PUSH0 PUSH2 0x2874 PUSH1 0x13 DUP4 PUSH2 0x2039 JUMP JUMPDEST SWAP2 POP PUSH2 0x287F DUP3 PUSH2 0x2840 JUMP JUMPDEST PUSH1 0x20 DUP3 ADD SWAP1 POP SWAP2 SWAP1 POP JUMP JUMPDEST PUSH0 PUSH1 0x20 DUP3 ADD SWAP1 POP DUP2 DUP2 SUB PUSH0 DUP4 ADD MSTORE PUSH2 0x28A1 DUP2 PUSH2 0x2868 JUMP JUMPDEST SWAP1 POP SWAP2 SWAP1 POP JUMP JUMPDEST PUSH32 0x5472616E73666572206661696C65640000000000000000000000000000000000 PUSH0 DUP3 ADD MSTORE POP JUMP JUMPDEST PUSH0 PUSH2 0x28DC PUSH1 0xF DUP4 PUSH2 0x2039 JUMP JUMPDEST SWAP2 POP PUSH2 0x28E7 DUP3 PUSH2 0x28A8 JUMP JUMPDEST PUSH1 0x20 DUP3 ADD SWAP1 POP SWAP2 SWAP1 POP JUMP JUMPDEST PUSH0 PUSH1 0x20 DUP3 ADD SWAP1 POP DUP2 DUP2 SUB PUSH0 DUP4 ADD MSTORE PUSH2 0x2909 DUP2 PUSH2 0x28D0 JUMP JUMPDEST SWAP1 POP SWAP2 SWAP1 POP JUMP JUMPDEST PUSH0 DUP2 SWAP1 POP SWAP2 SWAP1 POP JUMP JUMPDEST PUSH0 PUSH2 0x2933 PUSH2 0x292E PUSH2 0x2929 DUP5 PUSH2 0x2910 JUMP JUMPDEST PUSH2 0x1F37 JUMP JUMPDEST PUSH2 0x1C89 JUMP JUMPDEST SWAP1 POP SWAP2 SWAP1 POP JUMP JUMPDEST PUSH2 0x2943 DUP2 PUSH2 0x2919 JUMP JUMPDEST DUP3 MSTORE POP POP JUMP JUMPDEST PUSH0 PUSH1 0x80 DUP3 ADD SWAP1 POP PUSH2 0x295C PUSH0 DUP4 ADD DUP8 PUSH2 0x1E24 JUMP JUMPDEST PUSH2 0x2969 PUSH1 0x20 DUP4 ADD DUP7 PUSH2 0x1CE7 JUMP JUMPDEST PUSH2 0x2976 PUSH1 0x40 DUP4 ADD DUP6 PUSH2 0x293A JUMP JUMPDEST PUSH2 0x2983 PUSH1 0x60 DUP4 ADD DUP5 PUSH2 0x1CE7 JUMP JUMPDEST SWAP6 SWAP5 POP POP POP POP POP JUMP JUMPDEST PUSH0 DUP2 SWAP1 POP SWAP2 SWAP1 POP JUMP JUMPDEST PUSH2 0x299E DUP2 PUSH2 0x298C JUMP JUMPDEST DUP3 MSTORE POP POP JUMP JUMPDEST PUSH2 0x29AD DUP2 PUSH2 0x1C89 JUMP JUMPDEST DUP3 MSTORE POP POP JUMP JUMPDEST PUSH0 PUSH2 0xFFFF DUP3 AND SWAP1 POP SWAP2 SWAP1 POP JUMP JUMPDEST PUSH2 0x29C9 DUP2 PUSH2 0x29B3 JUMP JUMPDEST DUP3 MSTORE POP POP JUMP JUMPDEST PUSH0 PUSH4 0xFFFFFFFF DUP3 AND SWAP1 POP SWAP2 SWAP1 POP JUMP JUMPDEST PUSH2 0x29E7 DUP2 PUSH2 0x29CF JUMP JUMPDEST DUP3 MSTORE POP POP JUMP JUMPDEST PUSH0 DUP2 MLOAD SWAP1 POP SWAP2 SWAP1 POP JUMP JUMPDEST PUSH0 DUP3 DUP3 MSTORE PUSH1 0x20 DUP3 ADD SWAP1 POP SWAP3 SWAP2 POP POP JUMP JUMPDEST DUP3 DUP2 DUP4 MCOPY PUSH0 DUP4 DUP4 ADD MSTORE POP POP POP JUMP JUMPDEST PUSH0 PUSH1 0x1F NOT PUSH1 0x1F DUP4 ADD AND SWAP1 POP SWAP2 SWAP1 POP JUMP JUMPDEST PUSH0 PUSH2 0x2A2F DUP3 PUSH2 0x29ED JUMP JUMPDEST PUSH2 0x2A39 DUP2 DUP6 PUSH2 0x29F7 JUMP JUMPDEST SWAP4 POP PUSH2 0x2A49 DUP2 DUP6 PUSH1 0x20 DUP7 ADD PUSH2 0x2A07 JUMP JUMPDEST PUSH2 0x2A52 DUP2 PUSH2 0x2A15 JUMP JUMPDEST DUP5 ADD SWAP2 POP POP SWAP3 SWAP2 POP POP JUMP JUMPDEST PUSH0 PUSH1 0xC0 DUP4 ADD PUSH0 DUP4 ADD MLOAD PUSH2 0x2A72 PUSH0 DUP7 ADD DUP3 PUSH2 0x2995 JUMP JUMPDEST POP PUSH1 0x20 DUP4 ADD MLOAD PUSH2 0x2A85 PUSH1 0x20 DUP7 ADD DUP3 PUSH2 0x29A4 JUMP JUMPDEST POP PUSH1 0x40 DUP4 ADD MLOAD PUSH2 0x2A98 PUSH1 0x40 DUP7 ADD DUP3 PUSH2 0x29C0 JUMP JUMPDEST POP PUSH1 0x60 DUP4 ADD MLOAD PUSH2 0x2AAB PUSH1 0x60 DUP7 ADD DUP3 PUSH2 0x29DE JUMP JUMPDEST POP PUSH1 0x80 DUP4 ADD MLOAD PUSH2 0x2ABE PUSH1 0x80 DUP7 ADD DUP3 PUSH2 0x29DE JUMP JUMPDEST POP PUSH1 0xA0 DUP4 ADD MLOAD DUP5 DUP3 SUB PUSH1 0xA0 DUP7 ADD MSTORE PUSH2 0x2AD6 DUP3 DUP3 PUSH2 0x2A25 JUMP JUMPDEST SWAP2 POP POP DUP1 SWAP2 POP POP SWAP3 SWAP2 POP POP JUMP JUMPDEST PUSH0 PUSH1 0x20 DUP3 ADD SWAP1 POP DUP2 DUP2 SUB PUSH0 DUP4 ADD MSTORE PUSH2 0x2AFB DUP2 DUP5 PUSH2 0x2A5D JUMP JUMPDEST SWAP1 POP SWAP3 SWAP2 POP POP JUMP JUMPDEST PUSH0 DUP2 MLOAD SWAP1 POP PUSH2 0x2B11 DUP2 PUSH2 0x1C92 JUMP JUMPDEST SWAP3 SWAP2 POP POP JUMP JUMPDEST PUSH0 PUSH1 0x20 DUP3 DUP5 SUB SLT ISZERO PUSH2 0x2B2C JUMPI PUSH2 0x2B2B PUSH2 0x1C81 JUMP JUMPDEST JUMPDEST PUSH0 PUSH2 0x2B39 DUP5 DUP3 DUP6 ADD PUSH2 0x2B03 JUMP JUMPDEST SWAP2 POP POP SWAP3 SWAP2 POP POP JUMP JUMPDEST PUSH32 0x4D7573742062652070726F706F736564206F776E657200000000000000000000 PUSH0 DUP3 ADD MSTORE POP JUMP JUMPDEST PUSH0 PUSH2 0x2B76 PUSH1 0x16 DUP4 PUSH2 0x2039 JUMP JUMPDEST SWAP2 POP PUSH2 0x2B81 DUP3 PUSH2 0x2B42 JUMP JUMPDEST PUSH1 0x20 DUP3 ADD SWAP1 POP SWAP2 SWAP1 POP JUMP JUMPDEST PUSH0 PUSH1 0x20 DUP3 ADD SWAP1 POP DUP2 DUP2 SUB PUSH0 DUP4 ADD MSTORE PUSH2 0x2BA3 DUP2 PUSH2 0x2B6A JUMP JUMPDEST SWAP1 POP SWAP2 SWAP1 POP JUMP JUMPDEST PUSH0 PUSH1 0x60 DUP3 ADD SWAP1 POP PUSH2 0x2BBD PUSH0 DUP4 ADD DUP7 PUSH2 0x1E24 JUMP JUMPDEST PUSH2 0x2BCA PUSH1 0x20 DUP4 ADD DUP6 PUSH2 0x1E24 JUMP JUMPDEST PUSH2 0x2BD7 PUSH1 0x40 DUP4 ADD DUP5 PUSH2 0x1E24 JUMP JUMPDEST SWAP5 SWAP4 POP POP POP POP JUMP JUMPDEST PUSH32 0x636F7272656374206A6F696E2061646472657373000000000000000000000000 PUSH0 DUP3 ADD MSTORE POP JUMP JUMPDEST PUSH0 PUSH2 0x2C13 PUSH1 0x14 DUP4 PUSH2 0x2039 JUMP JUMPDEST SWAP2 POP PUSH2 0x2C1E DUP3 PUSH2 0x2BDF JUMP JUMPDEST PUSH1 0x20 DUP3 ADD SWAP1 POP SWAP2 SWAP1 POP JUMP JUMPDEST PUSH0 PUSH1 0x20 DUP3 ADD SWAP1 POP DUP2 DUP2 SUB PUSH0 DUP4 ADD MSTORE PUSH2 0x2C40 DUP2 PUSH2 0x2C07 JUMP JUMPDEST SWAP1 POP SWAP2 SWAP1 POP JUMP JUMPDEST PUSH32 0x63757272656E74207461736B2068617320656E64000000000000000000000000 PUSH0 DUP3 ADD MSTORE POP JUMP JUMPDEST PUSH0 PUSH2 0x2C7B PUSH1 0x14 DUP4 PUSH2 0x2039 JUMP JUMPDEST SWAP2 POP PUSH2 0x2C86 DUP3 PUSH2 0x2C47 JUMP JUMPDEST PUSH1 0x20 DUP3 ADD SWAP1 POP SWAP2 SWAP1 POP JUMP JUMPDEST PUSH0 PUSH1 0x20 DUP3 ADD SWAP1 POP DUP2 DUP2 SUB PUSH0 DUP4 ADD MSTORE PUSH2 0x2CA8 DUP2 PUSH2 0x2C6F JUMP JUMPDEST SWAP1 POP SWAP2 SWAP1 POP JUMP JUMPDEST PUSH32 0x6A6F696E207072696365206D75737420626520626967207468616E207469636B PUSH0 DUP3 ADD MSTORE PUSH32 0x2070726963650000000000000000000000000000000000000000000000000000 PUSH1 0x20 DUP3 ADD MSTORE POP JUMP JUMPDEST PUSH0 PUSH2 0x2D09 PUSH1 0x26 DUP4 PUSH2 0x2039 JUMP JUMPDEST SWAP2 POP PUSH2 0x2D14 DUP3 PUSH2 0x2CAF JUMP JUMPDEST PUSH1 0x40 DUP3 ADD SWAP1 POP SWAP2 SWAP1 POP JUMP JUMPDEST PUSH0 PUSH1 0x20 DUP3 ADD SWAP1 POP DUP2 DUP2 SUB PUSH0 DUP4 ADD MSTORE PUSH2 0x2D36 DUP2 PUSH2 0x2CFD JUMP JUMPDEST SWAP1 POP SWAP2 SWAP1 POP JUMP JUMPDEST PUSH32 0x796F7520686173206A6F696E2069742C706C656173652077616974696E67206C PUSH0 DUP3 ADD MSTORE PUSH32 0x75636B7920676F696E6720646F776E0000000000000000000000000000000000 PUSH1 0x20 DUP3 ADD MSTORE POP JUMP JUMPDEST PUSH0 PUSH2 0x2D97 PUSH1 0x2F DUP4 PUSH2 0x2039 JUMP JUMPDEST SWAP2 POP PUSH2 0x2DA2 DUP3 PUSH2 0x2D3D JUMP JUMPDEST PUSH1 0x40 DUP3 ADD SWAP1 POP SWAP2 SWAP1 POP JUMP JUMPDEST PUSH0 PUSH1 0x20 DUP3 ADD SWAP1 POP DUP2 DUP2 SUB PUSH0 DUP4 ADD MSTORE PUSH2 0x2DC4 DUP2 PUSH2 0x2D8B JUMP JUMPDEST SWAP1 POP SWAP2 SWAP1 POP JUMP JUMPDEST PUSH32 0x6E6F7420616C6C6C6F776564206A6F696E206974000000000000000000000000 PUSH0 DUP3 ADD MSTORE POP JUMP JUMPDEST PUSH0 PUSH2 0x2DFF PUSH1 0x14 DUP4 PUSH2 0x2039 JUMP JUMPDEST SWAP2 POP PUSH2 0x2E0A DUP3 PUSH2 0x2DCB JUMP JUMPDEST PUSH1 0x20 DUP3 ADD SWAP1 POP SWAP2 SWAP1 POP JUMP JUMPDEST PUSH0 PUSH1 0x20 DUP3 ADD SWAP1 POP DUP2 DUP2 SUB PUSH0 DUP4 ADD MSTORE PUSH2 0x2E2C DUP2 PUSH2 0x2DF3 JUMP JUMPDEST SWAP1 POP SWAP2 SWAP1 POP JUMP JUMPDEST PUSH32 0x637265617465206C75636B20696E697420726577617264206D75737420626520 PUSH0 DUP3 ADD MSTORE PUSH32 0x626967207468616E207A65726F00000000000000000000000000000000000000 PUSH1 0x20 DUP3 ADD MSTORE POP JUMP JUMPDEST PUSH0 PUSH2 0x2E8D PUSH1 0x2D DUP4 PUSH2 0x2039 JUMP JUMPDEST SWAP2 POP PUSH2 0x2E98 DUP3 PUSH2 0x2E33 JUMP JUMPDEST PUSH1 0x40 DUP3 ADD SWAP1 POP SWAP2 SWAP1 POP JUMP JUMPDEST PUSH0 PUSH1 0x20 DUP3 ADD SWAP1 POP DUP2 DUP2 SUB PUSH0 DUP4 ADD MSTORE PUSH2 0x2EBA DUP2 PUSH2 0x2E81 JUMP JUMPDEST SWAP1 POP SWAP2 SWAP1 POP JUMP JUMPDEST PUSH32 0x4F6E6C792063616C6C61626C65206279206F776E657200000000000000000000 PUSH0 DUP3 ADD MSTORE POP JUMP JUMPDEST PUSH0 PUSH2 0x2EF5 PUSH1 0x16 DUP4 PUSH2 0x2039 JUMP JUMPDEST SWAP2 POP PUSH2 0x2F00 DUP3 PUSH2 0x2EC1 JUMP JUMPDEST PUSH1 0x20 DUP3 ADD SWAP1 POP SWAP2 SWAP1 POP JUMP JUMPDEST PUSH0 PUSH1 0x20 DUP3 ADD SWAP1 POP DUP2 DUP2 SUB PUSH0 DUP4 ADD MSTORE PUSH2 0x2F22 DUP2 PUSH2 0x2EE9 JUMP JUMPDEST SWAP1 POP SWAP2 SWAP1 POP JUMP JUMPDEST PUSH2 0x2F32 DUP2 PUSH2 0x1E33 JUMP JUMPDEST DUP3 MSTORE POP POP JUMP JUMPDEST PUSH1 0x20 DUP3 ADD PUSH0 DUP3 ADD MLOAD PUSH2 0x2F4C PUSH0 DUP6 ADD DUP3 PUSH2 0x2F29 JUMP JUMPDEST POP POP POP POP JUMP JUMPDEST PUSH0 PUSH1 0x20 DUP3 ADD SWAP1 POP PUSH2 0x2F65 PUSH0 DUP4 ADD DUP5 PUSH2 0x2F38 JUMP JUMPDEST SWAP3 SWAP2 POP POP JUMP JUMPDEST PUSH32 0x43616E6E6F74207472616E7366657220746F2073656C66000000000000000000 PUSH0 DUP3 ADD MSTORE POP JUMP JUMPDEST PUSH0 PUSH2 0x2F9F PUSH1 0x17 DUP4 PUSH2 0x2039 JUMP JUMPDEST SWAP2 POP PUSH2 0x2FAA DUP3 PUSH2 0x2F6B JUMP JUMPDEST PUSH1 0x20 DUP3 ADD SWAP1 POP SWAP2 SWAP1 POP JUMP JUMPDEST PUSH0 PUSH1 0x20 DUP3 ADD SWAP1 POP DUP2 DUP2 SUB PUSH0 DUP4 ADD MSTORE PUSH2 0x2FCC DUP2 PUSH2 0x2F93 JUMP JUMPDEST SWAP1 POP SWAP2 SWAP1 POP JUMP INVALID LOG2 PUSH5 0x6970667358 0x22 SLT KECCAK256 STATICCALL MULMOD 0x23 SUB PUSH18 0x6CECD1C9A8278402692222337A4B03A66535 CODECOPY MSTORE8 0xD 0x2A PUSH22 0xFC25EA6164736F6C634300081E003300000000000000 "
				},
				"gasEstimates": {
					"creation": {
						"codeDepositCost": "2459400",
						"executionCost": "infinite",
						"totalCost": "infinite"
					},
					"external": {
						"DECIMALS()": "348",
						"ONE()": "infinite",
						"acceptOwnership()": "54620",
						"afterDrawWinner(uint256)": "infinite",
						"createLucky(uint256,uint256,uint256)": "infinite",
						"currentId()": "2469",
						"drawWinner(uint256)": "infinite",
						"getLuckyJoinBalance(uint256,address)": "infinite",
						"getOneLuckyInfo(uint256)": "infinite",
						"getTotalFee()": "2543",
						"joinLucky(uint256)": "infinite",
						"owner()": "2537",
						"rawFulfillRandomWords(uint256,uint256[])": "infinite",
						"requestMap(uint256)": "infinite",
						"s_vrfCoordinator()": "infinite",
						"setCoordinator(address)": "infinite",
						"transferOwnership(address)": "30737",
						"withDraw()": "infinite"
					},
					"internal": {
						"fulfillRandomWords(uint256,uint256[] calldata)": "infinite"
					}
				},
				"methodIdentifiers": {
					"DECIMALS()": "2e0f2625",
					"ONE()": "c2ee3a08",
					"acceptOwnership()": "79ba5097",
					"afterDrawWinner(uint256)": "03db19cf",
					"createLucky(uint256,uint256,uint256)": "f36b98fb",
					"currentId()": "e00dd161",
					"drawWinner(uint256)": "60b2a56a",
					"getLuckyJoinBalance(uint256,address)": "e578b0bb",
					"getOneLuckyInfo(uint256)": "36068a56",
					"getTotalFee()": "7ae316d0",
					"joinLucky(uint256)": "a3fa9775",
					"owner()": "8da5cb5b",
					"rawFulfillRandomWords(uint256,uint256[])": "1fe543e3",
					"requestMap(uint256)": "1a735f18",
					"s_vrfCoordinator()": "9eccacf6",
					"setCoordinator(address)": "8ea98117",
					"transferOwnership(address)": "f2fde38b",
					"withDraw()": "0fdb1c10"
				}
			},
			"storageLayout": {
				"storage": [
					{
						"astId": 29,
						"contract": "LuckyDrawVRF.sol:LuckyDrawVRF",
						"label": "s_owner",
						"offset": 0,
						"slot": "0",
						"type": "t_address"
					},
					{
						"astId": 31,
						"contract": "LuckyDrawVRF.sol:LuckyDrawVRF",
						"label": "s_pendingOwner",
						"offset": 0,
						"slot": "1",
						"type": "t_address"
					},
					{
						"astId": 231,
						"contract": "LuckyDrawVRF.sol:LuckyDrawVRF",
						"label": "s_vrfCoordinator",
						"offset": 0,
						"slot": "2",
						"type": "t_contract(IVRFCoordinatorV2Plus)380"
					},
					{
						"astId": 541,
						"contract": "LuckyDrawVRF.sol:LuckyDrawVRF",
						"label": "subscriptionId",
						"offset": 0,
						"slot": "3",
						"type": "t_uint256"
					},
					{
						"astId": 543,
						"contract": "LuckyDrawVRF.sol:LuckyDrawVRF",
						"label": "vrfCoordinator",
						"offset": 0,
						"slot": "4",
						"type": "t_address"
					},
					{
						"astId": 545,
						"contract": "LuckyDrawVRF.sol:LuckyDrawVRF",
						"label": "keyHash",
						"offset": 0,
						"slot": "5",
						"type": "t_bytes32"
					},
					{
						"astId": 548,
						"contract": "LuckyDrawVRF.sol:LuckyDrawVRF",
						"label": "requestConfirmation",
						"offset": 0,
						"slot": "6",
						"type": "t_uint16"
					},
					{
						"astId": 551,
						"contract": "LuckyDrawVRF.sol:LuckyDrawVRF",
						"label": "callbackGasLimit",
						"offset": 2,
						"slot": "6",
						"type": "t_uint32"
					},
					{
						"astId": 554,
						"contract": "LuckyDrawVRF.sol:LuckyDrawVRF",
						"label": "numWords",
						"offset": 6,
						"slot": "6",
						"type": "t_uint32"
					},
					{
						"astId": 556,
						"contract": "LuckyDrawVRF.sol:LuckyDrawVRF",
						"label": "currentId",
						"offset": 0,
						"slot": "7",
						"type": "t_uint256"
					},
					{
						"astId": 561,
						"contract": "LuckyDrawVRF.sol:LuckyDrawVRF",
						"label": "records",
						"offset": 0,
						"slot": "8",
						"type": "t_mapping(t_uint256,t_struct(Join)602_storage)"
					},
					{
						"astId": 566,
						"contract": "LuckyDrawVRF.sol:LuckyDrawVRF",
						"label": "requestMap",
						"offset": 0,
						"slot": "9",
						"type": "t_mapping(t_uint256,t_struct(VrfRequestToRandom)580_storage)"
					},
					{
						"astId": 569,
						"contract": "LuckyDrawVRF.sol:LuckyDrawVRF",
						"label": "hasProcessing",
						"offset": 0,
						"slot": "10",
						"type": "t_uint8"
					},
					{
						"astId": 571,
						"contract": "LuckyDrawVRF.sol:LuckyDrawVRF",
						"label": "miniPrice",
						"offset": 0,
						"slot": "11",
						"type": "t_uint256"
					},
					{
						"astId": 573,
						"contract": "LuckyDrawVRF.sol:LuckyDrawVRF",
						"label": "totalFee",
						"offset": 0,
						"slot": "12",
						"type": "t_uint256"
					},
					{
						"astId": 575,
						"contract": "LuckyDrawVRF.sol:LuckyDrawVRF",
						"label": "contractOwner",
						"offset": 0,
						"slot": "13",
						"type": "t_address"
					}
				],
				"types": {
					"t_address": {
						"encoding": "inplace",
						"label": "address",
						"numberOfBytes": "20"
					},
					"t_array(t_address)dyn_storage": {
						"base": "t_address",
						"encoding": "dynamic_array",
						"label": "address[]",
						"numberOfBytes": "32"
					},
					"t_bool": {
						"encoding": "inplace",
						"label": "bool",
						"numberOfBytes": "1"
					},
					"t_bytes32": {
						"encoding": "inplace",
						"label": "bytes32",
						"numberOfBytes": "32"
					},
					"t_contract(IVRFCoordinatorV2Plus)380": {
						"encoding": "inplace",
						"label": "contract IVRFCoordinatorV2Plus",
						"numberOfBytes": "20"
					},
					"t_mapping(t_address,t_uint256)": {
						"encoding": "mapping",
						"key": "t_address",
						"label": "mapping(address => uint256)",
						"numberOfBytes": "32",
						"value": "t_uint256"
					},
					"t_mapping(t_uint256,t_struct(Join)602_storage)": {
						"encoding": "mapping",
						"key": "t_uint256",
						"label": "mapping(uint256 => struct LuckyDrawVRF.Join)",
						"numberOfBytes": "32",
						"value": "t_struct(Join)602_storage"
					},
					"t_mapping(t_uint256,t_struct(VrfRequestToRandom)580_storage)": {
						"encoding": "mapping",
						"key": "t_uint256",
						"label": "mapping(uint256 => struct LuckyDrawVRF.VrfRequestToRandom)",
						"numberOfBytes": "32",
						"value": "t_struct(VrfRequestToRandom)580_storage"
					},
					"t_struct(Join)602_storage": {
						"encoding": "inplace",
						"label": "struct LuckyDrawVRF.Join",
						"members": [
							{
								"astId": 582,
								"contract": "LuckyDrawVRF.sol:LuckyDrawVRF",
								"label": "startTime",
								"offset": 0,
								"slot": "0",
								"type": "t_uint256"
							},
							{
								"astId": 584,
								"contract": "LuckyDrawVRF.sol:LuckyDrawVRF",
								"label": "endTime",
								"offset": 0,
								"slot": "1",
								"type": "t_uint256"
							},
							{
								"astId": 586,
								"contract": "LuckyDrawVRF.sol:LuckyDrawVRF",
								"label": "totalReward",
								"offset": 0,
								"slot": "2",
								"type": "t_uint256"
							},
							{
								"astId": 588,
								"contract": "LuckyDrawVRF.sol:LuckyDrawVRF",
								"label": "owner",
								"offset": 0,
								"slot": "3",
								"type": "t_address"
							},
							{
								"astId": 590,
								"contract": "LuckyDrawVRF.sol:LuckyDrawVRF",
								"label": "winner",
								"offset": 0,
								"slot": "4",
								"type": "t_address"
							},
							{
								"astId": 592,
								"contract": "LuckyDrawVRF.sol:LuckyDrawVRF",
								"label": "price",
								"offset": 0,
								"slot": "5",
								"type": "t_uint256"
							},
							{
								"astId": 594,
								"contract": "LuckyDrawVRF.sol:LuckyDrawVRF",
								"label": "open",
								"offset": 0,
								"slot": "6",
								"type": "t_bool"
							},
							{
								"astId": 598,
								"contract": "LuckyDrawVRF.sol:LuckyDrawVRF",
								"label": "joins",
								"offset": 0,
								"slot": "7",
								"type": "t_mapping(t_address,t_uint256)"
							},
							{
								"astId": 601,
								"contract": "LuckyDrawVRF.sol:LuckyDrawVRF",
								"label": "joinAddress",
								"offset": 0,
								"slot": "8",
								"type": "t_array(t_address)dyn_storage"
							}
						],
						"numberOfBytes": "288"
					},
					"t_struct(VrfRequestToRandom)580_storage": {
						"encoding": "inplace",
						"label": "struct LuckyDrawVRF.VrfRequestToRandom",
						"members": [
							{
								"astId": 577,
								"contract": "LuckyDrawVRF.sol:LuckyDrawVRF",
								"label": "random",
								"offset": 0,
								"slot": "0",
								"type": "t_uint256"
							},
							{
								"astId": 579,
								"contract": "LuckyDrawVRF.sol:LuckyDrawVRF",
								"label": "luckyId",
								"offset": 0,
								"slot": "1",
								"type": "t_uint256"
							}
						],
						"numberOfBytes": "64"
					},
					"t_uint16": {
						"encoding": "inplace",
						"label": "uint16",
						"numberOfBytes": "2"
					},
					"t_uint256": {
						"encoding": "inplace",
						"label": "uint256",
						"numberOfBytes": "32"
					},
					"t_uint32": {
						"encoding": "inplace",
						"label": "uint32",
						"numberOfBytes": "4"
					},
					"t_uint8": {
						"encoding": "inplace",
						"label": "uint8",
						"numberOfBytes": "1"
					}
				}
			},
			"userdoc": {
				"kind": "user",
				"methods": {
					"acceptOwnership()": {
						"notice": "Allows an ownership transfer to be completed by the recipient."
					},
					"owner()": {
						"notice": "Get the current owner"
					},
					"setCoordinator(address)": {
						"notice": "Sets the VRF Coordinator addressThis method should only be callable by the coordinator or contract owner"
					},
					"transferOwnership(address)": {
						"notice": "Allows an owner to begin transferring ownership to a new address."
					}
				},
				"version": 1
			}
		}
	}
}