{
	"LuckyDrawVRF.sol": {
		"LuckyDrawVRF": {
			"abi": [
				{
					"inputs": [
						{
							"internalType": "address",
							"name": "_coordinator",
							"type": "address"
						},
						{
							"internalType": "uint256",
							"name": "_subscriptionId",
							"type": "uint256"
						},
						{
							"internalType": "bytes32",
							"name": "_keyHash",
							"type": "bytes32"
						},
						{
							"internalType": "uint256",
							"name": "_miniPrice",
							"type": "uint256"
						}
					],
					"stateMutability": "nonpayable",
					"type": "constructor"
				},
				{
					"inputs": [
						{
							"internalType": "address",
							"name": "have",
							"type": "address"
						},
						{
							"internalType": "address",
							"name": "want",
							"type": "address"
						}
					],
					"name": "OnlyCoordinatorCanFulfill",
					"type": "error"
				},
				{
					"inputs": [
						{
							"internalType": "address",
							"name": "have",
							"type": "address"
						},
						{
							"internalType": "address",
							"name": "owner",
							"type": "address"
						},
						{
							"internalType": "address",
							"name": "coordinator",
							"type": "address"
						}
					],
					"name": "OnlyOwnerOrCoordinator",
					"type": "error"
				},
				{
					"inputs": [],
					"name": "ZeroAddress",
					"type": "error"
				},
				{
					"anonymous": false,
					"inputs": [
						{
							"indexed": false,
							"internalType": "address",
							"name": "vrfCoordinator",
							"type": "address"
						}
					],
					"name": "CoordinatorSet",
					"type": "event"
				},
				{
					"anonymous": false,
					"inputs": [
						{
							"indexed": false,
							"internalType": "address",
							"name": "owner",
							"type": "address"
						},
						{
							"indexed": false,
							"internalType": "uint256",
							"name": "luckyId",
							"type": "uint256"
						},
						{
							"indexed": false,
							"internalType": "uint256",
							"name": "requestId",
							"type": "uint256"
						},
						{
							"indexed": false,
							"internalType": "uint256",
							"name": "timestamp",
							"type": "uint256"
						}
					],
					"name": "EventDrawStart",
					"type": "event"
				},
				{
					"anonymous": false,
					"inputs": [
						{
							"indexed": false,
							"internalType": "address",
							"name": "owner",
							"type": "address"
						},
						{
							"indexed": false,
							"internalType": "uint256",
							"name": "balance",
							"type": "uint256"
						},
						{
							"indexed": false,
							"internalType": "uint256",
							"name": "timestamp",
							"type": "uint256"
						}
					],
					"name": "EventDrawSuccess",
					"type": "event"
				},
				{
					"anonymous": false,
					"inputs": [
						{
							"indexed": false,
							"internalType": "address",
							"name": "winner",
							"type": "address"
						},
						{
							"indexed": false,
							"internalType": "uint256",
							"name": "luckyId",
							"type": "uint256"
						},
						{
							"indexed": false,
							"internalType": "uint256",
							"name": "requestId",
							"type": "uint256"
						},
						{
							"indexed": false,
							"internalType": "uint256",
							"name": "timestamp",
							"type": "uint256"
						}
					],
					"name": "EventDrawWinnerSuccess",
					"type": "event"
				},
				{
					"anonymous": false,
					"inputs": [
						{
							"indexed": false,
							"internalType": "address",
							"name": "user",
							"type": "address"
						},
						{
							"indexed": false,
							"internalType": "uint256",
							"name": "luckyId",
							"type": "uint256"
						},
						{
							"indexed": false,
							"internalType": "uint256",
							"name": "price",
							"type": "uint256"
						},
						{
							"indexed": false,
							"internalType": "uint256",
							"name": "timestamp",
							"type": "uint256"
						}
					],
					"name": "EventJoinSuccess",
					"type": "event"
				},
				{
					"anonymous": false,
					"inputs": [
						{
							"indexed": true,
							"internalType": "address",
							"name": "from",
							"type": "address"
						},
						{
							"indexed": true,
							"internalType": "address",
							"name": "to",
							"type": "address"
						}
					],
					"name": "OwnershipTransferRequested",
					"type": "event"
				},
				{
					"anonymous": false,
					"inputs": [
						{
							"indexed": true,
							"internalType": "address",
							"name": "from",
							"type": "address"
						},
						{
							"indexed": true,
							"internalType": "address",
							"name": "to",
							"type": "address"
						}
					],
					"name": "OwnershipTransferred",
					"type": "event"
				},
				{
					"inputs": [],
					"name": "DECIMALS",
					"outputs": [
						{
							"internalType": "uint256",
							"name": "",
							"type": "uint256"
						}
					],
					"stateMutability": "view",
					"type": "function"
				},
				{
					"inputs": [],
					"name": "ONE",
					"outputs": [
						{
							"internalType": "uint256",
							"name": "",
							"type": "uint256"
						}
					],
					"stateMutability": "view",
					"type": "function"
				},
				{
					"inputs": [],
					"name": "acceptOwnership",
					"outputs": [],
					"stateMutability": "nonpayable",
					"type": "function"
				},
				{
					"inputs": [
						{
							"internalType": "uint256",
							"name": "_startTime",
							"type": "uint256"
						},
						{
							"internalType": "uint256",
							"name": "_endTime",
							"type": "uint256"
						},
						{
							"internalType": "uint256",
							"name": "_conditionPrice",
							"type": "uint256"
						}
					],
					"name": "createLucky",
					"outputs": [
						{
							"internalType": "uint256",
							"name": "",
							"type": "uint256"
						}
					],
					"stateMutability": "payable",
					"type": "function"
				},
				{
					"inputs": [],
					"name": "currentId",
					"outputs": [
						{
							"internalType": "uint256",
							"name": "",
							"type": "uint256"
						}
					],
					"stateMutability": "view",
					"type": "function"
				},
				{
					"inputs": [
						{
							"internalType": "uint256",
							"name": "id",
							"type": "uint256"
						}
					],
					"name": "drawWinner",
					"outputs": [],
					"stateMutability": "nonpayable",
					"type": "function"
				},
				{
					"inputs": [
						{
							"internalType": "uint256",
							"name": "luckyId",
							"type": "uint256"
						},
						{
							"internalType": "address",
							"name": "user",
							"type": "address"
						}
					],
					"name": "getLuckyJoinBalance",
					"outputs": [
						{
							"internalType": "uint256",
							"name": "amount",
							"type": "uint256"
						}
					],
					"stateMutability": "view",
					"type": "function"
				},
				{
					"inputs": [
						{
							"internalType": "uint256",
							"name": "luckyId",
							"type": "uint256"
						}
					],
					"name": "getOneLuckyInfo",
					"outputs": [
						{
							"internalType": "uint256",
							"name": "startTime",
							"type": "uint256"
						},
						{
							"internalType": "uint256",
							"name": "endTime",
							"type": "uint256"
						},
						{
							"internalType": "uint256",
							"name": "totalReward",
							"type": "uint256"
						},
						{
							"internalType": "address",
							"name": "owner",
							"type": "address"
						},
						{
							"internalType": "address",
							"name": "winner",
							"type": "address"
						},
						{
							"internalType": "uint256",
							"name": "price",
							"type": "uint256"
						},
						{
							"internalType": "bool",
							"name": "open",
							"type": "bool"
						},
						{
							"internalType": "uint256",
							"name": "joinNum",
							"type": "uint256"
						}
					],
					"stateMutability": "view",
					"type": "function"
				},
				{
					"inputs": [],
					"name": "getTotalFee",
					"outputs": [
						{
							"internalType": "uint256",
							"name": "",
							"type": "uint256"
						}
					],
					"stateMutability": "view",
					"type": "function"
				},
				{
					"inputs": [
						{
							"internalType": "uint256",
							"name": "id",
							"type": "uint256"
						}
					],
					"name": "joinLucky",
					"outputs": [],
					"stateMutability": "payable",
					"type": "function"
				},
				{
					"inputs": [],
					"name": "owner",
					"outputs": [
						{
							"internalType": "address",
							"name": "",
							"type": "address"
						}
					],
					"stateMutability": "view",
					"type": "function"
				},
				{
					"inputs": [
						{
							"internalType": "uint256",
							"name": "requestId",
							"type": "uint256"
						},
						{
							"internalType": "uint256[]",
							"name": "randomWords",
							"type": "uint256[]"
						}
					],
					"name": "rawFulfillRandomWords",
					"outputs": [],
					"stateMutability": "nonpayable",
					"type": "function"
				},
				{
					"inputs": [
						{
							"internalType": "uint256",
							"name": "",
							"type": "uint256"
						}
					],
					"name": "requestidToJoinId",
					"outputs": [
						{
							"internalType": "uint256",
							"name": "",
							"type": "uint256"
						}
					],
					"stateMutability": "view",
					"type": "function"
				},
				{
					"inputs": [],
					"name": "s_vrfCoordinator",
					"outputs": [
						{
							"internalType": "contract IVRFCoordinatorV2Plus",
							"name": "",
							"type": "address"
						}
					],
					"stateMutability": "view",
					"type": "function"
				},
				{
					"inputs": [
						{
							"internalType": "address",
							"name": "_vrfCoordinator",
							"type": "address"
						}
					],
					"name": "setCoordinator",
					"outputs": [],
					"stateMutability": "nonpayable",
					"type": "function"
				},
				{
					"inputs": [
						{
							"internalType": "address",
							"name": "to",
							"type": "address"
						}
					],
					"name": "transferOwnership",
					"outputs": [],
					"stateMutability": "nonpayable",
					"type": "function"
				},
				{
					"inputs": [],
					"name": "withDraw",
					"outputs": [],
					"stateMutability": "payable",
					"type": "function"
				}
			],
			"devdoc": {
				"kind": "dev",
				"methods": {},
				"version": 1
			},
			"evm": {
				"assembly": "    /* \"LuckyDrawVRF.sol\":254:8097  contract LuckyDrawVRF is VRFConsumerBaseV2Plus {... */\n  mstore(0x40, 0x80)\n    /* \"LuckyDrawVRF.sol\":636:637  3 */\n  0x03\n    /* \"LuckyDrawVRF.sol\":608:637  uint16 requestConfirmation =3 */\n  0x06\n  exp(0x0100, 0x00)\n  dup2\n  sload\n  dup2\n  0xffff\n  mul\n  not\n  and\n  swap1\n  dup4\n  0xffff\n  and\n  mul\n  or\n  swap1\n  sstore\n  pop\n    /* \"LuckyDrawVRF.sol\":694:700  100000 */\n  0x0186a0\n    /* \"LuckyDrawVRF.sol\":668:700  uint32 callbackGasLimit = 100000 */\n  0x06\n  exp(0x0100, 0x02)\n  dup2\n  sload\n  dup2\n  0xffffffff\n  mul\n  not\n  and\n  swap1\n  dup4\n  0xffffffff\n  and\n  mul\n  or\n  swap1\n  sstore\n  pop\n    /* \"LuckyDrawVRF.sol\":742:743  1 */\n  0x01\n    /* \"LuckyDrawVRF.sol\":725:743  uint32 numWords= 1 */\n  0x06\n  dup1\n  0x0100\n  exp\n  dup2\n  sload\n  dup2\n  0xffffffff\n  mul\n  not\n  and\n  swap1\n  dup4\n  0xffffffff\n  and\n  mul\n  or\n  swap1\n  sstore\n  pop\n    /* \"LuckyDrawVRF.sol\":1016:1017  0 */\n  0x00\n    /* \"LuckyDrawVRF.sol\":996:1017  uint8 hasProcessing=0 */\n  0x0a\n  exp(0x0100, 0x00)\n  dup2\n  sload\n  dup2\n  0xff\n  mul\n  not\n  and\n  swap1\n  dup4\n  0xff\n  and\n  mul\n  or\n  swap1\n  sstore\n  pop\n    /* \"LuckyDrawVRF.sol\":2096:2492  constructor(address _coordinator, uint256 _subscriptionId, bytes32 _keyHash,uint256 _miniPrice) VRFConsumerBaseV2Plus(_coordinator) {... */\n  callvalue\n  dup1\n  iszero\n  tag_1\n  jumpi\n  revert(0x00, 0x00)\ntag_1:\n  pop\n  mload(0x40)\n  sub(codesize, bytecodeSize)\n  dup1\n  bytecodeSize\n  dup4\n  codecopy\n  dup2\n  dup2\n  add\n  0x40\n  mstore\n  dup2\n  add\n  swap1\n  tag_2\n  swap2\n  swap1\n  tag_3\n  jump\t// in\ntag_2:\n    /* \"LuckyDrawVRF.sol\":2214:2226  _coordinator */\n  dup4\n    /* \"@chainlink/contracts/src/v0.8/vrf/dev/VRFConsumerBaseV2Plus.sol\":6254:6264  msg.sender */\n  caller\n    /* \"@chainlink/contracts/src/v0.8/shared/access/ConfirmedOwner.sol\":355:363  newOwner */\n  dup1\n    /* \"@chainlink/contracts/src/v0.8/shared/access/ConfirmedOwner.sol\":373:374  0 */\n  0x00\n    /* \"@chainlink/contracts/src/v0.8/shared/access/ConfirmedOwnerWithProposal.sol\":618:619  0 */\n  0x00\n    /* \"@chainlink/contracts/src/v0.8/shared/access/ConfirmedOwnerWithProposal.sol\":598:620  newOwner != address(0) */\n  0xffffffffffffffffffffffffffffffffffffffff\n  and\n    /* \"@chainlink/contracts/src/v0.8/shared/access/ConfirmedOwnerWithProposal.sol\":598:606  newOwner */\n  dup3\n    /* \"@chainlink/contracts/src/v0.8/shared/access/ConfirmedOwnerWithProposal.sol\":598:620  newOwner != address(0) */\n  0xffffffffffffffffffffffffffffffffffffffff\n  and\n  sub\n    /* \"@chainlink/contracts/src/v0.8/shared/access/ConfirmedOwnerWithProposal.sol\":590:649  require(newOwner != address(0), \"Cannot set owner to zero\") */\n  tag_9\n  jumpi\n  mload(0x40)\n  0x08c379a000000000000000000000000000000000000000000000000000000000\n  dup2\n  mstore\n  0x04\n  add\n  tag_10\n  swap1\n  tag_11\n  jump\t// in\ntag_10:\n  mload(0x40)\n  dup1\n  swap2\n  sub\n  swap1\n  revert\ntag_9:\n    /* \"@chainlink/contracts/src/v0.8/shared/access/ConfirmedOwnerWithProposal.sol\":666:674  newOwner */\n  dup2\n    /* \"@chainlink/contracts/src/v0.8/shared/access/ConfirmedOwnerWithProposal.sol\":656:663  s_owner */\n  0x00\n  0x00\n    /* \"@chainlink/contracts/src/v0.8/shared/access/ConfirmedOwnerWithProposal.sol\":656:674  s_owner = newOwner */\n  0x0100\n  exp\n  dup2\n  sload\n  dup2\n  0xffffffffffffffffffffffffffffffffffffffff\n  mul\n  not\n  and\n  swap1\n  dup4\n  0xffffffffffffffffffffffffffffffffffffffff\n  and\n  mul\n  or\n  swap1\n  sstore\n  pop\n    /* \"@chainlink/contracts/src/v0.8/shared/access/ConfirmedOwnerWithProposal.sol\":708:709  0 */\n  0x00\n    /* \"@chainlink/contracts/src/v0.8/shared/access/ConfirmedOwnerWithProposal.sol\":684:710  pendingOwner != address(0) */\n  0xffffffffffffffffffffffffffffffffffffffff\n  and\n    /* \"@chainlink/contracts/src/v0.8/shared/access/ConfirmedOwnerWithProposal.sol\":684:696  pendingOwner */\n  dup2\n    /* \"@chainlink/contracts/src/v0.8/shared/access/ConfirmedOwnerWithProposal.sol\":684:710  pendingOwner != address(0) */\n  0xffffffffffffffffffffffffffffffffffffffff\n  and\n  eq\n    /* \"@chainlink/contracts/src/v0.8/shared/access/ConfirmedOwnerWithProposal.sol\":680:759  if (pendingOwner != address(0)) {... */\n  tag_12\n  jumpi\n    /* \"@chainlink/contracts/src/v0.8/shared/access/ConfirmedOwnerWithProposal.sol\":720:752  _transferOwnership(pendingOwner) */\n  tag_13\n    /* \"@chainlink/contracts/src/v0.8/shared/access/ConfirmedOwnerWithProposal.sol\":739:751  pendingOwner */\n  dup2\n    /* \"@chainlink/contracts/src/v0.8/shared/access/ConfirmedOwnerWithProposal.sol\":720:738  _transferOwnership */\n  shl(0x20, tag_14)\n    /* \"@chainlink/contracts/src/v0.8/shared/access/ConfirmedOwnerWithProposal.sol\":720:752  _transferOwnership(pendingOwner) */\n  0x20\n  shr\n  jump\t// in\ntag_13:\n    /* \"@chainlink/contracts/src/v0.8/shared/access/ConfirmedOwnerWithProposal.sol\":680:759  if (pendingOwner != address(0)) {... */\ntag_12:\n    /* \"@chainlink/contracts/src/v0.8/shared/access/ConfirmedOwnerWithProposal.sol\":481:763  constructor(address newOwner, address pendingOwner) {... */\n  pop\n  pop\n    /* \"@chainlink/contracts/src/v0.8/shared/access/ConfirmedOwner.sol\":298:379  constructor(address newOwner) ConfirmedOwnerWithProposal(newOwner, address(0)) {} */\n  pop\n    /* \"@chainlink/contracts/src/v0.8/vrf/dev/VRFConsumerBaseV2Plus.sol\":6303:6304  0 */\n  0x00\n    /* \"@chainlink/contracts/src/v0.8/vrf/dev/VRFConsumerBaseV2Plus.sol\":6276:6305  _vrfCoordinator == address(0) */\n  0xffffffffffffffffffffffffffffffffffffffff\n  and\n    /* \"@chainlink/contracts/src/v0.8/vrf/dev/VRFConsumerBaseV2Plus.sol\":6276:6291  _vrfCoordinator */\n  dup2\n    /* \"@chainlink/contracts/src/v0.8/vrf/dev/VRFConsumerBaseV2Plus.sol\":6276:6305  _vrfCoordinator == address(0) */\n  0xffffffffffffffffffffffffffffffffffffffff\n  and\n  sub\n    /* \"@chainlink/contracts/src/v0.8/vrf/dev/VRFConsumerBaseV2Plus.sol\":6272:6342  if (_vrfCoordinator == address(0)) {... */\n  tag_17\n  jumpi\n    /* \"@chainlink/contracts/src/v0.8/vrf/dev/VRFConsumerBaseV2Plus.sol\":6322:6335  ZeroAddress() */\n  mload(0x40)\n  0xd92e233d00000000000000000000000000000000000000000000000000000000\n  dup2\n  mstore\n  0x04\n  add\n  mload(0x40)\n  dup1\n  swap2\n  sub\n  swap1\n  revert\n    /* \"@chainlink/contracts/src/v0.8/vrf/dev/VRFConsumerBaseV2Plus.sol\":6272:6342  if (_vrfCoordinator == address(0)) {... */\ntag_17:\n    /* \"@chainlink/contracts/src/v0.8/vrf/dev/VRFConsumerBaseV2Plus.sol\":6388:6403  _vrfCoordinator */\n  dup1\n    /* \"@chainlink/contracts/src/v0.8/vrf/dev/VRFConsumerBaseV2Plus.sol\":6347:6363  s_vrfCoordinator */\n  0x02\n  0x00\n    /* \"@chainlink/contracts/src/v0.8/vrf/dev/VRFConsumerBaseV2Plus.sol\":6347:6404  s_vrfCoordinator = IVRFCoordinatorV2Plus(_vrfCoordinator) */\n  0x0100\n  exp\n  dup2\n  sload\n  dup2\n  0xffffffffffffffffffffffffffffffffffffffff\n  mul\n  not\n  and\n  swap1\n  dup4\n  0xffffffffffffffffffffffffffffffffffffffff\n  and\n  mul\n  or\n  swap1\n  sstore\n  pop\n    /* \"@chainlink/contracts/src/v0.8/vrf/dev/VRFConsumerBaseV2Plus.sol\":6202:6409  constructor(address _vrfCoordinator) ConfirmedOwner(msg.sender) {... */\n  pop\n    /* \"LuckyDrawVRF.sol\":2255:2267  _coordinator */\n  dup4\n    /* \"LuckyDrawVRF.sol\":2238:2252  vrfCoordinator */\n  0x04\n  0x00\n    /* \"LuckyDrawVRF.sol\":2238:2267  vrfCoordinator = _coordinator */\n  0x0100\n  exp\n  dup2\n  sload\n  dup2\n  0xffffffffffffffffffffffffffffffffffffffff\n  mul\n  not\n  and\n  swap1\n  dup4\n  0xffffffffffffffffffffffffffffffffffffffff\n  and\n  mul\n  or\n  swap1\n  sstore\n  pop\n    /* \"LuckyDrawVRF.sol\":2318:2330  _coordinator */\n  dup4\n    /* \"LuckyDrawVRF.sol\":2277:2293  s_vrfCoordinator */\n  0x02\n  0x00\n    /* \"LuckyDrawVRF.sol\":2277:2331  s_vrfCoordinator = IVRFCoordinatorV2Plus(_coordinator) */\n  0x0100\n  exp\n  dup2\n  sload\n  dup2\n  0xffffffffffffffffffffffffffffffffffffffff\n  mul\n  not\n  and\n  swap1\n  dup4\n  0xffffffffffffffffffffffffffffffffffffffff\n  and\n  mul\n  or\n  swap1\n  sstore\n  pop\n    /* \"LuckyDrawVRF.sol\":2356:2371  _subscriptionId */\n  dup3\n    /* \"LuckyDrawVRF.sol\":2341:2355  subscriptionId */\n  0x03\n    /* \"LuckyDrawVRF.sol\":2341:2371  subscriptionId=_subscriptionId */\n  dup2\n  swap1\n  sstore\n  pop\n    /* \"LuckyDrawVRF.sol\":2389:2397  _keyHash */\n  dup2\n    /* \"LuckyDrawVRF.sol\":2381:2388  keyHash */\n  0x05\n    /* \"LuckyDrawVRF.sol\":2381:2397  keyHash=_keyHash */\n  dup2\n  swap1\n  sstore\n  pop\n    /* \"LuckyDrawVRF.sol\":2417:2418  1 */\n  0x01\n    /* \"LuckyDrawVRF.sol\":2407:2416  currentId */\n  0x07\n    /* \"LuckyDrawVRF.sol\":2407:2418  currentId=1 */\n  dup2\n  swap1\n  sstore\n  pop\n    /* \"LuckyDrawVRF.sol\":2440:2450  _miniPrice */\n  dup1\n    /* \"LuckyDrawVRF.sol\":2428:2437  miniPrice */\n  0x0b\n    /* \"LuckyDrawVRF.sol\":2428:2450  miniPrice = _miniPrice */\n  dup2\n  swap1\n  sstore\n  pop\n    /* \"LuckyDrawVRF.sol\":2475:2485  msg.sender */\n  caller\n    /* \"LuckyDrawVRF.sol\":2460:2473  contractOwner */\n  0x0d\n  0x00\n    /* \"LuckyDrawVRF.sol\":2460:2485  contractOwner= msg.sender */\n  0x0100\n  exp\n  dup2\n  sload\n  dup2\n  0xffffffffffffffffffffffffffffffffffffffff\n  mul\n  not\n  and\n  swap1\n  dup4\n  0xffffffffffffffffffffffffffffffffffffffff\n  and\n  mul\n  or\n  swap1\n  sstore\n  pop\n    /* \"LuckyDrawVRF.sol\":2096:2492  constructor(address _coordinator, uint256 _subscriptionId, bytes32 _keyHash,uint256 _miniPrice) VRFConsumerBaseV2Plus(_coordinator) {... */\n  pop\n  pop\n  pop\n  pop\n    /* \"LuckyDrawVRF.sol\":254:8097  contract LuckyDrawVRF is VRFConsumerBaseV2Plus {... */\n  jump(tag_19)\n    /* \"@chainlink/contracts/src/v0.8/shared/access/ConfirmedOwnerWithProposal.sol\":1536:1775  function _transferOwnership(address to) private {... */\ntag_14:\n    /* \"@chainlink/contracts/src/v0.8/shared/access/ConfirmedOwnerWithProposal.sol\":1655:1665  msg.sender */\n  caller\n    /* \"@chainlink/contracts/src/v0.8/shared/access/ConfirmedOwnerWithProposal.sol\":1649:1665  to != msg.sender */\n  0xffffffffffffffffffffffffffffffffffffffff\n  and\n    /* \"@chainlink/contracts/src/v0.8/shared/access/ConfirmedOwnerWithProposal.sol\":1649:1651  to */\n  dup2\n    /* \"@chainlink/contracts/src/v0.8/shared/access/ConfirmedOwnerWithProposal.sol\":1649:1665  to != msg.sender */\n  0xffffffffffffffffffffffffffffffffffffffff\n  and\n  sub\n    /* \"@chainlink/contracts/src/v0.8/shared/access/ConfirmedOwnerWithProposal.sol\":1641:1693  require(to != msg.sender, \"Cannot transfer to self\") */\n  tag_21\n  jumpi\n  mload(0x40)\n  0x08c379a000000000000000000000000000000000000000000000000000000000\n  dup2\n  mstore\n  0x04\n  add\n  tag_22\n  swap1\n  tag_23\n  jump\t// in\ntag_22:\n  mload(0x40)\n  dup1\n  swap2\n  sub\n  swap1\n  revert\ntag_21:\n    /* \"@chainlink/contracts/src/v0.8/shared/access/ConfirmedOwnerWithProposal.sol\":1717:1719  to */\n  dup1\n    /* \"@chainlink/contracts/src/v0.8/shared/access/ConfirmedOwnerWithProposal.sol\":1700:1714  s_pendingOwner */\n  0x01\n  0x00\n    /* \"@chainlink/contracts/src/v0.8/shared/access/ConfirmedOwnerWithProposal.sol\":1700:1719  s_pendingOwner = to */\n  0x0100\n  exp\n  dup2\n  sload\n  dup2\n  0xffffffffffffffffffffffffffffffffffffffff\n  mul\n  not\n  and\n  swap1\n  dup4\n  0xffffffffffffffffffffffffffffffffffffffff\n  and\n  mul\n  or\n  swap1\n  sstore\n  pop\n    /* \"@chainlink/contracts/src/v0.8/shared/access/ConfirmedOwnerWithProposal.sol\":1767:1769  to */\n  dup1\n    /* \"@chainlink/contracts/src/v0.8/shared/access/ConfirmedOwnerWithProposal.sol\":1731:1770  OwnershipTransferRequested(s_owner, to) */\n  0xffffffffffffffffffffffffffffffffffffffff\n  and\n    /* \"@chainlink/contracts/src/v0.8/shared/access/ConfirmedOwnerWithProposal.sol\":1758:1765  s_owner */\n  0x00\n  0x00\n  swap1\n  sload\n  swap1\n  0x0100\n  exp\n  swap1\n  div\n  0xffffffffffffffffffffffffffffffffffffffff\n  and\n    /* \"@chainlink/contracts/src/v0.8/shared/access/ConfirmedOwnerWithProposal.sol\":1731:1770  OwnershipTransferRequested(s_owner, to) */\n  0xffffffffffffffffffffffffffffffffffffffff\n  and\n  0xed8889f560326eb138920d842192f0eb3dd22b4f139c87a2c57538e05bae1278\n  mload(0x40)\n  mload(0x40)\n  dup1\n  swap2\n  sub\n  swap1\n  log3\n    /* \"@chainlink/contracts/src/v0.8/shared/access/ConfirmedOwnerWithProposal.sol\":1536:1775  function _transferOwnership(address to) private {... */\n  pop\n  jump\t// out\n    /* \"#utility.yul\":88:205   */\ntag_25:\n    /* \"#utility.yul\":197:198   */\n  0x00\n    /* \"#utility.yul\":194:195   */\n  0x00\n    /* \"#utility.yul\":187:199   */\n  revert\n    /* \"#utility.yul\":334:460   */\ntag_27:\n    /* \"#utility.yul\":371:378   */\n  0x00\n    /* \"#utility.yul\":411:453   */\n  0xffffffffffffffffffffffffffffffffffffffff\n    /* \"#utility.yul\":404:409   */\n  dup3\n    /* \"#utility.yul\":400:454   */\n  and\n    /* \"#utility.yul\":389:454   */\n  swap1\n  pop\n    /* \"#utility.yul\":334:460   */\n  swap2\n  swap1\n  pop\n  jump\t// out\n    /* \"#utility.yul\":466:562   */\ntag_28:\n    /* \"#utility.yul\":503:510   */\n  0x00\n    /* \"#utility.yul\":532:556   */\n  tag_48\n    /* \"#utility.yul\":550:555   */\n  dup3\n    /* \"#utility.yul\":532:556   */\n  tag_27\n  jump\t// in\ntag_48:\n    /* \"#utility.yul\":521:556   */\n  swap1\n  pop\n    /* \"#utility.yul\":466:562   */\n  swap2\n  swap1\n  pop\n  jump\t// out\n    /* \"#utility.yul\":568:690   */\ntag_29:\n    /* \"#utility.yul\":641:665   */\n  tag_50\n    /* \"#utility.yul\":659:664   */\n  dup2\n    /* \"#utility.yul\":641:665   */\n  tag_28\n  jump\t// in\ntag_50:\n    /* \"#utility.yul\":634:639   */\n  dup2\n    /* \"#utility.yul\":631:666   */\n  eq\n    /* \"#utility.yul\":621:684   */\n  tag_51\n  jumpi\n    /* \"#utility.yul\":680:681   */\n  0x00\n    /* \"#utility.yul\":677:678   */\n  0x00\n    /* \"#utility.yul\":670:682   */\n  revert\n    /* \"#utility.yul\":621:684   */\ntag_51:\n    /* \"#utility.yul\":568:690   */\n  pop\n  jump\t// out\n    /* \"#utility.yul\":696:839   */\ntag_30:\n    /* \"#utility.yul\":753:758   */\n  0x00\n    /* \"#utility.yul\":784:790   */\n  dup2\n    /* \"#utility.yul\":778:791   */\n  mload\n    /* \"#utility.yul\":769:791   */\n  swap1\n  pop\n    /* \"#utility.yul\":800:833   */\n  tag_53\n    /* \"#utility.yul\":827:832   */\n  dup2\n    /* \"#utility.yul\":800:833   */\n  tag_29\n  jump\t// in\ntag_53:\n    /* \"#utility.yul\":696:839   */\n  swap3\n  swap2\n  pop\n  pop\n  jump\t// out\n    /* \"#utility.yul\":845:922   */\ntag_31:\n    /* \"#utility.yul\":882:889   */\n  0x00\n    /* \"#utility.yul\":911:916   */\n  dup2\n    /* \"#utility.yul\":900:916   */\n  swap1\n  pop\n    /* \"#utility.yul\":845:922   */\n  swap2\n  swap1\n  pop\n  jump\t// out\n    /* \"#utility.yul\":928:1050   */\ntag_32:\n    /* \"#utility.yul\":1001:1025   */\n  tag_56\n    /* \"#utility.yul\":1019:1024   */\n  dup2\n    /* \"#utility.yul\":1001:1025   */\n  tag_31\n  jump\t// in\ntag_56:\n    /* \"#utility.yul\":994:999   */\n  dup2\n    /* \"#utility.yul\":991:1026   */\n  eq\n    /* \"#utility.yul\":981:1044   */\n  tag_57\n  jumpi\n    /* \"#utility.yul\":1040:1041   */\n  0x00\n    /* \"#utility.yul\":1037:1038   */\n  0x00\n    /* \"#utility.yul\":1030:1042   */\n  revert\n    /* \"#utility.yul\":981:1044   */\ntag_57:\n    /* \"#utility.yul\":928:1050   */\n  pop\n  jump\t// out\n    /* \"#utility.yul\":1056:1199   */\ntag_33:\n    /* \"#utility.yul\":1113:1118   */\n  0x00\n    /* \"#utility.yul\":1144:1150   */\n  dup2\n    /* \"#utility.yul\":1138:1151   */\n  mload\n    /* \"#utility.yul\":1129:1151   */\n  swap1\n  pop\n    /* \"#utility.yul\":1160:1193   */\n  tag_59\n    /* \"#utility.yul\":1187:1192   */\n  dup2\n    /* \"#utility.yul\":1160:1193   */\n  tag_32\n  jump\t// in\ntag_59:\n    /* \"#utility.yul\":1056:1199   */\n  swap3\n  swap2\n  pop\n  pop\n  jump\t// out\n    /* \"#utility.yul\":1205:1282   */\ntag_34:\n    /* \"#utility.yul\":1242:1249   */\n  0x00\n    /* \"#utility.yul\":1271:1276   */\n  dup2\n    /* \"#utility.yul\":1260:1276   */\n  swap1\n  pop\n    /* \"#utility.yul\":1205:1282   */\n  swap2\n  swap1\n  pop\n  jump\t// out\n    /* \"#utility.yul\":1288:1410   */\ntag_35:\n    /* \"#utility.yul\":1361:1385   */\n  tag_62\n    /* \"#utility.yul\":1379:1384   */\n  dup2\n    /* \"#utility.yul\":1361:1385   */\n  tag_34\n  jump\t// in\ntag_62:\n    /* \"#utility.yul\":1354:1359   */\n  dup2\n    /* \"#utility.yul\":1351:1386   */\n  eq\n    /* \"#utility.yul\":1341:1404   */\n  tag_63\n  jumpi\n    /* \"#utility.yul\":1400:1401   */\n  0x00\n    /* \"#utility.yul\":1397:1398   */\n  0x00\n    /* \"#utility.yul\":1390:1402   */\n  revert\n    /* \"#utility.yul\":1341:1404   */\ntag_63:\n    /* \"#utility.yul\":1288:1410   */\n  pop\n  jump\t// out\n    /* \"#utility.yul\":1416:1559   */\ntag_36:\n    /* \"#utility.yul\":1473:1478   */\n  0x00\n    /* \"#utility.yul\":1504:1510   */\n  dup2\n    /* \"#utility.yul\":1498:1511   */\n  mload\n    /* \"#utility.yul\":1489:1511   */\n  swap1\n  pop\n    /* \"#utility.yul\":1520:1553   */\n  tag_65\n    /* \"#utility.yul\":1547:1552   */\n  dup2\n    /* \"#utility.yul\":1520:1553   */\n  tag_35\n  jump\t// in\ntag_65:\n    /* \"#utility.yul\":1416:1559   */\n  swap3\n  swap2\n  pop\n  pop\n  jump\t// out\n    /* \"#utility.yul\":1565:2385   */\ntag_3:\n    /* \"#utility.yul\":1662:1668   */\n  0x00\n    /* \"#utility.yul\":1670:1676   */\n  0x00\n    /* \"#utility.yul\":1678:1684   */\n  0x00\n    /* \"#utility.yul\":1686:1692   */\n  0x00\n    /* \"#utility.yul\":1735:1738   */\n  0x80\n    /* \"#utility.yul\":1723:1732   */\n  dup6\n    /* \"#utility.yul\":1714:1721   */\n  dup8\n    /* \"#utility.yul\":1710:1733   */\n  sub\n    /* \"#utility.yul\":1706:1739   */\n  slt\n    /* \"#utility.yul\":1703:1823   */\n  iszero\n  tag_67\n  jumpi\n    /* \"#utility.yul\":1742:1821   */\n  tag_68\n  tag_25\n  jump\t// in\ntag_68:\n    /* \"#utility.yul\":1703:1823   */\ntag_67:\n    /* \"#utility.yul\":1862:1863   */\n  0x00\n    /* \"#utility.yul\":1887:1951   */\n  tag_69\n    /* \"#utility.yul\":1943:1950   */\n  dup8\n    /* \"#utility.yul\":1934:1940   */\n  dup3\n    /* \"#utility.yul\":1923:1932   */\n  dup9\n    /* \"#utility.yul\":1919:1941   */\n  add\n    /* \"#utility.yul\":1887:1951   */\n  tag_30\n  jump\t// in\ntag_69:\n    /* \"#utility.yul\":1877:1951   */\n  swap5\n  pop\n    /* \"#utility.yul\":1833:1961   */\n  pop\n    /* \"#utility.yul\":2000:2002   */\n  0x20\n    /* \"#utility.yul\":2026:2090   */\n  tag_70\n    /* \"#utility.yul\":2082:2089   */\n  dup8\n    /* \"#utility.yul\":2073:2079   */\n  dup3\n    /* \"#utility.yul\":2062:2071   */\n  dup9\n    /* \"#utility.yul\":2058:2080   */\n  add\n    /* \"#utility.yul\":2026:2090   */\n  tag_33\n  jump\t// in\ntag_70:\n    /* \"#utility.yul\":2016:2090   */\n  swap4\n  pop\n    /* \"#utility.yul\":1971:2100   */\n  pop\n    /* \"#utility.yul\":2139:2141   */\n  0x40\n    /* \"#utility.yul\":2165:2229   */\n  tag_71\n    /* \"#utility.yul\":2221:2228   */\n  dup8\n    /* \"#utility.yul\":2212:2218   */\n  dup3\n    /* \"#utility.yul\":2201:2210   */\n  dup9\n    /* \"#utility.yul\":2197:2219   */\n  add\n    /* \"#utility.yul\":2165:2229   */\n  tag_36\n  jump\t// in\ntag_71:\n    /* \"#utility.yul\":2155:2229   */\n  swap3\n  pop\n    /* \"#utility.yul\":2110:2239   */\n  pop\n    /* \"#utility.yul\":2278:2280   */\n  0x60\n    /* \"#utility.yul\":2304:2368   */\n  tag_72\n    /* \"#utility.yul\":2360:2367   */\n  dup8\n    /* \"#utility.yul\":2351:2357   */\n  dup3\n    /* \"#utility.yul\":2340:2349   */\n  dup9\n    /* \"#utility.yul\":2336:2358   */\n  add\n    /* \"#utility.yul\":2304:2368   */\n  tag_33\n  jump\t// in\ntag_72:\n    /* \"#utility.yul\":2294:2368   */\n  swap2\n  pop\n    /* \"#utility.yul\":2249:2378   */\n  pop\n    /* \"#utility.yul\":1565:2385   */\n  swap3\n  swap6\n  swap2\n  swap5\n  pop\n  swap3\n  pop\n  jump\t// out\n    /* \"#utility.yul\":2391:2560   */\ntag_37:\n    /* \"#utility.yul\":2475:2486   */\n  0x00\n    /* \"#utility.yul\":2509:2515   */\n  dup3\n    /* \"#utility.yul\":2504:2507   */\n  dup3\n    /* \"#utility.yul\":2497:2516   */\n  mstore\n    /* \"#utility.yul\":2549:2553   */\n  0x20\n    /* \"#utility.yul\":2544:2547   */\n  dup3\n    /* \"#utility.yul\":2540:2554   */\n  add\n    /* \"#utility.yul\":2525:2554   */\n  swap1\n  pop\n    /* \"#utility.yul\":2391:2560   */\n  swap3\n  swap2\n  pop\n  pop\n  jump\t// out\n    /* \"#utility.yul\":2566:2740   */\ntag_38:\n    /* \"#utility.yul\":2706:2732   */\n  0x43616e6e6f7420736574206f776e657220746f207a65726f0000000000000000\n    /* \"#utility.yul\":2702:2703   */\n  0x00\n    /* \"#utility.yul\":2694:2700   */\n  dup3\n    /* \"#utility.yul\":2690:2704   */\n  add\n    /* \"#utility.yul\":2683:2733   */\n  mstore\n    /* \"#utility.yul\":2566:2740   */\n  pop\n  jump\t// out\n    /* \"#utility.yul\":2746:3112   */\ntag_39:\n    /* \"#utility.yul\":2888:2891   */\n  0x00\n    /* \"#utility.yul\":2909:2976   */\n  tag_76\n    /* \"#utility.yul\":2973:2975   */\n  0x18\n    /* \"#utility.yul\":2968:2971   */\n  dup4\n    /* \"#utility.yul\":2909:2976   */\n  tag_37\n  jump\t// in\ntag_76:\n    /* \"#utility.yul\":2902:2976   */\n  swap2\n  pop\n    /* \"#utility.yul\":2985:3078   */\n  tag_77\n    /* \"#utility.yul\":3074:3077   */\n  dup3\n    /* \"#utility.yul\":2985:3078   */\n  tag_38\n  jump\t// in\ntag_77:\n    /* \"#utility.yul\":3103:3105   */\n  0x20\n    /* \"#utility.yul\":3098:3101   */\n  dup3\n    /* \"#utility.yul\":3094:3106   */\n  add\n    /* \"#utility.yul\":3087:3106   */\n  swap1\n  pop\n    /* \"#utility.yul\":2746:3112   */\n  swap2\n  swap1\n  pop\n  jump\t// out\n    /* \"#utility.yul\":3118:3537   */\ntag_11:\n    /* \"#utility.yul\":3284:3288   */\n  0x00\n    /* \"#utility.yul\":3322:3324   */\n  0x20\n    /* \"#utility.yul\":3311:3320   */\n  dup3\n    /* \"#utility.yul\":3307:3325   */\n  add\n    /* \"#utility.yul\":3299:3325   */\n  swap1\n  pop\n    /* \"#utility.yul\":3371:3380   */\n  dup2\n    /* \"#utility.yul\":3365:3369   */\n  dup2\n    /* \"#utility.yul\":3361:3381   */\n  sub\n    /* \"#utility.yul\":3357:3358   */\n  0x00\n    /* \"#utility.yul\":3346:3355   */\n  dup4\n    /* \"#utility.yul\":3342:3359   */\n  add\n    /* \"#utility.yul\":3335:3382   */\n  mstore\n    /* \"#utility.yul\":3399:3530   */\n  tag_79\n    /* \"#utility.yul\":3525:3529   */\n  dup2\n    /* \"#utility.yul\":3399:3530   */\n  tag_39\n  jump\t// in\ntag_79:\n    /* \"#utility.yul\":3391:3530   */\n  swap1\n  pop\n    /* \"#utility.yul\":3118:3537   */\n  swap2\n  swap1\n  pop\n  jump\t// out\n    /* \"#utility.yul\":3543:3716   */\ntag_40:\n    /* \"#utility.yul\":3683:3708   */\n  0x43616e6e6f74207472616e7366657220746f2073656c66000000000000000000\n    /* \"#utility.yul\":3679:3680   */\n  0x00\n    /* \"#utility.yul\":3671:3677   */\n  dup3\n    /* \"#utility.yul\":3667:3681   */\n  add\n    /* \"#utility.yul\":3660:3709   */\n  mstore\n    /* \"#utility.yul\":3543:3716   */\n  pop\n  jump\t// out\n    /* \"#utility.yul\":3722:4088   */\ntag_41:\n    /* \"#utility.yul\":3864:3867   */\n  0x00\n    /* \"#utility.yul\":3885:3952   */\n  tag_82\n    /* \"#utility.yul\":3949:3951   */\n  0x17\n    /* \"#utility.yul\":3944:3947   */\n  dup4\n    /* \"#utility.yul\":3885:3952   */\n  tag_37\n  jump\t// in\ntag_82:\n    /* \"#utility.yul\":3878:3952   */\n  swap2\n  pop\n    /* \"#utility.yul\":3961:4054   */\n  tag_83\n    /* \"#utility.yul\":4050:4053   */\n  dup3\n    /* \"#utility.yul\":3961:4054   */\n  tag_40\n  jump\t// in\ntag_83:\n    /* \"#utility.yul\":4079:4081   */\n  0x20\n    /* \"#utility.yul\":4074:4077   */\n  dup3\n    /* \"#utility.yul\":4070:4082   */\n  add\n    /* \"#utility.yul\":4063:4082   */\n  swap1\n  pop\n    /* \"#utility.yul\":3722:4088   */\n  swap2\n  swap1\n  pop\n  jump\t// out\n    /* \"#utility.yul\":4094:4513   */\ntag_23:\n    /* \"#utility.yul\":4260:4264   */\n  0x00\n    /* \"#utility.yul\":4298:4300   */\n  0x20\n    /* \"#utility.yul\":4287:4296   */\n  dup3\n    /* \"#utility.yul\":4283:4301   */\n  add\n    /* \"#utility.yul\":4275:4301   */\n  swap1\n  pop\n    /* \"#utility.yul\":4347:4356   */\n  dup2\n    /* \"#utility.yul\":4341:4345   */\n  dup2\n    /* \"#utility.yul\":4337:4357   */\n  sub\n    /* \"#utility.yul\":4333:4334   */\n  0x00\n    /* \"#utility.yul\":4322:4331   */\n  dup4\n    /* \"#utility.yul\":4318:4335   */\n  add\n    /* \"#utility.yul\":4311:4358   */\n  mstore\n    /* \"#utility.yul\":4375:4506   */\n  tag_85\n    /* \"#utility.yul\":4501:4505   */\n  dup2\n    /* \"#utility.yul\":4375:4506   */\n  tag_41\n  jump\t// in\ntag_85:\n    /* \"#utility.yul\":4367:4506   */\n  swap1\n  pop\n    /* \"#utility.yul\":4094:4513   */\n  swap2\n  swap1\n  pop\n  jump\t// out\n    /* \"LuckyDrawVRF.sol\":254:8097  contract LuckyDrawVRF is VRFConsumerBaseV2Plus {... */\ntag_19:\n  dataSize(sub_0)\n  dup1\n  dataOffset(sub_0)\n  0x00\n  codecopy\n  0x00\n  return\nstop\n\nsub_0: assembly {\n        /* \"LuckyDrawVRF.sol\":254:8097  contract LuckyDrawVRF is VRFConsumerBaseV2Plus {... */\n      mstore(0x40, 0x80)\n      jumpi(tag_1, lt(calldatasize, 0x04))\n      shr(0xe0, calldataload(0x00))\n      dup1\n      0x8da5cb5b\n      gt\n      tag_19\n      jumpi\n      dup1\n      0xc2ee3a08\n      gt\n      tag_20\n      jumpi\n      dup1\n      0xc2ee3a08\n      eq\n      tag_14\n      jumpi\n      dup1\n      0xe00dd161\n      eq\n      tag_15\n      jumpi\n      dup1\n      0xe578b0bb\n      eq\n      tag_16\n      jumpi\n      dup1\n      0xf2fde38b\n      eq\n      tag_17\n      jumpi\n      dup1\n      0xf36b98fb\n      eq\n      tag_18\n      jumpi\n      jump(tag_1)\n    tag_20:\n      dup1\n      0x8da5cb5b\n      eq\n      tag_10\n      jumpi\n      dup1\n      0x8ea98117\n      eq\n      tag_11\n      jumpi\n      dup1\n      0x9eccacf6\n      eq\n      tag_12\n      jumpi\n      dup1\n      0xa3fa9775\n      eq\n      tag_13\n      jumpi\n      jump(tag_1)\n    tag_19:\n      dup1\n      0x60b2a56a\n      gt\n      tag_21\n      jumpi\n      dup1\n      0x60b2a56a\n      eq\n      tag_6\n      jumpi\n      dup1\n      0x64b6a998\n      eq\n      tag_7\n      jumpi\n      dup1\n      0x79ba5097\n      eq\n      tag_8\n      jumpi\n      dup1\n      0x7ae316d0\n      eq\n      tag_9\n      jumpi\n      jump(tag_1)\n    tag_21:\n      dup1\n      0x0fdb1c10\n      eq\n      tag_2\n      jumpi\n      dup1\n      0x1fe543e3\n      eq\n      tag_3\n      jumpi\n      dup1\n      0x2e0f2625\n      eq\n      tag_4\n      jumpi\n      dup1\n      0x36068a56\n      eq\n      tag_5\n      jumpi\n    tag_1:\n      revert(0x00, 0x00)\n        /* \"LuckyDrawVRF.sol\":7836:8094  function withDraw() public payable onlyOwner{... */\n    tag_2:\n      tag_22\n      tag_23\n      jump\t// in\n    tag_22:\n      stop\n        /* \"@chainlink/contracts/src/v0.8/vrf/dev/VRFConsumerBaseV2Plus.sol\":7489:7769  function rawFulfillRandomWords(uint256 requestId, uint256[] calldata randomWords) external {... */\n    tag_3:\n      callvalue\n      dup1\n      iszero\n      tag_24\n      jumpi\n      revert(0x00, 0x00)\n    tag_24:\n      pop\n      tag_25\n      0x04\n      dup1\n      calldatasize\n      sub\n      dup2\n      add\n      swap1\n      tag_26\n      swap2\n      swap1\n      tag_27\n      jump\t// in\n    tag_26:\n      tag_28\n      jump\t// in\n    tag_25:\n      stop\n        /* \"LuckyDrawVRF.sol\":307:344  uint256 public constant DECIMALS = 18 */\n    tag_4:\n      callvalue\n      dup1\n      iszero\n      tag_29\n      jumpi\n      revert(0x00, 0x00)\n    tag_29:\n      pop\n      tag_30\n      tag_31\n      jump\t// in\n    tag_30:\n      mload(0x40)\n      tag_32\n      swap2\n      swap1\n      tag_33\n      jump\t// in\n    tag_32:\n      mload(0x40)\n      dup1\n      swap2\n      sub\n      swap1\n      return\n        /* \"LuckyDrawVRF.sol\":7036:7463  function getOneLuckyInfo(uint256 luckyId) public view returns(... */\n    tag_5:\n      callvalue\n      dup1\n      iszero\n      tag_34\n      jumpi\n      revert(0x00, 0x00)\n    tag_34:\n      pop\n      tag_35\n      0x04\n      dup1\n      calldatasize\n      sub\n      dup2\n      add\n      swap1\n      tag_36\n      swap2\n      swap1\n      tag_37\n      jump\t// in\n    tag_36:\n      tag_38\n      jump\t// in\n    tag_35:\n      mload(0x40)\n      tag_39\n      swap9\n      swap8\n      swap7\n      swap6\n      swap5\n      swap4\n      swap3\n      swap2\n      swap1\n      tag_40\n      jump\t// in\n    tag_39:\n      mload(0x40)\n      dup1\n      swap2\n      sub\n      swap1\n      return\n        /* \"LuckyDrawVRF.sol\":4132:5832  function drawWinner(uint256 id) public {... */\n    tag_6:\n      callvalue\n      dup1\n      iszero\n      tag_41\n      jumpi\n      revert(0x00, 0x00)\n    tag_41:\n      pop\n      tag_42\n      0x04\n      dup1\n      calldatasize\n      sub\n      dup2\n      add\n      swap1\n      tag_43\n      swap2\n      swap1\n      tag_37\n      jump\t// in\n    tag_43:\n      tag_44\n      jump\t// in\n    tag_42:\n      stop\n        /* \"LuckyDrawVRF.sol\":912:962  mapping(uint256=>uint256) public requestidToJoinId */\n    tag_7:\n      callvalue\n      dup1\n      iszero\n      tag_45\n      jumpi\n      revert(0x00, 0x00)\n    tag_45:\n      pop\n      tag_46\n      0x04\n      dup1\n      calldatasize\n      sub\n      dup2\n      add\n      swap1\n      tag_47\n      swap2\n      swap1\n      tag_37\n      jump\t// in\n    tag_47:\n      tag_48\n      jump\t// in\n    tag_46:\n      mload(0x40)\n      tag_49\n      swap2\n      swap1\n      tag_33\n      jump\t// in\n    tag_49:\n      mload(0x40)\n      dup1\n      swap2\n      sub\n      swap1\n      return\n        /* \"@chainlink/contracts/src/v0.8/shared/access/ConfirmedOwnerWithProposal.sol\":1026:1342  function acceptOwnership() external override {... */\n    tag_8:\n      callvalue\n      dup1\n      iszero\n      tag_50\n      jumpi\n      revert(0x00, 0x00)\n    tag_50:\n      pop\n      tag_51\n      tag_52\n      jump\t// in\n    tag_51:\n      stop\n        /* \"LuckyDrawVRF.sol\":7735:7818  function getTotalFee() public view returns(uint256){... */\n    tag_9:\n      callvalue\n      dup1\n      iszero\n      tag_53\n      jumpi\n      revert(0x00, 0x00)\n    tag_53:\n      pop\n      tag_54\n      tag_55\n      jump\t// in\n    tag_54:\n      mload(0x40)\n      tag_56\n      swap2\n      swap1\n      tag_33\n      jump\t// in\n    tag_56:\n      mload(0x40)\n      dup1\n      swap2\n      sub\n      swap1\n      return\n        /* \"@chainlink/contracts/src/v0.8/shared/access/ConfirmedOwnerWithProposal.sol\":1382:1463  function owner() public view override returns (address) {... */\n    tag_10:\n      callvalue\n      dup1\n      iszero\n      tag_57\n      jumpi\n      revert(0x00, 0x00)\n    tag_57:\n      pop\n      tag_58\n      tag_59\n      jump\t// in\n    tag_58:\n      mload(0x40)\n      tag_60\n      swap2\n      swap1\n      tag_61\n      jump\t// in\n    tag_60:\n      mload(0x40)\n      dup1\n      swap2\n      sub\n      swap1\n      return\n        /* \"@chainlink/contracts/src/v0.8/vrf/dev/VRFConsumerBaseV2Plus.sol\":7831:8107  function setCoordinator(address _vrfCoordinator) external override onlyOwnerOrCoordinator {... */\n    tag_11:\n      callvalue\n      dup1\n      iszero\n      tag_62\n      jumpi\n      revert(0x00, 0x00)\n    tag_62:\n      pop\n      tag_63\n      0x04\n      dup1\n      calldatasize\n      sub\n      dup2\n      add\n      swap1\n      tag_64\n      swap2\n      swap1\n      tag_65\n      jump\t// in\n    tag_64:\n      tag_66\n      jump\t// in\n    tag_63:\n      stop\n        /* \"@chainlink/contracts/src/v0.8/vrf/dev/VRFConsumerBaseV2Plus.sol\":6077:6122  IVRFCoordinatorV2Plus public s_vrfCoordinator */\n    tag_12:\n      callvalue\n      dup1\n      iszero\n      tag_67\n      jumpi\n      revert(0x00, 0x00)\n    tag_67:\n      pop\n      tag_68\n      tag_69\n      jump\t// in\n    tag_68:\n      mload(0x40)\n      tag_70\n      swap2\n      swap1\n      tag_71\n      jump\t// in\n    tag_70:\n      mload(0x40)\n      dup1\n      swap2\n      sub\n      swap1\n      return\n        /* \"LuckyDrawVRF.sol\":3339:4087  function joinLucky(uint256 id) public payable{... */\n    tag_13:\n      tag_72\n      0x04\n      dup1\n      calldatasize\n      sub\n      dup2\n      add\n      swap1\n      tag_73\n      swap2\n      swap1\n      tag_37\n      jump\t// in\n    tag_73:\n      tag_74\n      jump\t// in\n    tag_72:\n      stop\n        /* \"LuckyDrawVRF.sol\":350:392  uint256 public constant ONE = 10**DECIMALS */\n    tag_14:\n      callvalue\n      dup1\n      iszero\n      tag_75\n      jumpi\n      revert(0x00, 0x00)\n    tag_75:\n      pop\n      tag_76\n      tag_77\n      jump\t// in\n    tag_76:\n      mload(0x40)\n      tag_78\n      swap2\n      swap1\n      tag_33\n      jump\t// in\n    tag_78:\n      mload(0x40)\n      dup1\n      swap2\n      sub\n      swap1\n      return\n        /* \"LuckyDrawVRF.sol\":762:786  uint256 public currentId */\n    tag_15:\n      callvalue\n      dup1\n      iszero\n      tag_79\n      jumpi\n      revert(0x00, 0x00)\n    tag_79:\n      pop\n      tag_80\n      tag_81\n      jump\t// in\n    tag_80:\n      mload(0x40)\n      tag_82\n      swap2\n      swap1\n      tag_33\n      jump\t// in\n    tag_82:\n      mload(0x40)\n      dup1\n      swap2\n      sub\n      swap1\n      return\n        /* \"LuckyDrawVRF.sol\":7520:7729  function getLuckyJoinBalance(uint256 luckyId,address user) public view returns(uint256 amount){... */\n    tag_16:\n      callvalue\n      dup1\n      iszero\n      tag_83\n      jumpi\n      revert(0x00, 0x00)\n    tag_83:\n      pop\n      tag_84\n      0x04\n      dup1\n      calldatasize\n      sub\n      dup2\n      add\n      swap1\n      tag_85\n      swap2\n      swap1\n      tag_86\n      jump\t// in\n    tag_85:\n      tag_87\n      jump\t// in\n    tag_84:\n      mload(0x40)\n      tag_88\n      swap2\n      swap1\n      tag_33\n      jump\t// in\n    tag_88:\n      mload(0x40)\n      dup1\n      swap2\n      sub\n      swap1\n      return\n        /* \"@chainlink/contracts/src/v0.8/shared/access/ConfirmedOwnerWithProposal.sol\":847:945  function transferOwnership(address to) public override onlyOwner {... */\n    tag_17:\n      callvalue\n      dup1\n      iszero\n      tag_89\n      jumpi\n      revert(0x00, 0x00)\n    tag_89:\n      pop\n      tag_90\n      0x04\n      dup1\n      calldatasize\n      sub\n      dup2\n      add\n      swap1\n      tag_91\n      swap2\n      swap1\n      tag_65\n      jump\t// in\n    tag_91:\n      tag_92\n      jump\t// in\n    tag_90:\n      stop\n        /* \"LuckyDrawVRF.sol\":2578:3314  function createLucky(uint256 _startTime,uint256 _endTime,uint256 _conditionPrice) public payable returns(uint256) {... */\n    tag_18:\n      tag_93\n      0x04\n      dup1\n      calldatasize\n      sub\n      dup2\n      add\n      swap1\n      tag_94\n      swap2\n      swap1\n      tag_95\n      jump\t// in\n    tag_94:\n      tag_96\n      jump\t// in\n    tag_93:\n      mload(0x40)\n      tag_97\n      swap2\n      swap1\n      tag_33\n      jump\t// in\n    tag_97:\n      mload(0x40)\n      dup1\n      swap2\n      sub\n      swap1\n      return\n        /* \"LuckyDrawVRF.sol\":7836:8094  function withDraw() public payable onlyOwner{... */\n    tag_23:\n        /* \"@chainlink/contracts/src/v0.8/shared/access/ConfirmedOwnerWithProposal.sol\":2075:2095  _validateOwnership() */\n      tag_99\n        /* \"@chainlink/contracts/src/v0.8/shared/access/ConfirmedOwnerWithProposal.sol\":2075:2093  _validateOwnership */\n      tag_100\n        /* \"@chainlink/contracts/src/v0.8/shared/access/ConfirmedOwnerWithProposal.sol\":2075:2095  _validateOwnership() */\n      jump\t// in\n    tag_99:\n        /* \"LuckyDrawVRF.sol\":7907:7908  0 */\n      0x00\n        /* \"LuckyDrawVRF.sol\":7898:7906  totalFee */\n      sload(0x0c)\n        /* \"LuckyDrawVRF.sol\":7898:7908  totalFee>0 */\n      gt\n        /* \"LuckyDrawVRF.sol\":7890:7923  require(totalFee>0,\"no full fee\") */\n      tag_102\n      jumpi\n      mload(0x40)\n      0x08c379a000000000000000000000000000000000000000000000000000000000\n      dup2\n      mstore\n      0x04\n      add\n      tag_103\n      swap1\n      tag_104\n      jump\t// in\n    tag_103:\n      mload(0x40)\n      dup1\n      swap2\n      sub\n      swap1\n      revert\n    tag_102:\n        /* \"LuckyDrawVRF.sol\":7933:7945  uint256 temp */\n      0x00\n        /* \"LuckyDrawVRF.sol\":7948:7956  totalFee */\n      sload(0x0c)\n        /* \"LuckyDrawVRF.sol\":7933:7956  uint256 temp = totalFee */\n      swap1\n      pop\n        /* \"LuckyDrawVRF.sol\":7975:7976  0 */\n      0x00\n        /* \"LuckyDrawVRF.sol\":7966:7974  totalFee */\n      0x0c\n        /* \"LuckyDrawVRF.sol\":7966:7976  totalFee=0 */\n      dup2\n      swap1\n      sstore\n      pop\n        /* \"LuckyDrawVRF.sol\":7994:8007  contractOwner */\n      0x0d\n      0x00\n      swap1\n      sload\n      swap1\n      0x0100\n      exp\n      swap1\n      div\n      0xffffffffffffffffffffffffffffffffffffffff\n      and\n        /* \"LuckyDrawVRF.sol\":7986:8017  payable(contractOwner).transfer */\n      0xffffffffffffffffffffffffffffffffffffffff\n      and\n        /* \"LuckyDrawVRF.sol\":7986:8023  payable(contractOwner).transfer(temp) */\n      0x08fc\n        /* \"LuckyDrawVRF.sol\":8018:8022  temp */\n      dup3\n        /* \"LuckyDrawVRF.sol\":7986:8023  payable(contractOwner).transfer(temp) */\n      swap1\n      dup2\n      iszero\n      mul\n      swap1\n      mload(0x40)\n      0x00\n      mload(0x40)\n      dup1\n      dup4\n      sub\n      dup2\n      dup6\n      dup9\n      dup9\n      call\n      swap4\n      pop\n      pop\n      pop\n      pop\n      iszero\n      dup1\n      iszero\n      tag_106\n      jumpi\n      returndatacopy(0x00, 0x00, returndatasize)\n      revert(0x00, returndatasize)\n    tag_106:\n      pop\n        /* \"LuckyDrawVRF.sol\":8038:8087  EventDrawSuccess(msg.sender,temp,block.timestamp) */\n      0x9e48992309be40ee6b621aa79b40adfc808eb591f3a3d551650cef9e516aeb0e\n        /* \"LuckyDrawVRF.sol\":8055:8065  msg.sender */\n      caller\n        /* \"LuckyDrawVRF.sol\":8066:8070  temp */\n      dup3\n        /* \"LuckyDrawVRF.sol\":8071:8086  block.timestamp */\n      timestamp\n        /* \"LuckyDrawVRF.sol\":8038:8087  EventDrawSuccess(msg.sender,temp,block.timestamp) */\n      mload(0x40)\n      tag_107\n      swap4\n      swap3\n      swap2\n      swap1\n      tag_108\n      jump\t// in\n    tag_107:\n      mload(0x40)\n      dup1\n      swap2\n      sub\n      swap1\n      log1\n        /* \"LuckyDrawVRF.sol\":7880:8094  {... */\n      pop\n        /* \"LuckyDrawVRF.sol\":7836:8094  function withDraw() public payable onlyOwner{... */\n      jump\t// out\n        /* \"@chainlink/contracts/src/v0.8/vrf/dev/VRFConsumerBaseV2Plus.sol\":7489:7769  function rawFulfillRandomWords(uint256 requestId, uint256[] calldata randomWords) external {... */\n    tag_28:\n        /* \"@chainlink/contracts/src/v0.8/vrf/dev/VRFConsumerBaseV2Plus.sol\":7612:7628  s_vrfCoordinator */\n      0x02\n      0x00\n      swap1\n      sload\n      swap1\n      0x0100\n      exp\n      swap1\n      div\n      0xffffffffffffffffffffffffffffffffffffffff\n      and\n        /* \"@chainlink/contracts/src/v0.8/vrf/dev/VRFConsumerBaseV2Plus.sol\":7590:7629  msg.sender != address(s_vrfCoordinator) */\n      0xffffffffffffffffffffffffffffffffffffffff\n      and\n        /* \"@chainlink/contracts/src/v0.8/vrf/dev/VRFConsumerBaseV2Plus.sol\":7590:7600  msg.sender */\n      caller\n        /* \"@chainlink/contracts/src/v0.8/vrf/dev/VRFConsumerBaseV2Plus.sol\":7590:7629  msg.sender != address(s_vrfCoordinator) */\n      0xffffffffffffffffffffffffffffffffffffffff\n      and\n      eq\n        /* \"@chainlink/contracts/src/v0.8/vrf/dev/VRFConsumerBaseV2Plus.sol\":7586:7717  if (msg.sender != address(s_vrfCoordinator)) {... */\n      tag_110\n      jumpi\n        /* \"@chainlink/contracts/src/v0.8/vrf/dev/VRFConsumerBaseV2Plus.sol\":7672:7682  msg.sender */\n      caller\n        /* \"@chainlink/contracts/src/v0.8/vrf/dev/VRFConsumerBaseV2Plus.sol\":7692:7708  s_vrfCoordinator */\n      0x02\n      0x00\n      swap1\n      sload\n      swap1\n      0x0100\n      exp\n      swap1\n      div\n      0xffffffffffffffffffffffffffffffffffffffff\n      and\n        /* \"@chainlink/contracts/src/v0.8/vrf/dev/VRFConsumerBaseV2Plus.sol\":7646:7710  OnlyCoordinatorCanFulfill(msg.sender, address(s_vrfCoordinator)) */\n      mload(0x40)\n      0x1cf993f400000000000000000000000000000000000000000000000000000000\n      dup2\n      mstore\n      0x04\n      add\n      tag_111\n      swap3\n      swap2\n      swap1\n      tag_112\n      jump\t// in\n    tag_111:\n      mload(0x40)\n      dup1\n      swap2\n      sub\n      swap1\n      revert\n        /* \"@chainlink/contracts/src/v0.8/vrf/dev/VRFConsumerBaseV2Plus.sol\":7586:7717  if (msg.sender != address(s_vrfCoordinator)) {... */\n    tag_110:\n        /* \"@chainlink/contracts/src/v0.8/vrf/dev/VRFConsumerBaseV2Plus.sol\":7722:7764  fulfillRandomWords(requestId, randomWords) */\n      tag_113\n        /* \"@chainlink/contracts/src/v0.8/vrf/dev/VRFConsumerBaseV2Plus.sol\":7741:7750  requestId */\n      dup4\n        /* \"@chainlink/contracts/src/v0.8/vrf/dev/VRFConsumerBaseV2Plus.sol\":7752:7763  randomWords */\n      dup4\n      dup4\n        /* \"@chainlink/contracts/src/v0.8/vrf/dev/VRFConsumerBaseV2Plus.sol\":7722:7740  fulfillRandomWords */\n      tag_114\n        /* \"@chainlink/contracts/src/v0.8/vrf/dev/VRFConsumerBaseV2Plus.sol\":7722:7764  fulfillRandomWords(requestId, randomWords) */\n      jump\t// in\n    tag_113:\n        /* \"@chainlink/contracts/src/v0.8/vrf/dev/VRFConsumerBaseV2Plus.sol\":7489:7769  function rawFulfillRandomWords(uint256 requestId, uint256[] calldata randomWords) external {... */\n      pop\n      pop\n      pop\n      jump\t// out\n        /* \"LuckyDrawVRF.sol\":307:344  uint256 public constant DECIMALS = 18 */\n    tag_31:\n        /* \"LuckyDrawVRF.sol\":342:344  18 */\n      0x12\n        /* \"LuckyDrawVRF.sol\":307:344  uint256 public constant DECIMALS = 18 */\n      dup2\n      jump\t// out\n        /* \"LuckyDrawVRF.sol\":7036:7463  function getOneLuckyInfo(uint256 luckyId) public view returns(... */\n    tag_38:\n        /* \"LuckyDrawVRF.sol\":7107:7124  uint256 startTime */\n      0x00\n        /* \"LuckyDrawVRF.sol\":7134:7149  uint256 endTime */\n      0x00\n        /* \"LuckyDrawVRF.sol\":7159:7178  uint256 totalReward */\n      0x00\n        /* \"LuckyDrawVRF.sol\":7188:7201  address owner */\n      0x00\n        /* \"LuckyDrawVRF.sol\":7211:7225  address winner */\n      0x00\n        /* \"LuckyDrawVRF.sol\":7235:7248  uint256 price */\n      0x00\n        /* \"LuckyDrawVRF.sol\":7258:7267  bool open */\n      0x00\n        /* \"LuckyDrawVRF.sol\":7277:7292  uint256 joinNum */\n      0x00\n        /* \"LuckyDrawVRF.sol\":7309:7324  Join storage jj */\n      0x00\n        /* \"LuckyDrawVRF.sol\":7325:7332  records */\n      0x08\n        /* \"LuckyDrawVRF.sol\":7325:7341  records[luckyId] */\n      0x00\n        /* \"LuckyDrawVRF.sol\":7333:7340  luckyId */\n      dup12\n        /* \"LuckyDrawVRF.sol\":7325:7341  records[luckyId] */\n      dup2\n      mstore\n      0x20\n      add\n      swap1\n      dup2\n      mstore\n      0x20\n      add\n      0x00\n      keccak256\n        /* \"LuckyDrawVRF.sol\":7309:7341  Join storage jj=records[luckyId] */\n      swap1\n      pop\n        /* \"LuckyDrawVRF.sol\":7359:7361  jj */\n      dup1\n        /* \"LuckyDrawVRF.sol\":7359:7371  jj.startTime */\n      0x00\n      add\n      sload\n        /* \"LuckyDrawVRF.sol\":7372:7374  jj */\n      dup2\n        /* \"LuckyDrawVRF.sol\":7372:7382  jj.endTime */\n      0x01\n      add\n      sload\n        /* \"LuckyDrawVRF.sol\":7383:7385  jj */\n      dup3\n        /* \"LuckyDrawVRF.sol\":7383:7397  jj.totalReward */\n      0x02\n      add\n      sload\n        /* \"LuckyDrawVRF.sol\":7398:7400  jj */\n      dup4\n        /* \"LuckyDrawVRF.sol\":7398:7406  jj.owner */\n      0x03\n      add\n      0x00\n      swap1\n      sload\n      swap1\n      0x0100\n      exp\n      swap1\n      div\n      0xffffffffffffffffffffffffffffffffffffffff\n      and\n        /* \"LuckyDrawVRF.sol\":7407:7409  jj */\n      dup5\n        /* \"LuckyDrawVRF.sol\":7407:7416  jj.winner */\n      0x04\n      add\n      0x00\n      swap1\n      sload\n      swap1\n      0x0100\n      exp\n      swap1\n      div\n      0xffffffffffffffffffffffffffffffffffffffff\n      and\n        /* \"LuckyDrawVRF.sol\":7417:7419  jj */\n      dup6\n        /* \"LuckyDrawVRF.sol\":7417:7425  jj.price */\n      0x05\n      add\n      sload\n        /* \"LuckyDrawVRF.sol\":7426:7428  jj */\n      dup7\n        /* \"LuckyDrawVRF.sol\":7426:7433  jj.open */\n      0x06\n      add\n      0x00\n      swap1\n      sload\n      swap1\n      0x0100\n      exp\n      swap1\n      div\n      0xff\n      and\n        /* \"LuckyDrawVRF.sol\":7434:7436  jj */\n      dup8\n        /* \"LuckyDrawVRF.sol\":7434:7448  jj.joinAddress */\n      0x08\n      add\n        /* \"LuckyDrawVRF.sol\":7434:7455  jj.joinAddress.length */\n      dup1\n      sload\n      swap1\n      pop\n        /* \"LuckyDrawVRF.sol\":7351:7456  return (jj.startTime,jj.endTime,jj.totalReward,jj.owner,jj.winner,jj.price,jj.open,jj.joinAddress.length) */\n      swap9\n      pop\n      swap9\n      pop\n      swap9\n      pop\n      swap9\n      pop\n      swap9\n      pop\n      swap9\n      pop\n      swap9\n      pop\n      swap9\n      pop\n      pop\n        /* \"LuckyDrawVRF.sol\":7036:7463  function getOneLuckyInfo(uint256 luckyId) public view returns(... */\n      swap2\n      swap4\n      swap6\n      swap8\n      pop\n      swap2\n      swap4\n      swap6\n      swap8\n      jump\t// out\n        /* \"LuckyDrawVRF.sol\":4132:5832  function drawWinner(uint256 id) public {... */\n    tag_44:\n        /* \"LuckyDrawVRF.sol\":4193:4194  0 */\n      0x00\n        /* \"LuckyDrawVRF.sol\":4189:4191  id */\n      dup2\n        /* \"LuckyDrawVRF.sol\":4189:4194  id >0 */\n      gt\n        /* \"LuckyDrawVRF.sol\":4181:4217  require(id >0,\"please input drawId\") */\n      tag_117\n      jumpi\n      mload(0x40)\n      0x08c379a000000000000000000000000000000000000000000000000000000000\n      dup2\n      mstore\n      0x04\n      add\n      tag_118\n      swap1\n      tag_119\n      jump\t// in\n    tag_118:\n      mload(0x40)\n      dup1\n      swap2\n      sub\n      swap1\n      revert\n    tag_117:\n        /* \"LuckyDrawVRF.sol\":4250:4251  0 */\n      0x00\n        /* \"LuckyDrawVRF.sol\":4235:4248  hasProcessing */\n      0x0a\n      0x00\n      swap1\n      sload\n      swap1\n      0x0100\n      exp\n      swap1\n      div\n      0xff\n      and\n        /* \"LuckyDrawVRF.sol\":4235:4251  hasProcessing<=0 */\n      0xff\n      and\n      gt\n      iszero\n        /* \"LuckyDrawVRF.sol\":4227:4284  require(hasProcessing<=0, \"current has processingg draw\") */\n      tag_120\n      jumpi\n      mload(0x40)\n      0x08c379a000000000000000000000000000000000000000000000000000000000\n      dup2\n      mstore\n      0x04\n      add\n      tag_121\n      swap1\n      tag_122\n      jump\t// in\n    tag_121:\n      mload(0x40)\n      dup1\n      swap2\n      sub\n      swap1\n      revert\n    tag_120:\n        /* \"LuckyDrawVRF.sol\":4318:4325  records */\n      0x08\n        /* \"LuckyDrawVRF.sol\":4318:4329  records[id] */\n      0x00\n        /* \"LuckyDrawVRF.sol\":4326:4328  id */\n      dup3\n        /* \"LuckyDrawVRF.sol\":4318:4329  records[id] */\n      dup2\n      mstore\n      0x20\n      add\n      swap1\n      dup2\n      mstore\n      0x20\n      add\n      0x00\n      keccak256\n        /* \"LuckyDrawVRF.sol\":4318:4339  records[id].startTime */\n      0x00\n      add\n      sload\n        /* \"LuckyDrawVRF.sol\":4302:4317  block.timestamp */\n      timestamp\n        /* \"LuckyDrawVRF.sol\":4302:4339  block.timestamp>records[id].startTime */\n      gt\n        /* \"LuckyDrawVRF.sol\":4294:4367  require(block.timestamp>records[id].startTime,\"current task hasnt start\") */\n      tag_123\n      jumpi\n      mload(0x40)\n      0x08c379a000000000000000000000000000000000000000000000000000000000\n      dup2\n      mstore\n      0x04\n      add\n      tag_124\n      swap1\n      tag_125\n      jump\t// in\n    tag_124:\n      mload(0x40)\n      dup1\n      swap2\n      sub\n      swap1\n      revert\n    tag_123:\n        /* \"LuckyDrawVRF.sol\":4403:4407  true */\n      0x01\n        /* \"LuckyDrawVRF.sol\":4385:4407  records[id].open==true */\n      iszero\n      iszero\n        /* \"LuckyDrawVRF.sol\":4385:4392  records */\n      0x08\n        /* \"LuckyDrawVRF.sol\":4385:4396  records[id] */\n      0x00\n        /* \"LuckyDrawVRF.sol\":4393:4395  id */\n      dup4\n        /* \"LuckyDrawVRF.sol\":4385:4396  records[id] */\n      dup2\n      mstore\n      0x20\n      add\n      swap1\n      dup2\n      mstore\n      0x20\n      add\n      0x00\n      keccak256\n        /* \"LuckyDrawVRF.sol\":4385:4401  records[id].open */\n      0x06\n      add\n      0x00\n      swap1\n      sload\n      swap1\n      0x0100\n      exp\n      swap1\n      div\n      0xff\n      and\n        /* \"LuckyDrawVRF.sol\":4385:4407  records[id].open==true */\n      iszero\n      iszero\n      eq\n        /* \"LuckyDrawVRF.sol\":4377:4432  require(records[id].open==true,\"current task has done\") */\n      tag_126\n      jumpi\n      mload(0x40)\n      0x08c379a000000000000000000000000000000000000000000000000000000000\n      dup2\n      mstore\n      0x04\n      add\n      tag_127\n      swap1\n      tag_128\n      jump\t// in\n    tag_127:\n      mload(0x40)\n      dup1\n      swap2\n      sub\n      swap1\n      revert\n    tag_126:\n        /* \"LuckyDrawVRF.sol\":4471:4481  msg.sender */\n      caller\n        /* \"LuckyDrawVRF.sol\":4450:4481  records[id].owner == msg.sender */\n      0xffffffffffffffffffffffffffffffffffffffff\n      and\n        /* \"LuckyDrawVRF.sol\":4450:4457  records */\n      0x08\n        /* \"LuckyDrawVRF.sol\":4450:4461  records[id] */\n      0x00\n        /* \"LuckyDrawVRF.sol\":4458:4460  id */\n      dup4\n        /* \"LuckyDrawVRF.sol\":4450:4461  records[id] */\n      dup2\n      mstore\n      0x20\n      add\n      swap1\n      dup2\n      mstore\n      0x20\n      add\n      0x00\n      keccak256\n        /* \"LuckyDrawVRF.sol\":4450:4467  records[id].owner */\n      0x03\n      add\n      0x00\n      swap1\n      sload\n      swap1\n      0x0100\n      exp\n      swap1\n      div\n      0xffffffffffffffffffffffffffffffffffffffff\n      and\n        /* \"LuckyDrawVRF.sol\":4450:4481  records[id].owner == msg.sender */\n      0xffffffffffffffffffffffffffffffffffffffff\n      and\n      eq\n        /* \"LuckyDrawVRF.sol\":4442:4507  require(records[id].owner == msg.sender ,\"you are no permission\") */\n      tag_129\n      jumpi\n      mload(0x40)\n      0x08c379a000000000000000000000000000000000000000000000000000000000\n      dup2\n      mstore\n      0x04\n      add\n      tag_130\n      swap1\n      tag_131\n      jump\t// in\n    tag_130:\n      mload(0x40)\n      dup1\n      swap2\n      sub\n      swap1\n      revert\n    tag_129:\n        /* \"LuckyDrawVRF.sol\":4556:4557  0 */\n      0x00\n        /* \"LuckyDrawVRF.sol\":4525:4532  records */\n      0x08\n        /* \"LuckyDrawVRF.sol\":4525:4536  records[id] */\n      0x00\n        /* \"LuckyDrawVRF.sol\":4533:4535  id */\n      dup4\n        /* \"LuckyDrawVRF.sol\":4525:4536  records[id] */\n      dup2\n      mstore\n      0x20\n      add\n      swap1\n      dup2\n      mstore\n      0x20\n      add\n      0x00\n      keccak256\n        /* \"LuckyDrawVRF.sol\":4525:4548  records[id].joinAddress */\n      0x08\n      add\n        /* \"LuckyDrawVRF.sol\":4525:4555  records[id].joinAddress.length */\n      dup1\n      sload\n      swap1\n      pop\n        /* \"LuckyDrawVRF.sol\":4525:4557  records[id].joinAddress.length>0 */\n      gt\n        /* \"LuckyDrawVRF.sol\":4517:4580  require(records[id].joinAddress.length>0,\"no join the persion\") */\n      tag_132\n      jumpi\n      mload(0x40)\n      0x08c379a000000000000000000000000000000000000000000000000000000000\n      dup2\n      mstore\n      0x04\n      add\n      tag_133\n      swap1\n      tag_134\n      jump\t// in\n    tag_133:\n      mload(0x40)\n      dup1\n      swap2\n      sub\n      swap1\n      revert\n    tag_132:\n        /* \"LuckyDrawVRF.sol\":4604:4605  1 */\n      0x01\n        /* \"LuckyDrawVRF.sol\":4590:4603  hasProcessing */\n      0x0a\n      0x00\n        /* \"LuckyDrawVRF.sol\":4590:4605  hasProcessing=1 */\n      0x0100\n      exp\n      dup2\n      sload\n      dup2\n      0xff\n      mul\n      not\n      and\n      swap1\n      dup4\n      0xff\n      and\n      mul\n      or\n      swap1\n      sstore\n      pop\n        /* \"LuckyDrawVRF.sol\":4733:4734  1 */\n      0x01\n        /* \"LuckyDrawVRF.sol\":4701:4708  records */\n      0x08\n        /* \"LuckyDrawVRF.sol\":4701:4712  records[id] */\n      0x00\n        /* \"LuckyDrawVRF.sol\":4709:4711  id */\n      dup4\n        /* \"LuckyDrawVRF.sol\":4701:4712  records[id] */\n      dup2\n      mstore\n      0x20\n      add\n      swap1\n      dup2\n      mstore\n      0x20\n      add\n      0x00\n      keccak256\n        /* \"LuckyDrawVRF.sol\":4701:4724  records[id].joinAddress */\n      0x08\n      add\n        /* \"LuckyDrawVRF.sol\":4701:4731  records[id].joinAddress.length */\n      dup1\n      sload\n      swap1\n      pop\n        /* \"LuckyDrawVRF.sol\":4701:4734  records[id].joinAddress.length==1 */\n      sub\n        /* \"LuckyDrawVRF.sol\":4698:5826  if(records[id].joinAddress.length==1){... */\n      tag_135\n      jumpi\n        /* \"LuckyDrawVRF.sol\":4750:4762  bool success */\n      0x00\n        /* \"LuckyDrawVRF.sol\":4767:4774  records */\n      0x08\n        /* \"LuckyDrawVRF.sol\":4767:4778  records[id] */\n      0x00\n        /* \"LuckyDrawVRF.sol\":4775:4777  id */\n      dup4\n        /* \"LuckyDrawVRF.sol\":4767:4778  records[id] */\n      dup2\n      mstore\n      0x20\n      add\n      swap1\n      dup2\n      mstore\n      0x20\n      add\n      0x00\n      keccak256\n        /* \"LuckyDrawVRF.sol\":4767:4784  records[id].owner */\n      0x03\n      add\n      0x00\n      swap1\n      sload\n      swap1\n      0x0100\n      exp\n      swap1\n      div\n      0xffffffffffffffffffffffffffffffffffffffff\n      and\n        /* \"LuckyDrawVRF.sol\":4767:4789  records[id].owner.call */\n      0xffffffffffffffffffffffffffffffffffffffff\n      and\n        /* \"LuckyDrawVRF.sol\":4796:4803  records */\n      0x08\n        /* \"LuckyDrawVRF.sol\":4796:4807  records[id] */\n      0x00\n        /* \"LuckyDrawVRF.sol\":4804:4806  id */\n      dup5\n        /* \"LuckyDrawVRF.sol\":4796:4807  records[id] */\n      dup2\n      mstore\n      0x20\n      add\n      swap1\n      dup2\n      mstore\n      0x20\n      add\n      0x00\n      keccak256\n        /* \"LuckyDrawVRF.sol\":4796:4819  records[id].totalReward */\n      0x02\n      add\n      sload\n        /* \"LuckyDrawVRF.sol\":4767:4824  records[id].owner.call{value:records[id].totalReward}(\"\") */\n      mload(0x40)\n      tag_136\n      swap1\n      tag_137\n      jump\t// in\n    tag_136:\n      0x00\n      mload(0x40)\n      dup1\n      dup4\n      sub\n      dup2\n      dup6\n      dup8\n      gas\n      call\n      swap3\n      pop\n      pop\n      pop\n      returndatasize\n      dup1\n      0x00\n      dup2\n      eq\n      tag_140\n      jumpi\n      mload(0x40)\n      swap2\n      pop\n      and(add(returndatasize, 0x3f), not(0x1f))\n      dup3\n      add\n      0x40\n      mstore\n      returndatasize\n      dup3\n      mstore\n      returndatasize\n      0x00\n      0x20\n      dup5\n      add\n      returndatacopy\n      jump(tag_139)\n    tag_140:\n      0x60\n      swap2\n      pop\n    tag_139:\n      pop\n        /* \"LuckyDrawVRF.sol\":4749:4824  (bool success, ) =records[id].owner.call{value:records[id].totalReward}(\"\") */\n      pop\n      swap1\n      pop\n        /* \"LuckyDrawVRF.sol\":4846:4853  success */\n      dup1\n        /* \"LuckyDrawVRF.sol\":4838:4873  require(success, \"Transfer failed\") */\n      tag_141\n      jumpi\n      mload(0x40)\n      0x08c379a000000000000000000000000000000000000000000000000000000000\n      dup2\n      mstore\n      0x04\n      add\n      tag_142\n      swap1\n      tag_143\n      jump\t// in\n    tag_142:\n      mload(0x40)\n      dup1\n      swap2\n      sub\n      swap1\n      revert\n    tag_141:\n        /* \"LuckyDrawVRF.sol\":4904:4909  false */\n      0x00\n        /* \"LuckyDrawVRF.sol\":4887:4894  records */\n      0x08\n        /* \"LuckyDrawVRF.sol\":4887:4898  records[id] */\n      0x00\n        /* \"LuckyDrawVRF.sol\":4895:4897  id */\n      dup5\n        /* \"LuckyDrawVRF.sol\":4887:4898  records[id] */\n      dup2\n      mstore\n      0x20\n      add\n      swap1\n      dup2\n      mstore\n      0x20\n      add\n      0x00\n      keccak256\n        /* \"LuckyDrawVRF.sol\":4887:4903  records[id].open */\n      0x06\n      add\n      0x00\n        /* \"LuckyDrawVRF.sol\":4887:4909  records[id].open=false */\n      0x0100\n      exp\n      dup2\n      sload\n      dup2\n      0xff\n      mul\n      not\n      and\n      swap1\n      dup4\n      iszero\n      iszero\n      mul\n      or\n      swap1\n      sstore\n      pop\n        /* \"LuckyDrawVRF.sol\":4942:4952  msg.sender */\n      caller\n        /* \"LuckyDrawVRF.sol\":4923:4930  records */\n      0x08\n        /* \"LuckyDrawVRF.sol\":4923:4934  records[id] */\n      0x00\n        /* \"LuckyDrawVRF.sol\":4931:4933  id */\n      dup5\n        /* \"LuckyDrawVRF.sol\":4923:4934  records[id] */\n      dup2\n      mstore\n      0x20\n      add\n      swap1\n      dup2\n      mstore\n      0x20\n      add\n      0x00\n      keccak256\n        /* \"LuckyDrawVRF.sol\":4923:4941  records[id].winner */\n      0x04\n      add\n      0x00\n        /* \"LuckyDrawVRF.sol\":4923:4952  records[id].winner=msg.sender */\n      0x0100\n      exp\n      dup2\n      sload\n      dup2\n      0xffffffffffffffffffffffffffffffffffffffff\n      mul\n      not\n      and\n      swap1\n      dup4\n      0xffffffffffffffffffffffffffffffffffffffff\n      and\n      mul\n      or\n      swap1\n      sstore\n      pop\n        /* \"LuckyDrawVRF.sol\":4980:4981  0 */\n      0x00\n        /* \"LuckyDrawVRF.sol\":4966:4979  hasProcessing */\n      0x0a\n      0x00\n        /* \"LuckyDrawVRF.sol\":4966:4981  hasProcessing=0 */\n      0x0100\n      exp\n      dup2\n      sload\n      dup2\n      0xff\n      mul\n      not\n      and\n      swap1\n      dup4\n      0xff\n      and\n      mul\n      or\n      swap1\n      sstore\n      pop\n        /* \"LuckyDrawVRF.sol\":5021:5079  EventDrawWinnerSuccess(msg.sender, id, 0, block.timestamp) */\n      0x4938abb0a1220e7b4a0dd8b149717aba799cd3d2263de30c997401abfa845241\n        /* \"LuckyDrawVRF.sol\":5044:5054  msg.sender */\n      caller\n        /* \"LuckyDrawVRF.sol\":5056:5058  id */\n      dup4\n        /* \"LuckyDrawVRF.sol\":5060:5061  0 */\n      0x00\n        /* \"LuckyDrawVRF.sol\":5063:5078  block.timestamp */\n      timestamp\n        /* \"LuckyDrawVRF.sol\":5021:5079  EventDrawWinnerSuccess(msg.sender, id, 0, block.timestamp) */\n      mload(0x40)\n      tag_144\n      swap5\n      swap4\n      swap3\n      swap2\n      swap1\n      tag_145\n      jump\t// in\n    tag_144:\n      mload(0x40)\n      dup1\n      swap2\n      sub\n      swap1\n      log1\n        /* \"LuckyDrawVRF.sol\":4735:5090  {... */\n      pop\n        /* \"LuckyDrawVRF.sol\":4698:5826  if(records[id].joinAddress.length==1){... */\n      jump(tag_146)\n    tag_135:\n        /* \"LuckyDrawVRF.sol\":5109:5126  uint256 requestId */\n      0x00\n        /* \"LuckyDrawVRF.sol\":5129:5145  s_vrfCoordinator */\n      0x02\n      0x00\n      swap1\n      sload\n      swap1\n      0x0100\n      exp\n      swap1\n      div\n      0xffffffffffffffffffffffffffffffffffffffff\n      and\n        /* \"LuckyDrawVRF.sol\":5129:5164  s_vrfCoordinator.requestRandomWords */\n      0xffffffffffffffffffffffffffffffffffffffff\n      and\n      0x9b1c385e\n        /* \"LuckyDrawVRF.sol\":5186:5675  VRFV2PlusClient.RandomWordsRequest({... */\n      mload(0x40)\n      dup1\n      0xc0\n      add\n      0x40\n      mstore\n      dup1\n        /* \"LuckyDrawVRF.sol\":5256:5263  keyHash */\n      sload(0x05)\n        /* \"LuckyDrawVRF.sol\":5186:5675  VRFV2PlusClient.RandomWordsRequest({... */\n      dup2\n      mstore\n      0x20\n      add\n        /* \"LuckyDrawVRF.sol\":5296:5310  subscriptionId */\n      sload(0x03)\n        /* \"LuckyDrawVRF.sol\":5186:5675  VRFV2PlusClient.RandomWordsRequest({... */\n      dup2\n      mstore\n      0x20\n      add\n        /* \"LuckyDrawVRF.sol\":5358:5377  requestConfirmation */\n      0x06\n      0x00\n      swap1\n      sload\n      swap1\n      0x0100\n      exp\n      swap1\n      div\n      0xffff\n      and\n        /* \"LuckyDrawVRF.sol\":5186:5675  VRFV2PlusClient.RandomWordsRequest({... */\n      0xffff\n      and\n      dup2\n      mstore\n      0x20\n      add\n        /* \"LuckyDrawVRF.sol\":5421:5437  callbackGasLimit */\n      0x06\n      0x02\n      swap1\n      sload\n      swap1\n      0x0100\n      exp\n      swap1\n      div\n      0xffffffff\n      and\n        /* \"LuckyDrawVRF.sol\":5186:5675  VRFV2PlusClient.RandomWordsRequest({... */\n      0xffffffff\n      and\n      dup2\n      mstore\n      0x20\n      add\n        /* \"LuckyDrawVRF.sol\":5473:5481  numWords */\n      0x06\n      dup1\n      sload\n      swap1\n      0x0100\n      exp\n      swap1\n      div\n      0xffffffff\n      and\n        /* \"LuckyDrawVRF.sol\":5186:5675  VRFV2PlusClient.RandomWordsRequest({... */\n      0xffffffff\n      and\n      dup2\n      mstore\n      0x20\n      add\n        /* \"LuckyDrawVRF.sol\":5518:5652  VRFV2PlusClient._argsToBytes(... */\n      tag_147\n        /* \"LuckyDrawVRF.sol\":5576:5626  VRFV2PlusClient.ExtraArgsV1({nativePayment: true}) */\n      mload(0x40)\n      dup1\n      0x20\n      add\n      0x40\n      mstore\n      dup1\n        /* \"LuckyDrawVRF.sol\":5620:5624  true */\n      0x01\n        /* \"LuckyDrawVRF.sol\":5576:5626  VRFV2PlusClient.ExtraArgsV1({nativePayment: true}) */\n      iszero\n      iszero\n      dup2\n      mstore\n      pop\n        /* \"LuckyDrawVRF.sol\":5518:5546  VRFV2PlusClient._argsToBytes */\n      tag_148\n        /* \"LuckyDrawVRF.sol\":5518:5652  VRFV2PlusClient._argsToBytes(... */\n      jump\t// in\n    tag_147:\n        /* \"LuckyDrawVRF.sol\":5186:5675  VRFV2PlusClient.RandomWordsRequest({... */\n      dup2\n      mstore\n      pop\n        /* \"LuckyDrawVRF.sol\":5129:5693  s_vrfCoordinator.requestRandomWords(... */\n      mload(0x40)\n      dup3\n      0xffffffff\n      and\n      0xe0\n      shl\n      dup2\n      mstore\n      0x04\n      add\n      tag_149\n      swap2\n      swap1\n      tag_150\n      jump\t// in\n    tag_149:\n      0x20\n      mload(0x40)\n      dup1\n      dup4\n      sub\n      dup2\n      0x00\n      dup8\n      gas\n      call\n      iszero\n      dup1\n      iszero\n      tag_152\n      jumpi\n      returndatacopy(0x00, 0x00, returndatasize)\n      revert(0x00, returndatasize)\n    tag_152:\n      pop\n      pop\n      pop\n      pop\n      mload(0x40)\n      returndatasize\n      not(0x1f)\n      0x1f\n      dup3\n      add\n      and\n      dup3\n      add\n      dup1\n      0x40\n      mstore\n      pop\n      dup2\n      add\n      swap1\n      tag_153\n      swap2\n      swap1\n      tag_154\n      jump\t// in\n    tag_153:\n        /* \"LuckyDrawVRF.sol\":5109:5693  uint256 requestId = s_vrfCoordinator.requestRandomWords(... */\n      swap1\n      pop\n        /* \"LuckyDrawVRF.sol\":5736:5738  id */\n      dup2\n        /* \"LuckyDrawVRF.sol\":5707:5724  requestidToJoinId */\n      0x09\n        /* \"LuckyDrawVRF.sol\":5707:5735  requestidToJoinId[requestId] */\n      0x00\n        /* \"LuckyDrawVRF.sol\":5725:5734  requestId */\n      dup4\n        /* \"LuckyDrawVRF.sol\":5707:5735  requestidToJoinId[requestId] */\n      dup2\n      mstore\n      0x20\n      add\n      swap1\n      dup2\n      mstore\n      0x20\n      add\n      0x00\n      keccak256\n        /* \"LuckyDrawVRF.sol\":5707:5738  requestidToJoinId[requestId]=id */\n      dup2\n      swap1\n      sstore\n      pop\n        /* \"LuckyDrawVRF.sol\":5757:5815  EventDrawStart(msg.sender, id, requestId, block.timestamp) */\n      0xa553713effcfd3f3db01a02af9aa2f33afbc3f587a0594e927a1d58ac8a92b52\n        /* \"LuckyDrawVRF.sol\":5772:5782  msg.sender */\n      caller\n        /* \"LuckyDrawVRF.sol\":5784:5786  id */\n      dup4\n        /* \"LuckyDrawVRF.sol\":5788:5797  requestId */\n      dup4\n        /* \"LuckyDrawVRF.sol\":5799:5814  block.timestamp */\n      timestamp\n        /* \"LuckyDrawVRF.sol\":5757:5815  EventDrawStart(msg.sender, id, requestId, block.timestamp) */\n      mload(0x40)\n      tag_155\n      swap5\n      swap4\n      swap3\n      swap2\n      swap1\n      tag_156\n      jump\t// in\n    tag_155:\n      mload(0x40)\n      dup1\n      swap2\n      sub\n      swap1\n      log1\n        /* \"LuckyDrawVRF.sol\":5095:5826  {... */\n      pop\n        /* \"LuckyDrawVRF.sol\":4698:5826  if(records[id].joinAddress.length==1){... */\n    tag_146:\n        /* \"LuckyDrawVRF.sol\":4132:5832  function drawWinner(uint256 id) public {... */\n      pop\n      jump\t// out\n        /* \"LuckyDrawVRF.sol\":912:962  mapping(uint256=>uint256) public requestidToJoinId */\n    tag_48:\n      mstore(0x20, 0x09)\n      dup1\n      0x00\n      mstore\n      keccak256(0x00, 0x40)\n      0x00\n      swap2\n      pop\n      swap1\n      pop\n      sload\n      dup2\n      jump\t// out\n        /* \"@chainlink/contracts/src/v0.8/shared/access/ConfirmedOwnerWithProposal.sol\":1026:1342  function acceptOwnership() external override {... */\n    tag_52:\n        /* \"@chainlink/contracts/src/v0.8/shared/access/ConfirmedOwnerWithProposal.sol\":1150:1164  s_pendingOwner */\n      0x01\n      0x00\n      swap1\n      sload\n      swap1\n      0x0100\n      exp\n      swap1\n      div\n      0xffffffffffffffffffffffffffffffffffffffff\n      and\n        /* \"@chainlink/contracts/src/v0.8/shared/access/ConfirmedOwnerWithProposal.sol\":1136:1164  msg.sender == s_pendingOwner */\n      0xffffffffffffffffffffffffffffffffffffffff\n      and\n        /* \"@chainlink/contracts/src/v0.8/shared/access/ConfirmedOwnerWithProposal.sol\":1136:1146  msg.sender */\n      caller\n        /* \"@chainlink/contracts/src/v0.8/shared/access/ConfirmedOwnerWithProposal.sol\":1136:1164  msg.sender == s_pendingOwner */\n      0xffffffffffffffffffffffffffffffffffffffff\n      and\n      eq\n        /* \"@chainlink/contracts/src/v0.8/shared/access/ConfirmedOwnerWithProposal.sol\":1128:1191  require(msg.sender == s_pendingOwner, \"Must be proposed owner\") */\n      tag_158\n      jumpi\n      mload(0x40)\n      0x08c379a000000000000000000000000000000000000000000000000000000000\n      dup2\n      mstore\n      0x04\n      add\n      tag_159\n      swap1\n      tag_160\n      jump\t// in\n    tag_159:\n      mload(0x40)\n      dup1\n      swap2\n      sub\n      swap1\n      revert\n    tag_158:\n        /* \"@chainlink/contracts/src/v0.8/shared/access/ConfirmedOwnerWithProposal.sol\":1198:1214  address oldOwner */\n      0x00\n        /* \"@chainlink/contracts/src/v0.8/shared/access/ConfirmedOwnerWithProposal.sol\":1217:1224  s_owner */\n      0x00\n      0x00\n      swap1\n      sload\n      swap1\n      0x0100\n      exp\n      swap1\n      div\n      0xffffffffffffffffffffffffffffffffffffffff\n      and\n        /* \"@chainlink/contracts/src/v0.8/shared/access/ConfirmedOwnerWithProposal.sol\":1198:1224  address oldOwner = s_owner */\n      swap1\n      pop\n        /* \"@chainlink/contracts/src/v0.8/shared/access/ConfirmedOwnerWithProposal.sol\":1240:1250  msg.sender */\n      caller\n        /* \"@chainlink/contracts/src/v0.8/shared/access/ConfirmedOwnerWithProposal.sol\":1230:1237  s_owner */\n      0x00\n      0x00\n        /* \"@chainlink/contracts/src/v0.8/shared/access/ConfirmedOwnerWithProposal.sol\":1230:1250  s_owner = msg.sender */\n      0x0100\n      exp\n      dup2\n      sload\n      dup2\n      0xffffffffffffffffffffffffffffffffffffffff\n      mul\n      not\n      and\n      swap1\n      dup4\n      0xffffffffffffffffffffffffffffffffffffffff\n      and\n      mul\n      or\n      swap1\n      sstore\n      pop\n        /* \"@chainlink/contracts/src/v0.8/shared/access/ConfirmedOwnerWithProposal.sol\":1281:1282  0 */\n      0x00\n        /* \"@chainlink/contracts/src/v0.8/shared/access/ConfirmedOwnerWithProposal.sol\":1256:1270  s_pendingOwner */\n      0x01\n      0x00\n        /* \"@chainlink/contracts/src/v0.8/shared/access/ConfirmedOwnerWithProposal.sol\":1256:1283  s_pendingOwner = address(0) */\n      0x0100\n      exp\n      dup2\n      sload\n      dup2\n      0xffffffffffffffffffffffffffffffffffffffff\n      mul\n      not\n      and\n      swap1\n      dup4\n      0xffffffffffffffffffffffffffffffffffffffff\n      and\n      mul\n      or\n      swap1\n      sstore\n      pop\n        /* \"@chainlink/contracts/src/v0.8/shared/access/ConfirmedOwnerWithProposal.sol\":1326:1336  msg.sender */\n      caller\n        /* \"@chainlink/contracts/src/v0.8/shared/access/ConfirmedOwnerWithProposal.sol\":1295:1337  OwnershipTransferred(oldOwner, msg.sender) */\n      0xffffffffffffffffffffffffffffffffffffffff\n      and\n        /* \"@chainlink/contracts/src/v0.8/shared/access/ConfirmedOwnerWithProposal.sol\":1316:1324  oldOwner */\n      dup2\n        /* \"@chainlink/contracts/src/v0.8/shared/access/ConfirmedOwnerWithProposal.sol\":1295:1337  OwnershipTransferred(oldOwner, msg.sender) */\n      0xffffffffffffffffffffffffffffffffffffffff\n      and\n      0x8be0079c531659141344cd1fd0a4f28419497f9722a3daafe3b4186f6b6457e0\n      mload(0x40)\n      mload(0x40)\n      dup1\n      swap2\n      sub\n      swap1\n      log3\n        /* \"@chainlink/contracts/src/v0.8/shared/access/ConfirmedOwnerWithProposal.sol\":1071:1342  {... */\n      pop\n        /* \"@chainlink/contracts/src/v0.8/shared/access/ConfirmedOwnerWithProposal.sol\":1026:1342  function acceptOwnership() external override {... */\n      jump\t// out\n        /* \"LuckyDrawVRF.sol\":7735:7818  function getTotalFee() public view returns(uint256){... */\n    tag_55:\n        /* \"LuckyDrawVRF.sol\":7778:7785  uint256 */\n      0x00\n        /* \"LuckyDrawVRF.sol\":7803:7811  totalFee */\n      sload(0x0c)\n        /* \"LuckyDrawVRF.sol\":7796:7811  return totalFee */\n      swap1\n      pop\n        /* \"LuckyDrawVRF.sol\":7735:7818  function getTotalFee() public view returns(uint256){... */\n      swap1\n      jump\t// out\n        /* \"@chainlink/contracts/src/v0.8/shared/access/ConfirmedOwnerWithProposal.sol\":1382:1463  function owner() public view override returns (address) {... */\n    tag_59:\n        /* \"@chainlink/contracts/src/v0.8/shared/access/ConfirmedOwnerWithProposal.sol\":1429:1436  address */\n      0x00\n        /* \"@chainlink/contracts/src/v0.8/shared/access/ConfirmedOwnerWithProposal.sol\":1451:1458  s_owner */\n      0x00\n      0x00\n      swap1\n      sload\n      swap1\n      0x0100\n      exp\n      swap1\n      div\n      0xffffffffffffffffffffffffffffffffffffffff\n      and\n        /* \"@chainlink/contracts/src/v0.8/shared/access/ConfirmedOwnerWithProposal.sol\":1444:1458  return s_owner */\n      swap1\n      pop\n        /* \"@chainlink/contracts/src/v0.8/shared/access/ConfirmedOwnerWithProposal.sol\":1382:1463  function owner() public view override returns (address) {... */\n      swap1\n      jump\t// out\n        /* \"@chainlink/contracts/src/v0.8/vrf/dev/VRFConsumerBaseV2Plus.sol\":7831:8107  function setCoordinator(address _vrfCoordinator) external override onlyOwnerOrCoordinator {... */\n    tag_66:\n        /* \"@chainlink/contracts/src/v0.8/vrf/dev/VRFConsumerBaseV2Plus.sol\":8169:8176  owner() */\n      tag_164\n        /* \"@chainlink/contracts/src/v0.8/vrf/dev/VRFConsumerBaseV2Plus.sol\":8169:8174  owner */\n      tag_59\n        /* \"@chainlink/contracts/src/v0.8/vrf/dev/VRFConsumerBaseV2Plus.sol\":8169:8176  owner() */\n      jump\t// in\n    tag_164:\n        /* \"@chainlink/contracts/src/v0.8/vrf/dev/VRFConsumerBaseV2Plus.sol\":8155:8176  msg.sender != owner() */\n      0xffffffffffffffffffffffffffffffffffffffff\n      and\n        /* \"@chainlink/contracts/src/v0.8/vrf/dev/VRFConsumerBaseV2Plus.sol\":8155:8165  msg.sender */\n      caller\n        /* \"@chainlink/contracts/src/v0.8/vrf/dev/VRFConsumerBaseV2Plus.sol\":8155:8176  msg.sender != owner() */\n      0xffffffffffffffffffffffffffffffffffffffff\n      and\n      eq\n      iszero\n        /* \"@chainlink/contracts/src/v0.8/vrf/dev/VRFConsumerBaseV2Plus.sol\":8155:8219  msg.sender != owner() && msg.sender != address(s_vrfCoordinator) */\n      dup1\n      iszero\n      tag_165\n      jumpi\n      pop\n        /* \"@chainlink/contracts/src/v0.8/vrf/dev/VRFConsumerBaseV2Plus.sol\":8202:8218  s_vrfCoordinator */\n      0x02\n      0x00\n      swap1\n      sload\n      swap1\n      0x0100\n      exp\n      swap1\n      div\n      0xffffffffffffffffffffffffffffffffffffffff\n      and\n        /* \"@chainlink/contracts/src/v0.8/vrf/dev/VRFConsumerBaseV2Plus.sol\":8180:8219  msg.sender != address(s_vrfCoordinator) */\n      0xffffffffffffffffffffffffffffffffffffffff\n      and\n        /* \"@chainlink/contracts/src/v0.8/vrf/dev/VRFConsumerBaseV2Plus.sol\":8180:8190  msg.sender */\n      caller\n        /* \"@chainlink/contracts/src/v0.8/vrf/dev/VRFConsumerBaseV2Plus.sol\":8180:8219  msg.sender != address(s_vrfCoordinator) */\n      0xffffffffffffffffffffffffffffffffffffffff\n      and\n      eq\n      iszero\n        /* \"@chainlink/contracts/src/v0.8/vrf/dev/VRFConsumerBaseV2Plus.sol\":8155:8219  msg.sender != owner() && msg.sender != address(s_vrfCoordinator) */\n    tag_165:\n        /* \"@chainlink/contracts/src/v0.8/vrf/dev/VRFConsumerBaseV2Plus.sol\":8151:8313  if (msg.sender != owner() && msg.sender != address(s_vrfCoordinator)) {... */\n      iszero\n      tag_166\n      jumpi\n        /* \"@chainlink/contracts/src/v0.8/vrf/dev/VRFConsumerBaseV2Plus.sol\":8259:8269  msg.sender */\n      caller\n        /* \"@chainlink/contracts/src/v0.8/vrf/dev/VRFConsumerBaseV2Plus.sol\":8271:8278  owner() */\n      tag_167\n        /* \"@chainlink/contracts/src/v0.8/vrf/dev/VRFConsumerBaseV2Plus.sol\":8271:8276  owner */\n      tag_59\n        /* \"@chainlink/contracts/src/v0.8/vrf/dev/VRFConsumerBaseV2Plus.sol\":8271:8278  owner() */\n      jump\t// in\n    tag_167:\n        /* \"@chainlink/contracts/src/v0.8/vrf/dev/VRFConsumerBaseV2Plus.sol\":8288:8304  s_vrfCoordinator */\n      0x02\n      0x00\n      swap1\n      sload\n      swap1\n      0x0100\n      exp\n      swap1\n      div\n      0xffffffffffffffffffffffffffffffffffffffff\n      and\n        /* \"@chainlink/contracts/src/v0.8/vrf/dev/VRFConsumerBaseV2Plus.sol\":8236:8306  OnlyOwnerOrCoordinator(msg.sender, owner(), address(s_vrfCoordinator)) */\n      mload(0x40)\n      0x061db9c100000000000000000000000000000000000000000000000000000000\n      dup2\n      mstore\n      0x04\n      add\n      tag_168\n      swap4\n      swap3\n      swap2\n      swap1\n      tag_169\n      jump\t// in\n    tag_168:\n      mload(0x40)\n      dup1\n      swap2\n      sub\n      swap1\n      revert\n        /* \"@chainlink/contracts/src/v0.8/vrf/dev/VRFConsumerBaseV2Plus.sol\":8151:8313  if (msg.sender != owner() && msg.sender != address(s_vrfCoordinator)) {... */\n    tag_166:\n        /* \"@chainlink/contracts/src/v0.8/vrf/dev/VRFConsumerBaseV2Plus.sol\":7958:7959  0 */\n      0x00\n        /* \"@chainlink/contracts/src/v0.8/vrf/dev/VRFConsumerBaseV2Plus.sol\":7931:7960  _vrfCoordinator == address(0) */\n      0xffffffffffffffffffffffffffffffffffffffff\n      and\n        /* \"@chainlink/contracts/src/v0.8/vrf/dev/VRFConsumerBaseV2Plus.sol\":7931:7946  _vrfCoordinator */\n      dup2\n        /* \"@chainlink/contracts/src/v0.8/vrf/dev/VRFConsumerBaseV2Plus.sol\":7931:7960  _vrfCoordinator == address(0) */\n      0xffffffffffffffffffffffffffffffffffffffff\n      and\n      sub\n        /* \"@chainlink/contracts/src/v0.8/vrf/dev/VRFConsumerBaseV2Plus.sol\":7927:7997  if (_vrfCoordinator == address(0)) {... */\n      tag_171\n      jumpi\n        /* \"@chainlink/contracts/src/v0.8/vrf/dev/VRFConsumerBaseV2Plus.sol\":7977:7990  ZeroAddress() */\n      mload(0x40)\n      0xd92e233d00000000000000000000000000000000000000000000000000000000\n      dup2\n      mstore\n      0x04\n      add\n      mload(0x40)\n      dup1\n      swap2\n      sub\n      swap1\n      revert\n        /* \"@chainlink/contracts/src/v0.8/vrf/dev/VRFConsumerBaseV2Plus.sol\":7927:7997  if (_vrfCoordinator == address(0)) {... */\n    tag_171:\n        /* \"@chainlink/contracts/src/v0.8/vrf/dev/VRFConsumerBaseV2Plus.sol\":8043:8058  _vrfCoordinator */\n      dup1\n        /* \"@chainlink/contracts/src/v0.8/vrf/dev/VRFConsumerBaseV2Plus.sol\":8002:8018  s_vrfCoordinator */\n      0x02\n      0x00\n        /* \"@chainlink/contracts/src/v0.8/vrf/dev/VRFConsumerBaseV2Plus.sol\":8002:8059  s_vrfCoordinator = IVRFCoordinatorV2Plus(_vrfCoordinator) */\n      0x0100\n      exp\n      dup2\n      sload\n      dup2\n      0xffffffffffffffffffffffffffffffffffffffff\n      mul\n      not\n      and\n      swap1\n      dup4\n      0xffffffffffffffffffffffffffffffffffffffff\n      and\n      mul\n      or\n      swap1\n      sstore\n      pop\n        /* \"@chainlink/contracts/src/v0.8/vrf/dev/VRFConsumerBaseV2Plus.sol\":8071:8102  CoordinatorSet(_vrfCoordinator) */\n      0xd1a6a14209a385a964d036e404cb5cfb71f4000cdb03c9366292430787261be6\n        /* \"@chainlink/contracts/src/v0.8/vrf/dev/VRFConsumerBaseV2Plus.sol\":8086:8101  _vrfCoordinator */\n      dup2\n        /* \"@chainlink/contracts/src/v0.8/vrf/dev/VRFConsumerBaseV2Plus.sol\":8071:8102  CoordinatorSet(_vrfCoordinator) */\n      mload(0x40)\n      tag_172\n      swap2\n      swap1\n      tag_61\n      jump\t// in\n    tag_172:\n      mload(0x40)\n      dup1\n      swap2\n      sub\n      swap1\n      log1\n        /* \"@chainlink/contracts/src/v0.8/vrf/dev/VRFConsumerBaseV2Plus.sol\":7831:8107  function setCoordinator(address _vrfCoordinator) external override onlyOwnerOrCoordinator {... */\n      pop\n      jump\t// out\n        /* \"@chainlink/contracts/src/v0.8/vrf/dev/VRFConsumerBaseV2Plus.sol\":6077:6122  IVRFCoordinatorV2Plus public s_vrfCoordinator */\n    tag_69:\n      0x02\n      0x00\n      swap1\n      sload\n      swap1\n      0x0100\n      exp\n      swap1\n      div\n      0xffffffffffffffffffffffffffffffffffffffff\n      and\n      dup2\n      jump\t// out\n        /* \"LuckyDrawVRF.sol\":3339:4087  function joinLucky(uint256 id) public payable{... */\n    tag_74:\n        /* \"LuckyDrawVRF.sol\":3422:3423  0 */\n      0x00\n        /* \"LuckyDrawVRF.sol\":3402:3424  msg.sender!=address(0) */\n      0xffffffffffffffffffffffffffffffffffffffff\n      and\n        /* \"LuckyDrawVRF.sol\":3402:3412  msg.sender */\n      caller\n        /* \"LuckyDrawVRF.sol\":3402:3424  msg.sender!=address(0) */\n      0xffffffffffffffffffffffffffffffffffffffff\n      and\n      sub\n        /* \"LuckyDrawVRF.sol\":3394:3448  require(msg.sender!=address(0),\"correct join address\") */\n      tag_174\n      jumpi\n      mload(0x40)\n      0x08c379a000000000000000000000000000000000000000000000000000000000\n      dup2\n      mstore\n      0x04\n      add\n      tag_175\n      swap1\n      tag_176\n      jump\t// in\n    tag_175:\n      mload(0x40)\n      dup1\n      swap2\n      sub\n      swap1\n      revert\n    tag_174:\n        /* \"LuckyDrawVRF.sol\":3458:3475  Join storage task */\n      0x00\n        /* \"LuckyDrawVRF.sol\":3477:3484  records */\n      0x08\n        /* \"LuckyDrawVRF.sol\":3477:3488  records[id] */\n      0x00\n        /* \"LuckyDrawVRF.sol\":3485:3487  id */\n      dup4\n        /* \"LuckyDrawVRF.sol\":3477:3488  records[id] */\n      dup2\n      mstore\n      0x20\n      add\n      swap1\n      dup2\n      mstore\n      0x20\n      add\n      0x00\n      keccak256\n        /* \"LuckyDrawVRF.sol\":3458:3488  Join storage task =records[id] */\n      swap1\n      pop\n        /* \"LuckyDrawVRF.sol\":3522:3537  block.timestamp */\n      timestamp\n        /* \"LuckyDrawVRF.sol\":3506:3510  task */\n      dup2\n        /* \"LuckyDrawVRF.sol\":3506:3520  task.startTime */\n      0x00\n      add\n      sload\n        /* \"LuckyDrawVRF.sol\":3506:3537  task.startTime<=block.timestamp */\n      gt\n      iszero\n        /* \"LuckyDrawVRF.sol\":3506:3567  task.startTime<=block.timestamp&&task.endTime>block.timestamp */\n      dup1\n      iszero\n      tag_177\n      jumpi\n      pop\n        /* \"LuckyDrawVRF.sol\":3552:3567  block.timestamp */\n      timestamp\n        /* \"LuckyDrawVRF.sol\":3539:3543  task */\n      dup2\n        /* \"LuckyDrawVRF.sol\":3539:3551  task.endTime */\n      0x01\n      add\n      sload\n        /* \"LuckyDrawVRF.sol\":3539:3567  task.endTime>block.timestamp */\n      gt\n        /* \"LuckyDrawVRF.sol\":3506:3567  task.startTime<=block.timestamp&&task.endTime>block.timestamp */\n    tag_177:\n        /* \"LuckyDrawVRF.sol\":3498:3591  require(task.startTime<=block.timestamp&&task.endTime>block.timestamp,\"current task has end\") */\n      tag_178\n      jumpi\n      mload(0x40)\n      0x08c379a000000000000000000000000000000000000000000000000000000000\n      dup2\n      mstore\n      0x04\n      add\n      tag_179\n      swap1\n      tag_180\n      jump\t// in\n    tag_179:\n      mload(0x40)\n      dup1\n      swap2\n      sub\n      swap1\n      revert\n    tag_178:\n        /* \"LuckyDrawVRF.sol\":3620:3624  true */\n      0x01\n        /* \"LuckyDrawVRF.sol\":3609:3624  task.open==true */\n      iszero\n      iszero\n        /* \"LuckyDrawVRF.sol\":3609:3613  task */\n      dup2\n        /* \"LuckyDrawVRF.sol\":3609:3618  task.open */\n      0x06\n      add\n      0x00\n      swap1\n      sload\n      swap1\n      0x0100\n      exp\n      swap1\n      div\n      0xff\n      and\n        /* \"LuckyDrawVRF.sol\":3609:3624  task.open==true */\n      iszero\n      iszero\n      eq\n        /* \"LuckyDrawVRF.sol\":3601:3650  require(task.open==true, \"current task has done\") */\n      tag_181\n      jumpi\n      mload(0x40)\n      0x08c379a000000000000000000000000000000000000000000000000000000000\n      dup2\n      mstore\n      0x04\n      add\n      tag_182\n      swap1\n      tag_128\n      jump\t// in\n    tag_182:\n      mload(0x40)\n      dup1\n      swap2\n      sub\n      swap1\n      revert\n    tag_181:\n        /* \"LuckyDrawVRF.sol\":3679:3683  task */\n      dup1\n        /* \"LuckyDrawVRF.sol\":3679:3689  task.price */\n      0x05\n      add\n      sload\n        /* \"LuckyDrawVRF.sol\":3668:3677  msg.value */\n      callvalue\n        /* \"LuckyDrawVRF.sol\":3668:3689  msg.value>=task.price */\n      lt\n      iszero\n        /* \"LuckyDrawVRF.sol\":3660:3731  require(msg.value>=task.price,\"join price must be big than tick price\") */\n      tag_183\n      jumpi\n      mload(0x40)\n      0x08c379a000000000000000000000000000000000000000000000000000000000\n      dup2\n      mstore\n      0x04\n      add\n      tag_184\n      swap1\n      tag_185\n      jump\t// in\n    tag_184:\n      mload(0x40)\n      dup1\n      swap2\n      sub\n      swap1\n      revert\n    tag_183:\n        /* \"LuckyDrawVRF.sol\":3773:3774  0 */\n      0x00\n        /* \"LuckyDrawVRF.sol\":3749:3753  task */\n      dup2\n        /* \"LuckyDrawVRF.sol\":3749:3759  task.joins */\n      0x07\n      add\n        /* \"LuckyDrawVRF.sol\":3749:3771  task.joins[msg.sender] */\n      0x00\n        /* \"LuckyDrawVRF.sol\":3760:3770  msg.sender */\n      caller\n        /* \"LuckyDrawVRF.sol\":3749:3771  task.joins[msg.sender] */\n      0xffffffffffffffffffffffffffffffffffffffff\n      and\n      0xffffffffffffffffffffffffffffffffffffffff\n      and\n      dup2\n      mstore\n      0x20\n      add\n      swap1\n      dup2\n      mstore\n      0x20\n      add\n      0x00\n      keccak256\n      sload\n        /* \"LuckyDrawVRF.sol\":3749:3774  task.joins[msg.sender]<=0 */\n      gt\n      iszero\n        /* \"LuckyDrawVRF.sol\":3741:3825  require(task.joins[msg.sender]<=0,\"you has join it,please waiting lucky going down\") */\n      tag_186\n      jumpi\n      mload(0x40)\n      0x08c379a000000000000000000000000000000000000000000000000000000000\n      dup2\n      mstore\n      0x04\n      add\n      tag_187\n      swap1\n      tag_188\n      jump\t// in\n    tag_187:\n      mload(0x40)\n      dup1\n      swap2\n      sub\n      swap1\n      revert\n    tag_186:\n        /* \"LuckyDrawVRF.sol\":3891:3900  msg.value */\n      callvalue\n        /* \"LuckyDrawVRF.sol\":3873:3877  task */\n      dup2\n        /* \"LuckyDrawVRF.sol\":3873:3889  task.totalReward */\n      0x02\n      add\n      0x00\n        /* \"LuckyDrawVRF.sol\":3873:3900  task.totalReward+=msg.value */\n      dup3\n      dup3\n      sload\n      tag_189\n      swap2\n      swap1\n      tag_190\n      jump\t// in\n    tag_189:\n      swap3\n      pop\n      pop\n      dup2\n      swap1\n      sstore\n      pop\n        /* \"LuckyDrawVRF.sol\":3933:3942  msg.value */\n      callvalue\n        /* \"LuckyDrawVRF.sol\":3910:3914  task */\n      dup2\n        /* \"LuckyDrawVRF.sol\":3910:3920  task.joins */\n      0x07\n      add\n        /* \"LuckyDrawVRF.sol\":3910:3932  task.joins[msg.sender] */\n      0x00\n        /* \"LuckyDrawVRF.sol\":3921:3931  msg.sender */\n      caller\n        /* \"LuckyDrawVRF.sol\":3910:3932  task.joins[msg.sender] */\n      0xffffffffffffffffffffffffffffffffffffffff\n      and\n      0xffffffffffffffffffffffffffffffffffffffff\n      and\n      dup2\n      mstore\n      0x20\n      add\n      swap1\n      dup2\n      mstore\n      0x20\n      add\n      0x00\n      keccak256\n        /* \"LuckyDrawVRF.sol\":3910:3942  task.joins[msg.sender]=msg.value */\n      dup2\n      swap1\n      sstore\n      pop\n        /* \"LuckyDrawVRF.sol\":3952:3956  task */\n      dup1\n        /* \"LuckyDrawVRF.sol\":3952:3968  task.joinAddress */\n      0x08\n      add\n        /* \"LuckyDrawVRF.sol\":3974:3984  msg.sender */\n      caller\n        /* \"LuckyDrawVRF.sol\":3952:3985  task.joinAddress.push(msg.sender) */\n      swap1\n      dup1\n      0x01\n      dup2\n      sload\n      add\n      dup1\n      dup3\n      sstore\n      dup1\n      swap2\n      pop\n      pop\n      0x01\n      swap1\n      sub\n      swap1\n      0x00\n      mstore\n      keccak256(0x00, 0x20)\n      add\n      0x00\n      swap1\n      swap2\n      swap1\n      swap2\n      swap1\n      swap2\n      0x0100\n      exp\n      dup2\n      sload\n      dup2\n      0xffffffffffffffffffffffffffffffffffffffff\n      mul\n      not\n      and\n      swap1\n      dup4\n      0xffffffffffffffffffffffffffffffffffffffff\n      and\n      mul\n      or\n      swap1\n      sstore\n      pop\n        /* \"LuckyDrawVRF.sol\":4023:4080  EventJoinSuccess(msg.sender,id,msg.value,block.timestamp) */\n      0x2e86a4ea48e0ba7adc0ba18a20c7fb7b8e65257bbae7bc0816518c2e5e65cec0\n        /* \"LuckyDrawVRF.sol\":4040:4050  msg.sender */\n      caller\n        /* \"LuckyDrawVRF.sol\":4051:4053  id */\n      dup4\n        /* \"LuckyDrawVRF.sol\":4054:4063  msg.value */\n      callvalue\n        /* \"LuckyDrawVRF.sol\":4064:4079  block.timestamp */\n      timestamp\n        /* \"LuckyDrawVRF.sol\":4023:4080  EventJoinSuccess(msg.sender,id,msg.value,block.timestamp) */\n      mload(0x40)\n      tag_192\n      swap5\n      swap4\n      swap3\n      swap2\n      swap1\n      tag_156\n      jump\t// in\n    tag_192:\n      mload(0x40)\n      dup1\n      swap2\n      sub\n      swap1\n      log1\n        /* \"LuckyDrawVRF.sol\":3384:4087  {... */\n      pop\n        /* \"LuckyDrawVRF.sol\":3339:4087  function joinLucky(uint256 id) public payable{... */\n      pop\n      jump\t// out\n        /* \"LuckyDrawVRF.sol\":350:392  uint256 public constant ONE = 10**DECIMALS */\n    tag_77:\n        /* \"LuckyDrawVRF.sol\":342:344  18 */\n      0x12\n        /* \"LuckyDrawVRF.sol\":380:382  10 */\n      0x0a\n        /* \"LuckyDrawVRF.sol\":380:392  10**DECIMALS */\n      tag_193\n      swap2\n      swap1\n      tag_194\n      jump\t// in\n    tag_193:\n        /* \"LuckyDrawVRF.sol\":350:392  uint256 public constant ONE = 10**DECIMALS */\n      dup2\n      jump\t// out\n        /* \"LuckyDrawVRF.sol\":762:786  uint256 public currentId */\n    tag_81:\n      sload(0x07)\n      dup2\n      jump\t// out\n        /* \"LuckyDrawVRF.sol\":7520:7729  function getLuckyJoinBalance(uint256 luckyId,address user) public view returns(uint256 amount){... */\n    tag_87:\n        /* \"LuckyDrawVRF.sol\":7599:7613  uint256 amount */\n      0x00\n        /* \"LuckyDrawVRF.sol\":7646:7647  0 */\n      0x00\n        /* \"LuckyDrawVRF.sol\":7632:7648  user!=address(0) */\n      0xffffffffffffffffffffffffffffffffffffffff\n      and\n        /* \"LuckyDrawVRF.sol\":7632:7636  user */\n      dup3\n        /* \"LuckyDrawVRF.sol\":7632:7648  user!=address(0) */\n      0xffffffffffffffffffffffffffffffffffffffff\n      and\n      sub\n        /* \"LuckyDrawVRF.sol\":7624:7649  require(user!=address(0)) */\n      tag_196\n      jumpi\n      revert(0x00, 0x00)\n    tag_196:\n        /* \"LuckyDrawVRF.sol\":7659:7674  Join storage jj */\n      0x00\n        /* \"LuckyDrawVRF.sol\":7675:7682  records */\n      0x08\n        /* \"LuckyDrawVRF.sol\":7675:7691  records[luckyId] */\n      0x00\n        /* \"LuckyDrawVRF.sol\":7683:7690  luckyId */\n      dup6\n        /* \"LuckyDrawVRF.sol\":7675:7691  records[luckyId] */\n      dup2\n      mstore\n      0x20\n      add\n      swap1\n      dup2\n      mstore\n      0x20\n      add\n      0x00\n      keccak256\n        /* \"LuckyDrawVRF.sol\":7659:7691  Join storage jj=records[luckyId] */\n      swap1\n      pop\n        /* \"LuckyDrawVRF.sol\":7708:7710  jj */\n      dup1\n        /* \"LuckyDrawVRF.sol\":7708:7716  jj.joins */\n      0x07\n      add\n        /* \"LuckyDrawVRF.sol\":7708:7722  jj.joins[user] */\n      0x00\n        /* \"LuckyDrawVRF.sol\":7717:7721  user */\n      dup5\n        /* \"LuckyDrawVRF.sol\":7708:7722  jj.joins[user] */\n      0xffffffffffffffffffffffffffffffffffffffff\n      and\n      0xffffffffffffffffffffffffffffffffffffffff\n      and\n      dup2\n      mstore\n      0x20\n      add\n      swap1\n      dup2\n      mstore\n      0x20\n      add\n      0x00\n      keccak256\n      sload\n        /* \"LuckyDrawVRF.sol\":7701:7722  return jj.joins[user] */\n      swap2\n      pop\n      pop\n        /* \"LuckyDrawVRF.sol\":7520:7729  function getLuckyJoinBalance(uint256 luckyId,address user) public view returns(uint256 amount){... */\n      swap3\n      swap2\n      pop\n      pop\n      jump\t// out\n        /* \"@chainlink/contracts/src/v0.8/shared/access/ConfirmedOwnerWithProposal.sol\":847:945  function transferOwnership(address to) public override onlyOwner {... */\n    tag_92:\n        /* \"@chainlink/contracts/src/v0.8/shared/access/ConfirmedOwnerWithProposal.sol\":2075:2095  _validateOwnership() */\n      tag_198\n        /* \"@chainlink/contracts/src/v0.8/shared/access/ConfirmedOwnerWithProposal.sol\":2075:2093  _validateOwnership */\n      tag_100\n        /* \"@chainlink/contracts/src/v0.8/shared/access/ConfirmedOwnerWithProposal.sol\":2075:2095  _validateOwnership() */\n      jump\t// in\n    tag_198:\n        /* \"@chainlink/contracts/src/v0.8/shared/access/ConfirmedOwnerWithProposal.sol\":918:940  _transferOwnership(to) */\n      tag_200\n        /* \"@chainlink/contracts/src/v0.8/shared/access/ConfirmedOwnerWithProposal.sol\":937:939  to */\n      dup2\n        /* \"@chainlink/contracts/src/v0.8/shared/access/ConfirmedOwnerWithProposal.sol\":918:936  _transferOwnership */\n      tag_201\n        /* \"@chainlink/contracts/src/v0.8/shared/access/ConfirmedOwnerWithProposal.sol\":918:940  _transferOwnership(to) */\n      jump\t// in\n    tag_200:\n        /* \"@chainlink/contracts/src/v0.8/shared/access/ConfirmedOwnerWithProposal.sol\":847:945  function transferOwnership(address to) public override onlyOwner {... */\n      pop\n      jump\t// out\n        /* \"LuckyDrawVRF.sol\":2578:3314  function createLucky(uint256 _startTime,uint256 _endTime,uint256 _conditionPrice) public payable returns(uint256) {... */\n    tag_96:\n        /* \"LuckyDrawVRF.sol\":2683:2690  uint256 */\n      0x00\n        /* \"LuckyDrawVRF.sol\":2730:2731  0 */\n      0x00\n        /* \"LuckyDrawVRF.sol\":2710:2732  msg.sender!=address(0) */\n      0xffffffffffffffffffffffffffffffffffffffff\n      and\n        /* \"LuckyDrawVRF.sol\":2710:2720  msg.sender */\n      caller\n        /* \"LuckyDrawVRF.sol\":2710:2732  msg.sender!=address(0) */\n      0xffffffffffffffffffffffffffffffffffffffff\n      and\n      sub\n        /* \"LuckyDrawVRF.sol\":2702:2756  require(msg.sender!=address(0),\"not alllowed join it\") */\n      tag_203\n      jumpi\n      mload(0x40)\n      0x08c379a000000000000000000000000000000000000000000000000000000000\n      dup2\n      mstore\n      0x04\n      add\n      tag_204\n      swap1\n      tag_205\n      jump\t// in\n    tag_204:\n      mload(0x40)\n      dup1\n      swap2\n      sub\n      swap1\n      revert\n    tag_203:\n        /* \"LuckyDrawVRF.sol\":2784:2785  0 */\n      0x00\n        /* \"LuckyDrawVRF.sol\":2774:2783  msg.value */\n      callvalue\n        /* \"LuckyDrawVRF.sol\":2774:2785  msg.value>0 */\n      gt\n        /* \"LuckyDrawVRF.sol\":2774:2807  msg.value>0&&msg.value>=miniPrice */\n      dup1\n      iszero\n      tag_206\n      jumpi\n      pop\n        /* \"LuckyDrawVRF.sol\":2798:2807  miniPrice */\n      sload(0x0b)\n        /* \"LuckyDrawVRF.sol\":2787:2796  msg.value */\n      callvalue\n        /* \"LuckyDrawVRF.sol\":2787:2807  msg.value>=miniPrice */\n      lt\n      iszero\n        /* \"LuckyDrawVRF.sol\":2774:2807  msg.value>0&&msg.value>=miniPrice */\n    tag_206:\n        /* \"LuckyDrawVRF.sol\":2766:2856  require(msg.value>0&&msg.value>=miniPrice,\"create luck init reward must be big than zero\") */\n      tag_207\n      jumpi\n      mload(0x40)\n      0x08c379a000000000000000000000000000000000000000000000000000000000\n      dup2\n      mstore\n      0x04\n      add\n      tag_208\n      swap1\n      tag_209\n      jump\t// in\n    tag_208:\n      mload(0x40)\n      dup1\n      swap2\n      sub\n      swap1\n      revert\n    tag_207:\n        /* \"LuckyDrawVRF.sol\":2879:2880  1 */\n      0x01\n        /* \"LuckyDrawVRF.sol\":2866:2875  currentId */\n      0x07\n      0x00\n        /* \"LuckyDrawVRF.sol\":2866:2880  currentId += 1 */\n      dup3\n      dup3\n      sload\n      tag_210\n      swap2\n      swap1\n      tag_190\n      jump\t// in\n    tag_210:\n      swap3\n      pop\n      pop\n      dup2\n      swap1\n      sstore\n      pop\n        /* \"LuckyDrawVRF.sol\":2928:2948  Join storage newJoin */\n      0x00\n        /* \"LuckyDrawVRF.sol\":2951:2958  records */\n      0x08\n        /* \"LuckyDrawVRF.sol\":2951:2969  records[currentId] */\n      0x00\n        /* \"LuckyDrawVRF.sol\":2959:2968  currentId */\n      sload(0x07)\n        /* \"LuckyDrawVRF.sol\":2951:2969  records[currentId] */\n      dup2\n      mstore\n      0x20\n      add\n      swap1\n      dup2\n      mstore\n      0x20\n      add\n      0x00\n      keccak256\n        /* \"LuckyDrawVRF.sol\":2928:2969  Join storage newJoin = records[currentId] */\n      swap1\n      pop\n        /* \"LuckyDrawVRF.sol\":2997:3007  _startTime */\n      dup5\n        /* \"LuckyDrawVRF.sol\":2979:2986  newJoin */\n      dup2\n        /* \"LuckyDrawVRF.sol\":2979:2996  newJoin.startTime */\n      0x00\n      add\n        /* \"LuckyDrawVRF.sol\":2979:3007  newJoin.startTime=_startTime */\n      dup2\n      swap1\n      sstore\n      pop\n        /* \"LuckyDrawVRF.sol\":3035:3043  _endTime */\n      dup4\n        /* \"LuckyDrawVRF.sol\":3017:3024  newJoin */\n      dup2\n        /* \"LuckyDrawVRF.sol\":3017:3032  newJoin.endTime */\n      0x01\n      add\n        /* \"LuckyDrawVRF.sol\":3017:3043  newJoin.endTime = _endTime */\n      dup2\n      swap1\n      sstore\n      pop\n        /* \"LuckyDrawVRF.sol\":3075:3084  msg.value */\n      callvalue\n        /* \"LuckyDrawVRF.sol\":3053:3060  newJoin */\n      dup2\n        /* \"LuckyDrawVRF.sol\":3053:3072  newJoin.totalReward */\n      0x02\n      add\n        /* \"LuckyDrawVRF.sol\":3053:3084  newJoin.totalReward = msg.value */\n      dup2\n      swap1\n      sstore\n      pop\n        /* \"LuckyDrawVRF.sol\":3110:3120  msg.sender */\n      caller\n        /* \"LuckyDrawVRF.sol\":3094:3101  newJoin */\n      dup2\n        /* \"LuckyDrawVRF.sol\":3094:3107  newJoin.owner */\n      0x03\n      add\n      0x00\n        /* \"LuckyDrawVRF.sol\":3094:3120  newJoin.owner = msg.sender */\n      0x0100\n      exp\n      dup2\n      sload\n      dup2\n      0xffffffffffffffffffffffffffffffffffffffff\n      mul\n      not\n      and\n      swap1\n      dup4\n      0xffffffffffffffffffffffffffffffffffffffff\n      and\n      mul\n      or\n      swap1\n      sstore\n      pop\n        /* \"LuckyDrawVRF.sol\":3146:3161  _conditionPrice */\n      dup3\n        /* \"LuckyDrawVRF.sol\":3130:3137  newJoin */\n      dup2\n        /* \"LuckyDrawVRF.sol\":3130:3143  newJoin.price */\n      0x05\n      add\n        /* \"LuckyDrawVRF.sol\":3130:3161  newJoin.price = _conditionPrice */\n      dup2\n      swap1\n      sstore\n      pop\n        /* \"LuckyDrawVRF.sol\":3184:3188  true */\n      0x01\n        /* \"LuckyDrawVRF.sol\":3171:3178  newJoin */\n      dup2\n        /* \"LuckyDrawVRF.sol\":3171:3183  newJoin.open */\n      0x06\n      add\n      0x00\n        /* \"LuckyDrawVRF.sol\":3171:3188  newJoin.open=true */\n      0x0100\n      exp\n      dup2\n      sload\n      dup2\n      0xff\n      mul\n      not\n      and\n      swap1\n      dup4\n      iszero\n      iszero\n      mul\n      or\n      swap1\n      sstore\n      pop\n        /* \"LuckyDrawVRF.sol\":3226:3235  msg.value */\n      callvalue\n        /* \"LuckyDrawVRF.sol\":3198:3205  newJoin */\n      dup2\n        /* \"LuckyDrawVRF.sol\":3198:3211  newJoin.joins */\n      0x07\n      add\n        /* \"LuckyDrawVRF.sol\":3198:3223  newJoin.joins[msg.sender] */\n      0x00\n        /* \"LuckyDrawVRF.sol\":3212:3222  msg.sender */\n      caller\n        /* \"LuckyDrawVRF.sol\":3198:3223  newJoin.joins[msg.sender] */\n      0xffffffffffffffffffffffffffffffffffffffff\n      and\n      0xffffffffffffffffffffffffffffffffffffffff\n      and\n      dup2\n      mstore\n      0x20\n      add\n      swap1\n      dup2\n      mstore\n      0x20\n      add\n      0x00\n      keccak256\n        /* \"LuckyDrawVRF.sol\":3198:3235  newJoin.joins[msg.sender] = msg.value */\n      dup2\n      swap1\n      sstore\n      pop\n        /* \"LuckyDrawVRF.sol\":3245:3252  newJoin */\n      dup1\n        /* \"LuckyDrawVRF.sol\":3245:3264  newJoin.joinAddress */\n      0x08\n      add\n        /* \"LuckyDrawVRF.sol\":3270:3280  msg.sender */\n      caller\n        /* \"LuckyDrawVRF.sol\":3245:3281  newJoin.joinAddress.push(msg.sender) */\n      swap1\n      dup1\n      0x01\n      dup2\n      sload\n      add\n      dup1\n      dup3\n      sstore\n      dup1\n      swap2\n      pop\n      pop\n      0x01\n      swap1\n      sub\n      swap1\n      0x00\n      mstore\n      keccak256(0x00, 0x20)\n      add\n      0x00\n      swap1\n      swap2\n      swap1\n      swap2\n      swap1\n      swap2\n      0x0100\n      exp\n      dup2\n      sload\n      dup2\n      0xffffffffffffffffffffffffffffffffffffffff\n      mul\n      not\n      and\n      swap1\n      dup4\n      0xffffffffffffffffffffffffffffffffffffffff\n      and\n      mul\n      or\n      swap1\n      sstore\n      pop\n        /* \"LuckyDrawVRF.sol\":3298:3307  currentId */\n      sload(0x07)\n        /* \"LuckyDrawVRF.sol\":3291:3307  return currentId */\n      swap2\n      pop\n      pop\n        /* \"LuckyDrawVRF.sol\":2578:3314  function createLucky(uint256 _startTime,uint256 _endTime,uint256 _conditionPrice) public payable returns(uint256) {... */\n      swap4\n      swap3\n      pop\n      pop\n      pop\n      jump\t// out\n        /* \"@chainlink/contracts/src/v0.8/shared/access/ConfirmedOwnerWithProposal.sol\":1809:1971  function _validateOwnership() internal view {... */\n    tag_100:\n        /* \"@chainlink/contracts/src/v0.8/shared/access/ConfirmedOwnerWithProposal.sol\":1932:1939  s_owner */\n      0x00\n      0x00\n      swap1\n      sload\n      swap1\n      0x0100\n      exp\n      swap1\n      div\n      0xffffffffffffffffffffffffffffffffffffffff\n      and\n        /* \"@chainlink/contracts/src/v0.8/shared/access/ConfirmedOwnerWithProposal.sol\":1918:1939  msg.sender == s_owner */\n      0xffffffffffffffffffffffffffffffffffffffff\n      and\n        /* \"@chainlink/contracts/src/v0.8/shared/access/ConfirmedOwnerWithProposal.sol\":1918:1928  msg.sender */\n      caller\n        /* \"@chainlink/contracts/src/v0.8/shared/access/ConfirmedOwnerWithProposal.sol\":1918:1939  msg.sender == s_owner */\n      0xffffffffffffffffffffffffffffffffffffffff\n      and\n      eq\n        /* \"@chainlink/contracts/src/v0.8/shared/access/ConfirmedOwnerWithProposal.sol\":1910:1966  require(msg.sender == s_owner, \"Only callable by owner\") */\n      tag_213\n      jumpi\n      mload(0x40)\n      0x08c379a000000000000000000000000000000000000000000000000000000000\n      dup2\n      mstore\n      0x04\n      add\n      tag_214\n      swap1\n      tag_215\n      jump\t// in\n    tag_214:\n      mload(0x40)\n      dup1\n      swap2\n      sub\n      swap1\n      revert\n    tag_213:\n        /* \"@chainlink/contracts/src/v0.8/shared/access/ConfirmedOwnerWithProposal.sol\":1809:1971  function _validateOwnership() internal view {... */\n      jump\t// out\n        /* \"LuckyDrawVRF.sol\":5860:7005  function fulfillRandomWords(uint256 requestId, uint256[] calldata randomWords) internal override {... */\n    tag_114:\n        /* \"LuckyDrawVRF.sol\":6004:6005  0 */\n      0x00\n        /* \"LuckyDrawVRF.sol\":5975:5992  requestidToJoinId */\n      0x09\n        /* \"LuckyDrawVRF.sol\":5975:6003  requestidToJoinId[requestId] */\n      0x00\n        /* \"LuckyDrawVRF.sol\":5993:6002  requestId */\n      dup6\n        /* \"LuckyDrawVRF.sol\":5975:6003  requestidToJoinId[requestId] */\n      dup2\n      mstore\n      0x20\n      add\n      swap1\n      dup2\n      mstore\n      0x20\n      add\n      0x00\n      keccak256\n      sload\n        /* \"LuckyDrawVRF.sol\":5975:6005  requestidToJoinId[requestId]>0 */\n      gt\n        /* \"LuckyDrawVRF.sol\":5967:6024  require(requestidToJoinId[requestId]>0, \"not exist task\") */\n      tag_217\n      jumpi\n      mload(0x40)\n      0x08c379a000000000000000000000000000000000000000000000000000000000\n      dup2\n      mstore\n      0x04\n      add\n      tag_218\n      swap1\n      tag_219\n      jump\t// in\n    tag_218:\n      mload(0x40)\n      dup1\n      swap2\n      sub\n      swap1\n      revert\n    tag_217:\n        /* \"LuckyDrawVRF.sol\":6034:6044  uint256 id */\n      0x00\n        /* \"LuckyDrawVRF.sol\":6045:6062  requestidToJoinId */\n      0x09\n        /* \"LuckyDrawVRF.sol\":6045:6073  requestidToJoinId[requestId] */\n      0x00\n        /* \"LuckyDrawVRF.sol\":6063:6072  requestId */\n      dup6\n        /* \"LuckyDrawVRF.sol\":6045:6073  requestidToJoinId[requestId] */\n      dup2\n      mstore\n      0x20\n      add\n      swap1\n      dup2\n      mstore\n      0x20\n      add\n      0x00\n      keccak256\n      sload\n        /* \"LuckyDrawVRF.sol\":6034:6073  uint256 id=requestidToJoinId[requestId] */\n      swap1\n      pop\n        /* \"LuckyDrawVRF.sol\":6083:6107  Join storage currentDraw */\n      0x00\n        /* \"LuckyDrawVRF.sol\":6110:6117  records */\n      0x08\n        /* \"LuckyDrawVRF.sol\":6110:6121  records[id] */\n      0x00\n        /* \"LuckyDrawVRF.sol\":6118:6120  id */\n      dup4\n        /* \"LuckyDrawVRF.sol\":6110:6121  records[id] */\n      dup2\n      mstore\n      0x20\n      add\n      swap1\n      dup2\n      mstore\n      0x20\n      add\n      0x00\n      keccak256\n        /* \"LuckyDrawVRF.sol\":6083:6121  Join storage currentDraw = records[id] */\n      swap1\n      pop\n        /* \"LuckyDrawVRF.sol\":6157:6161  true */\n      0x01\n        /* \"LuckyDrawVRF.sol\":6139:6161  currentDraw.open==true */\n      iszero\n      iszero\n        /* \"LuckyDrawVRF.sol\":6139:6150  currentDraw */\n      dup2\n        /* \"LuckyDrawVRF.sol\":6139:6155  currentDraw.open */\n      0x06\n      add\n      0x00\n      swap1\n      sload\n      swap1\n      0x0100\n      exp\n      swap1\n      div\n      0xff\n      and\n        /* \"LuckyDrawVRF.sol\":6139:6161  currentDraw.open==true */\n      iszero\n      iszero\n      eq\n        /* \"LuckyDrawVRF.sol\":6131:6186  require(currentDraw.open==true,\"current task has done\") */\n      tag_220\n      jumpi\n      mload(0x40)\n      0x08c379a000000000000000000000000000000000000000000000000000000000\n      dup2\n      mstore\n      0x04\n      add\n      tag_221\n      swap1\n      tag_128\n      jump\t// in\n    tag_221:\n      mload(0x40)\n      dup1\n      swap2\n      sub\n      swap1\n      revert\n    tag_220:\n        /* \"LuckyDrawVRF.sol\":6267:6268  0 */\n      0x00\n        /* \"LuckyDrawVRF.sol\":6234:6245  currentDraw */\n      dup2\n        /* \"LuckyDrawVRF.sol\":6234:6257  currentDraw.joinAddress */\n      0x08\n      add\n        /* \"LuckyDrawVRF.sol\":6234:6264  currentDraw.joinAddress.length */\n      dup1\n      sload\n      swap1\n      pop\n        /* \"LuckyDrawVRF.sol\":6234:6268  currentDraw.joinAddress.length > 0 */\n      gt\n        /* \"LuckyDrawVRF.sol\":6226:6288  require(currentDraw.joinAddress.length > 0, \"No participants\") */\n      tag_222\n      jumpi\n      mload(0x40)\n      0x08c379a000000000000000000000000000000000000000000000000000000000\n      dup2\n      mstore\n      0x04\n      add\n      tag_223\n      swap1\n      tag_224\n      jump\t// in\n    tag_223:\n      mload(0x40)\n      dup1\n      swap2\n      sub\n      swap1\n      revert\n    tag_222:\n        /* \"LuckyDrawVRF.sol\":6298:6316  uint256 randomness */\n      0x00\n        /* \"LuckyDrawVRF.sol\":6319:6330  randomWords */\n      dup5\n      dup5\n        /* \"LuckyDrawVRF.sol\":6331:6332  0 */\n      0x00\n        /* \"LuckyDrawVRF.sol\":6319:6333  randomWords[0] */\n      dup2\n      dup2\n      lt\n      tag_225\n      jumpi\n      tag_226\n      tag_227\n      jump\t// in\n    tag_226:\n    tag_225:\n      swap1\n      pop\n      0x20\n      mul\n      add\n      calldataload\n        /* \"LuckyDrawVRF.sol\":6298:6333  uint256 randomness = randomWords[0] */\n      swap1\n      pop\n        /* \"LuckyDrawVRF.sol\":6385:6404  uint256 winnerIndex */\n      0x00\n        /* \"LuckyDrawVRF.sol\":6420:6431  currentDraw */\n      dup3\n        /* \"LuckyDrawVRF.sol\":6420:6443  currentDraw.joinAddress */\n      0x08\n      add\n        /* \"LuckyDrawVRF.sol\":6420:6450  currentDraw.joinAddress.length */\n      dup1\n      sload\n      swap1\n      pop\n        /* \"LuckyDrawVRF.sol\":6407:6417  randomness */\n      dup3\n        /* \"LuckyDrawVRF.sol\":6407:6450  randomness % currentDraw.joinAddress.length */\n      tag_228\n      swap2\n      swap1\n      tag_229\n      jump\t// in\n    tag_228:\n        /* \"LuckyDrawVRF.sol\":6385:6450  uint256 winnerIndex = randomness % currentDraw.joinAddress.length */\n      swap1\n      pop\n        /* \"LuckyDrawVRF.sol\":6460:6474  address winner */\n      0x00\n        /* \"LuckyDrawVRF.sol\":6477:6488  currentDraw */\n      dup4\n        /* \"LuckyDrawVRF.sol\":6477:6500  currentDraw.joinAddress */\n      0x08\n      add\n        /* \"LuckyDrawVRF.sol\":6501:6512  winnerIndex */\n      dup3\n        /* \"LuckyDrawVRF.sol\":6477:6513  currentDraw.joinAddress[winnerIndex] */\n      dup2\n      sload\n      dup2\n      lt\n      tag_230\n      jumpi\n      tag_231\n      tag_227\n      jump\t// in\n    tag_231:\n    tag_230:\n      swap1\n      0x00\n      mstore\n      keccak256(0x00, 0x20)\n      add\n      0x00\n      swap1\n      sload\n      swap1\n      0x0100\n      exp\n      swap1\n      div\n      0xffffffffffffffffffffffffffffffffffffffff\n      and\n        /* \"LuckyDrawVRF.sol\":6460:6513  address winner = currentDraw.joinAddress[winnerIndex] */\n      swap1\n      pop\n        /* \"LuckyDrawVRF.sol\":6554:6565  uint256 fee */\n      0x00\n        /* \"LuckyDrawVRF.sol\":6595:6598  100 */\n      0x64\n        /* \"LuckyDrawVRF.sol\":342:344  18 */\n      0x12\n        /* \"LuckyDrawVRF.sol\":380:382  10 */\n      0x0a\n        /* \"LuckyDrawVRF.sol\":380:392  10**DECIMALS */\n      tag_233\n      swap2\n      swap1\n      tag_194\n      jump\t// in\n    tag_233:\n        /* \"LuckyDrawVRF.sol\":6591:6598  ONE/100 */\n      tag_234\n      swap2\n      swap1\n      tag_235\n      jump\t// in\n    tag_234:\n        /* \"LuckyDrawVRF.sol\":6566:6577  currentDraw */\n      dup6\n        /* \"LuckyDrawVRF.sol\":6566:6589  currentDraw.totalReward */\n      0x02\n      add\n      sload\n        /* \"LuckyDrawVRF.sol\":6566:6599  currentDraw.totalReward*(ONE/100) */\n      tag_236\n      swap2\n      swap1\n      tag_237\n      jump\t// in\n    tag_236:\n        /* \"LuckyDrawVRF.sol\":6554:6599  uint256 fee=currentDraw.totalReward*(ONE/100) */\n      swap1\n      pop\n        /* \"LuckyDrawVRF.sol\":6619:6622  fee */\n      dup1\n        /* \"LuckyDrawVRF.sol\":6609:6617  totalFee */\n      0x0c\n      0x00\n        /* \"LuckyDrawVRF.sol\":6609:6622  totalFee+=fee */\n      dup3\n      dup3\n      sload\n      tag_238\n      swap2\n      swap1\n      tag_190\n      jump\t// in\n    tag_238:\n      swap3\n      pop\n      pop\n      dup2\n      swap1\n      sstore\n      pop\n        /* \"LuckyDrawVRF.sol\":6669:6681  bool success */\n      0x00\n        /* \"LuckyDrawVRF.sol\":6687:6693  winner */\n      dup3\n        /* \"LuckyDrawVRF.sol\":6687:6698  winner.call */\n      0xffffffffffffffffffffffffffffffffffffffff\n      and\n        /* \"LuckyDrawVRF.sol\":6731:6734  fee */\n      dup3\n        /* \"LuckyDrawVRF.sol\":6707:6718  currentDraw */\n      dup8\n        /* \"LuckyDrawVRF.sol\":6707:6730  currentDraw.totalReward */\n      0x02\n      add\n      sload\n        /* \"LuckyDrawVRF.sol\":6707:6734  currentDraw.totalReward-fee */\n      tag_239\n      swap2\n      swap1\n      tag_240\n      jump\t// in\n    tag_239:\n        /* \"LuckyDrawVRF.sol\":6687:6740  winner.call{value: (currentDraw.totalReward-fee)}(\"\") */\n      mload(0x40)\n      tag_241\n      swap1\n      tag_137\n      jump\t// in\n    tag_241:\n      0x00\n      mload(0x40)\n      dup1\n      dup4\n      sub\n      dup2\n      dup6\n      dup8\n      gas\n      call\n      swap3\n      pop\n      pop\n      pop\n      returndatasize\n      dup1\n      0x00\n      dup2\n      eq\n      tag_244\n      jumpi\n      mload(0x40)\n      swap2\n      pop\n      and(add(returndatasize, 0x3f), not(0x1f))\n      dup3\n      add\n      0x40\n      mstore\n      returndatasize\n      dup3\n      mstore\n      returndatasize\n      0x00\n      0x20\n      dup5\n      add\n      returndatacopy\n      jump(tag_243)\n    tag_244:\n      0x60\n      swap2\n      pop\n    tag_243:\n      pop\n        /* \"LuckyDrawVRF.sol\":6668:6740  (bool success, ) = winner.call{value: (currentDraw.totalReward-fee)}(\"\") */\n      pop\n      swap1\n      pop\n        /* \"LuckyDrawVRF.sol\":6758:6765  success */\n      dup1\n        /* \"LuckyDrawVRF.sol\":6750:6791  require(success, \"Failed to send reward\") */\n      tag_245\n      jumpi\n      mload(0x40)\n      0x08c379a000000000000000000000000000000000000000000000000000000000\n      dup2\n      mstore\n      0x04\n      add\n      tag_246\n      swap1\n      tag_247\n      jump\t// in\n    tag_246:\n      mload(0x40)\n      dup1\n      swap2\n      sub\n      swap1\n      revert\n    tag_245:\n        /* \"LuckyDrawVRF.sol\":6840:6846  winner */\n      dup3\n        /* \"LuckyDrawVRF.sol\":6819:6830  currentDraw */\n      dup7\n        /* \"LuckyDrawVRF.sol\":6819:6837  currentDraw.winner */\n      0x04\n      add\n      0x00\n        /* \"LuckyDrawVRF.sol\":6819:6846  currentDraw.winner = winner */\n      0x0100\n      exp\n      dup2\n      sload\n      dup2\n      0xffffffffffffffffffffffffffffffffffffffff\n      mul\n      not\n      and\n      swap1\n      dup4\n      0xffffffffffffffffffffffffffffffffffffffff\n      and\n      mul\n      or\n      swap1\n      sstore\n      pop\n        /* \"LuckyDrawVRF.sol\":6873:6878  false */\n      0x00\n        /* \"LuckyDrawVRF.sol\":6856:6867  currentDraw */\n      dup7\n        /* \"LuckyDrawVRF.sol\":6856:6872  currentDraw.open */\n      0x06\n      add\n      0x00\n        /* \"LuckyDrawVRF.sol\":6856:6878  currentDraw.open=false */\n      0x0100\n      exp\n      dup2\n      sload\n      dup2\n      0xff\n      mul\n      not\n      and\n      swap1\n      dup4\n      iszero\n      iszero\n      mul\n      or\n      swap1\n      sstore\n      pop\n        /* \"LuckyDrawVRF.sol\":6902:6903  0 */\n      0x00\n        /* \"LuckyDrawVRF.sol\":6888:6901  hasProcessing */\n      0x0a\n      0x00\n        /* \"LuckyDrawVRF.sol\":6888:6903  hasProcessing=0 */\n      0x0100\n      exp\n      dup2\n      sload\n      dup2\n      0xff\n      mul\n      not\n      and\n      swap1\n      dup4\n      0xff\n      and\n      mul\n      or\n      swap1\n      sstore\n      pop\n        /* \"LuckyDrawVRF.sol\":6936:6998  EventDrawWinnerSuccess(winner, id, requestId, block.timestamp) */\n      0x4938abb0a1220e7b4a0dd8b149717aba799cd3d2263de30c997401abfa845241\n        /* \"LuckyDrawVRF.sol\":6959:6965  winner */\n      dup4\n        /* \"LuckyDrawVRF.sol\":6967:6969  id */\n      dup9\n        /* \"LuckyDrawVRF.sol\":6971:6980  requestId */\n      dup13\n        /* \"LuckyDrawVRF.sol\":6982:6997  block.timestamp */\n      timestamp\n        /* \"LuckyDrawVRF.sol\":6936:6998  EventDrawWinnerSuccess(winner, id, requestId, block.timestamp) */\n      mload(0x40)\n      tag_248\n      swap5\n      swap4\n      swap3\n      swap2\n      swap1\n      tag_156\n      jump\t// in\n    tag_248:\n      mload(0x40)\n      dup1\n      swap2\n      sub\n      swap1\n      log1\n        /* \"LuckyDrawVRF.sol\":5957:7005  {... */\n      pop\n      pop\n      pop\n      pop\n      pop\n      pop\n      pop\n        /* \"LuckyDrawVRF.sol\":5860:7005  function fulfillRandomWords(uint256 requestId, uint256[] calldata randomWords) internal override {... */\n      pop\n      pop\n      pop\n      jump\t// out\n        /* \"@chainlink/contracts/src/v0.8/vrf/dev/libraries/VRFV2PlusClient.sol\":475:638  function _argsToBytes(ExtraArgsV1 memory extraArgs) internal pure returns (bytes memory bts) {... */\n    tag_148:\n        /* \"@chainlink/contracts/src/v0.8/vrf/dev/libraries/VRFV2PlusClient.sol\":550:566  bytes memory bts */\n      0x60\n        /* \"@chainlink/contracts/src/v0.8/vrf/dev/libraries/VRFV2PlusClient.sol\":211:239  keccak256(\"VRF ExtraArgsV1\") */\n      0x92fd13387c7fe7befbc38d303d6468778fb9731bc4583f17d92989c6fcfdeaaa\n        /* \"@chainlink/contracts/src/v0.8/vrf/dev/libraries/VRFV2PlusClient.sol\":623:632  extraArgs */\n      dup3\n        /* \"@chainlink/contracts/src/v0.8/vrf/dev/libraries/VRFV2PlusClient.sol\":581:633  abi.encodeWithSelector(EXTRA_ARGS_V1_TAG, extraArgs) */\n      add(0x24, mload(0x40))\n      tag_250\n      swap2\n      swap1\n      tag_251\n      jump\t// in\n    tag_250:\n      mload(0x40)\n      0x20\n      dup2\n      dup4\n      sub\n      sub\n      dup2\n      mstore\n      swap1\n      0x40\n      mstore\n      swap1\n      not(0xffffffffffffffffffffffffffffffffffffffffffffffffffffffff)\n      and\n      0x20\n      dup3\n      add\n      dup1\n      mload\n      0xffffffffffffffffffffffffffffffffffffffffffffffffffffffff\n      dup4\n      dup2\n      dup4\n      and\n      or\n      dup4\n      mstore\n      pop\n      pop\n      pop\n      pop\n        /* \"@chainlink/contracts/src/v0.8/vrf/dev/libraries/VRFV2PlusClient.sol\":574:633  return abi.encodeWithSelector(EXTRA_ARGS_V1_TAG, extraArgs) */\n      swap1\n      pop\n        /* \"@chainlink/contracts/src/v0.8/vrf/dev/libraries/VRFV2PlusClient.sol\":475:638  function _argsToBytes(ExtraArgsV1 memory extraArgs) internal pure returns (bytes memory bts) {... */\n      swap2\n      swap1\n      pop\n      jump\t// out\n        /* \"@chainlink/contracts/src/v0.8/shared/access/ConfirmedOwnerWithProposal.sol\":1536:1775  function _transferOwnership(address to) private {... */\n    tag_201:\n        /* \"@chainlink/contracts/src/v0.8/shared/access/ConfirmedOwnerWithProposal.sol\":1655:1665  msg.sender */\n      caller\n        /* \"@chainlink/contracts/src/v0.8/shared/access/ConfirmedOwnerWithProposal.sol\":1649:1665  to != msg.sender */\n      0xffffffffffffffffffffffffffffffffffffffff\n      and\n        /* \"@chainlink/contracts/src/v0.8/shared/access/ConfirmedOwnerWithProposal.sol\":1649:1651  to */\n      dup2\n        /* \"@chainlink/contracts/src/v0.8/shared/access/ConfirmedOwnerWithProposal.sol\":1649:1665  to != msg.sender */\n      0xffffffffffffffffffffffffffffffffffffffff\n      and\n      sub\n        /* \"@chainlink/contracts/src/v0.8/shared/access/ConfirmedOwnerWithProposal.sol\":1641:1693  require(to != msg.sender, \"Cannot transfer to self\") */\n      tag_253\n      jumpi\n      mload(0x40)\n      0x08c379a000000000000000000000000000000000000000000000000000000000\n      dup2\n      mstore\n      0x04\n      add\n      tag_254\n      swap1\n      tag_255\n      jump\t// in\n    tag_254:\n      mload(0x40)\n      dup1\n      swap2\n      sub\n      swap1\n      revert\n    tag_253:\n        /* \"@chainlink/contracts/src/v0.8/shared/access/ConfirmedOwnerWithProposal.sol\":1717:1719  to */\n      dup1\n        /* \"@chainlink/contracts/src/v0.8/shared/access/ConfirmedOwnerWithProposal.sol\":1700:1714  s_pendingOwner */\n      0x01\n      0x00\n        /* \"@chainlink/contracts/src/v0.8/shared/access/ConfirmedOwnerWithProposal.sol\":1700:1719  s_pendingOwner = to */\n      0x0100\n      exp\n      dup2\n      sload\n      dup2\n      0xffffffffffffffffffffffffffffffffffffffff\n      mul\n      not\n      and\n      swap1\n      dup4\n      0xffffffffffffffffffffffffffffffffffffffff\n      and\n      mul\n      or\n      swap1\n      sstore\n      pop\n        /* \"@chainlink/contracts/src/v0.8/shared/access/ConfirmedOwnerWithProposal.sol\":1767:1769  to */\n      dup1\n        /* \"@chainlink/contracts/src/v0.8/shared/access/ConfirmedOwnerWithProposal.sol\":1731:1770  OwnershipTransferRequested(s_owner, to) */\n      0xffffffffffffffffffffffffffffffffffffffff\n      and\n        /* \"@chainlink/contracts/src/v0.8/shared/access/ConfirmedOwnerWithProposal.sol\":1758:1765  s_owner */\n      0x00\n      0x00\n      swap1\n      sload\n      swap1\n      0x0100\n      exp\n      swap1\n      div\n      0xffffffffffffffffffffffffffffffffffffffff\n      and\n        /* \"@chainlink/contracts/src/v0.8/shared/access/ConfirmedOwnerWithProposal.sol\":1731:1770  OwnershipTransferRequested(s_owner, to) */\n      0xffffffffffffffffffffffffffffffffffffffff\n      and\n      0xed8889f560326eb138920d842192f0eb3dd22b4f139c87a2c57538e05bae1278\n      mload(0x40)\n      mload(0x40)\n      dup1\n      swap2\n      sub\n      swap1\n      log3\n        /* \"@chainlink/contracts/src/v0.8/shared/access/ConfirmedOwnerWithProposal.sol\":1536:1775  function _transferOwnership(address to) private {... */\n      pop\n      jump\t// out\n        /* \"#utility.yul\":88:205   */\n    tag_257:\n        /* \"#utility.yul\":197:198   */\n      0x00\n        /* \"#utility.yul\":194:195   */\n      0x00\n        /* \"#utility.yul\":187:199   */\n      revert\n        /* \"#utility.yul\":211:328   */\n    tag_258:\n        /* \"#utility.yul\":320:321   */\n      0x00\n        /* \"#utility.yul\":317:318   */\n      0x00\n        /* \"#utility.yul\":310:322   */\n      revert\n        /* \"#utility.yul\":334:411   */\n    tag_259:\n        /* \"#utility.yul\":371:378   */\n      0x00\n        /* \"#utility.yul\":400:405   */\n      dup2\n        /* \"#utility.yul\":389:405   */\n      swap1\n      pop\n        /* \"#utility.yul\":334:411   */\n      swap2\n      swap1\n      pop\n      jump\t// out\n        /* \"#utility.yul\":417:539   */\n    tag_260:\n        /* \"#utility.yul\":490:514   */\n      tag_353\n        /* \"#utility.yul\":508:513   */\n      dup2\n        /* \"#utility.yul\":490:514   */\n      tag_259\n      jump\t// in\n    tag_353:\n        /* \"#utility.yul\":483:488   */\n      dup2\n        /* \"#utility.yul\":480:515   */\n      eq\n        /* \"#utility.yul\":470:533   */\n      tag_354\n      jumpi\n        /* \"#utility.yul\":529:530   */\n      0x00\n        /* \"#utility.yul\":526:527   */\n      0x00\n        /* \"#utility.yul\":519:531   */\n      revert\n        /* \"#utility.yul\":470:533   */\n    tag_354:\n        /* \"#utility.yul\":417:539   */\n      pop\n      jump\t// out\n        /* \"#utility.yul\":545:684   */\n    tag_261:\n        /* \"#utility.yul\":591:596   */\n      0x00\n        /* \"#utility.yul\":629:635   */\n      dup2\n        /* \"#utility.yul\":616:636   */\n      calldataload\n        /* \"#utility.yul\":607:636   */\n      swap1\n      pop\n        /* \"#utility.yul\":645:678   */\n      tag_356\n        /* \"#utility.yul\":672:677   */\n      dup2\n        /* \"#utility.yul\":645:678   */\n      tag_260\n      jump\t// in\n    tag_356:\n        /* \"#utility.yul\":545:684   */\n      swap3\n      swap2\n      pop\n      pop\n      jump\t// out\n        /* \"#utility.yul\":690:807   */\n    tag_262:\n        /* \"#utility.yul\":799:800   */\n      0x00\n        /* \"#utility.yul\":796:797   */\n      0x00\n        /* \"#utility.yul\":789:801   */\n      revert\n        /* \"#utility.yul\":813:930   */\n    tag_263:\n        /* \"#utility.yul\":922:923   */\n      0x00\n        /* \"#utility.yul\":919:920   */\n      0x00\n        /* \"#utility.yul\":912:924   */\n      revert\n        /* \"#utility.yul\":936:1053   */\n    tag_264:\n        /* \"#utility.yul\":1045:1046   */\n      0x00\n        /* \"#utility.yul\":1042:1043   */\n      0x00\n        /* \"#utility.yul\":1035:1047   */\n      revert\n        /* \"#utility.yul\":1076:1644   */\n    tag_265:\n        /* \"#utility.yul\":1149:1157   */\n      0x00\n        /* \"#utility.yul\":1159:1165   */\n      0x00\n        /* \"#utility.yul\":1209:1212   */\n      dup4\n        /* \"#utility.yul\":1202:1206   */\n      0x1f\n        /* \"#utility.yul\":1194:1200   */\n      dup5\n        /* \"#utility.yul\":1190:1207   */\n      add\n        /* \"#utility.yul\":1186:1213   */\n      slt\n        /* \"#utility.yul\":1176:1298   */\n      tag_361\n      jumpi\n        /* \"#utility.yul\":1217:1296   */\n      tag_362\n      tag_262\n      jump\t// in\n    tag_362:\n        /* \"#utility.yul\":1176:1298   */\n    tag_361:\n        /* \"#utility.yul\":1330:1336   */\n      dup3\n        /* \"#utility.yul\":1317:1337   */\n      calldataload\n        /* \"#utility.yul\":1307:1337   */\n      swap1\n      pop\n        /* \"#utility.yul\":1360:1378   */\n      0xffffffffffffffff\n        /* \"#utility.yul\":1352:1358   */\n      dup2\n        /* \"#utility.yul\":1349:1379   */\n      gt\n        /* \"#utility.yul\":1346:1463   */\n      iszero\n      tag_363\n      jumpi\n        /* \"#utility.yul\":1382:1461   */\n      tag_364\n      tag_263\n      jump\t// in\n    tag_364:\n        /* \"#utility.yul\":1346:1463   */\n    tag_363:\n        /* \"#utility.yul\":1496:1500   */\n      0x20\n        /* \"#utility.yul\":1488:1494   */\n      dup4\n        /* \"#utility.yul\":1484:1501   */\n      add\n        /* \"#utility.yul\":1472:1501   */\n      swap2\n      pop\n        /* \"#utility.yul\":1550:1553   */\n      dup4\n        /* \"#utility.yul\":1542:1546   */\n      0x20\n        /* \"#utility.yul\":1534:1540   */\n      dup3\n        /* \"#utility.yul\":1530:1547   */\n      mul\n        /* \"#utility.yul\":1520:1528   */\n      dup4\n        /* \"#utility.yul\":1516:1548   */\n      add\n        /* \"#utility.yul\":1513:1554   */\n      gt\n        /* \"#utility.yul\":1510:1638   */\n      iszero\n      tag_365\n      jumpi\n        /* \"#utility.yul\":1557:1636   */\n      tag_366\n      tag_264\n      jump\t// in\n    tag_366:\n        /* \"#utility.yul\":1510:1638   */\n    tag_365:\n        /* \"#utility.yul\":1076:1644   */\n      swap3\n      pop\n      swap3\n      swap1\n      pop\n      jump\t// out\n        /* \"#utility.yul\":1650:2354   */\n    tag_27:\n        /* \"#utility.yul\":1745:1751   */\n      0x00\n        /* \"#utility.yul\":1753:1759   */\n      0x00\n        /* \"#utility.yul\":1761:1767   */\n      0x00\n        /* \"#utility.yul\":1810:1812   */\n      0x40\n        /* \"#utility.yul\":1798:1807   */\n      dup5\n        /* \"#utility.yul\":1789:1796   */\n      dup7\n        /* \"#utility.yul\":1785:1808   */\n      sub\n        /* \"#utility.yul\":1781:1813   */\n      slt\n        /* \"#utility.yul\":1778:1897   */\n      iszero\n      tag_368\n      jumpi\n        /* \"#utility.yul\":1816:1895   */\n      tag_369\n      tag_257\n      jump\t// in\n    tag_369:\n        /* \"#utility.yul\":1778:1897   */\n    tag_368:\n        /* \"#utility.yul\":1936:1937   */\n      0x00\n        /* \"#utility.yul\":1961:2014   */\n      tag_370\n        /* \"#utility.yul\":2006:2013   */\n      dup7\n        /* \"#utility.yul\":1997:2003   */\n      dup3\n        /* \"#utility.yul\":1986:1995   */\n      dup8\n        /* \"#utility.yul\":1982:2004   */\n      add\n        /* \"#utility.yul\":1961:2014   */\n      tag_261\n      jump\t// in\n    tag_370:\n        /* \"#utility.yul\":1951:2014   */\n      swap4\n      pop\n        /* \"#utility.yul\":1907:2024   */\n      pop\n        /* \"#utility.yul\":2091:2093   */\n      0x20\n        /* \"#utility.yul\":2080:2089   */\n      dup5\n        /* \"#utility.yul\":2076:2094   */\n      add\n        /* \"#utility.yul\":2063:2095   */\n      calldataload\n        /* \"#utility.yul\":2122:2140   */\n      0xffffffffffffffff\n        /* \"#utility.yul\":2114:2120   */\n      dup2\n        /* \"#utility.yul\":2111:2141   */\n      gt\n        /* \"#utility.yul\":2108:2225   */\n      iszero\n      tag_371\n      jumpi\n        /* \"#utility.yul\":2144:2223   */\n      tag_372\n      tag_258\n      jump\t// in\n    tag_372:\n        /* \"#utility.yul\":2108:2225   */\n    tag_371:\n        /* \"#utility.yul\":2257:2337   */\n      tag_373\n        /* \"#utility.yul\":2329:2336   */\n      dup7\n        /* \"#utility.yul\":2320:2326   */\n      dup3\n        /* \"#utility.yul\":2309:2318   */\n      dup8\n        /* \"#utility.yul\":2305:2327   */\n      add\n        /* \"#utility.yul\":2257:2337   */\n      tag_265\n      jump\t// in\n    tag_373:\n        /* \"#utility.yul\":2239:2337   */\n      swap3\n      pop\n      swap3\n      pop\n        /* \"#utility.yul\":2034:2347   */\n      pop\n        /* \"#utility.yul\":1650:2354   */\n      swap3\n      pop\n      swap3\n      pop\n      swap3\n      jump\t// out\n        /* \"#utility.yul\":2360:2478   */\n    tag_266:\n        /* \"#utility.yul\":2447:2471   */\n      tag_375\n        /* \"#utility.yul\":2465:2470   */\n      dup2\n        /* \"#utility.yul\":2447:2471   */\n      tag_259\n      jump\t// in\n    tag_375:\n        /* \"#utility.yul\":2442:2445   */\n      dup3\n        /* \"#utility.yul\":2435:2472   */\n      mstore\n        /* \"#utility.yul\":2360:2478   */\n      pop\n      pop\n      jump\t// out\n        /* \"#utility.yul\":2484:2706   */\n    tag_33:\n        /* \"#utility.yul\":2577:2581   */\n      0x00\n        /* \"#utility.yul\":2615:2617   */\n      0x20\n        /* \"#utility.yul\":2604:2613   */\n      dup3\n        /* \"#utility.yul\":2600:2618   */\n      add\n        /* \"#utility.yul\":2592:2618   */\n      swap1\n      pop\n        /* \"#utility.yul\":2628:2699   */\n      tag_377\n        /* \"#utility.yul\":2696:2697   */\n      0x00\n        /* \"#utility.yul\":2685:2694   */\n      dup4\n        /* \"#utility.yul\":2681:2698   */\n      add\n        /* \"#utility.yul\":2672:2678   */\n      dup5\n        /* \"#utility.yul\":2628:2699   */\n      tag_266\n      jump\t// in\n    tag_377:\n        /* \"#utility.yul\":2484:2706   */\n      swap3\n      swap2\n      pop\n      pop\n      jump\t// out\n        /* \"#utility.yul\":2712:3041   */\n    tag_37:\n        /* \"#utility.yul\":2771:2777   */\n      0x00\n        /* \"#utility.yul\":2820:2822   */\n      0x20\n        /* \"#utility.yul\":2808:2817   */\n      dup3\n        /* \"#utility.yul\":2799:2806   */\n      dup5\n        /* \"#utility.yul\":2795:2818   */\n      sub\n        /* \"#utility.yul\":2791:2823   */\n      slt\n        /* \"#utility.yul\":2788:2907   */\n      iszero\n      tag_379\n      jumpi\n        /* \"#utility.yul\":2826:2905   */\n      tag_380\n      tag_257\n      jump\t// in\n    tag_380:\n        /* \"#utility.yul\":2788:2907   */\n    tag_379:\n        /* \"#utility.yul\":2946:2947   */\n      0x00\n        /* \"#utility.yul\":2971:3024   */\n      tag_381\n        /* \"#utility.yul\":3016:3023   */\n      dup5\n        /* \"#utility.yul\":3007:3013   */\n      dup3\n        /* \"#utility.yul\":2996:3005   */\n      dup6\n        /* \"#utility.yul\":2992:3014   */\n      add\n        /* \"#utility.yul\":2971:3024   */\n      tag_261\n      jump\t// in\n    tag_381:\n        /* \"#utility.yul\":2961:3024   */\n      swap2\n      pop\n        /* \"#utility.yul\":2917:3034   */\n      pop\n        /* \"#utility.yul\":2712:3041   */\n      swap3\n      swap2\n      pop\n      pop\n      jump\t// out\n        /* \"#utility.yul\":3047:3173   */\n    tag_267:\n        /* \"#utility.yul\":3084:3091   */\n      0x00\n        /* \"#utility.yul\":3124:3166   */\n      0xffffffffffffffffffffffffffffffffffffffff\n        /* \"#utility.yul\":3117:3122   */\n      dup3\n        /* \"#utility.yul\":3113:3167   */\n      and\n        /* \"#utility.yul\":3102:3167   */\n      swap1\n      pop\n        /* \"#utility.yul\":3047:3173   */\n      swap2\n      swap1\n      pop\n      jump\t// out\n        /* \"#utility.yul\":3179:3275   */\n    tag_268:\n        /* \"#utility.yul\":3216:3223   */\n      0x00\n        /* \"#utility.yul\":3245:3269   */\n      tag_384\n        /* \"#utility.yul\":3263:3268   */\n      dup3\n        /* \"#utility.yul\":3245:3269   */\n      tag_267\n      jump\t// in\n    tag_384:\n        /* \"#utility.yul\":3234:3269   */\n      swap1\n      pop\n        /* \"#utility.yul\":3179:3275   */\n      swap2\n      swap1\n      pop\n      jump\t// out\n        /* \"#utility.yul\":3281:3399   */\n    tag_269:\n        /* \"#utility.yul\":3368:3392   */\n      tag_386\n        /* \"#utility.yul\":3386:3391   */\n      dup2\n        /* \"#utility.yul\":3368:3392   */\n      tag_268\n      jump\t// in\n    tag_386:\n        /* \"#utility.yul\":3363:3366   */\n      dup3\n        /* \"#utility.yul\":3356:3393   */\n      mstore\n        /* \"#utility.yul\":3281:3399   */\n      pop\n      pop\n      jump\t// out\n        /* \"#utility.yul\":3405:3495   */\n    tag_270:\n        /* \"#utility.yul\":3439:3446   */\n      0x00\n        /* \"#utility.yul\":3482:3487   */\n      dup2\n        /* \"#utility.yul\":3475:3488   */\n      iszero\n        /* \"#utility.yul\":3468:3489   */\n      iszero\n        /* \"#utility.yul\":3457:3489   */\n      swap1\n      pop\n        /* \"#utility.yul\":3405:3495   */\n      swap2\n      swap1\n      pop\n      jump\t// out\n        /* \"#utility.yul\":3501:3610   */\n    tag_271:\n        /* \"#utility.yul\":3582:3603   */\n      tag_389\n        /* \"#utility.yul\":3597:3602   */\n      dup2\n        /* \"#utility.yul\":3582:3603   */\n      tag_270\n      jump\t// in\n    tag_389:\n        /* \"#utility.yul\":3577:3580   */\n      dup3\n        /* \"#utility.yul\":3570:3604   */\n      mstore\n        /* \"#utility.yul\":3501:3610   */\n      pop\n      pop\n      jump\t// out\n        /* \"#utility.yul\":3616:4601   */\n    tag_40:\n        /* \"#utility.yul\":3899:3903   */\n      0x00\n        /* \"#utility.yul\":3937:3940   */\n      0x0100\n        /* \"#utility.yul\":3926:3935   */\n      dup3\n        /* \"#utility.yul\":3922:3941   */\n      add\n        /* \"#utility.yul\":3914:3941   */\n      swap1\n      pop\n        /* \"#utility.yul\":3951:4022   */\n      tag_391\n        /* \"#utility.yul\":4019:4020   */\n      0x00\n        /* \"#utility.yul\":4008:4017   */\n      dup4\n        /* \"#utility.yul\":4004:4021   */\n      add\n        /* \"#utility.yul\":3995:4001   */\n      dup12\n        /* \"#utility.yul\":3951:4022   */\n      tag_266\n      jump\t// in\n    tag_391:\n        /* \"#utility.yul\":4032:4104   */\n      tag_392\n        /* \"#utility.yul\":4100:4102   */\n      0x20\n        /* \"#utility.yul\":4089:4098   */\n      dup4\n        /* \"#utility.yul\":4085:4103   */\n      add\n        /* \"#utility.yul\":4076:4082   */\n      dup11\n        /* \"#utility.yul\":4032:4104   */\n      tag_266\n      jump\t// in\n    tag_392:\n        /* \"#utility.yul\":4114:4186   */\n      tag_393\n        /* \"#utility.yul\":4182:4184   */\n      0x40\n        /* \"#utility.yul\":4171:4180   */\n      dup4\n        /* \"#utility.yul\":4167:4185   */\n      add\n        /* \"#utility.yul\":4158:4164   */\n      dup10\n        /* \"#utility.yul\":4114:4186   */\n      tag_266\n      jump\t// in\n    tag_393:\n        /* \"#utility.yul\":4196:4268   */\n      tag_394\n        /* \"#utility.yul\":4264:4266   */\n      0x60\n        /* \"#utility.yul\":4253:4262   */\n      dup4\n        /* \"#utility.yul\":4249:4267   */\n      add\n        /* \"#utility.yul\":4240:4246   */\n      dup9\n        /* \"#utility.yul\":4196:4268   */\n      tag_269\n      jump\t// in\n    tag_394:\n        /* \"#utility.yul\":4278:4351   */\n      tag_395\n        /* \"#utility.yul\":4346:4349   */\n      0x80\n        /* \"#utility.yul\":4335:4344   */\n      dup4\n        /* \"#utility.yul\":4331:4350   */\n      add\n        /* \"#utility.yul\":4322:4328   */\n      dup8\n        /* \"#utility.yul\":4278:4351   */\n      tag_269\n      jump\t// in\n    tag_395:\n        /* \"#utility.yul\":4361:4434   */\n      tag_396\n        /* \"#utility.yul\":4429:4432   */\n      0xa0\n        /* \"#utility.yul\":4418:4427   */\n      dup4\n        /* \"#utility.yul\":4414:4433   */\n      add\n        /* \"#utility.yul\":4405:4411   */\n      dup7\n        /* \"#utility.yul\":4361:4434   */\n      tag_266\n      jump\t// in\n    tag_396:\n        /* \"#utility.yul\":4444:4511   */\n      tag_397\n        /* \"#utility.yul\":4506:4509   */\n      0xc0\n        /* \"#utility.yul\":4495:4504   */\n      dup4\n        /* \"#utility.yul\":4491:4510   */\n      add\n        /* \"#utility.yul\":4482:4488   */\n      dup6\n        /* \"#utility.yul\":4444:4511   */\n      tag_271\n      jump\t// in\n    tag_397:\n        /* \"#utility.yul\":4521:4594   */\n      tag_398\n        /* \"#utility.yul\":4589:4592   */\n      0xe0\n        /* \"#utility.yul\":4578:4587   */\n      dup4\n        /* \"#utility.yul\":4574:4593   */\n      add\n        /* \"#utility.yul\":4565:4571   */\n      dup5\n        /* \"#utility.yul\":4521:4594   */\n      tag_266\n      jump\t// in\n    tag_398:\n        /* \"#utility.yul\":3616:4601   */\n      swap10\n      swap9\n      pop\n      pop\n      pop\n      pop\n      pop\n      pop\n      pop\n      pop\n      pop\n      jump\t// out\n        /* \"#utility.yul\":4607:4829   */\n    tag_61:\n        /* \"#utility.yul\":4700:4704   */\n      0x00\n        /* \"#utility.yul\":4738:4740   */\n      0x20\n        /* \"#utility.yul\":4727:4736   */\n      dup3\n        /* \"#utility.yul\":4723:4741   */\n      add\n        /* \"#utility.yul\":4715:4741   */\n      swap1\n      pop\n        /* \"#utility.yul\":4751:4822   */\n      tag_400\n        /* \"#utility.yul\":4819:4820   */\n      0x00\n        /* \"#utility.yul\":4808:4817   */\n      dup4\n        /* \"#utility.yul\":4804:4821   */\n      add\n        /* \"#utility.yul\":4795:4801   */\n      dup5\n        /* \"#utility.yul\":4751:4822   */\n      tag_269\n      jump\t// in\n    tag_400:\n        /* \"#utility.yul\":4607:4829   */\n      swap3\n      swap2\n      pop\n      pop\n      jump\t// out\n        /* \"#utility.yul\":4835:4957   */\n    tag_272:\n        /* \"#utility.yul\":4908:4932   */\n      tag_402\n        /* \"#utility.yul\":4926:4931   */\n      dup2\n        /* \"#utility.yul\":4908:4932   */\n      tag_268\n      jump\t// in\n    tag_402:\n        /* \"#utility.yul\":4901:4906   */\n      dup2\n        /* \"#utility.yul\":4898:4933   */\n      eq\n        /* \"#utility.yul\":4888:4951   */\n      tag_403\n      jumpi\n        /* \"#utility.yul\":4947:4948   */\n      0x00\n        /* \"#utility.yul\":4944:4945   */\n      0x00\n        /* \"#utility.yul\":4937:4949   */\n      revert\n        /* \"#utility.yul\":4888:4951   */\n    tag_403:\n        /* \"#utility.yul\":4835:4957   */\n      pop\n      jump\t// out\n        /* \"#utility.yul\":4963:5102   */\n    tag_273:\n        /* \"#utility.yul\":5009:5014   */\n      0x00\n        /* \"#utility.yul\":5047:5053   */\n      dup2\n        /* \"#utility.yul\":5034:5054   */\n      calldataload\n        /* \"#utility.yul\":5025:5054   */\n      swap1\n      pop\n        /* \"#utility.yul\":5063:5096   */\n      tag_405\n        /* \"#utility.yul\":5090:5095   */\n      dup2\n        /* \"#utility.yul\":5063:5096   */\n      tag_272\n      jump\t// in\n    tag_405:\n        /* \"#utility.yul\":4963:5102   */\n      swap3\n      swap2\n      pop\n      pop\n      jump\t// out\n        /* \"#utility.yul\":5108:5437   */\n    tag_65:\n        /* \"#utility.yul\":5167:5173   */\n      0x00\n        /* \"#utility.yul\":5216:5218   */\n      0x20\n        /* \"#utility.yul\":5204:5213   */\n      dup3\n        /* \"#utility.yul\":5195:5202   */\n      dup5\n        /* \"#utility.yul\":5191:5214   */\n      sub\n        /* \"#utility.yul\":5187:5219   */\n      slt\n        /* \"#utility.yul\":5184:5303   */\n      iszero\n      tag_407\n      jumpi\n        /* \"#utility.yul\":5222:5301   */\n      tag_408\n      tag_257\n      jump\t// in\n    tag_408:\n        /* \"#utility.yul\":5184:5303   */\n    tag_407:\n        /* \"#utility.yul\":5342:5343   */\n      0x00\n        /* \"#utility.yul\":5367:5420   */\n      tag_409\n        /* \"#utility.yul\":5412:5419   */\n      dup5\n        /* \"#utility.yul\":5403:5409   */\n      dup3\n        /* \"#utility.yul\":5392:5401   */\n      dup6\n        /* \"#utility.yul\":5388:5410   */\n      add\n        /* \"#utility.yul\":5367:5420   */\n      tag_273\n      jump\t// in\n    tag_409:\n        /* \"#utility.yul\":5357:5420   */\n      swap2\n      pop\n        /* \"#utility.yul\":5313:5430   */\n      pop\n        /* \"#utility.yul\":5108:5437   */\n      swap3\n      swap2\n      pop\n      pop\n      jump\t// out\n        /* \"#utility.yul\":5443:5503   */\n    tag_274:\n        /* \"#utility.yul\":5471:5474   */\n      0x00\n        /* \"#utility.yul\":5492:5497   */\n      dup2\n        /* \"#utility.yul\":5485:5497   */\n      swap1\n      pop\n        /* \"#utility.yul\":5443:5503   */\n      swap2\n      swap1\n      pop\n      jump\t// out\n        /* \"#utility.yul\":5509:5651   */\n    tag_275:\n        /* \"#utility.yul\":5559:5568   */\n      0x00\n        /* \"#utility.yul\":5592:5645   */\n      tag_412\n        /* \"#utility.yul\":5610:5644   */\n      tag_413\n        /* \"#utility.yul\":5619:5643   */\n      tag_414\n        /* \"#utility.yul\":5637:5642   */\n      dup5\n        /* \"#utility.yul\":5619:5643   */\n      tag_267\n      jump\t// in\n    tag_414:\n        /* \"#utility.yul\":5610:5644   */\n      tag_274\n      jump\t// in\n    tag_413:\n        /* \"#utility.yul\":5592:5645   */\n      tag_267\n      jump\t// in\n    tag_412:\n        /* \"#utility.yul\":5579:5645   */\n      swap1\n      pop\n        /* \"#utility.yul\":5509:5651   */\n      swap2\n      swap1\n      pop\n      jump\t// out\n        /* \"#utility.yul\":5657:5783   */\n    tag_276:\n        /* \"#utility.yul\":5707:5716   */\n      0x00\n        /* \"#utility.yul\":5740:5777   */\n      tag_416\n        /* \"#utility.yul\":5771:5776   */\n      dup3\n        /* \"#utility.yul\":5740:5777   */\n      tag_275\n      jump\t// in\n    tag_416:\n        /* \"#utility.yul\":5727:5777   */\n      swap1\n      pop\n        /* \"#utility.yul\":5657:5783   */\n      swap2\n      swap1\n      pop\n      jump\t// out\n        /* \"#utility.yul\":5789:5944   */\n    tag_277:\n        /* \"#utility.yul\":5868:5877   */\n      0x00\n        /* \"#utility.yul\":5901:5938   */\n      tag_418\n        /* \"#utility.yul\":5932:5937   */\n      dup3\n        /* \"#utility.yul\":5901:5938   */\n      tag_276\n      jump\t// in\n    tag_418:\n        /* \"#utility.yul\":5888:5938   */\n      swap1\n      pop\n        /* \"#utility.yul\":5789:5944   */\n      swap2\n      swap1\n      pop\n      jump\t// out\n        /* \"#utility.yul\":5950:6139   */\n    tag_278:\n        /* \"#utility.yul\":6066:6132   */\n      tag_420\n        /* \"#utility.yul\":6126:6131   */\n      dup2\n        /* \"#utility.yul\":6066:6132   */\n      tag_277\n      jump\t// in\n    tag_420:\n        /* \"#utility.yul\":6061:6064   */\n      dup3\n        /* \"#utility.yul\":6054:6133   */\n      mstore\n        /* \"#utility.yul\":5950:6139   */\n      pop\n      pop\n      jump\t// out\n        /* \"#utility.yul\":6145:6425   */\n    tag_71:\n        /* \"#utility.yul\":6267:6271   */\n      0x00\n        /* \"#utility.yul\":6305:6307   */\n      0x20\n        /* \"#utility.yul\":6294:6303   */\n      dup3\n        /* \"#utility.yul\":6290:6308   */\n      add\n        /* \"#utility.yul\":6282:6308   */\n      swap1\n      pop\n        /* \"#utility.yul\":6318:6418   */\n      tag_422\n        /* \"#utility.yul\":6415:6416   */\n      0x00\n        /* \"#utility.yul\":6404:6413   */\n      dup4\n        /* \"#utility.yul\":6400:6417   */\n      add\n        /* \"#utility.yul\":6391:6397   */\n      dup5\n        /* \"#utility.yul\":6318:6418   */\n      tag_278\n      jump\t// in\n    tag_422:\n        /* \"#utility.yul\":6145:6425   */\n      swap3\n      swap2\n      pop\n      pop\n      jump\t// out\n        /* \"#utility.yul\":6431:6905   */\n    tag_86:\n        /* \"#utility.yul\":6499:6505   */\n      0x00\n        /* \"#utility.yul\":6507:6513   */\n      0x00\n        /* \"#utility.yul\":6556:6558   */\n      0x40\n        /* \"#utility.yul\":6544:6553   */\n      dup4\n        /* \"#utility.yul\":6535:6542   */\n      dup6\n        /* \"#utility.yul\":6531:6554   */\n      sub\n        /* \"#utility.yul\":6527:6559   */\n      slt\n        /* \"#utility.yul\":6524:6643   */\n      iszero\n      tag_424\n      jumpi\n        /* \"#utility.yul\":6562:6641   */\n      tag_425\n      tag_257\n      jump\t// in\n    tag_425:\n        /* \"#utility.yul\":6524:6643   */\n    tag_424:\n        /* \"#utility.yul\":6682:6683   */\n      0x00\n        /* \"#utility.yul\":6707:6760   */\n      tag_426\n        /* \"#utility.yul\":6752:6759   */\n      dup6\n        /* \"#utility.yul\":6743:6749   */\n      dup3\n        /* \"#utility.yul\":6732:6741   */\n      dup7\n        /* \"#utility.yul\":6728:6750   */\n      add\n        /* \"#utility.yul\":6707:6760   */\n      tag_261\n      jump\t// in\n    tag_426:\n        /* \"#utility.yul\":6697:6760   */\n      swap3\n      pop\n        /* \"#utility.yul\":6653:6770   */\n      pop\n        /* \"#utility.yul\":6809:6811   */\n      0x20\n        /* \"#utility.yul\":6835:6888   */\n      tag_427\n        /* \"#utility.yul\":6880:6887   */\n      dup6\n        /* \"#utility.yul\":6871:6877   */\n      dup3\n        /* \"#utility.yul\":6860:6869   */\n      dup7\n        /* \"#utility.yul\":6856:6878   */\n      add\n        /* \"#utility.yul\":6835:6888   */\n      tag_273\n      jump\t// in\n    tag_427:\n        /* \"#utility.yul\":6825:6888   */\n      swap2\n      pop\n        /* \"#utility.yul\":6780:6898   */\n      pop\n        /* \"#utility.yul\":6431:6905   */\n      swap3\n      pop\n      swap3\n      swap1\n      pop\n      jump\t// out\n        /* \"#utility.yul\":6911:7530   */\n    tag_95:\n        /* \"#utility.yul\":6988:6994   */\n      0x00\n        /* \"#utility.yul\":6996:7002   */\n      0x00\n        /* \"#utility.yul\":7004:7010   */\n      0x00\n        /* \"#utility.yul\":7053:7055   */\n      0x60\n        /* \"#utility.yul\":7041:7050   */\n      dup5\n        /* \"#utility.yul\":7032:7039   */\n      dup7\n        /* \"#utility.yul\":7028:7051   */\n      sub\n        /* \"#utility.yul\":7024:7056   */\n      slt\n        /* \"#utility.yul\":7021:7140   */\n      iszero\n      tag_429\n      jumpi\n        /* \"#utility.yul\":7059:7138   */\n      tag_430\n      tag_257\n      jump\t// in\n    tag_430:\n        /* \"#utility.yul\":7021:7140   */\n    tag_429:\n        /* \"#utility.yul\":7179:7180   */\n      0x00\n        /* \"#utility.yul\":7204:7257   */\n      tag_431\n        /* \"#utility.yul\":7249:7256   */\n      dup7\n        /* \"#utility.yul\":7240:7246   */\n      dup3\n        /* \"#utility.yul\":7229:7238   */\n      dup8\n        /* \"#utility.yul\":7225:7247   */\n      add\n        /* \"#utility.yul\":7204:7257   */\n      tag_261\n      jump\t// in\n    tag_431:\n        /* \"#utility.yul\":7194:7257   */\n      swap4\n      pop\n        /* \"#utility.yul\":7150:7267   */\n      pop\n        /* \"#utility.yul\":7306:7308   */\n      0x20\n        /* \"#utility.yul\":7332:7385   */\n      tag_432\n        /* \"#utility.yul\":7377:7384   */\n      dup7\n        /* \"#utility.yul\":7368:7374   */\n      dup3\n        /* \"#utility.yul\":7357:7366   */\n      dup8\n        /* \"#utility.yul\":7353:7375   */\n      add\n        /* \"#utility.yul\":7332:7385   */\n      tag_261\n      jump\t// in\n    tag_432:\n        /* \"#utility.yul\":7322:7385   */\n      swap3\n      pop\n        /* \"#utility.yul\":7277:7395   */\n      pop\n        /* \"#utility.yul\":7434:7436   */\n      0x40\n        /* \"#utility.yul\":7460:7513   */\n      tag_433\n        /* \"#utility.yul\":7505:7512   */\n      dup7\n        /* \"#utility.yul\":7496:7502   */\n      dup3\n        /* \"#utility.yul\":7485:7494   */\n      dup8\n        /* \"#utility.yul\":7481:7503   */\n      add\n        /* \"#utility.yul\":7460:7513   */\n      tag_261\n      jump\t// in\n    tag_433:\n        /* \"#utility.yul\":7450:7513   */\n      swap2\n      pop\n        /* \"#utility.yul\":7405:7523   */\n      pop\n        /* \"#utility.yul\":6911:7530   */\n      swap3\n      pop\n      swap3\n      pop\n      swap3\n      jump\t// out\n        /* \"#utility.yul\":7536:7705   */\n    tag_279:\n        /* \"#utility.yul\":7620:7631   */\n      0x00\n        /* \"#utility.yul\":7654:7660   */\n      dup3\n        /* \"#utility.yul\":7649:7652   */\n      dup3\n        /* \"#utility.yul\":7642:7661   */\n      mstore\n        /* \"#utility.yul\":7694:7698   */\n      0x20\n        /* \"#utility.yul\":7689:7692   */\n      dup3\n        /* \"#utility.yul\":7685:7699   */\n      add\n        /* \"#utility.yul\":7670:7699   */\n      swap1\n      pop\n        /* \"#utility.yul\":7536:7705   */\n      swap3\n      swap2\n      pop\n      pop\n      jump\t// out\n        /* \"#utility.yul\":7711:7872   */\n    tag_280:\n        /* \"#utility.yul\":7851:7864   */\n      0x6e6f2066756c6c20666565000000000000000000000000000000000000000000\n        /* \"#utility.yul\":7847:7848   */\n      0x00\n        /* \"#utility.yul\":7839:7845   */\n      dup3\n        /* \"#utility.yul\":7835:7849   */\n      add\n        /* \"#utility.yul\":7828:7865   */\n      mstore\n        /* \"#utility.yul\":7711:7872   */\n      pop\n      jump\t// out\n        /* \"#utility.yul\":7878:8244   */\n    tag_281:\n        /* \"#utility.yul\":8020:8023   */\n      0x00\n        /* \"#utility.yul\":8041:8108   */\n      tag_437\n        /* \"#utility.yul\":8105:8107   */\n      0x0b\n        /* \"#utility.yul\":8100:8103   */\n      dup4\n        /* \"#utility.yul\":8041:8108   */\n      tag_279\n      jump\t// in\n    tag_437:\n        /* \"#utility.yul\":8034:8108   */\n      swap2\n      pop\n        /* \"#utility.yul\":8117:8210   */\n      tag_438\n        /* \"#utility.yul\":8206:8209   */\n      dup3\n        /* \"#utility.yul\":8117:8210   */\n      tag_280\n      jump\t// in\n    tag_438:\n        /* \"#utility.yul\":8235:8237   */\n      0x20\n        /* \"#utility.yul\":8230:8233   */\n      dup3\n        /* \"#utility.yul\":8226:8238   */\n      add\n        /* \"#utility.yul\":8219:8238   */\n      swap1\n      pop\n        /* \"#utility.yul\":7878:8244   */\n      swap2\n      swap1\n      pop\n      jump\t// out\n        /* \"#utility.yul\":8250:8669   */\n    tag_104:\n        /* \"#utility.yul\":8416:8420   */\n      0x00\n        /* \"#utility.yul\":8454:8456   */\n      0x20\n        /* \"#utility.yul\":8443:8452   */\n      dup3\n        /* \"#utility.yul\":8439:8457   */\n      add\n        /* \"#utility.yul\":8431:8457   */\n      swap1\n      pop\n        /* \"#utility.yul\":8503:8512   */\n      dup2\n        /* \"#utility.yul\":8497:8501   */\n      dup2\n        /* \"#utility.yul\":8493:8513   */\n      sub\n        /* \"#utility.yul\":8489:8490   */\n      0x00\n        /* \"#utility.yul\":8478:8487   */\n      dup4\n        /* \"#utility.yul\":8474:8491   */\n      add\n        /* \"#utility.yul\":8467:8514   */\n      mstore\n        /* \"#utility.yul\":8531:8662   */\n      tag_440\n        /* \"#utility.yul\":8657:8661   */\n      dup2\n        /* \"#utility.yul\":8531:8662   */\n      tag_281\n      jump\t// in\n    tag_440:\n        /* \"#utility.yul\":8523:8662   */\n      swap1\n      pop\n        /* \"#utility.yul\":8250:8669   */\n      swap2\n      swap1\n      pop\n      jump\t// out\n        /* \"#utility.yul\":8675:9117   */\n    tag_108:\n        /* \"#utility.yul\":8824:8828   */\n      0x00\n        /* \"#utility.yul\":8862:8864   */\n      0x60\n        /* \"#utility.yul\":8851:8860   */\n      dup3\n        /* \"#utility.yul\":8847:8865   */\n      add\n        /* \"#utility.yul\":8839:8865   */\n      swap1\n      pop\n        /* \"#utility.yul\":8875:8946   */\n      tag_442\n        /* \"#utility.yul\":8943:8944   */\n      0x00\n        /* \"#utility.yul\":8932:8941   */\n      dup4\n        /* \"#utility.yul\":8928:8945   */\n      add\n        /* \"#utility.yul\":8919:8925   */\n      dup7\n        /* \"#utility.yul\":8875:8946   */\n      tag_269\n      jump\t// in\n    tag_442:\n        /* \"#utility.yul\":8956:9028   */\n      tag_443\n        /* \"#utility.yul\":9024:9026   */\n      0x20\n        /* \"#utility.yul\":9013:9022   */\n      dup4\n        /* \"#utility.yul\":9009:9027   */\n      add\n        /* \"#utility.yul\":9000:9006   */\n      dup6\n        /* \"#utility.yul\":8956:9028   */\n      tag_266\n      jump\t// in\n    tag_443:\n        /* \"#utility.yul\":9038:9110   */\n      tag_444\n        /* \"#utility.yul\":9106:9108   */\n      0x40\n        /* \"#utility.yul\":9095:9104   */\n      dup4\n        /* \"#utility.yul\":9091:9109   */\n      add\n        /* \"#utility.yul\":9082:9088   */\n      dup5\n        /* \"#utility.yul\":9038:9110   */\n      tag_266\n      jump\t// in\n    tag_444:\n        /* \"#utility.yul\":8675:9117   */\n      swap5\n      swap4\n      pop\n      pop\n      pop\n      pop\n      jump\t// out\n        /* \"#utility.yul\":9123:9455   */\n    tag_112:\n        /* \"#utility.yul\":9244:9248   */\n      0x00\n        /* \"#utility.yul\":9282:9284   */\n      0x40\n        /* \"#utility.yul\":9271:9280   */\n      dup3\n        /* \"#utility.yul\":9267:9285   */\n      add\n        /* \"#utility.yul\":9259:9285   */\n      swap1\n      pop\n        /* \"#utility.yul\":9295:9366   */\n      tag_446\n        /* \"#utility.yul\":9363:9364   */\n      0x00\n        /* \"#utility.yul\":9352:9361   */\n      dup4\n        /* \"#utility.yul\":9348:9365   */\n      add\n        /* \"#utility.yul\":9339:9345   */\n      dup6\n        /* \"#utility.yul\":9295:9366   */\n      tag_269\n      jump\t// in\n    tag_446:\n        /* \"#utility.yul\":9376:9448   */\n      tag_447\n        /* \"#utility.yul\":9444:9446   */\n      0x20\n        /* \"#utility.yul\":9433:9442   */\n      dup4\n        /* \"#utility.yul\":9429:9447   */\n      add\n        /* \"#utility.yul\":9420:9426   */\n      dup5\n        /* \"#utility.yul\":9376:9448   */\n      tag_269\n      jump\t// in\n    tag_447:\n        /* \"#utility.yul\":9123:9455   */\n      swap4\n      swap3\n      pop\n      pop\n      pop\n      jump\t// out\n        /* \"#utility.yul\":9461:9630   */\n    tag_282:\n        /* \"#utility.yul\":9601:9622   */\n      0x706c6561736520696e7075742064726177496400000000000000000000000000\n        /* \"#utility.yul\":9597:9598   */\n      0x00\n        /* \"#utility.yul\":9589:9595   */\n      dup3\n        /* \"#utility.yul\":9585:9599   */\n      add\n        /* \"#utility.yul\":9578:9623   */\n      mstore\n        /* \"#utility.yul\":9461:9630   */\n      pop\n      jump\t// out\n        /* \"#utility.yul\":9636:10002   */\n    tag_283:\n        /* \"#utility.yul\":9778:9781   */\n      0x00\n        /* \"#utility.yul\":9799:9866   */\n      tag_450\n        /* \"#utility.yul\":9863:9865   */\n      0x13\n        /* \"#utility.yul\":9858:9861   */\n      dup4\n        /* \"#utility.yul\":9799:9866   */\n      tag_279\n      jump\t// in\n    tag_450:\n        /* \"#utility.yul\":9792:9866   */\n      swap2\n      pop\n        /* \"#utility.yul\":9875:9968   */\n      tag_451\n        /* \"#utility.yul\":9964:9967   */\n      dup3\n        /* \"#utility.yul\":9875:9968   */\n      tag_282\n      jump\t// in\n    tag_451:\n        /* \"#utility.yul\":9993:9995   */\n      0x20\n        /* \"#utility.yul\":9988:9991   */\n      dup3\n        /* \"#utility.yul\":9984:9996   */\n      add\n        /* \"#utility.yul\":9977:9996   */\n      swap1\n      pop\n        /* \"#utility.yul\":9636:10002   */\n      swap2\n      swap1\n      pop\n      jump\t// out\n        /* \"#utility.yul\":10008:10427   */\n    tag_119:\n        /* \"#utility.yul\":10174:10178   */\n      0x00\n        /* \"#utility.yul\":10212:10214   */\n      0x20\n        /* \"#utility.yul\":10201:10210   */\n      dup3\n        /* \"#utility.yul\":10197:10215   */\n      add\n        /* \"#utility.yul\":10189:10215   */\n      swap1\n      pop\n        /* \"#utility.yul\":10261:10270   */\n      dup2\n        /* \"#utility.yul\":10255:10259   */\n      dup2\n        /* \"#utility.yul\":10251:10271   */\n      sub\n        /* \"#utility.yul\":10247:10248   */\n      0x00\n        /* \"#utility.yul\":10236:10245   */\n      dup4\n        /* \"#utility.yul\":10232:10249   */\n      add\n        /* \"#utility.yul\":10225:10272   */\n      mstore\n        /* \"#utility.yul\":10289:10420   */\n      tag_453\n        /* \"#utility.yul\":10415:10419   */\n      dup2\n        /* \"#utility.yul\":10289:10420   */\n      tag_283\n      jump\t// in\n    tag_453:\n        /* \"#utility.yul\":10281:10420   */\n      swap1\n      pop\n        /* \"#utility.yul\":10008:10427   */\n      swap2\n      swap1\n      pop\n      jump\t// out\n        /* \"#utility.yul\":10433:10611   */\n    tag_284:\n        /* \"#utility.yul\":10573:10603   */\n      0x63757272656e74206861732070726f63657373696e6767206472617700000000\n        /* \"#utility.yul\":10569:10570   */\n      0x00\n        /* \"#utility.yul\":10561:10567   */\n      dup3\n        /* \"#utility.yul\":10557:10571   */\n      add\n        /* \"#utility.yul\":10550:10604   */\n      mstore\n        /* \"#utility.yul\":10433:10611   */\n      pop\n      jump\t// out\n        /* \"#utility.yul\":10617:10983   */\n    tag_285:\n        /* \"#utility.yul\":10759:10762   */\n      0x00\n        /* \"#utility.yul\":10780:10847   */\n      tag_456\n        /* \"#utility.yul\":10844:10846   */\n      0x1c\n        /* \"#utility.yul\":10839:10842   */\n      dup4\n        /* \"#utility.yul\":10780:10847   */\n      tag_279\n      jump\t// in\n    tag_456:\n        /* \"#utility.yul\":10773:10847   */\n      swap2\n      pop\n        /* \"#utility.yul\":10856:10949   */\n      tag_457\n        /* \"#utility.yul\":10945:10948   */\n      dup3\n        /* \"#utility.yul\":10856:10949   */\n      tag_284\n      jump\t// in\n    tag_457:\n        /* \"#utility.yul\":10974:10976   */\n      0x20\n        /* \"#utility.yul\":10969:10972   */\n      dup3\n        /* \"#utility.yul\":10965:10977   */\n      add\n        /* \"#utility.yul\":10958:10977   */\n      swap1\n      pop\n        /* \"#utility.yul\":10617:10983   */\n      swap2\n      swap1\n      pop\n      jump\t// out\n        /* \"#utility.yul\":10989:11408   */\n    tag_122:\n        /* \"#utility.yul\":11155:11159   */\n      0x00\n        /* \"#utility.yul\":11193:11195   */\n      0x20\n        /* \"#utility.yul\":11182:11191   */\n      dup3\n        /* \"#utility.yul\":11178:11196   */\n      add\n        /* \"#utility.yul\":11170:11196   */\n      swap1\n      pop\n        /* \"#utility.yul\":11242:11251   */\n      dup2\n        /* \"#utility.yul\":11236:11240   */\n      dup2\n        /* \"#utility.yul\":11232:11252   */\n      sub\n        /* \"#utility.yul\":11228:11229   */\n      0x00\n        /* \"#utility.yul\":11217:11226   */\n      dup4\n        /* \"#utility.yul\":11213:11230   */\n      add\n        /* \"#utility.yul\":11206:11253   */\n      mstore\n        /* \"#utility.yul\":11270:11401   */\n      tag_459\n        /* \"#utility.yul\":11396:11400   */\n      dup2\n        /* \"#utility.yul\":11270:11401   */\n      tag_285\n      jump\t// in\n    tag_459:\n        /* \"#utility.yul\":11262:11401   */\n      swap1\n      pop\n        /* \"#utility.yul\":10989:11408   */\n      swap2\n      swap1\n      pop\n      jump\t// out\n        /* \"#utility.yul\":11414:11588   */\n    tag_286:\n        /* \"#utility.yul\":11554:11580   */\n      0x63757272656e74207461736b206861736e742073746172740000000000000000\n        /* \"#utility.yul\":11550:11551   */\n      0x00\n        /* \"#utility.yul\":11542:11548   */\n      dup3\n        /* \"#utility.yul\":11538:11552   */\n      add\n        /* \"#utility.yul\":11531:11581   */\n      mstore\n        /* \"#utility.yul\":11414:11588   */\n      pop\n      jump\t// out\n        /* \"#utility.yul\":11594:11960   */\n    tag_287:\n        /* \"#utility.yul\":11736:11739   */\n      0x00\n        /* \"#utility.yul\":11757:11824   */\n      tag_462\n        /* \"#utility.yul\":11821:11823   */\n      0x18\n        /* \"#utility.yul\":11816:11819   */\n      dup4\n        /* \"#utility.yul\":11757:11824   */\n      tag_279\n      jump\t// in\n    tag_462:\n        /* \"#utility.yul\":11750:11824   */\n      swap2\n      pop\n        /* \"#utility.yul\":11833:11926   */\n      tag_463\n        /* \"#utility.yul\":11922:11925   */\n      dup3\n        /* \"#utility.yul\":11833:11926   */\n      tag_286\n      jump\t// in\n    tag_463:\n        /* \"#utility.yul\":11951:11953   */\n      0x20\n        /* \"#utility.yul\":11946:11949   */\n      dup3\n        /* \"#utility.yul\":11942:11954   */\n      add\n        /* \"#utility.yul\":11935:11954   */\n      swap1\n      pop\n        /* \"#utility.yul\":11594:11960   */\n      swap2\n      swap1\n      pop\n      jump\t// out\n        /* \"#utility.yul\":11966:12385   */\n    tag_125:\n        /* \"#utility.yul\":12132:12136   */\n      0x00\n        /* \"#utility.yul\":12170:12172   */\n      0x20\n        /* \"#utility.yul\":12159:12168   */\n      dup3\n        /* \"#utility.yul\":12155:12173   */\n      add\n        /* \"#utility.yul\":12147:12173   */\n      swap1\n      pop\n        /* \"#utility.yul\":12219:12228   */\n      dup2\n        /* \"#utility.yul\":12213:12217   */\n      dup2\n        /* \"#utility.yul\":12209:12229   */\n      sub\n        /* \"#utility.yul\":12205:12206   */\n      0x00\n        /* \"#utility.yul\":12194:12203   */\n      dup4\n        /* \"#utility.yul\":12190:12207   */\n      add\n        /* \"#utility.yul\":12183:12230   */\n      mstore\n        /* \"#utility.yul\":12247:12378   */\n      tag_465\n        /* \"#utility.yul\":12373:12377   */\n      dup2\n        /* \"#utility.yul\":12247:12378   */\n      tag_287\n      jump\t// in\n    tag_465:\n        /* \"#utility.yul\":12239:12378   */\n      swap1\n      pop\n        /* \"#utility.yul\":11966:12385   */\n      swap2\n      swap1\n      pop\n      jump\t// out\n        /* \"#utility.yul\":12391:12562   */\n    tag_288:\n        /* \"#utility.yul\":12531:12554   */\n      0x63757272656e74207461736b2068617320646f6e650000000000000000000000\n        /* \"#utility.yul\":12527:12528   */\n      0x00\n        /* \"#utility.yul\":12519:12525   */\n      dup3\n        /* \"#utility.yul\":12515:12529   */\n      add\n        /* \"#utility.yul\":12508:12555   */\n      mstore\n        /* \"#utility.yul\":12391:12562   */\n      pop\n      jump\t// out\n        /* \"#utility.yul\":12568:12934   */\n    tag_289:\n        /* \"#utility.yul\":12710:12713   */\n      0x00\n        /* \"#utility.yul\":12731:12798   */\n      tag_468\n        /* \"#utility.yul\":12795:12797   */\n      0x15\n        /* \"#utility.yul\":12790:12793   */\n      dup4\n        /* \"#utility.yul\":12731:12798   */\n      tag_279\n      jump\t// in\n    tag_468:\n        /* \"#utility.yul\":12724:12798   */\n      swap2\n      pop\n        /* \"#utility.yul\":12807:12900   */\n      tag_469\n        /* \"#utility.yul\":12896:12899   */\n      dup3\n        /* \"#utility.yul\":12807:12900   */\n      tag_288\n      jump\t// in\n    tag_469:\n        /* \"#utility.yul\":12925:12927   */\n      0x20\n        /* \"#utility.yul\":12920:12923   */\n      dup3\n        /* \"#utility.yul\":12916:12928   */\n      add\n        /* \"#utility.yul\":12909:12928   */\n      swap1\n      pop\n        /* \"#utility.yul\":12568:12934   */\n      swap2\n      swap1\n      pop\n      jump\t// out\n        /* \"#utility.yul\":12940:13359   */\n    tag_128:\n        /* \"#utility.yul\":13106:13110   */\n      0x00\n        /* \"#utility.yul\":13144:13146   */\n      0x20\n        /* \"#utility.yul\":13133:13142   */\n      dup3\n        /* \"#utility.yul\":13129:13147   */\n      add\n        /* \"#utility.yul\":13121:13147   */\n      swap1\n      pop\n        /* \"#utility.yul\":13193:13202   */\n      dup2\n        /* \"#utility.yul\":13187:13191   */\n      dup2\n        /* \"#utility.yul\":13183:13203   */\n      sub\n        /* \"#utility.yul\":13179:13180   */\n      0x00\n        /* \"#utility.yul\":13168:13177   */\n      dup4\n        /* \"#utility.yul\":13164:13181   */\n      add\n        /* \"#utility.yul\":13157:13204   */\n      mstore\n        /* \"#utility.yul\":13221:13352   */\n      tag_471\n        /* \"#utility.yul\":13347:13351   */\n      dup2\n        /* \"#utility.yul\":13221:13352   */\n      tag_289\n      jump\t// in\n    tag_471:\n        /* \"#utility.yul\":13213:13352   */\n      swap1\n      pop\n        /* \"#utility.yul\":12940:13359   */\n      swap2\n      swap1\n      pop\n      jump\t// out\n        /* \"#utility.yul\":13365:13536   */\n    tag_290:\n        /* \"#utility.yul\":13505:13528   */\n      0x796f7520617265206e6f207065726d697373696f6e0000000000000000000000\n        /* \"#utility.yul\":13501:13502   */\n      0x00\n        /* \"#utility.yul\":13493:13499   */\n      dup3\n        /* \"#utility.yul\":13489:13503   */\n      add\n        /* \"#utility.yul\":13482:13529   */\n      mstore\n        /* \"#utility.yul\":13365:13536   */\n      pop\n      jump\t// out\n        /* \"#utility.yul\":13542:13908   */\n    tag_291:\n        /* \"#utility.yul\":13684:13687   */\n      0x00\n        /* \"#utility.yul\":13705:13772   */\n      tag_474\n        /* \"#utility.yul\":13769:13771   */\n      0x15\n        /* \"#utility.yul\":13764:13767   */\n      dup4\n        /* \"#utility.yul\":13705:13772   */\n      tag_279\n      jump\t// in\n    tag_474:\n        /* \"#utility.yul\":13698:13772   */\n      swap2\n      pop\n        /* \"#utility.yul\":13781:13874   */\n      tag_475\n        /* \"#utility.yul\":13870:13873   */\n      dup3\n        /* \"#utility.yul\":13781:13874   */\n      tag_290\n      jump\t// in\n    tag_475:\n        /* \"#utility.yul\":13899:13901   */\n      0x20\n        /* \"#utility.yul\":13894:13897   */\n      dup3\n        /* \"#utility.yul\":13890:13902   */\n      add\n        /* \"#utility.yul\":13883:13902   */\n      swap1\n      pop\n        /* \"#utility.yul\":13542:13908   */\n      swap2\n      swap1\n      pop\n      jump\t// out\n        /* \"#utility.yul\":13914:14333   */\n    tag_131:\n        /* \"#utility.yul\":14080:14084   */\n      0x00\n        /* \"#utility.yul\":14118:14120   */\n      0x20\n        /* \"#utility.yul\":14107:14116   */\n      dup3\n        /* \"#utility.yul\":14103:14121   */\n      add\n        /* \"#utility.yul\":14095:14121   */\n      swap1\n      pop\n        /* \"#utility.yul\":14167:14176   */\n      dup2\n        /* \"#utility.yul\":14161:14165   */\n      dup2\n        /* \"#utility.yul\":14157:14177   */\n      sub\n        /* \"#utility.yul\":14153:14154   */\n      0x00\n        /* \"#utility.yul\":14142:14151   */\n      dup4\n        /* \"#utility.yul\":14138:14155   */\n      add\n        /* \"#utility.yul\":14131:14178   */\n      mstore\n        /* \"#utility.yul\":14195:14326   */\n      tag_477\n        /* \"#utility.yul\":14321:14325   */\n      dup2\n        /* \"#utility.yul\":14195:14326   */\n      tag_291\n      jump\t// in\n    tag_477:\n        /* \"#utility.yul\":14187:14326   */\n      swap1\n      pop\n        /* \"#utility.yul\":13914:14333   */\n      swap2\n      swap1\n      pop\n      jump\t// out\n        /* \"#utility.yul\":14339:14508   */\n    tag_292:\n        /* \"#utility.yul\":14479:14500   */\n      0x6e6f206a6f696e207468652070657273696f6e00000000000000000000000000\n        /* \"#utility.yul\":14475:14476   */\n      0x00\n        /* \"#utility.yul\":14467:14473   */\n      dup3\n        /* \"#utility.yul\":14463:14477   */\n      add\n        /* \"#utility.yul\":14456:14501   */\n      mstore\n        /* \"#utility.yul\":14339:14508   */\n      pop\n      jump\t// out\n        /* \"#utility.yul\":14514:14880   */\n    tag_293:\n        /* \"#utility.yul\":14656:14659   */\n      0x00\n        /* \"#utility.yul\":14677:14744   */\n      tag_480\n        /* \"#utility.yul\":14741:14743   */\n      0x13\n        /* \"#utility.yul\":14736:14739   */\n      dup4\n        /* \"#utility.yul\":14677:14744   */\n      tag_279\n      jump\t// in\n    tag_480:\n        /* \"#utility.yul\":14670:14744   */\n      swap2\n      pop\n        /* \"#utility.yul\":14753:14846   */\n      tag_481\n        /* \"#utility.yul\":14842:14845   */\n      dup3\n        /* \"#utility.yul\":14753:14846   */\n      tag_292\n      jump\t// in\n    tag_481:\n        /* \"#utility.yul\":14871:14873   */\n      0x20\n        /* \"#utility.yul\":14866:14869   */\n      dup3\n        /* \"#utility.yul\":14862:14874   */\n      add\n        /* \"#utility.yul\":14855:14874   */\n      swap1\n      pop\n        /* \"#utility.yul\":14514:14880   */\n      swap2\n      swap1\n      pop\n      jump\t// out\n        /* \"#utility.yul\":14886:15305   */\n    tag_134:\n        /* \"#utility.yul\":15052:15056   */\n      0x00\n        /* \"#utility.yul\":15090:15092   */\n      0x20\n        /* \"#utility.yul\":15079:15088   */\n      dup3\n        /* \"#utility.yul\":15075:15093   */\n      add\n        /* \"#utility.yul\":15067:15093   */\n      swap1\n      pop\n        /* \"#utility.yul\":15139:15148   */\n      dup2\n        /* \"#utility.yul\":15133:15137   */\n      dup2\n        /* \"#utility.yul\":15129:15149   */\n      sub\n        /* \"#utility.yul\":15125:15126   */\n      0x00\n        /* \"#utility.yul\":15114:15123   */\n      dup4\n        /* \"#utility.yul\":15110:15127   */\n      add\n        /* \"#utility.yul\":15103:15150   */\n      mstore\n        /* \"#utility.yul\":15167:15298   */\n      tag_483\n        /* \"#utility.yul\":15293:15297   */\n      dup2\n        /* \"#utility.yul\":15167:15298   */\n      tag_293\n      jump\t// in\n    tag_483:\n        /* \"#utility.yul\":15159:15298   */\n      swap1\n      pop\n        /* \"#utility.yul\":14886:15305   */\n      swap2\n      swap1\n      pop\n      jump\t// out\n        /* \"#utility.yul\":15311:15458   */\n    tag_294:\n        /* \"#utility.yul\":15412:15423   */\n      0x00\n        /* \"#utility.yul\":15449:15452   */\n      dup2\n        /* \"#utility.yul\":15434:15452   */\n      swap1\n      pop\n        /* \"#utility.yul\":15311:15458   */\n      swap3\n      swap2\n      pop\n      pop\n      jump\t// out\n        /* \"#utility.yul\":15464:15578   */\n    tag_295:\n      pop\n      jump\t// out\n        /* \"#utility.yul\":15584:15982   */\n    tag_296:\n        /* \"#utility.yul\":15743:15746   */\n      0x00\n        /* \"#utility.yul\":15764:15847   */\n      tag_487\n        /* \"#utility.yul\":15845:15846   */\n      0x00\n        /* \"#utility.yul\":15840:15843   */\n      dup4\n        /* \"#utility.yul\":15764:15847   */\n      tag_294\n      jump\t// in\n    tag_487:\n        /* \"#utility.yul\":15757:15847   */\n      swap2\n      pop\n        /* \"#utility.yul\":15856:15949   */\n      tag_488\n        /* \"#utility.yul\":15945:15948   */\n      dup3\n        /* \"#utility.yul\":15856:15949   */\n      tag_295\n      jump\t// in\n    tag_488:\n        /* \"#utility.yul\":15974:15975   */\n      0x00\n        /* \"#utility.yul\":15969:15972   */\n      dup3\n        /* \"#utility.yul\":15965:15976   */\n      add\n        /* \"#utility.yul\":15958:15976   */\n      swap1\n      pop\n        /* \"#utility.yul\":15584:15982   */\n      swap2\n      swap1\n      pop\n      jump\t// out\n        /* \"#utility.yul\":15988:16367   */\n    tag_137:\n        /* \"#utility.yul\":16172:16175   */\n      0x00\n        /* \"#utility.yul\":16194:16341   */\n      tag_490\n        /* \"#utility.yul\":16337:16340   */\n      dup3\n        /* \"#utility.yul\":16194:16341   */\n      tag_296\n      jump\t// in\n    tag_490:\n        /* \"#utility.yul\":16187:16341   */\n      swap2\n      pop\n        /* \"#utility.yul\":16358:16361   */\n      dup2\n        /* \"#utility.yul\":16351:16361   */\n      swap1\n      pop\n        /* \"#utility.yul\":15988:16367   */\n      swap2\n      swap1\n      pop\n      jump\t// out\n        /* \"#utility.yul\":16373:16538   */\n    tag_297:\n        /* \"#utility.yul\":16513:16530   */\n      0x5472616e73666572206661696c65640000000000000000000000000000000000\n        /* \"#utility.yul\":16509:16510   */\n      0x00\n        /* \"#utility.yul\":16501:16507   */\n      dup3\n        /* \"#utility.yul\":16497:16511   */\n      add\n        /* \"#utility.yul\":16490:16531   */\n      mstore\n        /* \"#utility.yul\":16373:16538   */\n      pop\n      jump\t// out\n        /* \"#utility.yul\":16544:16910   */\n    tag_298:\n        /* \"#utility.yul\":16686:16689   */\n      0x00\n        /* \"#utility.yul\":16707:16774   */\n      tag_493\n        /* \"#utility.yul\":16771:16773   */\n      0x0f\n        /* \"#utility.yul\":16766:16769   */\n      dup4\n        /* \"#utility.yul\":16707:16774   */\n      tag_279\n      jump\t// in\n    tag_493:\n        /* \"#utility.yul\":16700:16774   */\n      swap2\n      pop\n        /* \"#utility.yul\":16783:16876   */\n      tag_494\n        /* \"#utility.yul\":16872:16875   */\n      dup3\n        /* \"#utility.yul\":16783:16876   */\n      tag_297\n      jump\t// in\n    tag_494:\n        /* \"#utility.yul\":16901:16903   */\n      0x20\n        /* \"#utility.yul\":16896:16899   */\n      dup3\n        /* \"#utility.yul\":16892:16904   */\n      add\n        /* \"#utility.yul\":16885:16904   */\n      swap1\n      pop\n        /* \"#utility.yul\":16544:16910   */\n      swap2\n      swap1\n      pop\n      jump\t// out\n        /* \"#utility.yul\":16916:17335   */\n    tag_143:\n        /* \"#utility.yul\":17082:17086   */\n      0x00\n        /* \"#utility.yul\":17120:17122   */\n      0x20\n        /* \"#utility.yul\":17109:17118   */\n      dup3\n        /* \"#utility.yul\":17105:17123   */\n      add\n        /* \"#utility.yul\":17097:17123   */\n      swap1\n      pop\n        /* \"#utility.yul\":17169:17178   */\n      dup2\n        /* \"#utility.yul\":17163:17167   */\n      dup2\n        /* \"#utility.yul\":17159:17179   */\n      sub\n        /* \"#utility.yul\":17155:17156   */\n      0x00\n        /* \"#utility.yul\":17144:17153   */\n      dup4\n        /* \"#utility.yul\":17140:17157   */\n      add\n        /* \"#utility.yul\":17133:17180   */\n      mstore\n        /* \"#utility.yul\":17197:17328   */\n      tag_496\n        /* \"#utility.yul\":17323:17327   */\n      dup2\n        /* \"#utility.yul\":17197:17328   */\n      tag_298\n      jump\t// in\n    tag_496:\n        /* \"#utility.yul\":17189:17328   */\n      swap1\n      pop\n        /* \"#utility.yul\":16916:17335   */\n      swap2\n      swap1\n      pop\n      jump\t// out\n        /* \"#utility.yul\":17341:17426   */\n    tag_299:\n        /* \"#utility.yul\":17386:17393   */\n      0x00\n        /* \"#utility.yul\":17415:17420   */\n      dup2\n        /* \"#utility.yul\":17404:17420   */\n      swap1\n      pop\n        /* \"#utility.yul\":17341:17426   */\n      swap2\n      swap1\n      pop\n      jump\t// out\n        /* \"#utility.yul\":17432:17590   */\n    tag_300:\n        /* \"#utility.yul\":17490:17499   */\n      0x00\n        /* \"#utility.yul\":17523:17584   */\n      tag_499\n        /* \"#utility.yul\":17541:17583   */\n      tag_500\n        /* \"#utility.yul\":17550:17582   */\n      tag_501\n        /* \"#utility.yul\":17576:17581   */\n      dup5\n        /* \"#utility.yul\":17550:17582   */\n      tag_299\n      jump\t// in\n    tag_501:\n        /* \"#utility.yul\":17541:17583   */\n      tag_274\n      jump\t// in\n    tag_500:\n        /* \"#utility.yul\":17523:17584   */\n      tag_259\n      jump\t// in\n    tag_499:\n        /* \"#utility.yul\":17510:17584   */\n      swap1\n      pop\n        /* \"#utility.yul\":17432:17590   */\n      swap2\n      swap1\n      pop\n      jump\t// out\n        /* \"#utility.yul\":17596:17743   */\n    tag_301:\n        /* \"#utility.yul\":17691:17736   */\n      tag_503\n        /* \"#utility.yul\":17730:17735   */\n      dup2\n        /* \"#utility.yul\":17691:17736   */\n      tag_300\n      jump\t// in\n    tag_503:\n        /* \"#utility.yul\":17686:17689   */\n      dup3\n        /* \"#utility.yul\":17679:17737   */\n      mstore\n        /* \"#utility.yul\":17596:17743   */\n      pop\n      pop\n      jump\t// out\n        /* \"#utility.yul\":17749:18318   */\n    tag_145:\n        /* \"#utility.yul\":17934:17938   */\n      0x00\n        /* \"#utility.yul\":17972:17975   */\n      0x80\n        /* \"#utility.yul\":17961:17970   */\n      dup3\n        /* \"#utility.yul\":17957:17976   */\n      add\n        /* \"#utility.yul\":17949:17976   */\n      swap1\n      pop\n        /* \"#utility.yul\":17986:18057   */\n      tag_505\n        /* \"#utility.yul\":18054:18055   */\n      0x00\n        /* \"#utility.yul\":18043:18052   */\n      dup4\n        /* \"#utility.yul\":18039:18056   */\n      add\n        /* \"#utility.yul\":18030:18036   */\n      dup8\n        /* \"#utility.yul\":17986:18057   */\n      tag_269\n      jump\t// in\n    tag_505:\n        /* \"#utility.yul\":18067:18139   */\n      tag_506\n        /* \"#utility.yul\":18135:18137   */\n      0x20\n        /* \"#utility.yul\":18124:18133   */\n      dup4\n        /* \"#utility.yul\":18120:18138   */\n      add\n        /* \"#utility.yul\":18111:18117   */\n      dup7\n        /* \"#utility.yul\":18067:18139   */\n      tag_266\n      jump\t// in\n    tag_506:\n        /* \"#utility.yul\":18149:18229   */\n      tag_507\n        /* \"#utility.yul\":18225:18227   */\n      0x40\n        /* \"#utility.yul\":18214:18223   */\n      dup4\n        /* \"#utility.yul\":18210:18228   */\n      add\n        /* \"#utility.yul\":18201:18207   */\n      dup6\n        /* \"#utility.yul\":18149:18229   */\n      tag_301\n      jump\t// in\n    tag_507:\n        /* \"#utility.yul\":18239:18311   */\n      tag_508\n        /* \"#utility.yul\":18307:18309   */\n      0x60\n        /* \"#utility.yul\":18296:18305   */\n      dup4\n        /* \"#utility.yul\":18292:18310   */\n      add\n        /* \"#utility.yul\":18283:18289   */\n      dup5\n        /* \"#utility.yul\":18239:18311   */\n      tag_266\n      jump\t// in\n    tag_508:\n        /* \"#utility.yul\":17749:18318   */\n      swap6\n      swap5\n      pop\n      pop\n      pop\n      pop\n      pop\n      jump\t// out\n        /* \"#utility.yul\":18324:18401   */\n    tag_302:\n        /* \"#utility.yul\":18361:18368   */\n      0x00\n        /* \"#utility.yul\":18390:18395   */\n      dup2\n        /* \"#utility.yul\":18379:18395   */\n      swap1\n      pop\n        /* \"#utility.yul\":18324:18401   */\n      swap2\n      swap1\n      pop\n      jump\t// out\n        /* \"#utility.yul\":18407:18515   */\n    tag_303:\n        /* \"#utility.yul\":18484:18508   */\n      tag_511\n        /* \"#utility.yul\":18502:18507   */\n      dup2\n        /* \"#utility.yul\":18484:18508   */\n      tag_302\n      jump\t// in\n    tag_511:\n        /* \"#utility.yul\":18479:18482   */\n      dup3\n        /* \"#utility.yul\":18472:18509   */\n      mstore\n        /* \"#utility.yul\":18407:18515   */\n      pop\n      pop\n      jump\t// out\n        /* \"#utility.yul\":18521:18629   */\n    tag_304:\n        /* \"#utility.yul\":18598:18622   */\n      tag_513\n        /* \"#utility.yul\":18616:18621   */\n      dup2\n        /* \"#utility.yul\":18598:18622   */\n      tag_259\n      jump\t// in\n    tag_513:\n        /* \"#utility.yul\":18593:18596   */\n      dup3\n        /* \"#utility.yul\":18586:18623   */\n      mstore\n        /* \"#utility.yul\":18521:18629   */\n      pop\n      pop\n      jump\t// out\n        /* \"#utility.yul\":18635:18724   */\n    tag_305:\n        /* \"#utility.yul\":18671:18678   */\n      0x00\n        /* \"#utility.yul\":18711:18717   */\n      0xffff\n        /* \"#utility.yul\":18704:18709   */\n      dup3\n        /* \"#utility.yul\":18700:18718   */\n      and\n        /* \"#utility.yul\":18689:18718   */\n      swap1\n      pop\n        /* \"#utility.yul\":18635:18724   */\n      swap2\n      swap1\n      pop\n      jump\t// out\n        /* \"#utility.yul\":18730:18835   */\n    tag_306:\n        /* \"#utility.yul\":18805:18828   */\n      tag_516\n        /* \"#utility.yul\":18822:18827   */\n      dup2\n        /* \"#utility.yul\":18805:18828   */\n      tag_305\n      jump\t// in\n    tag_516:\n        /* \"#utility.yul\":18800:18803   */\n      dup3\n        /* \"#utility.yul\":18793:18829   */\n      mstore\n        /* \"#utility.yul\":18730:18835   */\n      pop\n      pop\n      jump\t// out\n        /* \"#utility.yul\":18841:18934   */\n    tag_307:\n        /* \"#utility.yul\":18877:18884   */\n      0x00\n        /* \"#utility.yul\":18917:18927   */\n      0xffffffff\n        /* \"#utility.yul\":18910:18915   */\n      dup3\n        /* \"#utility.yul\":18906:18928   */\n      and\n        /* \"#utility.yul\":18895:18928   */\n      swap1\n      pop\n        /* \"#utility.yul\":18841:18934   */\n      swap2\n      swap1\n      pop\n      jump\t// out\n        /* \"#utility.yul\":18940:19045   */\n    tag_308:\n        /* \"#utility.yul\":19015:19038   */\n      tag_519\n        /* \"#utility.yul\":19032:19037   */\n      dup2\n        /* \"#utility.yul\":19015:19038   */\n      tag_307\n      jump\t// in\n    tag_519:\n        /* \"#utility.yul\":19010:19013   */\n      dup3\n        /* \"#utility.yul\":19003:19039   */\n      mstore\n        /* \"#utility.yul\":18940:19045   */\n      pop\n      pop\n      jump\t// out\n        /* \"#utility.yul\":19051:19149   */\n    tag_309:\n        /* \"#utility.yul\":19102:19108   */\n      0x00\n        /* \"#utility.yul\":19136:19141   */\n      dup2\n        /* \"#utility.yul\":19130:19142   */\n      mload\n        /* \"#utility.yul\":19120:19142   */\n      swap1\n      pop\n        /* \"#utility.yul\":19051:19149   */\n      swap2\n      swap1\n      pop\n      jump\t// out\n        /* \"#utility.yul\":19155:19313   */\n    tag_310:\n        /* \"#utility.yul\":19228:19239   */\n      0x00\n        /* \"#utility.yul\":19262:19268   */\n      dup3\n        /* \"#utility.yul\":19257:19260   */\n      dup3\n        /* \"#utility.yul\":19250:19269   */\n      mstore\n        /* \"#utility.yul\":19302:19306   */\n      0x20\n        /* \"#utility.yul\":19297:19300   */\n      dup3\n        /* \"#utility.yul\":19293:19307   */\n      add\n        /* \"#utility.yul\":19278:19307   */\n      swap1\n      pop\n        /* \"#utility.yul\":19155:19313   */\n      swap3\n      swap2\n      pop\n      pop\n      jump\t// out\n        /* \"#utility.yul\":19319:19458   */\n    tag_311:\n        /* \"#utility.yul\":19408:19414   */\n      dup3\n        /* \"#utility.yul\":19403:19406   */\n      dup2\n        /* \"#utility.yul\":19398:19401   */\n      dup4\n        /* \"#utility.yul\":19392:19415   */\n      mcopy\n        /* \"#utility.yul\":19449:19450   */\n      0x00\n        /* \"#utility.yul\":19440:19446   */\n      dup4\n        /* \"#utility.yul\":19435:19438   */\n      dup4\n        /* \"#utility.yul\":19431:19447   */\n      add\n        /* \"#utility.yul\":19424:19451   */\n      mstore\n        /* \"#utility.yul\":19319:19458   */\n      pop\n      pop\n      pop\n      jump\t// out\n        /* \"#utility.yul\":19464:19566   */\n    tag_312:\n        /* \"#utility.yul\":19505:19511   */\n      0x00\n        /* \"#utility.yul\":19556:19558   */\n      0x1f\n        /* \"#utility.yul\":19552:19559   */\n      not\n        /* \"#utility.yul\":19547:19549   */\n      0x1f\n        /* \"#utility.yul\":19540:19545   */\n      dup4\n        /* \"#utility.yul\":19536:19550   */\n      add\n        /* \"#utility.yul\":19532:19560   */\n      and\n        /* \"#utility.yul\":19522:19560   */\n      swap1\n      pop\n        /* \"#utility.yul\":19464:19566   */\n      swap2\n      swap1\n      pop\n      jump\t// out\n        /* \"#utility.yul\":19572:19925   */\n    tag_313:\n        /* \"#utility.yul\":19648:19651   */\n      0x00\n        /* \"#utility.yul\":19676:19714   */\n      tag_525\n        /* \"#utility.yul\":19708:19713   */\n      dup3\n        /* \"#utility.yul\":19676:19714   */\n      tag_309\n      jump\t// in\n    tag_525:\n        /* \"#utility.yul\":19730:19790   */\n      tag_526\n        /* \"#utility.yul\":19783:19789   */\n      dup2\n        /* \"#utility.yul\":19778:19781   */\n      dup6\n        /* \"#utility.yul\":19730:19790   */\n      tag_310\n      jump\t// in\n    tag_526:\n        /* \"#utility.yul\":19723:19790   */\n      swap4\n      pop\n        /* \"#utility.yul\":19799:19864   */\n      tag_527\n        /* \"#utility.yul\":19857:19863   */\n      dup2\n        /* \"#utility.yul\":19852:19855   */\n      dup6\n        /* \"#utility.yul\":19845:19849   */\n      0x20\n        /* \"#utility.yul\":19838:19843   */\n      dup7\n        /* \"#utility.yul\":19834:19850   */\n      add\n        /* \"#utility.yul\":19799:19864   */\n      tag_311\n      jump\t// in\n    tag_527:\n        /* \"#utility.yul\":19889:19918   */\n      tag_528\n        /* \"#utility.yul\":19911:19917   */\n      dup2\n        /* \"#utility.yul\":19889:19918   */\n      tag_312\n      jump\t// in\n    tag_528:\n        /* \"#utility.yul\":19884:19887   */\n      dup5\n        /* \"#utility.yul\":19880:19919   */\n      add\n        /* \"#utility.yul\":19873:19919   */\n      swap2\n      pop\n        /* \"#utility.yul\":19652:19925   */\n      pop\n        /* \"#utility.yul\":19572:19925   */\n      swap3\n      swap2\n      pop\n      pop\n      jump\t// out\n        /* \"#utility.yul\":20025:21380   */\n    tag_314:\n        /* \"#utility.yul\":20164:20167   */\n      0x00\n        /* \"#utility.yul\":20200:20204   */\n      0xc0\n        /* \"#utility.yul\":20195:20198   */\n      dup4\n        /* \"#utility.yul\":20191:20205   */\n      add\n        /* \"#utility.yul\":20290:20294   */\n      0x00\n        /* \"#utility.yul\":20283:20288   */\n      dup4\n        /* \"#utility.yul\":20279:20295   */\n      add\n        /* \"#utility.yul\":20273:20296   */\n      mload\n        /* \"#utility.yul\":20309:20372   */\n      tag_530\n        /* \"#utility.yul\":20366:20370   */\n      0x00\n        /* \"#utility.yul\":20361:20364   */\n      dup7\n        /* \"#utility.yul\":20357:20371   */\n      add\n        /* \"#utility.yul\":20343:20355   */\n      dup3\n        /* \"#utility.yul\":20309:20372   */\n      tag_303\n      jump\t// in\n    tag_530:\n        /* \"#utility.yul\":20215:20382   */\n      pop\n        /* \"#utility.yul\":20465:20469   */\n      0x20\n        /* \"#utility.yul\":20458:20463   */\n      dup4\n        /* \"#utility.yul\":20454:20470   */\n      add\n        /* \"#utility.yul\":20448:20471   */\n      mload\n        /* \"#utility.yul\":20484:20547   */\n      tag_531\n        /* \"#utility.yul\":20541:20545   */\n      0x20\n        /* \"#utility.yul\":20536:20539   */\n      dup7\n        /* \"#utility.yul\":20532:20546   */\n      add\n        /* \"#utility.yul\":20518:20530   */\n      dup3\n        /* \"#utility.yul\":20484:20547   */\n      tag_304\n      jump\t// in\n    tag_531:\n        /* \"#utility.yul\":20392:20557   */\n      pop\n        /* \"#utility.yul\":20655:20659   */\n      0x40\n        /* \"#utility.yul\":20648:20653   */\n      dup4\n        /* \"#utility.yul\":20644:20660   */\n      add\n        /* \"#utility.yul\":20638:20661   */\n      mload\n        /* \"#utility.yul\":20674:20735   */\n      tag_532\n        /* \"#utility.yul\":20729:20733   */\n      0x40\n        /* \"#utility.yul\":20724:20727   */\n      dup7\n        /* \"#utility.yul\":20720:20734   */\n      add\n        /* \"#utility.yul\":20706:20718   */\n      dup3\n        /* \"#utility.yul\":20674:20735   */\n      tag_306\n      jump\t// in\n    tag_532:\n        /* \"#utility.yul\":20567:20745   */\n      pop\n        /* \"#utility.yul\":20839:20843   */\n      0x60\n        /* \"#utility.yul\":20832:20837   */\n      dup4\n        /* \"#utility.yul\":20828:20844   */\n      add\n        /* \"#utility.yul\":20822:20845   */\n      mload\n        /* \"#utility.yul\":20858:20919   */\n      tag_533\n        /* \"#utility.yul\":20913:20917   */\n      0x60\n        /* \"#utility.yul\":20908:20911   */\n      dup7\n        /* \"#utility.yul\":20904:20918   */\n      add\n        /* \"#utility.yul\":20890:20902   */\n      dup3\n        /* \"#utility.yul\":20858:20919   */\n      tag_308\n      jump\t// in\n    tag_533:\n        /* \"#utility.yul\":20755:20929   */\n      pop\n        /* \"#utility.yul\":21015:21019   */\n      0x80\n        /* \"#utility.yul\":21008:21013   */\n      dup4\n        /* \"#utility.yul\":21004:21020   */\n      add\n        /* \"#utility.yul\":20998:21021   */\n      mload\n        /* \"#utility.yul\":21034:21095   */\n      tag_534\n        /* \"#utility.yul\":21089:21093   */\n      0x80\n        /* \"#utility.yul\":21084:21087   */\n      dup7\n        /* \"#utility.yul\":21080:21094   */\n      add\n        /* \"#utility.yul\":21066:21078   */\n      dup3\n        /* \"#utility.yul\":21034:21095   */\n      tag_308\n      jump\t// in\n    tag_534:\n        /* \"#utility.yul\":20939:21105   */\n      pop\n        /* \"#utility.yul\":21192:21196   */\n      0xa0\n        /* \"#utility.yul\":21185:21190   */\n      dup4\n        /* \"#utility.yul\":21181:21197   */\n      add\n        /* \"#utility.yul\":21175:21198   */\n      mload\n        /* \"#utility.yul\":21245:21248   */\n      dup5\n        /* \"#utility.yul\":21239:21243   */\n      dup3\n        /* \"#utility.yul\":21235:21249   */\n      sub\n        /* \"#utility.yul\":21228:21232   */\n      0xa0\n        /* \"#utility.yul\":21223:21226   */\n      dup7\n        /* \"#utility.yul\":21219:21233   */\n      add\n        /* \"#utility.yul\":21212:21250   */\n      mstore\n        /* \"#utility.yul\":21271:21342   */\n      tag_535\n        /* \"#utility.yul\":21337:21341   */\n      dup3\n        /* \"#utility.yul\":21323:21335   */\n      dup3\n        /* \"#utility.yul\":21271:21342   */\n      tag_313\n      jump\t// in\n    tag_535:\n        /* \"#utility.yul\":21263:21342   */\n      swap2\n      pop\n        /* \"#utility.yul\":21115:21353   */\n      pop\n        /* \"#utility.yul\":21370:21374   */\n      dup1\n        /* \"#utility.yul\":21363:21374   */\n      swap2\n      pop\n        /* \"#utility.yul\":20169:21380   */\n      pop\n        /* \"#utility.yul\":20025:21380   */\n      swap3\n      swap2\n      pop\n      pop\n      jump\t// out\n        /* \"#utility.yul\":21386:21799   */\n    tag_150:\n        /* \"#utility.yul\":21549:21553   */\n      0x00\n        /* \"#utility.yul\":21587:21589   */\n      0x20\n        /* \"#utility.yul\":21576:21585   */\n      dup3\n        /* \"#utility.yul\":21572:21590   */\n      add\n        /* \"#utility.yul\":21564:21590   */\n      swap1\n      pop\n        /* \"#utility.yul\":21636:21645   */\n      dup2\n        /* \"#utility.yul\":21630:21634   */\n      dup2\n        /* \"#utility.yul\":21626:21646   */\n      sub\n        /* \"#utility.yul\":21622:21623   */\n      0x00\n        /* \"#utility.yul\":21611:21620   */\n      dup4\n        /* \"#utility.yul\":21607:21624   */\n      add\n        /* \"#utility.yul\":21600:21647   */\n      mstore\n        /* \"#utility.yul\":21664:21792   */\n      tag_537\n        /* \"#utility.yul\":21787:21791   */\n      dup2\n        /* \"#utility.yul\":21778:21784   */\n      dup5\n        /* \"#utility.yul\":21664:21792   */\n      tag_314\n      jump\t// in\n    tag_537:\n        /* \"#utility.yul\":21656:21792   */\n      swap1\n      pop\n        /* \"#utility.yul\":21386:21799   */\n      swap3\n      swap2\n      pop\n      pop\n      jump\t// out\n        /* \"#utility.yul\":21805:21948   */\n    tag_315:\n        /* \"#utility.yul\":21862:21867   */\n      0x00\n        /* \"#utility.yul\":21893:21899   */\n      dup2\n        /* \"#utility.yul\":21887:21900   */\n      mload\n        /* \"#utility.yul\":21878:21900   */\n      swap1\n      pop\n        /* \"#utility.yul\":21909:21942   */\n      tag_539\n        /* \"#utility.yul\":21936:21941   */\n      dup2\n        /* \"#utility.yul\":21909:21942   */\n      tag_260\n      jump\t// in\n    tag_539:\n        /* \"#utility.yul\":21805:21948   */\n      swap3\n      swap2\n      pop\n      pop\n      jump\t// out\n        /* \"#utility.yul\":21954:22305   */\n    tag_154:\n        /* \"#utility.yul\":22024:22030   */\n      0x00\n        /* \"#utility.yul\":22073:22075   */\n      0x20\n        /* \"#utility.yul\":22061:22070   */\n      dup3\n        /* \"#utility.yul\":22052:22059   */\n      dup5\n        /* \"#utility.yul\":22048:22071   */\n      sub\n        /* \"#utility.yul\":22044:22076   */\n      slt\n        /* \"#utility.yul\":22041:22160   */\n      iszero\n      tag_541\n      jumpi\n        /* \"#utility.yul\":22079:22158   */\n      tag_542\n      tag_257\n      jump\t// in\n    tag_542:\n        /* \"#utility.yul\":22041:22160   */\n    tag_541:\n        /* \"#utility.yul\":22199:22200   */\n      0x00\n        /* \"#utility.yul\":22224:22288   */\n      tag_543\n        /* \"#utility.yul\":22280:22287   */\n      dup5\n        /* \"#utility.yul\":22271:22277   */\n      dup3\n        /* \"#utility.yul\":22260:22269   */\n      dup6\n        /* \"#utility.yul\":22256:22278   */\n      add\n        /* \"#utility.yul\":22224:22288   */\n      tag_315\n      jump\t// in\n    tag_543:\n        /* \"#utility.yul\":22214:22288   */\n      swap2\n      pop\n        /* \"#utility.yul\":22170:22298   */\n      pop\n        /* \"#utility.yul\":21954:22305   */\n      swap3\n      swap2\n      pop\n      pop\n      jump\t// out\n        /* \"#utility.yul\":22311:22864   */\n    tag_156:\n        /* \"#utility.yul\":22488:22492   */\n      0x00\n        /* \"#utility.yul\":22526:22529   */\n      0x80\n        /* \"#utility.yul\":22515:22524   */\n      dup3\n        /* \"#utility.yul\":22511:22530   */\n      add\n        /* \"#utility.yul\":22503:22530   */\n      swap1\n      pop\n        /* \"#utility.yul\":22540:22611   */\n      tag_545\n        /* \"#utility.yul\":22608:22609   */\n      0x00\n        /* \"#utility.yul\":22597:22606   */\n      dup4\n        /* \"#utility.yul\":22593:22610   */\n      add\n        /* \"#utility.yul\":22584:22590   */\n      dup8\n        /* \"#utility.yul\":22540:22611   */\n      tag_269\n      jump\t// in\n    tag_545:\n        /* \"#utility.yul\":22621:22693   */\n      tag_546\n        /* \"#utility.yul\":22689:22691   */\n      0x20\n        /* \"#utility.yul\":22678:22687   */\n      dup4\n        /* \"#utility.yul\":22674:22692   */\n      add\n        /* \"#utility.yul\":22665:22671   */\n      dup7\n        /* \"#utility.yul\":22621:22693   */\n      tag_266\n      jump\t// in\n    tag_546:\n        /* \"#utility.yul\":22703:22775   */\n      tag_547\n        /* \"#utility.yul\":22771:22773   */\n      0x40\n        /* \"#utility.yul\":22760:22769   */\n      dup4\n        /* \"#utility.yul\":22756:22774   */\n      add\n        /* \"#utility.yul\":22747:22753   */\n      dup6\n        /* \"#utility.yul\":22703:22775   */\n      tag_266\n      jump\t// in\n    tag_547:\n        /* \"#utility.yul\":22785:22857   */\n      tag_548\n        /* \"#utility.yul\":22853:22855   */\n      0x60\n        /* \"#utility.yul\":22842:22851   */\n      dup4\n        /* \"#utility.yul\":22838:22856   */\n      add\n        /* \"#utility.yul\":22829:22835   */\n      dup5\n        /* \"#utility.yul\":22785:22857   */\n      tag_266\n      jump\t// in\n    tag_548:\n        /* \"#utility.yul\":22311:22864   */\n      swap6\n      swap5\n      pop\n      pop\n      pop\n      pop\n      pop\n      jump\t// out\n        /* \"#utility.yul\":22870:23042   */\n    tag_316:\n        /* \"#utility.yul\":23010:23034   */\n      0x4d7573742062652070726f706f736564206f776e657200000000000000000000\n        /* \"#utility.yul\":23006:23007   */\n      0x00\n        /* \"#utility.yul\":22998:23004   */\n      dup3\n        /* \"#utility.yul\":22994:23008   */\n      add\n        /* \"#utility.yul\":22987:23035   */\n      mstore\n        /* \"#utility.yul\":22870:23042   */\n      pop\n      jump\t// out\n        /* \"#utility.yul\":23048:23414   */\n    tag_317:\n        /* \"#utility.yul\":23190:23193   */\n      0x00\n        /* \"#utility.yul\":23211:23278   */\n      tag_551\n        /* \"#utility.yul\":23275:23277   */\n      0x16\n        /* \"#utility.yul\":23270:23273   */\n      dup4\n        /* \"#utility.yul\":23211:23278   */\n      tag_279\n      jump\t// in\n    tag_551:\n        /* \"#utility.yul\":23204:23278   */\n      swap2\n      pop\n        /* \"#utility.yul\":23287:23380   */\n      tag_552\n        /* \"#utility.yul\":23376:23379   */\n      dup3\n        /* \"#utility.yul\":23287:23380   */\n      tag_316\n      jump\t// in\n    tag_552:\n        /* \"#utility.yul\":23405:23407   */\n      0x20\n        /* \"#utility.yul\":23400:23403   */\n      dup3\n        /* \"#utility.yul\":23396:23408   */\n      add\n        /* \"#utility.yul\":23389:23408   */\n      swap1\n      pop\n        /* \"#utility.yul\":23048:23414   */\n      swap2\n      swap1\n      pop\n      jump\t// out\n        /* \"#utility.yul\":23420:23839   */\n    tag_160:\n        /* \"#utility.yul\":23586:23590   */\n      0x00\n        /* \"#utility.yul\":23624:23626   */\n      0x20\n        /* \"#utility.yul\":23613:23622   */\n      dup3\n        /* \"#utility.yul\":23609:23627   */\n      add\n        /* \"#utility.yul\":23601:23627   */\n      swap1\n      pop\n        /* \"#utility.yul\":23673:23682   */\n      dup2\n        /* \"#utility.yul\":23667:23671   */\n      dup2\n        /* \"#utility.yul\":23663:23683   */\n      sub\n        /* \"#utility.yul\":23659:23660   */\n      0x00\n        /* \"#utility.yul\":23648:23657   */\n      dup4\n        /* \"#utility.yul\":23644:23661   */\n      add\n        /* \"#utility.yul\":23637:23684   */\n      mstore\n        /* \"#utility.yul\":23701:23832   */\n      tag_554\n        /* \"#utility.yul\":23827:23831   */\n      dup2\n        /* \"#utility.yul\":23701:23832   */\n      tag_317\n      jump\t// in\n    tag_554:\n        /* \"#utility.yul\":23693:23832   */\n      swap1\n      pop\n        /* \"#utility.yul\":23420:23839   */\n      swap2\n      swap1\n      pop\n      jump\t// out\n        /* \"#utility.yul\":23845:24287   */\n    tag_169:\n        /* \"#utility.yul\":23994:23998   */\n      0x00\n        /* \"#utility.yul\":24032:24034   */\n      0x60\n        /* \"#utility.yul\":24021:24030   */\n      dup3\n        /* \"#utility.yul\":24017:24035   */\n      add\n        /* \"#utility.yul\":24009:24035   */\n      swap1\n      pop\n        /* \"#utility.yul\":24045:24116   */\n      tag_556\n        /* \"#utility.yul\":24113:24114   */\n      0x00\n        /* \"#utility.yul\":24102:24111   */\n      dup4\n        /* \"#utility.yul\":24098:24115   */\n      add\n        /* \"#utility.yul\":24089:24095   */\n      dup7\n        /* \"#utility.yul\":24045:24116   */\n      tag_269\n      jump\t// in\n    tag_556:\n        /* \"#utility.yul\":24126:24198   */\n      tag_557\n        /* \"#utility.yul\":24194:24196   */\n      0x20\n        /* \"#utility.yul\":24183:24192   */\n      dup4\n        /* \"#utility.yul\":24179:24197   */\n      add\n        /* \"#utility.yul\":24170:24176   */\n      dup6\n        /* \"#utility.yul\":24126:24198   */\n      tag_269\n      jump\t// in\n    tag_557:\n        /* \"#utility.yul\":24208:24280   */\n      tag_558\n        /* \"#utility.yul\":24276:24278   */\n      0x40\n        /* \"#utility.yul\":24265:24274   */\n      dup4\n        /* \"#utility.yul\":24261:24279   */\n      add\n        /* \"#utility.yul\":24252:24258   */\n      dup5\n        /* \"#utility.yul\":24208:24280   */\n      tag_269\n      jump\t// in\n    tag_558:\n        /* \"#utility.yul\":23845:24287   */\n      swap5\n      swap4\n      pop\n      pop\n      pop\n      pop\n      jump\t// out\n        /* \"#utility.yul\":24293:24463   */\n    tag_318:\n        /* \"#utility.yul\":24433:24455   */\n      0x636f7272656374206a6f696e2061646472657373000000000000000000000000\n        /* \"#utility.yul\":24429:24430   */\n      0x00\n        /* \"#utility.yul\":24421:24427   */\n      dup3\n        /* \"#utility.yul\":24417:24431   */\n      add\n        /* \"#utility.yul\":24410:24456   */\n      mstore\n        /* \"#utility.yul\":24293:24463   */\n      pop\n      jump\t// out\n        /* \"#utility.yul\":24469:24835   */\n    tag_319:\n        /* \"#utility.yul\":24611:24614   */\n      0x00\n        /* \"#utility.yul\":24632:24699   */\n      tag_561\n        /* \"#utility.yul\":24696:24698   */\n      0x14\n        /* \"#utility.yul\":24691:24694   */\n      dup4\n        /* \"#utility.yul\":24632:24699   */\n      tag_279\n      jump\t// in\n    tag_561:\n        /* \"#utility.yul\":24625:24699   */\n      swap2\n      pop\n        /* \"#utility.yul\":24708:24801   */\n      tag_562\n        /* \"#utility.yul\":24797:24800   */\n      dup3\n        /* \"#utility.yul\":24708:24801   */\n      tag_318\n      jump\t// in\n    tag_562:\n        /* \"#utility.yul\":24826:24828   */\n      0x20\n        /* \"#utility.yul\":24821:24824   */\n      dup3\n        /* \"#utility.yul\":24817:24829   */\n      add\n        /* \"#utility.yul\":24810:24829   */\n      swap1\n      pop\n        /* \"#utility.yul\":24469:24835   */\n      swap2\n      swap1\n      pop\n      jump\t// out\n        /* \"#utility.yul\":24841:25260   */\n    tag_176:\n        /* \"#utility.yul\":25007:25011   */\n      0x00\n        /* \"#utility.yul\":25045:25047   */\n      0x20\n        /* \"#utility.yul\":25034:25043   */\n      dup3\n        /* \"#utility.yul\":25030:25048   */\n      add\n        /* \"#utility.yul\":25022:25048   */\n      swap1\n      pop\n        /* \"#utility.yul\":25094:25103   */\n      dup2\n        /* \"#utility.yul\":25088:25092   */\n      dup2\n        /* \"#utility.yul\":25084:25104   */\n      sub\n        /* \"#utility.yul\":25080:25081   */\n      0x00\n        /* \"#utility.yul\":25069:25078   */\n      dup4\n        /* \"#utility.yul\":25065:25082   */\n      add\n        /* \"#utility.yul\":25058:25105   */\n      mstore\n        /* \"#utility.yul\":25122:25253   */\n      tag_564\n        /* \"#utility.yul\":25248:25252   */\n      dup2\n        /* \"#utility.yul\":25122:25253   */\n      tag_319\n      jump\t// in\n    tag_564:\n        /* \"#utility.yul\":25114:25253   */\n      swap1\n      pop\n        /* \"#utility.yul\":24841:25260   */\n      swap2\n      swap1\n      pop\n      jump\t// out\n        /* \"#utility.yul\":25266:25436   */\n    tag_320:\n        /* \"#utility.yul\":25406:25428   */\n      0x63757272656e74207461736b2068617320656e64000000000000000000000000\n        /* \"#utility.yul\":25402:25403   */\n      0x00\n        /* \"#utility.yul\":25394:25400   */\n      dup3\n        /* \"#utility.yul\":25390:25404   */\n      add\n        /* \"#utility.yul\":25383:25429   */\n      mstore\n        /* \"#utility.yul\":25266:25436   */\n      pop\n      jump\t// out\n        /* \"#utility.yul\":25442:25808   */\n    tag_321:\n        /* \"#utility.yul\":25584:25587   */\n      0x00\n        /* \"#utility.yul\":25605:25672   */\n      tag_567\n        /* \"#utility.yul\":25669:25671   */\n      0x14\n        /* \"#utility.yul\":25664:25667   */\n      dup4\n        /* \"#utility.yul\":25605:25672   */\n      tag_279\n      jump\t// in\n    tag_567:\n        /* \"#utility.yul\":25598:25672   */\n      swap2\n      pop\n        /* \"#utility.yul\":25681:25774   */\n      tag_568\n        /* \"#utility.yul\":25770:25773   */\n      dup3\n        /* \"#utility.yul\":25681:25774   */\n      tag_320\n      jump\t// in\n    tag_568:\n        /* \"#utility.yul\":25799:25801   */\n      0x20\n        /* \"#utility.yul\":25794:25797   */\n      dup3\n        /* \"#utility.yul\":25790:25802   */\n      add\n        /* \"#utility.yul\":25783:25802   */\n      swap1\n      pop\n        /* \"#utility.yul\":25442:25808   */\n      swap2\n      swap1\n      pop\n      jump\t// out\n        /* \"#utility.yul\":25814:26233   */\n    tag_180:\n        /* \"#utility.yul\":25980:25984   */\n      0x00\n        /* \"#utility.yul\":26018:26020   */\n      0x20\n        /* \"#utility.yul\":26007:26016   */\n      dup3\n        /* \"#utility.yul\":26003:26021   */\n      add\n        /* \"#utility.yul\":25995:26021   */\n      swap1\n      pop\n        /* \"#utility.yul\":26067:26076   */\n      dup2\n        /* \"#utility.yul\":26061:26065   */\n      dup2\n        /* \"#utility.yul\":26057:26077   */\n      sub\n        /* \"#utility.yul\":26053:26054   */\n      0x00\n        /* \"#utility.yul\":26042:26051   */\n      dup4\n        /* \"#utility.yul\":26038:26055   */\n      add\n        /* \"#utility.yul\":26031:26078   */\n      mstore\n        /* \"#utility.yul\":26095:26226   */\n      tag_570\n        /* \"#utility.yul\":26221:26225   */\n      dup2\n        /* \"#utility.yul\":26095:26226   */\n      tag_321\n      jump\t// in\n    tag_570:\n        /* \"#utility.yul\":26087:26226   */\n      swap1\n      pop\n        /* \"#utility.yul\":25814:26233   */\n      swap2\n      swap1\n      pop\n      jump\t// out\n        /* \"#utility.yul\":26239:26464   */\n    tag_322:\n        /* \"#utility.yul\":26379:26413   */\n      0x6a6f696e207072696365206d75737420626520626967207468616e207469636b\n        /* \"#utility.yul\":26375:26376   */\n      0x00\n        /* \"#utility.yul\":26367:26373   */\n      dup3\n        /* \"#utility.yul\":26363:26377   */\n      add\n        /* \"#utility.yul\":26356:26414   */\n      mstore\n        /* \"#utility.yul\":26448:26456   */\n      0x2070726963650000000000000000000000000000000000000000000000000000\n        /* \"#utility.yul\":26443:26445   */\n      0x20\n        /* \"#utility.yul\":26435:26441   */\n      dup3\n        /* \"#utility.yul\":26431:26446   */\n      add\n        /* \"#utility.yul\":26424:26457   */\n      mstore\n        /* \"#utility.yul\":26239:26464   */\n      pop\n      jump\t// out\n        /* \"#utility.yul\":26470:26836   */\n    tag_323:\n        /* \"#utility.yul\":26612:26615   */\n      0x00\n        /* \"#utility.yul\":26633:26700   */\n      tag_573\n        /* \"#utility.yul\":26697:26699   */\n      0x26\n        /* \"#utility.yul\":26692:26695   */\n      dup4\n        /* \"#utility.yul\":26633:26700   */\n      tag_279\n      jump\t// in\n    tag_573:\n        /* \"#utility.yul\":26626:26700   */\n      swap2\n      pop\n        /* \"#utility.yul\":26709:26802   */\n      tag_574\n        /* \"#utility.yul\":26798:26801   */\n      dup3\n        /* \"#utility.yul\":26709:26802   */\n      tag_322\n      jump\t// in\n    tag_574:\n        /* \"#utility.yul\":26827:26829   */\n      0x40\n        /* \"#utility.yul\":26822:26825   */\n      dup3\n        /* \"#utility.yul\":26818:26830   */\n      add\n        /* \"#utility.yul\":26811:26830   */\n      swap1\n      pop\n        /* \"#utility.yul\":26470:26836   */\n      swap2\n      swap1\n      pop\n      jump\t// out\n        /* \"#utility.yul\":26842:27261   */\n    tag_185:\n        /* \"#utility.yul\":27008:27012   */\n      0x00\n        /* \"#utility.yul\":27046:27048   */\n      0x20\n        /* \"#utility.yul\":27035:27044   */\n      dup3\n        /* \"#utility.yul\":27031:27049   */\n      add\n        /* \"#utility.yul\":27023:27049   */\n      swap1\n      pop\n        /* \"#utility.yul\":27095:27104   */\n      dup2\n        /* \"#utility.yul\":27089:27093   */\n      dup2\n        /* \"#utility.yul\":27085:27105   */\n      sub\n        /* \"#utility.yul\":27081:27082   */\n      0x00\n        /* \"#utility.yul\":27070:27079   */\n      dup4\n        /* \"#utility.yul\":27066:27083   */\n      add\n        /* \"#utility.yul\":27059:27106   */\n      mstore\n        /* \"#utility.yul\":27123:27254   */\n      tag_576\n        /* \"#utility.yul\":27249:27253   */\n      dup2\n        /* \"#utility.yul\":27123:27254   */\n      tag_323\n      jump\t// in\n    tag_576:\n        /* \"#utility.yul\":27115:27254   */\n      swap1\n      pop\n        /* \"#utility.yul\":26842:27261   */\n      swap2\n      swap1\n      pop\n      jump\t// out\n        /* \"#utility.yul\":27267:27501   */\n    tag_324:\n        /* \"#utility.yul\":27407:27441   */\n      0x796f7520686173206a6f696e2069742c706c656173652077616974696e67206c\n        /* \"#utility.yul\":27403:27404   */\n      0x00\n        /* \"#utility.yul\":27395:27401   */\n      dup3\n        /* \"#utility.yul\":27391:27405   */\n      add\n        /* \"#utility.yul\":27384:27442   */\n      mstore\n        /* \"#utility.yul\":27476:27493   */\n      0x75636b7920676f696e6720646f776e0000000000000000000000000000000000\n        /* \"#utility.yul\":27471:27473   */\n      0x20\n        /* \"#utility.yul\":27463:27469   */\n      dup3\n        /* \"#utility.yul\":27459:27474   */\n      add\n        /* \"#utility.yul\":27452:27494   */\n      mstore\n        /* \"#utility.yul\":27267:27501   */\n      pop\n      jump\t// out\n        /* \"#utility.yul\":27507:27873   */\n    tag_325:\n        /* \"#utility.yul\":27649:27652   */\n      0x00\n        /* \"#utility.yul\":27670:27737   */\n      tag_579\n        /* \"#utility.yul\":27734:27736   */\n      0x2f\n        /* \"#utility.yul\":27729:27732   */\n      dup4\n        /* \"#utility.yul\":27670:27737   */\n      tag_279\n      jump\t// in\n    tag_579:\n        /* \"#utility.yul\":27663:27737   */\n      swap2\n      pop\n        /* \"#utility.yul\":27746:27839   */\n      tag_580\n        /* \"#utility.yul\":27835:27838   */\n      dup3\n        /* \"#utility.yul\":27746:27839   */\n      tag_324\n      jump\t// in\n    tag_580:\n        /* \"#utility.yul\":27864:27866   */\n      0x40\n        /* \"#utility.yul\":27859:27862   */\n      dup3\n        /* \"#utility.yul\":27855:27867   */\n      add\n        /* \"#utility.yul\":27848:27867   */\n      swap1\n      pop\n        /* \"#utility.yul\":27507:27873   */\n      swap2\n      swap1\n      pop\n      jump\t// out\n        /* \"#utility.yul\":27879:28298   */\n    tag_188:\n        /* \"#utility.yul\":28045:28049   */\n      0x00\n        /* \"#utility.yul\":28083:28085   */\n      0x20\n        /* \"#utility.yul\":28072:28081   */\n      dup3\n        /* \"#utility.yul\":28068:28086   */\n      add\n        /* \"#utility.yul\":28060:28086   */\n      swap1\n      pop\n        /* \"#utility.yul\":28132:28141   */\n      dup2\n        /* \"#utility.yul\":28126:28130   */\n      dup2\n        /* \"#utility.yul\":28122:28142   */\n      sub\n        /* \"#utility.yul\":28118:28119   */\n      0x00\n        /* \"#utility.yul\":28107:28116   */\n      dup4\n        /* \"#utility.yul\":28103:28120   */\n      add\n        /* \"#utility.yul\":28096:28143   */\n      mstore\n        /* \"#utility.yul\":28160:28291   */\n      tag_582\n        /* \"#utility.yul\":28286:28290   */\n      dup2\n        /* \"#utility.yul\":28160:28291   */\n      tag_325\n      jump\t// in\n    tag_582:\n        /* \"#utility.yul\":28152:28291   */\n      swap1\n      pop\n        /* \"#utility.yul\":27879:28298   */\n      swap2\n      swap1\n      pop\n      jump\t// out\n        /* \"#utility.yul\":28304:28484   */\n    tag_326:\n        /* \"#utility.yul\":28352:28429   */\n      0x4e487b7100000000000000000000000000000000000000000000000000000000\n        /* \"#utility.yul\":28349:28350   */\n      0x00\n        /* \"#utility.yul\":28342:28430   */\n      mstore\n        /* \"#utility.yul\":28449:28453   */\n      0x11\n        /* \"#utility.yul\":28446:28447   */\n      0x04\n        /* \"#utility.yul\":28439:28454   */\n      mstore\n        /* \"#utility.yul\":28473:28477   */\n      0x24\n        /* \"#utility.yul\":28470:28471   */\n      0x00\n        /* \"#utility.yul\":28463:28478   */\n      revert\n        /* \"#utility.yul\":28490:28681   */\n    tag_190:\n        /* \"#utility.yul\":28530:28533   */\n      0x00\n        /* \"#utility.yul\":28549:28569   */\n      tag_585\n        /* \"#utility.yul\":28567:28568   */\n      dup3\n        /* \"#utility.yul\":28549:28569   */\n      tag_259\n      jump\t// in\n    tag_585:\n        /* \"#utility.yul\":28544:28569   */\n      swap2\n      pop\n        /* \"#utility.yul\":28583:28603   */\n      tag_586\n        /* \"#utility.yul\":28601:28602   */\n      dup4\n        /* \"#utility.yul\":28583:28603   */\n      tag_259\n      jump\t// in\n    tag_586:\n        /* \"#utility.yul\":28578:28603   */\n      swap3\n      pop\n        /* \"#utility.yul\":28626:28627   */\n      dup3\n        /* \"#utility.yul\":28623:28624   */\n      dup3\n        /* \"#utility.yul\":28619:28628   */\n      add\n        /* \"#utility.yul\":28612:28628   */\n      swap1\n      pop\n        /* \"#utility.yul\":28647:28650   */\n      dup1\n        /* \"#utility.yul\":28644:28645   */\n      dup3\n        /* \"#utility.yul\":28641:28651   */\n      gt\n        /* \"#utility.yul\":28638:28674   */\n      iszero\n      tag_587\n      jumpi\n        /* \"#utility.yul\":28654:28672   */\n      tag_588\n      tag_326\n      jump\t// in\n    tag_588:\n        /* \"#utility.yul\":28638:28674   */\n    tag_587:\n        /* \"#utility.yul\":28490:28681   */\n      swap3\n      swap2\n      pop\n      pop\n      jump\t// out\n        /* \"#utility.yul\":28687:28789   */\n    tag_327:\n        /* \"#utility.yul\":28729:28737   */\n      0x00\n        /* \"#utility.yul\":28776:28781   */\n      dup2\n        /* \"#utility.yul\":28773:28774   */\n      0x01\n        /* \"#utility.yul\":28769:28782   */\n      shr\n        /* \"#utility.yul\":28748:28782   */\n      swap1\n      pop\n        /* \"#utility.yul\":28687:28789   */\n      swap2\n      swap1\n      pop\n      jump\t// out\n        /* \"#utility.yul\":28795:29643   */\n    tag_328:\n        /* \"#utility.yul\":28856:28861   */\n      0x00\n        /* \"#utility.yul\":28863:28867   */\n      0x00\n        /* \"#utility.yul\":28887:28893   */\n      dup3\n        /* \"#utility.yul\":28878:28893   */\n      swap2\n      pop\n        /* \"#utility.yul\":28911:28916   */\n      dup4\n        /* \"#utility.yul\":28902:28916   */\n      swap1\n      pop\n        /* \"#utility.yul\":28925:29637   */\n    tag_591:\n        /* \"#utility.yul\":28946:28947   */\n      0x01\n        /* \"#utility.yul\":28936:28944   */\n      dup6\n        /* \"#utility.yul\":28933:28948   */\n      gt\n        /* \"#utility.yul\":28925:29637   */\n      iszero\n      tag_593\n      jumpi\n        /* \"#utility.yul\":29041:29045   */\n      dup1\n        /* \"#utility.yul\":29036:29039   */\n      dup7\n        /* \"#utility.yul\":29032:29046   */\n      div\n        /* \"#utility.yul\":29026:29030   */\n      dup2\n        /* \"#utility.yul\":29023:29047   */\n      gt\n        /* \"#utility.yul\":29020:29070   */\n      iszero\n      tag_594\n      jumpi\n        /* \"#utility.yul\":29050:29068   */\n      tag_595\n      tag_326\n      jump\t// in\n    tag_595:\n        /* \"#utility.yul\":29020:29070   */\n    tag_594:\n        /* \"#utility.yul\":29100:29101   */\n      0x01\n        /* \"#utility.yul\":29090:29098   */\n      dup6\n        /* \"#utility.yul\":29086:29102   */\n      and\n        /* \"#utility.yul\":29083:29534   */\n      iszero\n      tag_596\n      jumpi\n        /* \"#utility.yul\":29515:29519   */\n      dup1\n        /* \"#utility.yul\":29508:29513   */\n      dup3\n        /* \"#utility.yul\":29504:29520   */\n      mul\n        /* \"#utility.yul\":29495:29520   */\n      swap2\n      pop\n        /* \"#utility.yul\":29083:29534   */\n    tag_596:\n        /* \"#utility.yul\":29565:29569   */\n      dup1\n        /* \"#utility.yul\":29559:29563   */\n      dup2\n        /* \"#utility.yul\":29555:29570   */\n      mul\n        /* \"#utility.yul\":29547:29570   */\n      swap1\n      pop\n        /* \"#utility.yul\":29595:29627   */\n      tag_597\n        /* \"#utility.yul\":29618:29626   */\n      dup6\n        /* \"#utility.yul\":29595:29627   */\n      tag_327\n      jump\t// in\n    tag_597:\n        /* \"#utility.yul\":29583:29627   */\n      swap5\n      pop\n        /* \"#utility.yul\":28925:29637   */\n      jump(tag_591)\n    tag_593:\n        /* \"#utility.yul\":28795:29643   */\n      swap5\n      pop\n      swap5\n      swap3\n      pop\n      pop\n      pop\n      jump\t// out\n        /* \"#utility.yul\":29649:30722   */\n    tag_329:\n        /* \"#utility.yul\":29703:29708   */\n      0x00\n        /* \"#utility.yul\":29894:29902   */\n      dup3\n        /* \"#utility.yul\":29884:29924   */\n      tag_599\n      jumpi\n        /* \"#utility.yul\":29915:29916   */\n      0x01\n        /* \"#utility.yul\":29906:29916   */\n      swap1\n      pop\n        /* \"#utility.yul\":29917:29922   */\n      jump(tag_598)\n        /* \"#utility.yul\":29884:29924   */\n    tag_599:\n        /* \"#utility.yul\":29943:29947   */\n      dup2\n        /* \"#utility.yul\":29933:29969   */\n      tag_600\n      jumpi\n        /* \"#utility.yul\":29960:29961   */\n      0x00\n        /* \"#utility.yul\":29951:29961   */\n      swap1\n      pop\n        /* \"#utility.yul\":29962:29967   */\n      jump(tag_598)\n        /* \"#utility.yul\":29933:29969   */\n    tag_600:\n        /* \"#utility.yul\":30029:30033   */\n      dup2\n        /* \"#utility.yul\":30077:30078   */\n      0x01\n        /* \"#utility.yul\":30072:30099   */\n      dup2\n      eq\n      tag_602\n      jumpi\n        /* \"#utility.yul\":30113:30114   */\n      0x02\n        /* \"#utility.yul\":30108:30299   */\n      dup2\n      eq\n      tag_603\n      jumpi\n        /* \"#utility.yul\":30022:30299   */\n      jump(tag_601)\n        /* \"#utility.yul\":30072:30099   */\n    tag_602:\n        /* \"#utility.yul\":30090:30091   */\n      0x01\n        /* \"#utility.yul\":30081:30091   */\n      swap2\n      pop\n        /* \"#utility.yul\":30092:30097   */\n      pop\n      jump(tag_598)\n        /* \"#utility.yul\":30108:30299   */\n    tag_603:\n        /* \"#utility.yul\":30153:30156   */\n      0xff\n        /* \"#utility.yul\":30143:30151   */\n      dup5\n        /* \"#utility.yul\":30140:30157   */\n      gt\n        /* \"#utility.yul\":30137:30180   */\n      iszero\n      tag_604\n      jumpi\n        /* \"#utility.yul\":30160:30178   */\n      tag_605\n      tag_326\n      jump\t// in\n    tag_605:\n        /* \"#utility.yul\":30137:30180   */\n    tag_604:\n        /* \"#utility.yul\":30209:30217   */\n      dup4\n        /* \"#utility.yul\":30206:30207   */\n      0x02\n        /* \"#utility.yul\":30202:30218   */\n      exp\n        /* \"#utility.yul\":30193:30218   */\n      swap2\n      pop\n        /* \"#utility.yul\":30244:30247   */\n      dup5\n        /* \"#utility.yul\":30237:30242   */\n      dup3\n        /* \"#utility.yul\":30234:30248   */\n      gt\n        /* \"#utility.yul\":30231:30271   */\n      iszero\n      tag_606\n      jumpi\n        /* \"#utility.yul\":30251:30269   */\n      tag_607\n      tag_326\n      jump\t// in\n    tag_607:\n        /* \"#utility.yul\":30231:30271   */\n    tag_606:\n        /* \"#utility.yul\":30284:30289   */\n      pop\n      jump(tag_598)\n        /* \"#utility.yul\":30022:30299   */\n    tag_601:\n      pop\n        /* \"#utility.yul\":30408:30410   */\n      0x20\n        /* \"#utility.yul\":30398:30406   */\n      dup4\n        /* \"#utility.yul\":30395:30411   */\n      lt\n        /* \"#utility.yul\":30389:30392   */\n      0x0133\n        /* \"#utility.yul\":30383:30387   */\n      dup4\n        /* \"#utility.yul\":30380:30393   */\n      lt\n        /* \"#utility.yul\":30376:30412   */\n      and\n        /* \"#utility.yul\":30358:30360   */\n      0x4e\n        /* \"#utility.yul\":30348:30356   */\n      dup5\n        /* \"#utility.yul\":30345:30361   */\n      lt\n        /* \"#utility.yul\":30340:30342   */\n      0x0b\n        /* \"#utility.yul\":30334:30338   */\n      dup5\n        /* \"#utility.yul\":30331:30343   */\n      lt\n        /* \"#utility.yul\":30327:30362   */\n      and\n        /* \"#utility.yul\":30311:30422   */\n      or\n        /* \"#utility.yul\":30308:30554   */\n      iszero\n      tag_608\n      jumpi\n        /* \"#utility.yul\":30464:30472   */\n      dup3\n        /* \"#utility.yul\":30458:30462   */\n      dup3\n        /* \"#utility.yul\":30454:30473   */\n      exp\n        /* \"#utility.yul\":30445:30473   */\n      swap1\n      pop\n        /* \"#utility.yul\":30499:30502   */\n      dup4\n        /* \"#utility.yul\":30492:30497   */\n      dup2\n        /* \"#utility.yul\":30489:30503   */\n      gt\n        /* \"#utility.yul\":30486:30526   */\n      iszero\n      tag_609\n      jumpi\n        /* \"#utility.yul\":30506:30524   */\n      tag_610\n      tag_326\n      jump\t// in\n    tag_610:\n        /* \"#utility.yul\":30486:30526   */\n    tag_609:\n        /* \"#utility.yul\":30539:30544   */\n      jump(tag_598)\n        /* \"#utility.yul\":30308:30554   */\n    tag_608:\n        /* \"#utility.yul\":30579:30621   */\n      tag_611\n        /* \"#utility.yul\":30617:30620   */\n      dup5\n        /* \"#utility.yul\":30607:30615   */\n      dup5\n        /* \"#utility.yul\":30601:30605   */\n      dup5\n        /* \"#utility.yul\":30598:30599   */\n      0x01\n        /* \"#utility.yul\":30579:30621   */\n      tag_328\n      jump\t// in\n    tag_611:\n        /* \"#utility.yul\":30564:30621   */\n      swap3\n      pop\n      swap1\n      pop\n        /* \"#utility.yul\":30653:30657   */\n      dup2\n        /* \"#utility.yul\":30648:30651   */\n      dup5\n        /* \"#utility.yul\":30644:30658   */\n      div\n        /* \"#utility.yul\":30637:30642   */\n      dup2\n        /* \"#utility.yul\":30634:30659   */\n      gt\n        /* \"#utility.yul\":30631:30682   */\n      iszero\n      tag_612\n      jumpi\n        /* \"#utility.yul\":30662:30680   */\n      tag_613\n      tag_326\n      jump\t// in\n    tag_613:\n        /* \"#utility.yul\":30631:30682   */\n    tag_612:\n        /* \"#utility.yul\":30711:30715   */\n      dup2\n        /* \"#utility.yul\":30704:30709   */\n      dup2\n        /* \"#utility.yul\":30700:30716   */\n      mul\n        /* \"#utility.yul\":30691:30716   */\n      swap1\n      pop\n        /* \"#utility.yul\":29649:30722   */\n    tag_598:\n      swap4\n      swap3\n      pop\n      pop\n      pop\n      jump\t// out\n        /* \"#utility.yul\":30728:31013   */\n    tag_194:\n        /* \"#utility.yul\":30788:30793   */\n      0x00\n        /* \"#utility.yul\":30812:30835   */\n      tag_615\n        /* \"#utility.yul\":30830:30834   */\n      dup3\n        /* \"#utility.yul\":30812:30835   */\n      tag_259\n      jump\t// in\n    tag_615:\n        /* \"#utility.yul\":30804:30835   */\n      swap2\n      pop\n        /* \"#utility.yul\":30856:30883   */\n      tag_616\n        /* \"#utility.yul\":30874:30882   */\n      dup4\n        /* \"#utility.yul\":30856:30883   */\n      tag_259\n      jump\t// in\n    tag_616:\n        /* \"#utility.yul\":30844:30883   */\n      swap3\n      pop\n        /* \"#utility.yul\":30902:31006   */\n      tag_617\n        /* \"#utility.yul\":30939:31005   */\n      0xffffffffffffffffffffffffffffffffffffffffffffffffffffffffffffffff\n        /* \"#utility.yul\":30929:30937   */\n      dup5\n        /* \"#utility.yul\":30923:30927   */\n      dup5\n        /* \"#utility.yul\":30902:31006   */\n      tag_329\n      jump\t// in\n    tag_617:\n        /* \"#utility.yul\":30893:31006   */\n      swap1\n      pop\n        /* \"#utility.yul\":30728:31013   */\n      swap3\n      swap2\n      pop\n      pop\n      jump\t// out\n        /* \"#utility.yul\":31019:31189   */\n    tag_330:\n        /* \"#utility.yul\":31159:31181   */\n      0x6e6f7420616c6c6c6f776564206a6f696e206974000000000000000000000000\n        /* \"#utility.yul\":31155:31156   */\n      0x00\n        /* \"#utility.yul\":31147:31153   */\n      dup3\n        /* \"#utility.yul\":31143:31157   */\n      add\n        /* \"#utility.yul\":31136:31182   */\n      mstore\n        /* \"#utility.yul\":31019:31189   */\n      pop\n      jump\t// out\n        /* \"#utility.yul\":31195:31561   */\n    tag_331:\n        /* \"#utility.yul\":31337:31340   */\n      0x00\n        /* \"#utility.yul\":31358:31425   */\n      tag_620\n        /* \"#utility.yul\":31422:31424   */\n      0x14\n        /* \"#utility.yul\":31417:31420   */\n      dup4\n        /* \"#utility.yul\":31358:31425   */\n      tag_279\n      jump\t// in\n    tag_620:\n        /* \"#utility.yul\":31351:31425   */\n      swap2\n      pop\n        /* \"#utility.yul\":31434:31527   */\n      tag_621\n        /* \"#utility.yul\":31523:31526   */\n      dup3\n        /* \"#utility.yul\":31434:31527   */\n      tag_330\n      jump\t// in\n    tag_621:\n        /* \"#utility.yul\":31552:31554   */\n      0x20\n        /* \"#utility.yul\":31547:31550   */\n      dup3\n        /* \"#utility.yul\":31543:31555   */\n      add\n        /* \"#utility.yul\":31536:31555   */\n      swap1\n      pop\n        /* \"#utility.yul\":31195:31561   */\n      swap2\n      swap1\n      pop\n      jump\t// out\n        /* \"#utility.yul\":31567:31986   */\n    tag_205:\n        /* \"#utility.yul\":31733:31737   */\n      0x00\n        /* \"#utility.yul\":31771:31773   */\n      0x20\n        /* \"#utility.yul\":31760:31769   */\n      dup3\n        /* \"#utility.yul\":31756:31774   */\n      add\n        /* \"#utility.yul\":31748:31774   */\n      swap1\n      pop\n        /* \"#utility.yul\":31820:31829   */\n      dup2\n        /* \"#utility.yul\":31814:31818   */\n      dup2\n        /* \"#utility.yul\":31810:31830   */\n      sub\n        /* \"#utility.yul\":31806:31807   */\n      0x00\n        /* \"#utility.yul\":31795:31804   */\n      dup4\n        /* \"#utility.yul\":31791:31808   */\n      add\n        /* \"#utility.yul\":31784:31831   */\n      mstore\n        /* \"#utility.yul\":31848:31979   */\n      tag_623\n        /* \"#utility.yul\":31974:31978   */\n      dup2\n        /* \"#utility.yul\":31848:31979   */\n      tag_331\n      jump\t// in\n    tag_623:\n        /* \"#utility.yul\":31840:31979   */\n      swap1\n      pop\n        /* \"#utility.yul\":31567:31986   */\n      swap2\n      swap1\n      pop\n      jump\t// out\n        /* \"#utility.yul\":31992:32224   */\n    tag_332:\n        /* \"#utility.yul\":32132:32166   */\n      0x637265617465206c75636b20696e697420726577617264206d75737420626520\n        /* \"#utility.yul\":32128:32129   */\n      0x00\n        /* \"#utility.yul\":32120:32126   */\n      dup3\n        /* \"#utility.yul\":32116:32130   */\n      add\n        /* \"#utility.yul\":32109:32167   */\n      mstore\n        /* \"#utility.yul\":32201:32216   */\n      0x626967207468616e207a65726f00000000000000000000000000000000000000\n        /* \"#utility.yul\":32196:32198   */\n      0x20\n        /* \"#utility.yul\":32188:32194   */\n      dup3\n        /* \"#utility.yul\":32184:32199   */\n      add\n        /* \"#utility.yul\":32177:32217   */\n      mstore\n        /* \"#utility.yul\":31992:32224   */\n      pop\n      jump\t// out\n        /* \"#utility.yul\":32230:32596   */\n    tag_333:\n        /* \"#utility.yul\":32372:32375   */\n      0x00\n        /* \"#utility.yul\":32393:32460   */\n      tag_626\n        /* \"#utility.yul\":32457:32459   */\n      0x2d\n        /* \"#utility.yul\":32452:32455   */\n      dup4\n        /* \"#utility.yul\":32393:32460   */\n      tag_279\n      jump\t// in\n    tag_626:\n        /* \"#utility.yul\":32386:32460   */\n      swap2\n      pop\n        /* \"#utility.yul\":32469:32562   */\n      tag_627\n        /* \"#utility.yul\":32558:32561   */\n      dup3\n        /* \"#utility.yul\":32469:32562   */\n      tag_332\n      jump\t// in\n    tag_627:\n        /* \"#utility.yul\":32587:32589   */\n      0x40\n        /* \"#utility.yul\":32582:32585   */\n      dup3\n        /* \"#utility.yul\":32578:32590   */\n      add\n        /* \"#utility.yul\":32571:32590   */\n      swap1\n      pop\n        /* \"#utility.yul\":32230:32596   */\n      swap2\n      swap1\n      pop\n      jump\t// out\n        /* \"#utility.yul\":32602:33021   */\n    tag_209:\n        /* \"#utility.yul\":32768:32772   */\n      0x00\n        /* \"#utility.yul\":32806:32808   */\n      0x20\n        /* \"#utility.yul\":32795:32804   */\n      dup3\n        /* \"#utility.yul\":32791:32809   */\n      add\n        /* \"#utility.yul\":32783:32809   */\n      swap1\n      pop\n        /* \"#utility.yul\":32855:32864   */\n      dup2\n        /* \"#utility.yul\":32849:32853   */\n      dup2\n        /* \"#utility.yul\":32845:32865   */\n      sub\n        /* \"#utility.yul\":32841:32842   */\n      0x00\n        /* \"#utility.yul\":32830:32839   */\n      dup4\n        /* \"#utility.yul\":32826:32843   */\n      add\n        /* \"#utility.yul\":32819:32866   */\n      mstore\n        /* \"#utility.yul\":32883:33014   */\n      tag_629\n        /* \"#utility.yul\":33009:33013   */\n      dup2\n        /* \"#utility.yul\":32883:33014   */\n      tag_333\n      jump\t// in\n    tag_629:\n        /* \"#utility.yul\":32875:33014   */\n      swap1\n      pop\n        /* \"#utility.yul\":32602:33021   */\n      swap2\n      swap1\n      pop\n      jump\t// out\n        /* \"#utility.yul\":33027:33199   */\n    tag_334:\n        /* \"#utility.yul\":33167:33191   */\n      0x4f6e6c792063616c6c61626c65206279206f776e657200000000000000000000\n        /* \"#utility.yul\":33163:33164   */\n      0x00\n        /* \"#utility.yul\":33155:33161   */\n      dup3\n        /* \"#utility.yul\":33151:33165   */\n      add\n        /* \"#utility.yul\":33144:33192   */\n      mstore\n        /* \"#utility.yul\":33027:33199   */\n      pop\n      jump\t// out\n        /* \"#utility.yul\":33205:33571   */\n    tag_335:\n        /* \"#utility.yul\":33347:33350   */\n      0x00\n        /* \"#utility.yul\":33368:33435   */\n      tag_632\n        /* \"#utility.yul\":33432:33434   */\n      0x16\n        /* \"#utility.yul\":33427:33430   */\n      dup4\n        /* \"#utility.yul\":33368:33435   */\n      tag_279\n      jump\t// in\n    tag_632:\n        /* \"#utility.yul\":33361:33435   */\n      swap2\n      pop\n        /* \"#utility.yul\":33444:33537   */\n      tag_633\n        /* \"#utility.yul\":33533:33536   */\n      dup3\n        /* \"#utility.yul\":33444:33537   */\n      tag_334\n      jump\t// in\n    tag_633:\n        /* \"#utility.yul\":33562:33564   */\n      0x20\n        /* \"#utility.yul\":33557:33560   */\n      dup3\n        /* \"#utility.yul\":33553:33565   */\n      add\n        /* \"#utility.yul\":33546:33565   */\n      swap1\n      pop\n        /* \"#utility.yul\":33205:33571   */\n      swap2\n      swap1\n      pop\n      jump\t// out\n        /* \"#utility.yul\":33577:33996   */\n    tag_215:\n        /* \"#utility.yul\":33743:33747   */\n      0x00\n        /* \"#utility.yul\":33781:33783   */\n      0x20\n        /* \"#utility.yul\":33770:33779   */\n      dup3\n        /* \"#utility.yul\":33766:33784   */\n      add\n        /* \"#utility.yul\":33758:33784   */\n      swap1\n      pop\n        /* \"#utility.yul\":33830:33839   */\n      dup2\n        /* \"#utility.yul\":33824:33828   */\n      dup2\n        /* \"#utility.yul\":33820:33840   */\n      sub\n        /* \"#utility.yul\":33816:33817   */\n      0x00\n        /* \"#utility.yul\":33805:33814   */\n      dup4\n        /* \"#utility.yul\":33801:33818   */\n      add\n        /* \"#utility.yul\":33794:33841   */\n      mstore\n        /* \"#utility.yul\":33858:33989   */\n      tag_635\n        /* \"#utility.yul\":33984:33988   */\n      dup2\n        /* \"#utility.yul\":33858:33989   */\n      tag_335\n      jump\t// in\n    tag_635:\n        /* \"#utility.yul\":33850:33989   */\n      swap1\n      pop\n        /* \"#utility.yul\":33577:33996   */\n      swap2\n      swap1\n      pop\n      jump\t// out\n        /* \"#utility.yul\":34002:34166   */\n    tag_336:\n        /* \"#utility.yul\":34142:34158   */\n      0x6e6f74206578697374207461736b000000000000000000000000000000000000\n        /* \"#utility.yul\":34138:34139   */\n      0x00\n        /* \"#utility.yul\":34130:34136   */\n      dup3\n        /* \"#utility.yul\":34126:34140   */\n      add\n        /* \"#utility.yul\":34119:34159   */\n      mstore\n        /* \"#utility.yul\":34002:34166   */\n      pop\n      jump\t// out\n        /* \"#utility.yul\":34172:34538   */\n    tag_337:\n        /* \"#utility.yul\":34314:34317   */\n      0x00\n        /* \"#utility.yul\":34335:34402   */\n      tag_638\n        /* \"#utility.yul\":34399:34401   */\n      0x0e\n        /* \"#utility.yul\":34394:34397   */\n      dup4\n        /* \"#utility.yul\":34335:34402   */\n      tag_279\n      jump\t// in\n    tag_638:\n        /* \"#utility.yul\":34328:34402   */\n      swap2\n      pop\n        /* \"#utility.yul\":34411:34504   */\n      tag_639\n        /* \"#utility.yul\":34500:34503   */\n      dup3\n        /* \"#utility.yul\":34411:34504   */\n      tag_336\n      jump\t// in\n    tag_639:\n        /* \"#utility.yul\":34529:34531   */\n      0x20\n        /* \"#utility.yul\":34524:34527   */\n      dup3\n        /* \"#utility.yul\":34520:34532   */\n      add\n        /* \"#utility.yul\":34513:34532   */\n      swap1\n      pop\n        /* \"#utility.yul\":34172:34538   */\n      swap2\n      swap1\n      pop\n      jump\t// out\n        /* \"#utility.yul\":34544:34963   */\n    tag_219:\n        /* \"#utility.yul\":34710:34714   */\n      0x00\n        /* \"#utility.yul\":34748:34750   */\n      0x20\n        /* \"#utility.yul\":34737:34746   */\n      dup3\n        /* \"#utility.yul\":34733:34751   */\n      add\n        /* \"#utility.yul\":34725:34751   */\n      swap1\n      pop\n        /* \"#utility.yul\":34797:34806   */\n      dup2\n        /* \"#utility.yul\":34791:34795   */\n      dup2\n        /* \"#utility.yul\":34787:34807   */\n      sub\n        /* \"#utility.yul\":34783:34784   */\n      0x00\n        /* \"#utility.yul\":34772:34781   */\n      dup4\n        /* \"#utility.yul\":34768:34785   */\n      add\n        /* \"#utility.yul\":34761:34808   */\n      mstore\n        /* \"#utility.yul\":34825:34956   */\n      tag_641\n        /* \"#utility.yul\":34951:34955   */\n      dup2\n        /* \"#utility.yul\":34825:34956   */\n      tag_337\n      jump\t// in\n    tag_641:\n        /* \"#utility.yul\":34817:34956   */\n      swap1\n      pop\n        /* \"#utility.yul\":34544:34963   */\n      swap2\n      swap1\n      pop\n      jump\t// out\n        /* \"#utility.yul\":34969:35134   */\n    tag_338:\n        /* \"#utility.yul\":35109:35126   */\n      0x4e6f207061727469636970616e74730000000000000000000000000000000000\n        /* \"#utility.yul\":35105:35106   */\n      0x00\n        /* \"#utility.yul\":35097:35103   */\n      dup3\n        /* \"#utility.yul\":35093:35107   */\n      add\n        /* \"#utility.yul\":35086:35127   */\n      mstore\n        /* \"#utility.yul\":34969:35134   */\n      pop\n      jump\t// out\n        /* \"#utility.yul\":35140:35506   */\n    tag_339:\n        /* \"#utility.yul\":35282:35285   */\n      0x00\n        /* \"#utility.yul\":35303:35370   */\n      tag_644\n        /* \"#utility.yul\":35367:35369   */\n      0x0f\n        /* \"#utility.yul\":35362:35365   */\n      dup4\n        /* \"#utility.yul\":35303:35370   */\n      tag_279\n      jump\t// in\n    tag_644:\n        /* \"#utility.yul\":35296:35370   */\n      swap2\n      pop\n        /* \"#utility.yul\":35379:35472   */\n      tag_645\n        /* \"#utility.yul\":35468:35471   */\n      dup3\n        /* \"#utility.yul\":35379:35472   */\n      tag_338\n      jump\t// in\n    tag_645:\n        /* \"#utility.yul\":35497:35499   */\n      0x20\n        /* \"#utility.yul\":35492:35495   */\n      dup3\n        /* \"#utility.yul\":35488:35500   */\n      add\n        /* \"#utility.yul\":35481:35500   */\n      swap1\n      pop\n        /* \"#utility.yul\":35140:35506   */\n      swap2\n      swap1\n      pop\n      jump\t// out\n        /* \"#utility.yul\":35512:35931   */\n    tag_224:\n        /* \"#utility.yul\":35678:35682   */\n      0x00\n        /* \"#utility.yul\":35716:35718   */\n      0x20\n        /* \"#utility.yul\":35705:35714   */\n      dup3\n        /* \"#utility.yul\":35701:35719   */\n      add\n        /* \"#utility.yul\":35693:35719   */\n      swap1\n      pop\n        /* \"#utility.yul\":35765:35774   */\n      dup2\n        /* \"#utility.yul\":35759:35763   */\n      dup2\n        /* \"#utility.yul\":35755:35775   */\n      sub\n        /* \"#utility.yul\":35751:35752   */\n      0x00\n        /* \"#utility.yul\":35740:35749   */\n      dup4\n        /* \"#utility.yul\":35736:35753   */\n      add\n        /* \"#utility.yul\":35729:35776   */\n      mstore\n        /* \"#utility.yul\":35793:35924   */\n      tag_647\n        /* \"#utility.yul\":35919:35923   */\n      dup2\n        /* \"#utility.yul\":35793:35924   */\n      tag_339\n      jump\t// in\n    tag_647:\n        /* \"#utility.yul\":35785:35924   */\n      swap1\n      pop\n        /* \"#utility.yul\":35512:35931   */\n      swap2\n      swap1\n      pop\n      jump\t// out\n        /* \"#utility.yul\":35937:36117   */\n    tag_227:\n        /* \"#utility.yul\":35985:36062   */\n      0x4e487b7100000000000000000000000000000000000000000000000000000000\n        /* \"#utility.yul\":35982:35983   */\n      0x00\n        /* \"#utility.yul\":35975:36063   */\n      mstore\n        /* \"#utility.yul\":36082:36086   */\n      0x32\n        /* \"#utility.yul\":36079:36080   */\n      0x04\n        /* \"#utility.yul\":36072:36087   */\n      mstore\n        /* \"#utility.yul\":36106:36110   */\n      0x24\n        /* \"#utility.yul\":36103:36104   */\n      0x00\n        /* \"#utility.yul\":36096:36111   */\n      revert\n        /* \"#utility.yul\":36123:36303   */\n    tag_340:\n        /* \"#utility.yul\":36171:36248   */\n      0x4e487b7100000000000000000000000000000000000000000000000000000000\n        /* \"#utility.yul\":36168:36169   */\n      0x00\n        /* \"#utility.yul\":36161:36249   */\n      mstore\n        /* \"#utility.yul\":36268:36272   */\n      0x12\n        /* \"#utility.yul\":36265:36266   */\n      0x04\n        /* \"#utility.yul\":36258:36273   */\n      mstore\n        /* \"#utility.yul\":36292:36296   */\n      0x24\n        /* \"#utility.yul\":36289:36290   */\n      0x00\n        /* \"#utility.yul\":36282:36297   */\n      revert\n        /* \"#utility.yul\":36309:36485   */\n    tag_229:\n        /* \"#utility.yul\":36341:36342   */\n      0x00\n        /* \"#utility.yul\":36358:36378   */\n      tag_651\n        /* \"#utility.yul\":36376:36377   */\n      dup3\n        /* \"#utility.yul\":36358:36378   */\n      tag_259\n      jump\t// in\n    tag_651:\n        /* \"#utility.yul\":36353:36378   */\n      swap2\n      pop\n        /* \"#utility.yul\":36392:36412   */\n      tag_652\n        /* \"#utility.yul\":36410:36411   */\n      dup4\n        /* \"#utility.yul\":36392:36412   */\n      tag_259\n      jump\t// in\n    tag_652:\n        /* \"#utility.yul\":36387:36412   */\n      swap3\n      pop\n        /* \"#utility.yul\":36431:36432   */\n      dup3\n        /* \"#utility.yul\":36421:36456   */\n      tag_653\n      jumpi\n        /* \"#utility.yul\":36436:36454   */\n      tag_654\n      tag_340\n      jump\t// in\n    tag_654:\n        /* \"#utility.yul\":36421:36456   */\n    tag_653:\n        /* \"#utility.yul\":36477:36478   */\n      dup3\n        /* \"#utility.yul\":36474:36475   */\n      dup3\n        /* \"#utility.yul\":36470:36479   */\n      mod\n        /* \"#utility.yul\":36465:36479   */\n      swap1\n      pop\n        /* \"#utility.yul\":36309:36485   */\n      swap3\n      swap2\n      pop\n      pop\n      jump\t// out\n        /* \"#utility.yul\":36491:36676   */\n    tag_235:\n        /* \"#utility.yul\":36531:36532   */\n      0x00\n        /* \"#utility.yul\":36548:36568   */\n      tag_656\n        /* \"#utility.yul\":36566:36567   */\n      dup3\n        /* \"#utility.yul\":36548:36568   */\n      tag_259\n      jump\t// in\n    tag_656:\n        /* \"#utility.yul\":36543:36568   */\n      swap2\n      pop\n        /* \"#utility.yul\":36582:36602   */\n      tag_657\n        /* \"#utility.yul\":36600:36601   */\n      dup4\n        /* \"#utility.yul\":36582:36602   */\n      tag_259\n      jump\t// in\n    tag_657:\n        /* \"#utility.yul\":36577:36602   */\n      swap3\n      pop\n        /* \"#utility.yul\":36621:36622   */\n      dup3\n        /* \"#utility.yul\":36611:36646   */\n      tag_658\n      jumpi\n        /* \"#utility.yul\":36626:36644   */\n      tag_659\n      tag_340\n      jump\t// in\n    tag_659:\n        /* \"#utility.yul\":36611:36646   */\n    tag_658:\n        /* \"#utility.yul\":36668:36669   */\n      dup3\n        /* \"#utility.yul\":36665:36666   */\n      dup3\n        /* \"#utility.yul\":36661:36670   */\n      div\n        /* \"#utility.yul\":36656:36670   */\n      swap1\n      pop\n        /* \"#utility.yul\":36491:36676   */\n      swap3\n      swap2\n      pop\n      pop\n      jump\t// out\n        /* \"#utility.yul\":36682:37092   */\n    tag_237:\n        /* \"#utility.yul\":36722:36729   */\n      0x00\n        /* \"#utility.yul\":36745:36765   */\n      tag_661\n        /* \"#utility.yul\":36763:36764   */\n      dup3\n        /* \"#utility.yul\":36745:36765   */\n      tag_259\n      jump\t// in\n    tag_661:\n        /* \"#utility.yul\":36740:36765   */\n      swap2\n      pop\n        /* \"#utility.yul\":36779:36799   */\n      tag_662\n        /* \"#utility.yul\":36797:36798   */\n      dup4\n        /* \"#utility.yul\":36779:36799   */\n      tag_259\n      jump\t// in\n    tag_662:\n        /* \"#utility.yul\":36774:36799   */\n      swap3\n      pop\n        /* \"#utility.yul\":36834:36835   */\n      dup3\n        /* \"#utility.yul\":36831:36832   */\n      dup3\n        /* \"#utility.yul\":36827:36836   */\n      mul\n        /* \"#utility.yul\":36856:36886   */\n      tag_663\n        /* \"#utility.yul\":36874:36885   */\n      dup2\n        /* \"#utility.yul\":36856:36886   */\n      tag_259\n      jump\t// in\n    tag_663:\n        /* \"#utility.yul\":36845:36886   */\n      swap2\n      pop\n        /* \"#utility.yul\":37035:37036   */\n      dup3\n        /* \"#utility.yul\":37026:37033   */\n      dup3\n        /* \"#utility.yul\":37022:37037   */\n      div\n        /* \"#utility.yul\":37019:37020   */\n      dup5\n        /* \"#utility.yul\":37016:37038   */\n      eq\n        /* \"#utility.yul\":36996:36997   */\n      dup4\n        /* \"#utility.yul\":36989:36998   */\n      iszero\n        /* \"#utility.yul\":36969:37052   */\n      or\n        /* \"#utility.yul\":36946:37085   */\n      tag_664\n      jumpi\n        /* \"#utility.yul\":37065:37083   */\n      tag_665\n      tag_326\n      jump\t// in\n    tag_665:\n        /* \"#utility.yul\":36946:37085   */\n    tag_664:\n        /* \"#utility.yul\":36730:37092   */\n      pop\n        /* \"#utility.yul\":36682:37092   */\n      swap3\n      swap2\n      pop\n      pop\n      jump\t// out\n        /* \"#utility.yul\":37098:37292   */\n    tag_240:\n        /* \"#utility.yul\":37138:37142   */\n      0x00\n        /* \"#utility.yul\":37158:37178   */\n      tag_667\n        /* \"#utility.yul\":37176:37177   */\n      dup3\n        /* \"#utility.yul\":37158:37178   */\n      tag_259\n      jump\t// in\n    tag_667:\n        /* \"#utility.yul\":37153:37178   */\n      swap2\n      pop\n        /* \"#utility.yul\":37192:37212   */\n      tag_668\n        /* \"#utility.yul\":37210:37211   */\n      dup4\n        /* \"#utility.yul\":37192:37212   */\n      tag_259\n      jump\t// in\n    tag_668:\n        /* \"#utility.yul\":37187:37212   */\n      swap3\n      pop\n        /* \"#utility.yul\":37236:37237   */\n      dup3\n        /* \"#utility.yul\":37233:37234   */\n      dup3\n        /* \"#utility.yul\":37229:37238   */\n      sub\n        /* \"#utility.yul\":37221:37238   */\n      swap1\n      pop\n        /* \"#utility.yul\":37260:37261   */\n      dup2\n        /* \"#utility.yul\":37254:37258   */\n      dup2\n        /* \"#utility.yul\":37251:37262   */\n      gt\n        /* \"#utility.yul\":37248:37285   */\n      iszero\n      tag_669\n      jumpi\n        /* \"#utility.yul\":37265:37283   */\n      tag_670\n      tag_326\n      jump\t// in\n    tag_670:\n        /* \"#utility.yul\":37248:37285   */\n    tag_669:\n        /* \"#utility.yul\":37098:37292   */\n      swap3\n      swap2\n      pop\n      pop\n      jump\t// out\n        /* \"#utility.yul\":37298:37469   */\n    tag_341:\n        /* \"#utility.yul\":37438:37461   */\n      0x4661696c656420746f2073656e64207265776172640000000000000000000000\n        /* \"#utility.yul\":37434:37435   */\n      0x00\n        /* \"#utility.yul\":37426:37432   */\n      dup3\n        /* \"#utility.yul\":37422:37436   */\n      add\n        /* \"#utility.yul\":37415:37462   */\n      mstore\n        /* \"#utility.yul\":37298:37469   */\n      pop\n      jump\t// out\n        /* \"#utility.yul\":37475:37841   */\n    tag_342:\n        /* \"#utility.yul\":37617:37620   */\n      0x00\n        /* \"#utility.yul\":37638:37705   */\n      tag_673\n        /* \"#utility.yul\":37702:37704   */\n      0x15\n        /* \"#utility.yul\":37697:37700   */\n      dup4\n        /* \"#utility.yul\":37638:37705   */\n      tag_279\n      jump\t// in\n    tag_673:\n        /* \"#utility.yul\":37631:37705   */\n      swap2\n      pop\n        /* \"#utility.yul\":37714:37807   */\n      tag_674\n        /* \"#utility.yul\":37803:37806   */\n      dup3\n        /* \"#utility.yul\":37714:37807   */\n      tag_341\n      jump\t// in\n    tag_674:\n        /* \"#utility.yul\":37832:37834   */\n      0x20\n        /* \"#utility.yul\":37827:37830   */\n      dup3\n        /* \"#utility.yul\":37823:37835   */\n      add\n        /* \"#utility.yul\":37816:37835   */\n      swap1\n      pop\n        /* \"#utility.yul\":37475:37841   */\n      swap2\n      swap1\n      pop\n      jump\t// out\n        /* \"#utility.yul\":37847:38266   */\n    tag_247:\n        /* \"#utility.yul\":38013:38017   */\n      0x00\n        /* \"#utility.yul\":38051:38053   */\n      0x20\n        /* \"#utility.yul\":38040:38049   */\n      dup3\n        /* \"#utility.yul\":38036:38054   */\n      add\n        /* \"#utility.yul\":38028:38054   */\n      swap1\n      pop\n        /* \"#utility.yul\":38100:38109   */\n      dup2\n        /* \"#utility.yul\":38094:38098   */\n      dup2\n        /* \"#utility.yul\":38090:38110   */\n      sub\n        /* \"#utility.yul\":38086:38087   */\n      0x00\n        /* \"#utility.yul\":38075:38084   */\n      dup4\n        /* \"#utility.yul\":38071:38088   */\n      add\n        /* \"#utility.yul\":38064:38111   */\n      mstore\n        /* \"#utility.yul\":38128:38259   */\n      tag_676\n        /* \"#utility.yul\":38254:38258   */\n      dup2\n        /* \"#utility.yul\":38128:38259   */\n      tag_342\n      jump\t// in\n    tag_676:\n        /* \"#utility.yul\":38120:38259   */\n      swap1\n      pop\n        /* \"#utility.yul\":37847:38266   */\n      swap2\n      swap1\n      pop\n      jump\t// out\n        /* \"#utility.yul\":38272:38371   */\n    tag_343:\n        /* \"#utility.yul\":38343:38364   */\n      tag_678\n        /* \"#utility.yul\":38358:38363   */\n      dup2\n        /* \"#utility.yul\":38343:38364   */\n      tag_270\n      jump\t// in\n    tag_678:\n        /* \"#utility.yul\":38338:38341   */\n      dup3\n        /* \"#utility.yul\":38331:38365   */\n      mstore\n        /* \"#utility.yul\":38272:38371   */\n      pop\n      pop\n      jump\t// out\n        /* \"#utility.yul\":38457:38799   */\n    tag_344:\n        /* \"#utility.yul\":38610:38614   */\n      0x20\n        /* \"#utility.yul\":38605:38608   */\n      dup3\n        /* \"#utility.yul\":38601:38615   */\n      add\n        /* \"#utility.yul\":38706:38710   */\n      0x00\n        /* \"#utility.yul\":38699:38704   */\n      dup3\n        /* \"#utility.yul\":38695:38711   */\n      add\n        /* \"#utility.yul\":38689:38712   */\n      mload\n        /* \"#utility.yul\":38725:38782   */\n      tag_680\n        /* \"#utility.yul\":38776:38780   */\n      0x00\n        /* \"#utility.yul\":38771:38774   */\n      dup6\n        /* \"#utility.yul\":38767:38781   */\n      add\n        /* \"#utility.yul\":38753:38765   */\n      dup3\n        /* \"#utility.yul\":38725:38782   */\n      tag_343\n      jump\t// in\n    tag_680:\n        /* \"#utility.yul\":38625:38792   */\n      pop\n        /* \"#utility.yul\":38579:38799   */\n      pop\n        /* \"#utility.yul\":38457:38799   */\n      pop\n      pop\n      jump\t// out\n        /* \"#utility.yul\":38805:39139   */\n    tag_251:\n        /* \"#utility.yul\":38954:38958   */\n      0x00\n        /* \"#utility.yul\":38992:38994   */\n      0x20\n        /* \"#utility.yul\":38981:38990   */\n      dup3\n        /* \"#utility.yul\":38977:38995   */\n      add\n        /* \"#utility.yul\":38969:38995   */\n      swap1\n      pop\n        /* \"#utility.yul\":39005:39132   */\n      tag_682\n        /* \"#utility.yul\":39129:39130   */\n      0x00\n        /* \"#utility.yul\":39118:39127   */\n      dup4\n        /* \"#utility.yul\":39114:39131   */\n      add\n        /* \"#utility.yul\":39105:39111   */\n      dup5\n        /* \"#utility.yul\":39005:39132   */\n      tag_344\n      jump\t// in\n    tag_682:\n        /* \"#utility.yul\":38805:39139   */\n      swap3\n      swap2\n      pop\n      pop\n      jump\t// out\n        /* \"#utility.yul\":39145:39318   */\n    tag_345:\n        /* \"#utility.yul\":39285:39310   */\n      0x43616e6e6f74207472616e7366657220746f2073656c66000000000000000000\n        /* \"#utility.yul\":39281:39282   */\n      0x00\n        /* \"#utility.yul\":39273:39279   */\n      dup3\n        /* \"#utility.yul\":39269:39283   */\n      add\n        /* \"#utility.yul\":39262:39311   */\n      mstore\n        /* \"#utility.yul\":39145:39318   */\n      pop\n      jump\t// out\n        /* \"#utility.yul\":39324:39690   */\n    tag_346:\n        /* \"#utility.yul\":39466:39469   */\n      0x00\n        /* \"#utility.yul\":39487:39554   */\n      tag_685\n        /* \"#utility.yul\":39551:39553   */\n      0x17\n        /* \"#utility.yul\":39546:39549   */\n      dup4\n        /* \"#utility.yul\":39487:39554   */\n      tag_279\n      jump\t// in\n    tag_685:\n        /* \"#utility.yul\":39480:39554   */\n      swap2\n      pop\n        /* \"#utility.yul\":39563:39656   */\n      tag_686\n        /* \"#utility.yul\":39652:39655   */\n      dup3\n        /* \"#utility.yul\":39563:39656   */\n      tag_345\n      jump\t// in\n    tag_686:\n        /* \"#utility.yul\":39681:39683   */\n      0x20\n        /* \"#utility.yul\":39676:39679   */\n      dup3\n        /* \"#utility.yul\":39672:39684   */\n      add\n        /* \"#utility.yul\":39665:39684   */\n      swap1\n      pop\n        /* \"#utility.yul\":39324:39690   */\n      swap2\n      swap1\n      pop\n      jump\t// out\n        /* \"#utility.yul\":39696:40115   */\n    tag_255:\n        /* \"#utility.yul\":39862:39866   */\n      0x00\n        /* \"#utility.yul\":39900:39902   */\n      0x20\n        /* \"#utility.yul\":39889:39898   */\n      dup3\n        /* \"#utility.yul\":39885:39903   */\n      add\n        /* \"#utility.yul\":39877:39903   */\n      swap1\n      pop\n        /* \"#utility.yul\":39949:39958   */\n      dup2\n        /* \"#utility.yul\":39943:39947   */\n      dup2\n        /* \"#utility.yul\":39939:39959   */\n      sub\n        /* \"#utility.yul\":39935:39936   */\n      0x00\n        /* \"#utility.yul\":39924:39933   */\n      dup4\n        /* \"#utility.yul\":39920:39937   */\n      add\n        /* \"#utility.yul\":39913:39960   */\n      mstore\n        /* \"#utility.yul\":39977:40108   */\n      tag_688\n        /* \"#utility.yul\":40103:40107   */\n      dup2\n        /* \"#utility.yul\":39977:40108   */\n      tag_346\n      jump\t// in\n    tag_688:\n        /* \"#utility.yul\":39969:40108   */\n      swap1\n      pop\n        /* \"#utility.yul\":39696:40115   */\n      swap2\n      swap1\n      pop\n      jump\t// out\n\n    auxdata: 0xa26469706673582212207284f1254f67ee35aca74bfeda3a41d957a5f291f4d2ee2f62ae47198581bed264736f6c634300081e0033\n}\n",
				"bytecode": {
					"linkReferences": {},
					"object": "6080604052600360065f6101000a81548161ffff021916908361ffff160217905550620186a0600660026101000a81548163ffffffff021916908363ffffffff16021790555060016006806101000a81548163ffffffff021916908363ffffffff1602179055505f600a5f6101000a81548160ff021916908360ff16021790555034801561008b575f5ffd5b506040516134ba3803806134ba83398181016040528101906100ad919061051f565b8333805f5f73ffffffffffffffffffffffffffffffffffffffff168273ffffffffffffffffffffffffffffffffffffffff160361011f576040517f08c379a0000000000000000000000000000000000000000000000000000000008152600401610116906105dd565b60405180910390fd5b815f5f6101000a81548173ffffffffffffffffffffffffffffffffffffffff021916908373ffffffffffffffffffffffffffffffffffffffff1602179055505f73ffffffffffffffffffffffffffffffffffffffff168173ffffffffffffffffffffffffffffffffffffffff16146101a1576101a08161033060201b60201c565b5b5050505f73ffffffffffffffffffffffffffffffffffffffff168173ffffffffffffffffffffffffffffffffffffffff1603610209576040517fd92e233d00000000000000000000000000000000000000000000000000000000815260040160405180910390fd5b8060025f6101000a81548173ffffffffffffffffffffffffffffffffffffffff021916908373ffffffffffffffffffffffffffffffffffffffff160217905550508360045f6101000a81548173ffffffffffffffffffffffffffffffffffffffff021916908373ffffffffffffffffffffffffffffffffffffffff1602179055508360025f6101000a81548173ffffffffffffffffffffffffffffffffffffffff021916908373ffffffffffffffffffffffffffffffffffffffff1602179055508260038190555081600581905550600160078190555080600b8190555033600d5f6101000a81548173ffffffffffffffffffffffffffffffffffffffff021916908373ffffffffffffffffffffffffffffffffffffffff16021790555050505050610663565b3373ffffffffffffffffffffffffffffffffffffffff168173ffffffffffffffffffffffffffffffffffffffff160361039e576040517f08c379a000000000000000000000000000000000000000000000000000000000815260040161039590610645565b60405180910390fd5b8060015f6101000a81548173ffffffffffffffffffffffffffffffffffffffff021916908373ffffffffffffffffffffffffffffffffffffffff1602179055508073ffffffffffffffffffffffffffffffffffffffff165f5f9054906101000a900473ffffffffffffffffffffffffffffffffffffffff1673ffffffffffffffffffffffffffffffffffffffff167fed8889f560326eb138920d842192f0eb3dd22b4f139c87a2c57538e05bae127860405160405180910390a350565b5f5ffd5b5f73ffffffffffffffffffffffffffffffffffffffff82169050919050565b5f6104888261045f565b9050919050565b6104988161047e565b81146104a2575f5ffd5b50565b5f815190506104b38161048f565b92915050565b5f819050919050565b6104cb816104b9565b81146104d5575f5ffd5b50565b5f815190506104e6816104c2565b92915050565b5f819050919050565b6104fe816104ec565b8114610508575f5ffd5b50565b5f81519050610519816104f5565b92915050565b5f5f5f5f608085870312156105375761053661045b565b5b5f610544878288016104a5565b9450506020610555878288016104d8565b93505060406105668782880161050b565b9250506060610577878288016104d8565b91505092959194509250565b5f82825260208201905092915050565b7f43616e6e6f7420736574206f776e657220746f207a65726f00000000000000005f82015250565b5f6105c7601883610583565b91506105d282610593565b602082019050919050565b5f6020820190508181035f8301526105f4816105bb565b9050919050565b7f43616e6e6f74207472616e7366657220746f2073656c660000000000000000005f82015250565b5f61062f601783610583565b915061063a826105fb565b602082019050919050565b5f6020820190508181035f83015261065c81610623565b9050919050565b612e4a806106705f395ff3fe6080604052600436106100fd575f3560e01c80638da5cb5b11610094578063c2ee3a0811610063578063c2ee3a08146102dc578063e00dd16114610306578063e578b0bb14610330578063f2fde38b1461036c578063f36b98fb14610394576100fd565b80638da5cb5b146102445780638ea981171461026e5780639eccacf614610296578063a3fa9775146102c0576100fd565b806360b2a56a116100d057806360b2a56a146101a057806364b6a998146101c857806379ba5097146102045780637ae316d01461021a576100fd565b80630fdb1c10146101015780631fe543e31461010b5780632e0f26251461013357806336068a561461015d575b5f5ffd5b6101096103c4565b005b348015610116575f5ffd5b50610131600480360381019061012c9190611bed565b6104c0565b005b34801561013e575f5ffd5b50610147610584565b6040516101549190611c59565b60405180910390f35b348015610168575f5ffd5b50610183600480360381019061017e9190611c72565b610589565b604051610197989796959493929190611cf6565b60405180910390f35b3480156101ab575f5ffd5b506101c660048036038101906101c19190611c72565b610635565b005b3480156101d3575f5ffd5b506101ee60048036038101906101e99190611c72565b610c03565b6040516101fb9190611c59565b60405180910390f35b34801561020f575f5ffd5b50610218610c18565b005b348015610225575f5ffd5b5061022e610da7565b60405161023b9190611c59565b60405180910390f35b34801561024f575f5ffd5b50610258610db0565b6040516102659190611d72565b60405180910390f35b348015610279575f5ffd5b50610294600480360381019061028f9190611db5565b610dd7565b005b3480156102a1575f5ffd5b506102aa610fb4565b6040516102b79190611e3b565b60405180910390f35b6102da60048036038101906102d59190611c72565b610fd9565b005b3480156102e7575f5ffd5b506102f06112d1565b6040516102fd9190611c59565b60405180910390f35b348015610311575f5ffd5b5061031a6112e2565b6040516103279190611c59565b60405180910390f35b34801561033b575f5ffd5b5061035660048036038101906103519190611e54565b6112e8565b6040516103639190611c59565b60405180910390f35b348015610377575f5ffd5b50610392600480360381019061038d9190611db5565b61137d565b005b6103ae60048036038101906103a99190611e92565b611391565b6040516103bb9190611c59565b60405180910390f35b6103cc6115b3565b5f600c5411610410576040517f08c379a000000000000000000000000000000000000000000000000000000000815260040161040790611f3c565b60405180910390fd5b5f600c5490505f600c81905550600d5f9054906101000a900473ffffffffffffffffffffffffffffffffffffffff1673ffffffffffffffffffffffffffffffffffffffff166108fc8290811502906040515f60405180830381858888f19350505050158015610481573d5f5f3e3d5ffd5b507f9e48992309be40ee6b621aa79b40adfc808eb591f3a3d551650cef9e516aeb0e3382426040516104b593929190611f5a565b60405180910390a150565b60025f9054906101000a900473ffffffffffffffffffffffffffffffffffffffff1673ffffffffffffffffffffffffffffffffffffffff163373ffffffffffffffffffffffffffffffffffffffff1614610574573360025f9054906101000a900473ffffffffffffffffffffffffffffffffffffffff166040517f1cf993f400000000000000000000000000000000000000000000000000000000815260040161056b929190611f8f565b60405180910390fd5b61057f838383611643565b505050565b601281565b5f5f5f5f5f5f5f5f5f60085f8b81526020019081526020015f209050805f015481600101548260020154836003015f9054906101000a900473ffffffffffffffffffffffffffffffffffffffff16846004015f9054906101000a900473ffffffffffffffffffffffffffffffffffffffff168560050154866006015f9054906101000a900460ff1687600801805490509850985098509850985098509850985050919395975091939597565b5f8111610677576040517f08c379a000000000000000000000000000000000000000000000000000000000815260040161066e90612000565b60405180910390fd5b5f600a5f9054906101000a900460ff1660ff1611156106cb576040517f08c379a00000000000000000000000000000000000000000000000000000000081526004016106c290612068565b60405180910390fd5b60085f8281526020019081526020015f205f01544211610720576040517f08c379a0000000000000000000000000000000000000000000000000000000008152600401610717906120d0565b60405180910390fd5b6001151560085f8381526020019081526020015f206006015f9054906101000a900460ff16151514610787576040517f08c379a000000000000000000000000000000000000000000000000000000000815260040161077e90612138565b60405180910390fd5b3373ffffffffffffffffffffffffffffffffffffffff1660085f8381526020019081526020015f206003015f9054906101000a900473ffffffffffffffffffffffffffffffffffffffff1673ffffffffffffffffffffffffffffffffffffffff1614610828576040517f08c379a000000000000000000000000000000000000000000000000000000000815260040161081f906121a0565b60405180910390fd5b5f60085f8381526020019081526020015f206008018054905011610881576040517f08c379a000000000000000000000000000000000000000000000000000000000815260040161087890612208565b60405180910390fd5b6001600a5f6101000a81548160ff021916908360ff160217905550600160085f8381526020019081526020015f206008018054905003610a84575f60085f8381526020019081526020015f206003015f9054906101000a900473ffffffffffffffffffffffffffffffffffffffff1673ffffffffffffffffffffffffffffffffffffffff1660085f8481526020019081526020015f206002015460405161092790612253565b5f6040518083038185875af1925050503d805f8114610961576040519150601f19603f3d011682016040523d82523d5f602084013e610966565b606091505b50509050806109aa576040517f08c379a00000000000000000000000000000000000000000000000000000000081526004016109a1906122b1565b60405180910390fd5b5f60085f8481526020019081526020015f206006015f6101000a81548160ff0219169083151502179055503360085f8481526020019081526020015f206004015f6101000a81548173ffffffffffffffffffffffffffffffffffffffff021916908373ffffffffffffffffffffffffffffffffffffffff1602179055505f600a5f6101000a81548160ff021916908360ff1602179055507f4938abb0a1220e7b4a0dd8b149717aba799cd3d2263de30c997401abfa84524133835f42604051610a769493929190612308565b60405180910390a150610c00565b5f60025f9054906101000a900473ffffffffffffffffffffffffffffffffffffffff1673ffffffffffffffffffffffffffffffffffffffff16639b1c385e6040518060c001604052806005548152602001600354815260200160065f9054906101000a900461ffff1661ffff168152602001600660029054906101000a900463ffffffff1663ffffffff16815260200160068054906101000a900463ffffffff1663ffffffff168152602001610b4a60405180602001604052806001151581525061198e565b8152506040518263ffffffff1660e01b8152600401610b6991906124a2565b6020604051808303815f875af1158015610b85573d5f5f3e3d5ffd5b505050506040513d601f19601f82011682018060405250810190610ba991906124d6565b90508160095f8381526020019081526020015f20819055507fa553713effcfd3f3db01a02af9aa2f33afbc3f587a0594e927a1d58ac8a92b5233838342604051610bf69493929190612501565b60405180910390a1505b50565b6009602052805f5260405f205f915090505481565b60015f9054906101000a900473ffffffffffffffffffffffffffffffffffffffff1673ffffffffffffffffffffffffffffffffffffffff163373ffffffffffffffffffffffffffffffffffffffff1614610ca7576040517f08c379a0000000000000000000000000000000000000000000000000000000008152600401610c9e9061258e565b60405180910390fd5b5f5f5f9054906101000a900473ffffffffffffffffffffffffffffffffffffffff169050335f5f6101000a81548173ffffffffffffffffffffffffffffffffffffffff021916908373ffffffffffffffffffffffffffffffffffffffff1602179055505f60015f6101000a81548173ffffffffffffffffffffffffffffffffffffffff021916908373ffffffffffffffffffffffffffffffffffffffff1602179055503373ffffffffffffffffffffffffffffffffffffffff168173ffffffffffffffffffffffffffffffffffffffff167f8be0079c531659141344cd1fd0a4f28419497f9722a3daafe3b4186f6b6457e060405160405180910390a350565b5f600c54905090565b5f5f5f9054906101000a900473ffffffffffffffffffffffffffffffffffffffff16905090565b610ddf610db0565b73ffffffffffffffffffffffffffffffffffffffff163373ffffffffffffffffffffffffffffffffffffffff1614158015610e67575060025f9054906101000a900473ffffffffffffffffffffffffffffffffffffffff1673ffffffffffffffffffffffffffffffffffffffff163373ffffffffffffffffffffffffffffffffffffffff1614155b15610ed55733610e75610db0565b60025f9054906101000a900473ffffffffffffffffffffffffffffffffffffffff166040517f061db9c1000000000000000000000000000000000000000000000000000000008152600401610ecc939291906125ac565b60405180910390fd5b5f73ffffffffffffffffffffffffffffffffffffffff168173ffffffffffffffffffffffffffffffffffffffff1603610f3a576040517fd92e233d00000000000000000000000000000000000000000000000000000000815260040160405180910390fd5b8060025f6101000a81548173ffffffffffffffffffffffffffffffffffffffff021916908373ffffffffffffffffffffffffffffffffffffffff1602179055507fd1a6a14209a385a964d036e404cb5cfb71f4000cdb03c9366292430787261be681604051610fa99190611d72565b60405180910390a150565b60025f9054906101000a900473ffffffffffffffffffffffffffffffffffffffff1681565b5f73ffffffffffffffffffffffffffffffffffffffff163373ffffffffffffffffffffffffffffffffffffffff1603611047576040517f08c379a000000000000000000000000000000000000000000000000000000000815260040161103e9061262b565b60405180910390fd5b5f60085f8381526020019081526020015f20905042815f0154111580156110715750428160010154115b6110b0576040517f08c379a00000000000000000000000000000000000000000000000000000000081526004016110a790612693565b60405180910390fd5b60011515816006015f9054906101000a900460ff16151514611107576040517f08c379a00000000000000000000000000000000000000000000000000000000081526004016110fe90612138565b60405180910390fd5b806005015434101561114e576040517f08c379a000000000000000000000000000000000000000000000000000000000815260040161114590612721565b60405180910390fd5b5f816007015f3373ffffffffffffffffffffffffffffffffffffffff1673ffffffffffffffffffffffffffffffffffffffff1681526020019081526020015f205411156111d0576040517f08c379a00000000000000000000000000000000000000000000000000000000081526004016111c7906127af565b60405180910390fd5b34816002015f8282546111e391906127fa565b9250508190555034816007015f3373ffffffffffffffffffffffffffffffffffffffff1673ffffffffffffffffffffffffffffffffffffffff1681526020019081526020015f20819055508060080133908060018154018082558091505060019003905f5260205f20015f9091909190916101000a81548173ffffffffffffffffffffffffffffffffffffffff021916908373ffffffffffffffffffffffffffffffffffffffff1602179055507f2e86a4ea48e0ba7adc0ba18a20c7fb7b8e65257bbae7bc0816518c2e5e65cec0338334426040516112c59493929190612501565b60405180910390a15050565b6012600a6112df919061295c565b81565b60075481565b5f5f73ffffffffffffffffffffffffffffffffffffffff168273ffffffffffffffffffffffffffffffffffffffff1603611320575f5ffd5b5f60085f8581526020019081526020015f209050806007015f8473ffffffffffffffffffffffffffffffffffffffff1673ffffffffffffffffffffffffffffffffffffffff1681526020019081526020015f205491505092915050565b6113856115b3565b61138e81611a26565b50565b5f5f73ffffffffffffffffffffffffffffffffffffffff163373ffffffffffffffffffffffffffffffffffffffff1603611400576040517f08c379a00000000000000000000000000000000000000000000000000000000081526004016113f7906129f0565b60405180910390fd5b5f341180156114115750600b543410155b611450576040517f08c379a000000000000000000000000000000000000000000000000000000000815260040161144790612a7e565b60405180910390fd5b600160075f82825461146291906127fa565b925050819055505f60085f60075481526020019081526020015f20905084815f018190555083816001018190555034816002018190555033816003015f6101000a81548173ffffffffffffffffffffffffffffffffffffffff021916908373ffffffffffffffffffffffffffffffffffffffff1602179055508281600501819055506001816006015f6101000a81548160ff02191690831515021790555034816007015f3373ffffffffffffffffffffffffffffffffffffffff1673ffffffffffffffffffffffffffffffffffffffff1681526020019081526020015f20819055508060080133908060018154018082558091505060019003905f5260205f20015f9091909190916101000a81548173ffffffffffffffffffffffffffffffffffffffff021916908373ffffffffffffffffffffffffffffffffffffffff1602179055506007549150509392505050565b5f5f9054906101000a900473ffffffffffffffffffffffffffffffffffffffff1673ffffffffffffffffffffffffffffffffffffffff163373ffffffffffffffffffffffffffffffffffffffff1614611641576040517f08c379a000000000000000000000000000000000000000000000000000000000815260040161163890612ae6565b60405180910390fd5b565b5f60095f8581526020019081526020015f205411611696576040517f08c379a000000000000000000000000000000000000000000000000000000000815260040161168d90612b4e565b60405180910390fd5b5f60095f8581526020019081526020015f205490505f60085f8381526020019081526020015f20905060011515816006015f9054906101000a900460ff16151514611716576040517f08c379a000000000000000000000000000000000000000000000000000000000815260040161170d90612138565b60405180910390fd5b5f81600801805490501161175f576040517f08c379a000000000000000000000000000000000000000000000000000000000815260040161175690612bb6565b60405180910390fd5b5f84845f81811061177357611772612bd4565b5b9050602002013590505f8260080180549050826117909190612c2e565b90505f8360080182815481106117a9576117a8612bd4565b5b905f5260205f20015f9054906101000a900473ffffffffffffffffffffffffffffffffffffffff1690505f60646012600a6117e4919061295c565b6117ee9190612c5e565b85600201546117fd9190612c8e565b905080600c5f82825461181091906127fa565b925050819055505f8273ffffffffffffffffffffffffffffffffffffffff1682876002015461183f9190612ccf565b60405161184b90612253565b5f6040518083038185875af1925050503d805f8114611885576040519150601f19603f3d011682016040523d82523d5f602084013e61188a565b606091505b50509050806118ce576040517f08c379a00000000000000000000000000000000000000000000000000000000081526004016118c590612d4c565b60405180910390fd5b82866004015f6101000a81548173ffffffffffffffffffffffffffffffffffffffff021916908373ffffffffffffffffffffffffffffffffffffffff1602179055505f866006015f6101000a81548160ff0219169083151502179055505f600a5f6101000a81548160ff021916908360ff1602179055507f4938abb0a1220e7b4a0dd8b149717aba799cd3d2263de30c997401abfa84524183888c4260405161197a9493929190612501565b60405180910390a150505050505050505050565b60607f92fd13387c7fe7befbc38d303d6468778fb9731bc4583f17d92989c6fcfdeaaa826040516024016119c29190612d93565b604051602081830303815290604052907bffffffffffffffffffffffffffffffffffffffffffffffffffffffff19166020820180517bffffffffffffffffffffffffffffffffffffffffffffffffffffffff83818316178352505050509050919050565b3373ffffffffffffffffffffffffffffffffffffffff168173ffffffffffffffffffffffffffffffffffffffff1603611a94576040517f08c379a0000000000000000000000000000000000000000000000000000000008152600401611a8b90612df6565b60405180910390fd5b8060015f6101000a81548173ffffffffffffffffffffffffffffffffffffffff021916908373ffffffffffffffffffffffffffffffffffffffff1602179055508073ffffffffffffffffffffffffffffffffffffffff165f5f9054906101000a900473ffffffffffffffffffffffffffffffffffffffff1673ffffffffffffffffffffffffffffffffffffffff167fed8889f560326eb138920d842192f0eb3dd22b4f139c87a2c57538e05bae127860405160405180910390a350565b5f5ffd5b5f5ffd5b5f819050919050565b611b6b81611b59565b8114611b75575f5ffd5b50565b5f81359050611b8681611b62565b92915050565b5f5ffd5b5f5ffd5b5f5ffd5b5f5f83601f840112611bad57611bac611b8c565b5b8235905067ffffffffffffffff811115611bca57611bc9611b90565b5b602083019150836020820283011115611be657611be5611b94565b5b9250929050565b5f5f5f60408486031215611c0457611c03611b51565b5b5f611c1186828701611b78565b935050602084013567ffffffffffffffff811115611c3257611c31611b55565b5b611c3e86828701611b98565b92509250509250925092565b611c5381611b59565b82525050565b5f602082019050611c6c5f830184611c4a565b92915050565b5f60208284031215611c8757611c86611b51565b5b5f611c9484828501611b78565b91505092915050565b5f73ffffffffffffffffffffffffffffffffffffffff82169050919050565b5f611cc682611c9d565b9050919050565b611cd681611cbc565b82525050565b5f8115159050919050565b611cf081611cdc565b82525050565b5f61010082019050611d0a5f83018b611c4a565b611d17602083018a611c4a565b611d246040830189611c4a565b611d316060830188611ccd565b611d3e6080830187611ccd565b611d4b60a0830186611c4a565b611d5860c0830185611ce7565b611d6560e0830184611c4a565b9998505050505050505050565b5f602082019050611d855f830184611ccd565b92915050565b611d9481611cbc565b8114611d9e575f5ffd5b50565b5f81359050611daf81611d8b565b92915050565b5f60208284031215611dca57611dc9611b51565b5b5f611dd784828501611da1565b91505092915050565b5f819050919050565b5f611e03611dfe611df984611c9d565b611de0565b611c9d565b9050919050565b5f611e1482611de9565b9050919050565b5f611e2582611e0a565b9050919050565b611e3581611e1b565b82525050565b5f602082019050611e4e5f830184611e2c565b92915050565b5f5f60408385031215611e6a57611e69611b51565b5b5f611e7785828601611b78565b9250506020611e8885828601611da1565b9150509250929050565b5f5f5f60608486031215611ea957611ea8611b51565b5b5f611eb686828701611b78565b9350506020611ec786828701611b78565b9250506040611ed886828701611b78565b9150509250925092565b5f82825260208201905092915050565b7f6e6f2066756c6c206665650000000000000000000000000000000000000000005f82015250565b5f611f26600b83611ee2565b9150611f3182611ef2565b602082019050919050565b5f6020820190508181035f830152611f5381611f1a565b9050919050565b5f606082019050611f6d5f830186611ccd565b611f7a6020830185611c4a565b611f876040830184611c4a565b949350505050565b5f604082019050611fa25f830185611ccd565b611faf6020830184611ccd565b9392505050565b7f706c6561736520696e70757420647261774964000000000000000000000000005f82015250565b5f611fea601383611ee2565b9150611ff582611fb6565b602082019050919050565b5f6020820190508181035f83015261201781611fde565b9050919050565b7f63757272656e74206861732070726f63657373696e67672064726177000000005f82015250565b5f612052601c83611ee2565b915061205d8261201e565b602082019050919050565b5f6020820190508181035f83015261207f81612046565b9050919050565b7f63757272656e74207461736b206861736e7420737461727400000000000000005f82015250565b5f6120ba601883611ee2565b91506120c582612086565b602082019050919050565b5f6020820190508181035f8301526120e7816120ae565b9050919050565b7f63757272656e74207461736b2068617320646f6e6500000000000000000000005f82015250565b5f612122601583611ee2565b915061212d826120ee565b602082019050919050565b5f6020820190508181035f83015261214f81612116565b9050919050565b7f796f7520617265206e6f207065726d697373696f6e00000000000000000000005f82015250565b5f61218a601583611ee2565b915061219582612156565b602082019050919050565b5f6020820190508181035f8301526121b78161217e565b9050919050565b7f6e6f206a6f696e207468652070657273696f6e000000000000000000000000005f82015250565b5f6121f2601383611ee2565b91506121fd826121be565b602082019050919050565b5f6020820190508181035f83015261221f816121e6565b9050919050565b5f81905092915050565b50565b5f61223e5f83612226565b915061224982612230565b5f82019050919050565b5f61225d82612233565b9150819050919050565b7f5472616e73666572206661696c656400000000000000000000000000000000005f82015250565b5f61229b600f83611ee2565b91506122a682612267565b602082019050919050565b5f6020820190508181035f8301526122c88161228f565b9050919050565b5f819050919050565b5f6122f26122ed6122e8846122cf565b611de0565b611b59565b9050919050565b612302816122d8565b82525050565b5f60808201905061231b5f830187611ccd565b6123286020830186611c4a565b61233560408301856122f9565b6123426060830184611c4a565b95945050505050565b5f819050919050565b61235d8161234b565b82525050565b61236c81611b59565b82525050565b5f61ffff82169050919050565b61238881612372565b82525050565b5f63ffffffff82169050919050565b6123a68161238e565b82525050565b5f81519050919050565b5f82825260208201905092915050565b8281835e5f83830152505050565b5f601f19601f8301169050919050565b5f6123ee826123ac565b6123f881856123b6565b93506124088185602086016123c6565b612411816123d4565b840191505092915050565b5f60c083015f8301516124315f860182612354565b5060208301516124446020860182612363565b506040830151612457604086018261237f565b50606083015161246a606086018261239d565b50608083015161247d608086018261239d565b5060a083015184820360a086015261249582826123e4565b9150508091505092915050565b5f6020820190508181035f8301526124ba818461241c565b905092915050565b5f815190506124d081611b62565b92915050565b5f602082840312156124eb576124ea611b51565b5b5f6124f8848285016124c2565b91505092915050565b5f6080820190506125145f830187611ccd565b6125216020830186611c4a565b61252e6040830185611c4a565b61253b6060830184611c4a565b95945050505050565b7f4d7573742062652070726f706f736564206f776e6572000000000000000000005f82015250565b5f612578601683611ee2565b915061258382612544565b602082019050919050565b5f6020820190508181035f8301526125a58161256c565b9050919050565b5f6060820190506125bf5f830186611ccd565b6125cc6020830185611ccd565b6125d96040830184611ccd565b949350505050565b7f636f7272656374206a6f696e20616464726573730000000000000000000000005f82015250565b5f612615601483611ee2565b9150612620826125e1565b602082019050919050565b5f6020820190508181035f83015261264281612609565b9050919050565b7f63757272656e74207461736b2068617320656e640000000000000000000000005f82015250565b5f61267d601483611ee2565b915061268882612649565b602082019050919050565b5f6020820190508181035f8301526126aa81612671565b9050919050565b7f6a6f696e207072696365206d75737420626520626967207468616e207469636b5f8201527f2070726963650000000000000000000000000000000000000000000000000000602082015250565b5f61270b602683611ee2565b9150612716826126b1565b604082019050919050565b5f6020820190508181035f830152612738816126ff565b9050919050565b7f796f7520686173206a6f696e2069742c706c656173652077616974696e67206c5f8201527f75636b7920676f696e6720646f776e0000000000000000000000000000000000602082015250565b5f612799602f83611ee2565b91506127a48261273f565b604082019050919050565b5f6020820190508181035f8301526127c68161278d565b9050919050565b7f4e487b71000000000000000000000000000000000000000000000000000000005f52601160045260245ffd5b5f61280482611b59565b915061280f83611b59565b9250828201905080821115612827576128266127cd565b5b92915050565b5f8160011c9050919050565b5f5f8291508390505b60018511156128825780860481111561285e5761285d6127cd565b5b600185161561286d5780820291505b808102905061287b8561282d565b9450612842565b94509492505050565b5f8261289a5760019050612955565b816128a7575f9050612955565b81600181146128bd57600281146128c7576128f6565b6001915050612955565b60ff8411156128d9576128d86127cd565b5b8360020a9150848211156128f0576128ef6127cd565b5b50612955565b5060208310610133831016604e8410600b841016171561292b5782820a905083811115612926576129256127cd565b5b612955565b6129388484846001612839565b9250905081840481111561294f5761294e6127cd565b5b81810290505b9392505050565b5f61296682611b59565b915061297183611b59565b925061299e7fffffffffffffffffffffffffffffffffffffffffffffffffffffffffffffffff848461288b565b905092915050565b7f6e6f7420616c6c6c6f776564206a6f696e2069740000000000000000000000005f82015250565b5f6129da601483611ee2565b91506129e5826129a6565b602082019050919050565b5f6020820190508181035f830152612a07816129ce565b9050919050565b7f637265617465206c75636b20696e697420726577617264206d757374206265205f8201527f626967207468616e207a65726f00000000000000000000000000000000000000602082015250565b5f612a68602d83611ee2565b9150612a7382612a0e565b604082019050919050565b5f6020820190508181035f830152612a9581612a5c565b9050919050565b7f4f6e6c792063616c6c61626c65206279206f776e6572000000000000000000005f82015250565b5f612ad0601683611ee2565b9150612adb82612a9c565b602082019050919050565b5f6020820190508181035f830152612afd81612ac4565b9050919050565b7f6e6f74206578697374207461736b0000000000000000000000000000000000005f82015250565b5f612b38600e83611ee2565b9150612b4382612b04565b602082019050919050565b5f6020820190508181035f830152612b6581612b2c565b9050919050565b7f4e6f207061727469636970616e747300000000000000000000000000000000005f82015250565b5f612ba0600f83611ee2565b9150612bab82612b6c565b602082019050919050565b5f6020820190508181035f830152612bcd81612b94565b9050919050565b7f4e487b71000000000000000000000000000000000000000000000000000000005f52603260045260245ffd5b7f4e487b71000000000000000000000000000000000000000000000000000000005f52601260045260245ffd5b5f612c3882611b59565b9150612c4383611b59565b925082612c5357612c52612c01565b5b828206905092915050565b5f612c6882611b59565b9150612c7383611b59565b925082612c8357612c82612c01565b5b828204905092915050565b5f612c9882611b59565b9150612ca383611b59565b9250828202612cb181611b59565b91508282048414831517612cc857612cc76127cd565b5b5092915050565b5f612cd982611b59565b9150612ce483611b59565b9250828203905081811115612cfc57612cfb6127cd565b5b92915050565b7f4661696c656420746f2073656e642072657761726400000000000000000000005f82015250565b5f612d36601583611ee2565b9150612d4182612d02565b602082019050919050565b5f6020820190508181035f830152612d6381612d2a565b9050919050565b612d7381611cdc565b82525050565b602082015f820151612d8d5f850182612d6a565b50505050565b5f602082019050612da65f830184612d79565b92915050565b7f43616e6e6f74207472616e7366657220746f2073656c660000000000000000005f82015250565b5f612de0601783611ee2565b9150612deb82612dac565b602082019050919050565b5f6020820190508181035f830152612e0d81612dd4565b905091905056fea26469706673582212207284f1254f67ee35aca74bfeda3a41d957a5f291f4d2ee2f62ae47198581bed264736f6c634300081e0033",
					"opcodes": "PUSH1 0x80 PUSH1 0x40 MSTORE PUSH1 0x3 PUSH1 0x6 PUSH0 PUSH2 0x100 EXP DUP2 SLOAD DUP2 PUSH2 0xFFFF MUL NOT AND SWAP1 DUP4 PUSH2 0xFFFF AND MUL OR SWAP1 SSTORE POP PUSH3 0x186A0 PUSH1 0x6 PUSH1 0x2 PUSH2 0x100 EXP DUP2 SLOAD DUP2 PUSH4 0xFFFFFFFF MUL NOT AND SWAP1 DUP4 PUSH4 0xFFFFFFFF AND MUL OR SWAP1 SSTORE POP PUSH1 0x1 PUSH1 0x6 DUP1 PUSH2 0x100 EXP DUP2 SLOAD DUP2 PUSH4 0xFFFFFFFF MUL NOT AND SWAP1 DUP4 PUSH4 0xFFFFFFFF AND MUL OR SWAP1 SSTORE POP PUSH0 PUSH1 0xA PUSH0 PUSH2 0x100 EXP DUP2 SLOAD DUP2 PUSH1 0xFF MUL NOT AND SWAP1 DUP4 PUSH1 0xFF AND MUL OR SWAP1 SSTORE POP CALLVALUE DUP1 ISZERO PUSH2 0x8B JUMPI PUSH0 PUSH0 REVERT JUMPDEST POP PUSH1 0x40 MLOAD PUSH2 0x34BA CODESIZE SUB DUP1 PUSH2 0x34BA DUP4 CODECOPY DUP2 DUP2 ADD PUSH1 0x40 MSTORE DUP2 ADD SWAP1 PUSH2 0xAD SWAP2 SWAP1 PUSH2 0x51F JUMP JUMPDEST DUP4 CALLER DUP1 PUSH0 PUSH0 PUSH20 0xFFFFFFFFFFFFFFFFFFFFFFFFFFFFFFFFFFFFFFFF AND DUP3 PUSH20 0xFFFFFFFFFFFFFFFFFFFFFFFFFFFFFFFFFFFFFFFF AND SUB PUSH2 0x11F JUMPI PUSH1 0x40 MLOAD PUSH32 0x8C379A000000000000000000000000000000000000000000000000000000000 DUP2 MSTORE PUSH1 0x4 ADD PUSH2 0x116 SWAP1 PUSH2 0x5DD JUMP JUMPDEST PUSH1 0x40 MLOAD DUP1 SWAP2 SUB SWAP1 REVERT JUMPDEST DUP2 PUSH0 PUSH0 PUSH2 0x100 EXP DUP2 SLOAD DUP2 PUSH20 0xFFFFFFFFFFFFFFFFFFFFFFFFFFFFFFFFFFFFFFFF MUL NOT AND SWAP1 DUP4 PUSH20 0xFFFFFFFFFFFFFFFFFFFFFFFFFFFFFFFFFFFFFFFF AND MUL OR SWAP1 SSTORE POP PUSH0 PUSH20 0xFFFFFFFFFFFFFFFFFFFFFFFFFFFFFFFFFFFFFFFF AND DUP2 PUSH20 0xFFFFFFFFFFFFFFFFFFFFFFFFFFFFFFFFFFFFFFFF AND EQ PUSH2 0x1A1 JUMPI PUSH2 0x1A0 DUP2 PUSH2 0x330 PUSH1 0x20 SHL PUSH1 0x20 SHR JUMP JUMPDEST JUMPDEST POP POP POP PUSH0 PUSH20 0xFFFFFFFFFFFFFFFFFFFFFFFFFFFFFFFFFFFFFFFF AND DUP2 PUSH20 0xFFFFFFFFFFFFFFFFFFFFFFFFFFFFFFFFFFFFFFFF AND SUB PUSH2 0x209 JUMPI PUSH1 0x40 MLOAD PUSH32 0xD92E233D00000000000000000000000000000000000000000000000000000000 DUP2 MSTORE PUSH1 0x4 ADD PUSH1 0x40 MLOAD DUP1 SWAP2 SUB SWAP1 REVERT JUMPDEST DUP1 PUSH1 0x2 PUSH0 PUSH2 0x100 EXP DUP2 SLOAD DUP2 PUSH20 0xFFFFFFFFFFFFFFFFFFFFFFFFFFFFFFFFFFFFFFFF MUL NOT AND SWAP1 DUP4 PUSH20 0xFFFFFFFFFFFFFFFFFFFFFFFFFFFFFFFFFFFFFFFF AND MUL OR SWAP1 SSTORE POP POP DUP4 PUSH1 0x4 PUSH0 PUSH2 0x100 EXP DUP2 SLOAD DUP2 PUSH20 0xFFFFFFFFFFFFFFFFFFFFFFFFFFFFFFFFFFFFFFFF MUL NOT AND SWAP1 DUP4 PUSH20 0xFFFFFFFFFFFFFFFFFFFFFFFFFFFFFFFFFFFFFFFF AND MUL OR SWAP1 SSTORE POP DUP4 PUSH1 0x2 PUSH0 PUSH2 0x100 EXP DUP2 SLOAD DUP2 PUSH20 0xFFFFFFFFFFFFFFFFFFFFFFFFFFFFFFFFFFFFFFFF MUL NOT AND SWAP1 DUP4 PUSH20 0xFFFFFFFFFFFFFFFFFFFFFFFFFFFFFFFFFFFFFFFF AND MUL OR SWAP1 SSTORE POP DUP3 PUSH1 0x3 DUP2 SWAP1 SSTORE POP DUP2 PUSH1 0x5 DUP2 SWAP1 SSTORE POP PUSH1 0x1 PUSH1 0x7 DUP2 SWAP1 SSTORE POP DUP1 PUSH1 0xB DUP2 SWAP1 SSTORE POP CALLER PUSH1 0xD PUSH0 PUSH2 0x100 EXP DUP2 SLOAD DUP2 PUSH20 0xFFFFFFFFFFFFFFFFFFFFFFFFFFFFFFFFFFFFFFFF MUL NOT AND SWAP1 DUP4 PUSH20 0xFFFFFFFFFFFFFFFFFFFFFFFFFFFFFFFFFFFFFFFF AND MUL OR SWAP1 SSTORE POP POP POP POP POP PUSH2 0x663 JUMP JUMPDEST CALLER PUSH20 0xFFFFFFFFFFFFFFFFFFFFFFFFFFFFFFFFFFFFFFFF AND DUP2 PUSH20 0xFFFFFFFFFFFFFFFFFFFFFFFFFFFFFFFFFFFFFFFF AND SUB PUSH2 0x39E JUMPI PUSH1 0x40 MLOAD PUSH32 0x8C379A000000000000000000000000000000000000000000000000000000000 DUP2 MSTORE PUSH1 0x4 ADD PUSH2 0x395 SWAP1 PUSH2 0x645 JUMP JUMPDEST PUSH1 0x40 MLOAD DUP1 SWAP2 SUB SWAP1 REVERT JUMPDEST DUP1 PUSH1 0x1 PUSH0 PUSH2 0x100 EXP DUP2 SLOAD DUP2 PUSH20 0xFFFFFFFFFFFFFFFFFFFFFFFFFFFFFFFFFFFFFFFF MUL NOT AND SWAP1 DUP4 PUSH20 0xFFFFFFFFFFFFFFFFFFFFFFFFFFFFFFFFFFFFFFFF AND MUL OR SWAP1 SSTORE POP DUP1 PUSH20 0xFFFFFFFFFFFFFFFFFFFFFFFFFFFFFFFFFFFFFFFF AND PUSH0 PUSH0 SWAP1 SLOAD SWAP1 PUSH2 0x100 EXP SWAP1 DIV PUSH20 0xFFFFFFFFFFFFFFFFFFFFFFFFFFFFFFFFFFFFFFFF AND PUSH20 0xFFFFFFFFFFFFFFFFFFFFFFFFFFFFFFFFFFFFFFFF AND PUSH32 0xED8889F560326EB138920D842192F0EB3DD22B4F139C87A2C57538E05BAE1278 PUSH1 0x40 MLOAD PUSH1 0x40 MLOAD DUP1 SWAP2 SUB SWAP1 LOG3 POP JUMP JUMPDEST PUSH0 PUSH0 REVERT JUMPDEST PUSH0 PUSH20 0xFFFFFFFFFFFFFFFFFFFFFFFFFFFFFFFFFFFFFFFF DUP3 AND SWAP1 POP SWAP2 SWAP1 POP JUMP JUMPDEST PUSH0 PUSH2 0x488 DUP3 PUSH2 0x45F JUMP JUMPDEST SWAP1 POP SWAP2 SWAP1 POP JUMP JUMPDEST PUSH2 0x498 DUP2 PUSH2 0x47E JUMP JUMPDEST DUP2 EQ PUSH2 0x4A2 JUMPI PUSH0 PUSH0 REVERT JUMPDEST POP JUMP JUMPDEST PUSH0 DUP2 MLOAD SWAP1 POP PUSH2 0x4B3 DUP2 PUSH2 0x48F JUMP JUMPDEST SWAP3 SWAP2 POP POP JUMP JUMPDEST PUSH0 DUP2 SWAP1 POP SWAP2 SWAP1 POP JUMP JUMPDEST PUSH2 0x4CB DUP2 PUSH2 0x4B9 JUMP JUMPDEST DUP2 EQ PUSH2 0x4D5 JUMPI PUSH0 PUSH0 REVERT JUMPDEST POP JUMP JUMPDEST PUSH0 DUP2 MLOAD SWAP1 POP PUSH2 0x4E6 DUP2 PUSH2 0x4C2 JUMP JUMPDEST SWAP3 SWAP2 POP POP JUMP JUMPDEST PUSH0 DUP2 SWAP1 POP SWAP2 SWAP1 POP JUMP JUMPDEST PUSH2 0x4FE DUP2 PUSH2 0x4EC JUMP JUMPDEST DUP2 EQ PUSH2 0x508 JUMPI PUSH0 PUSH0 REVERT JUMPDEST POP JUMP JUMPDEST PUSH0 DUP2 MLOAD SWAP1 POP PUSH2 0x519 DUP2 PUSH2 0x4F5 JUMP JUMPDEST SWAP3 SWAP2 POP POP JUMP JUMPDEST PUSH0 PUSH0 PUSH0 PUSH0 PUSH1 0x80 DUP6 DUP8 SUB SLT ISZERO PUSH2 0x537 JUMPI PUSH2 0x536 PUSH2 0x45B JUMP JUMPDEST JUMPDEST PUSH0 PUSH2 0x544 DUP8 DUP3 DUP9 ADD PUSH2 0x4A5 JUMP JUMPDEST SWAP5 POP POP PUSH1 0x20 PUSH2 0x555 DUP8 DUP3 DUP9 ADD PUSH2 0x4D8 JUMP JUMPDEST SWAP4 POP POP PUSH1 0x40 PUSH2 0x566 DUP8 DUP3 DUP9 ADD PUSH2 0x50B JUMP JUMPDEST SWAP3 POP POP PUSH1 0x60 PUSH2 0x577 DUP8 DUP3 DUP9 ADD PUSH2 0x4D8 JUMP JUMPDEST SWAP2 POP POP SWAP3 SWAP6 SWAP2 SWAP5 POP SWAP3 POP JUMP JUMPDEST PUSH0 DUP3 DUP3 MSTORE PUSH1 0x20 DUP3 ADD SWAP1 POP SWAP3 SWAP2 POP POP JUMP JUMPDEST PUSH32 0x43616E6E6F7420736574206F776E657220746F207A65726F0000000000000000 PUSH0 DUP3 ADD MSTORE POP JUMP JUMPDEST PUSH0 PUSH2 0x5C7 PUSH1 0x18 DUP4 PUSH2 0x583 JUMP JUMPDEST SWAP2 POP PUSH2 0x5D2 DUP3 PUSH2 0x593 JUMP JUMPDEST PUSH1 0x20 DUP3 ADD SWAP1 POP SWAP2 SWAP1 POP JUMP JUMPDEST PUSH0 PUSH1 0x20 DUP3 ADD SWAP1 POP DUP2 DUP2 SUB PUSH0 DUP4 ADD MSTORE PUSH2 0x5F4 DUP2 PUSH2 0x5BB JUMP JUMPDEST SWAP1 POP SWAP2 SWAP1 POP JUMP JUMPDEST PUSH32 0x43616E6E6F74207472616E7366657220746F2073656C66000000000000000000 PUSH0 DUP3 ADD MSTORE POP JUMP JUMPDEST PUSH0 PUSH2 0x62F PUSH1 0x17 DUP4 PUSH2 0x583 JUMP JUMPDEST SWAP2 POP PUSH2 0x63A DUP3 PUSH2 0x5FB JUMP JUMPDEST PUSH1 0x20 DUP3 ADD SWAP1 POP SWAP2 SWAP1 POP JUMP JUMPDEST PUSH0 PUSH1 0x20 DUP3 ADD SWAP1 POP DUP2 DUP2 SUB PUSH0 DUP4 ADD MSTORE PUSH2 0x65C DUP2 PUSH2 0x623 JUMP JUMPDEST SWAP1 POP SWAP2 SWAP1 POP JUMP JUMPDEST PUSH2 0x2E4A DUP1 PUSH2 0x670 PUSH0 CODECOPY PUSH0 RETURN INVALID PUSH1 0x80 PUSH1 0x40 MSTORE PUSH1 0x4 CALLDATASIZE LT PUSH2 0xFD JUMPI PUSH0 CALLDATALOAD PUSH1 0xE0 SHR DUP1 PUSH4 0x8DA5CB5B GT PUSH2 0x94 JUMPI DUP1 PUSH4 0xC2EE3A08 GT PUSH2 0x63 JUMPI DUP1 PUSH4 0xC2EE3A08 EQ PUSH2 0x2DC JUMPI DUP1 PUSH4 0xE00DD161 EQ PUSH2 0x306 JUMPI DUP1 PUSH4 0xE578B0BB EQ PUSH2 0x330 JUMPI DUP1 PUSH4 0xF2FDE38B EQ PUSH2 0x36C JUMPI DUP1 PUSH4 0xF36B98FB EQ PUSH2 0x394 JUMPI PUSH2 0xFD JUMP JUMPDEST DUP1 PUSH4 0x8DA5CB5B EQ PUSH2 0x244 JUMPI DUP1 PUSH4 0x8EA98117 EQ PUSH2 0x26E JUMPI DUP1 PUSH4 0x9ECCACF6 EQ PUSH2 0x296 JUMPI DUP1 PUSH4 0xA3FA9775 EQ PUSH2 0x2C0 JUMPI PUSH2 0xFD JUMP JUMPDEST DUP1 PUSH4 0x60B2A56A GT PUSH2 0xD0 JUMPI DUP1 PUSH4 0x60B2A56A EQ PUSH2 0x1A0 JUMPI DUP1 PUSH4 0x64B6A998 EQ PUSH2 0x1C8 JUMPI DUP1 PUSH4 0x79BA5097 EQ PUSH2 0x204 JUMPI DUP1 PUSH4 0x7AE316D0 EQ PUSH2 0x21A JUMPI PUSH2 0xFD JUMP JUMPDEST DUP1 PUSH4 0xFDB1C10 EQ PUSH2 0x101 JUMPI DUP1 PUSH4 0x1FE543E3 EQ PUSH2 0x10B JUMPI DUP1 PUSH4 0x2E0F2625 EQ PUSH2 0x133 JUMPI DUP1 PUSH4 0x36068A56 EQ PUSH2 0x15D JUMPI JUMPDEST PUSH0 PUSH0 REVERT JUMPDEST PUSH2 0x109 PUSH2 0x3C4 JUMP JUMPDEST STOP JUMPDEST CALLVALUE DUP1 ISZERO PUSH2 0x116 JUMPI PUSH0 PUSH0 REVERT JUMPDEST POP PUSH2 0x131 PUSH1 0x4 DUP1 CALLDATASIZE SUB DUP2 ADD SWAP1 PUSH2 0x12C SWAP2 SWAP1 PUSH2 0x1BED JUMP JUMPDEST PUSH2 0x4C0 JUMP JUMPDEST STOP JUMPDEST CALLVALUE DUP1 ISZERO PUSH2 0x13E JUMPI PUSH0 PUSH0 REVERT JUMPDEST POP PUSH2 0x147 PUSH2 0x584 JUMP JUMPDEST PUSH1 0x40 MLOAD PUSH2 0x154 SWAP2 SWAP1 PUSH2 0x1C59 JUMP JUMPDEST PUSH1 0x40 MLOAD DUP1 SWAP2 SUB SWAP1 RETURN JUMPDEST CALLVALUE DUP1 ISZERO PUSH2 0x168 JUMPI PUSH0 PUSH0 REVERT JUMPDEST POP PUSH2 0x183 PUSH1 0x4 DUP1 CALLDATASIZE SUB DUP2 ADD SWAP1 PUSH2 0x17E SWAP2 SWAP1 PUSH2 0x1C72 JUMP JUMPDEST PUSH2 0x589 JUMP JUMPDEST PUSH1 0x40 MLOAD PUSH2 0x197 SWAP9 SWAP8 SWAP7 SWAP6 SWAP5 SWAP4 SWAP3 SWAP2 SWAP1 PUSH2 0x1CF6 JUMP JUMPDEST PUSH1 0x40 MLOAD DUP1 SWAP2 SUB SWAP1 RETURN JUMPDEST CALLVALUE DUP1 ISZERO PUSH2 0x1AB JUMPI PUSH0 PUSH0 REVERT JUMPDEST POP PUSH2 0x1C6 PUSH1 0x4 DUP1 CALLDATASIZE SUB DUP2 ADD SWAP1 PUSH2 0x1C1 SWAP2 SWAP1 PUSH2 0x1C72 JUMP JUMPDEST PUSH2 0x635 JUMP JUMPDEST STOP JUMPDEST CALLVALUE DUP1 ISZERO PUSH2 0x1D3 JUMPI PUSH0 PUSH0 REVERT JUMPDEST POP PUSH2 0x1EE PUSH1 0x4 DUP1 CALLDATASIZE SUB DUP2 ADD SWAP1 PUSH2 0x1E9 SWAP2 SWAP1 PUSH2 0x1C72 JUMP JUMPDEST PUSH2 0xC03 JUMP JUMPDEST PUSH1 0x40 MLOAD PUSH2 0x1FB SWAP2 SWAP1 PUSH2 0x1C59 JUMP JUMPDEST PUSH1 0x40 MLOAD DUP1 SWAP2 SUB SWAP1 RETURN JUMPDEST CALLVALUE DUP1 ISZERO PUSH2 0x20F JUMPI PUSH0 PUSH0 REVERT JUMPDEST POP PUSH2 0x218 PUSH2 0xC18 JUMP JUMPDEST STOP JUMPDEST CALLVALUE DUP1 ISZERO PUSH2 0x225 JUMPI PUSH0 PUSH0 REVERT JUMPDEST POP PUSH2 0x22E PUSH2 0xDA7 JUMP JUMPDEST PUSH1 0x40 MLOAD PUSH2 0x23B SWAP2 SWAP1 PUSH2 0x1C59 JUMP JUMPDEST PUSH1 0x40 MLOAD DUP1 SWAP2 SUB SWAP1 RETURN JUMPDEST CALLVALUE DUP1 ISZERO PUSH2 0x24F JUMPI PUSH0 PUSH0 REVERT JUMPDEST POP PUSH2 0x258 PUSH2 0xDB0 JUMP JUMPDEST PUSH1 0x40 MLOAD PUSH2 0x265 SWAP2 SWAP1 PUSH2 0x1D72 JUMP JUMPDEST PUSH1 0x40 MLOAD DUP1 SWAP2 SUB SWAP1 RETURN JUMPDEST CALLVALUE DUP1 ISZERO PUSH2 0x279 JUMPI PUSH0 PUSH0 REVERT JUMPDEST POP PUSH2 0x294 PUSH1 0x4 DUP1 CALLDATASIZE SUB DUP2 ADD SWAP1 PUSH2 0x28F SWAP2 SWAP1 PUSH2 0x1DB5 JUMP JUMPDEST PUSH2 0xDD7 JUMP JUMPDEST STOP JUMPDEST CALLVALUE DUP1 ISZERO PUSH2 0x2A1 JUMPI PUSH0 PUSH0 REVERT JUMPDEST POP PUSH2 0x2AA PUSH2 0xFB4 JUMP JUMPDEST PUSH1 0x40 MLOAD PUSH2 0x2B7 SWAP2 SWAP1 PUSH2 0x1E3B JUMP JUMPDEST PUSH1 0x40 MLOAD DUP1 SWAP2 SUB SWAP1 RETURN JUMPDEST PUSH2 0x2DA PUSH1 0x4 DUP1 CALLDATASIZE SUB DUP2 ADD SWAP1 PUSH2 0x2D5 SWAP2 SWAP1 PUSH2 0x1C72 JUMP JUMPDEST PUSH2 0xFD9 JUMP JUMPDEST STOP JUMPDEST CALLVALUE DUP1 ISZERO PUSH2 0x2E7 JUMPI PUSH0 PUSH0 REVERT JUMPDEST POP PUSH2 0x2F0 PUSH2 0x12D1 JUMP JUMPDEST PUSH1 0x40 MLOAD PUSH2 0x2FD SWAP2 SWAP1 PUSH2 0x1C59 JUMP JUMPDEST PUSH1 0x40 MLOAD DUP1 SWAP2 SUB SWAP1 RETURN JUMPDEST CALLVALUE DUP1 ISZERO PUSH2 0x311 JUMPI PUSH0 PUSH0 REVERT JUMPDEST POP PUSH2 0x31A PUSH2 0x12E2 JUMP JUMPDEST PUSH1 0x40 MLOAD PUSH2 0x327 SWAP2 SWAP1 PUSH2 0x1C59 JUMP JUMPDEST PUSH1 0x40 MLOAD DUP1 SWAP2 SUB SWAP1 RETURN JUMPDEST CALLVALUE DUP1 ISZERO PUSH2 0x33B JUMPI PUSH0 PUSH0 REVERT JUMPDEST POP PUSH2 0x356 PUSH1 0x4 DUP1 CALLDATASIZE SUB DUP2 ADD SWAP1 PUSH2 0x351 SWAP2 SWAP1 PUSH2 0x1E54 JUMP JUMPDEST PUSH2 0x12E8 JUMP JUMPDEST PUSH1 0x40 MLOAD PUSH2 0x363 SWAP2 SWAP1 PUSH2 0x1C59 JUMP JUMPDEST PUSH1 0x40 MLOAD DUP1 SWAP2 SUB SWAP1 RETURN JUMPDEST CALLVALUE DUP1 ISZERO PUSH2 0x377 JUMPI PUSH0 PUSH0 REVERT JUMPDEST POP PUSH2 0x392 PUSH1 0x4 DUP1 CALLDATASIZE SUB DUP2 ADD SWAP1 PUSH2 0x38D SWAP2 SWAP1 PUSH2 0x1DB5 JUMP JUMPDEST PUSH2 0x137D JUMP JUMPDEST STOP JUMPDEST PUSH2 0x3AE PUSH1 0x4 DUP1 CALLDATASIZE SUB DUP2 ADD SWAP1 PUSH2 0x3A9 SWAP2 SWAP1 PUSH2 0x1E92 JUMP JUMPDEST PUSH2 0x1391 JUMP JUMPDEST PUSH1 0x40 MLOAD PUSH2 0x3BB SWAP2 SWAP1 PUSH2 0x1C59 JUMP JUMPDEST PUSH1 0x40 MLOAD DUP1 SWAP2 SUB SWAP1 RETURN JUMPDEST PUSH2 0x3CC PUSH2 0x15B3 JUMP JUMPDEST PUSH0 PUSH1 0xC SLOAD GT PUSH2 0x410 JUMPI PUSH1 0x40 MLOAD PUSH32 0x8C379A000000000000000000000000000000000000000000000000000000000 DUP2 MSTORE PUSH1 0x4 ADD PUSH2 0x407 SWAP1 PUSH2 0x1F3C JUMP JUMPDEST PUSH1 0x40 MLOAD DUP1 SWAP2 SUB SWAP1 REVERT JUMPDEST PUSH0 PUSH1 0xC SLOAD SWAP1 POP PUSH0 PUSH1 0xC DUP2 SWAP1 SSTORE POP PUSH1 0xD PUSH0 SWAP1 SLOAD SWAP1 PUSH2 0x100 EXP SWAP1 DIV PUSH20 0xFFFFFFFFFFFFFFFFFFFFFFFFFFFFFFFFFFFFFFFF AND PUSH20 0xFFFFFFFFFFFFFFFFFFFFFFFFFFFFFFFFFFFFFFFF AND PUSH2 0x8FC DUP3 SWAP1 DUP2 ISZERO MUL SWAP1 PUSH1 0x40 MLOAD PUSH0 PUSH1 0x40 MLOAD DUP1 DUP4 SUB DUP2 DUP6 DUP9 DUP9 CALL SWAP4 POP POP POP POP ISZERO DUP1 ISZERO PUSH2 0x481 JUMPI RETURNDATASIZE PUSH0 PUSH0 RETURNDATACOPY RETURNDATASIZE PUSH0 REVERT JUMPDEST POP PUSH32 0x9E48992309BE40EE6B621AA79B40ADFC808EB591F3A3D551650CEF9E516AEB0E CALLER DUP3 TIMESTAMP PUSH1 0x40 MLOAD PUSH2 0x4B5 SWAP4 SWAP3 SWAP2 SWAP1 PUSH2 0x1F5A JUMP JUMPDEST PUSH1 0x40 MLOAD DUP1 SWAP2 SUB SWAP1 LOG1 POP JUMP JUMPDEST PUSH1 0x2 PUSH0 SWAP1 SLOAD SWAP1 PUSH2 0x100 EXP SWAP1 DIV PUSH20 0xFFFFFFFFFFFFFFFFFFFFFFFFFFFFFFFFFFFFFFFF AND PUSH20 0xFFFFFFFFFFFFFFFFFFFFFFFFFFFFFFFFFFFFFFFF AND CALLER PUSH20 0xFFFFFFFFFFFFFFFFFFFFFFFFFFFFFFFFFFFFFFFF AND EQ PUSH2 0x574 JUMPI CALLER PUSH1 0x2 PUSH0 SWAP1 SLOAD SWAP1 PUSH2 0x100 EXP SWAP1 DIV PUSH20 0xFFFFFFFFFFFFFFFFFFFFFFFFFFFFFFFFFFFFFFFF AND PUSH1 0x40 MLOAD PUSH32 0x1CF993F400000000000000000000000000000000000000000000000000000000 DUP2 MSTORE PUSH1 0x4 ADD PUSH2 0x56B SWAP3 SWAP2 SWAP1 PUSH2 0x1F8F JUMP JUMPDEST PUSH1 0x40 MLOAD DUP1 SWAP2 SUB SWAP1 REVERT JUMPDEST PUSH2 0x57F DUP4 DUP4 DUP4 PUSH2 0x1643 JUMP JUMPDEST POP POP POP JUMP JUMPDEST PUSH1 0x12 DUP2 JUMP JUMPDEST PUSH0 PUSH0 PUSH0 PUSH0 PUSH0 PUSH0 PUSH0 PUSH0 PUSH0 PUSH1 0x8 PUSH0 DUP12 DUP2 MSTORE PUSH1 0x20 ADD SWAP1 DUP2 MSTORE PUSH1 0x20 ADD PUSH0 KECCAK256 SWAP1 POP DUP1 PUSH0 ADD SLOAD DUP2 PUSH1 0x1 ADD SLOAD DUP3 PUSH1 0x2 ADD SLOAD DUP4 PUSH1 0x3 ADD PUSH0 SWAP1 SLOAD SWAP1 PUSH2 0x100 EXP SWAP1 DIV PUSH20 0xFFFFFFFFFFFFFFFFFFFFFFFFFFFFFFFFFFFFFFFF AND DUP5 PUSH1 0x4 ADD PUSH0 SWAP1 SLOAD SWAP1 PUSH2 0x100 EXP SWAP1 DIV PUSH20 0xFFFFFFFFFFFFFFFFFFFFFFFFFFFFFFFFFFFFFFFF AND DUP6 PUSH1 0x5 ADD SLOAD DUP7 PUSH1 0x6 ADD PUSH0 SWAP1 SLOAD SWAP1 PUSH2 0x100 EXP SWAP1 DIV PUSH1 0xFF AND DUP8 PUSH1 0x8 ADD DUP1 SLOAD SWAP1 POP SWAP9 POP SWAP9 POP SWAP9 POP SWAP9 POP SWAP9 POP SWAP9 POP SWAP9 POP SWAP9 POP POP SWAP2 SWAP4 SWAP6 SWAP8 POP SWAP2 SWAP4 SWAP6 SWAP8 JUMP JUMPDEST PUSH0 DUP2 GT PUSH2 0x677 JUMPI PUSH1 0x40 MLOAD PUSH32 0x8C379A000000000000000000000000000000000000000000000000000000000 DUP2 MSTORE PUSH1 0x4 ADD PUSH2 0x66E SWAP1 PUSH2 0x2000 JUMP JUMPDEST PUSH1 0x40 MLOAD DUP1 SWAP2 SUB SWAP1 REVERT JUMPDEST PUSH0 PUSH1 0xA PUSH0 SWAP1 SLOAD SWAP1 PUSH2 0x100 EXP SWAP1 DIV PUSH1 0xFF AND PUSH1 0xFF AND GT ISZERO PUSH2 0x6CB JUMPI PUSH1 0x40 MLOAD PUSH32 0x8C379A000000000000000000000000000000000000000000000000000000000 DUP2 MSTORE PUSH1 0x4 ADD PUSH2 0x6C2 SWAP1 PUSH2 0x2068 JUMP JUMPDEST PUSH1 0x40 MLOAD DUP1 SWAP2 SUB SWAP1 REVERT JUMPDEST PUSH1 0x8 PUSH0 DUP3 DUP2 MSTORE PUSH1 0x20 ADD SWAP1 DUP2 MSTORE PUSH1 0x20 ADD PUSH0 KECCAK256 PUSH0 ADD SLOAD TIMESTAMP GT PUSH2 0x720 JUMPI PUSH1 0x40 MLOAD PUSH32 0x8C379A000000000000000000000000000000000000000000000000000000000 DUP2 MSTORE PUSH1 0x4 ADD PUSH2 0x717 SWAP1 PUSH2 0x20D0 JUMP JUMPDEST PUSH1 0x40 MLOAD DUP1 SWAP2 SUB SWAP1 REVERT JUMPDEST PUSH1 0x1 ISZERO ISZERO PUSH1 0x8 PUSH0 DUP4 DUP2 MSTORE PUSH1 0x20 ADD SWAP1 DUP2 MSTORE PUSH1 0x20 ADD PUSH0 KECCAK256 PUSH1 0x6 ADD PUSH0 SWAP1 SLOAD SWAP1 PUSH2 0x100 EXP SWAP1 DIV PUSH1 0xFF AND ISZERO ISZERO EQ PUSH2 0x787 JUMPI PUSH1 0x40 MLOAD PUSH32 0x8C379A000000000000000000000000000000000000000000000000000000000 DUP2 MSTORE PUSH1 0x4 ADD PUSH2 0x77E SWAP1 PUSH2 0x2138 JUMP JUMPDEST PUSH1 0x40 MLOAD DUP1 SWAP2 SUB SWAP1 REVERT JUMPDEST CALLER PUSH20 0xFFFFFFFFFFFFFFFFFFFFFFFFFFFFFFFFFFFFFFFF AND PUSH1 0x8 PUSH0 DUP4 DUP2 MSTORE PUSH1 0x20 ADD SWAP1 DUP2 MSTORE PUSH1 0x20 ADD PUSH0 KECCAK256 PUSH1 0x3 ADD PUSH0 SWAP1 SLOAD SWAP1 PUSH2 0x100 EXP SWAP1 DIV PUSH20 0xFFFFFFFFFFFFFFFFFFFFFFFFFFFFFFFFFFFFFFFF AND PUSH20 0xFFFFFFFFFFFFFFFFFFFFFFFFFFFFFFFFFFFFFFFF AND EQ PUSH2 0x828 JUMPI PUSH1 0x40 MLOAD PUSH32 0x8C379A000000000000000000000000000000000000000000000000000000000 DUP2 MSTORE PUSH1 0x4 ADD PUSH2 0x81F SWAP1 PUSH2 0x21A0 JUMP JUMPDEST PUSH1 0x40 MLOAD DUP1 SWAP2 SUB SWAP1 REVERT JUMPDEST PUSH0 PUSH1 0x8 PUSH0 DUP4 DUP2 MSTORE PUSH1 0x20 ADD SWAP1 DUP2 MSTORE PUSH1 0x20 ADD PUSH0 KECCAK256 PUSH1 0x8 ADD DUP1 SLOAD SWAP1 POP GT PUSH2 0x881 JUMPI PUSH1 0x40 MLOAD PUSH32 0x8C379A000000000000000000000000000000000000000000000000000000000 DUP2 MSTORE PUSH1 0x4 ADD PUSH2 0x878 SWAP1 PUSH2 0x2208 JUMP JUMPDEST PUSH1 0x40 MLOAD DUP1 SWAP2 SUB SWAP1 REVERT JUMPDEST PUSH1 0x1 PUSH1 0xA PUSH0 PUSH2 0x100 EXP DUP2 SLOAD DUP2 PUSH1 0xFF MUL NOT AND SWAP1 DUP4 PUSH1 0xFF AND MUL OR SWAP1 SSTORE POP PUSH1 0x1 PUSH1 0x8 PUSH0 DUP4 DUP2 MSTORE PUSH1 0x20 ADD SWAP1 DUP2 MSTORE PUSH1 0x20 ADD PUSH0 KECCAK256 PUSH1 0x8 ADD DUP1 SLOAD SWAP1 POP SUB PUSH2 0xA84 JUMPI PUSH0 PUSH1 0x8 PUSH0 DUP4 DUP2 MSTORE PUSH1 0x20 ADD SWAP1 DUP2 MSTORE PUSH1 0x20 ADD PUSH0 KECCAK256 PUSH1 0x3 ADD PUSH0 SWAP1 SLOAD SWAP1 PUSH2 0x100 EXP SWAP1 DIV PUSH20 0xFFFFFFFFFFFFFFFFFFFFFFFFFFFFFFFFFFFFFFFF AND PUSH20 0xFFFFFFFFFFFFFFFFFFFFFFFFFFFFFFFFFFFFFFFF AND PUSH1 0x8 PUSH0 DUP5 DUP2 MSTORE PUSH1 0x20 ADD SWAP1 DUP2 MSTORE PUSH1 0x20 ADD PUSH0 KECCAK256 PUSH1 0x2 ADD SLOAD PUSH1 0x40 MLOAD PUSH2 0x927 SWAP1 PUSH2 0x2253 JUMP JUMPDEST PUSH0 PUSH1 0x40 MLOAD DUP1 DUP4 SUB DUP2 DUP6 DUP8 GAS CALL SWAP3 POP POP POP RETURNDATASIZE DUP1 PUSH0 DUP2 EQ PUSH2 0x961 JUMPI PUSH1 0x40 MLOAD SWAP2 POP PUSH1 0x1F NOT PUSH1 0x3F RETURNDATASIZE ADD AND DUP3 ADD PUSH1 0x40 MSTORE RETURNDATASIZE DUP3 MSTORE RETURNDATASIZE PUSH0 PUSH1 0x20 DUP5 ADD RETURNDATACOPY PUSH2 0x966 JUMP JUMPDEST PUSH1 0x60 SWAP2 POP JUMPDEST POP POP SWAP1 POP DUP1 PUSH2 0x9AA JUMPI PUSH1 0x40 MLOAD PUSH32 0x8C379A000000000000000000000000000000000000000000000000000000000 DUP2 MSTORE PUSH1 0x4 ADD PUSH2 0x9A1 SWAP1 PUSH2 0x22B1 JUMP JUMPDEST PUSH1 0x40 MLOAD DUP1 SWAP2 SUB SWAP1 REVERT JUMPDEST PUSH0 PUSH1 0x8 PUSH0 DUP5 DUP2 MSTORE PUSH1 0x20 ADD SWAP1 DUP2 MSTORE PUSH1 0x20 ADD PUSH0 KECCAK256 PUSH1 0x6 ADD PUSH0 PUSH2 0x100 EXP DUP2 SLOAD DUP2 PUSH1 0xFF MUL NOT AND SWAP1 DUP4 ISZERO ISZERO MUL OR SWAP1 SSTORE POP CALLER PUSH1 0x8 PUSH0 DUP5 DUP2 MSTORE PUSH1 0x20 ADD SWAP1 DUP2 MSTORE PUSH1 0x20 ADD PUSH0 KECCAK256 PUSH1 0x4 ADD PUSH0 PUSH2 0x100 EXP DUP2 SLOAD DUP2 PUSH20 0xFFFFFFFFFFFFFFFFFFFFFFFFFFFFFFFFFFFFFFFF MUL NOT AND SWAP1 DUP4 PUSH20 0xFFFFFFFFFFFFFFFFFFFFFFFFFFFFFFFFFFFFFFFF AND MUL OR SWAP1 SSTORE POP PUSH0 PUSH1 0xA PUSH0 PUSH2 0x100 EXP DUP2 SLOAD DUP2 PUSH1 0xFF MUL NOT AND SWAP1 DUP4 PUSH1 0xFF AND MUL OR SWAP1 SSTORE POP PUSH32 0x4938ABB0A1220E7B4A0DD8B149717ABA799CD3D2263DE30C997401ABFA845241 CALLER DUP4 PUSH0 TIMESTAMP PUSH1 0x40 MLOAD PUSH2 0xA76 SWAP5 SWAP4 SWAP3 SWAP2 SWAP1 PUSH2 0x2308 JUMP JUMPDEST PUSH1 0x40 MLOAD DUP1 SWAP2 SUB SWAP1 LOG1 POP PUSH2 0xC00 JUMP JUMPDEST PUSH0 PUSH1 0x2 PUSH0 SWAP1 SLOAD SWAP1 PUSH2 0x100 EXP SWAP1 DIV PUSH20 0xFFFFFFFFFFFFFFFFFFFFFFFFFFFFFFFFFFFFFFFF AND PUSH20 0xFFFFFFFFFFFFFFFFFFFFFFFFFFFFFFFFFFFFFFFF AND PUSH4 0x9B1C385E PUSH1 0x40 MLOAD DUP1 PUSH1 0xC0 ADD PUSH1 0x40 MSTORE DUP1 PUSH1 0x5 SLOAD DUP2 MSTORE PUSH1 0x20 ADD PUSH1 0x3 SLOAD DUP2 MSTORE PUSH1 0x20 ADD PUSH1 0x6 PUSH0 SWAP1 SLOAD SWAP1 PUSH2 0x100 EXP SWAP1 DIV PUSH2 0xFFFF AND PUSH2 0xFFFF AND DUP2 MSTORE PUSH1 0x20 ADD PUSH1 0x6 PUSH1 0x2 SWAP1 SLOAD SWAP1 PUSH2 0x100 EXP SWAP1 DIV PUSH4 0xFFFFFFFF AND PUSH4 0xFFFFFFFF AND DUP2 MSTORE PUSH1 0x20 ADD PUSH1 0x6 DUP1 SLOAD SWAP1 PUSH2 0x100 EXP SWAP1 DIV PUSH4 0xFFFFFFFF AND PUSH4 0xFFFFFFFF AND DUP2 MSTORE PUSH1 0x20 ADD PUSH2 0xB4A PUSH1 0x40 MLOAD DUP1 PUSH1 0x20 ADD PUSH1 0x40 MSTORE DUP1 PUSH1 0x1 ISZERO ISZERO DUP2 MSTORE POP PUSH2 0x198E JUMP JUMPDEST DUP2 MSTORE POP PUSH1 0x40 MLOAD DUP3 PUSH4 0xFFFFFFFF AND PUSH1 0xE0 SHL DUP2 MSTORE PUSH1 0x4 ADD PUSH2 0xB69 SWAP2 SWAP1 PUSH2 0x24A2 JUMP JUMPDEST PUSH1 0x20 PUSH1 0x40 MLOAD DUP1 DUP4 SUB DUP2 PUSH0 DUP8 GAS CALL ISZERO DUP1 ISZERO PUSH2 0xB85 JUMPI RETURNDATASIZE PUSH0 PUSH0 RETURNDATACOPY RETURNDATASIZE PUSH0 REVERT JUMPDEST POP POP POP POP PUSH1 0x40 MLOAD RETURNDATASIZE PUSH1 0x1F NOT PUSH1 0x1F DUP3 ADD AND DUP3 ADD DUP1 PUSH1 0x40 MSTORE POP DUP2 ADD SWAP1 PUSH2 0xBA9 SWAP2 SWAP1 PUSH2 0x24D6 JUMP JUMPDEST SWAP1 POP DUP2 PUSH1 0x9 PUSH0 DUP4 DUP2 MSTORE PUSH1 0x20 ADD SWAP1 DUP2 MSTORE PUSH1 0x20 ADD PUSH0 KECCAK256 DUP2 SWAP1 SSTORE POP PUSH32 0xA553713EFFCFD3F3DB01A02AF9AA2F33AFBC3F587A0594E927A1D58AC8A92B52 CALLER DUP4 DUP4 TIMESTAMP PUSH1 0x40 MLOAD PUSH2 0xBF6 SWAP5 SWAP4 SWAP3 SWAP2 SWAP1 PUSH2 0x2501 JUMP JUMPDEST PUSH1 0x40 MLOAD DUP1 SWAP2 SUB SWAP1 LOG1 POP JUMPDEST POP JUMP JUMPDEST PUSH1 0x9 PUSH1 0x20 MSTORE DUP1 PUSH0 MSTORE PUSH1 0x40 PUSH0 KECCAK256 PUSH0 SWAP2 POP SWAP1 POP SLOAD DUP2 JUMP JUMPDEST PUSH1 0x1 PUSH0 SWAP1 SLOAD SWAP1 PUSH2 0x100 EXP SWAP1 DIV PUSH20 0xFFFFFFFFFFFFFFFFFFFFFFFFFFFFFFFFFFFFFFFF AND PUSH20 0xFFFFFFFFFFFFFFFFFFFFFFFFFFFFFFFFFFFFFFFF AND CALLER PUSH20 0xFFFFFFFFFFFFFFFFFFFFFFFFFFFFFFFFFFFFFFFF AND EQ PUSH2 0xCA7 JUMPI PUSH1 0x40 MLOAD PUSH32 0x8C379A000000000000000000000000000000000000000000000000000000000 DUP2 MSTORE PUSH1 0x4 ADD PUSH2 0xC9E SWAP1 PUSH2 0x258E JUMP JUMPDEST PUSH1 0x40 MLOAD DUP1 SWAP2 SUB SWAP1 REVERT JUMPDEST PUSH0 PUSH0 PUSH0 SWAP1 SLOAD SWAP1 PUSH2 0x100 EXP SWAP1 DIV PUSH20 0xFFFFFFFFFFFFFFFFFFFFFFFFFFFFFFFFFFFFFFFF AND SWAP1 POP CALLER PUSH0 PUSH0 PUSH2 0x100 EXP DUP2 SLOAD DUP2 PUSH20 0xFFFFFFFFFFFFFFFFFFFFFFFFFFFFFFFFFFFFFFFF MUL NOT AND SWAP1 DUP4 PUSH20 0xFFFFFFFFFFFFFFFFFFFFFFFFFFFFFFFFFFFFFFFF AND MUL OR SWAP1 SSTORE POP PUSH0 PUSH1 0x1 PUSH0 PUSH2 0x100 EXP DUP2 SLOAD DUP2 PUSH20 0xFFFFFFFFFFFFFFFFFFFFFFFFFFFFFFFFFFFFFFFF MUL NOT AND SWAP1 DUP4 PUSH20 0xFFFFFFFFFFFFFFFFFFFFFFFFFFFFFFFFFFFFFFFF AND MUL OR SWAP1 SSTORE POP CALLER PUSH20 0xFFFFFFFFFFFFFFFFFFFFFFFFFFFFFFFFFFFFFFFF AND DUP2 PUSH20 0xFFFFFFFFFFFFFFFFFFFFFFFFFFFFFFFFFFFFFFFF AND PUSH32 0x8BE0079C531659141344CD1FD0A4F28419497F9722A3DAAFE3B4186F6B6457E0 PUSH1 0x40 MLOAD PUSH1 0x40 MLOAD DUP1 SWAP2 SUB SWAP1 LOG3 POP JUMP JUMPDEST PUSH0 PUSH1 0xC SLOAD SWAP1 POP SWAP1 JUMP JUMPDEST PUSH0 PUSH0 PUSH0 SWAP1 SLOAD SWAP1 PUSH2 0x100 EXP SWAP1 DIV PUSH20 0xFFFFFFFFFFFFFFFFFFFFFFFFFFFFFFFFFFFFFFFF AND SWAP1 POP SWAP1 JUMP JUMPDEST PUSH2 0xDDF PUSH2 0xDB0 JUMP JUMPDEST PUSH20 0xFFFFFFFFFFFFFFFFFFFFFFFFFFFFFFFFFFFFFFFF AND CALLER PUSH20 0xFFFFFFFFFFFFFFFFFFFFFFFFFFFFFFFFFFFFFFFF AND EQ ISZERO DUP1 ISZERO PUSH2 0xE67 JUMPI POP PUSH1 0x2 PUSH0 SWAP1 SLOAD SWAP1 PUSH2 0x100 EXP SWAP1 DIV PUSH20 0xFFFFFFFFFFFFFFFFFFFFFFFFFFFFFFFFFFFFFFFF AND PUSH20 0xFFFFFFFFFFFFFFFFFFFFFFFFFFFFFFFFFFFFFFFF AND CALLER PUSH20 0xFFFFFFFFFFFFFFFFFFFFFFFFFFFFFFFFFFFFFFFF AND EQ ISZERO JUMPDEST ISZERO PUSH2 0xED5 JUMPI CALLER PUSH2 0xE75 PUSH2 0xDB0 JUMP JUMPDEST PUSH1 0x2 PUSH0 SWAP1 SLOAD SWAP1 PUSH2 0x100 EXP SWAP1 DIV PUSH20 0xFFFFFFFFFFFFFFFFFFFFFFFFFFFFFFFFFFFFFFFF AND PUSH1 0x40 MLOAD PUSH32 0x61DB9C100000000000000000000000000000000000000000000000000000000 DUP2 MSTORE PUSH1 0x4 ADD PUSH2 0xECC SWAP4 SWAP3 SWAP2 SWAP1 PUSH2 0x25AC JUMP JUMPDEST PUSH1 0x40 MLOAD DUP1 SWAP2 SUB SWAP1 REVERT JUMPDEST PUSH0 PUSH20 0xFFFFFFFFFFFFFFFFFFFFFFFFFFFFFFFFFFFFFFFF AND DUP2 PUSH20 0xFFFFFFFFFFFFFFFFFFFFFFFFFFFFFFFFFFFFFFFF AND SUB PUSH2 0xF3A JUMPI PUSH1 0x40 MLOAD PUSH32 0xD92E233D00000000000000000000000000000000000000000000000000000000 DUP2 MSTORE PUSH1 0x4 ADD PUSH1 0x40 MLOAD DUP1 SWAP2 SUB SWAP1 REVERT JUMPDEST DUP1 PUSH1 0x2 PUSH0 PUSH2 0x100 EXP DUP2 SLOAD DUP2 PUSH20 0xFFFFFFFFFFFFFFFFFFFFFFFFFFFFFFFFFFFFFFFF MUL NOT AND SWAP1 DUP4 PUSH20 0xFFFFFFFFFFFFFFFFFFFFFFFFFFFFFFFFFFFFFFFF AND MUL OR SWAP1 SSTORE POP PUSH32 0xD1A6A14209A385A964D036E404CB5CFB71F4000CDB03C9366292430787261BE6 DUP2 PUSH1 0x40 MLOAD PUSH2 0xFA9 SWAP2 SWAP1 PUSH2 0x1D72 JUMP JUMPDEST PUSH1 0x40 MLOAD DUP1 SWAP2 SUB SWAP1 LOG1 POP JUMP JUMPDEST PUSH1 0x2 PUSH0 SWAP1 SLOAD SWAP1 PUSH2 0x100 EXP SWAP1 DIV PUSH20 0xFFFFFFFFFFFFFFFFFFFFFFFFFFFFFFFFFFFFFFFF AND DUP2 JUMP JUMPDEST PUSH0 PUSH20 0xFFFFFFFFFFFFFFFFFFFFFFFFFFFFFFFFFFFFFFFF AND CALLER PUSH20 0xFFFFFFFFFFFFFFFFFFFFFFFFFFFFFFFFFFFFFFFF AND SUB PUSH2 0x1047 JUMPI PUSH1 0x40 MLOAD PUSH32 0x8C379A000000000000000000000000000000000000000000000000000000000 DUP2 MSTORE PUSH1 0x4 ADD PUSH2 0x103E SWAP1 PUSH2 0x262B JUMP JUMPDEST PUSH1 0x40 MLOAD DUP1 SWAP2 SUB SWAP1 REVERT JUMPDEST PUSH0 PUSH1 0x8 PUSH0 DUP4 DUP2 MSTORE PUSH1 0x20 ADD SWAP1 DUP2 MSTORE PUSH1 0x20 ADD PUSH0 KECCAK256 SWAP1 POP TIMESTAMP DUP2 PUSH0 ADD SLOAD GT ISZERO DUP1 ISZERO PUSH2 0x1071 JUMPI POP TIMESTAMP DUP2 PUSH1 0x1 ADD SLOAD GT JUMPDEST PUSH2 0x10B0 JUMPI PUSH1 0x40 MLOAD PUSH32 0x8C379A000000000000000000000000000000000000000000000000000000000 DUP2 MSTORE PUSH1 0x4 ADD PUSH2 0x10A7 SWAP1 PUSH2 0x2693 JUMP JUMPDEST PUSH1 0x40 MLOAD DUP1 SWAP2 SUB SWAP1 REVERT JUMPDEST PUSH1 0x1 ISZERO ISZERO DUP2 PUSH1 0x6 ADD PUSH0 SWAP1 SLOAD SWAP1 PUSH2 0x100 EXP SWAP1 DIV PUSH1 0xFF AND ISZERO ISZERO EQ PUSH2 0x1107 JUMPI PUSH1 0x40 MLOAD PUSH32 0x8C379A000000000000000000000000000000000000000000000000000000000 DUP2 MSTORE PUSH1 0x4 ADD PUSH2 0x10FE SWAP1 PUSH2 0x2138 JUMP JUMPDEST PUSH1 0x40 MLOAD DUP1 SWAP2 SUB SWAP1 REVERT JUMPDEST DUP1 PUSH1 0x5 ADD SLOAD CALLVALUE LT ISZERO PUSH2 0x114E JUMPI PUSH1 0x40 MLOAD PUSH32 0x8C379A000000000000000000000000000000000000000000000000000000000 DUP2 MSTORE PUSH1 0x4 ADD PUSH2 0x1145 SWAP1 PUSH2 0x2721 JUMP JUMPDEST PUSH1 0x40 MLOAD DUP1 SWAP2 SUB SWAP1 REVERT JUMPDEST PUSH0 DUP2 PUSH1 0x7 ADD PUSH0 CALLER PUSH20 0xFFFFFFFFFFFFFFFFFFFFFFFFFFFFFFFFFFFFFFFF AND PUSH20 0xFFFFFFFFFFFFFFFFFFFFFFFFFFFFFFFFFFFFFFFF AND DUP2 MSTORE PUSH1 0x20 ADD SWAP1 DUP2 MSTORE PUSH1 0x20 ADD PUSH0 KECCAK256 SLOAD GT ISZERO PUSH2 0x11D0 JUMPI PUSH1 0x40 MLOAD PUSH32 0x8C379A000000000000000000000000000000000000000000000000000000000 DUP2 MSTORE PUSH1 0x4 ADD PUSH2 0x11C7 SWAP1 PUSH2 0x27AF JUMP JUMPDEST PUSH1 0x40 MLOAD DUP1 SWAP2 SUB SWAP1 REVERT JUMPDEST CALLVALUE DUP2 PUSH1 0x2 ADD PUSH0 DUP3 DUP3 SLOAD PUSH2 0x11E3 SWAP2 SWAP1 PUSH2 0x27FA JUMP JUMPDEST SWAP3 POP POP DUP2 SWAP1 SSTORE POP CALLVALUE DUP2 PUSH1 0x7 ADD PUSH0 CALLER PUSH20 0xFFFFFFFFFFFFFFFFFFFFFFFFFFFFFFFFFFFFFFFF AND PUSH20 0xFFFFFFFFFFFFFFFFFFFFFFFFFFFFFFFFFFFFFFFF AND DUP2 MSTORE PUSH1 0x20 ADD SWAP1 DUP2 MSTORE PUSH1 0x20 ADD PUSH0 KECCAK256 DUP2 SWAP1 SSTORE POP DUP1 PUSH1 0x8 ADD CALLER SWAP1 DUP1 PUSH1 0x1 DUP2 SLOAD ADD DUP1 DUP3 SSTORE DUP1 SWAP2 POP POP PUSH1 0x1 SWAP1 SUB SWAP1 PUSH0 MSTORE PUSH1 0x20 PUSH0 KECCAK256 ADD PUSH0 SWAP1 SWAP2 SWAP1 SWAP2 SWAP1 SWAP2 PUSH2 0x100 EXP DUP2 SLOAD DUP2 PUSH20 0xFFFFFFFFFFFFFFFFFFFFFFFFFFFFFFFFFFFFFFFF MUL NOT AND SWAP1 DUP4 PUSH20 0xFFFFFFFFFFFFFFFFFFFFFFFFFFFFFFFFFFFFFFFF AND MUL OR SWAP1 SSTORE POP PUSH32 0x2E86A4EA48E0BA7ADC0BA18A20C7FB7B8E65257BBAE7BC0816518C2E5E65CEC0 CALLER DUP4 CALLVALUE TIMESTAMP PUSH1 0x40 MLOAD PUSH2 0x12C5 SWAP5 SWAP4 SWAP3 SWAP2 SWAP1 PUSH2 0x2501 JUMP JUMPDEST PUSH1 0x40 MLOAD DUP1 SWAP2 SUB SWAP1 LOG1 POP POP JUMP JUMPDEST PUSH1 0x12 PUSH1 0xA PUSH2 0x12DF SWAP2 SWAP1 PUSH2 0x295C JUMP JUMPDEST DUP2 JUMP JUMPDEST PUSH1 0x7 SLOAD DUP2 JUMP JUMPDEST PUSH0 PUSH0 PUSH20 0xFFFFFFFFFFFFFFFFFFFFFFFFFFFFFFFFFFFFFFFF AND DUP3 PUSH20 0xFFFFFFFFFFFFFFFFFFFFFFFFFFFFFFFFFFFFFFFF AND SUB PUSH2 0x1320 JUMPI PUSH0 PUSH0 REVERT JUMPDEST PUSH0 PUSH1 0x8 PUSH0 DUP6 DUP2 MSTORE PUSH1 0x20 ADD SWAP1 DUP2 MSTORE PUSH1 0x20 ADD PUSH0 KECCAK256 SWAP1 POP DUP1 PUSH1 0x7 ADD PUSH0 DUP5 PUSH20 0xFFFFFFFFFFFFFFFFFFFFFFFFFFFFFFFFFFFFFFFF AND PUSH20 0xFFFFFFFFFFFFFFFFFFFFFFFFFFFFFFFFFFFFFFFF AND DUP2 MSTORE PUSH1 0x20 ADD SWAP1 DUP2 MSTORE PUSH1 0x20 ADD PUSH0 KECCAK256 SLOAD SWAP2 POP POP SWAP3 SWAP2 POP POP JUMP JUMPDEST PUSH2 0x1385 PUSH2 0x15B3 JUMP JUMPDEST PUSH2 0x138E DUP2 PUSH2 0x1A26 JUMP JUMPDEST POP JUMP JUMPDEST PUSH0 PUSH0 PUSH20 0xFFFFFFFFFFFFFFFFFFFFFFFFFFFFFFFFFFFFFFFF AND CALLER PUSH20 0xFFFFFFFFFFFFFFFFFFFFFFFFFFFFFFFFFFFFFFFF AND SUB PUSH2 0x1400 JUMPI PUSH1 0x40 MLOAD PUSH32 0x8C379A000000000000000000000000000000000000000000000000000000000 DUP2 MSTORE PUSH1 0x4 ADD PUSH2 0x13F7 SWAP1 PUSH2 0x29F0 JUMP JUMPDEST PUSH1 0x40 MLOAD DUP1 SWAP2 SUB SWAP1 REVERT JUMPDEST PUSH0 CALLVALUE GT DUP1 ISZERO PUSH2 0x1411 JUMPI POP PUSH1 0xB SLOAD CALLVALUE LT ISZERO JUMPDEST PUSH2 0x1450 JUMPI PUSH1 0x40 MLOAD PUSH32 0x8C379A000000000000000000000000000000000000000000000000000000000 DUP2 MSTORE PUSH1 0x4 ADD PUSH2 0x1447 SWAP1 PUSH2 0x2A7E JUMP JUMPDEST PUSH1 0x40 MLOAD DUP1 SWAP2 SUB SWAP1 REVERT JUMPDEST PUSH1 0x1 PUSH1 0x7 PUSH0 DUP3 DUP3 SLOAD PUSH2 0x1462 SWAP2 SWAP1 PUSH2 0x27FA JUMP JUMPDEST SWAP3 POP POP DUP2 SWAP1 SSTORE POP PUSH0 PUSH1 0x8 PUSH0 PUSH1 0x7 SLOAD DUP2 MSTORE PUSH1 0x20 ADD SWAP1 DUP2 MSTORE PUSH1 0x20 ADD PUSH0 KECCAK256 SWAP1 POP DUP5 DUP2 PUSH0 ADD DUP2 SWAP1 SSTORE POP DUP4 DUP2 PUSH1 0x1 ADD DUP2 SWAP1 SSTORE POP CALLVALUE DUP2 PUSH1 0x2 ADD DUP2 SWAP1 SSTORE POP CALLER DUP2 PUSH1 0x3 ADD PUSH0 PUSH2 0x100 EXP DUP2 SLOAD DUP2 PUSH20 0xFFFFFFFFFFFFFFFFFFFFFFFFFFFFFFFFFFFFFFFF MUL NOT AND SWAP1 DUP4 PUSH20 0xFFFFFFFFFFFFFFFFFFFFFFFFFFFFFFFFFFFFFFFF AND MUL OR SWAP1 SSTORE POP DUP3 DUP2 PUSH1 0x5 ADD DUP2 SWAP1 SSTORE POP PUSH1 0x1 DUP2 PUSH1 0x6 ADD PUSH0 PUSH2 0x100 EXP DUP2 SLOAD DUP2 PUSH1 0xFF MUL NOT AND SWAP1 DUP4 ISZERO ISZERO MUL OR SWAP1 SSTORE POP CALLVALUE DUP2 PUSH1 0x7 ADD PUSH0 CALLER PUSH20 0xFFFFFFFFFFFFFFFFFFFFFFFFFFFFFFFFFFFFFFFF AND PUSH20 0xFFFFFFFFFFFFFFFFFFFFFFFFFFFFFFFFFFFFFFFF AND DUP2 MSTORE PUSH1 0x20 ADD SWAP1 DUP2 MSTORE PUSH1 0x20 ADD PUSH0 KECCAK256 DUP2 SWAP1 SSTORE POP DUP1 PUSH1 0x8 ADD CALLER SWAP1 DUP1 PUSH1 0x1 DUP2 SLOAD ADD DUP1 DUP3 SSTORE DUP1 SWAP2 POP POP PUSH1 0x1 SWAP1 SUB SWAP1 PUSH0 MSTORE PUSH1 0x20 PUSH0 KECCAK256 ADD PUSH0 SWAP1 SWAP2 SWAP1 SWAP2 SWAP1 SWAP2 PUSH2 0x100 EXP DUP2 SLOAD DUP2 PUSH20 0xFFFFFFFFFFFFFFFFFFFFFFFFFFFFFFFFFFFFFFFF MUL NOT AND SWAP1 DUP4 PUSH20 0xFFFFFFFFFFFFFFFFFFFFFFFFFFFFFFFFFFFFFFFF AND MUL OR SWAP1 SSTORE POP PUSH1 0x7 SLOAD SWAP2 POP POP SWAP4 SWAP3 POP POP POP JUMP JUMPDEST PUSH0 PUSH0 SWAP1 SLOAD SWAP1 PUSH2 0x100 EXP SWAP1 DIV PUSH20 0xFFFFFFFFFFFFFFFFFFFFFFFFFFFFFFFFFFFFFFFF AND PUSH20 0xFFFFFFFFFFFFFFFFFFFFFFFFFFFFFFFFFFFFFFFF AND CALLER PUSH20 0xFFFFFFFFFFFFFFFFFFFFFFFFFFFFFFFFFFFFFFFF AND EQ PUSH2 0x1641 JUMPI PUSH1 0x40 MLOAD PUSH32 0x8C379A000000000000000000000000000000000000000000000000000000000 DUP2 MSTORE PUSH1 0x4 ADD PUSH2 0x1638 SWAP1 PUSH2 0x2AE6 JUMP JUMPDEST PUSH1 0x40 MLOAD DUP1 SWAP2 SUB SWAP1 REVERT JUMPDEST JUMP JUMPDEST PUSH0 PUSH1 0x9 PUSH0 DUP6 DUP2 MSTORE PUSH1 0x20 ADD SWAP1 DUP2 MSTORE PUSH1 0x20 ADD PUSH0 KECCAK256 SLOAD GT PUSH2 0x1696 JUMPI PUSH1 0x40 MLOAD PUSH32 0x8C379A000000000000000000000000000000000000000000000000000000000 DUP2 MSTORE PUSH1 0x4 ADD PUSH2 0x168D SWAP1 PUSH2 0x2B4E JUMP JUMPDEST PUSH1 0x40 MLOAD DUP1 SWAP2 SUB SWAP1 REVERT JUMPDEST PUSH0 PUSH1 0x9 PUSH0 DUP6 DUP2 MSTORE PUSH1 0x20 ADD SWAP1 DUP2 MSTORE PUSH1 0x20 ADD PUSH0 KECCAK256 SLOAD SWAP1 POP PUSH0 PUSH1 0x8 PUSH0 DUP4 DUP2 MSTORE PUSH1 0x20 ADD SWAP1 DUP2 MSTORE PUSH1 0x20 ADD PUSH0 KECCAK256 SWAP1 POP PUSH1 0x1 ISZERO ISZERO DUP2 PUSH1 0x6 ADD PUSH0 SWAP1 SLOAD SWAP1 PUSH2 0x100 EXP SWAP1 DIV PUSH1 0xFF AND ISZERO ISZERO EQ PUSH2 0x1716 JUMPI PUSH1 0x40 MLOAD PUSH32 0x8C379A000000000000000000000000000000000000000000000000000000000 DUP2 MSTORE PUSH1 0x4 ADD PUSH2 0x170D SWAP1 PUSH2 0x2138 JUMP JUMPDEST PUSH1 0x40 MLOAD DUP1 SWAP2 SUB SWAP1 REVERT JUMPDEST PUSH0 DUP2 PUSH1 0x8 ADD DUP1 SLOAD SWAP1 POP GT PUSH2 0x175F JUMPI PUSH1 0x40 MLOAD PUSH32 0x8C379A000000000000000000000000000000000000000000000000000000000 DUP2 MSTORE PUSH1 0x4 ADD PUSH2 0x1756 SWAP1 PUSH2 0x2BB6 JUMP JUMPDEST PUSH1 0x40 MLOAD DUP1 SWAP2 SUB SWAP1 REVERT JUMPDEST PUSH0 DUP5 DUP5 PUSH0 DUP2 DUP2 LT PUSH2 0x1773 JUMPI PUSH2 0x1772 PUSH2 0x2BD4 JUMP JUMPDEST JUMPDEST SWAP1 POP PUSH1 0x20 MUL ADD CALLDATALOAD SWAP1 POP PUSH0 DUP3 PUSH1 0x8 ADD DUP1 SLOAD SWAP1 POP DUP3 PUSH2 0x1790 SWAP2 SWAP1 PUSH2 0x2C2E JUMP JUMPDEST SWAP1 POP PUSH0 DUP4 PUSH1 0x8 ADD DUP3 DUP2 SLOAD DUP2 LT PUSH2 0x17A9 JUMPI PUSH2 0x17A8 PUSH2 0x2BD4 JUMP JUMPDEST JUMPDEST SWAP1 PUSH0 MSTORE PUSH1 0x20 PUSH0 KECCAK256 ADD PUSH0 SWAP1 SLOAD SWAP1 PUSH2 0x100 EXP SWAP1 DIV PUSH20 0xFFFFFFFFFFFFFFFFFFFFFFFFFFFFFFFFFFFFFFFF AND SWAP1 POP PUSH0 PUSH1 0x64 PUSH1 0x12 PUSH1 0xA PUSH2 0x17E4 SWAP2 SWAP1 PUSH2 0x295C JUMP JUMPDEST PUSH2 0x17EE SWAP2 SWAP1 PUSH2 0x2C5E JUMP JUMPDEST DUP6 PUSH1 0x2 ADD SLOAD PUSH2 0x17FD SWAP2 SWAP1 PUSH2 0x2C8E JUMP JUMPDEST SWAP1 POP DUP1 PUSH1 0xC PUSH0 DUP3 DUP3 SLOAD PUSH2 0x1810 SWAP2 SWAP1 PUSH2 0x27FA JUMP JUMPDEST SWAP3 POP POP DUP2 SWAP1 SSTORE POP PUSH0 DUP3 PUSH20 0xFFFFFFFFFFFFFFFFFFFFFFFFFFFFFFFFFFFFFFFF AND DUP3 DUP8 PUSH1 0x2 ADD SLOAD PUSH2 0x183F SWAP2 SWAP1 PUSH2 0x2CCF JUMP JUMPDEST PUSH1 0x40 MLOAD PUSH2 0x184B SWAP1 PUSH2 0x2253 JUMP JUMPDEST PUSH0 PUSH1 0x40 MLOAD DUP1 DUP4 SUB DUP2 DUP6 DUP8 GAS CALL SWAP3 POP POP POP RETURNDATASIZE DUP1 PUSH0 DUP2 EQ PUSH2 0x1885 JUMPI PUSH1 0x40 MLOAD SWAP2 POP PUSH1 0x1F NOT PUSH1 0x3F RETURNDATASIZE ADD AND DUP3 ADD PUSH1 0x40 MSTORE RETURNDATASIZE DUP3 MSTORE RETURNDATASIZE PUSH0 PUSH1 0x20 DUP5 ADD RETURNDATACOPY PUSH2 0x188A JUMP JUMPDEST PUSH1 0x60 SWAP2 POP JUMPDEST POP POP SWAP1 POP DUP1 PUSH2 0x18CE JUMPI PUSH1 0x40 MLOAD PUSH32 0x8C379A000000000000000000000000000000000000000000000000000000000 DUP2 MSTORE PUSH1 0x4 ADD PUSH2 0x18C5 SWAP1 PUSH2 0x2D4C JUMP JUMPDEST PUSH1 0x40 MLOAD DUP1 SWAP2 SUB SWAP1 REVERT JUMPDEST DUP3 DUP7 PUSH1 0x4 ADD PUSH0 PUSH2 0x100 EXP DUP2 SLOAD DUP2 PUSH20 0xFFFFFFFFFFFFFFFFFFFFFFFFFFFFFFFFFFFFFFFF MUL NOT AND SWAP1 DUP4 PUSH20 0xFFFFFFFFFFFFFFFFFFFFFFFFFFFFFFFFFFFFFFFF AND MUL OR SWAP1 SSTORE POP PUSH0 DUP7 PUSH1 0x6 ADD PUSH0 PUSH2 0x100 EXP DUP2 SLOAD DUP2 PUSH1 0xFF MUL NOT AND SWAP1 DUP4 ISZERO ISZERO MUL OR SWAP1 SSTORE POP PUSH0 PUSH1 0xA PUSH0 PUSH2 0x100 EXP DUP2 SLOAD DUP2 PUSH1 0xFF MUL NOT AND SWAP1 DUP4 PUSH1 0xFF AND MUL OR SWAP1 SSTORE POP PUSH32 0x4938ABB0A1220E7B4A0DD8B149717ABA799CD3D2263DE30C997401ABFA845241 DUP4 DUP9 DUP13 TIMESTAMP PUSH1 0x40 MLOAD PUSH2 0x197A SWAP5 SWAP4 SWAP3 SWAP2 SWAP1 PUSH2 0x2501 JUMP JUMPDEST PUSH1 0x40 MLOAD DUP1 SWAP2 SUB SWAP1 LOG1 POP POP POP POP POP POP POP POP POP POP JUMP JUMPDEST PUSH1 0x60 PUSH32 0x92FD13387C7FE7BEFBC38D303D6468778FB9731BC4583F17D92989C6FCFDEAAA DUP3 PUSH1 0x40 MLOAD PUSH1 0x24 ADD PUSH2 0x19C2 SWAP2 SWAP1 PUSH2 0x2D93 JUMP JUMPDEST PUSH1 0x40 MLOAD PUSH1 0x20 DUP2 DUP4 SUB SUB DUP2 MSTORE SWAP1 PUSH1 0x40 MSTORE SWAP1 PUSH28 0xFFFFFFFFFFFFFFFFFFFFFFFFFFFFFFFFFFFFFFFFFFFFFFFFFFFFFFFF NOT AND PUSH1 0x20 DUP3 ADD DUP1 MLOAD PUSH28 0xFFFFFFFFFFFFFFFFFFFFFFFFFFFFFFFFFFFFFFFFFFFFFFFFFFFFFFFF DUP4 DUP2 DUP4 AND OR DUP4 MSTORE POP POP POP POP SWAP1 POP SWAP2 SWAP1 POP JUMP JUMPDEST CALLER PUSH20 0xFFFFFFFFFFFFFFFFFFFFFFFFFFFFFFFFFFFFFFFF AND DUP2 PUSH20 0xFFFFFFFFFFFFFFFFFFFFFFFFFFFFFFFFFFFFFFFF AND SUB PUSH2 0x1A94 JUMPI PUSH1 0x40 MLOAD PUSH32 0x8C379A000000000000000000000000000000000000000000000000000000000 DUP2 MSTORE PUSH1 0x4 ADD PUSH2 0x1A8B SWAP1 PUSH2 0x2DF6 JUMP JUMPDEST PUSH1 0x40 MLOAD DUP1 SWAP2 SUB SWAP1 REVERT JUMPDEST DUP1 PUSH1 0x1 PUSH0 PUSH2 0x100 EXP DUP2 SLOAD DUP2 PUSH20 0xFFFFFFFFFFFFFFFFFFFFFFFFFFFFFFFFFFFFFFFF MUL NOT AND SWAP1 DUP4 PUSH20 0xFFFFFFFFFFFFFFFFFFFFFFFFFFFFFFFFFFFFFFFF AND MUL OR SWAP1 SSTORE POP DUP1 PUSH20 0xFFFFFFFFFFFFFFFFFFFFFFFFFFFFFFFFFFFFFFFF AND PUSH0 PUSH0 SWAP1 SLOAD SWAP1 PUSH2 0x100 EXP SWAP1 DIV PUSH20 0xFFFFFFFFFFFFFFFFFFFFFFFFFFFFFFFFFFFFFFFF AND PUSH20 0xFFFFFFFFFFFFFFFFFFFFFFFFFFFFFFFFFFFFFFFF AND PUSH32 0xED8889F560326EB138920D842192F0EB3DD22B4F139C87A2C57538E05BAE1278 PUSH1 0x40 MLOAD PUSH1 0x40 MLOAD DUP1 SWAP2 SUB SWAP1 LOG3 POP JUMP JUMPDEST PUSH0 PUSH0 REVERT JUMPDEST PUSH0 PUSH0 REVERT JUMPDEST PUSH0 DUP2 SWAP1 POP SWAP2 SWAP1 POP JUMP JUMPDEST PUSH2 0x1B6B DUP2 PUSH2 0x1B59 JUMP JUMPDEST DUP2 EQ PUSH2 0x1B75 JUMPI PUSH0 PUSH0 REVERT JUMPDEST POP JUMP JUMPDEST PUSH0 DUP2 CALLDATALOAD SWAP1 POP PUSH2 0x1B86 DUP2 PUSH2 0x1B62 JUMP JUMPDEST SWAP3 SWAP2 POP POP JUMP JUMPDEST PUSH0 PUSH0 REVERT JUMPDEST PUSH0 PUSH0 REVERT JUMPDEST PUSH0 PUSH0 REVERT JUMPDEST PUSH0 PUSH0 DUP4 PUSH1 0x1F DUP5 ADD SLT PUSH2 0x1BAD JUMPI PUSH2 0x1BAC PUSH2 0x1B8C JUMP JUMPDEST JUMPDEST DUP3 CALLDATALOAD SWAP1 POP PUSH8 0xFFFFFFFFFFFFFFFF DUP2 GT ISZERO PUSH2 0x1BCA JUMPI PUSH2 0x1BC9 PUSH2 0x1B90 JUMP JUMPDEST JUMPDEST PUSH1 0x20 DUP4 ADD SWAP2 POP DUP4 PUSH1 0x20 DUP3 MUL DUP4 ADD GT ISZERO PUSH2 0x1BE6 JUMPI PUSH2 0x1BE5 PUSH2 0x1B94 JUMP JUMPDEST JUMPDEST SWAP3 POP SWAP3 SWAP1 POP JUMP JUMPDEST PUSH0 PUSH0 PUSH0 PUSH1 0x40 DUP5 DUP7 SUB SLT ISZERO PUSH2 0x1C04 JUMPI PUSH2 0x1C03 PUSH2 0x1B51 JUMP JUMPDEST JUMPDEST PUSH0 PUSH2 0x1C11 DUP7 DUP3 DUP8 ADD PUSH2 0x1B78 JUMP JUMPDEST SWAP4 POP POP PUSH1 0x20 DUP5 ADD CALLDATALOAD PUSH8 0xFFFFFFFFFFFFFFFF DUP2 GT ISZERO PUSH2 0x1C32 JUMPI PUSH2 0x1C31 PUSH2 0x1B55 JUMP JUMPDEST JUMPDEST PUSH2 0x1C3E DUP7 DUP3 DUP8 ADD PUSH2 0x1B98 JUMP JUMPDEST SWAP3 POP SWAP3 POP POP SWAP3 POP SWAP3 POP SWAP3 JUMP JUMPDEST PUSH2 0x1C53 DUP2 PUSH2 0x1B59 JUMP JUMPDEST DUP3 MSTORE POP POP JUMP JUMPDEST PUSH0 PUSH1 0x20 DUP3 ADD SWAP1 POP PUSH2 0x1C6C PUSH0 DUP4 ADD DUP5 PUSH2 0x1C4A JUMP JUMPDEST SWAP3 SWAP2 POP POP JUMP JUMPDEST PUSH0 PUSH1 0x20 DUP3 DUP5 SUB SLT ISZERO PUSH2 0x1C87 JUMPI PUSH2 0x1C86 PUSH2 0x1B51 JUMP JUMPDEST JUMPDEST PUSH0 PUSH2 0x1C94 DUP5 DUP3 DUP6 ADD PUSH2 0x1B78 JUMP JUMPDEST SWAP2 POP POP SWAP3 SWAP2 POP POP JUMP JUMPDEST PUSH0 PUSH20 0xFFFFFFFFFFFFFFFFFFFFFFFFFFFFFFFFFFFFFFFF DUP3 AND SWAP1 POP SWAP2 SWAP1 POP JUMP JUMPDEST PUSH0 PUSH2 0x1CC6 DUP3 PUSH2 0x1C9D JUMP JUMPDEST SWAP1 POP SWAP2 SWAP1 POP JUMP JUMPDEST PUSH2 0x1CD6 DUP2 PUSH2 0x1CBC JUMP JUMPDEST DUP3 MSTORE POP POP JUMP JUMPDEST PUSH0 DUP2 ISZERO ISZERO SWAP1 POP SWAP2 SWAP1 POP JUMP JUMPDEST PUSH2 0x1CF0 DUP2 PUSH2 0x1CDC JUMP JUMPDEST DUP3 MSTORE POP POP JUMP JUMPDEST PUSH0 PUSH2 0x100 DUP3 ADD SWAP1 POP PUSH2 0x1D0A PUSH0 DUP4 ADD DUP12 PUSH2 0x1C4A JUMP JUMPDEST PUSH2 0x1D17 PUSH1 0x20 DUP4 ADD DUP11 PUSH2 0x1C4A JUMP JUMPDEST PUSH2 0x1D24 PUSH1 0x40 DUP4 ADD DUP10 PUSH2 0x1C4A JUMP JUMPDEST PUSH2 0x1D31 PUSH1 0x60 DUP4 ADD DUP9 PUSH2 0x1CCD JUMP JUMPDEST PUSH2 0x1D3E PUSH1 0x80 DUP4 ADD DUP8 PUSH2 0x1CCD JUMP JUMPDEST PUSH2 0x1D4B PUSH1 0xA0 DUP4 ADD DUP7 PUSH2 0x1C4A JUMP JUMPDEST PUSH2 0x1D58 PUSH1 0xC0 DUP4 ADD DUP6 PUSH2 0x1CE7 JUMP JUMPDEST PUSH2 0x1D65 PUSH1 0xE0 DUP4 ADD DUP5 PUSH2 0x1C4A JUMP JUMPDEST SWAP10 SWAP9 POP POP POP POP POP POP POP POP POP JUMP JUMPDEST PUSH0 PUSH1 0x20 DUP3 ADD SWAP1 POP PUSH2 0x1D85 PUSH0 DUP4 ADD DUP5 PUSH2 0x1CCD JUMP JUMPDEST SWAP3 SWAP2 POP POP JUMP JUMPDEST PUSH2 0x1D94 DUP2 PUSH2 0x1CBC JUMP JUMPDEST DUP2 EQ PUSH2 0x1D9E JUMPI PUSH0 PUSH0 REVERT JUMPDEST POP JUMP JUMPDEST PUSH0 DUP2 CALLDATALOAD SWAP1 POP PUSH2 0x1DAF DUP2 PUSH2 0x1D8B JUMP JUMPDEST SWAP3 SWAP2 POP POP JUMP JUMPDEST PUSH0 PUSH1 0x20 DUP3 DUP5 SUB SLT ISZERO PUSH2 0x1DCA JUMPI PUSH2 0x1DC9 PUSH2 0x1B51 JUMP JUMPDEST JUMPDEST PUSH0 PUSH2 0x1DD7 DUP5 DUP3 DUP6 ADD PUSH2 0x1DA1 JUMP JUMPDEST SWAP2 POP POP SWAP3 SWAP2 POP POP JUMP JUMPDEST PUSH0 DUP2 SWAP1 POP SWAP2 SWAP1 POP JUMP JUMPDEST PUSH0 PUSH2 0x1E03 PUSH2 0x1DFE PUSH2 0x1DF9 DUP5 PUSH2 0x1C9D JUMP JUMPDEST PUSH2 0x1DE0 JUMP JUMPDEST PUSH2 0x1C9D JUMP JUMPDEST SWAP1 POP SWAP2 SWAP1 POP JUMP JUMPDEST PUSH0 PUSH2 0x1E14 DUP3 PUSH2 0x1DE9 JUMP JUMPDEST SWAP1 POP SWAP2 SWAP1 POP JUMP JUMPDEST PUSH0 PUSH2 0x1E25 DUP3 PUSH2 0x1E0A JUMP JUMPDEST SWAP1 POP SWAP2 SWAP1 POP JUMP JUMPDEST PUSH2 0x1E35 DUP2 PUSH2 0x1E1B JUMP JUMPDEST DUP3 MSTORE POP POP JUMP JUMPDEST PUSH0 PUSH1 0x20 DUP3 ADD SWAP1 POP PUSH2 0x1E4E PUSH0 DUP4 ADD DUP5 PUSH2 0x1E2C JUMP JUMPDEST SWAP3 SWAP2 POP POP JUMP JUMPDEST PUSH0 PUSH0 PUSH1 0x40 DUP4 DUP6 SUB SLT ISZERO PUSH2 0x1E6A JUMPI PUSH2 0x1E69 PUSH2 0x1B51 JUMP JUMPDEST JUMPDEST PUSH0 PUSH2 0x1E77 DUP6 DUP3 DUP7 ADD PUSH2 0x1B78 JUMP JUMPDEST SWAP3 POP POP PUSH1 0x20 PUSH2 0x1E88 DUP6 DUP3 DUP7 ADD PUSH2 0x1DA1 JUMP JUMPDEST SWAP2 POP POP SWAP3 POP SWAP3 SWAP1 POP JUMP JUMPDEST PUSH0 PUSH0 PUSH0 PUSH1 0x60 DUP5 DUP7 SUB SLT ISZERO PUSH2 0x1EA9 JUMPI PUSH2 0x1EA8 PUSH2 0x1B51 JUMP JUMPDEST JUMPDEST PUSH0 PUSH2 0x1EB6 DUP7 DUP3 DUP8 ADD PUSH2 0x1B78 JUMP JUMPDEST SWAP4 POP POP PUSH1 0x20 PUSH2 0x1EC7 DUP7 DUP3 DUP8 ADD PUSH2 0x1B78 JUMP JUMPDEST SWAP3 POP POP PUSH1 0x40 PUSH2 0x1ED8 DUP7 DUP3 DUP8 ADD PUSH2 0x1B78 JUMP JUMPDEST SWAP2 POP POP SWAP3 POP SWAP3 POP SWAP3 JUMP JUMPDEST PUSH0 DUP3 DUP3 MSTORE PUSH1 0x20 DUP3 ADD SWAP1 POP SWAP3 SWAP2 POP POP JUMP JUMPDEST PUSH32 0x6E6F2066756C6C20666565000000000000000000000000000000000000000000 PUSH0 DUP3 ADD MSTORE POP JUMP JUMPDEST PUSH0 PUSH2 0x1F26 PUSH1 0xB DUP4 PUSH2 0x1EE2 JUMP JUMPDEST SWAP2 POP PUSH2 0x1F31 DUP3 PUSH2 0x1EF2 JUMP JUMPDEST PUSH1 0x20 DUP3 ADD SWAP1 POP SWAP2 SWAP1 POP JUMP JUMPDEST PUSH0 PUSH1 0x20 DUP3 ADD SWAP1 POP DUP2 DUP2 SUB PUSH0 DUP4 ADD MSTORE PUSH2 0x1F53 DUP2 PUSH2 0x1F1A JUMP JUMPDEST SWAP1 POP SWAP2 SWAP1 POP JUMP JUMPDEST PUSH0 PUSH1 0x60 DUP3 ADD SWAP1 POP PUSH2 0x1F6D PUSH0 DUP4 ADD DUP7 PUSH2 0x1CCD JUMP JUMPDEST PUSH2 0x1F7A PUSH1 0x20 DUP4 ADD DUP6 PUSH2 0x1C4A JUMP JUMPDEST PUSH2 0x1F87 PUSH1 0x40 DUP4 ADD DUP5 PUSH2 0x1C4A JUMP JUMPDEST SWAP5 SWAP4 POP POP POP POP JUMP JUMPDEST PUSH0 PUSH1 0x40 DUP3 ADD SWAP1 POP PUSH2 0x1FA2 PUSH0 DUP4 ADD DUP6 PUSH2 0x1CCD JUMP JUMPDEST PUSH2 0x1FAF PUSH1 0x20 DUP4 ADD DUP5 PUSH2 0x1CCD JUMP JUMPDEST SWAP4 SWAP3 POP POP POP JUMP JUMPDEST PUSH32 0x706C6561736520696E7075742064726177496400000000000000000000000000 PUSH0 DUP3 ADD MSTORE POP JUMP JUMPDEST PUSH0 PUSH2 0x1FEA PUSH1 0x13 DUP4 PUSH2 0x1EE2 JUMP JUMPDEST SWAP2 POP PUSH2 0x1FF5 DUP3 PUSH2 0x1FB6 JUMP JUMPDEST PUSH1 0x20 DUP3 ADD SWAP1 POP SWAP2 SWAP1 POP JUMP JUMPDEST PUSH0 PUSH1 0x20 DUP3 ADD SWAP1 POP DUP2 DUP2 SUB PUSH0 DUP4 ADD MSTORE PUSH2 0x2017 DUP2 PUSH2 0x1FDE JUMP JUMPDEST SWAP1 POP SWAP2 SWAP1 POP JUMP JUMPDEST PUSH32 0x63757272656E74206861732070726F63657373696E6767206472617700000000 PUSH0 DUP3 ADD MSTORE POP JUMP JUMPDEST PUSH0 PUSH2 0x2052 PUSH1 0x1C DUP4 PUSH2 0x1EE2 JUMP JUMPDEST SWAP2 POP PUSH2 0x205D DUP3 PUSH2 0x201E JUMP JUMPDEST PUSH1 0x20 DUP3 ADD SWAP1 POP SWAP2 SWAP1 POP JUMP JUMPDEST PUSH0 PUSH1 0x20 DUP3 ADD SWAP1 POP DUP2 DUP2 SUB PUSH0 DUP4 ADD MSTORE PUSH2 0x207F DUP2 PUSH2 0x2046 JUMP JUMPDEST SWAP1 POP SWAP2 SWAP1 POP JUMP JUMPDEST PUSH32 0x63757272656E74207461736B206861736E742073746172740000000000000000 PUSH0 DUP3 ADD MSTORE POP JUMP JUMPDEST PUSH0 PUSH2 0x20BA PUSH1 0x18 DUP4 PUSH2 0x1EE2 JUMP JUMPDEST SWAP2 POP PUSH2 0x20C5 DUP3 PUSH2 0x2086 JUMP JUMPDEST PUSH1 0x20 DUP3 ADD SWAP1 POP SWAP2 SWAP1 POP JUMP JUMPDEST PUSH0 PUSH1 0x20 DUP3 ADD SWAP1 POP DUP2 DUP2 SUB PUSH0 DUP4 ADD MSTORE PUSH2 0x20E7 DUP2 PUSH2 0x20AE JUMP JUMPDEST SWAP1 POP SWAP2 SWAP1 POP JUMP JUMPDEST PUSH32 0x63757272656E74207461736B2068617320646F6E650000000000000000000000 PUSH0 DUP3 ADD MSTORE POP JUMP JUMPDEST PUSH0 PUSH2 0x2122 PUSH1 0x15 DUP4 PUSH2 0x1EE2 JUMP JUMPDEST SWAP2 POP PUSH2 0x212D DUP3 PUSH2 0x20EE JUMP JUMPDEST PUSH1 0x20 DUP3 ADD SWAP1 POP SWAP2 SWAP1 POP JUMP JUMPDEST PUSH0 PUSH1 0x20 DUP3 ADD SWAP1 POP DUP2 DUP2 SUB PUSH0 DUP4 ADD MSTORE PUSH2 0x214F DUP2 PUSH2 0x2116 JUMP JUMPDEST SWAP1 POP SWAP2 SWAP1 POP JUMP JUMPDEST PUSH32 0x796F7520617265206E6F207065726D697373696F6E0000000000000000000000 PUSH0 DUP3 ADD MSTORE POP JUMP JUMPDEST PUSH0 PUSH2 0x218A PUSH1 0x15 DUP4 PUSH2 0x1EE2 JUMP JUMPDEST SWAP2 POP PUSH2 0x2195 DUP3 PUSH2 0x2156 JUMP JUMPDEST PUSH1 0x20 DUP3 ADD SWAP1 POP SWAP2 SWAP1 POP JUMP JUMPDEST PUSH0 PUSH1 0x20 DUP3 ADD SWAP1 POP DUP2 DUP2 SUB PUSH0 DUP4 ADD MSTORE PUSH2 0x21B7 DUP2 PUSH2 0x217E JUMP JUMPDEST SWAP1 POP SWAP2 SWAP1 POP JUMP JUMPDEST PUSH32 0x6E6F206A6F696E207468652070657273696F6E00000000000000000000000000 PUSH0 DUP3 ADD MSTORE POP JUMP JUMPDEST PUSH0 PUSH2 0x21F2 PUSH1 0x13 DUP4 PUSH2 0x1EE2 JUMP JUMPDEST SWAP2 POP PUSH2 0x21FD DUP3 PUSH2 0x21BE JUMP JUMPDEST PUSH1 0x20 DUP3 ADD SWAP1 POP SWAP2 SWAP1 POP JUMP JUMPDEST PUSH0 PUSH1 0x20 DUP3 ADD SWAP1 POP DUP2 DUP2 SUB PUSH0 DUP4 ADD MSTORE PUSH2 0x221F DUP2 PUSH2 0x21E6 JUMP JUMPDEST SWAP1 POP SWAP2 SWAP1 POP JUMP JUMPDEST PUSH0 DUP2 SWAP1 POP SWAP3 SWAP2 POP POP JUMP JUMPDEST POP JUMP JUMPDEST PUSH0 PUSH2 0x223E PUSH0 DUP4 PUSH2 0x2226 JUMP JUMPDEST SWAP2 POP PUSH2 0x2249 DUP3 PUSH2 0x2230 JUMP JUMPDEST PUSH0 DUP3 ADD SWAP1 POP SWAP2 SWAP1 POP JUMP JUMPDEST PUSH0 PUSH2 0x225D DUP3 PUSH2 0x2233 JUMP JUMPDEST SWAP2 POP DUP2 SWAP1 POP SWAP2 SWAP1 POP JUMP JUMPDEST PUSH32 0x5472616E73666572206661696C65640000000000000000000000000000000000 PUSH0 DUP3 ADD MSTORE POP JUMP JUMPDEST PUSH0 PUSH2 0x229B PUSH1 0xF DUP4 PUSH2 0x1EE2 JUMP JUMPDEST SWAP2 POP PUSH2 0x22A6 DUP3 PUSH2 0x2267 JUMP JUMPDEST PUSH1 0x20 DUP3 ADD SWAP1 POP SWAP2 SWAP1 POP JUMP JUMPDEST PUSH0 PUSH1 0x20 DUP3 ADD SWAP1 POP DUP2 DUP2 SUB PUSH0 DUP4 ADD MSTORE PUSH2 0x22C8 DUP2 PUSH2 0x228F JUMP JUMPDEST SWAP1 POP SWAP2 SWAP1 POP JUMP JUMPDEST PUSH0 DUP2 SWAP1 POP SWAP2 SWAP1 POP JUMP JUMPDEST PUSH0 PUSH2 0x22F2 PUSH2 0x22ED PUSH2 0x22E8 DUP5 PUSH2 0x22CF JUMP JUMPDEST PUSH2 0x1DE0 JUMP JUMPDEST PUSH2 0x1B59 JUMP JUMPDEST SWAP1 POP SWAP2 SWAP1 POP JUMP JUMPDEST PUSH2 0x2302 DUP2 PUSH2 0x22D8 JUMP JUMPDEST DUP3 MSTORE POP POP JUMP JUMPDEST PUSH0 PUSH1 0x80 DUP3 ADD SWAP1 POP PUSH2 0x231B PUSH0 DUP4 ADD DUP8 PUSH2 0x1CCD JUMP JUMPDEST PUSH2 0x2328 PUSH1 0x20 DUP4 ADD DUP7 PUSH2 0x1C4A JUMP JUMPDEST PUSH2 0x2335 PUSH1 0x40 DUP4 ADD DUP6 PUSH2 0x22F9 JUMP JUMPDEST PUSH2 0x2342 PUSH1 0x60 DUP4 ADD DUP5 PUSH2 0x1C4A JUMP JUMPDEST SWAP6 SWAP5 POP POP POP POP POP JUMP JUMPDEST PUSH0 DUP2 SWAP1 POP SWAP2 SWAP1 POP JUMP JUMPDEST PUSH2 0x235D DUP2 PUSH2 0x234B JUMP JUMPDEST DUP3 MSTORE POP POP JUMP JUMPDEST PUSH2 0x236C DUP2 PUSH2 0x1B59 JUMP JUMPDEST DUP3 MSTORE POP POP JUMP JUMPDEST PUSH0 PUSH2 0xFFFF DUP3 AND SWAP1 POP SWAP2 SWAP1 POP JUMP JUMPDEST PUSH2 0x2388 DUP2 PUSH2 0x2372 JUMP JUMPDEST DUP3 MSTORE POP POP JUMP JUMPDEST PUSH0 PUSH4 0xFFFFFFFF DUP3 AND SWAP1 POP SWAP2 SWAP1 POP JUMP JUMPDEST PUSH2 0x23A6 DUP2 PUSH2 0x238E JUMP JUMPDEST DUP3 MSTORE POP POP JUMP JUMPDEST PUSH0 DUP2 MLOAD SWAP1 POP SWAP2 SWAP1 POP JUMP JUMPDEST PUSH0 DUP3 DUP3 MSTORE PUSH1 0x20 DUP3 ADD SWAP1 POP SWAP3 SWAP2 POP POP JUMP JUMPDEST DUP3 DUP2 DUP4 MCOPY PUSH0 DUP4 DUP4 ADD MSTORE POP POP POP JUMP JUMPDEST PUSH0 PUSH1 0x1F NOT PUSH1 0x1F DUP4 ADD AND SWAP1 POP SWAP2 SWAP1 POP JUMP JUMPDEST PUSH0 PUSH2 0x23EE DUP3 PUSH2 0x23AC JUMP JUMPDEST PUSH2 0x23F8 DUP2 DUP6 PUSH2 0x23B6 JUMP JUMPDEST SWAP4 POP PUSH2 0x2408 DUP2 DUP6 PUSH1 0x20 DUP7 ADD PUSH2 0x23C6 JUMP JUMPDEST PUSH2 0x2411 DUP2 PUSH2 0x23D4 JUMP JUMPDEST DUP5 ADD SWAP2 POP POP SWAP3 SWAP2 POP POP JUMP JUMPDEST PUSH0 PUSH1 0xC0 DUP4 ADD PUSH0 DUP4 ADD MLOAD PUSH2 0x2431 PUSH0 DUP7 ADD DUP3 PUSH2 0x2354 JUMP JUMPDEST POP PUSH1 0x20 DUP4 ADD MLOAD PUSH2 0x2444 PUSH1 0x20 DUP7 ADD DUP3 PUSH2 0x2363 JUMP JUMPDEST POP PUSH1 0x40 DUP4 ADD MLOAD PUSH2 0x2457 PUSH1 0x40 DUP7 ADD DUP3 PUSH2 0x237F JUMP JUMPDEST POP PUSH1 0x60 DUP4 ADD MLOAD PUSH2 0x246A PUSH1 0x60 DUP7 ADD DUP3 PUSH2 0x239D JUMP JUMPDEST POP PUSH1 0x80 DUP4 ADD MLOAD PUSH2 0x247D PUSH1 0x80 DUP7 ADD DUP3 PUSH2 0x239D JUMP JUMPDEST POP PUSH1 0xA0 DUP4 ADD MLOAD DUP5 DUP3 SUB PUSH1 0xA0 DUP7 ADD MSTORE PUSH2 0x2495 DUP3 DUP3 PUSH2 0x23E4 JUMP JUMPDEST SWAP2 POP POP DUP1 SWAP2 POP POP SWAP3 SWAP2 POP POP JUMP JUMPDEST PUSH0 PUSH1 0x20 DUP3 ADD SWAP1 POP DUP2 DUP2 SUB PUSH0 DUP4 ADD MSTORE PUSH2 0x24BA DUP2 DUP5 PUSH2 0x241C JUMP JUMPDEST SWAP1 POP SWAP3 SWAP2 POP POP JUMP JUMPDEST PUSH0 DUP2 MLOAD SWAP1 POP PUSH2 0x24D0 DUP2 PUSH2 0x1B62 JUMP JUMPDEST SWAP3 SWAP2 POP POP JUMP JUMPDEST PUSH0 PUSH1 0x20 DUP3 DUP5 SUB SLT ISZERO PUSH2 0x24EB JUMPI PUSH2 0x24EA PUSH2 0x1B51 JUMP JUMPDEST JUMPDEST PUSH0 PUSH2 0x24F8 DUP5 DUP3 DUP6 ADD PUSH2 0x24C2 JUMP JUMPDEST SWAP2 POP POP SWAP3 SWAP2 POP POP JUMP JUMPDEST PUSH0 PUSH1 0x80 DUP3 ADD SWAP1 POP PUSH2 0x2514 PUSH0 DUP4 ADD DUP8 PUSH2 0x1CCD JUMP JUMPDEST PUSH2 0x2521 PUSH1 0x20 DUP4 ADD DUP7 PUSH2 0x1C4A JUMP JUMPDEST PUSH2 0x252E PUSH1 0x40 DUP4 ADD DUP6 PUSH2 0x1C4A JUMP JUMPDEST PUSH2 0x253B PUSH1 0x60 DUP4 ADD DUP5 PUSH2 0x1C4A JUMP JUMPDEST SWAP6 SWAP5 POP POP POP POP POP JUMP JUMPDEST PUSH32 0x4D7573742062652070726F706F736564206F776E657200000000000000000000 PUSH0 DUP3 ADD MSTORE POP JUMP JUMPDEST PUSH0 PUSH2 0x2578 PUSH1 0x16 DUP4 PUSH2 0x1EE2 JUMP JUMPDEST SWAP2 POP PUSH2 0x2583 DUP3 PUSH2 0x2544 JUMP JUMPDEST PUSH1 0x20 DUP3 ADD SWAP1 POP SWAP2 SWAP1 POP JUMP JUMPDEST PUSH0 PUSH1 0x20 DUP3 ADD SWAP1 POP DUP2 DUP2 SUB PUSH0 DUP4 ADD MSTORE PUSH2 0x25A5 DUP2 PUSH2 0x256C JUMP JUMPDEST SWAP1 POP SWAP2 SWAP1 POP JUMP JUMPDEST PUSH0 PUSH1 0x60 DUP3 ADD SWAP1 POP PUSH2 0x25BF PUSH0 DUP4 ADD DUP7 PUSH2 0x1CCD JUMP JUMPDEST PUSH2 0x25CC PUSH1 0x20 DUP4 ADD DUP6 PUSH2 0x1CCD JUMP JUMPDEST PUSH2 0x25D9 PUSH1 0x40 DUP4 ADD DUP5 PUSH2 0x1CCD JUMP JUMPDEST SWAP5 SWAP4 POP POP POP POP JUMP JUMPDEST PUSH32 0x636F7272656374206A6F696E2061646472657373000000000000000000000000 PUSH0 DUP3 ADD MSTORE POP JUMP JUMPDEST PUSH0 PUSH2 0x2615 PUSH1 0x14 DUP4 PUSH2 0x1EE2 JUMP JUMPDEST SWAP2 POP PUSH2 0x2620 DUP3 PUSH2 0x25E1 JUMP JUMPDEST PUSH1 0x20 DUP3 ADD SWAP1 POP SWAP2 SWAP1 POP JUMP JUMPDEST PUSH0 PUSH1 0x20 DUP3 ADD SWAP1 POP DUP2 DUP2 SUB PUSH0 DUP4 ADD MSTORE PUSH2 0x2642 DUP2 PUSH2 0x2609 JUMP JUMPDEST SWAP1 POP SWAP2 SWAP1 POP JUMP JUMPDEST PUSH32 0x63757272656E74207461736B2068617320656E64000000000000000000000000 PUSH0 DUP3 ADD MSTORE POP JUMP JUMPDEST PUSH0 PUSH2 0x267D PUSH1 0x14 DUP4 PUSH2 0x1EE2 JUMP JUMPDEST SWAP2 POP PUSH2 0x2688 DUP3 PUSH2 0x2649 JUMP JUMPDEST PUSH1 0x20 DUP3 ADD SWAP1 POP SWAP2 SWAP1 POP JUMP JUMPDEST PUSH0 PUSH1 0x20 DUP3 ADD SWAP1 POP DUP2 DUP2 SUB PUSH0 DUP4 ADD MSTORE PUSH2 0x26AA DUP2 PUSH2 0x2671 JUMP JUMPDEST SWAP1 POP SWAP2 SWAP1 POP JUMP JUMPDEST PUSH32 0x6A6F696E207072696365206D75737420626520626967207468616E207469636B PUSH0 DUP3 ADD MSTORE PUSH32 0x2070726963650000000000000000000000000000000000000000000000000000 PUSH1 0x20 DUP3 ADD MSTORE POP JUMP JUMPDEST PUSH0 PUSH2 0x270B PUSH1 0x26 DUP4 PUSH2 0x1EE2 JUMP JUMPDEST SWAP2 POP PUSH2 0x2716 DUP3 PUSH2 0x26B1 JUMP JUMPDEST PUSH1 0x40 DUP3 ADD SWAP1 POP SWAP2 SWAP1 POP JUMP JUMPDEST PUSH0 PUSH1 0x20 DUP3 ADD SWAP1 POP DUP2 DUP2 SUB PUSH0 DUP4 ADD MSTORE PUSH2 0x2738 DUP2 PUSH2 0x26FF JUMP JUMPDEST SWAP1 POP SWAP2 SWAP1 POP JUMP JUMPDEST PUSH32 0x796F7520686173206A6F696E2069742C706C656173652077616974696E67206C PUSH0 DUP3 ADD MSTORE PUSH32 0x75636B7920676F696E6720646F776E0000000000000000000000000000000000 PUSH1 0x20 DUP3 ADD MSTORE POP JUMP JUMPDEST PUSH0 PUSH2 0x2799 PUSH1 0x2F DUP4 PUSH2 0x1EE2 JUMP JUMPDEST SWAP2 POP PUSH2 0x27A4 DUP3 PUSH2 0x273F JUMP JUMPDEST PUSH1 0x40 DUP3 ADD SWAP1 POP SWAP2 SWAP1 POP JUMP JUMPDEST PUSH0 PUSH1 0x20 DUP3 ADD SWAP1 POP DUP2 DUP2 SUB PUSH0 DUP4 ADD MSTORE PUSH2 0x27C6 DUP2 PUSH2 0x278D JUMP JUMPDEST SWAP1 POP SWAP2 SWAP1 POP JUMP JUMPDEST PUSH32 0x4E487B7100000000000000000000000000000000000000000000000000000000 PUSH0 MSTORE PUSH1 0x11 PUSH1 0x4 MSTORE PUSH1 0x24 PUSH0 REVERT JUMPDEST PUSH0 PUSH2 0x2804 DUP3 PUSH2 0x1B59 JUMP JUMPDEST SWAP2 POP PUSH2 0x280F DUP4 PUSH2 0x1B59 JUMP JUMPDEST SWAP3 POP DUP3 DUP3 ADD SWAP1 POP DUP1 DUP3 GT ISZERO PUSH2 0x2827 JUMPI PUSH2 0x2826 PUSH2 0x27CD JUMP JUMPDEST JUMPDEST SWAP3 SWAP2 POP POP JUMP JUMPDEST PUSH0 DUP2 PUSH1 0x1 SHR SWAP1 POP SWAP2 SWAP1 POP JUMP JUMPDEST PUSH0 PUSH0 DUP3 SWAP2 POP DUP4 SWAP1 POP JUMPDEST PUSH1 0x1 DUP6 GT ISZERO PUSH2 0x2882 JUMPI DUP1 DUP7 DIV DUP2 GT ISZERO PUSH2 0x285E JUMPI PUSH2 0x285D PUSH2 0x27CD JUMP JUMPDEST JUMPDEST PUSH1 0x1 DUP6 AND ISZERO PUSH2 0x286D JUMPI DUP1 DUP3 MUL SWAP2 POP JUMPDEST DUP1 DUP2 MUL SWAP1 POP PUSH2 0x287B DUP6 PUSH2 0x282D JUMP JUMPDEST SWAP5 POP PUSH2 0x2842 JUMP JUMPDEST SWAP5 POP SWAP5 SWAP3 POP POP POP JUMP JUMPDEST PUSH0 DUP3 PUSH2 0x289A JUMPI PUSH1 0x1 SWAP1 POP PUSH2 0x2955 JUMP JUMPDEST DUP2 PUSH2 0x28A7 JUMPI PUSH0 SWAP1 POP PUSH2 0x2955 JUMP JUMPDEST DUP2 PUSH1 0x1 DUP2 EQ PUSH2 0x28BD JUMPI PUSH1 0x2 DUP2 EQ PUSH2 0x28C7 JUMPI PUSH2 0x28F6 JUMP JUMPDEST PUSH1 0x1 SWAP2 POP POP PUSH2 0x2955 JUMP JUMPDEST PUSH1 0xFF DUP5 GT ISZERO PUSH2 0x28D9 JUMPI PUSH2 0x28D8 PUSH2 0x27CD JUMP JUMPDEST JUMPDEST DUP4 PUSH1 0x2 EXP SWAP2 POP DUP5 DUP3 GT ISZERO PUSH2 0x28F0 JUMPI PUSH2 0x28EF PUSH2 0x27CD JUMP JUMPDEST JUMPDEST POP PUSH2 0x2955 JUMP JUMPDEST POP PUSH1 0x20 DUP4 LT PUSH2 0x133 DUP4 LT AND PUSH1 0x4E DUP5 LT PUSH1 0xB DUP5 LT AND OR ISZERO PUSH2 0x292B JUMPI DUP3 DUP3 EXP SWAP1 POP DUP4 DUP2 GT ISZERO PUSH2 0x2926 JUMPI PUSH2 0x2925 PUSH2 0x27CD JUMP JUMPDEST JUMPDEST PUSH2 0x2955 JUMP JUMPDEST PUSH2 0x2938 DUP5 DUP5 DUP5 PUSH1 0x1 PUSH2 0x2839 JUMP JUMPDEST SWAP3 POP SWAP1 POP DUP2 DUP5 DIV DUP2 GT ISZERO PUSH2 0x294F JUMPI PUSH2 0x294E PUSH2 0x27CD JUMP JUMPDEST JUMPDEST DUP2 DUP2 MUL SWAP1 POP JUMPDEST SWAP4 SWAP3 POP POP POP JUMP JUMPDEST PUSH0 PUSH2 0x2966 DUP3 PUSH2 0x1B59 JUMP JUMPDEST SWAP2 POP PUSH2 0x2971 DUP4 PUSH2 0x1B59 JUMP JUMPDEST SWAP3 POP PUSH2 0x299E PUSH32 0xFFFFFFFFFFFFFFFFFFFFFFFFFFFFFFFFFFFFFFFFFFFFFFFFFFFFFFFFFFFFFFFF DUP5 DUP5 PUSH2 0x288B JUMP JUMPDEST SWAP1 POP SWAP3 SWAP2 POP POP JUMP JUMPDEST PUSH32 0x6E6F7420616C6C6C6F776564206A6F696E206974000000000000000000000000 PUSH0 DUP3 ADD MSTORE POP JUMP JUMPDEST PUSH0 PUSH2 0x29DA PUSH1 0x14 DUP4 PUSH2 0x1EE2 JUMP JUMPDEST SWAP2 POP PUSH2 0x29E5 DUP3 PUSH2 0x29A6 JUMP JUMPDEST PUSH1 0x20 DUP3 ADD SWAP1 POP SWAP2 SWAP1 POP JUMP JUMPDEST PUSH0 PUSH1 0x20 DUP3 ADD SWAP1 POP DUP2 DUP2 SUB PUSH0 DUP4 ADD MSTORE PUSH2 0x2A07 DUP2 PUSH2 0x29CE JUMP JUMPDEST SWAP1 POP SWAP2 SWAP1 POP JUMP JUMPDEST PUSH32 0x637265617465206C75636B20696E697420726577617264206D75737420626520 PUSH0 DUP3 ADD MSTORE PUSH32 0x626967207468616E207A65726F00000000000000000000000000000000000000 PUSH1 0x20 DUP3 ADD MSTORE POP JUMP JUMPDEST PUSH0 PUSH2 0x2A68 PUSH1 0x2D DUP4 PUSH2 0x1EE2 JUMP JUMPDEST SWAP2 POP PUSH2 0x2A73 DUP3 PUSH2 0x2A0E JUMP JUMPDEST PUSH1 0x40 DUP3 ADD SWAP1 POP SWAP2 SWAP1 POP JUMP JUMPDEST PUSH0 PUSH1 0x20 DUP3 ADD SWAP1 POP DUP2 DUP2 SUB PUSH0 DUP4 ADD MSTORE PUSH2 0x2A95 DUP2 PUSH2 0x2A5C JUMP JUMPDEST SWAP1 POP SWAP2 SWAP1 POP JUMP JUMPDEST PUSH32 0x4F6E6C792063616C6C61626C65206279206F776E657200000000000000000000 PUSH0 DUP3 ADD MSTORE POP JUMP JUMPDEST PUSH0 PUSH2 0x2AD0 PUSH1 0x16 DUP4 PUSH2 0x1EE2 JUMP JUMPDEST SWAP2 POP PUSH2 0x2ADB DUP3 PUSH2 0x2A9C JUMP JUMPDEST PUSH1 0x20 DUP3 ADD SWAP1 POP SWAP2 SWAP1 POP JUMP JUMPDEST PUSH0 PUSH1 0x20 DUP3 ADD SWAP1 POP DUP2 DUP2 SUB PUSH0 DUP4 ADD MSTORE PUSH2 0x2AFD DUP2 PUSH2 0x2AC4 JUMP JUMPDEST SWAP1 POP SWAP2 SWAP1 POP JUMP JUMPDEST PUSH32 0x6E6F74206578697374207461736B000000000000000000000000000000000000 PUSH0 DUP3 ADD MSTORE POP JUMP JUMPDEST PUSH0 PUSH2 0x2B38 PUSH1 0xE DUP4 PUSH2 0x1EE2 JUMP JUMPDEST SWAP2 POP PUSH2 0x2B43 DUP3 PUSH2 0x2B04 JUMP JUMPDEST PUSH1 0x20 DUP3 ADD SWAP1 POP SWAP2 SWAP1 POP JUMP JUMPDEST PUSH0 PUSH1 0x20 DUP3 ADD SWAP1 POP DUP2 DUP2 SUB PUSH0 DUP4 ADD MSTORE PUSH2 0x2B65 DUP2 PUSH2 0x2B2C JUMP JUMPDEST SWAP1 POP SWAP2 SWAP1 POP JUMP JUMPDEST PUSH32 0x4E6F207061727469636970616E74730000000000000000000000000000000000 PUSH0 DUP3 ADD MSTORE POP JUMP JUMPDEST PUSH0 PUSH2 0x2BA0 PUSH1 0xF DUP4 PUSH2 0x1EE2 JUMP JUMPDEST SWAP2 POP PUSH2 0x2BAB DUP3 PUSH2 0x2B6C JUMP JUMPDEST PUSH1 0x20 DUP3 ADD SWAP1 POP SWAP2 SWAP1 POP JUMP JUMPDEST PUSH0 PUSH1 0x20 DUP3 ADD SWAP1 POP DUP2 DUP2 SUB PUSH0 DUP4 ADD MSTORE PUSH2 0x2BCD DUP2 PUSH2 0x2B94 JUMP JUMPDEST SWAP1 POP SWAP2 SWAP1 POP JUMP JUMPDEST PUSH32 0x4E487B7100000000000000000000000000000000000000000000000000000000 PUSH0 MSTORE PUSH1 0x32 PUSH1 0x4 MSTORE PUSH1 0x24 PUSH0 REVERT JUMPDEST PUSH32 0x4E487B7100000000000000000000000000000000000000000000000000000000 PUSH0 MSTORE PUSH1 0x12 PUSH1 0x4 MSTORE PUSH1 0x24 PUSH0 REVERT JUMPDEST PUSH0 PUSH2 0x2C38 DUP3 PUSH2 0x1B59 JUMP JUMPDEST SWAP2 POP PUSH2 0x2C43 DUP4 PUSH2 0x1B59 JUMP JUMPDEST SWAP3 POP DUP3 PUSH2 0x2C53 JUMPI PUSH2 0x2C52 PUSH2 0x2C01 JUMP JUMPDEST JUMPDEST DUP3 DUP3 MOD SWAP1 POP SWAP3 SWAP2 POP POP JUMP JUMPDEST PUSH0 PUSH2 0x2C68 DUP3 PUSH2 0x1B59 JUMP JUMPDEST SWAP2 POP PUSH2 0x2C73 DUP4 PUSH2 0x1B59 JUMP JUMPDEST SWAP3 POP DUP3 PUSH2 0x2C83 JUMPI PUSH2 0x2C82 PUSH2 0x2C01 JUMP JUMPDEST JUMPDEST DUP3 DUP3 DIV SWAP1 POP SWAP3 SWAP2 POP POP JUMP JUMPDEST PUSH0 PUSH2 0x2C98 DUP3 PUSH2 0x1B59 JUMP JUMPDEST SWAP2 POP PUSH2 0x2CA3 DUP4 PUSH2 0x1B59 JUMP JUMPDEST SWAP3 POP DUP3 DUP3 MUL PUSH2 0x2CB1 DUP2 PUSH2 0x1B59 JUMP JUMPDEST SWAP2 POP DUP3 DUP3 DIV DUP5 EQ DUP4 ISZERO OR PUSH2 0x2CC8 JUMPI PUSH2 0x2CC7 PUSH2 0x27CD JUMP JUMPDEST JUMPDEST POP SWAP3 SWAP2 POP POP JUMP JUMPDEST PUSH0 PUSH2 0x2CD9 DUP3 PUSH2 0x1B59 JUMP JUMPDEST SWAP2 POP PUSH2 0x2CE4 DUP4 PUSH2 0x1B59 JUMP JUMPDEST SWAP3 POP DUP3 DUP3 SUB SWAP1 POP DUP2 DUP2 GT ISZERO PUSH2 0x2CFC JUMPI PUSH2 0x2CFB PUSH2 0x27CD JUMP JUMPDEST JUMPDEST SWAP3 SWAP2 POP POP JUMP JUMPDEST PUSH32 0x4661696C656420746F2073656E64207265776172640000000000000000000000 PUSH0 DUP3 ADD MSTORE POP JUMP JUMPDEST PUSH0 PUSH2 0x2D36 PUSH1 0x15 DUP4 PUSH2 0x1EE2 JUMP JUMPDEST SWAP2 POP PUSH2 0x2D41 DUP3 PUSH2 0x2D02 JUMP JUMPDEST PUSH1 0x20 DUP3 ADD SWAP1 POP SWAP2 SWAP1 POP JUMP JUMPDEST PUSH0 PUSH1 0x20 DUP3 ADD SWAP1 POP DUP2 DUP2 SUB PUSH0 DUP4 ADD MSTORE PUSH2 0x2D63 DUP2 PUSH2 0x2D2A JUMP JUMPDEST SWAP1 POP SWAP2 SWAP1 POP JUMP JUMPDEST PUSH2 0x2D73 DUP2 PUSH2 0x1CDC JUMP JUMPDEST DUP3 MSTORE POP POP JUMP JUMPDEST PUSH1 0x20 DUP3 ADD PUSH0 DUP3 ADD MLOAD PUSH2 0x2D8D PUSH0 DUP6 ADD DUP3 PUSH2 0x2D6A JUMP JUMPDEST POP POP POP POP JUMP JUMPDEST PUSH0 PUSH1 0x20 DUP3 ADD SWAP1 POP PUSH2 0x2DA6 PUSH0 DUP4 ADD DUP5 PUSH2 0x2D79 JUMP JUMPDEST SWAP3 SWAP2 POP POP JUMP JUMPDEST PUSH32 0x43616E6E6F74207472616E7366657220746F2073656C66000000000000000000 PUSH0 DUP3 ADD MSTORE POP JUMP JUMPDEST PUSH0 PUSH2 0x2DE0 PUSH1 0x17 DUP4 PUSH2 0x1EE2 JUMP JUMPDEST SWAP2 POP PUSH2 0x2DEB DUP3 PUSH2 0x2DAC JUMP JUMPDEST PUSH1 0x20 DUP3 ADD SWAP1 POP SWAP2 SWAP1 POP JUMP JUMPDEST PUSH0 PUSH1 0x20 DUP3 ADD SWAP1 POP DUP2 DUP2 SUB PUSH0 DUP4 ADD MSTORE PUSH2 0x2E0D DUP2 PUSH2 0x2DD4 JUMP JUMPDEST SWAP1 POP SWAP2 SWAP1 POP JUMP INVALID LOG2 PUSH5 0x6970667358 0x22 SLT KECCAK256 PUSH19 0x84F1254F67EE35ACA74BFEDA3A41D957A5F291 DELEGATECALL 0xD2 RETURNCONTRACT 0x2F PUSH3 0xAE4719 DUP6 DUP2 0xBE 0xD2 PUSH5 0x736F6C6343 STOP ADDMOD 0x1E STOP CALLER "
				},
				"gasEstimates": {
					"creation": {
						"codeDepositCost": "2370000",
						"executionCost": "infinite",
						"totalCost": "infinite"
					},
					"external": {
						"DECIMALS()": "393",
						"ONE()": "infinite",
						"acceptOwnership()": "54598",
						"createLucky(uint256,uint256,uint256)": "infinite",
						"currentId()": "2469",
						"drawWinner(uint256)": "infinite",
						"getLuckyJoinBalance(uint256,address)": "infinite",
						"getOneLuckyInfo(uint256)": "infinite",
						"getTotalFee()": "2521",
						"joinLucky(uint256)": "infinite",
						"owner()": "2537",
						"rawFulfillRandomWords(uint256,uint256[])": "infinite",
						"requestidToJoinId(uint256)": "infinite",
						"s_vrfCoordinator()": "infinite",
						"setCoordinator(address)": "infinite",
						"transferOwnership(address)": "30737",
						"withDraw()": "infinite"
					},
					"internal": {
						"fulfillRandomWords(uint256,uint256[] calldata)": "infinite"
					}
				},
				"methodIdentifiers": {
					"DECIMALS()": "2e0f2625",
					"ONE()": "c2ee3a08",
					"acceptOwnership()": "79ba5097",
					"createLucky(uint256,uint256,uint256)": "f36b98fb",
					"currentId()": "e00dd161",
					"drawWinner(uint256)": "60b2a56a",
					"getLuckyJoinBalance(uint256,address)": "e578b0bb",
					"getOneLuckyInfo(uint256)": "36068a56",
					"getTotalFee()": "7ae316d0",
					"joinLucky(uint256)": "a3fa9775",
					"owner()": "8da5cb5b",
					"rawFulfillRandomWords(uint256,uint256[])": "1fe543e3",
					"requestidToJoinId(uint256)": "64b6a998",
					"s_vrfCoordinator()": "9eccacf6",
					"setCoordinator(address)": "8ea98117",
					"transferOwnership(address)": "f2fde38b",
					"withDraw()": "0fdb1c10"
				}
			},
			"storageLayout": {
				"storage": [
					{
						"astId": 29,
						"contract": "LuckyDrawVRF.sol:LuckyDrawVRF",
						"label": "s_owner",
						"offset": 0,
						"slot": "0",
						"type": "t_address"
					},
					{
						"astId": 31,
						"contract": "LuckyDrawVRF.sol:LuckyDrawVRF",
						"label": "s_pendingOwner",
						"offset": 0,
						"slot": "1",
						"type": "t_address"
					},
					{
						"astId": 231,
						"contract": "LuckyDrawVRF.sol:LuckyDrawVRF",
						"label": "s_vrfCoordinator",
						"offset": 0,
						"slot": "2",
						"type": "t_contract(IVRFCoordinatorV2Plus)380"
					},
					{
						"astId": 541,
						"contract": "LuckyDrawVRF.sol:LuckyDrawVRF",
						"label": "subscriptionId",
						"offset": 0,
						"slot": "3",
						"type": "t_uint256"
					},
					{
						"astId": 543,
						"contract": "LuckyDrawVRF.sol:LuckyDrawVRF",
						"label": "vrfCoordinator",
						"offset": 0,
						"slot": "4",
						"type": "t_address"
					},
					{
						"astId": 545,
						"contract": "LuckyDrawVRF.sol:LuckyDrawVRF",
						"label": "keyHash",
						"offset": 0,
						"slot": "5",
						"type": "t_bytes32"
					},
					{
						"astId": 548,
						"contract": "LuckyDrawVRF.sol:LuckyDrawVRF",
						"label": "requestConfirmation",
						"offset": 0,
						"slot": "6",
						"type": "t_uint16"
					},
					{
						"astId": 551,
						"contract": "LuckyDrawVRF.sol:LuckyDrawVRF",
						"label": "callbackGasLimit",
						"offset": 2,
						"slot": "6",
						"type": "t_uint32"
					},
					{
						"astId": 554,
						"contract": "LuckyDrawVRF.sol:LuckyDrawVRF",
						"label": "numWords",
						"offset": 6,
						"slot": "6",
						"type": "t_uint32"
					},
					{
						"astId": 556,
						"contract": "LuckyDrawVRF.sol:LuckyDrawVRF",
						"label": "currentId",
						"offset": 0,
						"slot": "7",
						"type": "t_uint256"
					},
					{
						"astId": 561,
						"contract": "LuckyDrawVRF.sol:LuckyDrawVRF",
						"label": "records",
						"offset": 0,
						"slot": "8",
						"type": "t_mapping(t_uint256,t_struct(Join)596_storage)"
					},
					{
						"astId": 565,
						"contract": "LuckyDrawVRF.sol:LuckyDrawVRF",
						"label": "requestidToJoinId",
						"offset": 0,
						"slot": "9",
						"type": "t_mapping(t_uint256,t_uint256)"
					},
					{
						"astId": 568,
						"contract": "LuckyDrawVRF.sol:LuckyDrawVRF",
						"label": "hasProcessing",
						"offset": 0,
						"slot": "10",
						"type": "t_uint8"
					},
					{
						"astId": 570,
						"contract": "LuckyDrawVRF.sol:LuckyDrawVRF",
						"label": "miniPrice",
						"offset": 0,
						"slot": "11",
						"type": "t_uint256"
					},
					{
						"astId": 572,
						"contract": "LuckyDrawVRF.sol:LuckyDrawVRF",
						"label": "totalFee",
						"offset": 0,
						"slot": "12",
						"type": "t_uint256"
					},
					{
						"astId": 574,
						"contract": "LuckyDrawVRF.sol:LuckyDrawVRF",
						"label": "contractOwner",
						"offset": 0,
						"slot": "13",
						"type": "t_address"
					}
				],
				"types": {
					"t_address": {
						"encoding": "inplace",
						"label": "address",
						"numberOfBytes": "20"
					},
					"t_array(t_address)dyn_storage": {
						"base": "t_address",
						"encoding": "dynamic_array",
						"label": "address[]",
						"numberOfBytes": "32"
					},
					"t_bool": {
						"encoding": "inplace",
						"label": "bool",
						"numberOfBytes": "1"
					},
					"t_bytes32": {
						"encoding": "inplace",
						"label": "bytes32",
						"numberOfBytes": "32"
					},
					"t_contract(IVRFCoordinatorV2Plus)380": {
						"encoding": "inplace",
						"label": "contract IVRFCoordinatorV2Plus",
						"numberOfBytes": "20"
					},
					"t_mapping(t_address,t_uint256)": {
						"encoding": "mapping",
						"key": "t_address",
						"label": "mapping(address => uint256)",
						"numberOfBytes": "32",
						"value": "t_uint256"
					},
					"t_mapping(t_uint256,t_struct(Join)596_storage)": {
						"encoding": "mapping",
						"key": "t_uint256",
						"label": "mapping(uint256 => struct LuckyDrawVRF.Join)",
						"numberOfBytes": "32",
						"value": "t_struct(Join)596_storage"
					},
					"t_mapping(t_uint256,t_uint256)": {
						"encoding": "mapping",
						"key": "t_uint256",
						"label": "mapping(uint256 => uint256)",
						"numberOfBytes": "32",
						"value": "t_uint256"
					},
					"t_struct(Join)596_storage": {
						"encoding": "inplace",
						"label": "struct LuckyDrawVRF.Join",
						"members": [
							{
								"astId": 576,
								"contract": "LuckyDrawVRF.sol:LuckyDrawVRF",
								"label": "startTime",
								"offset": 0,
								"slot": "0",
								"type": "t_uint256"
							},
							{
								"astId": 578,
								"contract": "LuckyDrawVRF.sol:LuckyDrawVRF",
								"label": "endTime",
								"offset": 0,
								"slot": "1",
								"type": "t_uint256"
							},
							{
								"astId": 580,
								"contract": "LuckyDrawVRF.sol:LuckyDrawVRF",
								"label": "totalReward",
								"offset": 0,
								"slot": "2",
								"type": "t_uint256"
							},
							{
								"astId": 582,
								"contract": "LuckyDrawVRF.sol:LuckyDrawVRF",
								"label": "owner",
								"offset": 0,
								"slot": "3",
								"type": "t_address"
							},
							{
								"astId": 584,
								"contract": "LuckyDrawVRF.sol:LuckyDrawVRF",
								"label": "winner",
								"offset": 0,
								"slot": "4",
								"type": "t_address"
							},
							{
								"astId": 586,
								"contract": "LuckyDrawVRF.sol:LuckyDrawVRF",
								"label": "price",
								"offset": 0,
								"slot": "5",
								"type": "t_uint256"
							},
							{
								"astId": 588,
								"contract": "LuckyDrawVRF.sol:LuckyDrawVRF",
								"label": "open",
								"offset": 0,
								"slot": "6",
								"type": "t_bool"
							},
							{
								"astId": 592,
								"contract": "LuckyDrawVRF.sol:LuckyDrawVRF",
								"label": "joins",
								"offset": 0,
								"slot": "7",
								"type": "t_mapping(t_address,t_uint256)"
							},
							{
								"astId": 595,
								"contract": "LuckyDrawVRF.sol:LuckyDrawVRF",
								"label": "joinAddress",
								"offset": 0,
								"slot": "8",
								"type": "t_array(t_address)dyn_storage"
							}
						],
						"numberOfBytes": "288"
					},
					"t_uint16": {
						"encoding": "inplace",
						"label": "uint16",
						"numberOfBytes": "2"
					},
					"t_uint256": {
						"encoding": "inplace",
						"label": "uint256",
						"numberOfBytes": "32"
					},
					"t_uint32": {
						"encoding": "inplace",
						"label": "uint32",
						"numberOfBytes": "4"
					},
					"t_uint8": {
						"encoding": "inplace",
						"label": "uint8",
						"numberOfBytes": "1"
					}
				}
			},
			"userdoc": {
				"kind": "user",
				"methods": {
					"acceptOwnership()": {
						"notice": "Allows an ownership transfer to be completed by the recipient."
					},
					"owner()": {
						"notice": "Get the current owner"
					},
					"setCoordinator(address)": {
						"notice": "Sets the VRF Coordinator addressThis method should only be callable by the coordinator or contract owner"
					},
					"transferOwnership(address)": {
						"notice": "Allows an owner to begin transferring ownership to a new address."
					}
				},
				"version": 1
			}
		}
	}
}